{
  "_format": "hh-sol-artifact-1",
  "contractName": "GameManager",
  "sourceName": "contracts/GameManager.sol",
  "abi": [
    {
      "inputs": [
        {
          "internalType": "contract GameEngine",
          "name": "engine",
          "type": "address"
        }
      ],
      "stateMutability": "nonpayable",
      "type": "constructor"
    },
    {
      "anonymous": false,
      "inputs": [
        {
          "indexed": true,
          "internalType": "address",
          "name": "attacker",
          "type": "address"
        },
        {
          "indexed": true,
          "internalType": "address",
          "name": "defender",
          "type": "address"
        },
        {
          "components": [
            {
              "internalType": "string",
              "name": "nameLhs",
              "type": "string"
            },
            {
              "internalType": "string",
              "name": "nameRhs",
              "type": "string"
            },
            {
              "internalType": "uint16[]",
              "name": "selectionLhs",
              "type": "uint16[]"
            },
            {
              "internalType": "uint16[]",
              "name": "selectionRhs",
              "type": "uint16[]"
            },
            {
              "internalType": "uint16",
              "name": "commanderLhs",
              "type": "uint16"
            },
            {
              "internalType": "uint16",
              "name": "commanderRhs",
              "type": "uint16"
            },
            {
              "components": [
                {
                  "internalType": "string",
                  "name": "moveType",
                  "type": "string"
                },
                {
                  "internalType": "uint16",
                  "name": "round",
                  "type": "uint16"
                },
                {
                  "internalType": "uint16",
                  "name": "source",
                  "type": "uint16"
                },
                {
                  "internalType": "uint16",
                  "name": "target",
                  "type": "uint16"
                },
                {
                  "internalType": "int16",
                  "name": "targetPosition",
                  "type": "int16"
                },
                {
                  "internalType": "uint64",
                  "name": "damage",
                  "type": "uint64"
                }
              ],
              "internalType": "struct Move[]",
              "name": "lhs",
              "type": "tuple[]"
            },
            {
              "components": [
                {
                  "internalType": "string",
                  "name": "moveType",
                  "type": "string"
                },
                {
                  "internalType": "uint16",
                  "name": "round",
                  "type": "uint16"
                },
                {
                  "internalType": "uint16",
                  "name": "source",
                  "type": "uint16"
                },
                {
                  "internalType": "uint16",
                  "name": "target",
                  "type": "uint16"
                },
                {
                  "internalType": "int16",
                  "name": "targetPosition",
                  "type": "int16"
                },
                {
                  "internalType": "uint64",
                  "name": "damage",
                  "type": "uint64"
                }
              ],
              "internalType": "struct Move[]",
              "name": "rhs",
              "type": "tuple[]"
            },
            {
              "internalType": "int64[]",
              "name": "lhsHp",
              "type": "int64[]"
            },
            {
              "internalType": "int64[]",
              "name": "rhsHp",
              "type": "int64[]"
            },
            {
              "internalType": "bool",
              "name": "lhsDead",
              "type": "bool"
            },
            {
              "internalType": "bool",
              "name": "rhsDead",
              "type": "bool"
            },
            {
              "internalType": "uint16",
              "name": "rounds",
              "type": "uint16"
            }
          ],
          "indexed": false,
          "internalType": "struct FightResult",
          "name": "result",
          "type": "tuple"
        }
      ],
      "name": "FightComplete",
      "type": "event"
    },
    {
      "inputs": [
        {
          "internalType": "address",
          "name": "enemy",
          "type": "address"
        },
        {
          "internalType": "uint16[]",
          "name": "selection",
          "type": "uint16[]"
        },
        {
          "internalType": "uint16",
          "name": "commander",
          "type": "uint16"
        },
        {
          "internalType": "string",
          "name": "playerName",
          "type": "string"
        }
      ],
      "name": "attack",
      "outputs": [
        {
          "components": [
            {
              "internalType": "string",
              "name": "nameLhs",
              "type": "string"
            },
            {
              "internalType": "string",
              "name": "nameRhs",
              "type": "string"
            },
            {
              "internalType": "uint16[]",
              "name": "selectionLhs",
              "type": "uint16[]"
            },
            {
              "internalType": "uint16[]",
              "name": "selectionRhs",
              "type": "uint16[]"
            },
            {
              "internalType": "uint16",
              "name": "commanderLhs",
              "type": "uint16"
            },
            {
              "internalType": "uint16",
              "name": "commanderRhs",
              "type": "uint16"
            },
            {
              "components": [
                {
                  "internalType": "string",
                  "name": "moveType",
                  "type": "string"
                },
                {
                  "internalType": "uint16",
                  "name": "round",
                  "type": "uint16"
                },
                {
                  "internalType": "uint16",
                  "name": "source",
                  "type": "uint16"
                },
                {
                  "internalType": "uint16",
                  "name": "target",
                  "type": "uint16"
                },
                {
                  "internalType": "int16",
                  "name": "targetPosition",
                  "type": "int16"
                },
                {
                  "internalType": "uint64",
                  "name": "damage",
                  "type": "uint64"
                }
              ],
              "internalType": "struct Move[]",
              "name": "lhs",
              "type": "tuple[]"
            },
            {
              "components": [
                {
                  "internalType": "string",
                  "name": "moveType",
                  "type": "string"
                },
                {
                  "internalType": "uint16",
                  "name": "round",
                  "type": "uint16"
                },
                {
                  "internalType": "uint16",
                  "name": "source",
                  "type": "uint16"
                },
                {
                  "internalType": "uint16",
                  "name": "target",
                  "type": "uint16"
                },
                {
                  "internalType": "int16",
                  "name": "targetPosition",
                  "type": "int16"
                },
                {
                  "internalType": "uint64",
                  "name": "damage",
                  "type": "uint64"
                }
              ],
              "internalType": "struct Move[]",
              "name": "rhs",
              "type": "tuple[]"
            },
            {
              "internalType": "int64[]",
              "name": "lhsHp",
              "type": "int64[]"
            },
            {
              "internalType": "int64[]",
              "name": "rhsHp",
              "type": "int64[]"
            },
            {
              "internalType": "bool",
              "name": "lhsDead",
              "type": "bool"
            },
            {
              "internalType": "bool",
              "name": "rhsDead",
              "type": "bool"
            },
            {
              "internalType": "uint16",
              "name": "rounds",
              "type": "uint16"
            }
          ],
          "internalType": "struct FightResult",
          "name": "result",
          "type": "tuple"
        }
      ],
      "stateMutability": "nonpayable",
      "type": "function"
    },
    {
      "inputs": [],
      "name": "gameEngine",
      "outputs": [
        {
          "internalType": "contract GameEngine",
          "name": "",
          "type": "address"
        }
      ],
      "stateMutability": "view",
      "type": "function"
    },
    {
      "inputs": [],
      "name": "getAllDefenders",
      "outputs": [
        {
          "components": [
            {
              "internalType": "address",
              "name": "player",
              "type": "address"
            },
            {
              "internalType": "bool",
              "name": "isInitialised",
              "type": "bool"
            },
            {
              "internalType": "uint16[]",
              "name": "defenceSelection",
              "type": "uint16[]"
            },
            {
              "internalType": "uint16",
              "name": "commander",
              "type": "uint16"
            },
            {
              "internalType": "string",
              "name": "name",
              "type": "string"
            }
          ],
          "internalType": "struct PlayerDefence[]",
          "name": "",
          "type": "tuple[]"
        }
      ],
      "stateMutability": "view",
      "type": "function"
    },
    {
      "inputs": [],
      "name": "getLeaderboard",
      "outputs": [
        {
          "components": [
            {
              "internalType": "address",
              "name": "player",
              "type": "address"
            },
            {
              "internalType": "string",
              "name": "name",
              "type": "string"
            },
            {
              "internalType": "uint256",
              "name": "wins",
              "type": "uint256"
            },
            {
              "internalType": "uint256",
              "name": "losses",
              "type": "uint256"
            }
          ],
          "internalType": "struct LeaderboardEntry[]",
          "name": "",
          "type": "tuple[]"
        }
      ],
      "stateMutability": "view",
      "type": "function"
    },
    {
      "inputs": [],
      "name": "getOwnDefence",
      "outputs": [
        {
          "components": [
            {
              "internalType": "address",
              "name": "player",
              "type": "address"
            },
            {
              "internalType": "bool",
              "name": "isInitialised",
              "type": "bool"
            },
            {
              "internalType": "uint16[]",
              "name": "defenceSelection",
              "type": "uint16[]"
            },
            {
              "internalType": "uint16",
              "name": "commander",
              "type": "uint16"
            },
            {
              "internalType": "string",
              "name": "name",
              "type": "string"
            }
          ],
          "internalType": "struct PlayerDefence",
          "name": "",
          "type": "tuple"
        }
      ],
      "stateMutability": "view",
      "type": "function"
    },
    {
      "inputs": [],
      "name": "owner",
      "outputs": [
        {
          "internalType": "address",
          "name": "",
          "type": "address"
        }
      ],
      "stateMutability": "view",
      "type": "function"
    },
    {
      "inputs": [
        {
          "internalType": "uint16[]",
          "name": "defence",
          "type": "uint16[]"
        },
        {
          "internalType": "uint16",
          "name": "commander",
          "type": "uint16"
        },
        {
          "internalType": "string",
          "name": "name",
          "type": "string"
        }
      ],
      "name": "registerDefence",
      "outputs": [],
      "stateMutability": "nonpayable",
      "type": "function"
    }
  ],
  "bytecode": "0x6080604052336000806101000a81548173ffffffffffffffffffffffffffffffffffffffff021916908373ffffffffffffffffffffffffffffffffffffffff1602179055503480156200005157600080fd5b506040516200360f3803806200360f8339818101604052810190620000779190620000d6565b80600160006101000a81548173ffffffffffffffffffffffffffffffffffffffff021916908373ffffffffffffffffffffffffffffffffffffffff1602179055505062000164565b600081519050620000d0816200014a565b92915050565b600060208284031215620000e957600080fd5b6000620000f984828501620000bf565b91505092915050565b60006200010f826200012a565b9050919050565b6000620001238262000102565b9050919050565b600073ffffffffffffffffffffffffffffffffffffffff82169050919050565b620001558162000116565b81146200016157600080fd5b50565b61349b80620001746000396000f3fe608060405234801561001057600080fd5b506004361061007d5760003560e01c80638f4ed46e1161005b5780638f4ed46e146100dc578063d43b838c146100f8578063e13141b414610116578063e5336276146101465761007d565b80636d763a6e146100825780637af584de146100a05780638da5cb5b146100be575b600080fd5b61008a610164565b6040516100979190612bc4565b60405180910390f35b6100a8610447565b6040516100b59190612be6565b60405180910390f35b6100c6610649565b6040516100d39190612ba9565b60405180910390f35b6100f660048036038101906100f19190611f09565b61066d565b005b610100610909565b60405161010d9190612cd8565b60405180910390f35b610130600480360381019061012b9190611e76565b610b92565b60405161013d9190612cb6565b60405180910390f35b61014e6115ae565b60405161015b9190612c5b565b60405180910390f35b6060600060038054905067ffffffffffffffff8111156101ad577f4e487b7100000000000000000000000000000000000000000000000000000000600052604160045260246000fd5b6040519080825280602002602001820160405280156101e657816020015b6101d36115d4565b8152602001906001900390816101cb5790505b50905060005b60038054905081101561043f57600060038281548110610235577f4e487b7100000000000000000000000000000000000000000000000000000000600052603260045260246000fd5b9060005260206000200160009054906101000a900473ffffffffffffffffffffffffffffffffffffffff16905060405180608001604052808273ffffffffffffffffffffffffffffffffffffffff168152602001600460008473ffffffffffffffffffffffffffffffffffffffff1673ffffffffffffffffffffffffffffffffffffffff16815260200190815260200160002060030180546102d690613052565b80601f016020809104026020016040519081016040528092919081815260200182805461030290613052565b801561034f5780601f106103245761010080835404028352916020019161034f565b820191906000526020600020905b81548152906001019060200180831161033257829003601f168201915b50505050508152602001600260008473ffffffffffffffffffffffffffffffffffffffff1673ffffffffffffffffffffffffffffffffffffffff168152602001908152602001600020600201548152602001600260008473ffffffffffffffffffffffffffffffffffffffff1673ffffffffffffffffffffffffffffffffffffffff16815260200190815260200160002060030154815250838381518110610420577f4e487b7100000000000000000000000000000000000000000000000000000000600052603260045260246000fd5b602002602001018190525050808061043790613224565b9150506101ec565b508091505090565b60606005805480602002602001604051908101604052809291908181526020016000905b8282101561064057838290600052602060002090600402016040518060a00160405290816000820160009054906101000a900473ffffffffffffffffffffffffffffffffffffffff1673ffffffffffffffffffffffffffffffffffffffff1673ffffffffffffffffffffffffffffffffffffffff1681526020016000820160149054906101000a900460ff161515151581526020016001820180548060200260200160405190810160405280929190818152602001828054801561057657602002820191906000526020600020906000905b82829054906101000a900461ffff1661ffff168152602001906002019060208260010104928301926001038202915080841161053d5790505b505050505081526020016002820160009054906101000a900461ffff1661ffff1661ffff1681526020016003820180546105af90613052565b80601f01602080910402602001604051908101604052809291908181526020018280546105db90613052565b80156106285780601f106105fd57610100808354040283529160200191610628565b820191906000526020600020905b81548152906001019060200180831161060b57829003601f168201915b5050505050815250508152602001906001019061046b565b50505050905090565b60008054906101000a900473ffffffffffffffffffffffffffffffffffffffff1681565b60006040518060a001604052803373ffffffffffffffffffffffffffffffffffffffff1681526020016001151581526020018581526020018461ffff168152602001838152509050600460003373ffffffffffffffffffffffffffffffffffffffff1673ffffffffffffffffffffffffffffffffffffffff16815260200190815260200160002060000160149054906101000a900460ff166107fc57600581908060018154018082558091505060019003906000526020600020906004020160009091909190915060008201518160000160006101000a81548173ffffffffffffffffffffffffffffffffffffffff021916908373ffffffffffffffffffffffffffffffffffffffff16021790555060208201518160000160146101000a81548160ff02191690831515021790555060408201518160010190805190602001906107b8929190611612565b5060608201518160020160006101000a81548161ffff021916908361ffff16021790555060808201518160030190805190602001906107f89291906116bc565b5050505b80600460003373ffffffffffffffffffffffffffffffffffffffff1673ffffffffffffffffffffffffffffffffffffffff16815260200190815260200160002060008201518160000160006101000a81548173ffffffffffffffffffffffffffffffffffffffff021916908373ffffffffffffffffffffffffffffffffffffffff16021790555060208201518160000160146101000a81548160ff02191690831515021790555060408201518160010190805190602001906108bf929190611612565b5060608201518160020160006101000a81548161ffff021916908361ffff16021790555060808201518160030190805190602001906108ff9291906116bc565b5090505050505050565b610911611742565b600460003373ffffffffffffffffffffffffffffffffffffffff1673ffffffffffffffffffffffffffffffffffffffff16815260200190815260200160002060000160149054906101000a900460ff166109a0576040517f08c379a000000000000000000000000000000000000000000000000000000000815260040161099790612c96565b60405180910390fd5b600460003373ffffffffffffffffffffffffffffffffffffffff1673ffffffffffffffffffffffffffffffffffffffff1681526020019081526020016000206040518060a00160405290816000820160009054906101000a900473ffffffffffffffffffffffffffffffffffffffff1673ffffffffffffffffffffffffffffffffffffffff1673ffffffffffffffffffffffffffffffffffffffff1681526020016000820160149054906101000a900460ff1615151515815260200160018201805480602002602001604051908101604052809291908181526020018280548015610ad257602002820191906000526020600020906000905b82829054906101000a900461ffff1661ffff1681526020019060020190602082600101049283019260010382029150808411610a995790505b505050505081526020016002820160009054906101000a900461ffff1661ffff1661ffff168152602001600382018054610b0b90613052565b80601f0160208091040260200160405190810160405280929190818152602001828054610b3790613052565b8015610b845780601f10610b5957610100808354040283529160200191610b84565b820191906000526020600020905b815481529060010190602001808311610b6757829003601f168201915b505050505081525050905090565b610b9a61178d565b600460008673ffffffffffffffffffffffffffffffffffffffff1673ffffffffffffffffffffffffffffffffffffffff16815260200190815260200160002060000160149054906101000a900460ff16610c29576040517f08c379a0000000000000000000000000000000000000000000000000000000008152600401610c2090612c76565b60405180910390fd5b600160009054906101000a900473ffffffffffffffffffffffffffffffffffffffff1673ffffffffffffffffffffffffffffffffffffffff1663c0749d7a85600460008973ffffffffffffffffffffffffffffffffffffffff1673ffffffffffffffffffffffffffffffffffffffff16815260200190815260200160002060010186600460008b73ffffffffffffffffffffffffffffffffffffffff1673ffffffffffffffffffffffffffffffffffffffff16815260200190815260200160002060020160009054906101000a900461ffff166040518563ffffffff1660e01b8152600401610d1b9493929190612c08565b60006040518083038186803b158015610d3357600080fd5b505afa158015610d47573d6000803e3d6000fd5b505050506040513d6000823e3d601f19601f82011682018060405250810190610d709190611f88565b9050818160000181905250600460008673ffffffffffffffffffffffffffffffffffffffff1673ffffffffffffffffffffffffffffffffffffffff1681526020019081526020016000206003018054610dc890613052565b80601f0160208091040260200160405190810160405280929190818152602001828054610df490613052565b8015610e415780601f10610e1657610100808354040283529160200191610e41565b820191906000526020600020905b815481529060010190602001808311610e2457829003601f168201915b50505050508160200181905250600260003373ffffffffffffffffffffffffffffffffffffffff1673ffffffffffffffffffffffffffffffffffffffff16815260200190815260200160002060000160149054906101000a900460ff16610fe25733600260003373ffffffffffffffffffffffffffffffffffffffff1673ffffffffffffffffffffffffffffffffffffffff16815260200190815260200160002060000160006101000a81548173ffffffffffffffffffffffffffffffffffffffff021916908373ffffffffffffffffffffffffffffffffffffffff1602179055506001600260003373ffffffffffffffffffffffffffffffffffffffff1673ffffffffffffffffffffffffffffffffffffffff16815260200190815260200160002060000160146101000a81548160ff0219169083151502179055506003339080600181540180825580915050600190039060005260206000200160009091909190916101000a81548173ffffffffffffffffffffffffffffffffffffffff021916908373ffffffffffffffffffffffffffffffffffffffff1602179055505b600260008673ffffffffffffffffffffffffffffffffffffffff1673ffffffffffffffffffffffffffffffffffffffff16815260200190815260200160002060000160149054906101000a900460ff166111765784600260008773ffffffffffffffffffffffffffffffffffffffff1673ffffffffffffffffffffffffffffffffffffffff16815260200190815260200160002060000160006101000a81548173ffffffffffffffffffffffffffffffffffffffff021916908373ffffffffffffffffffffffffffffffffffffffff1602179055506001600260008773ffffffffffffffffffffffffffffffffffffffff1673ffffffffffffffffffffffffffffffffffffffff16815260200190815260200160002060000160146101000a81548160ff0219169083151502179055506003859080600181540180825580915050600190039060005260206000200160009091909190916101000a81548173ffffffffffffffffffffffffffffffffffffffff021916908373ffffffffffffffffffffffffffffffffffffffff1602179055505b600460003373ffffffffffffffffffffffffffffffffffffffff1673ffffffffffffffffffffffffffffffffffffffff16815260200190815260200160002060000160149054906101000a900460ff166113c9576000600467ffffffffffffffff81111561120d577f4e487b7100000000000000000000000000000000000000000000000000000000600052604160045260246000fd5b60405190808252806020026020018201604052801561123b5781602001602082028036833780820191505090505b50905060148160008151811061127a577f4e487b7100000000000000000000000000000000000000000000000000000000600052603260045260246000fd5b602002602001019061ffff16908161ffff16815250506014816001815181106112cc577f4e487b7100000000000000000000000000000000000000000000000000000000600052603260045260246000fd5b602002602001019061ffff16908161ffff168152505060148160028151811061131e577f4e487b7100000000000000000000000000000000000000000000000000000000600052603260045260246000fd5b602002602001019061ffff16908161ffff1681525050601481600381518110611370577f4e487b7100000000000000000000000000000000000000000000000000000000600052603260045260246000fd5b602002602001019061ffff16908161ffff16815250506113c78160006040518060400160405280600981526020017f416e6f6e796d6f7573000000000000000000000000000000000000000000000081525061066d565b505b8061014001511561148557600260008673ffffffffffffffffffffffffffffffffffffffff1673ffffffffffffffffffffffffffffffffffffffff168152602001908152602001600020600201600081548092919061142790613224565b9190505550600260003373ffffffffffffffffffffffffffffffffffffffff1673ffffffffffffffffffffffffffffffffffffffff168152602001908152602001600020600301600081548092919061147f90613224565b91905055505b8061016001511561154157600260003373ffffffffffffffffffffffffffffffffffffffff1673ffffffffffffffffffffffffffffffffffffffff16815260200190815260200160002060020160008154809291906114e390613224565b9190505550600260008673ffffffffffffffffffffffffffffffffffffffff1673ffffffffffffffffffffffffffffffffffffffff168152602001908152602001600020600301600081548092919061153b90613224565b91905055505b8473ffffffffffffffffffffffffffffffffffffffff163373ffffffffffffffffffffffffffffffffffffffff167f8978a8a823663cd3684ad60dbf9d6d27f7e3036a6fecce7afe1cc35563253cb08360405161159e9190612cb6565b60405180910390a3949350505050565b600160009054906101000a900473ffffffffffffffffffffffffffffffffffffffff1681565b6040518060800160405280600073ffffffffffffffffffffffffffffffffffffffff1681526020016060815260200160008152602001600081525090565b82805482825590600052602060002090600f016010900481019282156116ab5791602002820160005b8382111561167b57835183826101000a81548161ffff021916908361ffff160217905550926020019260020160208160010104928301926001030261163b565b80156116a95782816101000a81549061ffff021916905560020160208160010104928301926001030261167b565b505b5090506116b89190611805565b5090565b8280546116c890613052565b90600052602060002090601f0160209004810192826116ea5760008555611731565b82601f1061170357805160ff1916838001178555611731565b82800160010185558215611731579182015b82811115611730578251825591602001919060010190611715565b5b50905061173e9190611805565b5090565b6040518060a00160405280600073ffffffffffffffffffffffffffffffffffffffff16815260200160001515815260200160608152602001600061ffff168152602001606081525090565b604051806101a0016040528060608152602001606081526020016060815260200160608152602001600061ffff168152602001600061ffff16815260200160608152602001606081526020016060815260200160608152602001600015158152602001600015158152602001600061ffff1681525090565b5b8082111561181e576000816000905550600101611806565b5090565b600061183561183084612d2b565b612cfa565b9050808382526020820190508285602086028201111561185457600080fd5b60005b85811015611884578161186a8882611b26565b845260208401935060208301925050600181019050611857565b5050509392505050565b60006118a161189c84612d57565b612cfa565b9050808382526020820190508260005b858110156118e157815185016118c78882611d83565b8452602084019350602083019250506001810190506118b1565b5050509392505050565b60006118fe6118f984612d83565b612cfa565b9050808382526020820190508285602086028201111561191d57600080fd5b60005b8581101561194d57816119338882611e37565b845260208401935060208301925050600181019050611920565b5050509392505050565b600061196a61196584612d83565b612cfa565b9050808382526020820190508285602086028201111561198957600080fd5b60005b858110156119b9578161199f8882611e4c565b84526020840193506020830192505060018101905061198c565b5050509392505050565b60006119d66119d184612daf565b612cfa565b9050828152602081018484840111156119ee57600080fd5b6119f9848285613010565b509392505050565b6000611a14611a0f84612daf565b612cfa565b905082815260208101848484011115611a2c57600080fd5b611a3784828561301f565b509392505050565b600081359050611a4e816133db565b92915050565b600082601f830112611a6557600080fd5b8151611a75848260208601611822565b91505092915050565b600082601f830112611a8f57600080fd5b8151611a9f84826020860161188e565b91505092915050565b600082601f830112611ab957600080fd5b8135611ac98482602086016118eb565b91505092915050565b600082601f830112611ae357600080fd5b8151611af3848260208601611957565b91505092915050565b600081519050611b0b816133f2565b92915050565b600081519050611b2081613409565b92915050565b600081519050611b3581613420565b92915050565b600082601f830112611b4c57600080fd5b8135611b5c8482602086016119c3565b91505092915050565b600082601f830112611b7657600080fd5b8151611b86848260208601611a01565b91505092915050565b60006101a08284031215611ba257600080fd5b611bad6101a0612cfa565b9050600082015167ffffffffffffffff811115611bc957600080fd5b611bd584828501611b65565b600083015250602082015167ffffffffffffffff811115611bf557600080fd5b611c0184828501611b65565b602083015250604082015167ffffffffffffffff811115611c2157600080fd5b611c2d84828501611ad2565b604083015250606082015167ffffffffffffffff811115611c4d57600080fd5b611c5984828501611ad2565b6060830152506080611c6d84828501611e4c565b60808301525060a0611c8184828501611e4c565b60a08301525060c082015167ffffffffffffffff811115611ca157600080fd5b611cad84828501611a7e565b60c08301525060e082015167ffffffffffffffff811115611ccd57600080fd5b611cd984828501611a7e565b60e08301525061010082015167ffffffffffffffff811115611cfa57600080fd5b611d0684828501611a54565b6101008301525061012082015167ffffffffffffffff811115611d2857600080fd5b611d3484828501611a54565b61012083015250610140611d4a84828501611afc565b61014083015250610160611d6084828501611afc565b61016083015250610180611d7684828501611e4c565b6101808301525092915050565b600060c08284031215611d9557600080fd5b611d9f60c0612cfa565b9050600082015167ffffffffffffffff811115611dbb57600080fd5b611dc784828501611b65565b6000830152506020611ddb84828501611e4c565b6020830152506040611def84828501611e4c565b6040830152506060611e0384828501611e4c565b6060830152506080611e1784828501611b11565b60808301525060a0611e2b84828501611e61565b60a08301525092915050565b600081359050611e4681613437565b92915050565b600081519050611e5b81613437565b92915050565b600081519050611e708161344e565b92915050565b60008060008060808587031215611e8c57600080fd5b6000611e9a87828801611a3f565b945050602085013567ffffffffffffffff811115611eb757600080fd5b611ec387828801611aa8565b9350506040611ed487828801611e37565b925050606085013567ffffffffffffffff811115611ef157600080fd5b611efd87828801611b3b565b91505092959194509250565b600080600060608486031215611f1e57600080fd5b600084013567ffffffffffffffff811115611f3857600080fd5b611f4486828701611aa8565b9350506020611f5586828701611e37565b925050604084013567ffffffffffffffff811115611f7257600080fd5b611f7e86828701611b3b565b9150509250925092565b600060208284031215611f9a57600080fd5b600082015167ffffffffffffffff811115611fb457600080fd5b611fc084828501611b8f565b91505092915050565b6000611fd5838361274f565b60208301905092915050565b6000611fed8383612987565b905092915050565b600061200183836129ea565b905092915050565b60006120158383612a73565b905092915050565b60006120298383612b6d565b60208301905092915050565b61203e81612f68565b82525050565b61204d81612f68565b82525050565b600061205e82612e44565b6120688185612ed2565b935061207383612ddf565b8060005b838110156120a457815161208b8882611fc9565b975061209683612e91565b925050600181019050612077565b5085935050505092915050565b60006120bc82612e4f565b6120c68185612ee3565b9350836020820285016120d885612def565b8060005b8581101561211457848403895281516120f58582611fe1565b945061210083612e9e565b925060208a019950506001810190506120dc565b50829750879550505050505092915050565b600061213182612e5a565b61213b8185612ef4565b93508360208202850161214d85612dff565b8060005b85811015612189578484038952815161216a8582611ff5565b945061217583612eab565b925060208a01995050600181019050612151565b50829750879550505050505092915050565b60006121a682612e65565b6121b08185612f05565b9350836020820285016121c285612e0f565b8060005b858110156121fe57848403895281516121df8582612009565b94506121ea83612eb8565b925060208a019950506001810190506121c6565b50829750879550505050505092915050565b600061221b82612e70565b6122258185612f16565b935061223083612e1f565b8060005b83811015612261578151612248888261201d565b975061225383612ec5565b925050600181019050612234565b5085935050505092915050565b600061227982612e70565b6122838185612f27565b935061228e83612e1f565b8060005b838110156122bf5781516122a6888261201d565b97506122b183612ec5565b925050600181019050612292565b5085935050505092915050565b60006122d782612e7b565b6122e18185612f27565b9350836122ed84612e2f565b600060011561249a575b836001601003820110156124995781546123198861231483613084565b612b6d565b6020880197506123318861232c836131a2565b612b6d565b60208801975061234988612344836131d6565b612b6d565b6020880197506123618861235c836131f0565b612b6d565b602088019750612379886123748361320a565b612b6d565b6020880197506123918861238c8361309e565b612b6d565b6020880197506123a9886123a4836130b8565b612b6d565b6020880197506123c1886123bc836130d2565b612b6d565b6020880197506123d9886123d4836130ec565b612b6d565b6020880197506123f1886123ec83613106565b612b6d565b6020880197506124098861240483613120565b612b6d565b6020880197506124218861241c8361313a565b612b6d565b6020880197506124398861243483613154565b612b6d565b6020880197506124518861244c8361316e565b612b6d565b6020880197506124698861246483613188565b612b6d565b6020880197506124818861247c836131bc565b612b6d565b602088019750600183019250506010810190506122f7565b5b600115612715578154848210156124ca576124bd886124b883613084565b612b6d565b6020880197506001820191505b848210156124f1576124e4886124df836131a2565b612b6d565b6020880197506001820191505b848210156125185761250b88612506836131d6565b612b6d565b6020880197506001820191505b8482101561253f576125328861252d836131f0565b612b6d565b6020880197506001820191505b8482101561256657612559886125548361320a565b612b6d565b6020880197506001820191505b8482101561258d576125808861257b8361309e565b612b6d565b6020880197506001820191505b848210156125b4576125a7886125a2836130b8565b612b6d565b6020880197506001820191505b848210156125db576125ce886125c9836130d2565b612b6d565b6020880197506001820191505b84821015612602576125f5886125f0836130ec565b612b6d565b6020880197506001820191505b848210156126295761261c8861261783613106565b612b6d565b6020880197506001820191505b84821015612650576126438861263e83613120565b612b6d565b6020880197506001820191505b848210156126775761266a886126658361313a565b612b6d565b6020880197506001820191505b8482101561269e576126918861268c83613154565b612b6d565b6020880197506001820191505b848210156126c5576126b8886126b38361316e565b612b6d565b6020880197506001820191505b848210156126ec576126df886126da83613188565b612b6d565b6020880197506001820191505b848210156127135761270688612701836131bc565b612b6d565b6020880197506001820191505b505b8694505050505092915050565b61272b81612f7a565b82525050565b61273a81612fec565b82525050565b61274981612f86565b82525050565b61275881612f93565b82525050565b600061276982612e86565b6127738185612f38565b935061278381856020860161301f565b61278c816132fa565b840191505092915050565b60006127a4602483612f49565b91507f43616e206f6e6c792061747461636b206120726567697374657265642064656660008301527f656e6365000000000000000000000000000000000000000000000000000000006020830152604082019050919050565b600061280a601683612f49565b91507f446566656e6365206e6f742072656769737465726564000000000000000000006000830152602082019050919050565b60006101a083016000830151848203600086015261285b828261275e565b91505060208301518482036020860152612875828261275e565b9150506040830151848203604086015261288f8282612210565b915050606083015184820360608601526128a98282612210565b91505060808301516128be6080860182612b6d565b5060a08301516128d160a0860182612b6d565b5060c083015184820360c08601526128e98282612126565b91505060e083015184820360e08601526129038282612126565b91505061010083015184820361010086015261291f8282612053565b91505061012083015184820361012086015261293b8282612053565b915050610140830151612952610140860182612722565b50610160830151612967610160860182612722565b5061018083015161297c610180860182612b6d565b508091505092915050565b600060808301600083015161299f6000860182612035565b50602083015184820360208601526129b7828261275e565b91505060408301516129cc6040860182612b8b565b5060608301516129df6060860182612b8b565b508091505092915050565b600060c0830160008301518482036000860152612a07828261275e565b9150506020830151612a1c6020860182612b6d565b506040830151612a2f6040860182612b6d565b506060830151612a426060860182612b6d565b506080830151612a556080860182612740565b5060a0830151612a6860a0860182612b9a565b508091505092915050565b600060a083016000830151612a8b6000860182612035565b506020830151612a9e6020860182612722565b5060408301518482036040860152612ab68282612210565b9150506060830151612acb6060860182612b6d565b5060808301518482036080860152612ae3828261275e565b9150508091505092915050565b600060a083016000830151612b086000860182612035565b506020830151612b1b6020860182612722565b5060408301518482036040860152612b338282612210565b9150506060830151612b486060860182612b6d565b5060808301518482036080860152612b60828261275e565b9150508091505092915050565b612b7681612fa0565b82525050565b612b8581612fa0565b82525050565b612b9481612fce565b82525050565b612ba381612fd8565b82525050565b6000602082019050612bbe6000830184612044565b92915050565b60006020820190508181036000830152612bde81846120b1565b905092915050565b60006020820190508181036000830152612c00818461219b565b905092915050565b60006080820190508181036000830152612c22818761226e565b90508181036020830152612c3681866122cc565b9050612c456040830185612b7c565b612c526060830184612b7c565b95945050505050565b6000602082019050612c706000830184612731565b92915050565b60006020820190508181036000830152612c8f81612797565b9050919050565b60006020820190508181036000830152612caf816127fd565b9050919050565b60006020820190508181036000830152612cd0818461283d565b905092915050565b60006020820190508181036000830152612cf28184612af0565b905092915050565b6000604051905081810181811067ffffffffffffffff82111715612d2157612d206132cb565b5b8060405250919050565b600067ffffffffffffffff821115612d4657612d456132cb565b5b602082029050602081019050919050565b600067ffffffffffffffff821115612d7257612d716132cb565b5b602082029050602081019050919050565b600067ffffffffffffffff821115612d9e57612d9d6132cb565b5b602082029050602081019050919050565b600067ffffffffffffffff821115612dca57612dc96132cb565b5b601f19601f8301169050602081019050919050565b6000819050602082019050919050565b6000819050602082019050919050565b6000819050602082019050919050565b6000819050602082019050919050565b6000819050602082019050919050565b60008190508160005260206000209050919050565b600081519050919050565b600081519050919050565b600081519050919050565b600081519050919050565b600081519050919050565b600081549050919050565b600081519050919050565b6000602082019050919050565b6000602082019050919050565b6000602082019050919050565b6000602082019050919050565b6000602082019050919050565b600082825260208201905092915050565b600082825260208201905092915050565b600082825260208201905092915050565b600082825260208201905092915050565b600082825260208201905092915050565b600082825260208201905092915050565b600082825260208201905092915050565b600082825260208201905092915050565b600061ffff82169050919050565b6000612f7382612fae565b9050919050565b60008115159050919050565b60008160010b9050919050565b60008160070b9050919050565b600061ffff82169050919050565b600073ffffffffffffffffffffffffffffffffffffffff82169050919050565b6000819050919050565b600067ffffffffffffffff82169050919050565b6000612ff782612ffe565b9050919050565b600061300982612fae565b9050919050565b82818337600083830152505050565b60005b8381101561303d578082015181840152602081019050613022565b8381111561304c576000848401525b50505050565b6000600282049050600182168061306a57607f821691505b6020821081141561307e5761307d61329c565b5b50919050565b60006130976130928361330b565b612f5a565b9050919050565b60006130b16130ac836133c1565b612f5a565b9050919050565b60006130cb6130c6836133ce565b612f5a565b9050919050565b60006130e56130e083613318565b612f5a565b9050919050565b60006130ff6130fa83613325565b612f5a565b9050919050565b600061311961311483613332565b612f5a565b9050919050565b600061313361312e8361333f565b612f5a565b9050919050565b600061314d61314883613359565b612f5a565b9050919050565b600061316761316283613366565b612f5a565b9050919050565b600061318161317c83613373565b612f5a565b9050919050565b600061319b61319683613380565b612f5a565b9050919050565b60006131b56131b08361334c565b612f5a565b9050919050565b60006131cf6131ca8361338d565b612f5a565b9050919050565b60006131e96131e48361339a565b612f5a565b9050919050565b60006132036131fe836133a7565b612f5a565b9050919050565b600061321d613218836133b4565b612f5a565b9050919050565b600061322f82612fce565b91507fffffffffffffffffffffffffffffffffffffffffffffffffffffffffffffffff8214156132625761326161326d565b5b600182019050919050565b7f4e487b7100000000000000000000000000000000000000000000000000000000600052601160045260246000fd5b7f4e487b7100000000000000000000000000000000000000000000000000000000600052602260045260246000fd5b7f4e487b7100000000000000000000000000000000000000000000000000000000600052604160045260246000fd5b6000601f19601f8301169050919050565b60008160001c9050919050565b60008160701c9050919050565b60008160801c9050919050565b60008160901c9050919050565b60008160a01c9050919050565b60008160101c9050919050565b60008160b01c9050919050565b60008160c01c9050919050565b60008160d01c9050919050565b60008160e01c9050919050565b60008160f01c9050919050565b60008160201c9050919050565b60008160301c9050919050565b60008160401c9050919050565b60008160501c9050919050565b60008160601c9050919050565b6133e481612f68565b81146133ef57600080fd5b50565b6133fb81612f7a565b811461340657600080fd5b50565b61341281612f86565b811461341d57600080fd5b50565b61342981612f93565b811461343457600080fd5b50565b61344081612fa0565b811461344b57600080fd5b50565b61345781612fd8565b811461346257600080fd5b5056fea2646970667358221220a06f1b0fc7174bac324a697b473a060c1a2e6ce49fa08f0321e7855350b3672164736f6c63430008000033",
  "linkReferences": {},
  "deployedLinkReferences": {}
}