{
  "_format": "hh-sol-artifact-1",
  "contractName": "GameManager",
  "sourceName": "contracts/GameManager.sol",
  "abi": [
    {
      "inputs": [
        {
          "internalType": "contract GameEngine",
          "name": "engine",
          "type": "address"
        }
      ],
      "stateMutability": "nonpayable",
      "type": "constructor"
    },
    {
      "anonymous": false,
      "inputs": [
        {
          "indexed": true,
          "internalType": "address",
          "name": "attacker",
          "type": "address"
        },
        {
          "indexed": true,
          "internalType": "address",
          "name": "defender",
          "type": "address"
        },
        {
          "components": [
            {
              "components": [
                {
                  "internalType": "string",
                  "name": "moveType",
                  "type": "string"
                },
                {
                  "internalType": "uint256",
                  "name": "round",
                  "type": "uint256"
                },
                {
                  "internalType": "uint256",
                  "name": "source",
                  "type": "uint256"
                },
                {
                  "internalType": "uint256",
                  "name": "target",
                  "type": "uint256"
                },
                {
                  "internalType": "int256",
                  "name": "targetPosition",
                  "type": "int256"
                },
                {
                  "internalType": "uint256",
                  "name": "damage",
                  "type": "uint256"
                }
              ],
              "internalType": "struct Move[]",
              "name": "lhs",
              "type": "tuple[]"
            },
            {
              "components": [
                {
                  "internalType": "string",
                  "name": "moveType",
                  "type": "string"
                },
                {
                  "internalType": "uint256",
                  "name": "round",
                  "type": "uint256"
                },
                {
                  "internalType": "uint256",
                  "name": "source",
                  "type": "uint256"
                },
                {
                  "internalType": "uint256",
                  "name": "target",
                  "type": "uint256"
                },
                {
                  "internalType": "int256",
                  "name": "targetPosition",
                  "type": "int256"
                },
                {
                  "internalType": "uint256",
                  "name": "damage",
                  "type": "uint256"
                }
              ],
              "internalType": "struct Move[]",
              "name": "rhs",
              "type": "tuple[]"
            },
            {
              "internalType": "int256[]",
              "name": "lhsHp",
              "type": "int256[]"
            },
            {
              "internalType": "int256[]",
              "name": "rhsHp",
              "type": "int256[]"
            },
            {
              "internalType": "bool",
              "name": "lhsDead",
              "type": "bool"
            },
            {
              "internalType": "bool",
              "name": "rhsDead",
              "type": "bool"
            },
            {
              "internalType": "uint256",
              "name": "rounds",
              "type": "uint256"
            }
          ],
          "indexed": false,
          "internalType": "struct FightResult",
          "name": "result",
          "type": "tuple"
        }
      ],
      "name": "FightComplete",
      "type": "event"
    },
    {
      "inputs": [
        {
          "internalType": "address",
          "name": "enemy",
          "type": "address"
        },
        {
          "internalType": "uint256[]",
          "name": "selection",
          "type": "uint256[]"
        },
        {
          "internalType": "uint256",
          "name": "commander",
          "type": "uint256"
        }
      ],
      "name": "attack",
      "outputs": [
        {
          "components": [
            {
              "components": [
                {
                  "internalType": "string",
                  "name": "moveType",
                  "type": "string"
                },
                {
                  "internalType": "uint256",
                  "name": "round",
                  "type": "uint256"
                },
                {
                  "internalType": "uint256",
                  "name": "source",
                  "type": "uint256"
                },
                {
                  "internalType": "uint256",
                  "name": "target",
                  "type": "uint256"
                },
                {
                  "internalType": "int256",
                  "name": "targetPosition",
                  "type": "int256"
                },
                {
                  "internalType": "uint256",
                  "name": "damage",
                  "type": "uint256"
                }
              ],
              "internalType": "struct Move[]",
              "name": "lhs",
              "type": "tuple[]"
            },
            {
              "components": [
                {
                  "internalType": "string",
                  "name": "moveType",
                  "type": "string"
                },
                {
                  "internalType": "uint256",
                  "name": "round",
                  "type": "uint256"
                },
                {
                  "internalType": "uint256",
                  "name": "source",
                  "type": "uint256"
                },
                {
                  "internalType": "uint256",
                  "name": "target",
                  "type": "uint256"
                },
                {
                  "internalType": "int256",
                  "name": "targetPosition",
                  "type": "int256"
                },
                {
                  "internalType": "uint256",
                  "name": "damage",
                  "type": "uint256"
                }
              ],
              "internalType": "struct Move[]",
              "name": "rhs",
              "type": "tuple[]"
            },
            {
              "internalType": "int256[]",
              "name": "lhsHp",
              "type": "int256[]"
            },
            {
              "internalType": "int256[]",
              "name": "rhsHp",
              "type": "int256[]"
            },
            {
              "internalType": "bool",
              "name": "lhsDead",
              "type": "bool"
            },
            {
              "internalType": "bool",
              "name": "rhsDead",
              "type": "bool"
            },
            {
              "internalType": "uint256",
              "name": "rounds",
              "type": "uint256"
            }
          ],
          "internalType": "struct FightResult",
          "name": "result",
          "type": "tuple"
        }
      ],
      "stateMutability": "nonpayable",
      "type": "function"
    },
    {
      "inputs": [],
      "name": "gameEngine",
      "outputs": [
        {
          "internalType": "contract GameEngine",
          "name": "",
          "type": "address"
        }
      ],
      "stateMutability": "view",
      "type": "function"
    },
    {
      "inputs": [],
      "name": "getAllDefenders",
      "outputs": [
        {
          "components": [
            {
              "internalType": "address",
              "name": "player",
              "type": "address"
            },
            {
              "internalType": "bool",
              "name": "isInitialised",
              "type": "bool"
            },
            {
              "internalType": "uint256[]",
              "name": "defenceSelection",
              "type": "uint256[]"
            },
            {
              "internalType": "uint256",
              "name": "commander",
              "type": "uint256"
            },
            {
              "internalType": "string",
              "name": "name",
              "type": "string"
            }
          ],
          "internalType": "struct PlayerDefence[]",
          "name": "",
          "type": "tuple[]"
        }
      ],
      "stateMutability": "view",
      "type": "function"
    },
    {
      "inputs": [],
      "name": "getLeaderboard",
      "outputs": [
        {
          "components": [
            {
              "internalType": "address",
              "name": "player",
              "type": "address"
            },
            {
              "internalType": "string",
              "name": "name",
              "type": "string"
            },
            {
              "internalType": "uint256",
              "name": "wins",
              "type": "uint256"
            },
            {
              "internalType": "uint256",
              "name": "losses",
              "type": "uint256"
            }
          ],
          "internalType": "struct LeaderboardEntry[]",
          "name": "",
          "type": "tuple[]"
        }
      ],
      "stateMutability": "view",
      "type": "function"
    },
    {
      "inputs": [],
      "name": "getOwnDefence",
      "outputs": [
        {
          "components": [
            {
              "internalType": "address",
              "name": "player",
              "type": "address"
            },
            {
              "internalType": "bool",
              "name": "isInitialised",
              "type": "bool"
            },
            {
              "internalType": "uint256[]",
              "name": "defenceSelection",
              "type": "uint256[]"
            },
            {
              "internalType": "uint256",
              "name": "commander",
              "type": "uint256"
            },
            {
              "internalType": "string",
              "name": "name",
              "type": "string"
            }
          ],
          "internalType": "struct PlayerDefence",
          "name": "",
          "type": "tuple"
        }
      ],
      "stateMutability": "view",
      "type": "function"
    },
    {
      "inputs": [],
      "name": "owner",
      "outputs": [
        {
          "internalType": "address",
          "name": "",
          "type": "address"
        }
      ],
      "stateMutability": "view",
      "type": "function"
    },
    {
      "inputs": [
        {
          "internalType": "uint256[]",
          "name": "defence",
          "type": "uint256[]"
        },
        {
          "internalType": "uint256",
          "name": "commander",
          "type": "uint256"
        },
        {
          "internalType": "string",
          "name": "name",
          "type": "string"
        }
      ],
      "name": "registerDefence",
      "outputs": [],
      "stateMutability": "nonpayable",
      "type": "function"
    }
  ],
  "bytecode": "0x6080604052336000806101000a81548173ffffffffffffffffffffffffffffffffffffffff021916908373ffffffffffffffffffffffffffffffffffffffff1602179055503480156200005157600080fd5b5060405162002a9c38038062002a9c8339818101604052810190620000779190620000d6565b80600160006101000a81548173ffffffffffffffffffffffffffffffffffffffff021916908373ffffffffffffffffffffffffffffffffffffffff1602179055505062000164565b600081519050620000d0816200014a565b92915050565b600060208284031215620000e957600080fd5b6000620000f984828501620000bf565b91505092915050565b60006200010f826200012a565b9050919050565b6000620001238262000102565b9050919050565b600073ffffffffffffffffffffffffffffffffffffffff82169050919050565b620001558162000116565b81146200016157600080fd5b50565b61292880620001746000396000f3fe608060405234801561001057600080fd5b506004361061007d5760003560e01c80637af584de1161005b5780637af584de146100ec5780638da5cb5b1461010a578063d43b838c14610128578063e5336276146101465761007d565b80632003996a146100825780635ef0a0331461009e5780636d763a6e146100ce575b600080fd5b61009c60048036038101906100979190611ada565b610164565b005b6100b860048036038101906100b39190611a73565b6103ca565b6040516100c591906123d0565b60405180910390f35b6100d6610cd1565b6040516100e391906122de565b60405180910390f35b6100f4610fb4565b6040516101019190612300565b60405180910390f35b610112611178565b60405161011f91906122c3565b60405180910390f35b61013061119c565b60405161013d91906123f2565b60405180910390f35b61014e6113e7565b60405161015b9190612375565b60405180910390f35b60006040518060a001604052803373ffffffffffffffffffffffffffffffffffffffff168152602001600115158152602001858152602001848152602001838152509050600460003373ffffffffffffffffffffffffffffffffffffffff1673ffffffffffffffffffffffffffffffffffffffff16815260200190815260200160002060000160149054906101000a900460ff166102d657600581908060018154018082558091505060019003906000526020600020906004020160009091909190915060008201518160000160006101000a81548173ffffffffffffffffffffffffffffffffffffffff021916908373ffffffffffffffffffffffffffffffffffffffff16021790555060208201518160000160146101000a81548160ff02191690831515021790555060408201518160010190805190602001906102ab92919061140d565b506060820151816002015560808201518160030190805190602001906102d292919061145a565b5050505b80600460003373ffffffffffffffffffffffffffffffffffffffff1673ffffffffffffffffffffffffffffffffffffffff16815260200190815260200160002060008201518160000160006101000a81548173ffffffffffffffffffffffffffffffffffffffff021916908373ffffffffffffffffffffffffffffffffffffffff16021790555060208201518160000160146101000a81548160ff021916908315150217905550604082015181600101908051906020019061039992919061140d565b506060820151816002015560808201518160030190805190602001906103c092919061145a565b5090505050505050565b6103d26114e0565b600460008573ffffffffffffffffffffffffffffffffffffffff1673ffffffffffffffffffffffffffffffffffffffff16815260200190815260200160002060000160149054906101000a900460ff16610461576040517f08c379a000000000000000000000000000000000000000000000000000000000815260040161045890612390565b60405180910390fd5b600160009054906101000a900473ffffffffffffffffffffffffffffffffffffffff1673ffffffffffffffffffffffffffffffffffffffff1663504c070784600460008873ffffffffffffffffffffffffffffffffffffffff1673ffffffffffffffffffffffffffffffffffffffff16815260200190815260200160002060010185600460008a73ffffffffffffffffffffffffffffffffffffffff1673ffffffffffffffffffffffffffffffffffffffff168152602001908152602001600020600201546040518563ffffffff1660e01b81526004016105459493929190612322565b60006040518083038186803b15801561055d57600080fd5b505afa158015610571573d6000803e3d6000fd5b505050506040513d6000823e3d601f19601f8201168201806040525081019061059a9190611b59565b9050600260003373ffffffffffffffffffffffffffffffffffffffff1673ffffffffffffffffffffffffffffffffffffffff16815260200190815260200160002060000160149054906101000a900460ff166107305733600260003373ffffffffffffffffffffffffffffffffffffffff1673ffffffffffffffffffffffffffffffffffffffff16815260200190815260200160002060000160006101000a81548173ffffffffffffffffffffffffffffffffffffffff021916908373ffffffffffffffffffffffffffffffffffffffff1602179055506001600260003373ffffffffffffffffffffffffffffffffffffffff1673ffffffffffffffffffffffffffffffffffffffff16815260200190815260200160002060000160146101000a81548160ff0219169083151502179055506003339080600181540180825580915050600190039060005260206000200160009091909190916101000a81548173ffffffffffffffffffffffffffffffffffffffff021916908373ffffffffffffffffffffffffffffffffffffffff1602179055505b600260008573ffffffffffffffffffffffffffffffffffffffff1673ffffffffffffffffffffffffffffffffffffffff16815260200190815260200160002060000160149054906101000a900460ff166108c45783600260008673ffffffffffffffffffffffffffffffffffffffff1673ffffffffffffffffffffffffffffffffffffffff16815260200190815260200160002060000160006101000a81548173ffffffffffffffffffffffffffffffffffffffff021916908373ffffffffffffffffffffffffffffffffffffffff1602179055506001600260008673ffffffffffffffffffffffffffffffffffffffff1673ffffffffffffffffffffffffffffffffffffffff16815260200190815260200160002060000160146101000a81548160ff0219169083151502179055506003849080600181540180825580915050600190039060005260206000200160009091909190916101000a81548173ffffffffffffffffffffffffffffffffffffffff021916908373ffffffffffffffffffffffffffffffffffffffff1602179055505b600460003373ffffffffffffffffffffffffffffffffffffffff1673ffffffffffffffffffffffffffffffffffffffff16815260200190815260200160002060000160149054906101000a900460ff16610aef576000600467ffffffffffffffff81111561095b577f4e487b7100000000000000000000000000000000000000000000000000000000600052604160045260246000fd5b6040519080825280602002602001820160405280156109895781602001602082028036833780820191505090505b5090506014816000815181106109c8577f4e487b7100000000000000000000000000000000000000000000000000000000600052603260045260246000fd5b602002602001018181525050601481600181518110610a10577f4e487b7100000000000000000000000000000000000000000000000000000000600052603260045260246000fd5b602002602001018181525050601481600281518110610a58577f4e487b7100000000000000000000000000000000000000000000000000000000600052603260045260246000fd5b602002602001018181525050601481600381518110610aa0577f4e487b7100000000000000000000000000000000000000000000000000000000600052603260045260246000fd5b602002602001018181525050610aed8160006040518060400160405280600981526020017f416e6f6e796d6f75730000000000000000000000000000000000000000000000815250610164565b505b806080015115610baa57600260008573ffffffffffffffffffffffffffffffffffffffff1673ffffffffffffffffffffffffffffffffffffffff1681526020019081526020016000206002016000815480929190610b4c9061278f565b9190505550600260003373ffffffffffffffffffffffffffffffffffffffff1673ffffffffffffffffffffffffffffffffffffffff1681526020019081526020016000206003016000815480929190610ba49061278f565b91905055505b8060a0015115610c6557600260003373ffffffffffffffffffffffffffffffffffffffff1673ffffffffffffffffffffffffffffffffffffffff1681526020019081526020016000206002016000815480929190610c079061278f565b9190505550600260008573ffffffffffffffffffffffffffffffffffffffff1673ffffffffffffffffffffffffffffffffffffffff1681526020019081526020016000206003016000815480929190610c5f9061278f565b91905055505b8373ffffffffffffffffffffffffffffffffffffffff163373ffffffffffffffffffffffffffffffffffffffff167f2b33070b7aa520914e86e3b29f69dda0520f5e9f119b8290f56dab27faf9584e83604051610cc291906123d0565b60405180910390a39392505050565b6060600060038054905067ffffffffffffffff811115610d1a577f4e487b7100000000000000000000000000000000000000000000000000000000600052604160045260246000fd5b604051908082528060200260200182016040528015610d5357816020015b610d40611521565b815260200190600190039081610d385790505b50905060005b600380549050811015610fac57600060038281548110610da2577f4e487b7100000000000000000000000000000000000000000000000000000000600052603260045260246000fd5b9060005260206000200160009054906101000a900473ffffffffffffffffffffffffffffffffffffffff16905060405180608001604052808273ffffffffffffffffffffffffffffffffffffffff168152602001600460008473ffffffffffffffffffffffffffffffffffffffff1673ffffffffffffffffffffffffffffffffffffffff1681526020019081526020016000206003018054610e4390612743565b80601f0160208091040260200160405190810160405280929190818152602001828054610e6f90612743565b8015610ebc5780601f10610e9157610100808354040283529160200191610ebc565b820191906000526020600020905b815481529060010190602001808311610e9f57829003601f168201915b50505050508152602001600260008473ffffffffffffffffffffffffffffffffffffffff1673ffffffffffffffffffffffffffffffffffffffff168152602001908152602001600020600201548152602001600260008473ffffffffffffffffffffffffffffffffffffffff1673ffffffffffffffffffffffffffffffffffffffff16815260200190815260200160002060030154815250838381518110610f8d577f4e487b7100000000000000000000000000000000000000000000000000000000600052603260045260246000fd5b6020026020010181905250508080610fa49061278f565b915050610d59565b508091505090565b60606005805480602002602001604051908101604052809291908181526020016000905b8282101561116f57838290600052602060002090600402016040518060a00160405290816000820160009054906101000a900473ffffffffffffffffffffffffffffffffffffffff1673ffffffffffffffffffffffffffffffffffffffff1673ffffffffffffffffffffffffffffffffffffffff1681526020016000820160149054906101000a900460ff16151515158152602001600182018054806020026020016040519081016040528092919081815260200182805480156110bb57602002820191906000526020600020905b8154815260200190600101908083116110a7575b50505050508152602001600282015481526020016003820180546110de90612743565b80601f016020809104026020016040519081016040528092919081815260200182805461110a90612743565b80156111575780601f1061112c57610100808354040283529160200191611157565b820191906000526020600020905b81548152906001019060200180831161113a57829003601f168201915b50505050508152505081526020019060010190610fd8565b50505050905090565b60008054906101000a900473ffffffffffffffffffffffffffffffffffffffff1681565b6111a461155f565b600460003373ffffffffffffffffffffffffffffffffffffffff1673ffffffffffffffffffffffffffffffffffffffff16815260200190815260200160002060000160149054906101000a900460ff16611233576040517f08c379a000000000000000000000000000000000000000000000000000000000815260040161122a906123b0565b60405180910390fd5b600460003373ffffffffffffffffffffffffffffffffffffffff1673ffffffffffffffffffffffffffffffffffffffff1681526020019081526020016000206040518060a00160405290816000820160009054906101000a900473ffffffffffffffffffffffffffffffffffffffff1673ffffffffffffffffffffffffffffffffffffffff1673ffffffffffffffffffffffffffffffffffffffff1681526020016000820160149054906101000a900460ff161515151581526020016001820180548060200260200160405190810160405280929190818152602001828054801561133d57602002820191906000526020600020905b815481526020019060010190808311611329575b505050505081526020016002820154815260200160038201805461136090612743565b80601f016020809104026020016040519081016040528092919081815260200182805461138c90612743565b80156113d95780601f106113ae576101008083540402835291602001916113d9565b820191906000526020600020905b8154815290600101906020018083116113bc57829003601f168201915b505050505081525050905090565b600160009054906101000a900473ffffffffffffffffffffffffffffffffffffffff1681565b828054828255906000526020600020908101928215611449579160200282015b8281111561144857825182559160200191906001019061142d565b5b50905061145691906115a6565b5090565b82805461146690612743565b90600052602060002090601f01602090048101928261148857600085556114cf565b82601f106114a157805160ff19168380011785556114cf565b828001600101855582156114cf579182015b828111156114ce5782518255916020019190600101906114b3565b5b5090506114dc91906115a6565b5090565b6040518060e0016040528060608152602001606081526020016060815260200160608152602001600015158152602001600015158152602001600081525090565b6040518060800160405280600073ffffffffffffffffffffffffffffffffffffffff1681526020016060815260200160008152602001600081525090565b6040518060a00160405280600073ffffffffffffffffffffffffffffffffffffffff1681526020016000151581526020016060815260200160008152602001606081525090565b5b808211156115bf5760008160009055506001016115a7565b5090565b60006115d66115d184612445565b612414565b905080838252602082019050828560208602820111156115f557600080fd5b60005b85811015611625578161160b888261181c565b8452602084019350602083019250506001810190506115f8565b5050509392505050565b600061164261163d84612471565b612414565b9050808382526020820190508260005b8581101561168257815185016116688882611995565b845260208401935060208301925050600181019050611652565b5050509392505050565b600061169f61169a8461249d565b612414565b905080838252602082019050828560208602820111156116be57600080fd5b60005b858110156116ee57816116d48882611a49565b8452602084019350602083019250506001810190506116c1565b5050509392505050565b600061170b611706846124c9565b612414565b90508281526020810184848401111561172357600080fd5b61172e848285612701565b509392505050565b6000611749611744846124c9565b612414565b90508281526020810184848401111561176157600080fd5b61176c848285612710565b509392505050565b60008135905061178381612896565b92915050565b600082601f83011261179a57600080fd5b81516117aa8482602086016115c3565b91505092915050565b600082601f8301126117c457600080fd5b81516117d484826020860161162f565b91505092915050565b600082601f8301126117ee57600080fd5b81356117fe84826020860161168c565b91505092915050565b600081519050611816816128ad565b92915050565b60008151905061182b816128c4565b92915050565b600082601f83011261184257600080fd5b81356118528482602086016116f8565b91505092915050565b600082601f83011261186c57600080fd5b815161187c848260208601611736565b91505092915050565b600060e0828403121561189757600080fd5b6118a160e0612414565b9050600082015167ffffffffffffffff8111156118bd57600080fd5b6118c9848285016117b3565b600083015250602082015167ffffffffffffffff8111156118e957600080fd5b6118f5848285016117b3565b602083015250604082015167ffffffffffffffff81111561191557600080fd5b61192184828501611789565b604083015250606082015167ffffffffffffffff81111561194157600080fd5b61194d84828501611789565b606083015250608061196184828501611807565b60808301525060a061197584828501611807565b60a08301525060c061198984828501611a5e565b60c08301525092915050565b600060c082840312156119a757600080fd5b6119b160c0612414565b9050600082015167ffffffffffffffff8111156119cd57600080fd5b6119d98482850161185b565b60008301525060206119ed84828501611a5e565b6020830152506040611a0184828501611a5e565b6040830152506060611a1584828501611a5e565b6060830152506080611a298482850161181c565b60808301525060a0611a3d84828501611a5e565b60a08301525092915050565b600081359050611a58816128db565b92915050565b600081519050611a6d816128db565b92915050565b600080600060608486031215611a8857600080fd5b6000611a9686828701611774565b935050602084013567ffffffffffffffff811115611ab357600080fd5b611abf868287016117dd565b9250506040611ad086828701611a49565b9150509250925092565b600080600060608486031215611aef57600080fd5b600084013567ffffffffffffffff811115611b0957600080fd5b611b15868287016117dd565b9350506020611b2686828701611a49565b925050604084013567ffffffffffffffff811115611b4357600080fd5b611b4f86828701611831565b9150509250925092565b600060208284031215611b6b57600080fd5b600082015167ffffffffffffffff811115611b8557600080fd5b611b9184828501611885565b91505092915050565b6000611ba68383611f20565b60208301905092915050565b6000611bbe83836120bf565b905092915050565b6000611bd28383612122565b905092915050565b6000611be683836121ab565b905092915050565b6000611bfa83836122a5565b60208301905092915050565b611c0f8161268b565b82525050565b611c1e8161268b565b82525050565b6000611c2f8261255e565b611c3981856125f9565b9350611c44836124f9565b8060005b83811015611c75578151611c5c8882611b9a565b9750611c67836125ab565b925050600181019050611c48565b5085935050505092915050565b6000611c8d82612569565b611c97818561260a565b935083602082028501611ca985612509565b8060005b85811015611ce55784840389528151611cc68582611bb2565b9450611cd1836125b8565b925060208a01995050600181019050611cad565b50829750879550505050505092915050565b6000611d0282612574565b611d0c818561261b565b935083602082028501611d1e85612519565b8060005b85811015611d5a5784840389528151611d3b8582611bc6565b9450611d46836125c5565b925060208a01995050600181019050611d22565b50829750879550505050505092915050565b6000611d778261257f565b611d81818561262c565b935083602082028501611d9385612529565b8060005b85811015611dcf5784840389528151611db08582611bda565b9450611dbb836125d2565b925060208a01995050600181019050611d97565b50829750879550505050505092915050565b6000611dec8261258a565b611df6818561263d565b9350611e0183612539565b8060005b83811015611e32578151611e198882611bee565b9750611e24836125df565b925050600181019050611e05565b5085935050505092915050565b6000611e4a8261258a565b611e54818561264e565b9350611e5f83612539565b8060005b83811015611e90578151611e778882611bee565b9750611e82836125df565b925050600181019050611e63565b5085935050505092915050565b6000611ea882612595565b611eb2818561264e565b9350611ebd83612549565b8060005b83811015611ef557611ed282612865565b611edc8882611bee565b9750611ee7836125ec565b925050600181019050611ec1565b5085935050505092915050565b611f0b8161269d565b82525050565b611f1a816126dd565b82525050565b611f29816126a9565b82525050565b6000611f3a826125a0565b611f44818561265f565b9350611f54818560208601612710565b611f5d81612878565b840191505092915050565b6000611f75602483612670565b91507f43616e206f6e6c792061747461636b206120726567697374657265642064656660008301527f656e6365000000000000000000000000000000000000000000000000000000006020830152604082019050919050565b6000611fdb601683612670565b91507f446566656e6365206e6f742072656769737465726564000000000000000000006000830152602082019050919050565b600060e083016000830151848203600086015261202b8282611cf7565b915050602083015184820360208601526120458282611cf7565b9150506040830151848203604086015261205f8282611c24565b915050606083015184820360608601526120798282611c24565b915050608083015161208e6080860182611f02565b5060a08301516120a160a0860182611f02565b5060c08301516120b460c08601826122a5565b508091505092915050565b60006080830160008301516120d76000860182611c06565b50602083015184820360208601526120ef8282611f2f565b915050604083015161210460408601826122a5565b50606083015161211760608601826122a5565b508091505092915050565b600060c083016000830151848203600086015261213f8282611f2f565b915050602083015161215460208601826122a5565b50604083015161216760408601826122a5565b50606083015161217a60608601826122a5565b50608083015161218d6080860182611f20565b5060a08301516121a060a08601826122a5565b508091505092915050565b600060a0830160008301516121c36000860182611c06565b5060208301516121d66020860182611f02565b50604083015184820360408601526121ee8282611de1565b915050606083015161220360608601826122a5565b506080830151848203608086015261221b8282611f2f565b9150508091505092915050565b600060a0830160008301516122406000860182611c06565b5060208301516122536020860182611f02565b506040830151848203604086015261226b8282611de1565b915050606083015161228060608601826122a5565b50608083015184820360808601526122988282611f2f565b9150508091505092915050565b6122ae816126d3565b82525050565b6122bd816126d3565b82525050565b60006020820190506122d86000830184611c15565b92915050565b600060208201905081810360008301526122f88184611c82565b905092915050565b6000602082019050818103600083015261231a8184611d6c565b905092915050565b6000608082019050818103600083015261233c8187611e3f565b905081810360208301526123508186611e9d565b905061235f60408301856122b4565b61236c60608301846122b4565b95945050505050565b600060208201905061238a6000830184611f11565b92915050565b600060208201905081810360008301526123a981611f68565b9050919050565b600060208201905081810360008301526123c981611fce565b9050919050565b600060208201905081810360008301526123ea818461200e565b905092915050565b6000602082019050818103600083015261240c8184612228565b905092915050565b6000604051905081810181811067ffffffffffffffff8211171561243b5761243a612836565b5b8060405250919050565b600067ffffffffffffffff8211156124605761245f612836565b5b602082029050602081019050919050565b600067ffffffffffffffff82111561248c5761248b612836565b5b602082029050602081019050919050565b600067ffffffffffffffff8211156124b8576124b7612836565b5b602082029050602081019050919050565b600067ffffffffffffffff8211156124e4576124e3612836565b5b601f19601f8301169050602081019050919050565b6000819050602082019050919050565b6000819050602082019050919050565b6000819050602082019050919050565b6000819050602082019050919050565b6000819050602082019050919050565b60008190508160005260206000209050919050565b600081519050919050565b600081519050919050565b600081519050919050565b600081519050919050565b600081519050919050565b600081549050919050565b600081519050919050565b6000602082019050919050565b6000602082019050919050565b6000602082019050919050565b6000602082019050919050565b6000602082019050919050565b6000600182019050919050565b600082825260208201905092915050565b600082825260208201905092915050565b600082825260208201905092915050565b600082825260208201905092915050565b600082825260208201905092915050565b600082825260208201905092915050565b600082825260208201905092915050565b600082825260208201905092915050565b6000819050919050565b6000612696826126b3565b9050919050565b60008115159050919050565b6000819050919050565b600073ffffffffffffffffffffffffffffffffffffffff82169050919050565b6000819050919050565b60006126e8826126ef565b9050919050565b60006126fa826126b3565b9050919050565b82818337600083830152505050565b60005b8381101561272e578082015181840152602081019050612713565b8381111561273d576000848401525b50505050565b6000600282049050600182168061275b57607f821691505b6020821081141561276f5761276e612807565b5b50919050565b600061278861278383612889565b612681565b9050919050565b600061279a826126d3565b91507fffffffffffffffffffffffffffffffffffffffffffffffffffffffffffffffff8214156127cd576127cc6127d8565b5b600182019050919050565b7f4e487b7100000000000000000000000000000000000000000000000000000000600052601160045260246000fd5b7f4e487b7100000000000000000000000000000000000000000000000000000000600052602260045260246000fd5b7f4e487b7100000000000000000000000000000000000000000000000000000000600052604160045260246000fd5b60006128718254612775565b9050919050565b6000601f19601f8301169050919050565b60008160001c9050919050565b61289f8161268b565b81146128aa57600080fd5b50565b6128b68161269d565b81146128c157600080fd5b50565b6128cd816126a9565b81146128d857600080fd5b50565b6128e4816126d3565b81146128ef57600080fd5b5056fea264697066735822122087fc4fe7bc3d01e5ae1c65f56e16a9f548951e564c28df4cf9fc16eca1d9105e64736f6c63430008000033",
  "linkReferences": {},
  "deployedLinkReferences": {}
}