{
  "_format": "hh-sol-artifact-1",
  "contractName": "GameManager",
  "sourceName": "contracts/GameManager.sol",
  "abi": [
    {
      "inputs": [
        {
          "internalType": "contract GameEngine",
          "name": "engine",
          "type": "address"
        }
      ],
      "stateMutability": "nonpayable",
      "type": "constructor"
    },
    {
      "anonymous": false,
      "inputs": [
        {
          "indexed": true,
          "internalType": "address",
          "name": "attacker",
          "type": "address"
        },
        {
          "indexed": true,
          "internalType": "address",
          "name": "defender",
          "type": "address"
        },
        {
          "components": [
            {
              "internalType": "bytes32",
              "name": "nameLhs",
              "type": "bytes32"
            },
            {
              "internalType": "bytes32",
              "name": "nameRhs",
              "type": "bytes32"
            },
            {
              "internalType": "uint16[]",
              "name": "selectionLhs",
              "type": "uint16[]"
            },
            {
              "internalType": "uint16[]",
              "name": "selectionRhs",
              "type": "uint16[]"
            },
            {
              "internalType": "uint16",
              "name": "commanderLhs",
              "type": "uint16"
            },
            {
              "internalType": "uint16",
              "name": "commanderRhs",
              "type": "uint16"
            },
            {
              "components": [
                {
                  "internalType": "uint8",
                  "name": "moveType",
                  "type": "uint8"
                },
                {
                  "internalType": "uint8",
                  "name": "round",
                  "type": "uint8"
                },
                {
                  "internalType": "uint16",
                  "name": "source",
                  "type": "uint16"
                },
                {
                  "internalType": "uint16",
                  "name": "target",
                  "type": "uint16"
                },
                {
                  "internalType": "int16",
                  "name": "targetPosition",
                  "type": "int16"
                },
                {
                  "internalType": "uint64",
                  "name": "damage",
                  "type": "uint64"
                }
              ],
              "internalType": "struct Move[]",
              "name": "lhs",
              "type": "tuple[]"
            },
            {
              "components": [
                {
                  "internalType": "uint8",
                  "name": "moveType",
                  "type": "uint8"
                },
                {
                  "internalType": "uint8",
                  "name": "round",
                  "type": "uint8"
                },
                {
                  "internalType": "uint16",
                  "name": "source",
                  "type": "uint16"
                },
                {
                  "internalType": "uint16",
                  "name": "target",
                  "type": "uint16"
                },
                {
                  "internalType": "int16",
                  "name": "targetPosition",
                  "type": "int16"
                },
                {
                  "internalType": "uint64",
                  "name": "damage",
                  "type": "uint64"
                }
              ],
              "internalType": "struct Move[]",
              "name": "rhs",
              "type": "tuple[]"
            },
            {
              "internalType": "bool",
              "name": "lhsDead",
              "type": "bool"
            },
            {
              "internalType": "bool",
              "name": "rhsDead",
              "type": "bool"
            },
            {
              "internalType": "uint16",
              "name": "rounds",
              "type": "uint16"
            }
          ],
          "indexed": false,
          "internalType": "struct FightResult",
          "name": "result",
          "type": "tuple"
        }
      ],
      "name": "FightComplete",
      "type": "event"
    },
    {
      "inputs": [
        {
          "internalType": "address",
          "name": "enemy",
          "type": "address"
        },
        {
          "internalType": "uint16[]",
          "name": "selection",
          "type": "uint16[]"
        },
        {
          "internalType": "uint16",
          "name": "commander",
          "type": "uint16"
        },
        {
          "internalType": "bytes32",
          "name": "playerName",
          "type": "bytes32"
        }
      ],
      "name": "attack",
      "outputs": [
        {
          "components": [
            {
              "internalType": "bytes32",
              "name": "nameLhs",
              "type": "bytes32"
            },
            {
              "internalType": "bytes32",
              "name": "nameRhs",
              "type": "bytes32"
            },
            {
              "internalType": "uint16[]",
              "name": "selectionLhs",
              "type": "uint16[]"
            },
            {
              "internalType": "uint16[]",
              "name": "selectionRhs",
              "type": "uint16[]"
            },
            {
              "internalType": "uint16",
              "name": "commanderLhs",
              "type": "uint16"
            },
            {
              "internalType": "uint16",
              "name": "commanderRhs",
              "type": "uint16"
            },
            {
              "components": [
                {
                  "internalType": "uint8",
                  "name": "moveType",
                  "type": "uint8"
                },
                {
                  "internalType": "uint8",
                  "name": "round",
                  "type": "uint8"
                },
                {
                  "internalType": "uint16",
                  "name": "source",
                  "type": "uint16"
                },
                {
                  "internalType": "uint16",
                  "name": "target",
                  "type": "uint16"
                },
                {
                  "internalType": "int16",
                  "name": "targetPosition",
                  "type": "int16"
                },
                {
                  "internalType": "uint64",
                  "name": "damage",
                  "type": "uint64"
                }
              ],
              "internalType": "struct Move[]",
              "name": "lhs",
              "type": "tuple[]"
            },
            {
              "components": [
                {
                  "internalType": "uint8",
                  "name": "moveType",
                  "type": "uint8"
                },
                {
                  "internalType": "uint8",
                  "name": "round",
                  "type": "uint8"
                },
                {
                  "internalType": "uint16",
                  "name": "source",
                  "type": "uint16"
                },
                {
                  "internalType": "uint16",
                  "name": "target",
                  "type": "uint16"
                },
                {
                  "internalType": "int16",
                  "name": "targetPosition",
                  "type": "int16"
                },
                {
                  "internalType": "uint64",
                  "name": "damage",
                  "type": "uint64"
                }
              ],
              "internalType": "struct Move[]",
              "name": "rhs",
              "type": "tuple[]"
            },
            {
              "internalType": "bool",
              "name": "lhsDead",
              "type": "bool"
            },
            {
              "internalType": "bool",
              "name": "rhsDead",
              "type": "bool"
            },
            {
              "internalType": "uint16",
              "name": "rounds",
              "type": "uint16"
            }
          ],
          "internalType": "struct FightResult",
          "name": "result",
          "type": "tuple"
        }
      ],
      "stateMutability": "nonpayable",
      "type": "function"
    },
    {
      "inputs": [],
      "name": "gameEngine",
      "outputs": [
        {
          "internalType": "contract GameEngine",
          "name": "",
          "type": "address"
        }
      ],
      "stateMutability": "view",
      "type": "function"
    },
    {
      "inputs": [],
      "name": "getAllDefenders",
      "outputs": [
        {
          "components": [
            {
              "internalType": "address",
              "name": "player",
              "type": "address"
            },
            {
              "internalType": "bool",
              "name": "isInitialised",
              "type": "bool"
            },
            {
              "internalType": "uint16[]",
              "name": "defenceSelection",
              "type": "uint16[]"
            },
            {
              "internalType": "uint16",
              "name": "commander",
              "type": "uint16"
            },
            {
              "internalType": "bytes32",
              "name": "name",
              "type": "bytes32"
            }
          ],
          "internalType": "struct PlayerDefence[]",
          "name": "",
          "type": "tuple[]"
        }
      ],
      "stateMutability": "view",
      "type": "function"
    },
    {
      "inputs": [],
      "name": "getLeaderboard",
      "outputs": [
        {
          "components": [
            {
              "internalType": "address",
              "name": "player",
              "type": "address"
            },
            {
              "internalType": "bytes32",
              "name": "name",
              "type": "bytes32"
            },
            {
              "internalType": "uint32",
              "name": "wins",
              "type": "uint32"
            },
            {
              "internalType": "uint32",
              "name": "losses",
              "type": "uint32"
            }
          ],
          "internalType": "struct LeaderboardEntry[]",
          "name": "",
          "type": "tuple[]"
        }
      ],
      "stateMutability": "view",
      "type": "function"
    },
    {
      "inputs": [],
      "name": "getOwnDefence",
      "outputs": [
        {
          "components": [
            {
              "internalType": "address",
              "name": "player",
              "type": "address"
            },
            {
              "internalType": "bool",
              "name": "isInitialised",
              "type": "bool"
            },
            {
              "internalType": "uint16[]",
              "name": "defenceSelection",
              "type": "uint16[]"
            },
            {
              "internalType": "uint16",
              "name": "commander",
              "type": "uint16"
            },
            {
              "internalType": "bytes32",
              "name": "name",
              "type": "bytes32"
            }
          ],
          "internalType": "struct PlayerDefence",
          "name": "",
          "type": "tuple"
        }
      ],
      "stateMutability": "view",
      "type": "function"
    },
    {
      "inputs": [],
      "name": "owner",
      "outputs": [
        {
          "internalType": "address",
          "name": "",
          "type": "address"
        }
      ],
      "stateMutability": "view",
      "type": "function"
    },
    {
      "inputs": [
        {
          "internalType": "uint16[]",
          "name": "defence",
          "type": "uint16[]"
        },
        {
          "internalType": "uint16",
          "name": "commander",
          "type": "uint16"
        },
        {
          "internalType": "bytes32",
          "name": "name",
          "type": "bytes32"
        }
      ],
      "name": "registerDefence",
      "outputs": [],
      "stateMutability": "nonpayable",
      "type": "function"
    }
  ],
  "bytecode": "0x6080604052600080546001600160a01b0319163317905534801561002257600080fd5b50604051611a68380380611a6883398101604081905261004191610066565b600180546001600160a01b0319166001600160a01b0392909216919091179055610094565b600060208284031215610077578081fd5b81516001600160a01b038116811461008d578182fd5b9392505050565b6119c5806100a36000396000f3fe608060405234801561001057600080fd5b506004361061007d5760003560e01c80637af584de1161005b5780637af584de146100d55780638da5cb5b146100ea578063d43b838c146100ff578063e5336276146101145761007d565b806309d27389146100825780635535c79f146100975780636d763a6e146100c0575b600080fd5b610095610090366004610fb3565b61011c565b005b6100aa6100a5366004610f40565b610240565b6040516100b79190611797565b60405180910390f35b6100c8610759565b6040516100b79190611296565b6100dd6108ae565b6040516100b7919061130c565b6100f2610a68565b6040516100b79190611282565b610107610a77565b6040516100b79190611894565b6100f2610b88565b6040805160a08101825233808252600160208084019190915282840187905261ffff86166060840152608083018590526000918252600490529190912054600160a01b900460ff166101ab57600580546001810182556000919091527f036b6384b5eca791c62761152d0c79bb0604c104a5fb6f4eb0703f3154bb3db00180546001600160a01b031916331790555b3360009081526004602090815260409182902083518154838601511515600160a01b0260ff60a01b196001600160a01b03939093166001600160a01b03199092169190911791909116178155918301518051849392610211926001850192910190610b97565b50606082015160028201805461ffff191661ffff90921691909117905560809091015160039091015550505050565b610248610c40565b6001600160a01b038516600090815260046020526040902054600160a01b900460ff166102905760405162461bcd60e51b815260040161028790611723565b60405180910390fd5b600180546001600160a01b038781166000908152600460208190526040918290206002810154925163603a4ebd60e11b8152939094169463c0749d7a946102e7948b9491909201928a9261ffff909216910161136c565b60006040518083038186803b1580156102ff57600080fd5b505afa158015610313573d6000803e3d6000fd5b505050506040513d6000823e601f3d908101601f1916820160405261033b919081019061100b565b8281526001600160a01b038616600090815260046020908152604080832060030154828501523383526002909152902054909150600160a01b900460ff166103e757336000818152600260205260408120805460ff60a01b196001600160a01b0319918216851716600160a01b179091556003805460018101825592527fc2575a0e9e593c00f959f8c92f12db2869c3395a3b0502d05e2516446f71f85b909101805490911690911790555b6001600160a01b038516600090815260026020526040902054600160a01b900460ff16610481576001600160a01b0385166000818152600260205260408120805460ff60a01b196001600160a01b0319918216851716600160a01b179091556003805460018101825592527fc2575a0e9e593c00f959f8c92f12db2869c3395a3b0502d05e2516446f71f85b909101805490911690911790555b33600090815260046020526040902054600160a01b900460ff166105c05760408051600480825260a08201909252600091602082016080803683370190505090506014816000815181106104e557634e487b7160e01b600052603260045260246000fd5b602002602001019061ffff16908161ffff168152505060148160018151811061051e57634e487b7160e01b600052603260045260246000fd5b602002602001019061ffff16908161ffff168152505060148160028151811061055757634e487b7160e01b600052603260045260246000fd5b602002602001019061ffff16908161ffff168152505060148160038151811061059057634e487b7160e01b600052603260045260246000fd5b602002602001019061ffff16908161ffff16815250506105be81600068416e6f6e796d6f757360b81b61011c565b505b80610100015115610663576001600160a01b03851660009081526002602052604090208054600160a81b900463ffffffff169060156105fe8361192c565b82546101009290920a63ffffffff8181021990931691831602179091553360009081526002602052604090208054600160c81b9004909116915060196106438361192c565b91906101000a81548163ffffffff021916908363ffffffff160217905550505b80610120015115610706573360009081526002602052604090208054600160a81b900463ffffffff169060156106988361192c565b82546101009290920a63ffffffff8181021990931691831602179091556001600160a01b03871660009081526002602052604090208054600160c81b9004909116915060196106e68361192c565b91906101000a81548163ffffffff021916908363ffffffff160217905550505b846001600160a01b0316336001600160a01b03167fdfbf823122995fe1c18a3d40c906daa87b7429cb419999f45a9051cf529f1035836040516107499190611797565b60405180910390a3949350505050565b60035460609060009067ffffffffffffffff81111561078857634e487b7160e01b600052604160045260246000fd5b6040519080825280602002602001820160405280156107c157816020015b6107ae610c9e565b8152602001906001900390816107a65790505b50905060005b6003548110156108a8576000600382815481106107f457634e487b7160e01b600052603260045260246000fd5b6000918252602080832090910154604080516080810182526001600160a01b0390921680835280855260048452818520600301548385015280855260028085528286205463ffffffff600160a81b820481169486019490945295829052909352600160c81b9093049092166060830152845190925084908490811061088957634e487b7160e01b600052603260045260246000fd5b60200260200101819052505080806108a090611911565b9150506107c7565b50905090565b60055460609060009067ffffffffffffffff8111156108dd57634e487b7160e01b600052604160045260246000fd5b60405190808252806020026020018201604052801561091657816020015b610903610cc5565b8152602001906001900390816108fb5790505b50905060005b6005548110156108a857600460006005838154811061094b57634e487b7160e01b600052603260045260246000fd5b6000918252602080832091909101546001600160a01b039081168452838201949094526040928301909120825160a08101845281549485168152600160a01b90940460ff1615158483015260018101805484518185028101850186528181529294860193830182828015610a0657602002820191906000526020600020906000905b82829054906101000a900461ffff1661ffff16815260200190600201906020826001010492830192600103820291508084116109cd5790505b5050509183525050600282015461ffff1660208201526003909101546040909101528251839083908110610a4a57634e487b7160e01b600052603260045260246000fd5b60200260200101819052508080610a6090611911565b91505061091c565b6000546001600160a01b031681565b610a7f610cc5565b33600090815260046020526040902054600160a01b900460ff16610ab55760405162461bcd60e51b815260040161028790611767565b33600090815260046020908152604091829020825160a08101845281546001600160a01b0381168252600160a01b900460ff1615158184015260018201805485518186028101860187528181529295939493860193830182828015610b6157602002820191906000526020600020906000905b82829054906101000a900461ffff1661ffff1681526020019060020190602082600101049283019260010382029150808411610b285790505b5050509183525050600282015461ffff166020820152600390910154604090910152905090565b6001546001600160a01b031681565b82805482825590600052602060002090600f01601090048101928215610c305791602002820160005b83821115610c0057835183826101000a81548161ffff021916908361ffff1602179055509260200192600201602081600101049283019260010302610bc0565b8015610c2e5782816101000a81549061ffff0219169055600201602081600101049283019260010302610c00565b505b50610c3c929150610cf4565b5090565b604080516101608101825260008082526020820181905260609282018390528282018390526080820181905260a0820181905260c0820183905260e08201929092526101008101829052610120810182905261014081019190915290565b60408051608081018252600080825260208201819052918101829052606081019190915290565b6040805160a0810182526000808252602082018190526060928201839052918101829052608081019190915290565b5b80821115610c3c5760008155600101610cf5565b600082601f830112610d19578081fd5b81516020610d2e610d29836118d8565b6118ae565b8281528181019085830160c080860288018501891015610d4c578687fd5b865b86811015610e045781838b031215610d64578788fd5b6040805183810181811067ffffffffffffffff82111715610d8757610d87611966565b8252610d9285610f2f565b8152610d9f888601610f2f565b8882015281850151610db08161197c565b80838301525060609150610dc5828601610f0c565b8282015260809150610dd8828601610efa565b8282015260a09150610deb828601610f17565b9181019190915285529385019391810191600101610d4e565b509198975050505050505050565b600082601f830112610e22578081fd5b81356020610e32610d29836118d8565b8281528181019085830183850287018401881015610e4e578586fd5b855b85811015610e75578135610e638161197c565b84529284019290840190600101610e50565b5090979650505050505050565b600082601f830112610e92578081fd5b81516020610ea2610d29836118d8565b8281528181019085830183850287018401881015610ebe578586fd5b855b85811015610e75578151610ed38161197c565b84529284019290840190600101610ec0565b80518015158114610ef557600080fd5b919050565b8051600181900b8114610ef557600080fd5b8051610ef58161197c565b805167ffffffffffffffff81168114610ef557600080fd5b805160ff81168114610ef557600080fd5b60008060008060808587031215610f55578384fd5b84356001600160a01b0381168114610f6b578485fd5b9350602085013567ffffffffffffffff811115610f86578384fd5b610f9287828801610e12565b9350506040850135610fa38161197c565b9396929550929360600135925050565b600080600060608486031215610fc7578283fd5b833567ffffffffffffffff811115610fdd578384fd5b610fe986828701610e12565b9350506020840135610ffa8161197c565b929592945050506040919091013590565b60006020828403121561101c578081fd5b815167ffffffffffffffff80821115611033578283fd5b8184019150610160808387031215611049578384fd5b611052816118ae565b90508251815260208301516020820152604083015182811115611073578485fd5b61107f87828601610e82565b604083015250606083015182811115611096578485fd5b6110a287828601610e82565b6060830152506110b460808401610f0c565b60808201526110c560a08401610f0c565b60a082015260c0830151828111156110db578485fd5b6110e787828601610d09565b60c08301525060e0830151828111156110fe578485fd5b61110a87828601610d09565b60e0830152506101009150611120828401610ee5565b828201526101209150611134828401610ee5565b828201526101409150611148828401610f0c565b91810191909152949350505050565b6000815180845260208085019450808401835b838110156111df578151805160ff908116895284820151168489015260408082015161ffff908116918a019190915260608083015190911690890152608080820151600190810b918a019190915260a09182015167ffffffffffffffff169189019190915260c090970196918301910161116a565b509495945050505050565b6000815180845260208085019450808401835b838110156111df57815161ffff16875295820195908201906001016111fd565b15159052565b600060018060a01b038251168352602082015115156020840152604082015160a0604085015261125660a08501826111ea565b905061ffff6060840151166060850152608083015160808501528091505092915050565b61ffff169052565b6001600160a01b0391909116815260200190565b602080825282518282018190526000919060409081850190868401855b828110156112ff57815180516001600160a01b0316855286810151878601528581015163ffffffff908116878701526060918201511690850152608090930192908501906001016112b3565b5091979650505050505050565b6000602080830181845280855180835260408601915060408482028701019250838701855b8281101561135f57603f1988860301845261134d858351611223565b94509285019290850190600101611331565b5092979650505050505050565b6000608080835261137f818401886111ea565b6020848203818601528188546113958185611908565b91506113a08a6118fc565b9350855b81600f820110156114f057845461ffff6113c08582841661127a565b6113d1868601828460101c1661127a565b60406113e381870183858a1c1661127a565b60606113f6818801848660301c1661127a565b6114068a88018486851c1661127a565b60a0915061141b828801848660501c1661127a565b60c061142d8189018587851c1661127a565b60e09150611442828901858760701c1661127a565b611454610100890185878e1c1661127a565b6114676101208901858760901c1661127a565b61147961014089018587861c1661127a565b61148c6101608901858760b01c1661127a565b61149e61018089018587841c1661127a565b506114b26101a08801848660d01c1661127a565b6114c46101c088018486841c1661127a565b5050506114d86101e085018260f01c61127a565b506001949094019361020092909201916010016113a4565b93549381811015611511576115098361ffff871661127a565b918301916001015b818110156115325761152a8361ffff8760101c1661127a565b918301916001015b818110156115525761154a8361ffff87871c1661127a565b918301916001015b818110156115735761156b8361ffff8760301c1661127a565b918301916001015b818110156115945761158c8361ffff8760401c1661127a565b918301916001015b818110156115b5576115ad8361ffff8760501c1661127a565b918301916001015b818110156115d6576115ce8361ffff8760601c1661127a565b918301916001015b818110156115f7576115ef8361ffff8760701c1661127a565b918301916001015b818110156116175761160f8361ffff87891c1661127a565b918301916001015b81811015611638576116308361ffff8760901c1661127a565b918301916001015b81811015611659576116518361ffff8760a01c1661127a565b918301916001015b8181101561167a576116728361ffff8760b01c1661127a565b918301916001015b8181101561169b576116938361ffff8760c01c1661127a565b918301916001015b818110156116bc576116b48361ffff8760d01c1661127a565b918301916001015b818110156116dd576116d58361ffff8760e01c1661127a565b918301916001015b818110156116f7576116f2838660f01c61127a565b918301915b50508094505050505061170d604083018561127a565b61171a606083018461127a565b95945050505050565b60208082526024908201527f43616e206f6e6c792061747461636b2061207265676973746572656420646566604082015263656e636560e01b606082015260800190565b602080825260169082015275111959995b98d9481b9bdd081c9959da5cdd195c995960521b604082015260600190565b600060208252825160208301526020830151604083015260408301516101608060608501526117ca6101808501836111ea565b91506060850151601f19808685030160808701526117e884836111ea565b9350608087015191506117fe60a087018361127a565b60a0870151915061181260c087018361127a565b60c08701519150808685030160e087015261182d8483611157565b935060e0870151915061010081878603018188015261184c8584611157565b945080880151925050506101206118658187018361121d565b86015190506101406118798682018361121d565b860151905061188a8583018261127a565b5090949350505050565b6000602082526118a76020830184611223565b9392505050565b60405181810167ffffffffffffffff811182821017156118d0576118d0611966565b604052919050565b600067ffffffffffffffff8211156118f2576118f2611966565b5060209081020190565b60009081526020902090565b90815260200190565b600060001982141561192557611925611950565b5060010190565b600063ffffffff8083168181141561194657611946611950565b6001019392505050565b634e487b7160e01b600052601160045260246000fd5b634e487b7160e01b600052604160045260246000fd5b61ffff8116811461198c57600080fd5b5056fea26469706673582212203e3ada646619ab4b3d8c7b8c3c7c2fec5ea98963026196978f7aa0436113d9fe64736f6c63430008000033",
  "linkReferences": {},
  "deployedLinkReferences": {}
}