{
  "_format": "hh-sol-artifact-1",
  "contractName": "GameManager",
  "sourceName": "contracts/GameManager.sol",
  "abi": [
    {
      "inputs": [
        {
          "internalType": "contract GameEngine",
          "name": "engine",
          "type": "address"
        }
      ],
      "stateMutability": "nonpayable",
      "type": "constructor"
    },
    {
      "anonymous": false,
      "inputs": [
        {
          "indexed": true,
          "internalType": "address",
          "name": "attacker",
          "type": "address"
        },
        {
          "indexed": true,
          "internalType": "address",
          "name": "defender",
          "type": "address"
        },
        {
          "components": [
            {
              "internalType": "uint16[]",
              "name": "selectionLhs",
              "type": "uint16[]"
            },
            {
              "internalType": "uint16[]",
              "name": "selectionRhs",
              "type": "uint16[]"
            },
            {
              "internalType": "uint16",
              "name": "commanderLhs",
              "type": "uint16"
            },
            {
              "internalType": "uint16",
              "name": "commanderRhs",
              "type": "uint16"
            },
            {
              "components": [
                {
                  "internalType": "string",
                  "name": "moveType",
                  "type": "string"
                },
                {
                  "internalType": "uint16",
                  "name": "round",
                  "type": "uint16"
                },
                {
                  "internalType": "uint16",
                  "name": "source",
                  "type": "uint16"
                },
                {
                  "internalType": "uint16",
                  "name": "target",
                  "type": "uint16"
                },
                {
                  "internalType": "int16",
                  "name": "targetPosition",
                  "type": "int16"
                },
                {
                  "internalType": "uint64",
                  "name": "damage",
                  "type": "uint64"
                }
              ],
              "internalType": "struct Move[]",
              "name": "lhs",
              "type": "tuple[]"
            },
            {
              "components": [
                {
                  "internalType": "string",
                  "name": "moveType",
                  "type": "string"
                },
                {
                  "internalType": "uint16",
                  "name": "round",
                  "type": "uint16"
                },
                {
                  "internalType": "uint16",
                  "name": "source",
                  "type": "uint16"
                },
                {
                  "internalType": "uint16",
                  "name": "target",
                  "type": "uint16"
                },
                {
                  "internalType": "int16",
                  "name": "targetPosition",
                  "type": "int16"
                },
                {
                  "internalType": "uint64",
                  "name": "damage",
                  "type": "uint64"
                }
              ],
              "internalType": "struct Move[]",
              "name": "rhs",
              "type": "tuple[]"
            },
            {
              "internalType": "int64[]",
              "name": "lhsHp",
              "type": "int64[]"
            },
            {
              "internalType": "int64[]",
              "name": "rhsHp",
              "type": "int64[]"
            },
            {
              "internalType": "bool",
              "name": "lhsDead",
              "type": "bool"
            },
            {
              "internalType": "bool",
              "name": "rhsDead",
              "type": "bool"
            },
            {
              "internalType": "uint16",
              "name": "rounds",
              "type": "uint16"
            }
          ],
          "indexed": false,
          "internalType": "struct FightResult",
          "name": "result",
          "type": "tuple"
        }
      ],
      "name": "FightComplete",
      "type": "event"
    },
    {
      "inputs": [
        {
          "internalType": "address",
          "name": "enemy",
          "type": "address"
        },
        {
          "internalType": "uint16[]",
          "name": "selection",
          "type": "uint16[]"
        },
        {
          "internalType": "uint16",
          "name": "commander",
          "type": "uint16"
        }
      ],
      "name": "attack",
      "outputs": [
        {
          "components": [
            {
              "internalType": "uint16[]",
              "name": "selectionLhs",
              "type": "uint16[]"
            },
            {
              "internalType": "uint16[]",
              "name": "selectionRhs",
              "type": "uint16[]"
            },
            {
              "internalType": "uint16",
              "name": "commanderLhs",
              "type": "uint16"
            },
            {
              "internalType": "uint16",
              "name": "commanderRhs",
              "type": "uint16"
            },
            {
              "components": [
                {
                  "internalType": "string",
                  "name": "moveType",
                  "type": "string"
                },
                {
                  "internalType": "uint16",
                  "name": "round",
                  "type": "uint16"
                },
                {
                  "internalType": "uint16",
                  "name": "source",
                  "type": "uint16"
                },
                {
                  "internalType": "uint16",
                  "name": "target",
                  "type": "uint16"
                },
                {
                  "internalType": "int16",
                  "name": "targetPosition",
                  "type": "int16"
                },
                {
                  "internalType": "uint64",
                  "name": "damage",
                  "type": "uint64"
                }
              ],
              "internalType": "struct Move[]",
              "name": "lhs",
              "type": "tuple[]"
            },
            {
              "components": [
                {
                  "internalType": "string",
                  "name": "moveType",
                  "type": "string"
                },
                {
                  "internalType": "uint16",
                  "name": "round",
                  "type": "uint16"
                },
                {
                  "internalType": "uint16",
                  "name": "source",
                  "type": "uint16"
                },
                {
                  "internalType": "uint16",
                  "name": "target",
                  "type": "uint16"
                },
                {
                  "internalType": "int16",
                  "name": "targetPosition",
                  "type": "int16"
                },
                {
                  "internalType": "uint64",
                  "name": "damage",
                  "type": "uint64"
                }
              ],
              "internalType": "struct Move[]",
              "name": "rhs",
              "type": "tuple[]"
            },
            {
              "internalType": "int64[]",
              "name": "lhsHp",
              "type": "int64[]"
            },
            {
              "internalType": "int64[]",
              "name": "rhsHp",
              "type": "int64[]"
            },
            {
              "internalType": "bool",
              "name": "lhsDead",
              "type": "bool"
            },
            {
              "internalType": "bool",
              "name": "rhsDead",
              "type": "bool"
            },
            {
              "internalType": "uint16",
              "name": "rounds",
              "type": "uint16"
            }
          ],
          "internalType": "struct FightResult",
          "name": "result",
          "type": "tuple"
        }
      ],
      "stateMutability": "nonpayable",
      "type": "function"
    },
    {
      "inputs": [],
      "name": "gameEngine",
      "outputs": [
        {
          "internalType": "contract GameEngine",
          "name": "",
          "type": "address"
        }
      ],
      "stateMutability": "view",
      "type": "function"
    },
    {
      "inputs": [],
      "name": "getAllDefenders",
      "outputs": [
        {
          "components": [
            {
              "internalType": "address",
              "name": "player",
              "type": "address"
            },
            {
              "internalType": "bool",
              "name": "isInitialised",
              "type": "bool"
            },
            {
              "internalType": "uint16[]",
              "name": "defenceSelection",
              "type": "uint16[]"
            },
            {
              "internalType": "uint16",
              "name": "commander",
              "type": "uint16"
            },
            {
              "internalType": "string",
              "name": "name",
              "type": "string"
            }
          ],
          "internalType": "struct PlayerDefence[]",
          "name": "",
          "type": "tuple[]"
        }
      ],
      "stateMutability": "view",
      "type": "function"
    },
    {
      "inputs": [],
      "name": "getLeaderboard",
      "outputs": [
        {
          "components": [
            {
              "internalType": "address",
              "name": "player",
              "type": "address"
            },
            {
              "internalType": "string",
              "name": "name",
              "type": "string"
            },
            {
              "internalType": "uint256",
              "name": "wins",
              "type": "uint256"
            },
            {
              "internalType": "uint256",
              "name": "losses",
              "type": "uint256"
            }
          ],
          "internalType": "struct LeaderboardEntry[]",
          "name": "",
          "type": "tuple[]"
        }
      ],
      "stateMutability": "view",
      "type": "function"
    },
    {
      "inputs": [],
      "name": "getOwnDefence",
      "outputs": [
        {
          "components": [
            {
              "internalType": "address",
              "name": "player",
              "type": "address"
            },
            {
              "internalType": "bool",
              "name": "isInitialised",
              "type": "bool"
            },
            {
              "internalType": "uint16[]",
              "name": "defenceSelection",
              "type": "uint16[]"
            },
            {
              "internalType": "uint16",
              "name": "commander",
              "type": "uint16"
            },
            {
              "internalType": "string",
              "name": "name",
              "type": "string"
            }
          ],
          "internalType": "struct PlayerDefence",
          "name": "",
          "type": "tuple"
        }
      ],
      "stateMutability": "view",
      "type": "function"
    },
    {
      "inputs": [],
      "name": "owner",
      "outputs": [
        {
          "internalType": "address",
          "name": "",
          "type": "address"
        }
      ],
      "stateMutability": "view",
      "type": "function"
    },
    {
      "inputs": [
        {
          "internalType": "uint16[]",
          "name": "defence",
          "type": "uint16[]"
        },
        {
          "internalType": "uint16",
          "name": "commander",
          "type": "uint16"
        },
        {
          "internalType": "string",
          "name": "name",
          "type": "string"
        }
      ],
      "name": "registerDefence",
      "outputs": [],
      "stateMutability": "nonpayable",
      "type": "function"
    }
  ],
  "bytecode": "0x6080604052336000806101000a81548173ffffffffffffffffffffffffffffffffffffffff021916908373ffffffffffffffffffffffffffffffffffffffff1602179055503480156200005157600080fd5b5060405162003464380380620034648339818101604052810190620000779190620000d6565b80600160006101000a81548173ffffffffffffffffffffffffffffffffffffffff021916908373ffffffffffffffffffffffffffffffffffffffff1602179055505062000164565b600081519050620000d0816200014a565b92915050565b600060208284031215620000e957600080fd5b6000620000f984828501620000bf565b91505092915050565b60006200010f826200012a565b9050919050565b6000620001238262000102565b9050919050565b600073ffffffffffffffffffffffffffffffffffffffff82169050919050565b620001558162000116565b81146200016157600080fd5b50565b6132f080620001746000396000f3fe608060405234801561001057600080fd5b506004361061007d5760003560e01c80638da5cb5b1161005b5780638da5cb5b146100ee5780638f4ed46e1461010c578063d43b838c14610128578063e5336276146101465761007d565b80633bed82bf146100825780636d763a6e146100b25780637af584de146100d0575b600080fd5b61009c60048036038101906100979190611d2f565b610164565b6040516100a99190612b0b565b60405180910390f35b6100ba610aa3565b6040516100c79190612a19565b60405180910390f35b6100d8610d86565b6040516100e59190612a3b565b60405180910390f35b6100f6610f88565b60405161010391906129fe565b60405180910390f35b61012660048036038101906101219190611d96565b610fac565b005b610130611248565b60405161013d9190612b2d565b60405180910390f35b61014e6114d1565b60405161015b9190612ab0565b60405180910390f35b61016c6114f7565b600460008573ffffffffffffffffffffffffffffffffffffffff1673ffffffffffffffffffffffffffffffffffffffff16815260200190815260200160002060000160149054906101000a900460ff166101fb576040517f08c379a00000000000000000000000000000000000000000000000000000000081526004016101f290612acb565b60405180910390fd5b600160009054906101000a900473ffffffffffffffffffffffffffffffffffffffff1673ffffffffffffffffffffffffffffffffffffffff1663c0749d7a84600460008873ffffffffffffffffffffffffffffffffffffffff1673ffffffffffffffffffffffffffffffffffffffff16815260200190815260200160002060010185600460008a73ffffffffffffffffffffffffffffffffffffffff1673ffffffffffffffffffffffffffffffffffffffff16815260200190815260200160002060020160009054906101000a900461ffff166040518563ffffffff1660e01b81526004016102ed9493929190612a5d565b60006040518083038186803b15801561030557600080fd5b505afa158015610319573d6000803e3d6000fd5b505050506040513d6000823e3d601f19601f820116820180604052508101906103429190611e15565b9050600260003373ffffffffffffffffffffffffffffffffffffffff1673ffffffffffffffffffffffffffffffffffffffff16815260200190815260200160002060000160149054906101000a900460ff166104d85733600260003373ffffffffffffffffffffffffffffffffffffffff1673ffffffffffffffffffffffffffffffffffffffff16815260200190815260200160002060000160006101000a81548173ffffffffffffffffffffffffffffffffffffffff021916908373ffffffffffffffffffffffffffffffffffffffff1602179055506001600260003373ffffffffffffffffffffffffffffffffffffffff1673ffffffffffffffffffffffffffffffffffffffff16815260200190815260200160002060000160146101000a81548160ff0219169083151502179055506003339080600181540180825580915050600190039060005260206000200160009091909190916101000a81548173ffffffffffffffffffffffffffffffffffffffff021916908373ffffffffffffffffffffffffffffffffffffffff1602179055505b600260008573ffffffffffffffffffffffffffffffffffffffff1673ffffffffffffffffffffffffffffffffffffffff16815260200190815260200160002060000160149054906101000a900460ff1661066c5783600260008673ffffffffffffffffffffffffffffffffffffffff1673ffffffffffffffffffffffffffffffffffffffff16815260200190815260200160002060000160006101000a81548173ffffffffffffffffffffffffffffffffffffffff021916908373ffffffffffffffffffffffffffffffffffffffff1602179055506001600260008673ffffffffffffffffffffffffffffffffffffffff1673ffffffffffffffffffffffffffffffffffffffff16815260200190815260200160002060000160146101000a81548160ff0219169083151502179055506003849080600181540180825580915050600190039060005260206000200160009091909190916101000a81548173ffffffffffffffffffffffffffffffffffffffff021916908373ffffffffffffffffffffffffffffffffffffffff1602179055505b600460003373ffffffffffffffffffffffffffffffffffffffff1673ffffffffffffffffffffffffffffffffffffffff16815260200190815260200160002060000160149054906101000a900460ff166108bf576000600467ffffffffffffffff811115610703577f4e487b7100000000000000000000000000000000000000000000000000000000600052604160045260246000fd5b6040519080825280602002602001820160405280156107315781602001602082028036833780820191505090505b509050601481600081518110610770577f4e487b7100000000000000000000000000000000000000000000000000000000600052603260045260246000fd5b602002602001019061ffff16908161ffff16815250506014816001815181106107c2577f4e487b7100000000000000000000000000000000000000000000000000000000600052603260045260246000fd5b602002602001019061ffff16908161ffff1681525050601481600281518110610814577f4e487b7100000000000000000000000000000000000000000000000000000000600052603260045260246000fd5b602002602001019061ffff16908161ffff1681525050601481600381518110610866577f4e487b7100000000000000000000000000000000000000000000000000000000600052603260045260246000fd5b602002602001019061ffff16908161ffff16815250506108bd8160006040518060400160405280600981526020017f416e6f6e796d6f75730000000000000000000000000000000000000000000000815250610fac565b505b8061010001511561097b57600260008573ffffffffffffffffffffffffffffffffffffffff1673ffffffffffffffffffffffffffffffffffffffff168152602001908152602001600020600201600081548092919061091d90613079565b9190505550600260003373ffffffffffffffffffffffffffffffffffffffff1673ffffffffffffffffffffffffffffffffffffffff168152602001908152602001600020600301600081548092919061097590613079565b91905055505b80610120015115610a3757600260003373ffffffffffffffffffffffffffffffffffffffff1673ffffffffffffffffffffffffffffffffffffffff16815260200190815260200160002060020160008154809291906109d990613079565b9190505550600260008573ffffffffffffffffffffffffffffffffffffffff1673ffffffffffffffffffffffffffffffffffffffff1681526020019081526020016000206003016000815480929190610a3190613079565b91905055505b8373ffffffffffffffffffffffffffffffffffffffff163373ffffffffffffffffffffffffffffffffffffffff167fdd33b979aab07b6f0b2d3c3dbf5a30f7a535bc18b25d5919dea66a754a310b2083604051610a949190612b0b565b60405180910390a39392505050565b6060600060038054905067ffffffffffffffff811115610aec577f4e487b7100000000000000000000000000000000000000000000000000000000600052604160045260246000fd5b604051908082528060200260200182016040528015610b2557816020015b610b12611561565b815260200190600190039081610b0a5790505b50905060005b600380549050811015610d7e57600060038281548110610b74577f4e487b7100000000000000000000000000000000000000000000000000000000600052603260045260246000fd5b9060005260206000200160009054906101000a900473ffffffffffffffffffffffffffffffffffffffff16905060405180608001604052808273ffffffffffffffffffffffffffffffffffffffff168152602001600460008473ffffffffffffffffffffffffffffffffffffffff1673ffffffffffffffffffffffffffffffffffffffff1681526020019081526020016000206003018054610c1590612ea7565b80601f0160208091040260200160405190810160405280929190818152602001828054610c4190612ea7565b8015610c8e5780601f10610c6357610100808354040283529160200191610c8e565b820191906000526020600020905b815481529060010190602001808311610c7157829003601f168201915b50505050508152602001600260008473ffffffffffffffffffffffffffffffffffffffff1673ffffffffffffffffffffffffffffffffffffffff168152602001908152602001600020600201548152602001600260008473ffffffffffffffffffffffffffffffffffffffff1673ffffffffffffffffffffffffffffffffffffffff16815260200190815260200160002060030154815250838381518110610d5f577f4e487b7100000000000000000000000000000000000000000000000000000000600052603260045260246000fd5b6020026020010181905250508080610d7690613079565b915050610b2b565b508091505090565b60606005805480602002602001604051908101604052809291908181526020016000905b82821015610f7f57838290600052602060002090600402016040518060a00160405290816000820160009054906101000a900473ffffffffffffffffffffffffffffffffffffffff1673ffffffffffffffffffffffffffffffffffffffff1673ffffffffffffffffffffffffffffffffffffffff1681526020016000820160149054906101000a900460ff1615151515815260200160018201805480602002602001604051908101604052809291908181526020018280548015610eb557602002820191906000526020600020906000905b82829054906101000a900461ffff1661ffff1681526020019060020190602082600101049283019260010382029150808411610e7c5790505b505050505081526020016002820160009054906101000a900461ffff1661ffff1661ffff168152602001600382018054610eee90612ea7565b80601f0160208091040260200160405190810160405280929190818152602001828054610f1a90612ea7565b8015610f675780601f10610f3c57610100808354040283529160200191610f67565b820191906000526020600020905b815481529060010190602001808311610f4a57829003601f168201915b50505050508152505081526020019060010190610daa565b50505050905090565b60008054906101000a900473ffffffffffffffffffffffffffffffffffffffff1681565b60006040518060a001604052803373ffffffffffffffffffffffffffffffffffffffff1681526020016001151581526020018581526020018461ffff168152602001838152509050600460003373ffffffffffffffffffffffffffffffffffffffff1673ffffffffffffffffffffffffffffffffffffffff16815260200190815260200160002060000160149054906101000a900460ff1661113b57600581908060018154018082558091505060019003906000526020600020906004020160009091909190915060008201518160000160006101000a81548173ffffffffffffffffffffffffffffffffffffffff021916908373ffffffffffffffffffffffffffffffffffffffff16021790555060208201518160000160146101000a81548160ff02191690831515021790555060408201518160010190805190602001906110f792919061159f565b5060608201518160020160006101000a81548161ffff021916908361ffff1602179055506080820151816003019080519060200190611137929190611649565b5050505b80600460003373ffffffffffffffffffffffffffffffffffffffff1673ffffffffffffffffffffffffffffffffffffffff16815260200190815260200160002060008201518160000160006101000a81548173ffffffffffffffffffffffffffffffffffffffff021916908373ffffffffffffffffffffffffffffffffffffffff16021790555060208201518160000160146101000a81548160ff02191690831515021790555060408201518160010190805190602001906111fe92919061159f565b5060608201518160020160006101000a81548161ffff021916908361ffff160217905550608082015181600301908051906020019061123e929190611649565b5090505050505050565b6112506116cf565b600460003373ffffffffffffffffffffffffffffffffffffffff1673ffffffffffffffffffffffffffffffffffffffff16815260200190815260200160002060000160149054906101000a900460ff166112df576040517f08c379a00000000000000000000000000000000000000000000000000000000081526004016112d690612aeb565b60405180910390fd5b600460003373ffffffffffffffffffffffffffffffffffffffff1673ffffffffffffffffffffffffffffffffffffffff1681526020019081526020016000206040518060a00160405290816000820160009054906101000a900473ffffffffffffffffffffffffffffffffffffffff1673ffffffffffffffffffffffffffffffffffffffff1673ffffffffffffffffffffffffffffffffffffffff1681526020016000820160149054906101000a900460ff161515151581526020016001820180548060200260200160405190810160405280929190818152602001828054801561141157602002820191906000526020600020906000905b82829054906101000a900461ffff1661ffff16815260200190600201906020826001010492830192600103820291508084116113d85790505b505050505081526020016002820160009054906101000a900461ffff1661ffff1661ffff16815260200160038201805461144a90612ea7565b80601f016020809104026020016040519081016040528092919081815260200182805461147690612ea7565b80156114c35780601f10611498576101008083540402835291602001916114c3565b820191906000526020600020905b8154815290600101906020018083116114a657829003601f168201915b505050505081525050905090565b600160009054906101000a900473ffffffffffffffffffffffffffffffffffffffff1681565b6040518061016001604052806060815260200160608152602001600061ffff168152602001600061ffff16815260200160608152602001606081526020016060815260200160608152602001600015158152602001600015158152602001600061ffff1681525090565b6040518060800160405280600073ffffffffffffffffffffffffffffffffffffffff1681526020016060815260200160008152602001600081525090565b82805482825590600052602060002090600f016010900481019282156116385791602002820160005b8382111561160857835183826101000a81548161ffff021916908361ffff16021790555092602001926002016020816001010492830192600103026115c8565b80156116365782816101000a81549061ffff0219169055600201602081600101049283019260010302611608565b505b509050611645919061171a565b5090565b82805461165590612ea7565b90600052602060002090601f01602090048101928261167757600085556116be565b82601f1061169057805160ff19168380011785556116be565b828001600101855582156116be579182015b828111156116bd5782518255916020019190600101906116a2565b5b5090506116cb919061171a565b5090565b6040518060a00160405280600073ffffffffffffffffffffffffffffffffffffffff16815260200160001515815260200160608152602001600061ffff168152602001606081525090565b5b8082111561173357600081600090555060010161171b565b5090565b600061174a61174584612b80565b612b4f565b9050808382526020820190508285602086028201111561176957600080fd5b60005b85811015611799578161177f8882611a3b565b84526020840193506020830192505060018101905061176c565b5050509392505050565b60006117b66117b184612bac565b612b4f565b9050808382526020820190508260005b858110156117f657815185016117dc8882611c3c565b8452602084019350602083019250506001810190506117c6565b5050509392505050565b600061181361180e84612bd8565b612b4f565b9050808382526020820190508285602086028201111561183257600080fd5b60005b8581101561186257816118488882611cf0565b845260208401935060208301925050600181019050611835565b5050509392505050565b600061187f61187a84612bd8565b612b4f565b9050808382526020820190508285602086028201111561189e57600080fd5b60005b858110156118ce57816118b48882611d05565b8452602084019350602083019250506001810190506118a1565b5050509392505050565b60006118eb6118e684612c04565b612b4f565b90508281526020810184848401111561190357600080fd5b61190e848285612e65565b509392505050565b600061192961192484612c04565b612b4f565b90508281526020810184848401111561194157600080fd5b61194c848285612e74565b509392505050565b60008135905061196381613230565b92915050565b600082601f83011261197a57600080fd5b815161198a848260208601611737565b91505092915050565b600082601f8301126119a457600080fd5b81516119b48482602086016117a3565b91505092915050565b600082601f8301126119ce57600080fd5b81356119de848260208601611800565b91505092915050565b600082601f8301126119f857600080fd5b8151611a0884826020860161186c565b91505092915050565b600081519050611a2081613247565b92915050565b600081519050611a358161325e565b92915050565b600081519050611a4a81613275565b92915050565b600082601f830112611a6157600080fd5b8135611a718482602086016118d8565b91505092915050565b600082601f830112611a8b57600080fd5b8151611a9b848260208601611916565b91505092915050565b60006101608284031215611ab757600080fd5b611ac2610160612b4f565b9050600082015167ffffffffffffffff811115611ade57600080fd5b611aea848285016119e7565b600083015250602082015167ffffffffffffffff811115611b0a57600080fd5b611b16848285016119e7565b6020830152506040611b2a84828501611d05565b6040830152506060611b3e84828501611d05565b606083015250608082015167ffffffffffffffff811115611b5e57600080fd5b611b6a84828501611993565b60808301525060a082015167ffffffffffffffff811115611b8a57600080fd5b611b9684828501611993565b60a08301525060c082015167ffffffffffffffff811115611bb657600080fd5b611bc284828501611969565b60c08301525060e082015167ffffffffffffffff811115611be257600080fd5b611bee84828501611969565b60e083015250610100611c0384828501611a11565b61010083015250610120611c1984828501611a11565b61012083015250610140611c2f84828501611d05565b6101408301525092915050565b600060c08284031215611c4e57600080fd5b611c5860c0612b4f565b9050600082015167ffffffffffffffff811115611c7457600080fd5b611c8084828501611a7a565b6000830152506020611c9484828501611d05565b6020830152506040611ca884828501611d05565b6040830152506060611cbc84828501611d05565b6060830152506080611cd084828501611a26565b60808301525060a0611ce484828501611d1a565b60a08301525092915050565b600081359050611cff8161328c565b92915050565b600081519050611d148161328c565b92915050565b600081519050611d29816132a3565b92915050565b600080600060608486031215611d4457600080fd5b6000611d5286828701611954565b935050602084013567ffffffffffffffff811115611d6f57600080fd5b611d7b868287016119bd565b9250506040611d8c86828701611cf0565b9150509250925092565b600080600060608486031215611dab57600080fd5b600084013567ffffffffffffffff811115611dc557600080fd5b611dd1868287016119bd565b9350506020611de286828701611cf0565b925050604084013567ffffffffffffffff811115611dff57600080fd5b611e0b86828701611a50565b9150509250925092565b600060208284031215611e2757600080fd5b600082015167ffffffffffffffff811115611e4157600080fd5b611e4d84828501611aa4565b91505092915050565b6000611e6283836125dc565b60208301905092915050565b6000611e7a83836127dc565b905092915050565b6000611e8e838361283f565b905092915050565b6000611ea283836128c8565b905092915050565b6000611eb683836129c2565b60208301905092915050565b611ecb81612dbd565b82525050565b611eda81612dbd565b82525050565b6000611eeb82612c99565b611ef58185612d27565b9350611f0083612c34565b8060005b83811015611f31578151611f188882611e56565b9750611f2383612ce6565b925050600181019050611f04565b5085935050505092915050565b6000611f4982612ca4565b611f538185612d38565b935083602082028501611f6585612c44565b8060005b85811015611fa15784840389528151611f828582611e6e565b9450611f8d83612cf3565b925060208a01995050600181019050611f69565b50829750879550505050505092915050565b6000611fbe82612caf565b611fc88185612d49565b935083602082028501611fda85612c54565b8060005b858110156120165784840389528151611ff78582611e82565b945061200283612d00565b925060208a01995050600181019050611fde565b50829750879550505050505092915050565b600061203382612cba565b61203d8185612d5a565b93508360208202850161204f85612c64565b8060005b8581101561208b578484038952815161206c8582611e96565b945061207783612d0d565b925060208a01995050600181019050612053565b50829750879550505050505092915050565b60006120a882612cc5565b6120b28185612d6b565b93506120bd83612c74565b8060005b838110156120ee5781516120d58882611eaa565b97506120e083612d1a565b9250506001810190506120c1565b5085935050505092915050565b600061210682612cc5565b6121108185612d7c565b935061211b83612c74565b8060005b8381101561214c5781516121338882611eaa565b975061213e83612d1a565b92505060018101905061211f565b5085935050505092915050565b600061216482612cd0565b61216e8185612d7c565b93508361217a84612c84565b6000600115612327575b836001601003820110156123265781546121a6886121a183612ed9565b6129c2565b6020880197506121be886121b983612ff7565b6129c2565b6020880197506121d6886121d18361302b565b6129c2565b6020880197506121ee886121e983613045565b6129c2565b602088019750612206886122018361305f565b6129c2565b60208801975061221e8861221983612ef3565b6129c2565b6020880197506122368861223183612f0d565b6129c2565b60208801975061224e8861224983612f27565b6129c2565b6020880197506122668861226183612f41565b6129c2565b60208801975061227e8861227983612f5b565b6129c2565b6020880197506122968861229183612f75565b6129c2565b6020880197506122ae886122a983612f8f565b6129c2565b6020880197506122c6886122c183612fa9565b6129c2565b6020880197506122de886122d983612fc3565b6129c2565b6020880197506122f6886122f183612fdd565b6129c2565b60208801975061230e8861230983613011565b6129c2565b60208801975060018301925050601081019050612184565b5b6001156125a2578154848210156123575761234a8861234583612ed9565b6129c2565b6020880197506001820191505b8482101561237e576123718861236c83612ff7565b6129c2565b6020880197506001820191505b848210156123a557612398886123938361302b565b6129c2565b6020880197506001820191505b848210156123cc576123bf886123ba83613045565b6129c2565b6020880197506001820191505b848210156123f3576123e6886123e18361305f565b6129c2565b6020880197506001820191505b8482101561241a5761240d8861240883612ef3565b6129c2565b6020880197506001820191505b84821015612441576124348861242f83612f0d565b6129c2565b6020880197506001820191505b848210156124685761245b8861245683612f27565b6129c2565b6020880197506001820191505b8482101561248f576124828861247d83612f41565b6129c2565b6020880197506001820191505b848210156124b6576124a9886124a483612f5b565b6129c2565b6020880197506001820191505b848210156124dd576124d0886124cb83612f75565b6129c2565b6020880197506001820191505b84821015612504576124f7886124f283612f8f565b6129c2565b6020880197506001820191505b8482101561252b5761251e8861251983612fa9565b6129c2565b6020880197506001820191505b84821015612552576125458861254083612fc3565b6129c2565b6020880197506001820191505b848210156125795761256c8861256783612fdd565b6129c2565b6020880197506001820191505b848210156125a0576125938861258e83613011565b6129c2565b6020880197506001820191505b505b8694505050505092915050565b6125b881612dcf565b82525050565b6125c781612e41565b82525050565b6125d681612ddb565b82525050565b6125e581612de8565b82525050565b60006125f682612cdb565b6126008185612d8d565b9350612610818560208601612e74565b6126198161314f565b840191505092915050565b6000612631602483612d9e565b91507f43616e206f6e6c792061747461636b206120726567697374657265642064656660008301527f656e6365000000000000000000000000000000000000000000000000000000006020830152604082019050919050565b6000612697601683612d9e565b91507f446566656e6365206e6f742072656769737465726564000000000000000000006000830152602082019050919050565b60006101608301600083015184820360008601526126e8828261209d565b91505060208301518482036020860152612702828261209d565b915050604083015161271760408601826129c2565b50606083015161272a60608601826129c2565b50608083015184820360808601526127428282611fb3565b91505060a083015184820360a086015261275c8282611fb3565b91505060c083015184820360c08601526127768282611ee0565b91505060e083015184820360e08601526127908282611ee0565b9150506101008301516127a76101008601826125af565b506101208301516127bc6101208601826125af565b506101408301516127d16101408601826129c2565b508091505092915050565b60006080830160008301516127f46000860182611ec2565b506020830151848203602086015261280c82826125eb565b915050604083015161282160408601826129e0565b50606083015161283460608601826129e0565b508091505092915050565b600060c083016000830151848203600086015261285c82826125eb565b915050602083015161287160208601826129c2565b50604083015161288460408601826129c2565b50606083015161289760608601826129c2565b5060808301516128aa60808601826125cd565b5060a08301516128bd60a08601826129ef565b508091505092915050565b600060a0830160008301516128e06000860182611ec2565b5060208301516128f360208601826125af565b506040830151848203604086015261290b828261209d565b915050606083015161292060608601826129c2565b506080830151848203608086015261293882826125eb565b9150508091505092915050565b600060a08301600083015161295d6000860182611ec2565b50602083015161297060208601826125af565b5060408301518482036040860152612988828261209d565b915050606083015161299d60608601826129c2565b50608083015184820360808601526129b582826125eb565b9150508091505092915050565b6129cb81612df5565b82525050565b6129da81612df5565b82525050565b6129e981612e23565b82525050565b6129f881612e2d565b82525050565b6000602082019050612a136000830184611ed1565b92915050565b60006020820190508181036000830152612a338184611f3e565b905092915050565b60006020820190508181036000830152612a558184612028565b905092915050565b60006080820190508181036000830152612a7781876120fb565b90508181036020830152612a8b8186612159565b9050612a9a60408301856129d1565b612aa760608301846129d1565b95945050505050565b6000602082019050612ac560008301846125be565b92915050565b60006020820190508181036000830152612ae481612624565b9050919050565b60006020820190508181036000830152612b048161268a565b9050919050565b60006020820190508181036000830152612b2581846126ca565b905092915050565b60006020820190508181036000830152612b478184612945565b905092915050565b6000604051905081810181811067ffffffffffffffff82111715612b7657612b75613120565b5b8060405250919050565b600067ffffffffffffffff821115612b9b57612b9a613120565b5b602082029050602081019050919050565b600067ffffffffffffffff821115612bc757612bc6613120565b5b602082029050602081019050919050565b600067ffffffffffffffff821115612bf357612bf2613120565b5b602082029050602081019050919050565b600067ffffffffffffffff821115612c1f57612c1e613120565b5b601f19601f8301169050602081019050919050565b6000819050602082019050919050565b6000819050602082019050919050565b6000819050602082019050919050565b6000819050602082019050919050565b6000819050602082019050919050565b60008190508160005260206000209050919050565b600081519050919050565b600081519050919050565b600081519050919050565b600081519050919050565b600081519050919050565b600081549050919050565b600081519050919050565b6000602082019050919050565b6000602082019050919050565b6000602082019050919050565b6000602082019050919050565b6000602082019050919050565b600082825260208201905092915050565b600082825260208201905092915050565b600082825260208201905092915050565b600082825260208201905092915050565b600082825260208201905092915050565b600082825260208201905092915050565b600082825260208201905092915050565b600082825260208201905092915050565b600061ffff82169050919050565b6000612dc882612e03565b9050919050565b60008115159050919050565b60008160010b9050919050565b60008160070b9050919050565b600061ffff82169050919050565b600073ffffffffffffffffffffffffffffffffffffffff82169050919050565b6000819050919050565b600067ffffffffffffffff82169050919050565b6000612e4c82612e53565b9050919050565b6000612e5e82612e03565b9050919050565b82818337600083830152505050565b60005b83811015612e92578082015181840152602081019050612e77565b83811115612ea1576000848401525b50505050565b60006002820490506001821680612ebf57607f821691505b60208210811415612ed357612ed26130f1565b5b50919050565b6000612eec612ee783613160565b612daf565b9050919050565b6000612f06612f0183613216565b612daf565b9050919050565b6000612f20612f1b83613223565b612daf565b9050919050565b6000612f3a612f358361316d565b612daf565b9050919050565b6000612f54612f4f8361317a565b612daf565b9050919050565b6000612f6e612f6983613187565b612daf565b9050919050565b6000612f88612f8383613194565b612daf565b9050919050565b6000612fa2612f9d836131ae565b612daf565b9050919050565b6000612fbc612fb7836131bb565b612daf565b9050919050565b6000612fd6612fd1836131c8565b612daf565b9050919050565b6000612ff0612feb836131d5565b612daf565b9050919050565b600061300a613005836131a1565b612daf565b9050919050565b600061302461301f836131e2565b612daf565b9050919050565b600061303e613039836131ef565b612daf565b9050919050565b6000613058613053836131fc565b612daf565b9050919050565b600061307261306d83613209565b612daf565b9050919050565b600061308482612e23565b91507fffffffffffffffffffffffffffffffffffffffffffffffffffffffffffffffff8214156130b7576130b66130c2565b5b600182019050919050565b7f4e487b7100000000000000000000000000000000000000000000000000000000600052601160045260246000fd5b7f4e487b7100000000000000000000000000000000000000000000000000000000600052602260045260246000fd5b7f4e487b7100000000000000000000000000000000000000000000000000000000600052604160045260246000fd5b6000601f19601f8301169050919050565b60008160001c9050919050565b60008160701c9050919050565b60008160801c9050919050565b60008160901c9050919050565b60008160a01c9050919050565b60008160101c9050919050565b60008160b01c9050919050565b60008160c01c9050919050565b60008160d01c9050919050565b60008160e01c9050919050565b60008160f01c9050919050565b60008160201c9050919050565b60008160301c9050919050565b60008160401c9050919050565b60008160501c9050919050565b60008160601c9050919050565b61323981612dbd565b811461324457600080fd5b50565b61325081612dcf565b811461325b57600080fd5b50565b61326781612ddb565b811461327257600080fd5b50565b61327e81612de8565b811461328957600080fd5b50565b61329581612df5565b81146132a057600080fd5b50565b6132ac81612e2d565b81146132b757600080fd5b5056fea2646970667358221220fccaac141fab90f32a65f5de51855d57b513db11e0a9be117833f7fcc7e9920964736f6c63430008000033",
  "linkReferences": {},
  "deployedLinkReferences": {}
}