{
  "_format": "hh-sol-artifact-1",
  "contractName": "GameEngineLibrary",
  "sourceName": "contracts/GameEngine.sol",
  "abi": [
    {
      "inputs": [
        {
          "components": [
            {
              "internalType": "uint256",
              "name": "cp",
              "type": "uint256"
            },
            {
              "internalType": "uint256",
              "name": "hp",
              "type": "uint256"
            },
            {
              "components": [
                {
                  "internalType": "uint256",
                  "name": "base",
                  "type": "uint256"
                },
                {
                  "internalType": "uint256",
                  "name": "variable",
                  "type": "uint256"
                }
              ],
              "internalType": "struct ShipVariableStat",
              "name": "attack",
              "type": "tuple"
            },
            {
              "internalType": "uint256",
              "name": "defence",
              "type": "uint256"
            },
            {
              "internalType": "uint256",
              "name": "speed",
              "type": "uint256"
            },
            {
              "internalType": "uint256",
              "name": "range",
              "type": "uint256"
            },
            {
              "internalType": "uint256",
              "name": "agility",
              "type": "uint256"
            }
          ],
          "internalType": "struct Ship[]",
          "name": "Ships",
          "type": "tuple[]"
        },
        {
          "internalType": "uint256[]",
          "name": "selectionLhs",
          "type": "uint256[]"
        },
        {
          "internalType": "uint256[]",
          "name": "selectionRhs",
          "type": "uint256[]"
        },
        {
          "internalType": "uint256",
          "name": "commanderLhs",
          "type": "uint256"
        },
        {
          "internalType": "uint256",
          "name": "commanderRhs",
          "type": "uint256"
        }
      ],
      "name": "fight",
      "outputs": [
        {
          "components": [
            {
              "components": [
                {
                  "internalType": "string",
                  "name": "moveType",
                  "type": "string"
                },
                {
                  "internalType": "uint256",
                  "name": "round",
                  "type": "uint256"
                },
                {
                  "internalType": "uint256",
                  "name": "source",
                  "type": "uint256"
                },
                {
                  "internalType": "uint256",
                  "name": "target",
                  "type": "uint256"
                },
                {
                  "internalType": "int256",
                  "name": "targetPosition",
                  "type": "int256"
                },
                {
                  "internalType": "uint256",
                  "name": "damage",
                  "type": "uint256"
                }
              ],
              "internalType": "struct Move[]",
              "name": "lhs",
              "type": "tuple[]"
            },
            {
              "components": [
                {
                  "internalType": "string",
                  "name": "moveType",
                  "type": "string"
                },
                {
                  "internalType": "uint256",
                  "name": "round",
                  "type": "uint256"
                },
                {
                  "internalType": "uint256",
                  "name": "source",
                  "type": "uint256"
                },
                {
                  "internalType": "uint256",
                  "name": "target",
                  "type": "uint256"
                },
                {
                  "internalType": "int256",
                  "name": "targetPosition",
                  "type": "int256"
                },
                {
                  "internalType": "uint256",
                  "name": "damage",
                  "type": "uint256"
                }
              ],
              "internalType": "struct Move[]",
              "name": "rhs",
              "type": "tuple[]"
            },
            {
              "internalType": "int256[]",
              "name": "lhsHp",
              "type": "int256[]"
            },
            {
              "internalType": "int256[]",
              "name": "rhsHp",
              "type": "int256[]"
            },
            {
              "internalType": "bool",
              "name": "lhsDead",
              "type": "bool"
            },
            {
              "internalType": "bool",
              "name": "rhsDead",
              "type": "bool"
            },
            {
              "internalType": "uint256",
              "name": "rounds",
              "type": "uint256"
            }
          ],
          "internalType": "struct FightResult",
          "name": "",
          "type": "tuple"
        }
      ],
      "stateMutability": "view",
      "type": "function"
    },
    {
      "inputs": [
        {
          "components": [
            {
              "internalType": "uint256",
              "name": "cp",
              "type": "uint256"
            },
            {
              "internalType": "uint256",
              "name": "hp",
              "type": "uint256"
            },
            {
              "components": [
                {
                  "internalType": "uint256",
                  "name": "base",
                  "type": "uint256"
                },
                {
                  "internalType": "uint256",
                  "name": "variable",
                  "type": "uint256"
                }
              ],
              "internalType": "struct ShipVariableStat",
              "name": "attack",
              "type": "tuple"
            },
            {
              "internalType": "uint256",
              "name": "defence",
              "type": "uint256"
            },
            {
              "internalType": "uint256",
              "name": "speed",
              "type": "uint256"
            },
            {
              "internalType": "uint256",
              "name": "range",
              "type": "uint256"
            },
            {
              "internalType": "uint256",
              "name": "agility",
              "type": "uint256"
            }
          ],
          "internalType": "struct Ship[]",
          "name": "Ships",
          "type": "tuple[]"
        },
        {
          "internalType": "bool",
          "name": "isLhs",
          "type": "bool"
        },
        {
          "internalType": "uint256",
          "name": "source",
          "type": "uint256"
        },
        {
          "internalType": "int256",
          "name": "direction",
          "type": "int256"
        },
        {
          "internalType": "int256[]",
          "name": "shipPositionsLhs",
          "type": "int256[]"
        },
        {
          "internalType": "int256[]",
          "name": "shipPositionsRhs",
          "type": "int256[]"
        },
        {
          "internalType": "int256[]",
          "name": "shipHpsLhs",
          "type": "int256[]"
        },
        {
          "internalType": "int256[]",
          "name": "shipHpsRhs",
          "type": "int256[]"
        }
      ],
      "name": "moveShips",
      "outputs": [
        {
          "internalType": "int256",
          "name": "",
          "type": "int256"
        }
      ],
      "stateMutability": "pure",
      "type": "function"
    }
  ],
  "bytecode": "0x612b95610053600b82828239805160001a607314610046577f4e487b7100000000000000000000000000000000000000000000000000000000600052600060045260246000fd5b30600052607381538281f3fe73000000000000000000000000000000000000000030146080604052600436106100405760003560e01c80633732da83146100455780636e1060ff14610075575b600080fd5b61005f600480360381019061005a9190611f4b565b6100a5565b60405161006c91906123f4565b60405180910390f35b61008f600480360381019061008a9190611e8c565b610291565b60405161009c919061242f565b60405180910390f35b6000808988815181106100e1577f4e487b7100000000000000000000000000000000000000000000000000000000600052603260045260246000fd5b602002602001015160800151905060008961013c5785898151811061012f577f4e487b7100000000000000000000000000000000000000000000000000000000600052603260045260246000fd5b602002602001015161017e565b868981518110610175577f4e487b7100000000000000000000000000000000000000000000000000000000600052603260045260246000fd5b60200260200101515b905060008290505b600081131561027b5760008b6101f257818a6101a291906126c0565b888c815181106101db577f4e487b7100000000000000000000000000000000000000000000000000000000600052603260045260246000fd5b60200260200101516101ed91906125a5565b61024a565b818a6101fe91906126c0565b898c81518110610237577f4e487b7100000000000000000000000000000000000000000000000000000000600052603260045260246000fd5b602002602001015161024991906125a5565b5b9050610259818a8a8a8a6112ab565b15610267578092505061027b565b5080806102739061297e565b915050610186565b5060009150809250505098975050505050505050565b610299611adf565b60048551146102dd576040517f08c379a00000000000000000000000000000000000000000000000000000000081526004016102d49061240f565b60405180910390fd5b6004845114610321576040517f08c379a00000000000000000000000000000000000000000000000000000000081526004016103189061240f565b60405180910390fd5b6000600467ffffffffffffffff811115610364577f4e487b7100000000000000000000000000000000000000000000000000000000600052604160045260246000fd5b6040519080825280602002602001820160405280156103925781602001602082028036833780820191505090505b509050600a816000815181106103d1577f4e487b7100000000000000000000000000000000000000000000000000000000600052603260045260246000fd5b602002602001018181525050600b81600181518110610419577f4e487b7100000000000000000000000000000000000000000000000000000000600052603260045260246000fd5b602002602001018181525050600c81600281518110610461577f4e487b7100000000000000000000000000000000000000000000000000000000600052603260045260246000fd5b602002602001018181525050600d816003815181106104a9577f4e487b7100000000000000000000000000000000000000000000000000000000600052603260045260246000fd5b6020026020010181815250506000600467ffffffffffffffff8111156104f8577f4e487b7100000000000000000000000000000000000000000000000000000000600052604160045260246000fd5b6040519080825280602002602001820160405280156105265781602001602082028036833780820191505090505b5090507ffffffffffffffffffffffffffffffffffffffffffffffffffffffffffffffff681600081518110610584577f4e487b7100000000000000000000000000000000000000000000000000000000600052603260045260246000fd5b6020026020010181815250507ffffffffffffffffffffffffffffffffffffffffffffffffffffffffffffffff5816001815181106105eb577f4e487b7100000000000000000000000000000000000000000000000000000000600052603260045260246000fd5b6020026020010181815250507ffffffffffffffffffffffffffffffffffffffffffffffffffffffffffffffff481600281518110610652577f4e487b7100000000000000000000000000000000000000000000000000000000600052603260045260246000fd5b6020026020010181815250507ffffffffffffffffffffffffffffffffffffffffffffffffffffffffffffffff3816003815181106106b9577f4e487b7100000000000000000000000000000000000000000000000000000000600052603260045260246000fd5b6020026020010181815250506000600467ffffffffffffffff811115610708577f4e487b7100000000000000000000000000000000000000000000000000000000600052604160045260246000fd5b6040519080825280602002602001820160405280156107365781602001602082028036833780820191505090505b5090506000600467ffffffffffffffff81111561077c577f4e487b7100000000000000000000000000000000000000000000000000000000600052604160045260246000fd5b6040519080825280602002602001820160405280156107aa5781602001602082028036833780820191505090505b5090506000600467ffffffffffffffff8111156107f0577f4e487b7100000000000000000000000000000000000000000000000000000000600052604160045260246000fd5b60405190808252806020026020018201604052801561081e5781602001602082028036833780820191505090505b5090506000600467ffffffffffffffff811115610864577f4e487b7100000000000000000000000000000000000000000000000000000000600052604160045260246000fd5b6040519080825280602002602001820160405280156108925781602001602082028036833780820191505090505b50905060005b6004811015610b6a578b81815181106108da577f4e487b7100000000000000000000000000000000000000000000000000000000600052603260045260246000fd5b60200260200101518d828151811061091b577f4e487b7100000000000000000000000000000000000000000000000000000000600052603260045260246000fd5b60200260200101516020015161093191906127d7565b85828151811061096a577f4e487b7100000000000000000000000000000000000000000000000000000000600052603260045260246000fd5b6020026020010181815250508481815181106109af577f4e487b7100000000000000000000000000000000000000000000000000000000600052603260045260246000fd5b60200260200101518382815181106109f0577f4e487b7100000000000000000000000000000000000000000000000000000000600052603260045260246000fd5b6020026020010181815250508a8181518110610a35577f4e487b7100000000000000000000000000000000000000000000000000000000600052603260045260246000fd5b60200260200101518d8281518110610a76577f4e487b7100000000000000000000000000000000000000000000000000000000600052603260045260246000fd5b602002602001015160200151610a8c91906127d7565b848281518110610ac5577f4e487b7100000000000000000000000000000000000000000000000000000000600052603260045260246000fd5b602002602001018181525050838181518110610b0a577f4e487b7100000000000000000000000000000000000000000000000000000000600052603260045260246000fd5b6020026020010151828281518110610b4b577f4e487b7100000000000000000000000000000000000000000000000000000000600052603260045260246000fd5b6020026020010181815250508080610b62906129c7565b915050610898565b50610b73611b20565b60046032610b8191906127d7565b67ffffffffffffffff811115610bc0577f4e487b7100000000000000000000000000000000000000000000000000000000600052604160045260246000fd5b604051908082528060200260200182016040528015610bf957816020015b610be6611b56565b815260200190600190039081610bde5790505b50816060018190525060046032610c1091906127d7565b67ffffffffffffffff811115610c4f577f4e487b7100000000000000000000000000000000000000000000000000000000600052604160045260246000fd5b604051908082528060200260200182016040528015610c8857816020015b610c75611b56565b815260200190600190039081610c6d5790505b50816080018190525060008160000181815250505b60328160000151108015610cb75750610cb583611426565b155b8015610cc95750610cc782611426565b155b156112365760008160a00181815250505b60048160a001511015610f84576000838260a0015181518110610d26577f4e487b7100000000000000000000000000000000000000000000000000000000600052603260045260246000fd5b60200260200101511315610f69576000610d478e8360a001518a8a876114a4565b905060008112610e77576000610dec8f8460a0015184888760a0015181518110610d9a577f4e487b7100000000000000000000000000000000000000000000000000000000600052603260045260246000fd5b60200260200101518b8860a0015181518110610ddf577f4e487b7100000000000000000000000000000000000000000000000000000000600052603260045260246000fd5b6020026020010151611667565b905080848381518110610e28577f4e487b7100000000000000000000000000000000000000000000000000000000600052603260045260246000fd5b60200260200101818151610e3c9190612831565b91508181525050610e71836020018051809190610e58906129c7565b815250846000015185606001518660a0015186866118c8565b50610f67565b610eac8e60018460a001517fffffffffffffffffffffffffffffffffffffffffffffffffffffffffffffffff8c8c8a8a6100a5565b888360a0015181518110610ee9577f4e487b7100000000000000000000000000000000000000000000000000000000600052603260045260246000fd5b602002602001018181525050610f66826020018051809190610f0a906129c7565b815250836000015184606001518560a001518c8760a0015181518110610f59577f4e487b7100000000000000000000000000000000000000000000000000000000600052603260045260246000fd5b6020026020010151611977565b5b505b8060a0018051809190610f7b906129c7565b81525050610cda565b60008160a00181815250505b60048160a00151101561121b576000828260a0015181518110610fdc577f4e487b7100000000000000000000000000000000000000000000000000000000600052603260045260246000fd5b60200260200101511315611200576000610ffd8e8360a00151898b886114a4565b90506000811261112d5760006110a28f8460a0015184878760a0015181518110611050577f4e487b7100000000000000000000000000000000000000000000000000000000600052603260045260246000fd5b60200260200101518a8860a0015181518110611095577f4e487b7100000000000000000000000000000000000000000000000000000000600052603260045260246000fd5b6020026020010151611667565b9050808583815181106110de577f4e487b7100000000000000000000000000000000000000000000000000000000600052603260045260246000fd5b602002602001018181516110f29190612831565b9150818152505061112783604001805180919061110e906129c7565b815250846000015185608001518660a0015186866118c8565b506111fe565b6111438e60008460a0015160018c8c8a8a6100a5565b878360a0015181518110611180577f4e487b7100000000000000000000000000000000000000000000000000000000600052603260045260246000fd5b6020026020010181815250506111fd8260400180518091906111a1906129c7565b815250836000015184608001518560a001518b8760a00151815181106111f0577f4e487b7100000000000000000000000000000000000000000000000000000000600052603260045260246000fd5b6020026020010151611977565b5b505b8060a0018051809190611212906129c7565b81525050610f90565b80600001805180919061122d906129c7565b81525050610c9d565b606095506060965060609450606093506040518060e00160405280826060015181526020018260800151815260200184815260200183815260200161127a85611426565b1515815260200161128a84611426565b15158152602001826000015181525097505050505050505095945050505050565b6000600f6112b887611a26565b11156112c7576000905061141d565b6000805b6004811015611416578787828151811061130e577f4e487b7100000000000000000000000000000000000000000000000000000000600052603260045260246000fd5b602002602001015114801561136357506000858281518110611359577f4e487b7100000000000000000000000000000000000000000000000000000000600052603260045260246000fd5b6020026020010151135b806113f95750878682815181106113a3577f4e487b7100000000000000000000000000000000000000000000000000000000600052603260045260246000fd5b60200260200101511480156113f8575060008482815181106113ee577f4e487b7100000000000000000000000000000000000000000000000000000000600052603260045260246000fd5b6020026020010151135b5b1561140357600191505b808061140e906129c7565b9150506112cb565b5080159150505b95945050505050565b6000806001905060005b600481101561149a576000848281518110611474577f4e487b7100000000000000000000000000000000000000000000000000000000600052603260045260246000fd5b6020026020010151131561148757600091505b8080611492906129c7565b915050611430565b5080915050919050565b6000808486815181106114e0577f4e487b7100000000000000000000000000000000000000000000000000000000600052603260045260246000fd5b602002602001015190506000661fffffffffffff90506000805b600481101561161e57600087828151811061153e577f4e487b7100000000000000000000000000000000000000000000000000000000600052603260045260246000fd5b60200260200101519050600061155e82876115599190612831565b611a26565b9050600088848151811061159b577f4e487b7100000000000000000000000000000000000000000000000000000000600052603260045260246000fd5b60200260200101511380156115f457508b8b815181106115e4577f4e487b7100000000000000000000000000000000000000000000000000000000600052603260045260246000fd5b602002602001015160a001518111155b156116095784811015611608578094508293505b5b50508080611616906129c7565b9150506114fa565b5060009250661fffffffffffff82146116375780611659565b7fffffffffffffffffffffffffffffffffffffffffffffffffffffffffffffffff5b935050505095945050505050565b6000806116bb8787815181106116a6577f4e487b7100000000000000000000000000000000000000000000000000000000600052603260045260246000fd5b60200260200101516040015160200151611a6b565b8787815181106116f4577f4e487b7100000000000000000000000000000000000000000000000000000000600052603260045260246000fd5b6020026020010151604001516000015161170e9190612639565b9050600087868151811061174b577f4e487b7100000000000000000000000000000000000000000000000000000000600052603260045260246000fd5b60200260200101516060015190506000888781518110611794577f4e487b7100000000000000000000000000000000000000000000000000000000600052603260045260246000fd5b602002602001015160c0015160646117ac91906128c5565b9050600085878385876117bf91906128c5565b6117c991906127d7565b6117d391906127d7565b6117dd919061268f565b9050600060018b8b8151811061181c577f4e487b7100000000000000000000000000000000000000000000000000000000600052603260045260246000fd5b60200260200101516020015189611833919061268f565b61183d9190612639565b905060008b8a8151811061187a577f4e487b7100000000000000000000000000000000000000000000000000000000600052603260045260246000fd5b6020026020010151602001518261189191906127d7565b9050600095506000945060009350600091506118b76118b1600085611aad565b82611ac6565b965050505050505095945050505050565b6040518060c001604052806040518060400160405280600581526020017f73686f6f7400000000000000000000000000000000000000000000000000000081525081526020018681526020018481526020018381526020016000815260200182815250848781518110611964577f4e487b7100000000000000000000000000000000000000000000000000000000600052603260045260246000fd5b6020026020010181905250505050505050565b6040518060c001604052806040518060400160405280600481526020017f6d6f7665000000000000000000000000000000000000000000000000000000008152508152602001858152602001838152602001600081526020018281526020016000815250838681518110611a14577f4e487b7100000000000000000000000000000000000000000000000000000000600052603260045260246000fd5b60200260200101819052505050505050565b6000808212611a3757819050611a66565b817fffffffffffffffffffffffffffffffffffffffffffffffffffffffffffffffff611a6391906126c0565b90505b919050565b600081444233604051602001611a83939291906123b7565b6040516020818303038152906040528051906020012060001c611aa69190612a3e565b9050919050565b6000818313611abc5781611abe565b825b905092915050565b6000818312611ad55781611ad7565b825b905092915050565b6040518060e0016040528060608152602001606081526020016060815260200160608152602001600015158152602001600015158152602001600081525090565b6040518060c001604052806000815260200160008152602001600081526020016060815260200160608152602001600081525090565b6040518060c001604052806060815260200160008152602001600081526020016000815260200160008152602001600081525090565b6000611b9f611b9a84612482565b612451565b90508083825260208201905082856020860282011115611bbe57600080fd5b60005b85811015611bee5781611bd48882611d65565b845260208401935060208301925050600181019050611bc1565b5050509392505050565b6000611c0b611c06846124ae565b612451565b9050808382526020820190508285610100860282011115611c2b57600080fd5b60005b85811015611c5c5781611c418882611dc6565b84526020840193506101008301925050600181019050611c2e565b5050509392505050565b6000611c79611c74846124da565b612451565b90508083825260208201905082856020860282011115611c9857600080fd5b60005b85811015611cc85781611cae8882611e77565b845260208401935060208301925050600181019050611c9b565b5050509392505050565b600082601f830112611ce357600080fd5b8135611cf3848260208601611b8c565b91505092915050565b600082601f830112611d0d57600080fd5b8135611d1d848260208601611bf8565b91505092915050565b600082601f830112611d3757600080fd5b8135611d47848260208601611c66565b91505092915050565b600081359050611d5f81612b1a565b92915050565b600081359050611d7481612b31565b92915050565b600060408284031215611d8c57600080fd5b611d966040612451565b90506000611da684828501611e77565b6000830152506020611dba84828501611e77565b60208301525092915050565b60006101008284031215611dd957600080fd5b611de360e0612451565b90506000611df384828501611e77565b6000830152506020611e0784828501611e77565b6020830152506040611e1b84828501611d7a565b6040830152506080611e2f84828501611e77565b60608301525060a0611e4384828501611e77565b60808301525060c0611e5784828501611e77565b60a08301525060e0611e6b84828501611e77565b60c08301525092915050565b600081359050611e8681612b48565b92915050565b600080600080600060a08688031215611ea457600080fd5b600086013567ffffffffffffffff811115611ebe57600080fd5b611eca88828901611cfc565b955050602086013567ffffffffffffffff811115611ee757600080fd5b611ef388828901611d26565b945050604086013567ffffffffffffffff811115611f1057600080fd5b611f1c88828901611d26565b9350506060611f2d88828901611e77565b9250506080611f3e88828901611e77565b9150509295509295909350565b600080600080600080600080610100898b031215611f6857600080fd5b600089013567ffffffffffffffff811115611f8257600080fd5b611f8e8b828c01611cfc565b9850506020611f9f8b828c01611d50565b9750506040611fb08b828c01611e77565b9650506060611fc18b828c01611d65565b955050608089013567ffffffffffffffff811115611fde57600080fd5b611fea8b828c01611cd2565b94505060a089013567ffffffffffffffff81111561200757600080fd5b6120138b828c01611cd2565b93505060c089013567ffffffffffffffff81111561203057600080fd5b61203c8b828c01611cd2565b92505060e089013567ffffffffffffffff81111561205957600080fd5b6120658b828c01611cd2565b9150509295985092959890939650565b600061208183836121a9565b60208301905092915050565b60006120998383612308565b905092915050565b6120b26120ad826128f9565b612a10565b82525050565b60006120c382612526565b6120cd8185612561565b93506120d883612506565b8060005b838110156121095781516120f08882612075565b97506120fb83612547565b9250506001810190506120dc565b5085935050505092915050565b600061212182612531565b61212b8185612572565b93508360208202850161213d85612516565b8060005b85811015612179578484038952815161215a858261208d565b945061216583612554565b925060208a01995050600181019050612141565b50829750879550505050505092915050565b6121948161290b565b82525050565b6121a381612917565b82525050565b6121b281612917565b82525050565b60006121c38261253c565b6121cd8185612594565b93506121dd81856020860161294b565b6121e681612afc565b840191505092915050565b60006121fe602283612583565b91507f53656c656374696f6e206e6565647320746f2068617665203420656c656d656e60008301527f74730000000000000000000000000000000000000000000000000000000000006020830152604082019050919050565b600060e08301600083015184820360008601526122748282612116565b9150506020830151848203602086015261228e8282612116565b915050604083015184820360408601526122a882826120b8565b915050606083015184820360608601526122c282826120b8565b91505060808301516122d7608086018261218b565b5060a08301516122ea60a086018261218b565b5060c08301516122fd60c0860182612391565b508091505092915050565b600060c083016000830151848203600086015261232582826121b8565b915050602083015161233a6020860182612391565b50604083015161234d6040860182612391565b5060608301516123606060860182612391565b50608083015161237360808601826121a9565b5060a083015161238660a0860182612391565b508091505092915050565b61239a81612941565b82525050565b6123b16123ac82612941565b612a34565b82525050565b60006123c382866123a0565b6020820191506123d382856123a0565b6020820191506123e382846120a1565b601482019150819050949350505050565b6000602082019050612409600083018461219a565b92915050565b60006020820190508181036000830152612428816121f1565b9050919050565b600060208201905081810360008301526124498184612257565b905092915050565b6000604051905081810181811067ffffffffffffffff8211171561247857612477612acd565b5b8060405250919050565b600067ffffffffffffffff82111561249d5761249c612acd565b5b602082029050602081019050919050565b600067ffffffffffffffff8211156124c9576124c8612acd565b5b602082029050602081019050919050565b600067ffffffffffffffff8211156124f5576124f4612acd565b5b602082029050602081019050919050565b6000819050602082019050919050565b6000819050602082019050919050565b600081519050919050565b600081519050919050565b600081519050919050565b6000602082019050919050565b6000602082019050919050565b600082825260208201905092915050565b600082825260208201905092915050565b600082825260208201905092915050565b600082825260208201905092915050565b60006125b082612917565b91506125bb83612917565b9250817f7fffffffffffffffffffffffffffffffffffffffffffffffffffffffffffffff038313600083121516156125f6576125f5612a6f565b5b817f800000000000000000000000000000000000000000000000000000000000000003831260008312161561262e5761262d612a6f565b5b828201905092915050565b600061264482612941565b915061264f83612941565b9250827fffffffffffffffffffffffffffffffffffffffffffffffffffffffffffffffff0382111561268457612683612a6f565b5b828201905092915050565b600061269a82612941565b91506126a583612941565b9250826126b5576126b4612a9e565b5b828204905092915050565b60006126cb82612917565b91506126d683612917565b9250827f7fffffffffffffffffffffffffffffffffffffffffffffffffffffffffffffff048211600084136000841316161561271557612714612a6f565b5b817f8000000000000000000000000000000000000000000000000000000000000000058312600084126000841316161561275257612751612a6f565b5b827f8000000000000000000000000000000000000000000000000000000000000000058212600084136000841216161561278f5761278e612a6f565b5b827f7fffffffffffffffffffffffffffffffffffffffffffffffffffffffffffffff05821260008412600084121616156127cc576127cb612a6f565b5b828202905092915050565b60006127e282612941565b91506127ed83612941565b9250817fffffffffffffffffffffffffffffffffffffffffffffffffffffffffffffffff048311821515161561282657612825612a6f565b5b828202905092915050565b600061283c82612917565b915061284783612917565b9250827f80000000000000000000000000000000000000000000000000000000000000000182126000841215161561288257612881612a6f565b5b827f7fffffffffffffffffffffffffffffffffffffffffffffffffffffffffffffff0182136000841216156128ba576128b9612a6f565b5b828203905092915050565b60006128d082612941565b91506128db83612941565b9250828210156128ee576128ed612a6f565b5b828203905092915050565b600061290482612921565b9050919050565b60008115159050919050565b6000819050919050565b600073ffffffffffffffffffffffffffffffffffffffff82169050919050565b6000819050919050565b60005b8381101561296957808201518184015260208101905061294e565b83811115612978576000848401525b50505050565b600061298982612917565b91507f80000000000000000000000000000000000000000000000000000000000000008214156129bc576129bb612a6f565b5b600182039050919050565b60006129d282612941565b91507fffffffffffffffffffffffffffffffffffffffffffffffffffffffffffffffff821415612a0557612a04612a6f565b5b600182019050919050565b6000612a1b82612a22565b9050919050565b6000612a2d82612b0d565b9050919050565b6000819050919050565b6000612a4982612941565b9150612a5483612941565b925082612a6457612a63612a9e565b5b828206905092915050565b7f4e487b7100000000000000000000000000000000000000000000000000000000600052601160045260246000fd5b7f4e487b7100000000000000000000000000000000000000000000000000000000600052601260045260246000fd5b7f4e487b7100000000000000000000000000000000000000000000000000000000600052604160045260246000fd5b6000601f19601f8301169050919050565b60008160601b9050919050565b612b238161290b565b8114612b2e57600080fd5b50565b612b3a81612917565b8114612b4557600080fd5b50565b612b5181612941565b8114612b5c57600080fd5b5056fea26469706673582212204adb0c4a534cc0a5cdf759cfe80227b2c469e801e201877cc1766d5bf591cbe164736f6c63430008000033",
  "linkReferences": {},
  "deployedLinkReferences": {}
}