{
  "_format": "hh-sol-artifact-1",
  "contractName": "GameEngine",
  "sourceName": "contracts/GameEngine.sol",
  "abi": [
    {
      "inputs": [
        {
          "internalType": "uint16",
          "name": "index",
          "type": "uint16"
        },
        {
          "internalType": "uint16",
          "name": "cp",
          "type": "uint16"
        },
        {
          "internalType": "uint16",
          "name": "hp",
          "type": "uint16"
        },
        {
          "internalType": "uint16",
          "name": "attackBase",
          "type": "uint16"
        },
        {
          "internalType": "uint16",
          "name": "attackVariable",
          "type": "uint16"
        },
        {
          "internalType": "uint16",
          "name": "defence",
          "type": "uint16"
        },
        {
          "internalType": "uint16",
          "name": "speed",
          "type": "uint16"
        },
        {
          "internalType": "uint16",
          "name": "range",
          "type": "uint16"
        },
        {
          "internalType": "uint16",
          "name": "agility",
          "type": "uint16"
        }
      ],
      "name": "addShip",
      "outputs": [],
      "stateMutability": "nonpayable",
      "type": "function"
    },
    {
      "inputs": [
        {
          "internalType": "uint16[]",
          "name": "selectionLhs",
          "type": "uint16[]"
        },
        {
          "internalType": "uint16[]",
          "name": "selectionRhs",
          "type": "uint16[]"
        },
        {
          "internalType": "uint16",
          "name": "commanderLhs",
          "type": "uint16"
        },
        {
          "internalType": "uint16",
          "name": "commanderRhs",
          "type": "uint16"
        }
      ],
      "name": "fight",
      "outputs": [
        {
          "components": [
            {
              "internalType": "string",
              "name": "nameLhs",
              "type": "string"
            },
            {
              "internalType": "string",
              "name": "nameRhs",
              "type": "string"
            },
            {
              "internalType": "uint16[]",
              "name": "selectionLhs",
              "type": "uint16[]"
            },
            {
              "internalType": "uint16[]",
              "name": "selectionRhs",
              "type": "uint16[]"
            },
            {
              "internalType": "uint16",
              "name": "commanderLhs",
              "type": "uint16"
            },
            {
              "internalType": "uint16",
              "name": "commanderRhs",
              "type": "uint16"
            },
            {
              "components": [
                {
                  "internalType": "string",
                  "name": "moveType",
                  "type": "string"
                },
                {
                  "internalType": "uint16",
                  "name": "round",
                  "type": "uint16"
                },
                {
                  "internalType": "uint16",
                  "name": "source",
                  "type": "uint16"
                },
                {
                  "internalType": "uint16",
                  "name": "target",
                  "type": "uint16"
                },
                {
                  "internalType": "int16",
                  "name": "targetPosition",
                  "type": "int16"
                },
                {
                  "internalType": "uint64",
                  "name": "damage",
                  "type": "uint64"
                }
              ],
              "internalType": "struct Move[]",
              "name": "lhs",
              "type": "tuple[]"
            },
            {
              "components": [
                {
                  "internalType": "string",
                  "name": "moveType",
                  "type": "string"
                },
                {
                  "internalType": "uint16",
                  "name": "round",
                  "type": "uint16"
                },
                {
                  "internalType": "uint16",
                  "name": "source",
                  "type": "uint16"
                },
                {
                  "internalType": "uint16",
                  "name": "target",
                  "type": "uint16"
                },
                {
                  "internalType": "int16",
                  "name": "targetPosition",
                  "type": "int16"
                },
                {
                  "internalType": "uint64",
                  "name": "damage",
                  "type": "uint64"
                }
              ],
              "internalType": "struct Move[]",
              "name": "rhs",
              "type": "tuple[]"
            },
            {
              "internalType": "int64[]",
              "name": "lhsHp",
              "type": "int64[]"
            },
            {
              "internalType": "int64[]",
              "name": "rhsHp",
              "type": "int64[]"
            },
            {
              "internalType": "bool",
              "name": "lhsDead",
              "type": "bool"
            },
            {
              "internalType": "bool",
              "name": "rhsDead",
              "type": "bool"
            },
            {
              "internalType": "uint16",
              "name": "rounds",
              "type": "uint16"
            }
          ],
          "internalType": "struct FightResult",
          "name": "",
          "type": "tuple"
        }
      ],
      "stateMutability": "view",
      "type": "function"
    },
    {
      "inputs": [],
      "name": "getShips",
      "outputs": [
        {
          "components": [
            {
              "internalType": "uint16",
              "name": "cp",
              "type": "uint16"
            },
            {
              "internalType": "uint16",
              "name": "hp",
              "type": "uint16"
            },
            {
              "components": [
                {
                  "internalType": "uint16",
                  "name": "base",
                  "type": "uint16"
                },
                {
                  "internalType": "uint16",
                  "name": "variable",
                  "type": "uint16"
                }
              ],
              "internalType": "struct ShipVariableStat",
              "name": "attack",
              "type": "tuple"
            },
            {
              "internalType": "uint16",
              "name": "defence",
              "type": "uint16"
            },
            {
              "internalType": "uint16",
              "name": "speed",
              "type": "uint16"
            },
            {
              "internalType": "uint16",
              "name": "range",
              "type": "uint16"
            },
            {
              "internalType": "uint16",
              "name": "agility",
              "type": "uint16"
            }
          ],
          "internalType": "struct Ship[]",
          "name": "",
          "type": "tuple[]"
        }
      ],
      "stateMutability": "view",
      "type": "function"
    },
    {
      "inputs": [],
      "name": "owner",
      "outputs": [
        {
          "internalType": "address",
          "name": "",
          "type": "address"
        }
      ],
      "stateMutability": "view",
      "type": "function"
    }
  ],
  "bytecode": "0x6080604052336000806101000a81548173ffffffffffffffffffffffffffffffffffffffff021916908373ffffffffffffffffffffffffffffffffffffffff16021790555034801561005057600080fd5b50611d12806100606000396000f3fe608060405234801561001057600080fd5b506004361061004c5760003560e01c80636738f234146100515780638da5cb5b1461006f578063c0749d7a1461008d578063c0d0504a146100bd575b600080fd5b6100596100d9565b60405161006691906117a1565b60405180910390f35b6100776102da565b6040516100849190611786565b60405180910390f35b6100a760048036038101906100a29190610e10565b6102fe565b6040516100b4919061186b565b60405180910390f35b6100d760048036038101906100d29190610ee4565b61042d565b005b606060008054906101000a900473ffffffffffffffffffffffffffffffffffffffff1673ffffffffffffffffffffffffffffffffffffffff163373ffffffffffffffffffffffffffffffffffffffff1614610169576040517f08c379a00000000000000000000000000000000000000000000000000000000081526004016101609061184b565b60405180910390fd5b6002805480602002602001604051908101604052809291908181526020016000905b828210156102d157838290600052602060002090600302016040518060e00160405290816000820160009054906101000a900461ffff1661ffff1661ffff1681526020016000820160029054906101000a900461ffff1661ffff1661ffff168152602001600182016040518060400160405290816000820160009054906101000a900461ffff1661ffff1661ffff1681526020016000820160029054906101000a900461ffff1661ffff1661ffff168152505081526020016002820160009054906101000a900461ffff1661ffff1661ffff1681526020016002820160029054906101000a900461ffff1661ffff1661ffff1681526020016002820160049054906101000a900461ffff1661ffff1661ffff1681526020016002820160069054906101000a900461ffff1661ffff1661ffff16815250508152602001906001019061018b565b50505050905090565b60008054906101000a900473ffffffffffffffffffffffffffffffffffffffff1681565b6103066107c1565b600485511461034a576040517f08c379a00000000000000000000000000000000000000000000000000000000081526004016103419061182b565b60405180910390fd5b600484511461038e576040517f08c379a00000000000000000000000000000000000000000000000000000000081526004016103859061182b565b60405180910390fd5b73__$d79efa95efdba3999ec736a1a402c0d04a$__6341ce4f686002878787876040518663ffffffff1660e01b81526004016103ce9594939291906117c3565b60006040518083038186803b1580156103e657600080fd5b505af41580156103fa573d6000803e3d6000fd5b505050506040513d6000823e3d601f19601f820116820180604052508101906104239190610ea3565b9050949350505050565b60008054906101000a900473ffffffffffffffffffffffffffffffffffffffff1673ffffffffffffffffffffffffffffffffffffffff163373ffffffffffffffffffffffffffffffffffffffff16146104bb576040517f08c379a00000000000000000000000000000000000000000000000000000000081526004016104b29061184b565b60405180910390fd5b60006040518060e001604052808a61ffff1681526020018961ffff16815260200160405180604001604052808a61ffff1681526020018961ffff1681525081526020018661ffff1681526020018561ffff1681526020018461ffff1681526020018361ffff16815250905080600160008c61ffff16815260200190815260200160002060008201518160000160006101000a81548161ffff021916908361ffff16021790555060208201518160000160026101000a81548161ffff021916908361ffff16021790555060408201518160010160008201518160000160006101000a81548161ffff021916908361ffff16021790555060208201518160000160026101000a81548161ffff021916908361ffff160217905550505060608201518160020160006101000a81548161ffff021916908361ffff16021790555060808201518160020160026101000a81548161ffff021916908361ffff16021790555060a08201518160020160046101000a81548161ffff021916908361ffff16021790555060c08201518160020160066101000a81548161ffff021916908361ffff160217905550905050600281908060018154018082558091505060019003906000526020600020906003020160009091909190915060008201518160000160006101000a81548161ffff021916908361ffff16021790555060208201518160000160026101000a81548161ffff021916908361ffff16021790555060408201518160010160008201518160000160006101000a81548161ffff021916908361ffff16021790555060208201518160000160026101000a81548161ffff021916908361ffff160217905550505060608201518160020160006101000a81548161ffff021916908361ffff16021790555060808201518160020160026101000a81548161ffff021916908361ffff16021790555060a08201518160020160046101000a81548161ffff021916908361ffff16021790555060c08201518160020160066101000a81548161ffff021916908361ffff160217905550505050505050505050505050565b604051806101a0016040528060608152602001606081526020016060815260200160608152602001600061ffff168152602001600061ffff16815260200160608152602001606081526020016060815260200160608152602001600015158152602001600015158152602001600061ffff1681525090565b600061084c610847846118be565b61188d565b9050808382526020820190508285602086028201111561086b57600080fd5b60005b8581101561089b57816108818882610aea565b84526020840193506020830192505060018101905061086e565b5050509392505050565b60006108b86108b3846118ea565b61188d565b9050808382526020820190508260005b858110156108f857815185016108de8882610d1d565b8452602084019350602083019250506001810190506108c8565b5050509392505050565b600061091561091084611916565b61188d565b9050808382526020820190508285602086028201111561093457600080fd5b60005b85811015610964578161094a8882610dd1565b845260208401935060208301925050600181019050610937565b5050509392505050565b600061098161097c84611916565b61188d565b905080838252602082019050828560208602820111156109a057600080fd5b60005b858110156109d057816109b68882610de6565b8452602084019350602083019250506001810190506109a3565b5050509392505050565b60006109ed6109e884611942565b61188d565b905082815260208101848484011115610a0557600080fd5b610a10848285611b5a565b509392505050565b600082601f830112610a2957600080fd5b8151610a39848260208601610839565b91505092915050565b600082601f830112610a5357600080fd5b8151610a638482602086016108a5565b91505092915050565b600082601f830112610a7d57600080fd5b8135610a8d848260208601610902565b91505092915050565b600082601f830112610aa757600080fd5b8151610ab784826020860161096e565b91505092915050565b600081519050610acf81611c69565b92915050565b600081519050610ae481611c80565b92915050565b600081519050610af981611c97565b92915050565b600082601f830112610b1057600080fd5b8151610b208482602086016109da565b91505092915050565b60006101a08284031215610b3c57600080fd5b610b476101a061188d565b9050600082015167ffffffffffffffff811115610b6357600080fd5b610b6f84828501610aff565b600083015250602082015167ffffffffffffffff811115610b8f57600080fd5b610b9b84828501610aff565b602083015250604082015167ffffffffffffffff811115610bbb57600080fd5b610bc784828501610a96565b604083015250606082015167ffffffffffffffff811115610be757600080fd5b610bf384828501610a96565b6060830152506080610c0784828501610de6565b60808301525060a0610c1b84828501610de6565b60a08301525060c082015167ffffffffffffffff811115610c3b57600080fd5b610c4784828501610a42565b60c08301525060e082015167ffffffffffffffff811115610c6757600080fd5b610c7384828501610a42565b60e08301525061010082015167ffffffffffffffff811115610c9457600080fd5b610ca084828501610a18565b6101008301525061012082015167ffffffffffffffff811115610cc257600080fd5b610cce84828501610a18565b61012083015250610140610ce484828501610ac0565b61014083015250610160610cfa84828501610ac0565b61016083015250610180610d1084828501610de6565b6101808301525092915050565b600060c08284031215610d2f57600080fd5b610d3960c061188d565b9050600082015167ffffffffffffffff811115610d5557600080fd5b610d6184828501610aff565b6000830152506020610d7584828501610de6565b6020830152506040610d8984828501610de6565b6040830152506060610d9d84828501610de6565b6060830152506080610db184828501610ad5565b60808301525060a0610dc584828501610dfb565b60a08301525092915050565b600081359050610de081611cae565b92915050565b600081519050610df581611cae565b92915050565b600081519050610e0a81611cc5565b92915050565b60008060008060808587031215610e2657600080fd5b600085013567ffffffffffffffff811115610e4057600080fd5b610e4c87828801610a6c565b945050602085013567ffffffffffffffff811115610e6957600080fd5b610e7587828801610a6c565b9350506040610e8687828801610dd1565b9250506060610e9787828801610dd1565b91505092959194509250565b600060208284031215610eb557600080fd5b600082015167ffffffffffffffff811115610ecf57600080fd5b610edb84828501610b29565b91505092915050565b60008060008060008060008060006101208a8c031215610f0357600080fd5b6000610f118c828d01610dd1565b9950506020610f228c828d01610dd1565b9850506040610f338c828d01610dd1565b9750506060610f448c828d01610dd1565b9650506080610f558c828d01610dd1565b95505060a0610f668c828d01610dd1565b94505060c0610f778c828d01610dd1565b93505060e0610f888c828d01610dd1565b925050610100610f9a8c828d01610dd1565b9150509295985092959850929598565b6000610fb683836112af565b60208301905092915050565b6000610fce838361150d565b905092915050565b6000610fe28383611605565b6101008301905092915050565b6000610ffb8383611694565b6101008301905092915050565b6000611014838361174a565b60208301905092915050565b600061102c8383611768565b60208301905092915050565b61104181611ae0565b82525050565b6000611052826119c7565b61105c8185611a4a565b935061106783611972565b8060005b8381101561109857815161107f8882610faa565b975061108a83611a09565b92505060018101905061106b565b5085935050505092915050565b60006110b0826119d2565b6110ba8185611a5b565b9350836020820285016110cc85611982565b8060005b8581101561110857848403895281516110e98582610fc2565b94506110f483611a16565b925060208a019950506001810190506110d0565b50829750879550505050505092915050565b6000611125826119dd565b61112f8185611a6c565b935061113a83611992565b8060005b8381101561116b5781516111528882610fd6565b975061115d83611a23565b92505060018101905061113e565b5085935050505092915050565b6000611183826119e8565b61118d8185611a7d565b9350611198836119a2565b8060005b838110156111c857816111af8882610fef565b97506111ba83611a30565b92505060018101905061119c565b5085935050505092915050565b60006111e0826119f3565b6111ea8185611a8e565b93506111f5836119b7565b8060005b8381101561122657815161120d8882611008565b975061121883611a3d565b9250506001810190506111f9565b5085935050505092915050565b600061123e826119f3565b6112488185611a9f565b9350611253836119b7565b8060005b8381101561128457815161126b8882611020565b975061127683611a3d565b925050600181019050611257565b5085935050505092915050565b61129a81611af2565b82525050565b6112a981611afe565b82525050565b6112b881611b0b565b82525050565b60006112c9826119fe565b6112d38185611ab0565b93506112e3818560208601611b5a565b6112ec81611c24565b840191505092915050565b6000611304602283611ac1565b91507f53656c656374696f6e206e6565647320746f2068617665203420656c656d656e60008301527f74730000000000000000000000000000000000000000000000000000000000006020830152604082019050919050565b600061136a603383611ac1565b91507f546869732066756e6374696f6e206973207265737472696374656420746f207460008301527f686520636f6e74726163742773206f776e6572000000000000000000000000006020830152604082019050919050565b60006101a08301600083015184820360008601526113e182826112be565b915050602083015184820360208601526113fb82826112be565b9150506040830151848203604086015261141582826111d5565b9150506060830151848203606086015261142f82826111d5565b9150506080830151611444608086018261174a565b5060a083015161145760a086018261174a565b5060c083015184820360c086015261146f82826110a5565b91505060e083015184820360e086015261148982826110a5565b9150506101008301518482036101008601526114a58282611047565b9150506101208301518482036101208601526114c18282611047565b9150506101408301516114d8610140860182611291565b506101608301516114ed610160860182611291565b5061018083015161150261018086018261174a565b508091505092915050565b600060c083016000830151848203600086015261152a82826112be565b915050602083015161153f602086018261174a565b506040830151611552604086018261174a565b506060830151611565606086018261174a565b50608083015161157860808601826112a0565b5060a083015161158b60a0860182611777565b508091505092915050565b6040820160008201516115ac600085018261174a565b5060208201516115bf602085018261174a565b50505050565b6040820160008083015490506115da81611b8d565b6115e76000860182611768565b506115f181611ba7565b6115fe6020860182611768565b5050505050565b6101008201600082015161161c600085018261174a565b50602082015161162f602085018261174a565b5060408201516116426040850182611596565b506060820151611655608085018261174a565b50608082015161166860a085018261174a565b5060a082015161167b60c085018261174a565b5060c082015161168e60e085018261174a565b50505050565b610100820160008083015490506116aa81611b8d565b6116b76000860182611768565b506116c181611ba7565b6116ce6020860182611768565b50600183016116e060408601826115c5565b50600283015490506116f181611b8d565b6116fe6080860182611768565b5061170881611ba7565b61171560a0860182611768565b5061171f81611bc1565b61172c60c0860182611768565b5061173681611bdb565b61174360e0860182611768565b5050505050565b61175381611b18565b82525050565b61176281611b18565b82525050565b61177181611b18565b82525050565b61178081611b46565b82525050565b600060208201905061179b6000830184611038565b92915050565b600060208201905081810360008301526117bb818461111a565b905092915050565b600060a08201905081810360008301526117dd8188611178565b905081810360208301526117f18187611233565b905081810360408301526118058186611233565b90506118146060830185611759565b6118216080830184611759565b9695505050505050565b60006020820190508181036000830152611844816112f7565b9050919050565b600060208201905081810360008301526118648161135d565b9050919050565b6000602082019050818103600083015261188581846113c3565b905092915050565b6000604051905081810181811067ffffffffffffffff821117156118b4576118b3611bf5565b5b8060405250919050565b600067ffffffffffffffff8211156118d9576118d8611bf5565b5b602082029050602081019050919050565b600067ffffffffffffffff82111561190557611904611bf5565b5b602082029050602081019050919050565b600067ffffffffffffffff82111561193157611930611bf5565b5b602082029050602081019050919050565b600067ffffffffffffffff82111561195d5761195c611bf5565b5b601f19601f8301169050602081019050919050565b6000819050602082019050919050565b6000819050602082019050919050565b6000819050602082019050919050565b60008190508160005260206000209050919050565b6000819050602082019050919050565b600081519050919050565b600081519050919050565b600081519050919050565b600081549050919050565b600081519050919050565b600081519050919050565b6000602082019050919050565b6000602082019050919050565b6000602082019050919050565b6000600382019050919050565b6000602082019050919050565b600082825260208201905092915050565b600082825260208201905092915050565b600082825260208201905092915050565b600082825260208201905092915050565b600082825260208201905092915050565b600082825260208201905092915050565b600082825260208201905092915050565b600082825260208201905092915050565b600061ffff82169050919050565b6000611aeb82611b26565b9050919050565b60008115159050919050565b60008160010b9050919050565b60008160070b9050919050565b600061ffff82169050919050565b600073ffffffffffffffffffffffffffffffffffffffff82169050919050565b600067ffffffffffffffff82169050919050565b60005b83811015611b78578082015181840152602081019050611b5d565b83811115611b87576000848401525b50505050565b6000611ba0611b9b83611c35565b611ad2565b9050919050565b6000611bba611bb583611c42565b611ad2565b9050919050565b6000611bd4611bcf83611c4f565b611ad2565b9050919050565b6000611bee611be983611c5c565b611ad2565b9050919050565b7f4e487b7100000000000000000000000000000000000000000000000000000000600052604160045260246000fd5b6000601f19601f8301169050919050565b60008160001c9050919050565b60008160101c9050919050565b60008160201c9050919050565b60008160301c9050919050565b611c7281611af2565b8114611c7d57600080fd5b50565b611c8981611afe565b8114611c9457600080fd5b50565b611ca081611b0b565b8114611cab57600080fd5b50565b611cb781611b18565b8114611cc257600080fd5b50565b611cce81611b46565b8114611cd957600080fd5b5056fea2646970667358221220e4a11ff6d08fc6c162ef793cf9983cc186041f8ff5dc3b0baebff49d2eef837e64736f6c63430008000033",
  "linkReferences": {
    "contracts/GameEngine.sol": {
      "GameEngineLibrary": [
        {
          "length": 20,
          "start": 1008
        }
      ]
    }
  },
  "deployedLinkReferences": {
    "contracts/GameEngine.sol": {
      "GameEngineLibrary": [
        {
          "length": 20,
          "start": 912
        }
      ]
    }
  }
}