{
  "_format": "hh-sol-artifact-1",
  "contractName": "GameEngineLibrary",
  "sourceName": "contracts/GameEngine.sol",
  "abi": [
    {
      "inputs": [
        {
          "components": [
            {
              "internalType": "uint16",
              "name": "cp",
              "type": "uint16"
            },
            {
              "internalType": "uint16",
              "name": "hp",
              "type": "uint16"
            },
            {
              "components": [
                {
                  "internalType": "uint16",
                  "name": "base",
                  "type": "uint16"
                },
                {
                  "internalType": "uint16",
                  "name": "variable",
                  "type": "uint16"
                }
              ],
              "internalType": "struct ShipVariableStat",
              "name": "attack",
              "type": "tuple"
            },
            {
              "internalType": "uint16",
              "name": "defence",
              "type": "uint16"
            },
            {
              "internalType": "uint16",
              "name": "speed",
              "type": "uint16"
            },
            {
              "internalType": "uint16",
              "name": "range",
              "type": "uint16"
            },
            {
              "internalType": "uint16",
              "name": "agility",
              "type": "uint16"
            }
          ],
          "internalType": "struct Ship[]",
          "name": "Ships",
          "type": "tuple[]"
        },
        {
          "internalType": "uint16[]",
          "name": "selectionLhs",
          "type": "uint16[]"
        },
        {
          "internalType": "uint16[]",
          "name": "selectionRhs",
          "type": "uint16[]"
        },
        {
          "internalType": "uint16",
          "name": "commanderLhs",
          "type": "uint16"
        },
        {
          "internalType": "uint16",
          "name": "commanderRhs",
          "type": "uint16"
        }
      ],
      "name": "fight",
      "outputs": [
        {
          "components": [
            {
              "internalType": "string",
              "name": "nameLhs",
              "type": "string"
            },
            {
              "internalType": "string",
              "name": "nameRhs",
              "type": "string"
            },
            {
              "internalType": "uint16[]",
              "name": "selectionLhs",
              "type": "uint16[]"
            },
            {
              "internalType": "uint16[]",
              "name": "selectionRhs",
              "type": "uint16[]"
            },
            {
              "internalType": "uint16",
              "name": "commanderLhs",
              "type": "uint16"
            },
            {
              "internalType": "uint16",
              "name": "commanderRhs",
              "type": "uint16"
            },
            {
              "components": [
                {
                  "internalType": "string",
                  "name": "moveType",
                  "type": "string"
                },
                {
                  "internalType": "uint16",
                  "name": "round",
                  "type": "uint16"
                },
                {
                  "internalType": "uint16",
                  "name": "source",
                  "type": "uint16"
                },
                {
                  "internalType": "uint16",
                  "name": "target",
                  "type": "uint16"
                },
                {
                  "internalType": "int16",
                  "name": "targetPosition",
                  "type": "int16"
                },
                {
                  "internalType": "uint64",
                  "name": "damage",
                  "type": "uint64"
                }
              ],
              "internalType": "struct Move[]",
              "name": "lhs",
              "type": "tuple[]"
            },
            {
              "components": [
                {
                  "internalType": "string",
                  "name": "moveType",
                  "type": "string"
                },
                {
                  "internalType": "uint16",
                  "name": "round",
                  "type": "uint16"
                },
                {
                  "internalType": "uint16",
                  "name": "source",
                  "type": "uint16"
                },
                {
                  "internalType": "uint16",
                  "name": "target",
                  "type": "uint16"
                },
                {
                  "internalType": "int16",
                  "name": "targetPosition",
                  "type": "int16"
                },
                {
                  "internalType": "uint64",
                  "name": "damage",
                  "type": "uint64"
                }
              ],
              "internalType": "struct Move[]",
              "name": "rhs",
              "type": "tuple[]"
            },
            {
              "internalType": "int64[]",
              "name": "lhsHp",
              "type": "int64[]"
            },
            {
              "internalType": "int64[]",
              "name": "rhsHp",
              "type": "int64[]"
            },
            {
              "internalType": "bool",
              "name": "lhsDead",
              "type": "bool"
            },
            {
              "internalType": "bool",
              "name": "rhsDead",
              "type": "bool"
            },
            {
              "internalType": "uint16",
              "name": "rounds",
              "type": "uint16"
            }
          ],
          "internalType": "struct FightResult",
          "name": "",
          "type": "tuple"
        }
      ],
      "stateMutability": "view",
      "type": "function"
    },
    {
      "inputs": [
        {
          "components": [
            {
              "internalType": "uint16",
              "name": "cp",
              "type": "uint16"
            },
            {
              "internalType": "uint16",
              "name": "hp",
              "type": "uint16"
            },
            {
              "components": [
                {
                  "internalType": "uint16",
                  "name": "base",
                  "type": "uint16"
                },
                {
                  "internalType": "uint16",
                  "name": "variable",
                  "type": "uint16"
                }
              ],
              "internalType": "struct ShipVariableStat",
              "name": "attack",
              "type": "tuple"
            },
            {
              "internalType": "uint16",
              "name": "defence",
              "type": "uint16"
            },
            {
              "internalType": "uint16",
              "name": "speed",
              "type": "uint16"
            },
            {
              "internalType": "uint16",
              "name": "range",
              "type": "uint16"
            },
            {
              "internalType": "uint16",
              "name": "agility",
              "type": "uint16"
            }
          ],
          "internalType": "struct Ship[]",
          "name": "Ships",
          "type": "tuple[]"
        },
        {
          "internalType": "bool",
          "name": "isLhs",
          "type": "bool"
        },
        {
          "internalType": "uint16",
          "name": "source",
          "type": "uint16"
        },
        {
          "internalType": "int16",
          "name": "direction",
          "type": "int16"
        },
        {
          "internalType": "int16[]",
          "name": "shipPositionsLhs",
          "type": "int16[]"
        },
        {
          "internalType": "int16[]",
          "name": "shipPositionsRhs",
          "type": "int16[]"
        },
        {
          "internalType": "int64[]",
          "name": "shipHpsLhs",
          "type": "int64[]"
        },
        {
          "internalType": "int64[]",
          "name": "shipHpsRhs",
          "type": "int64[]"
        }
      ],
      "name": "moveShips",
      "outputs": [
        {
          "internalType": "int16",
          "name": "",
          "type": "int16"
        }
      ],
      "stateMutability": "pure",
      "type": "function"
    }
  ],
  "bytecode": "0x613043610053600b82828239805160001a607314610046577f4e487b7100000000000000000000000000000000000000000000000000000000600052600060045260246000fd5b30600052607381538281f3fe73000000000000000000000000000000000000000030146080604052600436106100405760003560e01c806341ce4f68146100455780635306500214610075575b600080fd5b61005f600480360381019061005a9190611f7a565b6100a5565b60405161006c919061264a565b60405180910390f35b61008f600480360381019061008a9190612039565b610fb8565b60405161009c919061260f565b60405180910390f35b6100ad611ac2565b60048551146100f1576040517f08c379a00000000000000000000000000000000000000000000000000000000081526004016100e89061262a565b60405180910390fd5b6004845114610135576040517f08c379a000000000000000000000000000000000000000000000000000000000815260040161012c9061262a565b60405180910390fd5b6000600467ffffffffffffffff811115610178577f4e487b7100000000000000000000000000000000000000000000000000000000600052604160045260246000fd5b6040519080825280602002602001820160405280156101a65781602001602082028036833780820191505090505b509050600a816000815181106101e5577f4e487b7100000000000000000000000000000000000000000000000000000000600052603260045260246000fd5b602002602001019060010b908160010b81525050600b81600181518110610235577f4e487b7100000000000000000000000000000000000000000000000000000000600052603260045260246000fd5b602002602001019060010b908160010b81525050600c81600281518110610285577f4e487b7100000000000000000000000000000000000000000000000000000000600052603260045260246000fd5b602002602001019060010b908160010b81525050600d816003815181106102d5577f4e487b7100000000000000000000000000000000000000000000000000000000600052603260045260246000fd5b602002602001019060010b908160010b815250506000600467ffffffffffffffff81111561032c577f4e487b7100000000000000000000000000000000000000000000000000000000600052604160045260246000fd5b60405190808252806020026020018201604052801561035a5781602001602082028036833780820191505090505b5090507ffffffffffffffffffffffffffffffffffffffffffffffffffffffffffffffff6816000815181106103b8577f4e487b7100000000000000000000000000000000000000000000000000000000600052603260045260246000fd5b602002602001019060010b908160010b815250507ffffffffffffffffffffffffffffffffffffffffffffffffffffffffffffffff581600181518110610427577f4e487b7100000000000000000000000000000000000000000000000000000000600052603260045260246000fd5b602002602001019060010b908160010b815250507ffffffffffffffffffffffffffffffffffffffffffffffffffffffffffffffff481600281518110610496577f4e487b7100000000000000000000000000000000000000000000000000000000600052603260045260246000fd5b602002602001019060010b908160010b815250507ffffffffffffffffffffffffffffffffffffffffffffffffffffffffffffffff381600381518110610505577f4e487b7100000000000000000000000000000000000000000000000000000000600052603260045260246000fd5b602002602001019060010b908160010b815250506000600467ffffffffffffffff81111561055c577f4e487b7100000000000000000000000000000000000000000000000000000000600052604160045260246000fd5b60405190808252806020026020018201604052801561058a5781602001602082028036833780820191505090505b5090506000600467ffffffffffffffff8111156105d0577f4e487b7100000000000000000000000000000000000000000000000000000000600052604160045260246000fd5b6040519080825280602002602001820160405280156105fe5781602001602082028036833780820191505090505b50905060005b60048161ffff16101561080657898161ffff168151811061064e577f4e487b7100000000000000000000000000000000000000000000000000000000600052603260045260246000fd5b602002602001015161ffff168b8261ffff1681518110610697577f4e487b7100000000000000000000000000000000000000000000000000000000600052603260045260246000fd5b60200260200101516020015161ffff166106b19190612a4e565b838261ffff16815181106106ee577f4e487b7100000000000000000000000000000000000000000000000000000000600052603260045260246000fd5b602002602001019060070b908160070b81525050888161ffff168151811061073f577f4e487b7100000000000000000000000000000000000000000000000000000000600052603260045260246000fd5b602002602001015161ffff168b8261ffff1681518110610788577f4e487b7100000000000000000000000000000000000000000000000000000000600052603260045260246000fd5b60200260200101516020015161ffff166107a29190612a4e565b828261ffff16815181106107df577f4e487b7100000000000000000000000000000000000000000000000000000000600052603260045260246000fd5b602002602001019060070b908160070b8152505080806107fe90612e33565b915050610604565b5061080f611b3a565b6004603261081d9190612b71565b67ffffffffffffffff81111561085c577f4e487b7100000000000000000000000000000000000000000000000000000000600052604160045260246000fd5b60405190808252806020026020018201604052801561089557816020015b610882611b80565b81526020019060019003908161087a5790505b508160600181905250600460326108ac9190612b71565b67ffffffffffffffff8111156108eb577f4e487b7100000000000000000000000000000000000000000000000000000000600052604160045260246000fd5b60405190808252806020026020018201604052801561092457816020015b610911611b80565b8152602001906001900390816109095790505b5081608001819052506000816000019061ffff16908161ffff16815250505b6032816000015161ffff16108015610961575061095f836111bb565b155b80156109735750610971826111bb565b155b15610efe5760008160a0019061ffff16908161ffff16815250505b60048160a0015161ffff161015610c39576000838260a0015161ffff16815181106109e2577f4e487b7100000000000000000000000000000000000000000000000000000000600052603260045260246000fd5b602002602001015160070b1315610c16576000610a068c8360a0015188888761123c565b905060008160010b12610b0c576000610a6d8d8460a0015184888760a0015161ffff1681518110610a60577f4e487b7100000000000000000000000000000000000000000000000000000000600052603260045260246000fd5b6020026020010151611426565b905080848361ffff1681518110610aad577f4e487b7100000000000000000000000000000000000000000000000000000000600052603260045260246000fd5b60200260200101818151610ac19190612c83565b91509060070b908160070b81525050610b06836020018051809190610ae590612e33565b61ffff1661ffff16815250846000015185606001518660a0015186866116b9565b50610c14565b610b418c60018460a001517fffffffffffffffffffffffffffffffffffffffffffffffffffffffffffffffff8a8a8a8a610fb8565b868360a0015161ffff1681518110610b82577f4e487b7100000000000000000000000000000000000000000000000000000000600052603260045260246000fd5b602002602001019060010b908160010b81525050610c13826020018051809190610bab90612e33565b61ffff1661ffff16815250836000015184606001518560a001518a8760a0015161ffff1681518110610c06577f4e487b7100000000000000000000000000000000000000000000000000000000600052603260045260246000fd5b6020026020010151611785565b5b505b8060a0018051809190610c2890612e33565b61ffff1661ffff168152505061098e565b60008160a0019061ffff16908161ffff16815250505b60048160a0015161ffff161015610edb576000828260a0015161ffff1681518110610ca3577f4e487b7100000000000000000000000000000000000000000000000000000000600052603260045260246000fd5b602002602001015160070b1315610eb8576000610cc78c8360a0015187898861123c565b905060008160010b12610dcd576000610d2e8d8460a0015184878760a0015161ffff1681518110610d21577f4e487b7100000000000000000000000000000000000000000000000000000000600052603260045260246000fd5b6020026020010151611426565b905080858361ffff1681518110610d6e577f4e487b7100000000000000000000000000000000000000000000000000000000600052603260045260246000fd5b60200260200101818151610d829190612c83565b91509060070b908160070b81525050610dc7836040018051809190610da690612e33565b61ffff1661ffff16815250846000015185608001518660a0015186866116b9565b50610eb6565b610de38c60008460a0015160018a8a8a8a610fb8565b858360a0015161ffff1681518110610e24577f4e487b7100000000000000000000000000000000000000000000000000000000600052603260045260246000fd5b602002602001019060010b908160010b81525050610eb5826040018051809190610e4d90612e33565b61ffff1661ffff16815250836000015184608001518560a00151898760a0015161ffff1681518110610ea8577f4e487b7100000000000000000000000000000000000000000000000000000000600052603260045260246000fd5b6020026020010151611785565b5b505b8060a0018051809190610eca90612e33565b61ffff1661ffff1681525050610c4f565b806000018051809190610eed90612e33565b61ffff1661ffff1681525050610943565b6060935060609450604051806101a001604052806040518060200160405280600081525081526020016040518060200160405280600081525081526020018b81526020018a81526020018961ffff1681526020018861ffff1681526020018260600151815260200182608001518152602001848152602001838152602001610f85856111bb565b15158152602001610f95846111bb565b15158152602001826000015161ffff168152509550505050505095945050505050565b600080898861ffff1681518110610ff8577f4e487b7100000000000000000000000000000000000000000000000000000000600052603260045260246000fd5b602002602001015160800151905060008961105757858961ffff168151811061104a577f4e487b7100000000000000000000000000000000000000000000000000000000600052603260045260246000fd5b602002602001015161109d565b868961ffff1681518110611094577f4e487b7100000000000000000000000000000000000000000000000000000000600052603260045260246000fd5b60200260200101515b905060008290505b60008160010b13156111a55760008b61111857818a6110c49190612973565b888c61ffff1681518110611101577f4e487b7100000000000000000000000000000000000000000000000000000000600052603260045260246000fd5b60200260200101516111139190612825565b611174565b818a6111249190612973565b898c61ffff1681518110611161577f4e487b7100000000000000000000000000000000000000000000000000000000600052603260045260246000fd5b60200260200101516111739190612825565b5b9050611183818a8a8a8a611851565b1561119157809250506111a5565b50808061119d90612dea565b9150506110a5565b5060009150809250505098975050505050505050565b6000806001905060005b6004811015611232576000848281518110611209577f4e487b7100000000000000000000000000000000000000000000000000000000600052603260045260246000fd5b602002602001015160070b131561121f57600091505b808061122a90612e5e565b9150506111c5565b5080915050919050565b600080848661ffff168151811061127c577f4e487b7100000000000000000000000000000000000000000000000000000000600052603260045260246000fd5b602002602001015190506000661fffffffffffff90506000805b60048161ffff1610156113dd576000878261ffff16815181106112e2577f4e487b7100000000000000000000000000000000000000000000000000000000600052603260045260246000fd5b60200260200101519050600061130282876112fd9190612c0d565b6119f6565b90506000888461ffff1681518110611343577f4e487b7100000000000000000000000000000000000000000000000000000000600052603260045260246000fd5b602002602001015160070b1380156113ab57508b8b61ffff1681518110611393577f4e487b7100000000000000000000000000000000000000000000000000000000600052603260045260246000fd5b602002602001015160a0015161ffff168161ffff1611155b156113c857848161ffff1610156113c7578061ffff1694508293505b5b505080806113d590612e33565b915050611296565b5060009250661fffffffffffff82146113f65780611418565b7fffffffffffffffffffffffffffffffffffffffffffffffffffffffffffffffff5b935050505095945050505050565b60008061147e868661ffff1681518110611469577f4e487b7100000000000000000000000000000000000000000000000000000000600052603260045260246000fd5b60200260200101516040015160200151611a3e565b868661ffff16815181106114bb577f4e487b7100000000000000000000000000000000000000000000000000000000600052603260045260246000fd5b602002602001015160400151600001516114d5919061289b565b90506000868561ffff1681518110611516577f4e487b7100000000000000000000000000000000000000000000000000000000600052603260045260246000fd5b60200260200101516060015190506000878661ffff1681518110611563577f4e487b7100000000000000000000000000000000000000000000000000000000600052603260045260246000fd5b602002602001015160c00151606461157b9190612cff565b90506000600a82848661158e9190612cff565b6115989190612b35565b6115a29190612911565b61ffff169050600060018a8a61ffff16815181106115e9577f4e487b7100000000000000000000000000000000000000000000000000000000600052603260045260246000fd5b60200260200101516020015161ffff16886116049190612942565b61160e91906128d3565b905060008a8961ffff168151811061164f577f4e487b7100000000000000000000000000000000000000000000000000000000600052603260045260246000fd5b60200260200101516020015161ffff168261ffff1661166e9190612bcb565b905060008261ffff16846116829190612bcb565b9050600096506000955060009450600092506116a86116a2600083611a84565b83611aa3565b975050505050505050949350505050565b6040518060c001604052806040518060400160405280600581526020017f73686f6f7400000000000000000000000000000000000000000000000000000081525081526020018661ffff1681526020018461ffff1681526020018361ffff168152602001600060010b81526020018267ffffffffffffffff16815250848761ffff1681518110611772577f4e487b7100000000000000000000000000000000000000000000000000000000600052603260045260246000fd5b6020026020010181905250505050505050565b6040518060c001604052806040518060400160405280600481526020017f6d6f76650000000000000000000000000000000000000000000000000000000081525081526020018561ffff1681526020018361ffff168152602001600061ffff1681526020018260010b8152602001600067ffffffffffffffff16815250838661ffff168151811061183f577f4e487b7100000000000000000000000000000000000000000000000000000000600052603260045260246000fd5b60200260200101819052505050505050565b6000600f61185e876119f6565b61ffff16111561187157600090506119ed565b6000805b60048161ffff1610156119e6578760010b878261ffff16815181106118c3577f4e487b7100000000000000000000000000000000000000000000000000000000600052603260045260246000fd5b602002602001015160010b14801561192257506000858261ffff1681518110611915577f4e487b7100000000000000000000000000000000000000000000000000000000600052603260045260246000fd5b602002602001015160070b135b806119c957508760010b868261ffff1681518110611969577f4e487b7100000000000000000000000000000000000000000000000000000000600052603260045260246000fd5b602002602001015160010b1480156119c857506000848261ffff16815181106119bb577f4e487b7100000000000000000000000000000000000000000000000000000000600052603260045260246000fd5b602002602001015160070b135b5b156119d357600191505b80806119de90612e33565b915050611875565b5080159150505b95945050505050565b6000808260010b12611a0a57819050611a39565b817fffffffffffffffffffffffffffffffffffffffffffffffffffffffffffffffff611a369190612973565b90505b919050565b60008161ffff16444233604051602001611a5a939291906125d2565b6040516020818303038152906040528051906020012060001c611a7d9190612ed5565b9050919050565b60008160070b8360070b13611a995781611a9b565b825b905092915050565b60008160070b8360070b12611ab85781611aba565b825b905092915050565b604051806101a0016040528060608152602001606081526020016060815260200160608152602001600061ffff168152602001600061ffff16815260200160608152602001606081526020016060815260200160608152602001600015158152602001600015158152602001600061ffff1681525090565b6040518060c00160405280600061ffff168152602001600061ffff168152602001600061ffff1681526020016060815260200160608152602001600061ffff1681525090565b6040518060c0016040528060608152602001600061ffff168152602001600061ffff168152602001600061ffff168152602001600060010b8152602001600067ffffffffffffffff1681525090565b6000611be2611bdd8461269d565b61266c565b90508083825260208201905082856020860282011115611c0157600080fd5b60005b85811015611c315781611c178882611e3e565b845260208401935060208301925050600181019050611c04565b5050509392505050565b6000611c4e611c49846126c9565b61266c565b90508083825260208201905082856020860282011115611c6d57600080fd5b60005b85811015611c9d5781611c838882611e53565b845260208401935060208301925050600181019050611c70565b5050509392505050565b6000611cba611cb5846126f5565b61266c565b9050808382526020820190508285610100860282011115611cda57600080fd5b60005b85811015611d0b5781611cf08882611eb4565b84526020840193506101008301925050600181019050611cdd565b5050509392505050565b6000611d28611d2384612721565b61266c565b90508083825260208201905082856020860282011115611d4757600080fd5b60005b85811015611d775781611d5d8882611f65565b845260208401935060208301925050600181019050611d4a565b5050509392505050565b600082601f830112611d9257600080fd5b8135611da2848260208601611bcf565b91505092915050565b600082601f830112611dbc57600080fd5b8135611dcc848260208601611c3b565b91505092915050565b600082601f830112611de657600080fd5b8135611df6848260208601611ca7565b91505092915050565b600082601f830112611e1057600080fd5b8135611e20848260208601611d15565b91505092915050565b600081359050611e3881612fb1565b92915050565b600081359050611e4d81612fc8565b92915050565b600081359050611e6281612fdf565b92915050565b600060408284031215611e7a57600080fd5b611e84604061266c565b90506000611e9484828501611f65565b6000830152506020611ea884828501611f65565b60208301525092915050565b60006101008284031215611ec757600080fd5b611ed160e061266c565b90506000611ee184828501611f65565b6000830152506020611ef584828501611f65565b6020830152506040611f0984828501611e68565b6040830152506080611f1d84828501611f65565b60608301525060a0611f3184828501611f65565b60808301525060c0611f4584828501611f65565b60a08301525060e0611f5984828501611f65565b60c08301525092915050565b600081359050611f7481612ff6565b92915050565b600080600080600060a08688031215611f9257600080fd5b600086013567ffffffffffffffff811115611fac57600080fd5b611fb888828901611dd5565b955050602086013567ffffffffffffffff811115611fd557600080fd5b611fe188828901611dff565b945050604086013567ffffffffffffffff811115611ffe57600080fd5b61200a88828901611dff565b935050606061201b88828901611f65565b925050608061202c88828901611f65565b9150509295509295909350565b600080600080600080600080610100898b03121561205657600080fd5b600089013567ffffffffffffffff81111561207057600080fd5b61207c8b828c01611dd5565b985050602061208d8b828c01611e29565b975050604061209e8b828c01611f65565b96505060606120af8b828c01611e3e565b955050608089013567ffffffffffffffff8111156120cc57600080fd5b6120d88b828c01611d81565b94505060a089013567ffffffffffffffff8111156120f557600080fd5b6121018b828c01611d81565b93505060c089013567ffffffffffffffff81111561211e57600080fd5b61212a8b828c01611dab565b92505060e089013567ffffffffffffffff81111561214757600080fd5b6121538b828c01611dab565b9150509295985092959890939650565b600061216f838361231c565b60208301905092915050565b60006121878383612514565b905092915050565b600061219b838361259d565b60208301905092915050565b6121b86121b382612d33565b612ea7565b82525050565b60006121c98261277d565b6121d381856127d0565b93506121de8361274d565b8060005b8381101561220f5781516121f68882612163565b9750612201836127a9565b9250506001810190506121e2565b5085935050505092915050565b600061222782612788565b61223181856127e1565b9350836020820285016122438561275d565b8060005b8581101561227f5784840389528151612260858261217b565b945061226b836127b6565b925060208a01995050600181019050612247565b50829750879550505050505092915050565b600061229c82612793565b6122a681856127f2565b93506122b18361276d565b8060005b838110156122e25781516122c9888261218f565b97506122d4836127c3565b9250506001810190506122b5565b5085935050505092915050565b6122f881612d45565b82525050565b61230781612d51565b82525050565b61231681612d51565b82525050565b61232581612d5e565b82525050565b60006123368261279e565b6123408185612814565b9350612350818560208601612db7565b61235981612f93565b840191505092915050565b6000612371602283612803565b91507f53656c656374696f6e206e6565647320746f2068617665203420656c656d656e60008301527f74730000000000000000000000000000000000000000000000000000000000006020830152604082019050919050565b60006101a08301600083015184820360008601526123e8828261232b565b91505060208301518482036020860152612402828261232b565b9150506040830151848203604086015261241c8282612291565b915050606083015184820360608601526124368282612291565b915050608083015161244b608086018261259d565b5060a083015161245e60a086018261259d565b5060c083015184820360c0860152612476828261221c565b91505060e083015184820360e0860152612490828261221c565b9150506101008301518482036101008601526124ac82826121be565b9150506101208301518482036101208601526124c882826121be565b9150506101408301516124df6101408601826122ef565b506101608301516124f46101608601826122ef565b5061018083015161250961018086018261259d565b508091505092915050565b600060c0830160008301518482036000860152612531828261232b565b9150506020830151612546602086018261259d565b506040830151612559604086018261259d565b50606083015161256c606086018261259d565b50608083015161257f608086018261230d565b5060a083015161259260a08601826125c3565b508091505092915050565b6125a681612d6b565b82525050565b6125bd6125b882612d99565b612ecb565b82525050565b6125cc81612da3565b82525050565b60006125de82866125ac565b6020820191506125ee82856125ac565b6020820191506125fe82846121a7565b601482019150819050949350505050565b600060208201905061262460008301846122fe565b92915050565b6000602082019050818103600083015261264381612364565b9050919050565b6000602082019050818103600083015261266481846123ca565b905092915050565b6000604051905081810181811067ffffffffffffffff8211171561269357612692612f64565b5b8060405250919050565b600067ffffffffffffffff8211156126b8576126b7612f64565b5b602082029050602081019050919050565b600067ffffffffffffffff8211156126e4576126e3612f64565b5b602082029050602081019050919050565b600067ffffffffffffffff8211156127105761270f612f64565b5b602082029050602081019050919050565b600067ffffffffffffffff82111561273c5761273b612f64565b5b602082029050602081019050919050565b6000819050602082019050919050565b6000819050602082019050919050565b6000819050602082019050919050565b600081519050919050565b600081519050919050565b600081519050919050565b600081519050919050565b6000602082019050919050565b6000602082019050919050565b6000602082019050919050565b600082825260208201905092915050565b600082825260208201905092915050565b600082825260208201905092915050565b600082825260208201905092915050565b600082825260208201905092915050565b600061283082612d51565b915061283b83612d51565b925081617fff0383136000831215161561285857612857612f06565b5b817fffffffffffffffffffffffffffffffffffffffffffffffffffffffffffff80000383126000831216156128905761288f612f06565b5b828201905092915050565b60006128a682612d6b565b91506128b183612d6b565b92508261ffff038211156128c8576128c7612f06565b5b828201905092915050565b60006128de82612da3565b91506128e983612da3565b92508267ffffffffffffffff0382111561290657612905612f06565b5b828201905092915050565b600061291c82612d6b565b915061292783612d6b565b92508261293757612936612f35565b5b828204905092915050565b600061294d82612da3565b915061295883612da3565b92508261296857612967612f35565b5b828204905092915050565b600061297e82612d51565b915061298983612d51565b925082617fff04821160008413600084131616156129aa576129a9612f06565b5b817fffffffffffffffffffffffffffffffffffffffffffffffffffffffffffff800005831260008412600084131616156129e7576129e6612f06565b5b827fffffffffffffffffffffffffffffffffffffffffffffffffffffffffffff80000582126000841360008412161615612a2457612a23612f06565b5b82617fff0582126000841260008412161615612a4357612a42612f06565b5b828202905092915050565b6000612a5982612d5e565b9150612a6483612d5e565b925082677fffffffffffffff0482116000841360008413161615612a8b57612a8a612f06565b5b817fffffffffffffffffffffffffffffffffffffffffffffffff80000000000000000583126000841260008413161615612ac857612ac7612f06565b5b827fffffffffffffffffffffffffffffffffffffffffffffffff80000000000000000582126000841360008412161615612b0557612b04612f06565b5b82677fffffffffffffff0582126000841260008412161615612b2a57612b29612f06565b5b828202905092915050565b6000612b4082612d6b565b9150612b4b83612d6b565b92508161ffff0483118215151615612b6657612b65612f06565b5b828202905092915050565b6000612b7c82612d99565b9150612b8783612d99565b9250817fffffffffffffffffffffffffffffffffffffffffffffffffffffffffffffffff0483118215151615612bc057612bbf612f06565b5b828202905092915050565b6000612bd682612da3565b9150612be183612da3565b92508167ffffffffffffffff0483118215151615612c0257612c01612f06565b5b828202905092915050565b6000612c1882612d51565b9150612c2383612d51565b9250827fffffffffffffffffffffffffffffffffffffffffffffffffffffffffffff800001821260008412151615612c5e57612c5d612f06565b5b82617fff018213600084121615612c7857612c77612f06565b5b828203905092915050565b6000612c8e82612d5e565b9150612c9983612d5e565b9250827fffffffffffffffffffffffffffffffffffffffffffffffff800000000000000001821260008412151615612cd457612cd3612f06565b5b82677fffffffffffffff018213600084121615612cf457612cf3612f06565b5b828203905092915050565b6000612d0a82612d6b565b9150612d1583612d6b565b925082821015612d2857612d27612f06565b5b828203905092915050565b6000612d3e82612d79565b9050919050565b60008115159050919050565b60008160010b9050919050565b60008160070b9050919050565b600061ffff82169050919050565b600073ffffffffffffffffffffffffffffffffffffffff82169050919050565b6000819050919050565b600067ffffffffffffffff82169050919050565b60005b83811015612dd5578082015181840152602081019050612dba565b83811115612de4576000848401525b50505050565b6000612df582612d51565b91507fffffffffffffffffffffffffffffffffffffffffffffffffffffffffffff8000821415612e2857612e27612f06565b5b600182039050919050565b6000612e3e82612d6b565b915061ffff821415612e5357612e52612f06565b5b600182019050919050565b6000612e6982612d99565b91507fffffffffffffffffffffffffffffffffffffffffffffffffffffffffffffffff821415612e9c57612e9b612f06565b5b600182019050919050565b6000612eb282612eb9565b9050919050565b6000612ec482612fa4565b9050919050565b6000819050919050565b6000612ee082612d99565b9150612eeb83612d99565b925082612efb57612efa612f35565b5b828206905092915050565b7f4e487b7100000000000000000000000000000000000000000000000000000000600052601160045260246000fd5b7f4e487b7100000000000000000000000000000000000000000000000000000000600052601260045260246000fd5b7f4e487b7100000000000000000000000000000000000000000000000000000000600052604160045260246000fd5b6000601f19601f8301169050919050565b60008160601b9050919050565b612fba81612d45565b8114612fc557600080fd5b50565b612fd181612d51565b8114612fdc57600080fd5b50565b612fe881612d5e565b8114612ff357600080fd5b50565b612fff81612d6b565b811461300a57600080fd5b5056fea264697066735822122037971b2020da3a81feeabb898985736c594d064aaa0b2115a7a050ed1e551adc64736f6c63430008000033",
  "linkReferences": {},
  "deployedLinkReferences": {}
}