{
  "_format": "hh-sol-artifact-1",
  "contractName": "GameEngineLibrary",
  "sourceName": "contracts/GameEngine.sol",
  "abi": [
    {
      "inputs": [
        {
          "components": [
            {
              "internalType": "uint16",
              "name": "cp",
              "type": "uint16"
            },
            {
              "internalType": "uint16",
              "name": "hp",
              "type": "uint16"
            },
            {
              "components": [
                {
                  "internalType": "uint16",
                  "name": "base",
                  "type": "uint16"
                },
                {
                  "internalType": "uint16",
                  "name": "variable",
                  "type": "uint16"
                }
              ],
              "internalType": "struct ShipVariableStat",
              "name": "attack",
              "type": "tuple"
            },
            {
              "internalType": "uint16",
              "name": "defence",
              "type": "uint16"
            },
            {
              "internalType": "uint16",
              "name": "speed",
              "type": "uint16"
            },
            {
              "internalType": "uint16",
              "name": "range",
              "type": "uint16"
            },
            {
              "internalType": "uint16",
              "name": "agility",
              "type": "uint16"
            }
          ],
          "internalType": "struct Ship[]",
          "name": "Ships",
          "type": "tuple[]"
        },
        {
          "internalType": "uint16[]",
          "name": "selectionLhs",
          "type": "uint16[]"
        },
        {
          "internalType": "uint16[]",
          "name": "selectionRhs",
          "type": "uint16[]"
        },
        {
          "internalType": "uint16",
          "name": "commanderLhs",
          "type": "uint16"
        },
        {
          "internalType": "uint16",
          "name": "commanderRhs",
          "type": "uint16"
        }
      ],
      "name": "fight",
      "outputs": [
        {
          "components": [
            {
              "internalType": "bytes32",
              "name": "nameLhs",
              "type": "bytes32"
            },
            {
              "internalType": "bytes32",
              "name": "nameRhs",
              "type": "bytes32"
            },
            {
              "internalType": "uint16[]",
              "name": "selectionLhs",
              "type": "uint16[]"
            },
            {
              "internalType": "uint16[]",
              "name": "selectionRhs",
              "type": "uint16[]"
            },
            {
              "internalType": "uint16",
              "name": "commanderLhs",
              "type": "uint16"
            },
            {
              "internalType": "uint16",
              "name": "commanderRhs",
              "type": "uint16"
            },
            {
              "components": [
                {
                  "internalType": "uint8",
                  "name": "moveType",
                  "type": "uint8"
                },
                {
                  "internalType": "uint8",
                  "name": "round",
                  "type": "uint8"
                },
                {
                  "internalType": "uint16",
                  "name": "source",
                  "type": "uint16"
                },
                {
                  "internalType": "uint16",
                  "name": "target",
                  "type": "uint16"
                },
                {
                  "internalType": "int16",
                  "name": "targetPosition",
                  "type": "int16"
                },
                {
                  "internalType": "uint64",
                  "name": "damage",
                  "type": "uint64"
                }
              ],
              "internalType": "struct Move[]",
              "name": "lhs",
              "type": "tuple[]"
            },
            {
              "components": [
                {
                  "internalType": "uint8",
                  "name": "moveType",
                  "type": "uint8"
                },
                {
                  "internalType": "uint8",
                  "name": "round",
                  "type": "uint8"
                },
                {
                  "internalType": "uint16",
                  "name": "source",
                  "type": "uint16"
                },
                {
                  "internalType": "uint16",
                  "name": "target",
                  "type": "uint16"
                },
                {
                  "internalType": "int16",
                  "name": "targetPosition",
                  "type": "int16"
                },
                {
                  "internalType": "uint64",
                  "name": "damage",
                  "type": "uint64"
                }
              ],
              "internalType": "struct Move[]",
              "name": "rhs",
              "type": "tuple[]"
            },
            {
              "internalType": "bool",
              "name": "lhsDead",
              "type": "bool"
            },
            {
              "internalType": "bool",
              "name": "rhsDead",
              "type": "bool"
            },
            {
              "internalType": "uint16",
              "name": "rounds",
              "type": "uint16"
            }
          ],
          "internalType": "struct FightResult",
          "name": "",
          "type": "tuple"
        }
      ],
      "stateMutability": "view",
      "type": "function"
    }
  ],
  "bytecode": "0x611dc761003a600b82828239805160001a60731461002d57634e487b7160e01b600052600060045260246000fd5b30600052607381538281f3fe73000000000000000000000000000000000000000030146080604052600436106100355760003560e01c806341ce4f681461003a575b600080fd5b61004d6100483660046115d2565b610063565b60405161005a91906118aa565b60405180910390f35b61006b61141b565b84516004146100955760405162461bcd60e51b815260040161008c90611868565b60405180910390fd5b83516004146100b65760405162461bcd60e51b815260040161008c90611868565b60408051600480825260a0820190925260009160208201608080368337019050509050600a816000815181106100fc57634e487b7160e01b600052603260045260246000fd5b602002602001019060010b908160010b81525050600b8160018151811061013357634e487b7160e01b600052603260045260246000fd5b602002602001019060010b908160010b81525050600c8160028151811061016a57634e487b7160e01b600052603260045260246000fd5b602002602001019060010b908160010b81525050600d816003815181106101a157634e487b7160e01b600052603260045260246000fd5b600192830b90920b60209283029190910182015260408051600480825260a082019092526000929091908201608080368337019050509050600919816000815181106101fd57634e487b7160e01b600052603260045260246000fd5b602002602001019060010b908160010b81525050600a198160018151811061023557634e487b7160e01b600052603260045260246000fd5b602002602001019060010b908160010b81525050600b198160028151811061026d57634e487b7160e01b600052603260045260246000fd5b602002602001019060010b908160010b81525050600c19816003815181106102a557634e487b7160e01b600052603260045260246000fd5b600192830b90920b60209283029190910182015260408051600480825260a082019092526000929091908201608080368337505060408051600480825260a0820190925292935060009291506020820160808036833701905050905060005b600461ffff8216101561047057898161ffff168151811061033557634e487b7160e01b600052603260045260246000fd5b602002602001015161ffff168b8261ffff168151811061036557634e487b7160e01b600052603260045260246000fd5b60200260200101516020015161ffff1661037f9190611b41565b838261ffff16815181106103a357634e487b7160e01b600052603260045260246000fd5b602002602001019060070b908160070b81525050888161ffff16815181106103db57634e487b7160e01b600052603260045260246000fd5b602002602001015161ffff168b8261ffff168151811061040b57634e487b7160e01b600052603260045260246000fd5b60200260200101516020015161ffff166104259190611b41565b828261ffff168151811061044957634e487b7160e01b600052603260045260246000fd5b602002602001019060070b908160070b81525050808061046890611cde565b915050610304565b50610479611479565b6104856004601e611be3565b60ff166001600160401b038111156104ad57634e487b7160e01b600052604160045260246000fd5b6040519080825280602002602001820160405280156104e657816020015b6104d36114bc565b8152602001906001900390816104cb5790505b5060608201526104f86004601e611be3565b60ff166001600160401b0381111561052057634e487b7160e01b600052604160045260246000fd5b60405190808252806020026020018201604052801561055957816020015b6105466114bc565b81526020019060019003908161053e5790505b5060a0820152600081525b8051601e60ff909116108015610580575061057e83610c11565b155b8015610592575061059082610c11565b155b1561099757600060e08201525b600460ff168160e0015161ffff161015610797576000838260e0015161ffff16815181106105dd57634e487b7160e01b600052603260045260246000fd5b602002602001015160070b131561077b5760006106018c8360e00151888887610c73565b905060008160010b126106c657600061064f8d8460e0015184888760e0015161ffff168151811061064257634e487b7160e01b600052603260045260246000fd5b6020026020010151610dd9565b905080848361ffff168151811061067657634e487b7160e01b600052603260045260246000fd5b6020026020010181815161068a9190611c51565b600790810b900b9052506020830180516106c0916106a782611cde565b61ffff1690528451606086015160e08701518686610fd0565b50610779565b6106dd8c60018460e001516000198a8a8a8a611050565b868360e0015161ffff168151811061070557634e487b7160e01b600052603260045260246000fd5b600192830b90920b602092830291909101820152820180516107799161072a82611cde565b61ffff1661ffff16815250836000015184606001518560e001518a8760e0015161ffff168151811061076c57634e487b7160e01b600052603260045260246000fd5b60200260200101516111c3565b505b60e0810180519061078b82611cde565b61ffff1690525061059f565b600060e08201525b600460ff168160e0015161ffff161015610980576000828260e0015161ffff16815181106107dd57634e487b7160e01b600052603260045260246000fd5b602002602001015160070b13156109645760006108018c8360e00151878988610c73565b905060008160010b126108b95760006108428d8460e0015184878760e0015161ffff168151811061064257634e487b7160e01b600052603260045260246000fd5b905080858361ffff168151811061086957634e487b7160e01b600052603260045260246000fd5b6020026020010181815161087d9190611c51565b600790810b900b9052506040830180516108b39161089a82611cde565b61ffff169052845160a086015160e08701518686610fd0565b50610962565b6108cf8c60008460e0015160018a8a8a8a611050565b858360e0015161ffff16815181106108f757634e487b7160e01b600052603260045260246000fd5b602002602001019060010b908160010b8152505061096282604001805180919061092090611cde565b61ffff1661ffff1681525083600001518460a001518560e00151898760e0015161ffff168151811061076c57634e487b7160e01b600052603260045260246000fd5b505b60e0810180519061097482611cde565b61ffff1690525061079f565b80518161098c82611d1b565b60ff16905250610564565b80516109a590600490611be3565b60ff166001600160401b038111156109cd57634e487b7160e01b600052604160045260246000fd5b604051908082528060200260200182016040528015610a0657816020015b6109f36114bc565b8152602001906001900390816109eb5790505b5060808201528051610a1a90600490611be3565b60ff166001600160401b03811115610a4257634e487b7160e01b600052604160045260246000fd5b604051908082528060200260200182016040528015610a7b57816020015b610a686114bc565b815260200190600190039081610a605790505b5060c082015260005b8151610a9290600490611be3565b60ff168161ffff161015610b795781606001518161ffff1681518110610ac857634e487b7160e01b600052603260045260246000fd5b602002602001015182608001518261ffff1681518110610af857634e487b7160e01b600052603260045260246000fd5b60200260200101819052508160a001518161ffff1681518110610b2b57634e487b7160e01b600052603260045260246000fd5b60200260200101518260c001518261ffff1681518110610b5b57634e487b7160e01b600052603260045260246000fd5b60200260200101819052508080610b7190611cde565b915050610a84565b50606093506060945060405180610160016040528060008019168152602001600080191681526020018b81526020018a81526020018961ffff1681526020018861ffff168152602001826080015181526020018260c001518152602001610bdf85610c11565b15158152602001610bef84610c11565b15158152915160ff166020909201919091529450505050505b95945050505050565b60006001815b6004811015610c6a576000848281518110610c4257634e487b7160e01b600052603260045260246000fd5b602002602001015160070b1315610c5857600091505b80610c6281611d00565b915050610c17565b5090505b919050565b600080848661ffff1681518110610c9a57634e487b7160e01b600052603260045260246000fd5b602002602001015190506000661fffffffffffff90506000805b600461ffff82161015610daf576000878261ffff1681518110610ce757634e487b7160e01b600052603260045260246000fd5b602002602001015190506000610d078287610d029190611c0c565b611243565b90506000888461ffff1681518110610d2f57634e487b7160e01b600052603260045260246000fd5b602002602001015160070b138015610d7e57508b8b61ffff1681518110610d6657634e487b7160e01b600052603260045260246000fd5b602002602001015160a0015161ffff168161ffff1611155b15610d9a57848161ffff161015610d9a578061ffff1694508293505b50508080610da790611cde565b915050610cb4565b5060009250661fffffffffffff8214610dc85780610dcc565b6000195b9998505050505050505050565b600080610e18868661ffff1681518110610e0357634e487b7160e01b600052603260045260246000fd5b60200260200101516040015160200151611269565b868661ffff1681518110610e3c57634e487b7160e01b600052603260045260246000fd5b60200260200101516040015160000151610e569190611a37565b90506000868561ffff1681518110610e7e57634e487b7160e01b600052603260045260246000fd5b60200260200101516060015190506000878661ffff1681518110610eb257634e487b7160e01b600052603260045260246000fd5b602002602001015160c001516064610eca9190611c98565b90506000600a82610edb8587611c98565b610ee59190611b93565b610eef9190611a7f565b61ffff1690506000898961ffff1681518110610f1b57634e487b7160e01b600052603260045260246000fd5b60200260200101516020015161ffff1687610f369190611aa0565b610f41906001611a5d565b905060008a8961ffff1681518110610f6957634e487b7160e01b600052603260045260246000fd5b60200260200101516020015161ffff168261ffff16610f889190611bbd565b90506000610f9a61ffff841685611bbd565b905060009650600095506000945060009250610fc0610fba6000836112ae565b836112cc565b9c9b505050505050505050505050565b6040518060c00160405280600160ff1681526020018660ff1681526020018461ffff1681526020018361ffff168152602001600060010b8152602001826001600160401b0316815250848761ffff168151811061103d57634e487b7160e01b600052603260045260246000fd5b6020026020010181905250505050505050565b600080898861ffff168151811061107757634e487b7160e01b600052603260045260246000fd5b60200260200101516080015190506000896110bd57858961ffff16815181106110b057634e487b7160e01b600052603260045260246000fd5b60200260200101516110ea565b868961ffff16815181106110e157634e487b7160e01b600052603260045260246000fd5b60200260200101515b9050815b60008160010b13156111b45760008b6111465761110b828b611aba565b888c61ffff168151811061112f57634e487b7160e01b600052603260045260246000fd5b602002602001015161114191906119f3565b611186565b611150828b611aba565b898c61ffff168151811061117457634e487b7160e01b600052603260045260246000fd5b602002602001015161118691906119f3565b9050611195818a8a8a8a6112e1565b156111a15791506111b4565b50806111ac81611cbb565b9150506110ee565b509a9950505050505050505050565b6040518060c00160405280600260ff1681526020018560ff1681526020018361ffff168152602001600061ffff1681526020018260010b815260200160006001600160401b0316815250838661ffff168151811061123157634e487b7160e01b600052603260045260246000fd5b60200260200101819052505050505050565b6000808260010b12611256575080610c6e565b61126282600019611aba565b9050610c6e565b60008161ffff1644423360405160200161128593929190611840565b6040516020818303038152906040528051906020012060001c6112a89190611d3b565b92915050565b60008160070b8360070b136112c357816112c5565b825b9392505050565b60008160070b8360070b126112c357816112c5565b6000600f6112ee87611243565b61ffff16111561130057506000610c08565b6000805b600461ffff8216101561140f578760010b878261ffff168151811061133957634e487b7160e01b600052603260045260246000fd5b602002602001015160010b14801561137f57506000858261ffff168151811061137257634e487b7160e01b600052603260045260246000fd5b602002602001015160070b135b806113f357508760010b868261ffff16815181106113ad57634e487b7160e01b600052603260045260246000fd5b602002602001015160010b1480156113f357506000848261ffff16815181106113e657634e487b7160e01b600052603260045260246000fd5b602002602001015160070b135b156113fd57600191505b8061140781611cde565b915050611304565b50159695505050505050565b604080516101608101825260008082526020820181905260609282018390528282018390526080820181905260a0820181905260c0820183905260e08201929092526101008101829052610120810182905261014081019190915290565b604080516101008101825260008082526020820181905291810182905260608082018190526080820181905260a0820181905260c082015260e081019190915290565b6040805160c081018252600080825260208201819052918101829052606081018290526080810182905260a081019190915290565b600082601f830112611501578081fd5b81356020611516611511836119d0565b6119a7565b8281528181019085830183850287018401881015611532578586fd5b855b8581101561155757611545826115c0565b84529284019290840190600101611534565b5090979650505050505050565b600060408284031215611575578081fd5b604051604081018181106001600160401b038211171561159757611597611d7b565b6040529050806115a6836115c0565b81526115b4602084016115c0565b60208201525092915050565b803561ffff81168114610c6e57600080fd5b600080600080600060a086880312156115e9578081fd5b85356001600160401b03808211156115ff578283fd5b818801915088601f830112611612578283fd5b81356020611622611511836119d0565b828152818101908583016101008502870184018e1015611640578788fd5b8796505b8487101561170057610100818f03121561165c578788fd5b60405160e08101818110888211171561167757611677611d7b565b604052611683826115c0565b81526116908583016115c0565b858201526116a18f60408401611564565b60408201526116b2608083016115c0565b60608201526116c360a083016115c0565b60808201526116d460c083016115c0565b60a08201526116e560e083016115c0565b60c08201528352600196909601959183019161010001611644565b5099505089013592505080821115611716578283fd5b61172289838a016114f1565b95506040880135915080821115611737578283fd5b50611744888289016114f1565b935050611753606087016115c0565b9150611761608087016115c0565b90509295509295909350565b6000815180845260208085019450808401835b838110156117f4578151805160ff908116895284820151168489015260408082015161ffff908116918a019190915260608083015190911690890152608080820151600190810b918a019190915260a0918201516001600160401b03169189019190915260c0909701969183019101611780565b509495945050505050565b6000815180845260208085019450808401835b838110156117f457815161ffff1687529582019590820190600101611812565b15159052565b61ffff169052565b928352602083019190915260601b6bffffffffffffffffffffffff1916604082015260540190565b60208082526022908201527f53656c656374696f6e206e6565647320746f2068617665203420656c656d656e604082015261747360f01b606082015260800190565b600060208252825160208301526020830151604083015260408301516101608060608501526118dd6101808501836117ff565b91506060850151601f19808685030160808701526118fb84836117ff565b93506080870151915061191160a0870183611838565b60a0870151915061192560c0870183611838565b60c08701519150808685030160e0870152611940848361176d565b935060e0870151915061010081878603018188015261195f858461176d565b9450808801519250505061012061197881870183611832565b860151905061014061198c86820183611832565b860151905061199d85830182611838565b5090949350505050565b6040518181016001600160401b03811182821017156119c8576119c8611d7b565b604052919050565b60006001600160401b038211156119e9576119e9611d7b565b5060209081020190565b60008160010b8360010b82821282617fff03821381151615611a1757611a17611d4f565b82617fff19038212811615611a2e57611a2e611d4f565b50019392505050565b600061ffff808316818516808303821115611a5457611a54611d4f565b01949350505050565b60006001600160401b03808316818516808303821115611a5457611a54611d4f565b600061ffff80841680611a9457611a94611d65565b92169190910492915050565b60006001600160401b0380841680611a9457611a94611d65565b60008160010b8360010b617fff83821384841383830485118282161615611ae357611ae3611d4f565b617fff1986851282811687830587121615611b0057611b00611d4f565b878712925085820587128484161615611b1b57611b1b611d4f565b85850587128184161615611b3157611b31611d4f565b5050509290910295945050505050565b60008160070b8360070b677fffffffffffffff83821384841383830485118282161615611b7057611b70611d4f565b677fffffffffffffff1986851282811687830587121615611b0057611b00611d4f565b600061ffff80831681851681830481118215151615611bb457611bb4611d4f565b02949350505050565b60006001600160401b0380831681851681830481118215151615611bb457611bb4611d4f565b600060ff821660ff84168160ff0481118215151615611c0457611c04611d4f565b029392505050565b60008160010b8360010b82811281617fff1901831281151615611c3157611c31611d4f565b81617fff018313811615611c4757611c47611d4f565b5090039392505050565b60008160070b8360070b82811281677fffffffffffffff1901831281151615611c7c57611c7c611d4f565b81677fffffffffffffff018313811615611c4757611c47611d4f565b600061ffff83811690831681811015611cb357611cb3611d4f565b039392505050565b60008160010b617fff19811415611cd457611cd4611d4f565b6000190192915050565b600061ffff80831681811415611cf657611cf6611d4f565b6001019392505050565b6000600019821415611d1457611d14611d4f565b5060010190565b600060ff821660ff811415611d3257611d32611d4f565b60010192915050565b600082611d4a57611d4a611d65565b500690565b634e487b7160e01b600052601160045260246000fd5b634e487b7160e01b600052601260045260246000fd5b634e487b7160e01b600052604160045260246000fdfea2646970667358221220a778ec29e6368d5221d50ef6822adabc784de76668cfd01046ae711e4edc870864736f6c63430008000033",
  "linkReferences": {},
  "deployedLinkReferences": {}
}