{
  "_format": "hh-sol-artifact-1",
  "contractName": "GameEngine",
  "sourceName": "contracts/GameEngine.sol",
  "abi": [
    {
      "inputs": [
        {
          "internalType": "uint256",
          "name": "index",
          "type": "uint256"
        },
        {
          "internalType": "uint256",
          "name": "cp",
          "type": "uint256"
        },
        {
          "internalType": "uint256",
          "name": "hp",
          "type": "uint256"
        },
        {
          "internalType": "uint256",
          "name": "attackBase",
          "type": "uint256"
        },
        {
          "internalType": "uint256",
          "name": "attackVariable",
          "type": "uint256"
        },
        {
          "internalType": "uint256",
          "name": "defence",
          "type": "uint256"
        },
        {
          "internalType": "uint256",
          "name": "speed",
          "type": "uint256"
        },
        {
          "internalType": "uint256",
          "name": "range",
          "type": "uint256"
        },
        {
          "internalType": "uint256",
          "name": "agility",
          "type": "uint256"
        }
      ],
      "name": "addShip",
      "outputs": [
        {
          "internalType": "uint256",
          "name": "",
          "type": "uint256"
        }
      ],
      "stateMutability": "nonpayable",
      "type": "function"
    },
    {
      "inputs": [
        {
          "internalType": "uint256[]",
          "name": "selectionLhs",
          "type": "uint256[]"
        },
        {
          "internalType": "uint256[]",
          "name": "selectionRhs",
          "type": "uint256[]"
        },
        {
          "internalType": "uint256",
          "name": "commanderLhs",
          "type": "uint256"
        },
        {
          "internalType": "uint256",
          "name": "commanderRhs",
          "type": "uint256"
        }
      ],
      "name": "fight",
      "outputs": [
        {
          "components": [
            {
              "components": [
                {
                  "internalType": "string",
                  "name": "moveType",
                  "type": "string"
                },
                {
                  "internalType": "uint256",
                  "name": "round",
                  "type": "uint256"
                },
                {
                  "internalType": "uint256",
                  "name": "source",
                  "type": "uint256"
                },
                {
                  "internalType": "uint256",
                  "name": "target",
                  "type": "uint256"
                },
                {
                  "internalType": "int256",
                  "name": "targetPosition",
                  "type": "int256"
                },
                {
                  "internalType": "uint256",
                  "name": "damage",
                  "type": "uint256"
                }
              ],
              "internalType": "struct Move[]",
              "name": "lhs",
              "type": "tuple[]"
            },
            {
              "components": [
                {
                  "internalType": "string",
                  "name": "moveType",
                  "type": "string"
                },
                {
                  "internalType": "uint256",
                  "name": "round",
                  "type": "uint256"
                },
                {
                  "internalType": "uint256",
                  "name": "source",
                  "type": "uint256"
                },
                {
                  "internalType": "uint256",
                  "name": "target",
                  "type": "uint256"
                },
                {
                  "internalType": "int256",
                  "name": "targetPosition",
                  "type": "int256"
                },
                {
                  "internalType": "uint256",
                  "name": "damage",
                  "type": "uint256"
                }
              ],
              "internalType": "struct Move[]",
              "name": "rhs",
              "type": "tuple[]"
            },
            {
              "internalType": "int256[]",
              "name": "lhsHp",
              "type": "int256[]"
            },
            {
              "internalType": "int256[]",
              "name": "rhsHp",
              "type": "int256[]"
            },
            {
              "internalType": "bool",
              "name": "lhsDead",
              "type": "bool"
            },
            {
              "internalType": "bool",
              "name": "rhsDead",
              "type": "bool"
            },
            {
              "internalType": "uint256",
              "name": "rounds",
              "type": "uint256"
            }
          ],
          "internalType": "struct FightResult",
          "name": "",
          "type": "tuple"
        }
      ],
      "stateMutability": "view",
      "type": "function"
    },
    {
      "inputs": [],
      "name": "getShips",
      "outputs": [
        {
          "components": [
            {
              "internalType": "uint256",
              "name": "cp",
              "type": "uint256"
            },
            {
              "internalType": "uint256",
              "name": "hp",
              "type": "uint256"
            },
            {
              "components": [
                {
                  "internalType": "uint256",
                  "name": "base",
                  "type": "uint256"
                },
                {
                  "internalType": "uint256",
                  "name": "variable",
                  "type": "uint256"
                }
              ],
              "internalType": "struct ShipVariableStat",
              "name": "attack",
              "type": "tuple"
            },
            {
              "internalType": "uint256",
              "name": "defence",
              "type": "uint256"
            },
            {
              "internalType": "uint256",
              "name": "speed",
              "type": "uint256"
            },
            {
              "internalType": "uint256",
              "name": "range",
              "type": "uint256"
            },
            {
              "internalType": "uint256",
              "name": "agility",
              "type": "uint256"
            }
          ],
          "internalType": "struct Ship[]",
          "name": "",
          "type": "tuple[]"
        }
      ],
      "stateMutability": "view",
      "type": "function"
    },
    {
      "inputs": [],
      "name": "owner",
      "outputs": [
        {
          "internalType": "address",
          "name": "",
          "type": "address"
        }
      ],
      "stateMutability": "view",
      "type": "function"
    }
  ],
  "bytecode": "0x6080604052336000806101000a81548173ffffffffffffffffffffffffffffffffffffffff021916908373ffffffffffffffffffffffffffffffffffffffff16021790555034801561005057600080fd5b5061172c806100606000396000f3fe608060405234801561001057600080fd5b506004361061004c5760003560e01c8063504c0707146100515780636738f234146100815780638da5cb5b1461009f578063fd3291aa146100bd575b600080fd5b61006b600480360381019061006691906109ea565b6100ed565b604051610078919061134a565b60405180910390f35b61008961021c565b6040516100969190611280565b60405180910390f35b6100a761036d565b6040516100b49190611265565b60405180910390f35b6100d760048036038101906100d29190610abe565b610391565b6040516100e4919061136c565b60405180910390f35b6100f5610576565b6004855114610139576040517f08c379a00000000000000000000000000000000000000000000000000000000081526004016101309061130a565b60405180910390fd5b600484511461017d576040517f08c379a00000000000000000000000000000000000000000000000000000000081526004016101749061130a565b60405180910390fd5b73__$d79efa95efdba3999ec736a1a402c0d04a$__636e1060ff6002878787876040518663ffffffff1660e01b81526004016101bd9594939291906112a2565b60006040518083038186803b1580156101d557600080fd5b505af41580156101e9573d6000803e3d6000fd5b505050506040513d6000823e3d601f19601f820116820180604052508101906102129190610a7d565b9050949350505050565b606060008054906101000a900473ffffffffffffffffffffffffffffffffffffffff1673ffffffffffffffffffffffffffffffffffffffff163373ffffffffffffffffffffffffffffffffffffffff16146102ac576040517f08c379a00000000000000000000000000000000000000000000000000000000081526004016102a39061132a565b60405180910390fd5b6002805480602002602001604051908101604052809291908181526020016000905b8282101561036457838290600052602060002090600802016040518060e0016040529081600082015481526020016001820154815260200160028201604051806040016040529081600082015481526020016001820154815250508152602001600482015481526020016005820154815260200160068201548152602001600782015481525050815260200190600101906102ce565b50505050905090565b60008054906101000a900473ffffffffffffffffffffffffffffffffffffffff1681565b60008060009054906101000a900473ffffffffffffffffffffffffffffffffffffffff1673ffffffffffffffffffffffffffffffffffffffff163373ffffffffffffffffffffffffffffffffffffffff1614610422576040517f08c379a00000000000000000000000000000000000000000000000000000000081526004016104199061132a565b60405180910390fd5b60006040518060e001604052808b81526020018a815260200160405180604001604052808b81526020018a815250815260200187815260200186815260200185815260200184815250905080600160008d8152602001908152602001600020600082015181600001556020820151816001015560408201518160020160008201518160000155602082015181600101555050606082015181600401556080820151816005015560a0820151816006015560c082015181600701559050506002819080600181540180825580915050600190039060005260206000209060080201600090919091909150600082015181600001556020820151816001015560408201518160020160008201518160000155602082015181600101555050606082015181600401556080820151816005015560a0820151816006015560c082015181600701555050509998505050505050505050565b6040518060e0016040528060608152602001606081526020016060815260200160608152602001600015158152602001600015158152602001600081525090565b60006105ca6105c5846113b8565b611387565b905080838252602082019050828560208602820111156105e957600080fd5b60005b8581101561061957816105ff88826107bd565b8452602084019350602083019250506001810190506105ec565b5050509392505050565b6000610636610631846113e4565b611387565b9050808382526020820190508260005b85811015610676578151850161065c888261090c565b845260208401935060208301925050600181019050610646565b5050509392505050565b600061069361068e84611410565b611387565b905080838252602082019050828560208602820111156106b257600080fd5b60005b858110156106e257816106c888826109c0565b8452602084019350602083019250506001810190506106b5565b5050509392505050565b60006106ff6106fa8461143c565b611387565b90508281526020810184848401111561071757600080fd5b610722848285611617565b509392505050565b600082601f83011261073b57600080fd5b815161074b8482602086016105b7565b91505092915050565b600082601f83011261076557600080fd5b8151610775848260208601610623565b91505092915050565b600082601f83011261078f57600080fd5b813561079f848260208601610680565b91505092915050565b6000815190506107b7816116b1565b92915050565b6000815190506107cc816116c8565b92915050565b600082601f8301126107e357600080fd5b81516107f38482602086016106ec565b91505092915050565b600060e0828403121561080e57600080fd5b61081860e0611387565b9050600082015167ffffffffffffffff81111561083457600080fd5b61084084828501610754565b600083015250602082015167ffffffffffffffff81111561086057600080fd5b61086c84828501610754565b602083015250604082015167ffffffffffffffff81111561088c57600080fd5b6108988482850161072a565b604083015250606082015167ffffffffffffffff8111156108b857600080fd5b6108c48482850161072a565b60608301525060806108d8848285016107a8565b60808301525060a06108ec848285016107a8565b60a08301525060c0610900848285016109d5565b60c08301525092915050565b600060c0828403121561091e57600080fd5b61092860c0611387565b9050600082015167ffffffffffffffff81111561094457600080fd5b610950848285016107d2565b6000830152506020610964848285016109d5565b6020830152506040610978848285016109d5565b604083015250606061098c848285016109d5565b60608301525060806109a0848285016107bd565b60808301525060a06109b4848285016109d5565b60a08301525092915050565b6000813590506109cf816116df565b92915050565b6000815190506109e4816116df565b92915050565b60008060008060808587031215610a0057600080fd5b600085013567ffffffffffffffff811115610a1a57600080fd5b610a268782880161077e565b945050602085013567ffffffffffffffff811115610a4357600080fd5b610a4f8782880161077e565b9350506040610a60878288016109c0565b9250506060610a71878288016109c0565b91505092959194509250565b600060208284031215610a8f57600080fd5b600082015167ffffffffffffffff811115610aa957600080fd5b610ab5848285016107fc565b91505092915050565b60008060008060008060008060006101208a8c031215610add57600080fd5b6000610aeb8c828d016109c0565b9950506020610afc8c828d016109c0565b9850506040610b0d8c828d016109c0565b9750506060610b1e8c828d016109c0565b9650506080610b2f8c828d016109c0565b95505060a0610b408c828d016109c0565b94505060c0610b518c828d016109c0565b93505060e0610b628c828d016109c0565b925050610100610b748c828d016109c0565b9150509295985092959850929598565b6000610b908383610e04565b60208301905092915050565b6000610ba88383610fc9565b905092915050565b6000610bbc83836110c8565b6101008301905092915050565b6000610bd58383611157565b6101008301905092915050565b6000610bee8383611256565b60208301905092915050565b610c03816115c5565b82525050565b6000610c14826114c1565b610c1e8185611544565b9350610c298361146c565b8060005b83811015610c5a578151610c418882610b84565b9750610c4c83611503565b925050600181019050610c2d565b5085935050505092915050565b6000610c72826114cc565b610c7c8185611555565b935083602082028501610c8e8561147c565b8060005b85811015610cca5784840389528151610cab8582610b9c565b9450610cb683611510565b925060208a01995050600181019050610c92565b50829750879550505050505092915050565b6000610ce7826114d7565b610cf18185611566565b9350610cfc8361148c565b8060005b83811015610d2d578151610d148882610bb0565b9750610d1f8361151d565b925050600181019050610d00565b5085935050505092915050565b6000610d45826114e2565b610d4f8185611577565b9350610d5a8361149c565b8060005b83811015610d8a5781610d718882610bc9565b9750610d7c8361152a565b925050600181019050610d5e565b5085935050505092915050565b6000610da2826114ed565b610dac8185611588565b9350610db7836114b1565b8060005b83811015610de8578151610dcf8882610be2565b9750610dda83611537565b925050600181019050610dbb565b5085935050505092915050565b610dfe816115d7565b82525050565b610e0d816115e3565b82525050565b6000610e1e826114f8565b610e288185611599565b9350610e38818560208601611617565b610e4181611693565b840191505092915050565b6000610e596022836115aa565b91507f53656c656374696f6e206e6565647320746f2068617665203420656c656d656e60008301527f74730000000000000000000000000000000000000000000000000000000000006020830152604082019050919050565b6000610ebf6033836115aa565b91507f546869732066756e6374696f6e206973207265737472696374656420746f207460008301527f686520636f6e74726163742773206f776e6572000000000000000000000000006020830152604082019050919050565b600060e0830160008301518482036000860152610f358282610c67565b91505060208301518482036020860152610f4f8282610c67565b91505060408301518482036040860152610f698282610c09565b91505060608301518482036060860152610f838282610c09565b9150506080830151610f986080860182610df5565b5060a0830151610fab60a0860182610df5565b5060c0830151610fbe60c0860182611229565b508091505092915050565b600060c0830160008301518482036000860152610fe68282610e13565b9150506020830151610ffb6020860182611229565b50604083015161100e6040860182611229565b5060608301516110216060860182611229565b5060808301516110346080860182610e04565b5060a083015161104760a0860182611229565b508091505092915050565b6040820160008201516110686000850182611229565b50602082015161107b6020850182611229565b50505050565b6040820160008083015490506110968161164a565b6110a36000860182611256565b50600183015490506110b48161164a565b6110c16020860182611256565b5050505050565b610100820160008201516110df6000850182611229565b5060208201516110f26020850182611229565b5060408201516111056040850182611052565b5060608201516111186080850182611229565b50608082015161112b60a0850182611229565b5060a082015161113e60c0850182611229565b5060c082015161115160e0850182611229565b50505050565b6101008201600080830154905061116d8161164a565b61117a6000860182611256565b506001830154905061118b8161164a565b6111986020860182611256565b50600283016111aa6040860182611081565b50600483015490506111bb8161164a565b6111c86080860182611256565b50600583015490506111d98161164a565b6111e660a0860182611256565b50600683015490506111f78161164a565b61120460c0860182611256565b50600783015490506112158161164a565b61122260e0860182611256565b5050505050565b6112328161160d565b82525050565b6112418161160d565b82525050565b6112508161160d565b82525050565b61125f8161160d565b82525050565b600060208201905061127a6000830184610bfa565b92915050565b6000602082019050818103600083015261129a8184610cdc565b905092915050565b600060a08201905081810360008301526112bc8188610d3a565b905081810360208301526112d08187610d97565b905081810360408301526112e48186610d97565b90506112f36060830185611247565b6113006080830184611247565b9695505050505050565b6000602082019050818103600083015261132381610e4c565b9050919050565b6000602082019050818103600083015261134381610eb2565b9050919050565b600060208201905081810360008301526113648184610f18565b905092915050565b60006020820190506113816000830184611238565b92915050565b6000604051905081810181811067ffffffffffffffff821117156113ae576113ad611664565b5b8060405250919050565b600067ffffffffffffffff8211156113d3576113d2611664565b5b602082029050602081019050919050565b600067ffffffffffffffff8211156113ff576113fe611664565b5b602082029050602081019050919050565b600067ffffffffffffffff82111561142b5761142a611664565b5b602082029050602081019050919050565b600067ffffffffffffffff82111561145757611456611664565b5b601f19601f8301169050602081019050919050565b6000819050602082019050919050565b6000819050602082019050919050565b6000819050602082019050919050565b60008190508160005260206000209050919050565b6000819050602082019050919050565b600081519050919050565b600081519050919050565b600081519050919050565b600081549050919050565b600081519050919050565b600081519050919050565b6000602082019050919050565b6000602082019050919050565b6000602082019050919050565b6000600882019050919050565b6000602082019050919050565b600082825260208201905092915050565b600082825260208201905092915050565b600082825260208201905092915050565b600082825260208201905092915050565b600082825260208201905092915050565b600082825260208201905092915050565b600082825260208201905092915050565b6000819050919050565b60006115d0826115ed565b9050919050565b60008115159050919050565b6000819050919050565b600073ffffffffffffffffffffffffffffffffffffffff82169050919050565b6000819050919050565b60005b8381101561163557808201518184015260208101905061161a565b83811115611644576000848401525b50505050565b600061165d611658836116a4565b6115bb565b9050919050565b7f4e487b7100000000000000000000000000000000000000000000000000000000600052604160045260246000fd5b6000601f19601f8301169050919050565b60008160001c9050919050565b6116ba816115d7565b81146116c557600080fd5b50565b6116d1816115e3565b81146116dc57600080fd5b50565b6116e88161160d565b81146116f357600080fd5b5056fea264697066735822122008686cb9e22317f74b491b78700eed925ee1791ac5df7ea7d682c197cefcfca164736f6c63430008000033",
  "linkReferences": {
    "contracts/GameEngine.sol": {
      "GameEngineLibrary": [
        {
          "length": 20,
          "start": 479
        }
      ]
    }
  },
  "deployedLinkReferences": {
    "contracts/GameEngine.sol": {
      "GameEngineLibrary": [
        {
          "length": 20,
          "start": 383
        }
      ]
    }
  }
}