{
  "_format": "hh-sol-artifact-1",
  "contractName": "GameEngineLibrary",
  "sourceName": "contracts/GameEngine.sol",
  "abi": [
    {
      "inputs": [
        {
          "components": [
            {
              "internalType": "uint16",
              "name": "cp",
              "type": "uint16"
            },
            {
              "internalType": "uint16",
              "name": "hp",
              "type": "uint16"
            },
            {
              "components": [
                {
                  "internalType": "uint16",
                  "name": "base",
                  "type": "uint16"
                },
                {
                  "internalType": "uint16",
                  "name": "variable",
                  "type": "uint16"
                }
              ],
              "internalType": "struct ShipVariableStat",
              "name": "attack",
              "type": "tuple"
            },
            {
              "internalType": "uint16",
              "name": "defence",
              "type": "uint16"
            },
            {
              "internalType": "uint16",
              "name": "speed",
              "type": "uint16"
            },
            {
              "internalType": "uint16",
              "name": "range",
              "type": "uint16"
            },
            {
              "internalType": "uint16",
              "name": "agility",
              "type": "uint16"
            }
          ],
          "internalType": "struct Ship[]",
          "name": "Ships",
          "type": "tuple[]"
        },
        {
          "internalType": "uint16[]",
          "name": "selectionLhs",
          "type": "uint16[]"
        },
        {
          "internalType": "uint16[]",
          "name": "selectionRhs",
          "type": "uint16[]"
        },
        {
          "internalType": "uint16",
          "name": "commanderLhs",
          "type": "uint16"
        },
        {
          "internalType": "uint16",
          "name": "commanderRhs",
          "type": "uint16"
        }
      ],
      "name": "fight",
      "outputs": [
        {
          "components": [
            {
              "internalType": "uint16[]",
              "name": "selectionLhs",
              "type": "uint16[]"
            },
            {
              "internalType": "uint16[]",
              "name": "selectionRhs",
              "type": "uint16[]"
            },
            {
              "internalType": "uint16",
              "name": "commanderLhs",
              "type": "uint16"
            },
            {
              "internalType": "uint16",
              "name": "commanderRhs",
              "type": "uint16"
            },
            {
              "components": [
                {
                  "internalType": "string",
                  "name": "moveType",
                  "type": "string"
                },
                {
                  "internalType": "uint16",
                  "name": "round",
                  "type": "uint16"
                },
                {
                  "internalType": "uint16",
                  "name": "source",
                  "type": "uint16"
                },
                {
                  "internalType": "uint16",
                  "name": "target",
                  "type": "uint16"
                },
                {
                  "internalType": "int16",
                  "name": "targetPosition",
                  "type": "int16"
                },
                {
                  "internalType": "uint64",
                  "name": "damage",
                  "type": "uint64"
                }
              ],
              "internalType": "struct Move[]",
              "name": "lhs",
              "type": "tuple[]"
            },
            {
              "components": [
                {
                  "internalType": "string",
                  "name": "moveType",
                  "type": "string"
                },
                {
                  "internalType": "uint16",
                  "name": "round",
                  "type": "uint16"
                },
                {
                  "internalType": "uint16",
                  "name": "source",
                  "type": "uint16"
                },
                {
                  "internalType": "uint16",
                  "name": "target",
                  "type": "uint16"
                },
                {
                  "internalType": "int16",
                  "name": "targetPosition",
                  "type": "int16"
                },
                {
                  "internalType": "uint64",
                  "name": "damage",
                  "type": "uint64"
                }
              ],
              "internalType": "struct Move[]",
              "name": "rhs",
              "type": "tuple[]"
            },
            {
              "internalType": "int64[]",
              "name": "lhsHp",
              "type": "int64[]"
            },
            {
              "internalType": "int64[]",
              "name": "rhsHp",
              "type": "int64[]"
            },
            {
              "internalType": "bool",
              "name": "lhsDead",
              "type": "bool"
            },
            {
              "internalType": "bool",
              "name": "rhsDead",
              "type": "bool"
            },
            {
              "internalType": "uint16",
              "name": "rounds",
              "type": "uint16"
            }
          ],
          "internalType": "struct FightResult",
          "name": "",
          "type": "tuple"
        }
      ],
      "stateMutability": "view",
      "type": "function"
    },
    {
      "inputs": [
        {
          "components": [
            {
              "internalType": "uint16",
              "name": "cp",
              "type": "uint16"
            },
            {
              "internalType": "uint16",
              "name": "hp",
              "type": "uint16"
            },
            {
              "components": [
                {
                  "internalType": "uint16",
                  "name": "base",
                  "type": "uint16"
                },
                {
                  "internalType": "uint16",
                  "name": "variable",
                  "type": "uint16"
                }
              ],
              "internalType": "struct ShipVariableStat",
              "name": "attack",
              "type": "tuple"
            },
            {
              "internalType": "uint16",
              "name": "defence",
              "type": "uint16"
            },
            {
              "internalType": "uint16",
              "name": "speed",
              "type": "uint16"
            },
            {
              "internalType": "uint16",
              "name": "range",
              "type": "uint16"
            },
            {
              "internalType": "uint16",
              "name": "agility",
              "type": "uint16"
            }
          ],
          "internalType": "struct Ship[]",
          "name": "Ships",
          "type": "tuple[]"
        },
        {
          "internalType": "bool",
          "name": "isLhs",
          "type": "bool"
        },
        {
          "internalType": "uint16",
          "name": "source",
          "type": "uint16"
        },
        {
          "internalType": "int16",
          "name": "direction",
          "type": "int16"
        },
        {
          "internalType": "int16[]",
          "name": "shipPositionsLhs",
          "type": "int16[]"
        },
        {
          "internalType": "int16[]",
          "name": "shipPositionsRhs",
          "type": "int16[]"
        },
        {
          "internalType": "int64[]",
          "name": "shipHpsLhs",
          "type": "int64[]"
        },
        {
          "internalType": "int64[]",
          "name": "shipHpsRhs",
          "type": "int64[]"
        }
      ],
      "name": "moveShips",
      "outputs": [
        {
          "internalType": "int16",
          "name": "",
          "type": "int16"
        }
      ],
      "stateMutability": "pure",
      "type": "function"
    }
  ],
  "bytecode": "0x612f96610053600b82828239805160001a607314610046577f4e487b7100000000000000000000000000000000000000000000000000000000600052600060045260246000fd5b30600052607381538281f3fe73000000000000000000000000000000000000000030146080604052600436106100405760003560e01c806341ce4f68146100455780635306500214610075575b600080fd5b61005f600480360381019061005a9190611f36565b6100a5565b60405161006c91906125ce565b60405180910390f35b61008f600480360381019061008a9190611ff5565b610f8e565b60405161009c9190612593565b60405180910390f35b6100ad611a8c565b60048551146100f1576040517f08c379a00000000000000000000000000000000000000000000000000000000081526004016100e8906125ae565b60405180910390fd5b6004845114610135576040517f08c379a000000000000000000000000000000000000000000000000000000000815260040161012c906125ae565b60405180910390fd5b6000600467ffffffffffffffff811115610178577f4e487b7100000000000000000000000000000000000000000000000000000000600052604160045260246000fd5b6040519080825280602002602001820160405280156101a65781602001602082028036833780820191505090505b509050600a816000815181106101e5577f4e487b7100000000000000000000000000000000000000000000000000000000600052603260045260246000fd5b602002602001019060010b908160010b81525050600b81600181518110610235577f4e487b7100000000000000000000000000000000000000000000000000000000600052603260045260246000fd5b602002602001019060010b908160010b81525050600c81600281518110610285577f4e487b7100000000000000000000000000000000000000000000000000000000600052603260045260246000fd5b602002602001019060010b908160010b81525050600d816003815181106102d5577f4e487b7100000000000000000000000000000000000000000000000000000000600052603260045260246000fd5b602002602001019060010b908160010b815250506000600467ffffffffffffffff81111561032c577f4e487b7100000000000000000000000000000000000000000000000000000000600052604160045260246000fd5b60405190808252806020026020018201604052801561035a5781602001602082028036833780820191505090505b5090507ffffffffffffffffffffffffffffffffffffffffffffffffffffffffffffffff6816000815181106103b8577f4e487b7100000000000000000000000000000000000000000000000000000000600052603260045260246000fd5b602002602001019060010b908160010b815250507ffffffffffffffffffffffffffffffffffffffffffffffffffffffffffffffff581600181518110610427577f4e487b7100000000000000000000000000000000000000000000000000000000600052603260045260246000fd5b602002602001019060010b908160010b815250507ffffffffffffffffffffffffffffffffffffffffffffffffffffffffffffffff481600281518110610496577f4e487b7100000000000000000000000000000000000000000000000000000000600052603260045260246000fd5b602002602001019060010b908160010b815250507ffffffffffffffffffffffffffffffffffffffffffffffffffffffffffffffff381600381518110610505577f4e487b7100000000000000000000000000000000000000000000000000000000600052603260045260246000fd5b602002602001019060010b908160010b815250506000600467ffffffffffffffff81111561055c577f4e487b7100000000000000000000000000000000000000000000000000000000600052604160045260246000fd5b60405190808252806020026020018201604052801561058a5781602001602082028036833780820191505090505b5090506000600467ffffffffffffffff8111156105d0577f4e487b7100000000000000000000000000000000000000000000000000000000600052604160045260246000fd5b6040519080825280602002602001820160405280156105fe5781602001602082028036833780820191505090505b50905060005b60048161ffff16101561080657898161ffff168151811061064e577f4e487b7100000000000000000000000000000000000000000000000000000000600052603260045260246000fd5b602002602001015161ffff168b8261ffff1681518110610697577f4e487b7100000000000000000000000000000000000000000000000000000000600052603260045260246000fd5b60200260200101516020015161ffff166106b191906129a1565b838261ffff16815181106106ee577f4e487b7100000000000000000000000000000000000000000000000000000000600052603260045260246000fd5b602002602001019060070b908160070b81525050888161ffff168151811061073f577f4e487b7100000000000000000000000000000000000000000000000000000000600052603260045260246000fd5b602002602001015161ffff168b8261ffff1681518110610788577f4e487b7100000000000000000000000000000000000000000000000000000000600052603260045260246000fd5b60200260200101516020015161ffff166107a291906129a1565b828261ffff16815181106107df577f4e487b7100000000000000000000000000000000000000000000000000000000600052603260045260246000fd5b602002602001019060070b908160070b8152505080806107fe90612d86565b915050610604565b5061080f611af6565b6004603261081d9190612ac4565b67ffffffffffffffff81111561085c577f4e487b7100000000000000000000000000000000000000000000000000000000600052604160045260246000fd5b60405190808252806020026020018201604052801561089557816020015b610882611b3c565b81526020019060019003908161087a5790505b508160600181905250600460326108ac9190612ac4565b67ffffffffffffffff8111156108eb577f4e487b7100000000000000000000000000000000000000000000000000000000600052604160045260246000fd5b60405190808252806020026020018201604052801561092457816020015b610911611b3c565b8152602001906001900390816109095790505b5081608001819052506000816000019061ffff16908161ffff16815250505b6032816000015161ffff16108015610961575061095f83611191565b155b8015610973575061097182611191565b155b15610efe5760008160a0019061ffff16908161ffff16815250505b60048160a0015161ffff161015610c39576000838260a0015161ffff16815181106109e2577f4e487b7100000000000000000000000000000000000000000000000000000000600052603260045260246000fd5b602002602001015160070b1315610c16576000610a068c8360a00151888887611212565b905060008160010b12610b0c576000610a6d8d8460a0015184888760a0015161ffff1681518110610a60577f4e487b7100000000000000000000000000000000000000000000000000000000600052603260045260246000fd5b60200260200101516113fc565b905080848361ffff1681518110610aad577f4e487b7100000000000000000000000000000000000000000000000000000000600052603260045260246000fd5b60200260200101818151610ac19190612bd6565b91509060070b908160070b81525050610b06836020018051809190610ae590612d86565b61ffff1661ffff16815250846000015185606001518660a001518686611683565b50610c14565b610b418c60018460a001517fffffffffffffffffffffffffffffffffffffffffffffffffffffffffffffffff8a8a8a8a610f8e565b868360a0015161ffff1681518110610b82577f4e487b7100000000000000000000000000000000000000000000000000000000600052603260045260246000fd5b602002602001019060010b908160010b81525050610c13826020018051809190610bab90612d86565b61ffff1661ffff16815250836000015184606001518560a001518a8760a0015161ffff1681518110610c06577f4e487b7100000000000000000000000000000000000000000000000000000000600052603260045260246000fd5b602002602001015161174f565b5b505b8060a0018051809190610c2890612d86565b61ffff1661ffff168152505061098e565b60008160a0019061ffff16908161ffff16815250505b60048160a0015161ffff161015610edb576000828260a0015161ffff1681518110610ca3577f4e487b7100000000000000000000000000000000000000000000000000000000600052603260045260246000fd5b602002602001015160070b1315610eb8576000610cc78c8360a00151878988611212565b905060008160010b12610dcd576000610d2e8d8460a0015184878760a0015161ffff1681518110610d21577f4e487b7100000000000000000000000000000000000000000000000000000000600052603260045260246000fd5b60200260200101516113fc565b905080858361ffff1681518110610d6e577f4e487b7100000000000000000000000000000000000000000000000000000000600052603260045260246000fd5b60200260200101818151610d829190612bd6565b91509060070b908160070b81525050610dc7836040018051809190610da690612d86565b61ffff1661ffff16815250846000015185608001518660a001518686611683565b50610eb6565b610de38c60008460a0015160018a8a8a8a610f8e565b858360a0015161ffff1681518110610e24577f4e487b7100000000000000000000000000000000000000000000000000000000600052603260045260246000fd5b602002602001019060010b908160010b81525050610eb5826040018051809190610e4d90612d86565b61ffff1661ffff16815250836000015184608001518560a00151898760a0015161ffff1681518110610ea8577f4e487b7100000000000000000000000000000000000000000000000000000000600052603260045260246000fd5b602002602001015161174f565b5b505b8060a0018051809190610eca90612d86565b61ffff1661ffff1681525050610c4f565b806000018051809190610eed90612d86565b61ffff1661ffff1681525050610943565b60609350606094506040518061016001604052808b81526020018a81526020018961ffff1681526020018861ffff1681526020018260600151815260200182608001518152602001848152602001838152602001610f5b85611191565b15158152602001610f6b84611191565b15158152602001826000015161ffff168152509550505050505095945050505050565b600080898861ffff1681518110610fce577f4e487b7100000000000000000000000000000000000000000000000000000000600052603260045260246000fd5b602002602001015160800151905060008961102d57858961ffff1681518110611020577f4e487b7100000000000000000000000000000000000000000000000000000000600052603260045260246000fd5b6020026020010151611073565b868961ffff168151811061106a577f4e487b7100000000000000000000000000000000000000000000000000000000600052603260045260246000fd5b60200260200101515b905060008290505b60008160010b131561117b5760008b6110ee57818a61109a91906128c6565b888c61ffff16815181106110d7577f4e487b7100000000000000000000000000000000000000000000000000000000600052603260045260246000fd5b60200260200101516110e991906127a9565b61114a565b818a6110fa91906128c6565b898c61ffff1681518110611137577f4e487b7100000000000000000000000000000000000000000000000000000000600052603260045260246000fd5b602002602001015161114991906127a9565b5b9050611159818a8a8a8a61181b565b15611167578092505061117b565b50808061117390612d3d565b91505061107b565b5060009150809250505098975050505050505050565b6000806001905060005b60048110156112085760008482815181106111df577f4e487b7100000000000000000000000000000000000000000000000000000000600052603260045260246000fd5b602002602001015160070b13156111f557600091505b808061120090612db1565b91505061119b565b5080915050919050565b600080848661ffff1681518110611252577f4e487b7100000000000000000000000000000000000000000000000000000000600052603260045260246000fd5b602002602001015190506000661fffffffffffff90506000805b60048161ffff1610156113b3576000878261ffff16815181106112b8577f4e487b7100000000000000000000000000000000000000000000000000000000600052603260045260246000fd5b6020026020010151905060006112d882876112d39190612b60565b6119c0565b90506000888461ffff1681518110611319577f4e487b7100000000000000000000000000000000000000000000000000000000600052603260045260246000fd5b602002602001015160070b13801561138157508b8b61ffff1681518110611369577f4e487b7100000000000000000000000000000000000000000000000000000000600052603260045260246000fd5b602002602001015160a0015161ffff168161ffff1611155b1561139e57848161ffff16101561139d578061ffff1694508293505b5b505080806113ab90612d86565b91505061126c565b5060009250661fffffffffffff82146113cc57806113ee565b7fffffffffffffffffffffffffffffffffffffffffffffffffffffffffffffffff5b935050505095945050505050565b600080611454868661ffff168151811061143f577f4e487b7100000000000000000000000000000000000000000000000000000000600052603260045260246000fd5b60200260200101516040015160200151611a08565b868661ffff1681518110611491577f4e487b7100000000000000000000000000000000000000000000000000000000600052603260045260246000fd5b602002602001015160400151600001516114ab919061281f565b90506000868561ffff16815181106114ec577f4e487b7100000000000000000000000000000000000000000000000000000000600052603260045260246000fd5b60200260200101516060015190506000878661ffff1681518110611539577f4e487b7100000000000000000000000000000000000000000000000000000000600052603260045260246000fd5b602002602001015160c0015160646115519190612c52565b905060008183856115629190612c52565b61156c9190612a88565b61ffff169050600060018a8a61ffff16815181106115b3577f4e487b7100000000000000000000000000000000000000000000000000000000600052603260045260246000fd5b60200260200101516020015161ffff16886115ce9190612895565b6115d89190612857565b905060008a8961ffff1681518110611619577f4e487b7100000000000000000000000000000000000000000000000000000000600052603260045260246000fd5b60200260200101516020015161ffff168261ffff166116389190612b1e565b905060008261ffff168461164c9190612b1e565b90506000965060009550600094506000925061167261166c600083611a4e565b83611a6d565b975050505050505050949350505050565b6040518060c001604052806040518060400160405280600581526020017f73686f6f7400000000000000000000000000000000000000000000000000000081525081526020018661ffff1681526020018461ffff1681526020018361ffff168152602001600060010b81526020018267ffffffffffffffff16815250848761ffff168151811061173c577f4e487b7100000000000000000000000000000000000000000000000000000000600052603260045260246000fd5b6020026020010181905250505050505050565b6040518060c001604052806040518060400160405280600481526020017f6d6f76650000000000000000000000000000000000000000000000000000000081525081526020018561ffff1681526020018361ffff168152602001600061ffff1681526020018260010b8152602001600067ffffffffffffffff16815250838661ffff1681518110611809577f4e487b7100000000000000000000000000000000000000000000000000000000600052603260045260246000fd5b60200260200101819052505050505050565b6000600f611828876119c0565b61ffff16111561183b57600090506119b7565b6000805b60048161ffff1610156119b0578760010b878261ffff168151811061188d577f4e487b7100000000000000000000000000000000000000000000000000000000600052603260045260246000fd5b602002602001015160010b1480156118ec57506000858261ffff16815181106118df577f4e487b7100000000000000000000000000000000000000000000000000000000600052603260045260246000fd5b602002602001015160070b135b8061199357508760010b868261ffff1681518110611933577f4e487b7100000000000000000000000000000000000000000000000000000000600052603260045260246000fd5b602002602001015160010b14801561199257506000848261ffff1681518110611985577f4e487b7100000000000000000000000000000000000000000000000000000000600052603260045260246000fd5b602002602001015160070b135b5b1561199d57600191505b80806119a890612d86565b91505061183f565b5080159150505b95945050505050565b6000808260010b126119d457819050611a03565b817fffffffffffffffffffffffffffffffffffffffffffffffffffffffffffffffff611a0091906128c6565b90505b919050565b60008161ffff16444233604051602001611a2493929190612556565b6040516020818303038152906040528051906020012060001c611a479190612e28565b9050919050565b60008160070b8360070b13611a635781611a65565b825b905092915050565b60008160070b8360070b12611a825781611a84565b825b905092915050565b6040518061016001604052806060815260200160608152602001600061ffff168152602001600061ffff16815260200160608152602001606081526020016060815260200160608152602001600015158152602001600015158152602001600061ffff1681525090565b6040518060c00160405280600061ffff168152602001600061ffff168152602001600061ffff1681526020016060815260200160608152602001600061ffff1681525090565b6040518060c0016040528060608152602001600061ffff168152602001600061ffff168152602001600061ffff168152602001600060010b8152602001600067ffffffffffffffff1681525090565b6000611b9e611b9984612621565b6125f0565b90508083825260208201905082856020860282011115611bbd57600080fd5b60005b85811015611bed5781611bd38882611dfa565b845260208401935060208301925050600181019050611bc0565b5050509392505050565b6000611c0a611c058461264d565b6125f0565b90508083825260208201905082856020860282011115611c2957600080fd5b60005b85811015611c595781611c3f8882611e0f565b845260208401935060208301925050600181019050611c2c565b5050509392505050565b6000611c76611c7184612679565b6125f0565b9050808382526020820190508285610100860282011115611c9657600080fd5b60005b85811015611cc75781611cac8882611e70565b84526020840193506101008301925050600181019050611c99565b5050509392505050565b6000611ce4611cdf846126a5565b6125f0565b90508083825260208201905082856020860282011115611d0357600080fd5b60005b85811015611d335781611d198882611f21565b845260208401935060208301925050600181019050611d06565b5050509392505050565b600082601f830112611d4e57600080fd5b8135611d5e848260208601611b8b565b91505092915050565b600082601f830112611d7857600080fd5b8135611d88848260208601611bf7565b91505092915050565b600082601f830112611da257600080fd5b8135611db2848260208601611c63565b91505092915050565b600082601f830112611dcc57600080fd5b8135611ddc848260208601611cd1565b91505092915050565b600081359050611df481612f04565b92915050565b600081359050611e0981612f1b565b92915050565b600081359050611e1e81612f32565b92915050565b600060408284031215611e3657600080fd5b611e4060406125f0565b90506000611e5084828501611f21565b6000830152506020611e6484828501611f21565b60208301525092915050565b60006101008284031215611e8357600080fd5b611e8d60e06125f0565b90506000611e9d84828501611f21565b6000830152506020611eb184828501611f21565b6020830152506040611ec584828501611e24565b6040830152506080611ed984828501611f21565b60608301525060a0611eed84828501611f21565b60808301525060c0611f0184828501611f21565b60a08301525060e0611f1584828501611f21565b60c08301525092915050565b600081359050611f3081612f49565b92915050565b600080600080600060a08688031215611f4e57600080fd5b600086013567ffffffffffffffff811115611f6857600080fd5b611f7488828901611d91565b955050602086013567ffffffffffffffff811115611f9157600080fd5b611f9d88828901611dbb565b945050604086013567ffffffffffffffff811115611fba57600080fd5b611fc688828901611dbb565b9350506060611fd788828901611f21565b9250506080611fe888828901611f21565b9150509295509295909350565b600080600080600080600080610100898b03121561201257600080fd5b600089013567ffffffffffffffff81111561202c57600080fd5b6120388b828c01611d91565b98505060206120498b828c01611de5565b975050604061205a8b828c01611f21565b965050606061206b8b828c01611dfa565b955050608089013567ffffffffffffffff81111561208857600080fd5b6120948b828c01611d3d565b94505060a089013567ffffffffffffffff8111156120b157600080fd5b6120bd8b828c01611d3d565b93505060c089013567ffffffffffffffff8111156120da57600080fd5b6120e68b828c01611d67565b92505060e089013567ffffffffffffffff81111561210357600080fd5b61210f8b828c01611d67565b9150509295985092959890939650565b600061212b83836122d8565b60208301905092915050565b60006121438383612498565b905092915050565b60006121578383612521565b60208301905092915050565b61217461216f82612c86565b612dfa565b82525050565b600061218582612701565b61218f8185612754565b935061219a836126d1565b8060005b838110156121cb5781516121b2888261211f565b97506121bd8361272d565b92505060018101905061219e565b5085935050505092915050565b60006121e38261270c565b6121ed8185612765565b9350836020820285016121ff856126e1565b8060005b8581101561223b578484038952815161221c8582612137565b94506122278361273a565b925060208a01995050600181019050612203565b50829750879550505050505092915050565b600061225882612717565b6122628185612776565b935061226d836126f1565b8060005b8381101561229e578151612285888261214b565b975061229083612747565b925050600181019050612271565b5085935050505092915050565b6122b481612c98565b82525050565b6122c381612ca4565b82525050565b6122d281612ca4565b82525050565b6122e181612cb1565b82525050565b60006122f282612722565b6122fc8185612798565b935061230c818560208601612d0a565b61231581612ee6565b840191505092915050565b600061232d602283612787565b91507f53656c656374696f6e206e6565647320746f2068617665203420656c656d656e60008301527f74730000000000000000000000000000000000000000000000000000000000006020830152604082019050919050565b60006101608301600083015184820360008601526123a4828261224d565b915050602083015184820360208601526123be828261224d565b91505060408301516123d36040860182612521565b5060608301516123e66060860182612521565b50608083015184820360808601526123fe82826121d8565b91505060a083015184820360a086015261241882826121d8565b91505060c083015184820360c0860152612432828261217a565b91505060e083015184820360e086015261244c828261217a565b9150506101008301516124636101008601826122ab565b506101208301516124786101208601826122ab565b5061014083015161248d610140860182612521565b508091505092915050565b600060c08301600083015184820360008601526124b582826122e7565b91505060208301516124ca6020860182612521565b5060408301516124dd6040860182612521565b5060608301516124f06060860182612521565b50608083015161250360808601826122c9565b5060a083015161251660a0860182612547565b508091505092915050565b61252a81612cbe565b82525050565b61254161253c82612cec565b612e1e565b82525050565b61255081612cf6565b82525050565b60006125628286612530565b6020820191506125728285612530565b6020820191506125828284612163565b601482019150819050949350505050565b60006020820190506125a860008301846122ba565b92915050565b600060208201905081810360008301526125c781612320565b9050919050565b600060208201905081810360008301526125e88184612386565b905092915050565b6000604051905081810181811067ffffffffffffffff8211171561261757612616612eb7565b5b8060405250919050565b600067ffffffffffffffff82111561263c5761263b612eb7565b5b602082029050602081019050919050565b600067ffffffffffffffff82111561266857612667612eb7565b5b602082029050602081019050919050565b600067ffffffffffffffff82111561269457612693612eb7565b5b602082029050602081019050919050565b600067ffffffffffffffff8211156126c0576126bf612eb7565b5b602082029050602081019050919050565b6000819050602082019050919050565b6000819050602082019050919050565b6000819050602082019050919050565b600081519050919050565b600081519050919050565b600081519050919050565b600081519050919050565b6000602082019050919050565b6000602082019050919050565b6000602082019050919050565b600082825260208201905092915050565b600082825260208201905092915050565b600082825260208201905092915050565b600082825260208201905092915050565b600082825260208201905092915050565b60006127b482612ca4565b91506127bf83612ca4565b925081617fff038313600083121516156127dc576127db612e59565b5b817fffffffffffffffffffffffffffffffffffffffffffffffffffffffffffff800003831260008312161561281457612813612e59565b5b828201905092915050565b600061282a82612cbe565b915061283583612cbe565b92508261ffff0382111561284c5761284b612e59565b5b828201905092915050565b600061286282612cf6565b915061286d83612cf6565b92508267ffffffffffffffff0382111561288a57612889612e59565b5b828201905092915050565b60006128a082612cf6565b91506128ab83612cf6565b9250826128bb576128ba612e88565b5b828204905092915050565b60006128d182612ca4565b91506128dc83612ca4565b925082617fff04821160008413600084131616156128fd576128fc612e59565b5b817fffffffffffffffffffffffffffffffffffffffffffffffffffffffffffff8000058312600084126000841316161561293a57612939612e59565b5b827fffffffffffffffffffffffffffffffffffffffffffffffffffffffffffff8000058212600084136000841216161561297757612976612e59565b5b82617fff058212600084126000841216161561299657612995612e59565b5b828202905092915050565b60006129ac82612cb1565b91506129b783612cb1565b925082677fffffffffffffff04821160008413600084131616156129de576129dd612e59565b5b817fffffffffffffffffffffffffffffffffffffffffffffffff80000000000000000583126000841260008413161615612a1b57612a1a612e59565b5b827fffffffffffffffffffffffffffffffffffffffffffffffff80000000000000000582126000841360008412161615612a5857612a57612e59565b5b82677fffffffffffffff0582126000841260008412161615612a7d57612a7c612e59565b5b828202905092915050565b6000612a9382612cbe565b9150612a9e83612cbe565b92508161ffff0483118215151615612ab957612ab8612e59565b5b828202905092915050565b6000612acf82612cec565b9150612ada83612cec565b9250817fffffffffffffffffffffffffffffffffffffffffffffffffffffffffffffffff0483118215151615612b1357612b12612e59565b5b828202905092915050565b6000612b2982612cf6565b9150612b3483612cf6565b92508167ffffffffffffffff0483118215151615612b5557612b54612e59565b5b828202905092915050565b6000612b6b82612ca4565b9150612b7683612ca4565b9250827fffffffffffffffffffffffffffffffffffffffffffffffffffffffffffff800001821260008412151615612bb157612bb0612e59565b5b82617fff018213600084121615612bcb57612bca612e59565b5b828203905092915050565b6000612be182612cb1565b9150612bec83612cb1565b9250827fffffffffffffffffffffffffffffffffffffffffffffffff800000000000000001821260008412151615612c2757612c26612e59565b5b82677fffffffffffffff018213600084121615612c4757612c46612e59565b5b828203905092915050565b6000612c5d82612cbe565b9150612c6883612cbe565b925082821015612c7b57612c7a612e59565b5b828203905092915050565b6000612c9182612ccc565b9050919050565b60008115159050919050565b60008160010b9050919050565b60008160070b9050919050565b600061ffff82169050919050565b600073ffffffffffffffffffffffffffffffffffffffff82169050919050565b6000819050919050565b600067ffffffffffffffff82169050919050565b60005b83811015612d28578082015181840152602081019050612d0d565b83811115612d37576000848401525b50505050565b6000612d4882612ca4565b91507fffffffffffffffffffffffffffffffffffffffffffffffffffffffffffff8000821415612d7b57612d7a612e59565b5b600182039050919050565b6000612d9182612cbe565b915061ffff821415612da657612da5612e59565b5b600182019050919050565b6000612dbc82612cec565b91507fffffffffffffffffffffffffffffffffffffffffffffffffffffffffffffffff821415612def57612dee612e59565b5b600182019050919050565b6000612e0582612e0c565b9050919050565b6000612e1782612ef7565b9050919050565b6000819050919050565b6000612e3382612cec565b9150612e3e83612cec565b925082612e4e57612e4d612e88565b5b828206905092915050565b7f4e487b7100000000000000000000000000000000000000000000000000000000600052601160045260246000fd5b7f4e487b7100000000000000000000000000000000000000000000000000000000600052601260045260246000fd5b7f4e487b7100000000000000000000000000000000000000000000000000000000600052604160045260246000fd5b6000601f19601f8301169050919050565b60008160601b9050919050565b612f0d81612c98565b8114612f1857600080fd5b50565b612f2481612ca4565b8114612f2f57600080fd5b50565b612f3b81612cb1565b8114612f4657600080fd5b50565b612f5281612cbe565b8114612f5d57600080fd5b5056fea2646970667358221220045bb8650e8c98b886073ac421460167f47af243552f8d84a6bc2bdfb5c0a01864736f6c63430008000033",
  "linkReferences": {},
  "deployedLinkReferences": {}
}