{
  "_format": "hh-sol-artifact-1",
  "contractName": "GameEngine",
  "sourceName": "contracts/GameEngine.sol",
  "abi": [
    {
      "inputs": [
        {
          "internalType": "uint16",
          "name": "index",
          "type": "uint16"
        },
        {
          "internalType": "uint16",
          "name": "cp",
          "type": "uint16"
        },
        {
          "internalType": "uint16",
          "name": "hp",
          "type": "uint16"
        },
        {
          "internalType": "uint16",
          "name": "attackBase",
          "type": "uint16"
        },
        {
          "internalType": "uint16",
          "name": "attackVariable",
          "type": "uint16"
        },
        {
          "internalType": "uint16",
          "name": "defence",
          "type": "uint16"
        },
        {
          "internalType": "uint16",
          "name": "speed",
          "type": "uint16"
        },
        {
          "internalType": "uint16",
          "name": "range",
          "type": "uint16"
        },
        {
          "internalType": "uint16",
          "name": "agility",
          "type": "uint16"
        }
      ],
      "name": "addShip",
      "outputs": [],
      "stateMutability": "nonpayable",
      "type": "function"
    },
    {
      "inputs": [
        {
          "internalType": "uint16[]",
          "name": "selectionLhs",
          "type": "uint16[]"
        },
        {
          "internalType": "uint16[]",
          "name": "selectionRhs",
          "type": "uint16[]"
        },
        {
          "internalType": "uint16",
          "name": "commanderLhs",
          "type": "uint16"
        },
        {
          "internalType": "uint16",
          "name": "commanderRhs",
          "type": "uint16"
        }
      ],
      "name": "fight",
      "outputs": [
        {
          "components": [
            {
              "internalType": "bytes32",
              "name": "nameLhs",
              "type": "bytes32"
            },
            {
              "internalType": "bytes32",
              "name": "nameRhs",
              "type": "bytes32"
            },
            {
              "internalType": "uint16[]",
              "name": "selectionLhs",
              "type": "uint16[]"
            },
            {
              "internalType": "uint16[]",
              "name": "selectionRhs",
              "type": "uint16[]"
            },
            {
              "internalType": "uint16",
              "name": "commanderLhs",
              "type": "uint16"
            },
            {
              "internalType": "uint16",
              "name": "commanderRhs",
              "type": "uint16"
            },
            {
              "components": [
                {
                  "internalType": "uint8",
                  "name": "moveType",
                  "type": "uint8"
                },
                {
                  "internalType": "uint8",
                  "name": "round",
                  "type": "uint8"
                },
                {
                  "internalType": "uint16",
                  "name": "source",
                  "type": "uint16"
                },
                {
                  "internalType": "uint16",
                  "name": "target",
                  "type": "uint16"
                },
                {
                  "internalType": "int16",
                  "name": "targetPosition",
                  "type": "int16"
                },
                {
                  "internalType": "uint64",
                  "name": "damage",
                  "type": "uint64"
                }
              ],
              "internalType": "struct Move[]",
              "name": "lhs",
              "type": "tuple[]"
            },
            {
              "components": [
                {
                  "internalType": "uint8",
                  "name": "moveType",
                  "type": "uint8"
                },
                {
                  "internalType": "uint8",
                  "name": "round",
                  "type": "uint8"
                },
                {
                  "internalType": "uint16",
                  "name": "source",
                  "type": "uint16"
                },
                {
                  "internalType": "uint16",
                  "name": "target",
                  "type": "uint16"
                },
                {
                  "internalType": "int16",
                  "name": "targetPosition",
                  "type": "int16"
                },
                {
                  "internalType": "uint64",
                  "name": "damage",
                  "type": "uint64"
                }
              ],
              "internalType": "struct Move[]",
              "name": "rhs",
              "type": "tuple[]"
            },
            {
              "internalType": "bool",
              "name": "lhsDead",
              "type": "bool"
            },
            {
              "internalType": "bool",
              "name": "rhsDead",
              "type": "bool"
            },
            {
              "internalType": "uint16",
              "name": "rounds",
              "type": "uint16"
            }
          ],
          "internalType": "struct FightResult",
          "name": "",
          "type": "tuple"
        }
      ],
      "stateMutability": "view",
      "type": "function"
    },
    {
      "inputs": [],
      "name": "getShips",
      "outputs": [
        {
          "components": [
            {
              "internalType": "uint16",
              "name": "cp",
              "type": "uint16"
            },
            {
              "internalType": "uint16",
              "name": "hp",
              "type": "uint16"
            },
            {
              "components": [
                {
                  "internalType": "uint16",
                  "name": "base",
                  "type": "uint16"
                },
                {
                  "internalType": "uint16",
                  "name": "variable",
                  "type": "uint16"
                }
              ],
              "internalType": "struct ShipVariableStat",
              "name": "attack",
              "type": "tuple"
            },
            {
              "internalType": "uint16",
              "name": "defence",
              "type": "uint16"
            },
            {
              "internalType": "uint16",
              "name": "speed",
              "type": "uint16"
            },
            {
              "internalType": "uint16",
              "name": "range",
              "type": "uint16"
            },
            {
              "internalType": "uint16",
              "name": "agility",
              "type": "uint16"
            }
          ],
          "internalType": "struct Ship[]",
          "name": "",
          "type": "tuple[]"
        }
      ],
      "stateMutability": "view",
      "type": "function"
    },
    {
      "inputs": [],
      "name": "owner",
      "outputs": [
        {
          "internalType": "address",
          "name": "",
          "type": "address"
        }
      ],
      "stateMutability": "view",
      "type": "function"
    }
  ],
  "bytecode": "0x6080604052600080546001600160a01b0319163317905534801561002257600080fd5b5061100b806100326000396000f3fe608060405234801561001057600080fd5b506004361061004c5760003560e01c80636738f234146100515780638da5cb5b1461006f578063c0749d7a14610084578063c0d0504a146100a4575b600080fd5b6100596100b9565b6040516100669190610c01565b60405180910390f35b6100776101b9565b6040516100669190610bed565b610097610092366004610874565b6101c8565b6040516100669190610e61565b6100b76100b2366004610a46565b6102af565b005b6000546060906001600160a01b031633146100ef5760405162461bcd60e51b81526004016100e690610e0e565b60405180910390fd5b6002805480602002602001604051908101604052809291908181526020016000905b828210156101b05760008481526020908190206040805160e08101825260038602909201805461ffff80821685526201000091829004811685870152835180850185526001808501548084168352849004831682890152948601526002909201548083166060860152908104821660808501526401000000008104821660a0850152660100000000000090041660c08301529083529092019101610111565b50505050905090565b6000546001600160a01b031681565b6101d06105df565b84516004146101f15760405162461bcd60e51b81526004016100e690610dcc565b83516004146102125760405162461bcd60e51b81526004016100e690610dcc565b604051630839c9ed60e31b815273__$d79efa95efdba3999ec736a1a402c0d04a$__906341ce4f6890610252906002908990899089908990600401610cc2565b60006040518083038186803b15801561026a57600080fd5b505af415801561027e573d6000803e3d6000fd5b505050506040513d6000823e601f3d908101601f191682016040526102a691908101906108fa565b95945050505050565b6000546001600160a01b031633146102d95760405162461bcd60e51b81526004016100e690610e0e565b60006040518060e001604052808a61ffff1681526020018961ffff16815260200160405180604001604052808a61ffff1681526020018961ffff1681525081526020018661ffff1681526020018561ffff1681526020018461ffff1681526020018361ffff16815250905080600160008c61ffff16815260200190815260200160002060008201518160000160006101000a81548161ffff021916908361ffff16021790555060208201518160000160026101000a81548161ffff021916908361ffff16021790555060408201518160010160008201518160000160006101000a81548161ffff021916908361ffff16021790555060208201518160000160026101000a81548161ffff021916908361ffff160217905550505060608201518160020160006101000a81548161ffff021916908361ffff16021790555060808201518160020160026101000a81548161ffff021916908361ffff16021790555060a08201518160020160046101000a81548161ffff021916908361ffff16021790555060c08201518160020160066101000a81548161ffff021916908361ffff160217905550905050600281908060018154018082558091505060019003906000526020600020906003020160009091909190915060008201518160000160006101000a81548161ffff021916908361ffff16021790555060208201518160000160026101000a81548161ffff021916908361ffff16021790555060408201518160010160008201518160000160006101000a81548161ffff021916908361ffff16021790555060208201518160000160026101000a81548161ffff021916908361ffff160217905550505060608201518160020160006101000a81548161ffff021916908361ffff16021790555060808201518160020160026101000a81548161ffff021916908361ffff16021790555060a08201518160020160046101000a81548161ffff021916908361ffff16021790555060c08201518160020160066101000a81548161ffff021916908361ffff160217905550505050505050505050505050565b604080516101608101825260008082526020820181905260609282018390528282018390526080820181905260a0820181905260c0820183905260e08201929092526101008101829052610120810182905261014081019190915290565b600082601f83011261064d578081fd5b8151602061066261065d83610f88565b610f5e565b8281528181019085830160c080860288018501891015610680578687fd5b865b868110156107385781838b031215610698578788fd5b6040805183810181811067ffffffffffffffff821117156106bb576106bb610fac565b82526106c685610863565b81526106d3888601610863565b88820152818501516106e481610fc2565b808383015250606091506106f9828601610840565b828201526080915061070c82860161082e565b8282015260a0915061071f82860161084b565b9181019190915285529385019391810191600101610682565b509198975050505050505050565b600082601f830112610756578081fd5b8135602061076661065d83610f88565b8281528181019085830183850287018401881015610782578586fd5b855b858110156107a957813561079781610fc2565b84529284019290840190600101610784565b5090979650505050505050565b600082601f8301126107c6578081fd5b815160206107d661065d83610f88565b82815281810190858301838502870184018810156107f2578586fd5b855b858110156107a957815161080781610fc2565b845292840192908401906001016107f4565b8051801515811461082957600080fd5b919050565b8051600181900b811461082957600080fd5b805161082981610fc2565b805167ffffffffffffffff8116811461082957600080fd5b805160ff8116811461082957600080fd5b60008060008060808587031215610889578384fd5b843567ffffffffffffffff808211156108a0578586fd5b6108ac88838901610746565b955060208701359150808211156108c1578485fd5b506108ce87828801610746565b93505060408501356108df81610fc2565b915060608501356108ef81610fc2565b939692955090935050565b60006020828403121561090b578081fd5b815167ffffffffffffffff80821115610922578283fd5b8184019150610160808387031215610938578384fd5b61094181610f5e565b90508251815260208301516020820152604083015182811115610962578485fd5b61096e878286016107b6565b604083015250606083015182811115610985578485fd5b610991878286016107b6565b6060830152506109a360808401610840565b60808201526109b460a08401610840565b60a082015260c0830151828111156109ca578485fd5b6109d68782860161063d565b60c08301525060e0830151828111156109ed578485fd5b6109f98782860161063d565b60e0830152506101009150610a0f828401610819565b828201526101209150610a23828401610819565b828201526101409150610a37828401610840565b91810191909152949350505050565b60008060008060008060008060006101208a8c031215610a64578485fd5b8935610a6f81610fc2565b985060208a0135610a7f81610fc2565b975060408a0135610a8f81610fc2565b965060608a0135610a9f81610fc2565b955060808a0135610aaf81610fc2565b945060a08a0135610abf81610fc2565b935060c08a0135610acf81610fc2565b925060e08a0135610adf81610fc2565b91506101008a0135610af081610fc2565b809150509295985092959850929598565b6000815180845260208085019450808401835b83811015610b89578151805160ff908116895284820151168489015260408082015161ffff908116918a019190915260608083015190911690890152608080820151600190810b918a019190915260a09182015167ffffffffffffffff169189019190915260c0909701969183019101610b14565b509495945050505050565b6000815180845260208085019450808401835b83811015610b8957815161ffff1687529582019590820190600101610ba7565b15159052565b5461ffff808216835260109190911c16602090910152565b61ffff169052565b6001600160a01b0391909116815260200190565b602080825282518282018190526000919060409081850190868401855b82811015610cb5578151805161ffff908116865287820151811688870152868201518051821688880152880151166060808701919091528101516080610c6681880183610be5565b820151905060a0610c7987820183610be5565b820151905060c0610c8c87820183610be5565b91909101519050610ca060e0860182610be5565b50610100939093019290850190600101610c1e565b5091979650505050505050565b600060a080830181845280895480835260c0925082860191508a85526020808620865b83811015610d7b57815461ffff80821687526010610d098689018385841c16610be5565b610d196040890160018701610bcd565b60028501549250610d2f60808901838516610be5565b610d3f8a89018385841c16610be5565b50610d508888018284881c16610be5565b610d6260e08801828460301c16610be5565b5050610100949094019360039190910190600101610ce5565b50508683039087015250610d8f818a610b94565b925050508281036040840152610da58187610b94565b915050610db56060830185610be5565b610dc26080830184610be5565b9695505050505050565b60208082526022908201527f53656c656374696f6e206e6565647320746f2068617665203420656c656d656e604082015261747360f01b606082015260800190565b60208082526033908201527f546869732066756e6374696f6e206973207265737472696374656420746f207460408201527234329031b7b73a3930b1ba13b99037bbb732b960691b606082015260800190565b60006020825282516020830152602083015160408301526040830151610160806060850152610e94610180850183610b94565b91506060850151601f1980868503016080870152610eb28483610b94565b935060808701519150610ec860a0870183610be5565b60a08701519150610edc60c0870183610be5565b60c08701519150808685030160e0870152610ef78483610b01565b935060e08701519150610100818786030181880152610f168584610b01565b94508088015192505050610120610f2f81870183610bc7565b8601519050610140610f4386820183610bc7565b8601519050610f5485830182610be5565b5090949350505050565b60405181810167ffffffffffffffff81118282101715610f8057610f80610fac565b604052919050565b600067ffffffffffffffff821115610fa257610fa2610fac565b5060209081020190565b634e487b7160e01b600052604160045260246000fd5b61ffff81168114610fd257600080fd5b5056fea26469706673582212208d13840212bdbab036645afeecf90d414d601df5d7314d52e18d4dc61cb8adf664736f6c63430008000033",
  "linkReferences": {
    "contracts/GameEngine.sol": {
      "GameEngineLibrary": [
        {
          "length": 20,
          "start": 595
        }
      ]
    }
  },
  "deployedLinkReferences": {
    "contracts/GameEngine.sol": {
      "GameEngineLibrary": [
        {
          "length": 20,
          "start": 545
        }
      ]
    }
  }
}