{
  "_format": "hh-sol-artifact-1",
  "contractName": "NewOmega",
  "sourceName": "contracts/NewOmega.sol",
  "abi": [
    {
      "anonymous": false,
      "inputs": [
        {
          "indexed": true,
          "internalType": "address",
          "name": "attacker",
          "type": "address"
        },
        {
          "indexed": true,
          "internalType": "address",
          "name": "defender",
          "type": "address"
        },
        {
          "components": [
            {
              "internalType": "uint16[]",
              "name": "selectionLhs",
              "type": "uint16[]"
            },
            {
              "internalType": "uint16[]",
              "name": "selectionRhs",
              "type": "uint16[]"
            },
            {
              "internalType": "uint16",
              "name": "commanderLhs",
              "type": "uint16"
            },
            {
              "internalType": "uint16",
              "name": "commanderRhs",
              "type": "uint16"
            },
            {
              "components": [
                {
                  "internalType": "uint8",
                  "name": "moveType",
                  "type": "uint8"
                },
                {
                  "internalType": "uint8",
                  "name": "round",
                  "type": "uint8"
                },
                {
                  "internalType": "uint8",
                  "name": "source",
                  "type": "uint8"
                },
                {
                  "internalType": "uint8",
                  "name": "target",
                  "type": "uint8"
                },
                {
                  "internalType": "int8",
                  "name": "targetPosition",
                  "type": "int8"
                },
                {
                  "internalType": "uint32",
                  "name": "damage",
                  "type": "uint32"
                }
              ],
              "internalType": "struct Move[]",
              "name": "lhs",
              "type": "tuple[]"
            },
            {
              "components": [
                {
                  "internalType": "uint8",
                  "name": "moveType",
                  "type": "uint8"
                },
                {
                  "internalType": "uint8",
                  "name": "round",
                  "type": "uint8"
                },
                {
                  "internalType": "uint8",
                  "name": "source",
                  "type": "uint8"
                },
                {
                  "internalType": "uint8",
                  "name": "target",
                  "type": "uint8"
                },
                {
                  "internalType": "int8",
                  "name": "targetPosition",
                  "type": "int8"
                },
                {
                  "internalType": "uint32",
                  "name": "damage",
                  "type": "uint32"
                }
              ],
              "internalType": "struct Move[]",
              "name": "rhs",
              "type": "tuple[]"
            },
            {
              "internalType": "bool",
              "name": "lhsDead",
              "type": "bool"
            },
            {
              "internalType": "bool",
              "name": "rhsDead",
              "type": "bool"
            },
            {
              "internalType": "uint8",
              "name": "rounds",
              "type": "uint8"
            }
          ],
          "indexed": false,
          "internalType": "struct FightResult",
          "name": "result",
          "type": "tuple"
        }
      ],
      "name": "FightComplete",
      "type": "event"
    },
    {
      "inputs": [
        {
          "internalType": "uint16",
          "name": "index",
          "type": "uint16"
        },
        {
          "internalType": "uint16",
          "name": "cp",
          "type": "uint16"
        },
        {
          "internalType": "uint16",
          "name": "hp",
          "type": "uint16"
        },
        {
          "internalType": "uint16",
          "name": "attackBase",
          "type": "uint16"
        },
        {
          "internalType": "uint16",
          "name": "attackVariable",
          "type": "uint16"
        },
        {
          "internalType": "uint16",
          "name": "defence",
          "type": "uint16"
        },
        {
          "internalType": "uint16",
          "name": "speed",
          "type": "uint16"
        },
        {
          "internalType": "uint16",
          "name": "range",
          "type": "uint16"
        },
        {
          "internalType": "uint16",
          "name": "agility",
          "type": "uint16"
        }
      ],
      "name": "addShip",
      "outputs": [],
      "stateMutability": "nonpayable",
      "type": "function"
    },
    {
      "inputs": [
        {
          "internalType": "address",
          "name": "enemy",
          "type": "address"
        },
        {
          "internalType": "uint16[]",
          "name": "selection",
          "type": "uint16[]"
        },
        {
          "internalType": "uint16",
          "name": "commander",
          "type": "uint16"
        }
      ],
      "name": "attack",
      "outputs": [],
      "stateMutability": "nonpayable",
      "type": "function"
    },
    {
      "inputs": [],
      "name": "getAllDefenders",
      "outputs": [
        {
          "components": [
            {
              "internalType": "address",
              "name": "player",
              "type": "address"
            },
            {
              "internalType": "bool",
              "name": "isInitialised",
              "type": "bool"
            },
            {
              "internalType": "uint16[]",
              "name": "defenceSelection",
              "type": "uint16[]"
            },
            {
              "internalType": "uint16",
              "name": "commander",
              "type": "uint16"
            },
            {
              "internalType": "bytes32",
              "name": "name",
              "type": "bytes32"
            }
          ],
          "internalType": "struct PlayerDefence[]",
          "name": "",
          "type": "tuple[]"
        }
      ],
      "stateMutability": "view",
      "type": "function"
    },
    {
      "inputs": [],
      "name": "getLeaderboard",
      "outputs": [
        {
          "components": [
            {
              "internalType": "address",
              "name": "player",
              "type": "address"
            },
            {
              "internalType": "bytes32",
              "name": "name",
              "type": "bytes32"
            },
            {
              "internalType": "uint32",
              "name": "wins",
              "type": "uint32"
            },
            {
              "internalType": "uint32",
              "name": "losses",
              "type": "uint32"
            }
          ],
          "internalType": "struct LeaderboardEntry[]",
          "name": "",
          "type": "tuple[]"
        }
      ],
      "stateMutability": "view",
      "type": "function"
    },
    {
      "inputs": [],
      "name": "getOwnDefence",
      "outputs": [
        {
          "components": [
            {
              "internalType": "address",
              "name": "player",
              "type": "address"
            },
            {
              "internalType": "bool",
              "name": "isInitialised",
              "type": "bool"
            },
            {
              "internalType": "uint16[]",
              "name": "defenceSelection",
              "type": "uint16[]"
            },
            {
              "internalType": "uint16",
              "name": "commander",
              "type": "uint16"
            },
            {
              "internalType": "bytes32",
              "name": "name",
              "type": "bytes32"
            }
          ],
          "internalType": "struct PlayerDefence",
          "name": "",
          "type": "tuple"
        }
      ],
      "stateMutability": "view",
      "type": "function"
    },
    {
      "inputs": [],
      "name": "getShips",
      "outputs": [
        {
          "components": [
            {
              "internalType": "uint16",
              "name": "cp",
              "type": "uint16"
            },
            {
              "internalType": "uint16",
              "name": "hp",
              "type": "uint16"
            },
            {
              "components": [
                {
                  "internalType": "uint16",
                  "name": "base",
                  "type": "uint16"
                },
                {
                  "internalType": "uint16",
                  "name": "variable",
                  "type": "uint16"
                }
              ],
              "internalType": "struct ShipVariableStat",
              "name": "attack",
              "type": "tuple"
            },
            {
              "internalType": "uint16",
              "name": "defence",
              "type": "uint16"
            },
            {
              "internalType": "uint16",
              "name": "speed",
              "type": "uint16"
            },
            {
              "internalType": "uint16",
              "name": "range",
              "type": "uint16"
            },
            {
              "internalType": "uint16",
              "name": "agility",
              "type": "uint16"
            }
          ],
          "internalType": "struct Ship[]",
          "name": "",
          "type": "tuple[]"
        }
      ],
      "stateMutability": "view",
      "type": "function"
    },
    {
      "inputs": [],
      "name": "owner",
      "outputs": [
        {
          "internalType": "address",
          "name": "",
          "type": "address"
        }
      ],
      "stateMutability": "view",
      "type": "function"
    },
    {
      "inputs": [
        {
          "internalType": "uint16[]",
          "name": "defence",
          "type": "uint16[]"
        },
        {
          "internalType": "uint16",
          "name": "commander",
          "type": "uint16"
        },
        {
          "internalType": "bytes32",
          "name": "name",
          "type": "bytes32"
        }
      ],
      "name": "registerDefence",
      "outputs": [],
      "stateMutability": "nonpayable",
      "type": "function"
    }
  ],
  "bytecode": "0x6080604052600080546001600160a01b0319163317905534801561002257600080fd5b5061302c806100326000396000f3fe608060405234801561001057600080fd5b50600436106100885760003560e01c80637af584de1161005b5780637af584de146100e85780638da5cb5b146100fd578063c0d0504a14610112578063d43b838c1461012557610088565b806309d273891461008d5780633bed82bf146100a25780636738f234146100b55780636d763a6e146100d3575b600080fd5b6100a061009b366004612606565b61013a565b005b6100a06100b036600461259d565b61036c565b6100bd61060a565b6040516100ca9190612949565b60405180910390f35b6100db610701565b6040516100ca9190612873565b6100f0610856565b6040516100ca91906128e9565b610105610a10565b6040516100ca919061285f565b6100a061012036600461265b565b610a1f565b61012d610d4f565b6040516100ca9190612c30565b6040805160a08101825233808252600160208084019190915282840187905261ffff86166060840152608083018590526000918252600590529190912054600160a01b900460ff166101d657600680546001810182556000919091527ff652222313e28459528d920b65115c16c04f3efc82aaedc97be59f3f377c0d3f01805473ffffffffffffffffffffffffffffffffffffffff1916331790555b3360009081526005602090815260409182902083518154838601511515600160a01b027fffffffffffffffffffffff00ffffffffffffffffffffffffffffffffffffffff6001600160a01b039390931673ffffffffffffffffffffffffffffffffffffffff199092169190911791909116178155918301518051849392610264926001850192910190612315565b50606082015160028201805461ffff191661ffff909216919091179055608090910151600391820155336000908152602091909152604090205460ff166103665760408051606081018252600180825260006020808401828152848601838152338085526003909352958320945185549151965160ff199092169015151764ffffffff00191661010063ffffffff978816021768ffffffff00000000001916650100000000009690911695909502949094179092556004805491820181559091527f8a35acfbc15ff81a39ae7d344fd709f28e8600b4aa8c65c6b64bfe7fe36bd19b01805473ffffffffffffffffffffffffffffffffffffffff191690911790555b50505050565b6001600160a01b038316600090815260056020526040902054600160a01b900460ff166103b45760405162461bcd60e51b81526004016103ab90612a5a565b60405180910390fd5b6001600160a01b0383166000908152600560209081526040808320600101805482518185028101850190935280835261046f93879392919083018282801561044357602002820191906000526020600020906000905b82829054906101000a900461ffff1661ffff168152602001906002019060208260010104928301926001038202915080841161040a5790505b505050506001600160a01b03881660009081526005602052604090206002015486915061ffff16610e60565b90508060c0015115610517576001600160a01b03841660009081526003602052604090208054610100900463ffffffff169060016104ac83612f66565b82546101009290920a63ffffffff8181021990931691831602179091553360009081526003602052604090208054650100000000009004909116915060056104f383612f66565b91906101000a81548163ffffffff021916908363ffffffff160217905550506105b9565b8060e00151156105b9573360009081526003602052604090208054610100900463ffffffff1690600161054983612f66565b82546101009290920a63ffffffff8181021990931691831602179091556001600160a01b038616600090815260036020526040902080546501000000000090049091169150600561059983612f66565b91906101000a81548163ffffffff021916908363ffffffff160217905550505b836001600160a01b0316336001600160a01b03167f7be9189d2924887871648ddf55a6b36f970ee83cdd41ebe6d02422a7381ec93d836040516105fc9190612b4b565b60405180910390a350505050565b6000546060906001600160a01b031633146106375760405162461bcd60e51b81526004016103ab90612aee565b6002805480602002602001604051908101604052809291908181526020016000905b828210156106f85760008481526020908190206040805160e08101825260038602909201805461ffff80821685526201000091829004811685870152835180850185526001808501548084168352849004831682890152948601526002909201548083166060860152908104821660808501526401000000008104821660a0850152660100000000000090041660c08301529083529092019101610659565b50505050905090565b60045460609060009067ffffffffffffffff81111561073057634e487b7160e01b600052604160045260246000fd5b60405190808252806020026020018201604052801561076957816020015b6107566123be565b81526020019060019003908161074e5790505b50905060005b6004548110156108505760006004828154811061079c57634e487b7160e01b600052603260045260246000fd5b6000918252602080832090910154604080516080810182526001600160a01b0390921680835280855260058452818520600390810154848601528186528085528286205463ffffffff610100820481169486019490945295829052909352650100000000009093049092166060830152845190925084908490811061083157634e487b7160e01b600052603260045260246000fd5b602002602001018190525050808061084890612f4b565b91505061076f565b50905090565b60065460609060009067ffffffffffffffff81111561088557634e487b7160e01b600052604160045260246000fd5b6040519080825280602002602001820160405280156108be57816020015b6108ab6123e5565b8152602001906001900390816108a35790505b50905060005b6006548110156108505760056000600683815481106108f357634e487b7160e01b600052603260045260246000fd5b6000918252602080832091909101546001600160a01b039081168452838201949094526040928301909120825160a08101845281549485168152600160a01b90940460ff16151584830152600181018054845181850281018501865281815292948601938301828280156109ae57602002820191906000526020600020906000905b82829054906101000a900461ffff1661ffff16815260200190600201906020826001010492830192600103820291508084116109755790505b5050509183525050600282015461ffff16602082015260039091015460409091015282518390839081106109f257634e487b7160e01b600052603260045260246000fd5b60200260200101819052508080610a0890612f4b565b9150506108c4565b6000546001600160a01b031681565b6000546001600160a01b03163314610a495760405162461bcd60e51b81526004016103ab90612aee565b60006040518060e001604052808a61ffff1681526020018961ffff16815260200160405180604001604052808a61ffff1681526020018961ffff1681525081526020018661ffff1681526020018561ffff1681526020018461ffff1681526020018361ffff16815250905080600160008c61ffff16815260200190815260200160002060008201518160000160006101000a81548161ffff021916908361ffff16021790555060208201518160000160026101000a81548161ffff021916908361ffff16021790555060408201518160010160008201518160000160006101000a81548161ffff021916908361ffff16021790555060208201518160000160026101000a81548161ffff021916908361ffff160217905550505060608201518160020160006101000a81548161ffff021916908361ffff16021790555060808201518160020160026101000a81548161ffff021916908361ffff16021790555060a08201518160020160046101000a81548161ffff021916908361ffff16021790555060c08201518160020160066101000a81548161ffff021916908361ffff160217905550905050600281908060018154018082558091505060019003906000526020600020906003020160009091909190915060008201518160000160006101000a81548161ffff021916908361ffff16021790555060208201518160000160026101000a81548161ffff021916908361ffff16021790555060408201518160010160008201518160000160006101000a81548161ffff021916908361ffff16021790555060208201518160000160026101000a81548161ffff021916908361ffff160217905550505060608201518160020160006101000a81548161ffff021916908361ffff16021790555060808201518160020160026101000a81548161ffff021916908361ffff16021790555060a08201518160020160046101000a81548161ffff021916908361ffff16021790555060c08201518160020160066101000a81548161ffff021916908361ffff160217905550505050505050505050505050565b610d576123e5565b33600090815260056020526040902054600160a01b900460ff16610d8d5760405162461bcd60e51b81526004016103ab90612ab7565b33600090815260056020908152604091829020825160a08101845281546001600160a01b0381168252600160a01b900460ff1615158184015260018201805485518186028101860187528181529295939493860193830182828015610e3957602002820191906000526020600020906000905b82829054906101000a900461ffff1661ffff1681526020019060020190602082600101049283019260010382029150808411610e005790505b5050509183525050600282015461ffff166020820152600390910154604090910152905090565b610e68612414565b8451600414610e895760405162461bcd60e51b81526004016103ab906129fd565b8351600414610eaa5760405162461bcd60e51b81526004016103ab906129fd565b610f7b6002805480602002602001604051908101604052809291908181526020016000905b82821015610f6e5760008481526020908190206040805160e08101825260038602909201805461ffff80821685526201000091829004811685870152835180850185526001808501548084168352849004831682890152948601526002909201548083166060860152908104821660808501526401000000008104821660a0850152660100000000000090041660c08301529083529092019101610ecf565b5050505086868686610f84565b95945050505050565b610f8c612414565b8451600414610fad5760405162461bcd60e51b81526004016103ab906129fd565b8351600414610fce5760405162461bcd60e51b81526004016103ab906129fd565b60408051600480825260a0820190925260009160208201608080368337019050509050600a8160008151811061101457634e487b7160e01b600052603260045260246000fd5b602002602001019060000b908160000b81525050600b8160018151811061104b57634e487b7160e01b600052603260045260246000fd5b602002602001019060000b908160000b81525050600c8160028151811061108257634e487b7160e01b600052603260045260246000fd5b602002602001019060000b908160000b81525050600d816003815181106110b957634e487b7160e01b600052603260045260246000fd5b600092830b830b602091820292909201015260408051600480825260a08201909252908160200160208202803683370190505090506009198160008151811061111257634e487b7160e01b600052603260045260246000fd5b602002602001019060000b908160000b81525050600a198160018151811061114a57634e487b7160e01b600052603260045260246000fd5b602002602001019060000b908160000b81525050600b198160028151811061118257634e487b7160e01b600052603260045260246000fd5b602002602001019060000b908160000b81525050600c19816003815181106111ba57634e487b7160e01b600052603260045260246000fd5b600092830b830b602091820292909201015260408051600480825260a0820190925290816020016020820280368337505060408051600480825260a0820190925292935060009291506020820160808036833701905050905060005b600461ffff8216101561138257898161ffff168151811061124757634e487b7160e01b600052603260045260246000fd5b602002602001015161ffff168b8261ffff168151811061127757634e487b7160e01b600052603260045260246000fd5b60200260200101516020015161ffff166112919190612d8f565b838261ffff16815181106112b557634e487b7160e01b600052603260045260246000fd5b602002602001019060070b908160070b81525050888161ffff16815181106112ed57634e487b7160e01b600052603260045260246000fd5b602002602001015161ffff168b8261ffff168151811061131d57634e487b7160e01b600052603260045260246000fd5b60200260200101516020015161ffff166113379190612d8f565b828261ffff168151811061135b57634e487b7160e01b600052603260045260246000fd5b602002602001019060070b908160070b81525050808061137a90612f29565b915050611216565b5061138b61245f565b61139760046014612e2e565b60ff1667ffffffffffffffff8111156113c057634e487b7160e01b600052604160045260246000fd5b6040519080825280602002602001820160405280156113f957816020015b6113e66124a2565b8152602001906001900390816113de5790505b50606082015261140b60046014612e2e565b60ff1667ffffffffffffffff81111561143457634e487b7160e01b600052604160045260246000fd5b60405190808252806020026020018201604052801561146d57816020015b61145a6124a2565b8152602001906001900390816114525790505b5060a0820152600081525b8051601460ff909116108015611494575061149283611b29565b155b80156114a657506114a482611b29565b155b156118c357600060e08201525b600460ff168160e0015160ff1610156116b7576000838260e0015160ff16815181106114ef57634e487b7160e01b600052603260045260246000fd5b602002602001015160070b131561169c5760006115138c8360e00151888887611b8b565b905060008160000b126115e55760006115608d8460e0015184888760e0015160ff168151811061155357634e487b7160e01b600052603260045260246000fd5b6020026020010151611cf2565b90508063ffffffff16848360ff168151811061158c57634e487b7160e01b600052603260045260246000fd5b602002602001018181516115a09190612e9c565b600790810b900b9052506020830180516115df916115bd82612f80565b60ff1660ff1681525060ff16846000015185606001518660e001518686611ee3565b5061169a565b6115ff8c60018460e0015160ff166000198a8a8a8a611f5d565b868360e0015160ff168151811061162657634e487b7160e01b600052603260045260246000fd5b600092830b90920b6020928302919091018201528201805161169a9161164b82612f80565b60ff1660ff1681525060ff16836000015184606001518560e001518a8760e0015160ff168151811061168d57634e487b7160e01b600052603260045260246000fd5b60200260200101516120d3565b505b60e081018051906116ac82612f80565b60ff169052506114b3565b600060e08201525b600460ff168160e0015160ff1610156118ac576000828260e0015160ff16815181106116fb57634e487b7160e01b600052603260045260246000fd5b602002602001015160070b131561189157600061171f8c8360e00151878988611b8b565b905060008160000b126117e457600061175f8d8460e0015184878760e0015160ff168151811061155357634e487b7160e01b600052603260045260246000fd5b90508063ffffffff16858360ff168151811061178b57634e487b7160e01b600052603260045260246000fd5b6020026020010181815161179f9190612e9c565b600790810b900b9052506040830180516117de916117bc82612f80565b60ff1660ff1681525060ff1684600001518560a001518660e001518686611ee3565b5061188f565b6117fd8c60008460e0015160ff1660018a8a8a8a611f5d565b858360e0015160ff168151811061182457634e487b7160e01b600052603260045260246000fd5b602002602001019060000b908160000b8152505061188f82604001805180919061184d90612f80565b60ff1660ff1681525060ff1683600001518460a001518560e00151898760e0015160ff168151811061168d57634e487b7160e01b600052603260045260246000fd5b505b60e081018051906118a182612f80565b60ff169052506116bf565b8051816118b882612f80565b60ff16905250611478565b80516118d190600490612e2e565b60ff1667ffffffffffffffff8111156118fa57634e487b7160e01b600052604160045260246000fd5b60405190808252806020026020018201604052801561193357816020015b6119206124a2565b8152602001906001900390816119185790505b506080820152805161194790600490612e2e565b60ff1667ffffffffffffffff81111561197057634e487b7160e01b600052604160045260246000fd5b6040519080825280602002602001820160405280156119a957816020015b6119966124a2565b81526020019060019003908161198e5790505b5060c082015260005b81516119c090600490612e2e565b60ff168161ffff161015611aa75781606001518161ffff16815181106119f657634e487b7160e01b600052603260045260246000fd5b602002602001015182608001518261ffff1681518110611a2657634e487b7160e01b600052603260045260246000fd5b60200260200101819052508160a001518161ffff1681518110611a5957634e487b7160e01b600052603260045260246000fd5b60200260200101518260c001518261ffff1681518110611a8957634e487b7160e01b600052603260045260246000fd5b60200260200101819052508080611a9f90612f29565b9150506119b2565b5060609350606094506040518061012001604052808b81526020018a81526020018961ffff1681526020018861ffff168152602001826080015181526020018260c001518152602001611af985611b29565b15158152602001611b0984611b29565b15158152915160ff166020909201919091529a9950505050505050505050565b60006001815b6004811015611b82576000848281518110611b5a57634e487b7160e01b600052603260045260246000fd5b602002602001015160070b1315611b7057600091505b80611b7a81612f4b565b915050611b2f565b5090505b919050565b600080848660ff1681518110611bb157634e487b7160e01b600052603260045260246000fd5b602002602001015160000b90506000661fffffffffffff90506000805b600460ff82161015611cc8576000878260ff1681518110611bff57634e487b7160e01b600052603260045260246000fd5b602002602001015190506000611c228260000b87611c1d9190612e57565b612142565b90506000888460ff1681518110611c4957634e487b7160e01b600052603260045260246000fd5b602002602001015160070b138015611c9757508b8b60ff1681518110611c7f57634e487b7160e01b600052603260045260246000fd5b602002602001015160a0015161ffff168161ffff1611155b15611cb357848161ffff161015611cb3578061ffff1694508293505b50508080611cc090612f80565b915050611bce565b5060009250661fffffffffffff8214611ce15780611ce5565b6000195b9998505050505050505050565b600080611d30868660ff1681518110611d1b57634e487b7160e01b600052603260045260246000fd5b60200260200101516040015160200151612168565b868660ff1681518110611d5357634e487b7160e01b600052603260045260246000fd5b60200260200101516040015160000151611d6d9190612c83565b90506000868560ff1681518110611d9457634e487b7160e01b600052603260045260246000fd5b60200260200101516060015190506000878660ff1681518110611dc757634e487b7160e01b600052603260045260246000fd5b602002602001015160c001516064611ddf9190612ee3565b90506000600a82611df08587612ee3565b611dfa9190612de1565b611e049190612ccc565b61ffff1690506000898960ff1681518110611e2f57634e487b7160e01b600052603260045260246000fd5b60200260200101516020015161ffff1687611e4a9190612ced565b611e55906001612ca9565b905060008a8960ff1681518110611e7c57634e487b7160e01b600052603260045260246000fd5b60200260200101516020015161ffff168261ffff16611e9b9190612e0b565b90506000611ead61ffff841685612e0b565b905060009650600095506000945060009250611ed3611ecd6000836121ad565b836121cb565b9c9b505050505050505050505050565b6040518060c00160405280600160ff1681526020018660ff1681526020018460ff1681526020018360ff1681526020016000800b81526020018263ffffffff16815250848761ffff1681518110611f4a57634e487b7160e01b600052603260045260246000fd5b6020026020010181905250505050505050565b600080898861ffff1681518110611f8457634e487b7160e01b600052603260045260246000fd5b6020026020010151608001519050600089611fca57858961ffff1681518110611fbd57634e487b7160e01b600052603260045260246000fd5b6020026020010151611ff7565b868961ffff1681518110611fee57634e487b7160e01b600052603260045260246000fd5b60200260200101515b9050815b60008160010b13156120c45760008b61205357612018828b612d08565b888c61ffff168151811061203c57634e487b7160e01b600052603260045260246000fd5b602002602001015161204e9190612c43565b612093565b61205d828b612d08565b898c61ffff168151811061208157634e487b7160e01b600052603260045260246000fd5b60200260200101516120939190612c43565b90506120a58160000b8a8a8a8a6121e0565b156120b15791506120c4565b50806120bc81612f06565b915050611ffb565b509a9950505050505050505050565b6040805160c0810182526002815260ff868116602083015284169181019190915260006060820181905282810b608083015260a08201528351849061ffff881690811061213057634e487b7160e01b600052603260045260246000fd5b60200260200101819052505050505050565b6000808260010b12612155575080611b86565b61216182600019612d08565b9050611b86565b60008161ffff1644423360405160200161218493929190612824565b6040516020818303038152906040528051906020012060001c6121a79190612fa0565b92915050565b60008160030b8360030b136121c257816121c4565b825b9392505050565b60008160030b8360030b126121c257816121c4565b6000600f6121ed87612142565b61ffff1611156121ff57506000610f7b565b6000805b600460ff82161015612309578760010b878260ff168151811061223657634e487b7160e01b600052603260045260246000fd5b602002602001015160000b14801561227b57506000858260ff168151811061226e57634e487b7160e01b600052603260045260246000fd5b602002602001015160070b135b806122ed57508760010b868260ff16815181106122a857634e487b7160e01b600052603260045260246000fd5b602002602001015160000b1480156122ed57506000848260ff16815181106122e057634e487b7160e01b600052603260045260246000fd5b602002602001015160070b135b156122f757600191505b8061230181612f80565b915050612203565b50159695505050505050565b82805482825590600052602060002090600f016010900481019282156123ae5791602002820160005b8382111561237e57835183826101000a81548161ffff021916908361ffff160217905550926020019260020160208160010104928301926001030261233e565b80156123ac5782816101000a81549061ffff021916905560020160208160010104928301926001030261237e565b505b506123ba9291506124d7565b5090565b60408051608081018252600080825260208201819052918101829052606081019190915290565b6040805160a0810182526000808252602082018190526060928201839052918101829052608081019190915290565b604080516101208101825260608082526020820181905260009282018390528082018390526080820181905260a082015260c0810182905260e0810182905261010081019190915290565b604080516101008101825260008082526020820181905291810182905260608082018190526080820181905260a0820181905260c082015260e081019190915290565b6040805160c081018252600080825260208201819052918101829052606081018290526080810182905260a081019190915290565b5b808211156123ba57600081556001016124d8565b600082601f8301126124fc578081fd5b8135602067ffffffffffffffff8083111561251957612519612fe0565b8183026040518382820101818110848211171561253857612538612fe0565b60405284815283810192508684018288018501891015612556578687fd5b8692505b8583101561257f5761256b8161258b565b84529284019260019290920191840161255a565b50979650505050505050565b803561ffff81168114611b8657600080fd5b6000806000606084860312156125b1578283fd5b83356001600160a01b03811681146125c7578384fd5b9250602084013567ffffffffffffffff8111156125e2578283fd5b6125ee868287016124ec565b9250506125fd6040850161258b565b90509250925092565b60008060006060848603121561261a578283fd5b833567ffffffffffffffff811115612630578384fd5b61263c868287016124ec565b93505061264b6020850161258b565b9150604084013590509250925092565b60008060008060008060008060006101208a8c031215612679578485fd5b6126828a61258b565b985061269060208b0161258b565b975061269e60408b0161258b565b96506126ac60608b0161258b565b95506126ba60808b0161258b565b94506126c860a08b0161258b565b93506126d660c08b0161258b565b92506126e460e08b0161258b565b91506126f36101008b0161258b565b90509295985092959850929598565b6000815180845260208085019450808401835b83811015612779578151805160ff9081168952848201518116858a01526040808301518216908a015260608083015190911690890152608080820151870b9089015260a09081015163ffffffff169088015260c09096019590820190600101612715565b509495945050505050565b6000815180845260208085019450808401835b8381101561277957815161ffff1687529582019590820190600101612797565b15159052565b60006001600160a01b038251168352602082015115156020840152604082015160a060408501526127f160a0850182612784565b905061ffff6060840151166060850152608083015160808501528091505092915050565b61ffff169052565b60ff169052565b928352602083019190915260601b7fffffffffffffffffffffffffffffffffffffffff00000000000000000000000016604082015260540190565b6001600160a01b0391909116815260200190565b602080825282518282018190526000919060409081850190868401855b828110156128dc57815180516001600160a01b0316855286810151878601528581015163ffffffff90811687870152606091820151169085015260809093019290850190600101612890565b5091979650505050505050565b6000602080830181845280855180835260408601915060408482028701019250838701855b8281101561293c57603f1988860301845261292a8583516127bd565b9450928501929085019060010161290e565b5092979650505050505050565b602080825282518282018190526000919060409081850190868401855b828110156128dc578151805161ffff9081168652878201518116888701528682015180518216888801528801511660608087019190915281015160806129ae81880183612815565b820151905060a06129c187820183612815565b820151905060c06129d487820183612815565b919091015190506129e860e0860182612815565b50610100939093019290850190600101612966565b60208082526022908201527f53656c656374696f6e206e6565647320746f2068617665203420656c656d656e60408201527f7473000000000000000000000000000000000000000000000000000000000000606082015260800190565b60208082526024908201527f43616e206f6e6c792061747461636b206120726567697374657265642064656660408201527f656e636500000000000000000000000000000000000000000000000000000000606082015260800190565b60208082526016908201527f446566656e6365206e6f74207265676973746572656400000000000000000000604082015260600190565b60208082526033908201527f546869732066756e6374696f6e206973207265737472696374656420746f207460408201527f686520636f6e74726163742773206f776e657200000000000000000000000000606082015260800190565b6000602082528251610120806020850152612b6a610140850183612784565b91506020850151601f1980868503016040870152612b888483612784565b935060408701519150612b9e6060870183612815565b60608701519150612bb26080870183612815565b60808701519150808685030160a0870152612bcd8483612702565b935060a08701519150808685030160c087015250612beb8382612702565b92505060c0850151612c0060e08601826127b7565b5060e0850151610100612c15818701836127b7565b8601519050612c268583018261281d565b5090949350505050565b6000602082526121c460208301846127bd565b600081810b83820b82821282607f03821381151615612c6457612c64612fb4565b82607f19038212811615612c7a57612c7a612fb4565b50019392505050565b600061ffff808316818516808303821115612ca057612ca0612fb4565b01949350505050565b600067ffffffffffffffff808316818516808303821115612ca057612ca0612fb4565b600061ffff80841680612ce157612ce1612fca565b92169190910492915050565b600067ffffffffffffffff80841680612ce157612ce1612fca565b60008160010b8360010b617fff83821384841383830485118282161615612d3157612d31612fb4565b617fff1986851282811687830587121615612d4e57612d4e612fb4565b878712925085820587128484161615612d6957612d69612fb4565b85850587128184161615612d7f57612d7f612fb4565b5050509290910295945050505050565b60008160070b8360070b677fffffffffffffff83821384841383830485118282161615612dbe57612dbe612fb4565b677fffffffffffffff1986851282811687830587121615612d4e57612d4e612fb4565b600061ffff80831681851681830481118215151615612e0257612e02612fb4565b02949350505050565b600063ffffffff80831681851681830481118215151615612e0257612e02612fb4565b600060ff821660ff84168160ff0481118215151615612e4f57612e4f612fb4565b029392505050565b60008160010b8360010b82811281617fff1901831281151615612e7c57612e7c612fb4565b81617fff018313811615612e9257612e92612fb4565b5090039392505050565b60008160070b8360070b82811281677fffffffffffffff1901831281151615612ec757612ec7612fb4565b81677fffffffffffffff018313811615612e9257612e92612fb4565b600061ffff83811690831681811015612efe57612efe612fb4565b039392505050565b60008160010b617fff19811415612f1f57612f1f612fb4565b6000190192915050565b600061ffff80831681811415612f4157612f41612fb4565b6001019392505050565b6000600019821415612f5f57612f5f612fb4565b5060010190565b600063ffffffff80831681811415612f4157612f41612fb4565b600060ff821660ff811415612f9757612f97612fb4565b60010192915050565b600082612faf57612faf612fca565b500690565b634e487b7160e01b600052601160045260246000fd5b634e487b7160e01b600052601260045260246000fd5b634e487b7160e01b600052604160045260246000fdfea2646970667358221220bc3eff12f1fac066c9ba5ef2d2f9853d56bc73301870fbc232a81abe34e29f1d64736f6c63430008000033",
  "linkReferences": {},
  "deployedLinkReferences": {}
}