{
  "_format": "hh-sol-artifact-1",
  "contractName": "NewOmega",
  "sourceName": "contracts/NewOmega.sol",
  "abi": [
    {
      "anonymous": false,
      "inputs": [
        {
          "indexed": true,
          "internalType": "address",
          "name": "attacker",
          "type": "address"
        },
        {
          "indexed": true,
          "internalType": "address",
          "name": "defender",
          "type": "address"
        },
        {
          "components": [
            {
              "internalType": "uint8[]",
              "name": "selectionLhs",
              "type": "uint8[]"
            },
            {
              "internalType": "uint8[]",
              "name": "selectionRhs",
              "type": "uint8[]"
            },
            {
              "internalType": "uint8",
              "name": "commanderLhs",
              "type": "uint8"
            },
            {
              "internalType": "uint8",
              "name": "commanderRhs",
              "type": "uint8"
            },
            {
              "components": [
                {
                  "internalType": "uint8",
                  "name": "moveType",
                  "type": "uint8"
                },
                {
                  "internalType": "uint8",
                  "name": "round",
                  "type": "uint8"
                },
                {
                  "internalType": "uint8",
                  "name": "source",
                  "type": "uint8"
                },
                {
                  "internalType": "uint8",
                  "name": "target",
                  "type": "uint8"
                },
                {
                  "internalType": "int8",
                  "name": "targetPosition",
                  "type": "int8"
                },
                {
                  "internalType": "uint32",
                  "name": "damage",
                  "type": "uint32"
                }
              ],
              "internalType": "struct Move[]",
              "name": "lhs",
              "type": "tuple[]"
            },
            {
              "components": [
                {
                  "internalType": "uint8",
                  "name": "moveType",
                  "type": "uint8"
                },
                {
                  "internalType": "uint8",
                  "name": "round",
                  "type": "uint8"
                },
                {
                  "internalType": "uint8",
                  "name": "source",
                  "type": "uint8"
                },
                {
                  "internalType": "uint8",
                  "name": "target",
                  "type": "uint8"
                },
                {
                  "internalType": "int8",
                  "name": "targetPosition",
                  "type": "int8"
                },
                {
                  "internalType": "uint32",
                  "name": "damage",
                  "type": "uint32"
                }
              ],
              "internalType": "struct Move[]",
              "name": "rhs",
              "type": "tuple[]"
            },
            {
              "internalType": "bool",
              "name": "lhsDead",
              "type": "bool"
            },
            {
              "internalType": "bool",
              "name": "rhsDead",
              "type": "bool"
            },
            {
              "internalType": "uint8",
              "name": "rounds",
              "type": "uint8"
            },
            {
              "internalType": "uint256",
              "name": "seed",
              "type": "uint256"
            }
          ],
          "indexed": false,
          "internalType": "struct FightResult",
          "name": "result",
          "type": "tuple"
        }
      ],
      "name": "FightComplete",
      "type": "event"
    },
    {
      "inputs": [
        {
          "internalType": "uint16",
          "name": "index",
          "type": "uint16"
        },
        {
          "internalType": "uint16",
          "name": "cp",
          "type": "uint16"
        },
        {
          "internalType": "uint16",
          "name": "hp",
          "type": "uint16"
        },
        {
          "internalType": "uint16",
          "name": "attackBase",
          "type": "uint16"
        },
        {
          "internalType": "uint16",
          "name": "attackVariable",
          "type": "uint16"
        },
        {
          "internalType": "uint16",
          "name": "defence",
          "type": "uint16"
        },
        {
          "internalType": "uint16",
          "name": "speed",
          "type": "uint16"
        },
        {
          "internalType": "uint16",
          "name": "range",
          "type": "uint16"
        },
        {
          "internalType": "uint16",
          "name": "agility",
          "type": "uint16"
        }
      ],
      "name": "addShip",
      "outputs": [],
      "stateMutability": "nonpayable",
      "type": "function"
    },
    {
      "inputs": [
        {
          "internalType": "address",
          "name": "enemy",
          "type": "address"
        },
        {
          "internalType": "uint8[]",
          "name": "selection",
          "type": "uint8[]"
        },
        {
          "internalType": "uint8",
          "name": "commander",
          "type": "uint8"
        }
      ],
      "name": "attack",
      "outputs": [],
      "stateMutability": "nonpayable",
      "type": "function"
    },
    {
      "inputs": [],
      "name": "getAllDefenders",
      "outputs": [
        {
          "components": [
            {
              "internalType": "address",
              "name": "player",
              "type": "address"
            },
            {
              "internalType": "bool",
              "name": "isInitialised",
              "type": "bool"
            },
            {
              "internalType": "uint8[]",
              "name": "defenceSelection",
              "type": "uint8[]"
            },
            {
              "internalType": "uint8",
              "name": "commander",
              "type": "uint8"
            },
            {
              "internalType": "bytes32",
              "name": "name",
              "type": "bytes32"
            }
          ],
          "internalType": "struct PlayerDefence[]",
          "name": "",
          "type": "tuple[]"
        }
      ],
      "stateMutability": "view",
      "type": "function"
    },
    {
      "inputs": [],
      "name": "getLeaderboard",
      "outputs": [
        {
          "components": [
            {
              "internalType": "address",
              "name": "player",
              "type": "address"
            },
            {
              "internalType": "bytes32",
              "name": "name",
              "type": "bytes32"
            },
            {
              "internalType": "uint32",
              "name": "wins",
              "type": "uint32"
            },
            {
              "internalType": "uint32",
              "name": "losses",
              "type": "uint32"
            }
          ],
          "internalType": "struct LeaderboardEntry[]",
          "name": "",
          "type": "tuple[]"
        }
      ],
      "stateMutability": "view",
      "type": "function"
    },
    {
      "inputs": [],
      "name": "getOwnDefence",
      "outputs": [
        {
          "components": [
            {
              "internalType": "address",
              "name": "player",
              "type": "address"
            },
            {
              "internalType": "bool",
              "name": "isInitialised",
              "type": "bool"
            },
            {
              "internalType": "uint8[]",
              "name": "defenceSelection",
              "type": "uint8[]"
            },
            {
              "internalType": "uint8",
              "name": "commander",
              "type": "uint8"
            },
            {
              "internalType": "bytes32",
              "name": "name",
              "type": "bytes32"
            }
          ],
          "internalType": "struct PlayerDefence",
          "name": "",
          "type": "tuple"
        }
      ],
      "stateMutability": "view",
      "type": "function"
    },
    {
      "inputs": [],
      "name": "getShips",
      "outputs": [
        {
          "components": [
            {
              "internalType": "uint16",
              "name": "cp",
              "type": "uint16"
            },
            {
              "internalType": "uint16",
              "name": "hp",
              "type": "uint16"
            },
            {
              "components": [
                {
                  "internalType": "uint16",
                  "name": "base",
                  "type": "uint16"
                },
                {
                  "internalType": "uint16",
                  "name": "variable",
                  "type": "uint16"
                }
              ],
              "internalType": "struct ShipVariableStat",
              "name": "attack",
              "type": "tuple"
            },
            {
              "internalType": "uint16",
              "name": "defence",
              "type": "uint16"
            },
            {
              "internalType": "uint16",
              "name": "speed",
              "type": "uint16"
            },
            {
              "internalType": "uint16",
              "name": "range",
              "type": "uint16"
            },
            {
              "internalType": "uint16",
              "name": "agility",
              "type": "uint16"
            }
          ],
          "internalType": "struct Ship[]",
          "name": "",
          "type": "tuple[]"
        }
      ],
      "stateMutability": "view",
      "type": "function"
    },
    {
      "inputs": [],
      "name": "owner",
      "outputs": [
        {
          "internalType": "address",
          "name": "",
          "type": "address"
        }
      ],
      "stateMutability": "view",
      "type": "function"
    },
    {
      "inputs": [
        {
          "internalType": "uint8[]",
          "name": "defence",
          "type": "uint8[]"
        },
        {
          "internalType": "uint8",
          "name": "commander",
          "type": "uint8"
        },
        {
          "internalType": "bytes32",
          "name": "name",
          "type": "bytes32"
        }
      ],
      "name": "registerDefence",
      "outputs": [],
      "stateMutability": "nonpayable",
      "type": "function"
    },
    {
      "inputs": [
        {
          "internalType": "uint256",
          "name": "seed",
          "type": "uint256"
        },
        {
          "internalType": "uint8[]",
          "name": "selectionLhs",
          "type": "uint8[]"
        },
        {
          "internalType": "uint8[]",
          "name": "selectionRhs",
          "type": "uint8[]"
        },
        {
          "internalType": "uint8",
          "name": "commanderLhs",
          "type": "uint8"
        },
        {
          "internalType": "uint8",
          "name": "commanderRhs",
          "type": "uint8"
        }
      ],
      "name": "replay",
      "outputs": [
        {
          "components": [
            {
              "internalType": "uint8[]",
              "name": "selectionLhs",
              "type": "uint8[]"
            },
            {
              "internalType": "uint8[]",
              "name": "selectionRhs",
              "type": "uint8[]"
            },
            {
              "internalType": "uint8",
              "name": "commanderLhs",
              "type": "uint8"
            },
            {
              "internalType": "uint8",
              "name": "commanderRhs",
              "type": "uint8"
            },
            {
              "components": [
                {
                  "internalType": "uint8",
                  "name": "moveType",
                  "type": "uint8"
                },
                {
                  "internalType": "uint8",
                  "name": "round",
                  "type": "uint8"
                },
                {
                  "internalType": "uint8",
                  "name": "source",
                  "type": "uint8"
                },
                {
                  "internalType": "uint8",
                  "name": "target",
                  "type": "uint8"
                },
                {
                  "internalType": "int8",
                  "name": "targetPosition",
                  "type": "int8"
                },
                {
                  "internalType": "uint32",
                  "name": "damage",
                  "type": "uint32"
                }
              ],
              "internalType": "struct Move[]",
              "name": "lhs",
              "type": "tuple[]"
            },
            {
              "components": [
                {
                  "internalType": "uint8",
                  "name": "moveType",
                  "type": "uint8"
                },
                {
                  "internalType": "uint8",
                  "name": "round",
                  "type": "uint8"
                },
                {
                  "internalType": "uint8",
                  "name": "source",
                  "type": "uint8"
                },
                {
                  "internalType": "uint8",
                  "name": "target",
                  "type": "uint8"
                },
                {
                  "internalType": "int8",
                  "name": "targetPosition",
                  "type": "int8"
                },
                {
                  "internalType": "uint32",
                  "name": "damage",
                  "type": "uint32"
                }
              ],
              "internalType": "struct Move[]",
              "name": "rhs",
              "type": "tuple[]"
            },
            {
              "internalType": "bool",
              "name": "lhsDead",
              "type": "bool"
            },
            {
              "internalType": "bool",
              "name": "rhsDead",
              "type": "bool"
            },
            {
              "internalType": "uint8",
              "name": "rounds",
              "type": "uint8"
            },
            {
              "internalType": "uint256",
              "name": "seed",
              "type": "uint256"
            }
          ],
          "internalType": "struct FightResult",
          "name": "",
          "type": "tuple"
        }
      ],
      "stateMutability": "view",
      "type": "function"
    }
  ],
  "bytecode": "0x6080604052600080546001600160a01b0319163317905534801561002257600080fd5b5061301c806100326000396000f3fe608060405234801561001057600080fd5b50600436106100a35760003560e01c80637af584de11610076578063c0d0504a1161005b578063c0d0504a1461013a578063d2eaefdb1461014d578063d43b838c14610160576100a3565b80637af584de146101105780638da5cb5b14610125576100a3565b80630d055a47146100a857806362a74512146100d15780636738f234146100e65780636d763a6e146100fb575b600080fd5b6100bb6100b636600461265e565b610175565b6040516100c89190612b31565b60405180910390f35b6100e46100df3660046124f9565b6102a8565b005b6100ee610560565b6040516100c8919061292f565b610103610657565b6040516100c89190612859565b6101186107ac565b6040516100c891906128cf565b61012d61095b565b6040516100c89190612845565b6100e46101483660046125b7565b61096a565b6100e461015b366004612562565b610c9a565b610168610ec6565b6040516100c89190612c20565b61017d61226a565b84516004146101a75760405162461bcd60e51b815260040161019e906129e3565b60405180910390fd5b83516004146101c85760405162461bcd60e51b815260040161019e906129e3565b61029c8660016002805480602002602001604051908101604052809291908181526020016000905b8282101561028f5760008481526020908190206040805160e08101825260038602909201805461ffff80821685526201000091829004811685870152835180850185526001808501548084168352849004831682890152948601526002909201548083166060860152908104821660808501526401000000008104821660a0850152660100000000000090041660c083015290835290920191016101f0565b5050505088888888610fcc565b90505b95945050505050565b6001600160a01b038316600090815260056020526040902054600160a01b900460ff166102e75760405162461bcd60e51b815260040161019e90612a40565b60004442336040516020016102fe9392919061280a565b60408051601f1981840301815282825280516020918201206001600160a01b038816600090815260058352838120600101805480850287018501909552848652919550936103c49386938993919083018282801561039957602002820191906000526020600020906000905b825461010083900a900460ff1681526020600192830181810494850194909303909202910180841161036a5790505b505050506001600160a01b038a1660009081526005602052604090206002015488915060ff166119b0565b90508060c001511561046c576001600160a01b03851660009081526003602052604090208054610100900463ffffffff1690600161040183612f56565b82546101009290920a63ffffffff81810219909316918316021790915533600090815260036020526040902080546501000000000090049091169150600561044883612f56565b91906101000a81548163ffffffff021916908363ffffffff1602179055505061050e565b8060e001511561050e573360009081526003602052604090208054610100900463ffffffff1690600161049e83612f56565b82546101009290920a63ffffffff8181021990931691831602179091556001600160a01b03871660009081526003602052604090208054650100000000009004909116915060056104ee83612f56565b91906101000a81548163ffffffff021916908363ffffffff160217905550505b846001600160a01b0316336001600160a01b03167f1275943aed9ea3363652d9ca6a1546f6ed7e494c27258293820c31d0a36a8925836040516105519190612b31565b60405180910390a35050505050565b6000546060906001600160a01b0316331461058d5760405162461bcd60e51b815260040161019e90612ad4565b6002805480602002602001604051908101604052809291908181526020016000905b8282101561064e5760008481526020908190206040805160e08101825260038602909201805461ffff80821685526201000091829004811685870152835180850185526001808501548084168352849004831682890152948601526002909201548083166060860152908104821660808501526401000000008104821660a0850152660100000000000090041660c083015290835290920191016105af565b50505050905090565b60045460609060009067ffffffffffffffff81111561068657634e487b7160e01b600052604160045260246000fd5b6040519080825280602002602001820160405280156106bf57816020015b6106ac6122bd565b8152602001906001900390816106a45790505b50905060005b6004548110156107a6576000600482815481106106f257634e487b7160e01b600052603260045260246000fd5b6000918252602080832090910154604080516080810182526001600160a01b0390921680835280855260058452818520600390810154848601528186528085528286205463ffffffff610100820481169486019490945295829052909352650100000000009093049092166060830152845190925084908490811061078757634e487b7160e01b600052603260045260246000fd5b602002602001018190525050808061079e90612f3b565b9150506106c5565b50905090565b60065460609060009067ffffffffffffffff8111156107db57634e487b7160e01b600052604160045260246000fd5b60405190808252806020026020018201604052801561081457816020015b6108016122e4565b8152602001906001900390816107f95790505b50905060005b6006548110156107a657600560006006838154811061084957634e487b7160e01b600052603260045260246000fd5b6000918252602080832091909101546001600160a01b039081168452838201949094526040928301909120825160a08101845281549485168152600160a01b90940460ff16151584830152600181018054845181850281018501865281815292948601938301828280156108fa57602002820191906000526020600020906000905b825461010083900a900460ff168152602060019283018181049485019490930390920291018084116108cb5790505b5050509183525050600282015460ff166020820152600390910154604090910152825183908390811061093d57634e487b7160e01b600052603260045260246000fd5b6020026020010181905250808061095390612f3b565b91505061081a565b6000546001600160a01b031681565b6000546001600160a01b031633146109945760405162461bcd60e51b815260040161019e90612ad4565b60006040518060e001604052808a61ffff1681526020018961ffff16815260200160405180604001604052808a61ffff1681526020018961ffff1681525081526020018661ffff1681526020018561ffff1681526020018461ffff1681526020018361ffff16815250905080600160008c61ffff16815260200190815260200160002060008201518160000160006101000a81548161ffff021916908361ffff16021790555060208201518160000160026101000a81548161ffff021916908361ffff16021790555060408201518160010160008201518160000160006101000a81548161ffff021916908361ffff16021790555060208201518160000160026101000a81548161ffff021916908361ffff160217905550505060608201518160020160006101000a81548161ffff021916908361ffff16021790555060808201518160020160026101000a81548161ffff021916908361ffff16021790555060a08201518160020160046101000a81548161ffff021916908361ffff16021790555060c08201518160020160066101000a81548161ffff021916908361ffff160217905550905050600281908060018154018082558091505060019003906000526020600020906003020160009091909190915060008201518160000160006101000a81548161ffff021916908361ffff16021790555060208201518160000160026101000a81548161ffff021916908361ffff16021790555060408201518160010160008201518160000160006101000a81548161ffff021916908361ffff16021790555060208201518160000160026101000a81548161ffff021916908361ffff160217905550505060608201518160020160006101000a81548161ffff021916908361ffff16021790555060808201518160020160026101000a81548161ffff021916908361ffff16021790555060a08201518160020160046101000a81548161ffff021916908361ffff16021790555060c08201518160020160066101000a81548161ffff021916908361ffff160217905550505050505050505050505050565b6040805160a08101825233808252600160208084019190915282840187905260ff80871660608501526080840186905260009283526005909152929020549091600160a01b90910416610d3757600680546001810182556000919091527ff652222313e28459528d920b65115c16c04f3efc82aaedc97be59f3f377c0d3f01805473ffffffffffffffffffffffffffffffffffffffff1916331790555b3360009081526005602090815260409182902083518154838601511515600160a01b027fffffffffffffffffffffff00ffffffffffffffffffffffffffffffffffffffff6001600160a01b039390931673ffffffffffffffffffffffffffffffffffffffff199092169190911791909116178155918301518051849392610dc5926001850192910190612313565b50606082015160028201805460ff191660ff928316179055608090920151600391820155336000908152602091909152604090205416610ec05760408051606081018252600180825260006020808401828152848601838152338085526003909352958320945185549151965160ff199092169015151764ffffffff00191661010063ffffffff978816021768ffffffff00000000001916650100000000009690911695909502949094179092556004805491820181559091527f8a35acfbc15ff81a39ae7d344fd709f28e8600b4aa8c65c6b64bfe7fe36bd19b01805473ffffffffffffffffffffffffffffffffffffffff191690911790555b50505050565b610ece6122e4565b33600090815260056020526040902054600160a01b900460ff16610f045760405162461bcd60e51b815260040161019e90612a9d565b33600090815260056020908152604091829020825160a08101845281546001600160a01b0381168252600160a01b900460ff1615158184015260018201805485518186028101860187528181529295939493860193830182828015610fa657602002820191906000526020600020906000905b825461010083900a900460ff16815260206001928301818104948501949093039092029101808411610f775790505b5050509183525050600282015460ff166020820152600390910154604090910152905090565b610fd461226a565b8451600414610ff55760405162461bcd60e51b815260040161019e906129e3565b83516004146110165760405162461bcd60e51b815260040161019e906129e3565b60408051600480825260a0820190925260009160208201608080368337019050509050600a8160008151811061105c57634e487b7160e01b600052603260045260246000fd5b602002602001019060000b908160000b81525050600b8160018151811061109357634e487b7160e01b600052603260045260246000fd5b602002602001019060000b908160000b81525050600c816002815181106110ca57634e487b7160e01b600052603260045260246000fd5b602002602001019060000b908160000b81525050600d8160038151811061110157634e487b7160e01b600052603260045260246000fd5b600092830b830b602091820292909201015260408051600480825260a08201909252908160200160208202803683370190505090506009198160008151811061115a57634e487b7160e01b600052603260045260246000fd5b602002602001019060000b908160000b81525050600a198160018151811061119257634e487b7160e01b600052603260045260246000fd5b602002602001019060000b908160000b81525050600b19816002815181106111ca57634e487b7160e01b600052603260045260246000fd5b602002602001019060000b908160000b81525050600c198160038151811061120257634e487b7160e01b600052603260045260246000fd5b600092830b830b602091820292909201015260408051600480825260a0820190925290816020016020820280368337505060408051600480825260a0820190925292935060009291506020820160808036833701905050905060005b600461ffff821610156113c857898161ffff168151811061128f57634e487b7160e01b600052603260045260246000fd5b602002602001015160ff168b8261ffff16815181106112be57634e487b7160e01b600052603260045260246000fd5b60200260200101516020015161ffff166112d89190612d7f565b838261ffff16815181106112fc57634e487b7160e01b600052603260045260246000fd5b602002602001019060070b908160070b81525050888161ffff168151811061133457634e487b7160e01b600052603260045260246000fd5b602002602001015160ff168b8261ffff168151811061136357634e487b7160e01b600052603260045260246000fd5b60200260200101516020015161ffff1661137d9190612d7f565b828261ffff16815181106113a157634e487b7160e01b600052603260045260246000fd5b602002602001019060070b908160070b8152505080806113c090612f19565b91505061125e565b506113d16123b9565b8b156114c0576113e360046014612e1e565b60ff1667ffffffffffffffff81111561140c57634e487b7160e01b600052604160045260246000fd5b60405190808252806020026020018201604052801561144557816020015b6114326123ed565b81526020019060019003908161142a5790505b50606082015261145760046014612e1e565b60ff1667ffffffffffffffff81111561148057634e487b7160e01b600052604160045260246000fd5b6040519080825280602002602001820160405280156114b957816020015b6114a66123ed565b81526020019060019003908161149e5790505b5060808201525b600081525b8051601460ff9091161080156114e157506114df83611abb565b155b80156114f357506114f182611abb565b155b1561192a57600060a08201525b600460ff168160a0015160ff161015611713576000838260a0015160ff168151811061153c57634e487b7160e01b600052603260045260246000fd5b602002602001015160070b13156116f85760006115608c8360a00151888887611b1d565b905060008160000b126116395760006115ae8f8e8560a0015185898860a0015160ff16815181106115a157634e487b7160e01b600052603260045260246000fd5b6020026020010151611c84565b90508063ffffffff16848360ff16815181106115da57634e487b7160e01b600052603260045260246000fd5b602002602001018181516115ee9190612e8c565b600790810b900b9052508d15611633576020830180516116339161161182612f70565b60ff1660ff1681525060ff16846000015185606001518660a001518686611e7d565b506116f6565b6116538c60018460a0015160ff166000198a8a8a8a611ef7565b868360a0015160ff168151811061167a57634e487b7160e01b600052603260045260246000fd5b602002602001019060000b908160000b815250508c156116f6576020820180516116f6916116a782612f70565b60ff1660ff1681525060ff16836000015184606001518560a001518a8760a0015160ff16815181106116e957634e487b7160e01b600052603260045260246000fd5b602002602001015161206d565b505b60a0810180519061170882612f70565b60ff16905250611500565b600060a08201525b600460ff168160a0015160ff161015611913576000828260a0015160ff168151811061175757634e487b7160e01b600052603260045260246000fd5b602002602001015160070b13156118f857600061177b8c8360a00151878988611b1d565b905060008160000b126118475760006117bc8f8e8560a0015185888860a0015160ff16815181106115a157634e487b7160e01b600052603260045260246000fd5b90508063ffffffff16858360ff16815181106117e857634e487b7160e01b600052603260045260246000fd5b602002602001018181516117fc9190612e8c565b600790810b900b9052508d15611841576040830180516118419161181f82612f70565b60ff1660ff1681525060ff16846000015185608001518660a001518686611e7d565b506118f6565b6118608c60008460a0015160ff1660018a8a8a8a611ef7565b858360a0015160ff168151811061188757634e487b7160e01b600052603260045260246000fd5b602002602001019060000b908160000b815250508c156118f6576040820180516118f6916118b482612f70565b60ff1660ff1681525060ff16836000015184608001518560a00151898760a0015160ff16815181106116e957634e487b7160e01b600052603260045260246000fd5b505b60a0810180519061190882612f70565b60ff1690525061171b565b80518161191f82612f70565b60ff169052506114c5565b60609350606094506040518061014001604052808b81526020018a81526020018960ff1681526020018860ff168152602001826060015181526020018260800151815260200161197985611abb565b1515815260200161198984611abb565b15158152915160ff16602083015260409091018d9052945050505050979650505050505050565b6119b861226a565b84516004146119d95760405162461bcd60e51b815260040161019e906129e3565b83516004146119fa5760405162461bcd60e51b815260040161019e906129e3565b600280546040805160208084028201810190925282815261029c938a9360009384908401821561028f5760008481526020908190206040805160e08101825260038602909201805461ffff80821685526201000091829004811685870152835180850185526001808501548084168352849004831682890152948601526002909201548083166060860152908104821660808501526401000000008104821660a0850152660100000000000090041660c083015290835290920191016101f0565b60006001815b6004811015611b14576000848281518110611aec57634e487b7160e01b600052603260045260246000fd5b602002602001015160070b1315611b0257600091505b80611b0c81612f3b565b915050611ac1565b5090505b919050565b600080848660ff1681518110611b4357634e487b7160e01b600052603260045260246000fd5b602002602001015160000b90506000661fffffffffffff90506000805b600460ff82161015611c5a576000878260ff1681518110611b9157634e487b7160e01b600052603260045260246000fd5b602002602001015190506000611bb48260000b87611baf9190612e47565b6120dc565b90506000888460ff1681518110611bdb57634e487b7160e01b600052603260045260246000fd5b602002602001015160070b138015611c2957508b8b60ff1681518110611c1157634e487b7160e01b600052603260045260246000fd5b602002602001015160a0015161ffff168161ffff1611155b15611c4557848161ffff161015611c45578061ffff1694508293505b50508080611c5290612f70565b915050611b60565b5060009250661fffffffffffff8214611c735780611c77565b6000195b9998505050505050505050565b600080858560ff1681518110611caa57634e487b7160e01b600052603260045260246000fd5b6020026020010151604001516020015161ffff1687611cc99190612f90565b868660ff1681518110611cec57634e487b7160e01b600052603260045260246000fd5b60200260200101516040015160000151611d069190612c73565b90506000868560ff1681518110611d2d57634e487b7160e01b600052603260045260246000fd5b60200260200101516060015190506000878660ff1681518110611d6057634e487b7160e01b600052603260045260246000fd5b602002602001015160c001516064611d789190612ed3565b90506000600a82611d898587612ed3565b611d939190612dd1565b611d9d9190612cbc565b61ffff1690506000898960ff1681518110611dc857634e487b7160e01b600052603260045260246000fd5b60200260200101516020015161ffff1687611de39190612cdd565b611dee906001612c99565b905060008a8960ff1681518110611e1557634e487b7160e01b600052603260045260246000fd5b60200260200101516020015161ffff168261ffff16611e349190612dfb565b90506000611e4661ffff841685612dfb565b905060009650600095506000945060009250611e6c611e66600083612102565b83612120565b9d9c50505050505050505050505050565b6040518060c00160405280600160ff1681526020018660ff1681526020018460ff1681526020018360ff1681526020016000800b81526020018263ffffffff16815250848761ffff1681518110611ee457634e487b7160e01b600052603260045260246000fd5b6020026020010181905250505050505050565b600080898861ffff1681518110611f1e57634e487b7160e01b600052603260045260246000fd5b6020026020010151608001519050600089611f6457858961ffff1681518110611f5757634e487b7160e01b600052603260045260246000fd5b6020026020010151611f91565b868961ffff1681518110611f8857634e487b7160e01b600052603260045260246000fd5b60200260200101515b9050815b60008160010b131561205e5760008b611fed57611fb2828b612cf8565b888c61ffff1681518110611fd657634e487b7160e01b600052603260045260246000fd5b6020026020010151611fe89190612c33565b61202d565b611ff7828b612cf8565b898c61ffff168151811061201b57634e487b7160e01b600052603260045260246000fd5b602002602001015161202d9190612c33565b905061203f8160000b8a8a8a8a612135565b1561204b57915061205e565b508061205681612ef6565b915050611f95565b509a9950505050505050505050565b6040805160c0810182526002815260ff868116602083015284169181019190915260006060820181905282810b608083015260a08201528351849061ffff88169081106120ca57634e487b7160e01b600052603260045260246000fd5b60200260200101819052505050505050565b6000808260010b126120ef575080611b18565b6120fb82600019612cf8565b9050611b18565b60008160030b8360030b136121175781612119565b825b9392505050565b60008160030b8360030b126121175781612119565b6000600f612142876120dc565b61ffff1611156121545750600061029f565b6000805b600460ff8216101561225e578760010b878260ff168151811061218b57634e487b7160e01b600052603260045260246000fd5b602002602001015160000b1480156121d057506000858260ff16815181106121c357634e487b7160e01b600052603260045260246000fd5b602002602001015160070b135b8061224257508760010b868260ff16815181106121fd57634e487b7160e01b600052603260045260246000fd5b602002602001015160000b14801561224257506000848260ff168151811061223557634e487b7160e01b600052603260045260246000fd5b602002602001015160070b135b1561224c57600191505b8061225681612f70565b915050612158565b50159695505050505050565b604080516101408101825260608082526020820181905260009282018390528082018390526080820181905260a082015260c0810182905260e08101829052610100810182905261012081019190915290565b60408051608081018252600080825260208201819052918101829052606081019190915290565b6040805160a0810182526000808252602082018190526060928201839052918101829052608081019190915290565b82805482825590600052602060002090601f016020900481019282156123a95791602002820160005b8382111561237a57835183826101000a81548160ff021916908360ff160217905550926020019260010160208160000104928301926001030261233c565b80156123a75782816101000a81549060ff021916905560010160208160000104928301926001030261237a565b505b506123b5929150612422565b5090565b6040805160c0810182526000808252602082018190529181018290526060808201819052608082015260a081019190915290565b6040805160c081018252600080825260208201819052918101829052606081018290526080810182905260a081019190915290565b5b808211156123b55760008155600101612423565b600082601f830112612447578081fd5b8135602067ffffffffffffffff8083111561246457612464612fd0565b8183026040518382820101818110848211171561248357612483612fd0565b604052848152838101925086840182880185018910156124a1578687fd5b8692505b858310156124ca576124b6816124e8565b8452928401926001929092019184016124a5565b50979650505050505050565b803561ffff81168114611b1857600080fd5b803560ff81168114611b1857600080fd5b60008060006060848603121561250d578283fd5b83356001600160a01b0381168114612523578384fd5b9250602084013567ffffffffffffffff81111561253e578283fd5b61254a86828701612437565b925050612559604085016124e8565b90509250925092565b600080600060608486031215612576578283fd5b833567ffffffffffffffff81111561258c578384fd5b61259886828701612437565b9350506125a7602085016124e8565b9150604084013590509250925092565b60008060008060008060008060006101208a8c0312156125d5578485fd5b6125de8a6124d6565b98506125ec60208b016124d6565b97506125fa60408b016124d6565b965061260860608b016124d6565b955061261660808b016124d6565b945061262460a08b016124d6565b935061263260c08b016124d6565b925061264060e08b016124d6565b915061264f6101008b016124d6565b90509295985092959850929598565b600080600080600060a08688031215612675578081fd5b85359450602086013567ffffffffffffffff80821115612693578283fd5b61269f89838a01612437565b955060408801359150808211156126b4578283fd5b506126c188828901612437565b9350506126d0606087016124e8565b91506126de608087016124e8565b90509295509295909350565b6000815180845260208085019450808401835b83811015612761578151805160ff9081168952848201518116858a01526040808301518216908a015260608083015190911690890152608080820151870b9089015260a09081015163ffffffff169088015260c090960195908201906001016126fd565b509495945050505050565b6000815180845260208085019450808401835b8381101561276157815160ff168752958201959082019060010161277f565b15159052565b60006001600160a01b038251168352602082015115156020840152604082015160a060408501526127d860a085018261276c565b905060ff6060840151166060850152608083015160808501528091505092915050565b61ffff169052565b60ff169052565b928352602083019190915260601b7fffffffffffffffffffffffffffffffffffffffff00000000000000000000000016604082015260540190565b6001600160a01b0391909116815260200190565b602080825282518282018190526000919060409081850190868401855b828110156128c257815180516001600160a01b0316855286810151878601528581015163ffffffff90811687870152606091820151169085015260809093019290850190600101612876565b5091979650505050505050565b6000602080830181845280855180835260408601915060408482028701019250838701855b8281101561292257603f198886030184526129108583516127a4565b945092850192908501906001016128f4565b5092979650505050505050565b602080825282518282018190526000919060409081850190868401855b828110156128c2578151805161ffff908116865287820151811688870152868201518051821688880152880151166060808701919091528101516080612994818801836127fb565b820151905060a06129a7878201836127fb565b820151905060c06129ba878201836127fb565b919091015190506129ce60e08601826127fb565b5061010093909301929085019060010161294c565b60208082526022908201527f53656c656374696f6e206e6565647320746f2068617665203420656c656d656e60408201527f7473000000000000000000000000000000000000000000000000000000000000606082015260800190565b60208082526024908201527f43616e206f6e6c792061747461636b206120726567697374657265642064656660408201527f656e636500000000000000000000000000000000000000000000000000000000606082015260800190565b60208082526016908201527f446566656e6365206e6f74207265676973746572656400000000000000000000604082015260600190565b60208082526033908201527f546869732066756e6374696f6e206973207265737472696374656420746f207460408201527f686520636f6e74726163742773206f776e657200000000000000000000000000606082015260800190565b6000602082528251610140806020850152612b5061016085018361276c565b91506020850151601f1980868503016040870152612b6e848361276c565b935060408701519150612b846060870183612803565b60608701519150612b986080870183612803565b60808701519150808685030160a0870152612bb384836126ea565b935060a08701519150808685030160c087015250612bd183826126ea565b92505060c0850151612be660e086018261279e565b5060e0850151610100612bfb8187018361279e565b8601519050610120612c0f86820183612803565b959095015193019290925250919050565b60006020825261211960208301846127a4565b600081810b83820b82821282607f03821381151615612c5457612c54612fa4565b82607f19038212811615612c6a57612c6a612fa4565b50019392505050565b600061ffff808316818516808303821115612c9057612c90612fa4565b01949350505050565b600067ffffffffffffffff808316818516808303821115612c9057612c90612fa4565b600061ffff80841680612cd157612cd1612fba565b92169190910492915050565b600067ffffffffffffffff80841680612cd157612cd1612fba565b60008160010b8360010b617fff83821384841383830485118282161615612d2157612d21612fa4565b617fff1986851282811687830587121615612d3e57612d3e612fa4565b878712925085820587128484161615612d5957612d59612fa4565b85850587128184161615612d6f57612d6f612fa4565b5050509290910295945050505050565b60008160070b8360070b677fffffffffffffff83821384841383830485118282161615612dae57612dae612fa4565b677fffffffffffffff1986851282811687830587121615612d3e57612d3e612fa4565b600061ffff80831681851681830481118215151615612df257612df2612fa4565b02949350505050565b600063ffffffff80831681851681830481118215151615612df257612df2612fa4565b600060ff821660ff84168160ff0481118215151615612e3f57612e3f612fa4565b029392505050565b60008160010b8360010b82811281617fff1901831281151615612e6c57612e6c612fa4565b81617fff018313811615612e8257612e82612fa4565b5090039392505050565b60008160070b8360070b82811281677fffffffffffffff1901831281151615612eb757612eb7612fa4565b81677fffffffffffffff018313811615612e8257612e82612fa4565b600061ffff83811690831681811015612eee57612eee612fa4565b039392505050565b60008160010b617fff19811415612f0f57612f0f612fa4565b6000190192915050565b600061ffff80831681811415612f3157612f31612fa4565b6001019392505050565b6000600019821415612f4f57612f4f612fa4565b5060010190565b600063ffffffff80831681811415612f3157612f31612fa4565b600060ff821660ff811415612f8757612f87612fa4565b60010192915050565b600082612f9f57612f9f612fba565b500690565b634e487b7160e01b600052601160045260246000fd5b634e487b7160e01b600052601260045260246000fd5b634e487b7160e01b600052604160045260246000fdfea2646970667358221220bfeb87e123566ed4163935fd07b5eb7b05e2acdcb487550df97c8dbb87b503fc64736f6c63430008000033",
  "linkReferences": {},
  "deployedLinkReferences": {}
}