{
  "_format": "hh-sol-artifact-1",
  "contractName": "NewOmega",
  "sourceName": "contracts/NewOmega.sol",
  "abi": [
    {
      "anonymous": false,
      "inputs": [
        {
          "indexed": true,
          "internalType": "address",
          "name": "attacker",
          "type": "address"
        },
        {
          "indexed": true,
          "internalType": "address",
          "name": "defender",
          "type": "address"
        },
        {
          "components": [
            {
              "internalType": "uint8[]",
              "name": "selectionLhs",
              "type": "uint8[]"
            },
            {
              "internalType": "uint8[]",
              "name": "selectionRhs",
              "type": "uint8[]"
            },
            {
              "internalType": "uint8",
              "name": "commanderLhs",
              "type": "uint8"
            },
            {
              "internalType": "uint8",
              "name": "commanderRhs",
              "type": "uint8"
            },
            {
              "components": [
                {
                  "internalType": "uint8",
                  "name": "moveType",
                  "type": "uint8"
                },
                {
                  "internalType": "uint8",
                  "name": "round",
                  "type": "uint8"
                },
                {
                  "internalType": "uint8",
                  "name": "source",
                  "type": "uint8"
                },
                {
                  "internalType": "uint8",
                  "name": "target",
                  "type": "uint8"
                },
                {
                  "internalType": "int8",
                  "name": "targetPosition",
                  "type": "int8"
                },
                {
                  "internalType": "uint32",
                  "name": "damage",
                  "type": "uint32"
                }
              ],
              "internalType": "struct Move[]",
              "name": "lhs",
              "type": "tuple[]"
            },
            {
              "components": [
                {
                  "internalType": "uint8",
                  "name": "moveType",
                  "type": "uint8"
                },
                {
                  "internalType": "uint8",
                  "name": "round",
                  "type": "uint8"
                },
                {
                  "internalType": "uint8",
                  "name": "source",
                  "type": "uint8"
                },
                {
                  "internalType": "uint8",
                  "name": "target",
                  "type": "uint8"
                },
                {
                  "internalType": "int8",
                  "name": "targetPosition",
                  "type": "int8"
                },
                {
                  "internalType": "uint32",
                  "name": "damage",
                  "type": "uint32"
                }
              ],
              "internalType": "struct Move[]",
              "name": "rhs",
              "type": "tuple[]"
            },
            {
              "internalType": "bool",
              "name": "lhsDead",
              "type": "bool"
            },
            {
              "internalType": "bool",
              "name": "rhsDead",
              "type": "bool"
            },
            {
              "internalType": "uint8",
              "name": "rounds",
              "type": "uint8"
            },
            {
              "internalType": "uint256",
              "name": "seed",
              "type": "uint256"
            }
          ],
          "indexed": false,
          "internalType": "struct FightResult",
          "name": "result",
          "type": "tuple"
        }
      ],
      "name": "FightComplete",
      "type": "event"
    },
    {
      "inputs": [
        {
          "internalType": "uint16",
          "name": "index",
          "type": "uint16"
        },
        {
          "internalType": "uint16",
          "name": "cp",
          "type": "uint16"
        },
        {
          "internalType": "uint16",
          "name": "hp",
          "type": "uint16"
        },
        {
          "internalType": "uint16",
          "name": "attackBase",
          "type": "uint16"
        },
        {
          "internalType": "uint16",
          "name": "attackVariable",
          "type": "uint16"
        },
        {
          "internalType": "uint16",
          "name": "defence",
          "type": "uint16"
        },
        {
          "internalType": "uint16",
          "name": "speed",
          "type": "uint16"
        },
        {
          "internalType": "uint16",
          "name": "range",
          "type": "uint16"
        }
      ],
      "name": "addShip",
      "outputs": [],
      "stateMutability": "nonpayable",
      "type": "function"
    },
    {
      "inputs": [
        {
          "internalType": "address",
          "name": "enemy",
          "type": "address"
        },
        {
          "internalType": "uint8[]",
          "name": "selection",
          "type": "uint8[]"
        },
        {
          "internalType": "uint8",
          "name": "commander",
          "type": "uint8"
        }
      ],
      "name": "attack",
      "outputs": [],
      "stateMutability": "nonpayable",
      "type": "function"
    },
    {
      "inputs": [],
      "name": "getAllDefenders",
      "outputs": [
        {
          "components": [
            {
              "internalType": "address",
              "name": "player",
              "type": "address"
            },
            {
              "internalType": "bool",
              "name": "isInitialised",
              "type": "bool"
            },
            {
              "internalType": "uint8[]",
              "name": "defenceSelection",
              "type": "uint8[]"
            },
            {
              "internalType": "uint8",
              "name": "commander",
              "type": "uint8"
            },
            {
              "internalType": "bytes32",
              "name": "name",
              "type": "bytes32"
            }
          ],
          "internalType": "struct PlayerDefence[]",
          "name": "",
          "type": "tuple[]"
        }
      ],
      "stateMutability": "view",
      "type": "function"
    },
    {
      "inputs": [],
      "name": "getLeaderboard",
      "outputs": [
        {
          "components": [
            {
              "internalType": "address",
              "name": "player",
              "type": "address"
            },
            {
              "internalType": "bytes32",
              "name": "name",
              "type": "bytes32"
            },
            {
              "internalType": "uint32",
              "name": "wins",
              "type": "uint32"
            },
            {
              "internalType": "uint32",
              "name": "losses",
              "type": "uint32"
            }
          ],
          "internalType": "struct LeaderboardEntry[]",
          "name": "",
          "type": "tuple[]"
        }
      ],
      "stateMutability": "view",
      "type": "function"
    },
    {
      "inputs": [],
      "name": "getOwnDefence",
      "outputs": [
        {
          "components": [
            {
              "internalType": "address",
              "name": "player",
              "type": "address"
            },
            {
              "internalType": "bool",
              "name": "isInitialised",
              "type": "bool"
            },
            {
              "internalType": "uint8[]",
              "name": "defenceSelection",
              "type": "uint8[]"
            },
            {
              "internalType": "uint8",
              "name": "commander",
              "type": "uint8"
            },
            {
              "internalType": "bytes32",
              "name": "name",
              "type": "bytes32"
            }
          ],
          "internalType": "struct PlayerDefence",
          "name": "",
          "type": "tuple"
        }
      ],
      "stateMutability": "view",
      "type": "function"
    },
    {
      "inputs": [],
      "name": "getShips",
      "outputs": [
        {
          "components": [
            {
              "internalType": "uint16",
              "name": "cp",
              "type": "uint16"
            },
            {
              "internalType": "uint16",
              "name": "hp",
              "type": "uint16"
            },
            {
              "components": [
                {
                  "internalType": "uint16",
                  "name": "base",
                  "type": "uint16"
                },
                {
                  "internalType": "uint16",
                  "name": "variable",
                  "type": "uint16"
                }
              ],
              "internalType": "struct ShipVariableStat",
              "name": "attack",
              "type": "tuple"
            },
            {
              "internalType": "uint16",
              "name": "defence",
              "type": "uint16"
            },
            {
              "internalType": "uint16",
              "name": "speed",
              "type": "uint16"
            },
            {
              "internalType": "uint16",
              "name": "range",
              "type": "uint16"
            }
          ],
          "internalType": "struct Ship[]",
          "name": "",
          "type": "tuple[]"
        }
      ],
      "stateMutability": "view",
      "type": "function"
    },
    {
      "inputs": [],
      "name": "owner",
      "outputs": [
        {
          "internalType": "address",
          "name": "",
          "type": "address"
        }
      ],
      "stateMutability": "view",
      "type": "function"
    },
    {
      "inputs": [
        {
          "internalType": "uint8[]",
          "name": "defence",
          "type": "uint8[]"
        },
        {
          "internalType": "uint8",
          "name": "commander",
          "type": "uint8"
        },
        {
          "internalType": "bytes32",
          "name": "name",
          "type": "bytes32"
        }
      ],
      "name": "registerDefence",
      "outputs": [],
      "stateMutability": "nonpayable",
      "type": "function"
    },
    {
      "inputs": [
        {
          "internalType": "uint256",
          "name": "seed",
          "type": "uint256"
        },
        {
          "internalType": "uint8[]",
          "name": "selectionLhs",
          "type": "uint8[]"
        },
        {
          "internalType": "uint8[]",
          "name": "selectionRhs",
          "type": "uint8[]"
        },
        {
          "internalType": "uint8",
          "name": "commanderLhs",
          "type": "uint8"
        },
        {
          "internalType": "uint8",
          "name": "commanderRhs",
          "type": "uint8"
        }
      ],
      "name": "replay",
      "outputs": [
        {
          "components": [
            {
              "internalType": "uint8[]",
              "name": "selectionLhs",
              "type": "uint8[]"
            },
            {
              "internalType": "uint8[]",
              "name": "selectionRhs",
              "type": "uint8[]"
            },
            {
              "internalType": "uint8",
              "name": "commanderLhs",
              "type": "uint8"
            },
            {
              "internalType": "uint8",
              "name": "commanderRhs",
              "type": "uint8"
            },
            {
              "components": [
                {
                  "internalType": "uint8",
                  "name": "moveType",
                  "type": "uint8"
                },
                {
                  "internalType": "uint8",
                  "name": "round",
                  "type": "uint8"
                },
                {
                  "internalType": "uint8",
                  "name": "source",
                  "type": "uint8"
                },
                {
                  "internalType": "uint8",
                  "name": "target",
                  "type": "uint8"
                },
                {
                  "internalType": "int8",
                  "name": "targetPosition",
                  "type": "int8"
                },
                {
                  "internalType": "uint32",
                  "name": "damage",
                  "type": "uint32"
                }
              ],
              "internalType": "struct Move[]",
              "name": "lhs",
              "type": "tuple[]"
            },
            {
              "components": [
                {
                  "internalType": "uint8",
                  "name": "moveType",
                  "type": "uint8"
                },
                {
                  "internalType": "uint8",
                  "name": "round",
                  "type": "uint8"
                },
                {
                  "internalType": "uint8",
                  "name": "source",
                  "type": "uint8"
                },
                {
                  "internalType": "uint8",
                  "name": "target",
                  "type": "uint8"
                },
                {
                  "internalType": "int8",
                  "name": "targetPosition",
                  "type": "int8"
                },
                {
                  "internalType": "uint32",
                  "name": "damage",
                  "type": "uint32"
                }
              ],
              "internalType": "struct Move[]",
              "name": "rhs",
              "type": "tuple[]"
            },
            {
              "internalType": "bool",
              "name": "lhsDead",
              "type": "bool"
            },
            {
              "internalType": "bool",
              "name": "rhsDead",
              "type": "bool"
            },
            {
              "internalType": "uint8",
              "name": "rounds",
              "type": "uint8"
            },
            {
              "internalType": "uint256",
              "name": "seed",
              "type": "uint256"
            }
          ],
          "internalType": "struct FightResult",
          "name": "",
          "type": "tuple"
        }
      ],
      "stateMutability": "view",
      "type": "function"
    }
  ],
  "bytecode": "0x6080604052600080546001600160a01b0319163317905534801561002257600080fd5b50612d06806100326000396000f3fe608060405234801561001057600080fd5b50600436106100a35760003560e01c80636d763a6e116100765780638da5cb5b1161005b5780638da5cb5b14610138578063d2eaefdb1461014d578063d43b838c14610160576100a3565b80636d763a6e1461010e5780637af584de14610123576100a3565b80630d055a47146100a85780635afa3bf5146100d157806362a74512146100e65780636738f234146100f9575b600080fd5b6100bb6100b63660046123bb565b610175565b6040516100c8919061283a565b60405180910390f35b6100e46100df366004612325565b610295565b005b6100e46100f4366004612267565b610574565b6101016108be565b6040516100c89190612651565b6101166109a4565b6040516100c8919061257b565b61012b610af9565b6040516100c891906125f1565b610140610ca8565b6040516100c89190612567565b6100e461015b3660046122d0565b610cb7565b610168610ee3565b6040516100c89190612929565b61017d611fc4565b84516004146101a75760405162461bcd60e51b815260040161019e906126ec565b60405180910390fd5b83516004146101c85760405162461bcd60e51b815260040161019e906126ec565b61028b8660016002805480602002602001604051908101604052809291908181526020016000905b8282101561027e5760008481526020908190206040805160c08101825260038602909201805461ffff808216855262010000918290048116858701528351808501855260018085015480841683528490048316828901529486015260029092015480831660608601529081048216608085015264010000000090041660a083015290835290920191016101f0565b5050505088888888610fe9565b9695505050505050565b6000546001600160a01b031633146102bf5760405162461bcd60e51b815260040161019e906127dd565b60006040518060c001604052808961ffff1681526020018861ffff16815260200160405180604001604052808961ffff1681526020018861ffff1681525081526020018561ffff1681526020018461ffff1681526020018361ffff16815250905080600160008b61ffff16815260200190815260200160002060008201518160000160006101000a81548161ffff021916908361ffff16021790555060208201518160000160026101000a81548161ffff021916908361ffff16021790555060408201518160010160008201518160000160006101000a81548161ffff021916908361ffff16021790555060208201518160000160026101000a81548161ffff021916908361ffff160217905550505060608201518160020160006101000a81548161ffff021916908361ffff16021790555060808201518160020160026101000a81548161ffff021916908361ffff16021790555060a08201518160020160046101000a81548161ffff021916908361ffff160217905550905050600281908060018154018082558091505060019003906000526020600020906003020160009091909190915060008201518160000160006101000a81548161ffff021916908361ffff16021790555060208201518160000160026101000a81548161ffff021916908361ffff16021790555060408201518160010160008201518160000160006101000a81548161ffff021916908361ffff16021790555060208201518160000160026101000a81548161ffff021916908361ffff160217905550505060608201518160020160006101000a81548161ffff021916908361ffff16021790555060808201518160020160026101000a81548161ffff021916908361ffff16021790555060a08201518160020160046101000a81548161ffff021916908361ffff1602179055505050505050505050505050565b6001600160a01b038316600090815260056020526040902054600160a01b900460ff166105b35760405162461bcd60e51b815260040161019e90612749565b600062bc614e905060006107228260006002805480602002602001604051908101604052809291908181526020016000905b828210156106735760008481526020908190206040805160c08101825260038602909201805461ffff808216855262010000918290048116858701528351808501855260018085015480841683528490048316828901529486015260029092015480831660608601529081048216608085015264010000000090041660a083015290835290920191016105e5565b505050506001600160a01b03891660009081526005602090815260409182902060010180548351818402810184019094528084528b93928301828280156106f757602002820191906000526020600020906000905b825461010083900a900460ff168152602060019283018181049485019490930390920291018084116106c85790505b505050506001600160a01b038c166000908152600560205260409020600201548a915060ff16610fe9565b90508060c00151156107ca576001600160a01b03851660009081526003602052604090208054610100900463ffffffff1690600161075f83612c40565b82546101009290920a63ffffffff8181021990931691831602179091553360009081526003602052604090208054650100000000009004909116915060056107a683612c40565b91906101000a81548163ffffffff021916908363ffffffff1602179055505061086c565b8060e001511561086c573360009081526003602052604090208054610100900463ffffffff169060016107fc83612c40565b82546101009290920a63ffffffff8181021990931691831602179091556001600160a01b038716600090815260036020526040902080546501000000000090049091169150600561084c83612c40565b91906101000a81548163ffffffff021916908363ffffffff160217905550505b846001600160a01b0316336001600160a01b03167f1275943aed9ea3363652d9ca6a1546f6ed7e494c27258293820c31d0a36a8925836040516108af919061283a565b60405180910390a35050505050565b6000546060906001600160a01b031633146108eb5760405162461bcd60e51b815260040161019e906127dd565b6002805480602002602001604051908101604052809291908181526020016000905b8282101561099b5760008481526020908190206040805160c08101825260038602909201805461ffff808216855262010000918290048116858701528351808501855260018085015480841683528490048316828901529486015260029092015480831660608601529081048216608085015264010000000090041660a0830152908352909201910161090d565b50505050905090565b60045460609060009067ffffffffffffffff8111156109d357634e487b7160e01b600052604160045260246000fd5b604051908082528060200260200182016040528015610a0c57816020015b6109f9612017565b8152602001906001900390816109f15790505b50905060005b600454811015610af357600060048281548110610a3f57634e487b7160e01b600052603260045260246000fd5b6000918252602080832090910154604080516080810182526001600160a01b0390921680835280855260058452818520600390810154848601528186528085528286205463ffffffff6101008204811694860194909452958290529093526501000000000090930490921660608301528451909250849084908110610ad457634e487b7160e01b600052603260045260246000fd5b6020026020010181905250508080610aeb90612c25565b915050610a12565b50905090565b60065460609060009067ffffffffffffffff811115610b2857634e487b7160e01b600052604160045260246000fd5b604051908082528060200260200182016040528015610b6157816020015b610b4e61203e565b815260200190600190039081610b465790505b50905060005b600654811015610af3576005600060068381548110610b9657634e487b7160e01b600052603260045260246000fd5b6000918252602080832091909101546001600160a01b039081168452838201949094526040928301909120825160a08101845281549485168152600160a01b90940460ff1615158483015260018101805484518185028101850186528181529294860193830182828015610c4757602002820191906000526020600020906000905b825461010083900a900460ff16815260206001928301818104948501949093039092029101808411610c185790505b5050509183525050600282015460ff1660208201526003909101546040909101528251839083908110610c8a57634e487b7160e01b600052603260045260246000fd5b60200260200101819052508080610ca090612c25565b915050610b67565b6000546001600160a01b031681565b6040805160a08101825233808252600160208084019190915282840187905260ff80871660608501526080840186905260009283526005909152929020549091600160a01b90910416610d5457600680546001810182556000919091527ff652222313e28459528d920b65115c16c04f3efc82aaedc97be59f3f377c0d3f01805473ffffffffffffffffffffffffffffffffffffffff1916331790555b3360009081526005602090815260409182902083518154838601511515600160a01b027fffffffffffffffffffffff00ffffffffffffffffffffffffffffffffffffffff6001600160a01b039390931673ffffffffffffffffffffffffffffffffffffffff199092169190911791909116178155918301518051849392610de292600185019291019061206d565b50606082015160028201805460ff191660ff928316179055608090920151600391820155336000908152602091909152604090205416610edd5760408051606081018252600180825260006020808401828152848601838152338085526003909352958320945185549151965160ff199092169015151764ffffffff00191661010063ffffffff978816021768ffffffff00000000001916650100000000009690911695909502949094179092556004805491820181559091527f8a35acfbc15ff81a39ae7d344fd709f28e8600b4aa8c65c6b64bfe7fe36bd19b01805473ffffffffffffffffffffffffffffffffffffffff191690911790555b50505050565b610eeb61203e565b33600090815260056020526040902054600160a01b900460ff16610f215760405162461bcd60e51b815260040161019e906127a6565b33600090815260056020908152604091829020825160a08101845281546001600160a01b0381168252600160a01b900460ff1615158184015260018201805485518186028101860187528181529295939493860193830182828015610fc357602002820191906000526020600020906000905b825461010083900a900460ff16815260206001928301818104948501949093039092029101808411610f945790505b5050509183525050600282015460ff166020820152600390910154604090910152905090565b610ff1611fc4565b84516004146110125760405162461bcd60e51b815260040161019e906126ec565b83516004146110335760405162461bcd60e51b815260040161019e906126ec565b60408051600480825260a0820190925260009160208201608080368337019050509050600a8160008151811061107957634e487b7160e01b600052603260045260246000fd5b602002602001019060000b908160000b81525050600b816001815181106110b057634e487b7160e01b600052603260045260246000fd5b602002602001019060000b908160000b81525050600c816002815181106110e757634e487b7160e01b600052603260045260246000fd5b602002602001019060000b908160000b81525050600d8160038151811061111e57634e487b7160e01b600052603260045260246000fd5b600092830b830b602091820292909201015260408051600480825260a08201909252908160200160208202803683370190505090506009198160008151811061117757634e487b7160e01b600052603260045260246000fd5b602002602001019060000b908160000b81525050600a19816001815181106111af57634e487b7160e01b600052603260045260246000fd5b602002602001019060000b908160000b81525050600b19816002815181106111e757634e487b7160e01b600052603260045260246000fd5b602002602001019060000b908160000b81525050600c198160038151811061121f57634e487b7160e01b600052603260045260246000fd5b600092830b830b602091820292909201015260408051600480825260a0820190925290816020016020820280368337505060408051600480825260a08201909252929350600092915060208201608080368337505060408051600480825260a0820190925292935060009291506020820160808036833701905050905060005b600461ffff82161015611480578a8161ffff16815181106112d057634e487b7160e01b600052603260045260246000fd5b602002602001015160ff168c8261ffff16815181106112ff57634e487b7160e01b600052603260045260246000fd5b6020026020010151602001516113159190612a6b565b60010b848261ffff168151811061133c57634e487b7160e01b600052603260045260246000fd5b602002602001019060030b908160030b81525050898161ffff168151811061137457634e487b7160e01b600052603260045260246000fd5b602002602001015160ff168c8261ffff16815181106113a357634e487b7160e01b600052603260045260246000fd5b6020026020010151602001516113b99190612a6b565b60010b838261ffff16815181106113e057634e487b7160e01b600052603260045260246000fd5b602002602001019060030b908160030b815250508b8161ffff168151811061141857634e487b7160e01b600052603260045260246000fd5b6020026020010151604001516020015161ffff168e6114379190612c7a565b828261ffff168151811061145b57634e487b7160e01b600052603260045260246000fd5b61ffff909216602092830291909101909101528061147881612c03565b91505061129f565b50611489612113565b8c156115785761149b60046014612ab8565b60ff1667ffffffffffffffff8111156114c457634e487b7160e01b600052604160045260246000fd5b6040519080825280602002602001820160405280156114fd57816020015b6114ea612156565b8152602001906001900390816114e25790505b50606082015261150f60046014612ab8565b60ff1667ffffffffffffffff81111561153857634e487b7160e01b600052604160045260246000fd5b60405190808252806020026020018201604052801561157157816020015b61155e612156565b8152602001906001900390816115565790505b5060808201525b600081525b8051601460ff909116108015611599575061159784611b2d565b155b80156115ab57506115a983611b2d565b155b15611aae57600060a08201525b600460ff168160a0015160ff161015611831576000848260a0015160ff16815181106115f457634e487b7160e01b600052603260045260246000fd5b602002602001015160030b1315611816576116168c8260a00151888887611b8f565b60ff1660e083015215801560c08301526116fc57600061166f838e8460a001518560e00151898760a0015160ff168151811061166257634e487b7160e01b600052603260045260246000fd5b6020026020010151611cdd565b905080848360e0015160ff168151811061169957634e487b7160e01b600052603260045260246000fd5b602002602001018181516116ad9190612b26565b600390810b900b9052508d156116f6576020820180516116f6916116d082612c5a565b60ff1660ff1681525060ff16836000015184606001518560a001518660e0015186611e4c565b50611816565b6117738c8260a0015160ff168151811061172657634e487b7160e01b600052603260045260246000fd5b602002602001015160800151878360a0015160ff168151811061175957634e487b7160e01b600052603260045260246000fd5b602002602001015161176b9190612b65565b600c19611ec6565b868260a0015160ff168151811061179a57634e487b7160e01b600052603260045260246000fd5b602002602001019060000b908160000b815250508c1561181657602081018051611816916117c782612c5a565b60ff1660ff1681525060ff16826000015183606001518460a001518a8660a0015160ff168151811061180957634e487b7160e01b600052603260045260246000fd5b6020026020010151611ee4565b60a0810180519061182682612c5a565b60ff169052506115b8565b600060a08201525b600460ff168160a0015160ff161015611a97576000838260a0015160ff168151811061187557634e487b7160e01b600052603260045260246000fd5b602002602001015160030b1315611a7c576118978c8260a00151878988611b8f565b60ff1660e083015215801560c08301526119705760006118e3838e8460a001518560e00151888760a0015160ff168151811061166257634e487b7160e01b600052603260045260246000fd5b905080858360e0015160ff168151811061190d57634e487b7160e01b600052603260045260246000fd5b602002602001018181516119219190612b26565b600390810b900b9052508d1561196a5760408201805161196a9161194482612c5a565b60ff1660ff1681525060ff16836000015184608001518560a001518660e0015186611e4c565b50611a7c565b6119e68c8260a0015160ff168151811061199a57634e487b7160e01b600052603260045260246000fd5b602002602001015160800151868360a0015160ff16815181106119cd57634e487b7160e01b600052603260045260246000fd5b60200260200101516119df919061293c565b600d611f53565b858260a0015160ff1681518110611a0d57634e487b7160e01b600052603260045260246000fd5b602002602001019060000b908160000b815250508c15611a7c57604081018051611a7c91611a3a82612c5a565b60ff1660ff1681525060ff16826000015183608001518460a00151898660a0015160ff168151811061180957634e487b7160e01b600052603260045260246000fd5b60a08101805190611a8c82612c5a565b60ff16905250611839565b805181611aa382612c5a565b60ff1690525061157d565b6040518061014001604052808c81526020018b81526020018a60ff1681526020018960ff1681526020018260600151815260200182608001518152602001611af586611b2d565b15158152602001611b0585611b2d565b15158152915160ff16602083015260409091018e905295505050505050979650505050505050565b60006001815b6004811015611b86576000848281518110611b5e57634e487b7160e01b600052603260045260246000fd5b602002602001015160030b1315611b7457600091505b80611b7e81612c25565b915050611b33565b5090505b919050565b6000806000858760ff1681518110611bb757634e487b7160e01b600052603260045260246000fd5b602002602001015160000b9050600060049050600060016004611bda9190612bbf565b90505b60008160000b12611cc75760008190506000611c30898360ff1681518110611c1557634e487b7160e01b600052603260045260246000fd5b602002602001015160000b86611c2b9190612ae1565b611f68565b90508b8b60ff1681518110611c5557634e487b7160e01b600052603260045260246000fd5b602002602001015160a0015161ffff168161ffff1611158015611ca557506000888360ff1681518110611c9857634e487b7160e01b600052603260045260246000fd5b602002602001015160030b135b15611cb257509150611cc7565b50508080611cbf90612be2565b915050611bdd565b50600460ff821610999098509650505050505050565b600080868560ff1681518110611d0357634e487b7160e01b600052603260045260246000fd5b6020026020010151868660ff1681518110611d2e57634e487b7160e01b600052603260045260246000fd5b60200260200101516040015160000151611d48919061297c565b90506000868660ff1681518110611d6f57634e487b7160e01b600052603260045260246000fd5b60200260200101516020015161ffff1684611d8a91906129c1565b611d959060016129a2565b90506000878660ff1681518110611dbc57634e487b7160e01b600052603260045260246000fd5b60200260200101516020015182611dd39190612a6b565b61ffff16905060008261ffff16898860ff1681518110611e0357634e487b7160e01b600052603260045260246000fd5b60200260200101516060015185611e1a9190612b9c565b61ffff16611e289190612a95565b9050611e3e611e38600083611f8e565b83611fa9565b9a9950505050505050505050565b6040518060c00160405280600160ff1681526020018660ff1681526020018460ff1681526020018360ff1681526020016000800b81526020018263ffffffff16815250848761ffff1681518110611eb357634e487b7160e01b600052603260045260246000fd5b6020026020010181905250505050505050565b60008160000b8360000b13611edb5781611edd565b825b9392505050565b6040805160c0810182526002815260ff868116602083015284169181019190915260006060820181905282810b608083015260a08201528351849061ffff8816908110611f4157634e487b7160e01b600052603260045260246000fd5b60200260200101819052505050505050565b60008160000b8360000b12611edb5781611edd565b6000808260010b12611f7b575080611b8a565b611f87826000196129e4565b9050611b8a565b60008163ffffffff168363ffffffff1611611edb5781611edd565b60008163ffffffff168363ffffffff1610611edb5781611edd565b604080516101408101825260608082526020820181905260009282018390528082018390526080820181905260a082015260c0810182905260e08101829052610100810182905261012081019190915290565b60408051608081018252600080825260208201819052918101829052606081019190915290565b6040805160a0810182526000808252602082018190526060928201839052918101829052608081019190915290565b82805482825590600052602060002090601f016020900481019282156121035791602002820160005b838211156120d457835183826101000a81548160ff021916908360ff1602179055509260200192600101602081600001049283019260010302612096565b80156121015782816101000a81549060ff02191690556001016020816000010492830192600103026120d4565b505b5061210f92915061218b565b5090565b60408051610100810182526000808252602082018190529181018290526060808201819052608082015260a0810182905260c0810182905260e081019190915290565b6040805160c081018252600080825260208201819052918101829052606081018290526080810182905260a081019190915290565b5b8082111561210f576000815560010161218c565b600082601f8301126121b0578081fd5b8135602067ffffffffffffffff808311156121cd576121cd612cba565b818302604051601f19603f830116810181811084821117156121f1576121f1612cba565b6040528481528381019250868401828801850189101561220f578687fd5b8692505b858310156122385761222481612256565b845292840192600192909201918401612213565b50979650505050505050565b803561ffff81168114611b8a57600080fd5b803560ff81168114611b8a57600080fd5b60008060006060848603121561227b578283fd5b83356001600160a01b0381168114612291578384fd5b9250602084013567ffffffffffffffff8111156122ac578283fd5b6122b8868287016121a0565b9250506122c760408501612256565b90509250925092565b6000806000606084860312156122e4578283fd5b833567ffffffffffffffff8111156122fa578384fd5b612306868287016121a0565b93505061231560208501612256565b9150604084013590509250925092565b600080600080600080600080610100898b031215612341578384fd5b61234a89612244565b975061235860208a01612244565b965061236660408a01612244565b955061237460608a01612244565b945061238260808a01612244565b935061239060a08a01612244565b925061239e60c08a01612244565b91506123ac60e08a01612244565b90509295985092959890939650565b600080600080600060a086880312156123d2578081fd5b85359450602086013567ffffffffffffffff808211156123f0578283fd5b6123fc89838a016121a0565b95506040880135915080821115612411578283fd5b5061241e888289016121a0565b93505061242d60608701612256565b915061243b60808701612256565b90509295509295909350565b6000815180845260208085019450808401835b838110156124be578151805160ff9081168952848201518116858a01526040808301518216908a015260608083015190911690890152608080820151870b9089015260a09081015163ffffffff169088015260c0909601959082019060010161245a565b509495945050505050565b6000815180845260208085019450808401835b838110156124be57815160ff16875295820195908201906001016124dc565b15159052565b60006001600160a01b038251168352602082015115156020840152604082015160a0604085015261253560a08501826124c9565b905060ff6060840151166060850152608083015160808501528091505092915050565b61ffff169052565b60ff169052565b6001600160a01b0391909116815260200190565b602080825282518282018190526000919060409081850190868401855b828110156125e457815180516001600160a01b0316855286810151878601528581015163ffffffff90811687870152606091820151169085015260809093019290850190600101612598565b5091979650505050505050565b6000602080830181845280855180835260408601915060408482028701019250838701855b8281101561264457603f19888603018452612632858351612501565b94509285019290850190600101612616565b5092979650505050505050565b602080825282518282018190526000919060409081850190868401855b828110156125e4578151805161ffff90811686528782015181168887015286820151805182168888015288015181166060808801919091528201511660808087019190915281015160a06126c481880183612558565b919091015190506126d860c0860182612558565b5060e093909301929085019060010161266e565b60208082526022908201527f53656c656374696f6e206e6565647320746f2068617665203420656c656d656e60408201527f7473000000000000000000000000000000000000000000000000000000000000606082015260800190565b60208082526024908201527f43616e206f6e6c792061747461636b206120726567697374657265642064656660408201527f656e636500000000000000000000000000000000000000000000000000000000606082015260800190565b60208082526016908201527f446566656e6365206e6f74207265676973746572656400000000000000000000604082015260600190565b60208082526033908201527f546869732066756e6374696f6e206973207265737472696374656420746f207460408201527f686520636f6e74726163742773206f776e657200000000000000000000000000606082015260800190565b60006020825282516101408060208501526128596101608501836124c9565b91506020850151601f198086850301604087015261287784836124c9565b93506040870151915061288d6060870183612560565b606087015191506128a16080870183612560565b60808701519150808685030160a08701526128bc8483612447565b935060a08701519150808685030160c0870152506128da8382612447565b92505060c08501516128ef60e08601826124fb565b5060e0850151610100612904818701836124fb565b860151905061012061291886820183612560565b959095015193019290925250919050565b600060208252611edd6020830184612501565b600081810b83820b82821282607f0382138115161561295d5761295d612c8e565b82607f1903821281161561297357612973612c8e565b50019392505050565b600061ffff80831681851680830382111561299957612999612c8e565b01949350505050565b600063ffffffff80831681851680830382111561299957612999612c8e565b600063ffffffff808416806129d8576129d8612ca4565b92169190910492915050565b60008160010b8360010b617fff83821384841383830485118282161615612a0d57612a0d612c8e565b617fff1986851282811687830587121615612a2a57612a2a612c8e565b878712925085820587128484161615612a4557612a45612c8e565b85850587128184161615612a5b57612a5b612c8e565b5050509290910295945050505050565b600061ffff80831681851681830481118215151615612a8c57612a8c612c8e565b02949350505050565b600063ffffffff80831681851681830481118215151615612a8c57612a8c612c8e565b600060ff821660ff84168160ff0481118215151615612ad957612ad9612c8e565b029392505050565b60008160010b8360010b82811281617fff1901831281151615612b0657612b06612c8e565b81617fff018313811615612b1c57612b1c612c8e565b5090039392505050565b60008160030b8360030b82811281637fffffff1901831281151615612b4d57612b4d612c8e565b81637fffffff018313811615612b1c57612b1c612c8e565b600081810b83820b8281128015607f19830184121615612b8757612b87612c8e565b81607f018313811615612b1c57612b1c612c8e565b600061ffff83811690831681811015612bb757612bb7612c8e565b039392505050565b600060ff821660ff841680821015612bd957612bd9612c8e565b90039392505050565b600081810b607f19811415612bf957612bf9612c8e565b6000190192915050565b600061ffff80831681811415612c1b57612c1b612c8e565b6001019392505050565b6000600019821415612c3957612c39612c8e565b5060010190565b600063ffffffff80831681811415612c1b57612c1b612c8e565b600060ff821660ff811415612c7157612c71612c8e565b60010192915050565b600082612c8957612c89612ca4565b500690565b634e487b7160e01b600052601160045260246000fd5b634e487b7160e01b600052601260045260246000fd5b634e487b7160e01b600052604160045260246000fdfea264697066735822122038c7a332ba21719d50c8258e88a363d158d76523cbb429e9c3a4f539df292dc564736f6c63430008010033",
  "linkReferences": {},
  "deployedLinkReferences": {}
}