{
  "_format": "hh-sol-artifact-1",
  "contractName": "NewOmega",
  "sourceName": "contracts/NewOmega.sol",
  "abi": [
    {
      "anonymous": false,
      "inputs": [
        {
          "indexed": true,
          "internalType": "address",
          "name": "attacker",
          "type": "address"
        },
        {
          "indexed": true,
          "internalType": "address",
          "name": "defender",
          "type": "address"
        },
        {
          "components": [
            {
              "internalType": "uint16[]",
              "name": "selectionLhs",
              "type": "uint16[]"
            },
            {
              "internalType": "uint16[]",
              "name": "selectionRhs",
              "type": "uint16[]"
            },
            {
              "internalType": "uint16",
              "name": "commanderLhs",
              "type": "uint16"
            },
            {
              "internalType": "uint16",
              "name": "commanderRhs",
              "type": "uint16"
            },
            {
              "components": [
                {
                  "internalType": "uint8",
                  "name": "moveType",
                  "type": "uint8"
                },
                {
                  "internalType": "uint8",
                  "name": "round",
                  "type": "uint8"
                },
                {
                  "internalType": "uint8",
                  "name": "source",
                  "type": "uint8"
                },
                {
                  "internalType": "uint8",
                  "name": "target",
                  "type": "uint8"
                },
                {
                  "internalType": "int8",
                  "name": "targetPosition",
                  "type": "int8"
                },
                {
                  "internalType": "uint32",
                  "name": "damage",
                  "type": "uint32"
                }
              ],
              "internalType": "struct Move[]",
              "name": "lhs",
              "type": "tuple[]"
            },
            {
              "components": [
                {
                  "internalType": "uint8",
                  "name": "moveType",
                  "type": "uint8"
                },
                {
                  "internalType": "uint8",
                  "name": "round",
                  "type": "uint8"
                },
                {
                  "internalType": "uint8",
                  "name": "source",
                  "type": "uint8"
                },
                {
                  "internalType": "uint8",
                  "name": "target",
                  "type": "uint8"
                },
                {
                  "internalType": "int8",
                  "name": "targetPosition",
                  "type": "int8"
                },
                {
                  "internalType": "uint32",
                  "name": "damage",
                  "type": "uint32"
                }
              ],
              "internalType": "struct Move[]",
              "name": "rhs",
              "type": "tuple[]"
            },
            {
              "internalType": "bool",
              "name": "lhsDead",
              "type": "bool"
            },
            {
              "internalType": "bool",
              "name": "rhsDead",
              "type": "bool"
            },
            {
              "internalType": "uint8",
              "name": "rounds",
              "type": "uint8"
            },
            {
              "internalType": "uint256",
              "name": "seed",
              "type": "uint256"
            }
          ],
          "indexed": false,
          "internalType": "struct FightResult",
          "name": "result",
          "type": "tuple"
        }
      ],
      "name": "FightComplete",
      "type": "event"
    },
    {
      "inputs": [
        {
          "internalType": "uint16",
          "name": "index",
          "type": "uint16"
        },
        {
          "internalType": "uint16",
          "name": "cp",
          "type": "uint16"
        },
        {
          "internalType": "uint16",
          "name": "hp",
          "type": "uint16"
        },
        {
          "internalType": "uint16",
          "name": "attackBase",
          "type": "uint16"
        },
        {
          "internalType": "uint16",
          "name": "attackVariable",
          "type": "uint16"
        },
        {
          "internalType": "uint16",
          "name": "defence",
          "type": "uint16"
        },
        {
          "internalType": "uint16",
          "name": "speed",
          "type": "uint16"
        },
        {
          "internalType": "uint16",
          "name": "range",
          "type": "uint16"
        },
        {
          "internalType": "uint16",
          "name": "agility",
          "type": "uint16"
        }
      ],
      "name": "addShip",
      "outputs": [],
      "stateMutability": "nonpayable",
      "type": "function"
    },
    {
      "inputs": [
        {
          "internalType": "address",
          "name": "enemy",
          "type": "address"
        },
        {
          "internalType": "uint16[]",
          "name": "selection",
          "type": "uint16[]"
        },
        {
          "internalType": "uint16",
          "name": "commander",
          "type": "uint16"
        }
      ],
      "name": "attack",
      "outputs": [],
      "stateMutability": "nonpayable",
      "type": "function"
    },
    {
      "inputs": [],
      "name": "getAllDefenders",
      "outputs": [
        {
          "components": [
            {
              "internalType": "address",
              "name": "player",
              "type": "address"
            },
            {
              "internalType": "bool",
              "name": "isInitialised",
              "type": "bool"
            },
            {
              "internalType": "uint16[]",
              "name": "defenceSelection",
              "type": "uint16[]"
            },
            {
              "internalType": "uint16",
              "name": "commander",
              "type": "uint16"
            },
            {
              "internalType": "bytes32",
              "name": "name",
              "type": "bytes32"
            }
          ],
          "internalType": "struct PlayerDefence[]",
          "name": "",
          "type": "tuple[]"
        }
      ],
      "stateMutability": "view",
      "type": "function"
    },
    {
      "inputs": [],
      "name": "getLeaderboard",
      "outputs": [
        {
          "components": [
            {
              "internalType": "address",
              "name": "player",
              "type": "address"
            },
            {
              "internalType": "bytes32",
              "name": "name",
              "type": "bytes32"
            },
            {
              "internalType": "uint32",
              "name": "wins",
              "type": "uint32"
            },
            {
              "internalType": "uint32",
              "name": "losses",
              "type": "uint32"
            }
          ],
          "internalType": "struct LeaderboardEntry[]",
          "name": "",
          "type": "tuple[]"
        }
      ],
      "stateMutability": "view",
      "type": "function"
    },
    {
      "inputs": [],
      "name": "getOwnDefence",
      "outputs": [
        {
          "components": [
            {
              "internalType": "address",
              "name": "player",
              "type": "address"
            },
            {
              "internalType": "bool",
              "name": "isInitialised",
              "type": "bool"
            },
            {
              "internalType": "uint16[]",
              "name": "defenceSelection",
              "type": "uint16[]"
            },
            {
              "internalType": "uint16",
              "name": "commander",
              "type": "uint16"
            },
            {
              "internalType": "bytes32",
              "name": "name",
              "type": "bytes32"
            }
          ],
          "internalType": "struct PlayerDefence",
          "name": "",
          "type": "tuple"
        }
      ],
      "stateMutability": "view",
      "type": "function"
    },
    {
      "inputs": [],
      "name": "getShips",
      "outputs": [
        {
          "components": [
            {
              "internalType": "uint16",
              "name": "cp",
              "type": "uint16"
            },
            {
              "internalType": "uint16",
              "name": "hp",
              "type": "uint16"
            },
            {
              "components": [
                {
                  "internalType": "uint16",
                  "name": "base",
                  "type": "uint16"
                },
                {
                  "internalType": "uint16",
                  "name": "variable",
                  "type": "uint16"
                }
              ],
              "internalType": "struct ShipVariableStat",
              "name": "attack",
              "type": "tuple"
            },
            {
              "internalType": "uint16",
              "name": "defence",
              "type": "uint16"
            },
            {
              "internalType": "uint16",
              "name": "speed",
              "type": "uint16"
            },
            {
              "internalType": "uint16",
              "name": "range",
              "type": "uint16"
            },
            {
              "internalType": "uint16",
              "name": "agility",
              "type": "uint16"
            }
          ],
          "internalType": "struct Ship[]",
          "name": "",
          "type": "tuple[]"
        }
      ],
      "stateMutability": "view",
      "type": "function"
    },
    {
      "inputs": [],
      "name": "owner",
      "outputs": [
        {
          "internalType": "address",
          "name": "",
          "type": "address"
        }
      ],
      "stateMutability": "view",
      "type": "function"
    },
    {
      "inputs": [
        {
          "internalType": "uint16[]",
          "name": "defence",
          "type": "uint16[]"
        },
        {
          "internalType": "uint16",
          "name": "commander",
          "type": "uint16"
        },
        {
          "internalType": "bytes32",
          "name": "name",
          "type": "bytes32"
        }
      ],
      "name": "registerDefence",
      "outputs": [],
      "stateMutability": "nonpayable",
      "type": "function"
    },
    {
      "inputs": [
        {
          "internalType": "uint256",
          "name": "seed",
          "type": "uint256"
        },
        {
          "internalType": "uint16[]",
          "name": "selectionLhs",
          "type": "uint16[]"
        },
        {
          "internalType": "uint16[]",
          "name": "selectionRhs",
          "type": "uint16[]"
        },
        {
          "internalType": "uint16",
          "name": "commanderLhs",
          "type": "uint16"
        },
        {
          "internalType": "uint16",
          "name": "commanderRhs",
          "type": "uint16"
        }
      ],
      "name": "replay",
      "outputs": [
        {
          "components": [
            {
              "internalType": "uint16[]",
              "name": "selectionLhs",
              "type": "uint16[]"
            },
            {
              "internalType": "uint16[]",
              "name": "selectionRhs",
              "type": "uint16[]"
            },
            {
              "internalType": "uint16",
              "name": "commanderLhs",
              "type": "uint16"
            },
            {
              "internalType": "uint16",
              "name": "commanderRhs",
              "type": "uint16"
            },
            {
              "components": [
                {
                  "internalType": "uint8",
                  "name": "moveType",
                  "type": "uint8"
                },
                {
                  "internalType": "uint8",
                  "name": "round",
                  "type": "uint8"
                },
                {
                  "internalType": "uint8",
                  "name": "source",
                  "type": "uint8"
                },
                {
                  "internalType": "uint8",
                  "name": "target",
                  "type": "uint8"
                },
                {
                  "internalType": "int8",
                  "name": "targetPosition",
                  "type": "int8"
                },
                {
                  "internalType": "uint32",
                  "name": "damage",
                  "type": "uint32"
                }
              ],
              "internalType": "struct Move[]",
              "name": "lhs",
              "type": "tuple[]"
            },
            {
              "components": [
                {
                  "internalType": "uint8",
                  "name": "moveType",
                  "type": "uint8"
                },
                {
                  "internalType": "uint8",
                  "name": "round",
                  "type": "uint8"
                },
                {
                  "internalType": "uint8",
                  "name": "source",
                  "type": "uint8"
                },
                {
                  "internalType": "uint8",
                  "name": "target",
                  "type": "uint8"
                },
                {
                  "internalType": "int8",
                  "name": "targetPosition",
                  "type": "int8"
                },
                {
                  "internalType": "uint32",
                  "name": "damage",
                  "type": "uint32"
                }
              ],
              "internalType": "struct Move[]",
              "name": "rhs",
              "type": "tuple[]"
            },
            {
              "internalType": "bool",
              "name": "lhsDead",
              "type": "bool"
            },
            {
              "internalType": "bool",
              "name": "rhsDead",
              "type": "bool"
            },
            {
              "internalType": "uint8",
              "name": "rounds",
              "type": "uint8"
            },
            {
              "internalType": "uint256",
              "name": "seed",
              "type": "uint256"
            }
          ],
          "internalType": "struct FightResult",
          "name": "",
          "type": "tuple"
        }
      ],
      "stateMutability": "view",
      "type": "function"
    }
  ],
  "bytecode": "0x6080604052600080546001600160a01b0319163317905534801561002257600080fd5b5061303b806100326000396000f3fe608060405234801561001057600080fd5b50600436106100a35760003560e01c80637af584de11610076578063c0d0504a1161005b578063c0d0504a1461012d578063d43b838c14610140578063ffa0c0c414610155576100a3565b80637af584de146101035780638da5cb5b14610118576100a3565b806309d27389146100a85780633bed82bf146100bd5780636738f234146100d05780636d763a6e146100ee575b600080fd5b6100bb6100b636600461257f565b610175565b005b6100bb6100cb366004612516565b6103a7565b6100d8610673565b6040516100e5919061294e565b60405180910390f35b6100f661076a565b6040516100e59190612878565b61010b6108bf565b6040516100e591906128ee565b610120610a79565b6040516100e59190612864565b6100bb61013b3660046125d4565b610a88565b610148610db8565b6040516100e59190612c3f565b61016861016336600461267b565b610ec9565b6040516100e59190612b50565b6040805160a08101825233808252600160208084019190915282840187905261ffff86166060840152608083018590526000918252600590529190912054600160a01b900460ff1661021157600680546001810182556000919091527ff652222313e28459528d920b65115c16c04f3efc82aaedc97be59f3f377c0d3f01805473ffffffffffffffffffffffffffffffffffffffff1916331790555b3360009081526005602090815260409182902083518154838601511515600160a01b027fffffffffffffffffffffff00ffffffffffffffffffffffffffffffffffffffff6001600160a01b039390931673ffffffffffffffffffffffffffffffffffffffff19909216919091179190911617815591830151805184939261029f926001850192910190612295565b50606082015160028201805461ffff191661ffff909216919091179055608090910151600391820155336000908152602091909152604090205460ff166103a15760408051606081018252600180825260006020808401828152848601838152338085526003909352958320945185549151965160ff199092169015151764ffffffff00191661010063ffffffff978816021768ffffffff00000000001916650100000000009690911695909502949094179092556004805491820181559091527f8a35acfbc15ff81a39ae7d344fd709f28e8600b4aa8c65c6b64bfe7fe36bd19b01805473ffffffffffffffffffffffffffffffffffffffff191690911790555b50505050565b6001600160a01b038316600090815260056020526040902054600160a01b900460ff166103ef5760405162461bcd60e51b81526004016103e690612a5f565b60405180910390fd5b600044423360405160200161040693929190612829565b60408051601f1981840301815282825280516020918201206001600160a01b038816600090815260058352838120600101805480850287018501909552848652919550936104d7938693899391908301828280156104ab57602002820191906000526020600020906000905b82829054906101000a900461ffff1661ffff16815260200190600201906020826001010492830192600103820291508084116104725790505b505050506001600160a01b038a1660009081526005602052604090206002015488915061ffff16610ff3565b90508060c001511561057f576001600160a01b03851660009081526003602052604090208054610100900463ffffffff1690600161051483612f75565b82546101009290920a63ffffffff81810219909316918316021790915533600090815260036020526040902080546501000000000090049091169150600561055b83612f75565b91906101000a81548163ffffffff021916908363ffffffff16021790555050610621565b8060e0015115610621573360009081526003602052604090208054610100900463ffffffff169060016105b183612f75565b82546101009290920a63ffffffff8181021990931691831602179091556001600160a01b038716600090815260036020526040902080546501000000000090049091169150600561060183612f75565b91906101000a81548163ffffffff021916908363ffffffff160217905550505b846001600160a01b0316336001600160a01b03167f6ad9617ab2b98a0608d4058409eb1ffad23a12e77d1d5f7f97107228343a7753836040516106649190612b50565b60405180910390a35050505050565b6000546060906001600160a01b031633146106a05760405162461bcd60e51b81526004016103e690612af3565b6002805480602002602001604051908101604052809291908181526020016000905b828210156107615760008481526020908190206040805160e08101825260038602909201805461ffff80821685526201000091829004811685870152835180850185526001808501548084168352849004831682890152948601526002909201548083166060860152908104821660808501526401000000008104821660a0850152660100000000000090041660c083015290835290920191016106c2565b50505050905090565b60045460609060009067ffffffffffffffff81111561079957634e487b7160e01b600052604160045260246000fd5b6040519080825280602002602001820160405280156107d257816020015b6107bf61233e565b8152602001906001900390816107b75790505b50905060005b6004548110156108b95760006004828154811061080557634e487b7160e01b600052603260045260246000fd5b6000918252602080832090910154604080516080810182526001600160a01b0390921680835280855260058452818520600390810154848601528186528085528286205463ffffffff610100820481169486019490945295829052909352650100000000009093049092166060830152845190925084908490811061089a57634e487b7160e01b600052603260045260246000fd5b60200260200101819052505080806108b190612f5a565b9150506107d8565b50905090565b60065460609060009067ffffffffffffffff8111156108ee57634e487b7160e01b600052604160045260246000fd5b60405190808252806020026020018201604052801561092757816020015b610914612365565b81526020019060019003908161090c5790505b50905060005b6006548110156108b957600560006006838154811061095c57634e487b7160e01b600052603260045260246000fd5b6000918252602080832091909101546001600160a01b039081168452838201949094526040928301909120825160a08101845281549485168152600160a01b90940460ff1615158483015260018101805484518185028101850186528181529294860193830182828015610a1757602002820191906000526020600020906000905b82829054906101000a900461ffff1661ffff16815260200190600201906020826001010492830192600103820291508084116109de5790505b5050509183525050600282015461ffff1660208201526003909101546040909101528251839083908110610a5b57634e487b7160e01b600052603260045260246000fd5b60200260200101819052508080610a7190612f5a565b91505061092d565b6000546001600160a01b031681565b6000546001600160a01b03163314610ab25760405162461bcd60e51b81526004016103e690612af3565b60006040518060e001604052808a61ffff1681526020018961ffff16815260200160405180604001604052808a61ffff1681526020018961ffff1681525081526020018661ffff1681526020018561ffff1681526020018461ffff1681526020018361ffff16815250905080600160008c61ffff16815260200190815260200160002060008201518160000160006101000a81548161ffff021916908361ffff16021790555060208201518160000160026101000a81548161ffff021916908361ffff16021790555060408201518160010160008201518160000160006101000a81548161ffff021916908361ffff16021790555060208201518160000160026101000a81548161ffff021916908361ffff160217905550505060608201518160020160006101000a81548161ffff021916908361ffff16021790555060808201518160020160026101000a81548161ffff021916908361ffff16021790555060a08201518160020160046101000a81548161ffff021916908361ffff16021790555060c08201518160020160066101000a81548161ffff021916908361ffff160217905550905050600281908060018154018082558091505060019003906000526020600020906003020160009091909190915060008201518160000160006101000a81548161ffff021916908361ffff16021790555060208201518160000160026101000a81548161ffff021916908361ffff16021790555060408201518160010160008201518160000160006101000a81548161ffff021916908361ffff16021790555060208201518160000160026101000a81548161ffff021916908361ffff160217905550505060608201518160020160006101000a81548161ffff021916908361ffff16021790555060808201518160020160026101000a81548161ffff021916908361ffff16021790555060a08201518160020160046101000a81548161ffff021916908361ffff16021790555060c08201518160020160066101000a81548161ffff021916908361ffff160217905550505050505050505050505050565b610dc0612365565b33600090815260056020526040902054600160a01b900460ff16610df65760405162461bcd60e51b81526004016103e690612abc565b33600090815260056020908152604091829020825160a08101845281546001600160a01b0381168252600160a01b900460ff1615158184015260018201805485518186028101860187528181529295939493860193830182828015610ea257602002820191906000526020600020906000905b82829054906101000a900461ffff1661ffff1681526020019060020190602082600101049283019260010382029150808411610e695790505b5050509183525050600282015461ffff166020820152600390910154604090910152905090565b610ed1612394565b8451600414610ef25760405162461bcd60e51b81526004016103e690612a02565b8351600414610f135760405162461bcd60e51b81526004016103e690612a02565b610fe78660016002805480602002602001604051908101604052809291908181526020016000905b82821015610fda5760008481526020908190206040805160e08101825260038602909201805461ffff80821685526201000091829004811685870152835180850185526001808501548084168352849004831682890152948601526002909201548083166060860152908104821660808501526401000000008104821660a0850152660100000000000090041660c08301529083529092019101610f3b565b50505050888888886110fe565b90505b95945050505050565b610ffb612394565b845160041461101c5760405162461bcd60e51b81526004016103e690612a02565b835160041461103d5760405162461bcd60e51b81526004016103e690612a02565b6002805460408051602080840282018101909252828152610fe7938a93600093849084018215610fda5760008481526020908190206040805160e08101825260038602909201805461ffff80821685526201000091829004811685870152835180850185526001808501548084168352849004831682890152948601526002909201548083166060860152908104821660808501526401000000008104821660a0850152660100000000000090041660c08301529083529092019101610f3b565b611106612394565b84516004146111275760405162461bcd60e51b81526004016103e690612a02565b83516004146111485760405162461bcd60e51b81526004016103e690612a02565b60408051600480825260a0820190925260009160208201608080368337019050509050600a8160008151811061118e57634e487b7160e01b600052603260045260246000fd5b602002602001019060000b908160000b81525050600b816001815181106111c557634e487b7160e01b600052603260045260246000fd5b602002602001019060000b908160000b81525050600c816002815181106111fc57634e487b7160e01b600052603260045260246000fd5b602002602001019060000b908160000b81525050600d8160038151811061123357634e487b7160e01b600052603260045260246000fd5b600092830b830b602091820292909201015260408051600480825260a08201909252908160200160208202803683370190505090506009198160008151811061128c57634e487b7160e01b600052603260045260246000fd5b602002602001019060000b908160000b81525050600a19816001815181106112c457634e487b7160e01b600052603260045260246000fd5b602002602001019060000b908160000b81525050600b19816002815181106112fc57634e487b7160e01b600052603260045260246000fd5b602002602001019060000b908160000b81525050600c198160038151811061133457634e487b7160e01b600052603260045260246000fd5b600092830b830b602091820292909201015260408051600480825260a0820190925290816020016020820280368337505060408051600480825260a0820190925292935060009291506020820160808036833701905050905060005b600461ffff821610156114fc57898161ffff16815181106113c157634e487b7160e01b600052603260045260246000fd5b602002602001015161ffff168b8261ffff16815181106113f157634e487b7160e01b600052603260045260246000fd5b60200260200101516020015161ffff1661140b9190612d9e565b838261ffff168151811061142f57634e487b7160e01b600052603260045260246000fd5b602002602001019060070b908160070b81525050888161ffff168151811061146757634e487b7160e01b600052603260045260246000fd5b602002602001015161ffff168b8261ffff168151811061149757634e487b7160e01b600052603260045260246000fd5b60200260200101516020015161ffff166114b19190612d9e565b828261ffff16815181106114d557634e487b7160e01b600052603260045260246000fd5b602002602001019060070b908160070b8152505080806114f490612f38565b915050611390565b506115056123e7565b8b156115f45761151760046014612e3d565b60ff1667ffffffffffffffff81111561154057634e487b7160e01b600052604160045260246000fd5b60405190808252806020026020018201604052801561157957816020015b61156661241b565b81526020019060019003908161155e5790505b50606082015261158b60046014612e3d565b60ff1667ffffffffffffffff8111156115b457634e487b7160e01b600052604160045260246000fd5b6040519080825280602002602001820160405280156115ed57816020015b6115da61241b565b8152602001906001900390816115d25790505b5060808201525b600081525b8051601460ff909116108015611615575061161383611ae6565b155b8015611627575061162582611ae6565b155b15611a5e57600060a08201525b600460ff168160a0015160ff161015611847576000838260a0015160ff168151811061167057634e487b7160e01b600052603260045260246000fd5b602002602001015160070b131561182c5760006116948c8360a00151888887611b48565b905060008160000b1261176d5760006116e28f8e8560a0015185898860a0015160ff16815181106116d557634e487b7160e01b600052603260045260246000fd5b6020026020010151611caf565b90508063ffffffff16848360ff168151811061170e57634e487b7160e01b600052603260045260246000fd5b602002602001018181516117229190612eab565b600790810b900b9052508d15611767576020830180516117679161174582612f8f565b60ff1660ff1681525060ff16846000015185606001518660a001518686611ea8565b5061182a565b6117878c60018460a0015160ff166000198a8a8a8a611f22565b868360a0015160ff16815181106117ae57634e487b7160e01b600052603260045260246000fd5b602002602001019060000b908160000b815250508c1561182a5760208201805161182a916117db82612f8f565b60ff1660ff1681525060ff16836000015184606001518560a001518a8760a0015160ff168151811061181d57634e487b7160e01b600052603260045260246000fd5b6020026020010151612098565b505b60a0810180519061183c82612f8f565b60ff16905250611634565b600060a08201525b600460ff168160a0015160ff161015611a47576000828260a0015160ff168151811061188b57634e487b7160e01b600052603260045260246000fd5b602002602001015160070b1315611a2c5760006118af8c8360a00151878988611b48565b905060008160000b1261197b5760006118f08f8e8560a0015185888860a0015160ff16815181106116d557634e487b7160e01b600052603260045260246000fd5b90508063ffffffff16858360ff168151811061191c57634e487b7160e01b600052603260045260246000fd5b602002602001018181516119309190612eab565b600790810b900b9052508d15611975576040830180516119759161195382612f8f565b60ff1660ff1681525060ff16846000015185608001518660a001518686611ea8565b50611a2a565b6119948c60008460a0015160ff1660018a8a8a8a611f22565b858360a0015160ff16815181106119bb57634e487b7160e01b600052603260045260246000fd5b602002602001019060000b908160000b815250508c15611a2a57604082018051611a2a916119e882612f8f565b60ff1660ff1681525060ff16836000015184608001518560a00151898760a0015160ff168151811061181d57634e487b7160e01b600052603260045260246000fd5b505b60a08101805190611a3c82612f8f565b60ff1690525061184f565b805181611a5382612f8f565b60ff169052506115f9565b60609350606094506040518061014001604052808b81526020018a81526020018961ffff1681526020018861ffff1681526020018260600151815260200182608001518152602001611aaf85611ae6565b15158152602001611abf84611ae6565b15158152915160ff16602083015260409091018d9052945050505050979650505050505050565b60006001815b6004811015611b3f576000848281518110611b1757634e487b7160e01b600052603260045260246000fd5b602002602001015160070b1315611b2d57600091505b80611b3781612f5a565b915050611aec565b5090505b919050565b600080848660ff1681518110611b6e57634e487b7160e01b600052603260045260246000fd5b602002602001015160000b90506000661fffffffffffff90506000805b600460ff82161015611c85576000878260ff1681518110611bbc57634e487b7160e01b600052603260045260246000fd5b602002602001015190506000611bdf8260000b87611bda9190612e66565b612107565b90506000888460ff1681518110611c0657634e487b7160e01b600052603260045260246000fd5b602002602001015160070b138015611c5457508b8b60ff1681518110611c3c57634e487b7160e01b600052603260045260246000fd5b602002602001015160a0015161ffff168161ffff1611155b15611c7057848161ffff161015611c70578061ffff1694508293505b50508080611c7d90612f8f565b915050611b8b565b5060009250661fffffffffffff8214611c9e5780611ca2565b6000195b9998505050505050505050565b600080858560ff1681518110611cd557634e487b7160e01b600052603260045260246000fd5b6020026020010151604001516020015161ffff1687611cf49190612faf565b868660ff1681518110611d1757634e487b7160e01b600052603260045260246000fd5b60200260200101516040015160000151611d319190612c92565b90506000868560ff1681518110611d5857634e487b7160e01b600052603260045260246000fd5b60200260200101516060015190506000878660ff1681518110611d8b57634e487b7160e01b600052603260045260246000fd5b602002602001015160c001516064611da39190612ef2565b90506000600a82611db48587612ef2565b611dbe9190612df0565b611dc89190612cdb565b61ffff1690506000898960ff1681518110611df357634e487b7160e01b600052603260045260246000fd5b60200260200101516020015161ffff1687611e0e9190612cfc565b611e19906001612cb8565b905060008a8960ff1681518110611e4057634e487b7160e01b600052603260045260246000fd5b60200260200101516020015161ffff168261ffff16611e5f9190612e1a565b90506000611e7161ffff841685612e1a565b905060009650600095506000945060009250611e97611e9160008361212d565b8361214b565b9d9c50505050505050505050505050565b6040518060c00160405280600160ff1681526020018660ff1681526020018460ff1681526020018360ff1681526020016000800b81526020018263ffffffff16815250848761ffff1681518110611f0f57634e487b7160e01b600052603260045260246000fd5b6020026020010181905250505050505050565b600080898861ffff1681518110611f4957634e487b7160e01b600052603260045260246000fd5b6020026020010151608001519050600089611f8f57858961ffff1681518110611f8257634e487b7160e01b600052603260045260246000fd5b6020026020010151611fbc565b868961ffff1681518110611fb357634e487b7160e01b600052603260045260246000fd5b60200260200101515b9050815b60008160010b13156120895760008b61201857611fdd828b612d17565b888c61ffff168151811061200157634e487b7160e01b600052603260045260246000fd5b60200260200101516120139190612c52565b612058565b612022828b612d17565b898c61ffff168151811061204657634e487b7160e01b600052603260045260246000fd5b60200260200101516120589190612c52565b905061206a8160000b8a8a8a8a612160565b15612076579150612089565b508061208181612f15565b915050611fc0565b509a9950505050505050505050565b6040805160c0810182526002815260ff868116602083015284169181019190915260006060820181905282810b608083015260a08201528351849061ffff88169081106120f557634e487b7160e01b600052603260045260246000fd5b60200260200101819052505050505050565b6000808260010b1261211a575080611b43565b61212682600019612d17565b9050611b43565b60008160030b8360030b136121425781612144565b825b9392505050565b60008160030b8360030b126121425781612144565b6000600f61216d87612107565b61ffff16111561217f57506000610fea565b6000805b600460ff82161015612289578760010b878260ff16815181106121b657634e487b7160e01b600052603260045260246000fd5b602002602001015160000b1480156121fb57506000858260ff16815181106121ee57634e487b7160e01b600052603260045260246000fd5b602002602001015160070b135b8061226d57508760010b868260ff168151811061222857634e487b7160e01b600052603260045260246000fd5b602002602001015160000b14801561226d57506000848260ff168151811061226057634e487b7160e01b600052603260045260246000fd5b602002602001015160070b135b1561227757600191505b8061228181612f8f565b915050612183565b50159695505050505050565b82805482825590600052602060002090600f0160109004810192821561232e5791602002820160005b838211156122fe57835183826101000a81548161ffff021916908361ffff16021790555092602001926002016020816001010492830192600103026122be565b801561232c5782816101000a81549061ffff02191690556002016020816001010492830192600103026122fe565b505b5061233a929150612450565b5090565b60408051608081018252600080825260208201819052918101829052606081019190915290565b6040805160a0810182526000808252602082018190526060928201839052918101829052608081019190915290565b604080516101408101825260608082526020820181905260009282018390528082018390526080820181905260a082015260c0810182905260e08101829052610100810182905261012081019190915290565b6040805160c0810182526000808252602082018190529181018290526060808201819052608082015260a081019190915290565b6040805160c081018252600080825260208201819052918101829052606081018290526080810182905260a081019190915290565b5b8082111561233a5760008155600101612451565b600082601f830112612475578081fd5b8135602067ffffffffffffffff8083111561249257612492612fef565b818302604051838282010181811084821117156124b1576124b1612fef565b604052848152838101925086840182880185018910156124cf578687fd5b8692505b858310156124f8576124e481612504565b8452928401926001929092019184016124d3565b50979650505050505050565b803561ffff81168114611b4357600080fd5b60008060006060848603121561252a578283fd5b83356001600160a01b0381168114612540578384fd5b9250602084013567ffffffffffffffff81111561255b578283fd5b61256786828701612465565b92505061257660408501612504565b90509250925092565b600080600060608486031215612593578283fd5b833567ffffffffffffffff8111156125a9578384fd5b6125b586828701612465565b9350506125c460208501612504565b9150604084013590509250925092565b60008060008060008060008060006101208a8c0312156125f2578485fd5b6125fb8a612504565b985061260960208b01612504565b975061261760408b01612504565b965061262560608b01612504565b955061263360808b01612504565b945061264160a08b01612504565b935061264f60c08b01612504565b925061265d60e08b01612504565b915061266c6101008b01612504565b90509295985092959850929598565b600080600080600060a08688031215612692578081fd5b85359450602086013567ffffffffffffffff808211156126b0578283fd5b6126bc89838a01612465565b955060408801359150808211156126d1578283fd5b506126de88828901612465565b9350506126ed60608701612504565b91506126fb60808701612504565b90509295509295909350565b6000815180845260208085019450808401835b8381101561277e578151805160ff9081168952848201518116858a01526040808301518216908a015260608083015190911690890152608080820151870b9089015260a09081015163ffffffff169088015260c0909601959082019060010161271a565b509495945050505050565b6000815180845260208085019450808401835b8381101561277e57815161ffff168752958201959082019060010161279c565b15159052565b60006001600160a01b038251168352602082015115156020840152604082015160a060408501526127f660a0850182612789565b905061ffff6060840151166060850152608083015160808501528091505092915050565b61ffff169052565b60ff169052565b928352602083019190915260601b7fffffffffffffffffffffffffffffffffffffffff00000000000000000000000016604082015260540190565b6001600160a01b0391909116815260200190565b602080825282518282018190526000919060409081850190868401855b828110156128e157815180516001600160a01b0316855286810151878601528581015163ffffffff90811687870152606091820151169085015260809093019290850190600101612895565b5091979650505050505050565b6000602080830181845280855180835260408601915060408482028701019250838701855b8281101561294157603f1988860301845261292f8583516127c2565b94509285019290850190600101612913565b5092979650505050505050565b602080825282518282018190526000919060409081850190868401855b828110156128e1578151805161ffff9081168652878201518116888701528682015180518216888801528801511660608087019190915281015160806129b38188018361281a565b820151905060a06129c68782018361281a565b820151905060c06129d98782018361281a565b919091015190506129ed60e086018261281a565b5061010093909301929085019060010161296b565b60208082526022908201527f53656c656374696f6e206e6565647320746f2068617665203420656c656d656e60408201527f7473000000000000000000000000000000000000000000000000000000000000606082015260800190565b60208082526024908201527f43616e206f6e6c792061747461636b206120726567697374657265642064656660408201527f656e636500000000000000000000000000000000000000000000000000000000606082015260800190565b60208082526016908201527f446566656e6365206e6f74207265676973746572656400000000000000000000604082015260600190565b60208082526033908201527f546869732066756e6374696f6e206973207265737472696374656420746f207460408201527f686520636f6e74726163742773206f776e657200000000000000000000000000606082015260800190565b6000602082528251610140806020850152612b6f610160850183612789565b91506020850151601f1980868503016040870152612b8d8483612789565b935060408701519150612ba3606087018361281a565b60608701519150612bb7608087018361281a565b60808701519150808685030160a0870152612bd28483612707565b935060a08701519150808685030160c087015250612bf08382612707565b92505060c0850151612c0560e08601826127bc565b5060e0850151610100612c1a818701836127bc565b8601519050610120612c2e86820183612822565b959095015193019290925250919050565b60006020825261214460208301846127c2565b600081810b83820b82821282607f03821381151615612c7357612c73612fc3565b82607f19038212811615612c8957612c89612fc3565b50019392505050565b600061ffff808316818516808303821115612caf57612caf612fc3565b01949350505050565b600067ffffffffffffffff808316818516808303821115612caf57612caf612fc3565b600061ffff80841680612cf057612cf0612fd9565b92169190910492915050565b600067ffffffffffffffff80841680612cf057612cf0612fd9565b60008160010b8360010b617fff83821384841383830485118282161615612d4057612d40612fc3565b617fff1986851282811687830587121615612d5d57612d5d612fc3565b878712925085820587128484161615612d7857612d78612fc3565b85850587128184161615612d8e57612d8e612fc3565b5050509290910295945050505050565b60008160070b8360070b677fffffffffffffff83821384841383830485118282161615612dcd57612dcd612fc3565b677fffffffffffffff1986851282811687830587121615612d5d57612d5d612fc3565b600061ffff80831681851681830481118215151615612e1157612e11612fc3565b02949350505050565b600063ffffffff80831681851681830481118215151615612e1157612e11612fc3565b600060ff821660ff84168160ff0481118215151615612e5e57612e5e612fc3565b029392505050565b60008160010b8360010b82811281617fff1901831281151615612e8b57612e8b612fc3565b81617fff018313811615612ea157612ea1612fc3565b5090039392505050565b60008160070b8360070b82811281677fffffffffffffff1901831281151615612ed657612ed6612fc3565b81677fffffffffffffff018313811615612ea157612ea1612fc3565b600061ffff83811690831681811015612f0d57612f0d612fc3565b039392505050565b60008160010b617fff19811415612f2e57612f2e612fc3565b6000190192915050565b600061ffff80831681811415612f5057612f50612fc3565b6001019392505050565b6000600019821415612f6e57612f6e612fc3565b5060010190565b600063ffffffff80831681811415612f5057612f50612fc3565b600060ff821660ff811415612fa657612fa6612fc3565b60010192915050565b600082612fbe57612fbe612fd9565b500690565b634e487b7160e01b600052601160045260246000fd5b634e487b7160e01b600052601260045260246000fd5b634e487b7160e01b600052604160045260246000fdfea26469706673582212207538a33d3f832152916cdb7cbb0f6148f08c7c71a9233cbcf9b4056d87523b5c64736f6c63430008000033",
  "linkReferences": {},
  "deployedLinkReferences": {}
}