{
  "contracts/NewOmega.sol": {
    "NewOmega": {
      "abi": [
        {
          "anonymous": false,
          "inputs": [
            {
              "indexed": true,
              "internalType": "address",
              "name": "attacker",
              "type": "address"
            },
            {
              "indexed": true,
              "internalType": "address",
              "name": "defender",
              "type": "address"
            },
            {
              "components": [
                {
                  "internalType": "uint16[]",
                  "name": "selectionLhs",
                  "type": "uint16[]"
                },
                {
                  "internalType": "uint16[]",
                  "name": "selectionRhs",
                  "type": "uint16[]"
                },
                {
                  "internalType": "uint16",
                  "name": "commanderLhs",
                  "type": "uint16"
                },
                {
                  "internalType": "uint16",
                  "name": "commanderRhs",
                  "type": "uint16"
                },
                {
                  "components": [
                    {
                      "internalType": "uint8",
                      "name": "moveType",
                      "type": "uint8"
                    },
                    {
                      "internalType": "uint8",
                      "name": "round",
                      "type": "uint8"
                    },
                    {
                      "internalType": "uint8",
                      "name": "source",
                      "type": "uint8"
                    },
                    {
                      "internalType": "uint8",
                      "name": "target",
                      "type": "uint8"
                    },
                    {
                      "internalType": "int8",
                      "name": "targetPosition",
                      "type": "int8"
                    },
                    {
                      "internalType": "uint32",
                      "name": "damage",
                      "type": "uint32"
                    }
                  ],
                  "internalType": "struct Move[]",
                  "name": "lhs",
                  "type": "tuple[]"
                },
                {
                  "components": [
                    {
                      "internalType": "uint8",
                      "name": "moveType",
                      "type": "uint8"
                    },
                    {
                      "internalType": "uint8",
                      "name": "round",
                      "type": "uint8"
                    },
                    {
                      "internalType": "uint8",
                      "name": "source",
                      "type": "uint8"
                    },
                    {
                      "internalType": "uint8",
                      "name": "target",
                      "type": "uint8"
                    },
                    {
                      "internalType": "int8",
                      "name": "targetPosition",
                      "type": "int8"
                    },
                    {
                      "internalType": "uint32",
                      "name": "damage",
                      "type": "uint32"
                    }
                  ],
                  "internalType": "struct Move[]",
                  "name": "rhs",
                  "type": "tuple[]"
                },
                {
                  "internalType": "bool",
                  "name": "lhsDead",
                  "type": "bool"
                },
                {
                  "internalType": "bool",
                  "name": "rhsDead",
                  "type": "bool"
                },
                {
                  "internalType": "uint8",
                  "name": "rounds",
                  "type": "uint8"
                }
              ],
              "indexed": false,
              "internalType": "struct FightResult",
              "name": "result",
              "type": "tuple"
            }
          ],
          "name": "FightComplete",
          "type": "event"
        },
        {
          "inputs": [
            {
              "internalType": "uint16",
              "name": "index",
              "type": "uint16"
            },
            {
              "internalType": "uint16",
              "name": "cp",
              "type": "uint16"
            },
            {
              "internalType": "uint16",
              "name": "hp",
              "type": "uint16"
            },
            {
              "internalType": "uint16",
              "name": "attackBase",
              "type": "uint16"
            },
            {
              "internalType": "uint16",
              "name": "attackVariable",
              "type": "uint16"
            },
            {
              "internalType": "uint16",
              "name": "defence",
              "type": "uint16"
            },
            {
              "internalType": "uint16",
              "name": "speed",
              "type": "uint16"
            },
            {
              "internalType": "uint16",
              "name": "range",
              "type": "uint16"
            },
            {
              "internalType": "uint16",
              "name": "agility",
              "type": "uint16"
            }
          ],
          "name": "addShip",
          "outputs": [],
          "stateMutability": "nonpayable",
          "type": "function"
        },
        {
          "inputs": [
            {
              "internalType": "address",
              "name": "enemy",
              "type": "address"
            },
            {
              "internalType": "uint16[]",
              "name": "selection",
              "type": "uint16[]"
            },
            {
              "internalType": "uint16",
              "name": "commander",
              "type": "uint16"
            }
          ],
          "name": "attack",
          "outputs": [],
          "stateMutability": "nonpayable",
          "type": "function"
        },
        {
          "inputs": [],
          "name": "getAllDefenders",
          "outputs": [
            {
              "components": [
                {
                  "internalType": "address",
                  "name": "player",
                  "type": "address"
                },
                {
                  "internalType": "bool",
                  "name": "isInitialised",
                  "type": "bool"
                },
                {
                  "internalType": "uint16[]",
                  "name": "defenceSelection",
                  "type": "uint16[]"
                },
                {
                  "internalType": "uint16",
                  "name": "commander",
                  "type": "uint16"
                },
                {
                  "internalType": "bytes32",
                  "name": "name",
                  "type": "bytes32"
                }
              ],
              "internalType": "struct PlayerDefence[]",
              "name": "",
              "type": "tuple[]"
            }
          ],
          "stateMutability": "view",
          "type": "function"
        },
        {
          "inputs": [],
          "name": "getLeaderboard",
          "outputs": [
            {
              "components": [
                {
                  "internalType": "address",
                  "name": "player",
                  "type": "address"
                },
                {
                  "internalType": "bytes32",
                  "name": "name",
                  "type": "bytes32"
                },
                {
                  "internalType": "uint32",
                  "name": "wins",
                  "type": "uint32"
                },
                {
                  "internalType": "uint32",
                  "name": "losses",
                  "type": "uint32"
                }
              ],
              "internalType": "struct LeaderboardEntry[]",
              "name": "",
              "type": "tuple[]"
            }
          ],
          "stateMutability": "view",
          "type": "function"
        },
        {
          "inputs": [],
          "name": "getOwnDefence",
          "outputs": [
            {
              "components": [
                {
                  "internalType": "address",
                  "name": "player",
                  "type": "address"
                },
                {
                  "internalType": "bool",
                  "name": "isInitialised",
                  "type": "bool"
                },
                {
                  "internalType": "uint16[]",
                  "name": "defenceSelection",
                  "type": "uint16[]"
                },
                {
                  "internalType": "uint16",
                  "name": "commander",
                  "type": "uint16"
                },
                {
                  "internalType": "bytes32",
                  "name": "name",
                  "type": "bytes32"
                }
              ],
              "internalType": "struct PlayerDefence",
              "name": "",
              "type": "tuple"
            }
          ],
          "stateMutability": "view",
          "type": "function"
        },
        {
          "inputs": [],
          "name": "getShips",
          "outputs": [
            {
              "components": [
                {
                  "internalType": "uint16",
                  "name": "cp",
                  "type": "uint16"
                },
                {
                  "internalType": "uint16",
                  "name": "hp",
                  "type": "uint16"
                },
                {
                  "components": [
                    {
                      "internalType": "uint16",
                      "name": "base",
                      "type": "uint16"
                    },
                    {
                      "internalType": "uint16",
                      "name": "variable",
                      "type": "uint16"
                    }
                  ],
                  "internalType": "struct ShipVariableStat",
                  "name": "attack",
                  "type": "tuple"
                },
                {
                  "internalType": "uint16",
                  "name": "defence",
                  "type": "uint16"
                },
                {
                  "internalType": "uint16",
                  "name": "speed",
                  "type": "uint16"
                },
                {
                  "internalType": "uint16",
                  "name": "range",
                  "type": "uint16"
                },
                {
                  "internalType": "uint16",
                  "name": "agility",
                  "type": "uint16"
                }
              ],
              "internalType": "struct Ship[]",
              "name": "",
              "type": "tuple[]"
            }
          ],
          "stateMutability": "view",
          "type": "function"
        },
        {
          "inputs": [],
          "name": "owner",
          "outputs": [
            {
              "internalType": "address",
              "name": "",
              "type": "address"
            }
          ],
          "stateMutability": "view",
          "type": "function"
        },
        {
          "inputs": [
            {
              "internalType": "uint16[]",
              "name": "defence",
              "type": "uint16[]"
            },
            {
              "internalType": "uint16",
              "name": "commander",
              "type": "uint16"
            },
            {
              "internalType": "bytes32",
              "name": "name",
              "type": "bytes32"
            }
          ],
          "name": "registerDefence",
          "outputs": [],
          "stateMutability": "nonpayable",
          "type": "function"
        }
      ],
      "evm": {
        "bytecode": {
          "linkReferences": {},
          "object": "6080604052600080546001600160a01b0319163317905534801561002257600080fd5b5061302c806100326000396000f3fe608060405234801561001057600080fd5b50600436106100885760003560e01c80637af584de1161005b5780637af584de146100e85780638da5cb5b146100fd578063c0d0504a14610112578063d43b838c1461012557610088565b806309d273891461008d5780633bed82bf146100a25780636738f234146100b55780636d763a6e146100d3575b600080fd5b6100a061009b366004612606565b61013a565b005b6100a06100b036600461259d565b61036c565b6100bd61060a565b6040516100ca9190612949565b60405180910390f35b6100db610701565b6040516100ca9190612873565b6100f0610856565b6040516100ca91906128e9565b610105610a10565b6040516100ca919061285f565b6100a061012036600461265b565b610a1f565b61012d610d4f565b6040516100ca9190612c30565b6040805160a08101825233808252600160208084019190915282840187905261ffff86166060840152608083018590526000918252600590529190912054600160a01b900460ff166101d657600680546001810182556000919091527ff652222313e28459528d920b65115c16c04f3efc82aaedc97be59f3f377c0d3f01805473ffffffffffffffffffffffffffffffffffffffff1916331790555b3360009081526005602090815260409182902083518154838601511515600160a01b027fffffffffffffffffffffff00ffffffffffffffffffffffffffffffffffffffff6001600160a01b039390931673ffffffffffffffffffffffffffffffffffffffff199092169190911791909116178155918301518051849392610264926001850192910190612315565b50606082015160028201805461ffff191661ffff909216919091179055608090910151600391820155336000908152602091909152604090205460ff166103665760408051606081018252600180825260006020808401828152848601838152338085526003909352958320945185549151965160ff199092169015151764ffffffff00191661010063ffffffff978816021768ffffffff00000000001916650100000000009690911695909502949094179092556004805491820181559091527f8a35acfbc15ff81a39ae7d344fd709f28e8600b4aa8c65c6b64bfe7fe36bd19b01805473ffffffffffffffffffffffffffffffffffffffff191690911790555b50505050565b6001600160a01b038316600090815260056020526040902054600160a01b900460ff166103b45760405162461bcd60e51b81526004016103ab90612a5a565b60405180910390fd5b6001600160a01b0383166000908152600560209081526040808320600101805482518185028101850190935280835261046f93879392919083018282801561044357602002820191906000526020600020906000905b82829054906101000a900461ffff1661ffff168152602001906002019060208260010104928301926001038202915080841161040a5790505b505050506001600160a01b03881660009081526005602052604090206002015486915061ffff16610e60565b90508060c0015115610517576001600160a01b03841660009081526003602052604090208054610100900463ffffffff169060016104ac83612f66565b82546101009290920a63ffffffff8181021990931691831602179091553360009081526003602052604090208054650100000000009004909116915060056104f383612f66565b91906101000a81548163ffffffff021916908363ffffffff160217905550506105b9565b8060e00151156105b9573360009081526003602052604090208054610100900463ffffffff1690600161054983612f66565b82546101009290920a63ffffffff8181021990931691831602179091556001600160a01b038616600090815260036020526040902080546501000000000090049091169150600561059983612f66565b91906101000a81548163ffffffff021916908363ffffffff160217905550505b836001600160a01b0316336001600160a01b03167f7be9189d2924887871648ddf55a6b36f970ee83cdd41ebe6d02422a7381ec93d836040516105fc9190612b4b565b60405180910390a350505050565b6000546060906001600160a01b031633146106375760405162461bcd60e51b81526004016103ab90612aee565b6002805480602002602001604051908101604052809291908181526020016000905b828210156106f85760008481526020908190206040805160e08101825260038602909201805461ffff80821685526201000091829004811685870152835180850185526001808501548084168352849004831682890152948601526002909201548083166060860152908104821660808501526401000000008104821660a0850152660100000000000090041660c08301529083529092019101610659565b50505050905090565b60045460609060009067ffffffffffffffff81111561073057634e487b7160e01b600052604160045260246000fd5b60405190808252806020026020018201604052801561076957816020015b6107566123be565b81526020019060019003908161074e5790505b50905060005b6004548110156108505760006004828154811061079c57634e487b7160e01b600052603260045260246000fd5b6000918252602080832090910154604080516080810182526001600160a01b0390921680835280855260058452818520600390810154848601528186528085528286205463ffffffff610100820481169486019490945295829052909352650100000000009093049092166060830152845190925084908490811061083157634e487b7160e01b600052603260045260246000fd5b602002602001018190525050808061084890612f4b565b91505061076f565b50905090565b60065460609060009067ffffffffffffffff81111561088557634e487b7160e01b600052604160045260246000fd5b6040519080825280602002602001820160405280156108be57816020015b6108ab6123e5565b8152602001906001900390816108a35790505b50905060005b6006548110156108505760056000600683815481106108f357634e487b7160e01b600052603260045260246000fd5b6000918252602080832091909101546001600160a01b039081168452838201949094526040928301909120825160a08101845281549485168152600160a01b90940460ff16151584830152600181018054845181850281018501865281815292948601938301828280156109ae57602002820191906000526020600020906000905b82829054906101000a900461ffff1661ffff16815260200190600201906020826001010492830192600103820291508084116109755790505b5050509183525050600282015461ffff16602082015260039091015460409091015282518390839081106109f257634e487b7160e01b600052603260045260246000fd5b60200260200101819052508080610a0890612f4b565b9150506108c4565b6000546001600160a01b031681565b6000546001600160a01b03163314610a495760405162461bcd60e51b81526004016103ab90612aee565b60006040518060e001604052808a61ffff1681526020018961ffff16815260200160405180604001604052808a61ffff1681526020018961ffff1681525081526020018661ffff1681526020018561ffff1681526020018461ffff1681526020018361ffff16815250905080600160008c61ffff16815260200190815260200160002060008201518160000160006101000a81548161ffff021916908361ffff16021790555060208201518160000160026101000a81548161ffff021916908361ffff16021790555060408201518160010160008201518160000160006101000a81548161ffff021916908361ffff16021790555060208201518160000160026101000a81548161ffff021916908361ffff160217905550505060608201518160020160006101000a81548161ffff021916908361ffff16021790555060808201518160020160026101000a81548161ffff021916908361ffff16021790555060a08201518160020160046101000a81548161ffff021916908361ffff16021790555060c08201518160020160066101000a81548161ffff021916908361ffff160217905550905050600281908060018154018082558091505060019003906000526020600020906003020160009091909190915060008201518160000160006101000a81548161ffff021916908361ffff16021790555060208201518160000160026101000a81548161ffff021916908361ffff16021790555060408201518160010160008201518160000160006101000a81548161ffff021916908361ffff16021790555060208201518160000160026101000a81548161ffff021916908361ffff160217905550505060608201518160020160006101000a81548161ffff021916908361ffff16021790555060808201518160020160026101000a81548161ffff021916908361ffff16021790555060a08201518160020160046101000a81548161ffff021916908361ffff16021790555060c08201518160020160066101000a81548161ffff021916908361ffff160217905550505050505050505050505050565b610d576123e5565b33600090815260056020526040902054600160a01b900460ff16610d8d5760405162461bcd60e51b81526004016103ab90612ab7565b33600090815260056020908152604091829020825160a08101845281546001600160a01b0381168252600160a01b900460ff1615158184015260018201805485518186028101860187528181529295939493860193830182828015610e3957602002820191906000526020600020906000905b82829054906101000a900461ffff1661ffff1681526020019060020190602082600101049283019260010382029150808411610e005790505b5050509183525050600282015461ffff166020820152600390910154604090910152905090565b610e68612414565b8451600414610e895760405162461bcd60e51b81526004016103ab906129fd565b8351600414610eaa5760405162461bcd60e51b81526004016103ab906129fd565b610f7b6002805480602002602001604051908101604052809291908181526020016000905b82821015610f6e5760008481526020908190206040805160e08101825260038602909201805461ffff80821685526201000091829004811685870152835180850185526001808501548084168352849004831682890152948601526002909201548083166060860152908104821660808501526401000000008104821660a0850152660100000000000090041660c08301529083529092019101610ecf565b5050505086868686610f84565b95945050505050565b610f8c612414565b8451600414610fad5760405162461bcd60e51b81526004016103ab906129fd565b8351600414610fce5760405162461bcd60e51b81526004016103ab906129fd565b60408051600480825260a0820190925260009160208201608080368337019050509050600a8160008151811061101457634e487b7160e01b600052603260045260246000fd5b602002602001019060000b908160000b81525050600b8160018151811061104b57634e487b7160e01b600052603260045260246000fd5b602002602001019060000b908160000b81525050600c8160028151811061108257634e487b7160e01b600052603260045260246000fd5b602002602001019060000b908160000b81525050600d816003815181106110b957634e487b7160e01b600052603260045260246000fd5b600092830b830b602091820292909201015260408051600480825260a08201909252908160200160208202803683370190505090506009198160008151811061111257634e487b7160e01b600052603260045260246000fd5b602002602001019060000b908160000b81525050600a198160018151811061114a57634e487b7160e01b600052603260045260246000fd5b602002602001019060000b908160000b81525050600b198160028151811061118257634e487b7160e01b600052603260045260246000fd5b602002602001019060000b908160000b81525050600c19816003815181106111ba57634e487b7160e01b600052603260045260246000fd5b600092830b830b602091820292909201015260408051600480825260a0820190925290816020016020820280368337505060408051600480825260a0820190925292935060009291506020820160808036833701905050905060005b600461ffff8216101561138257898161ffff168151811061124757634e487b7160e01b600052603260045260246000fd5b602002602001015161ffff168b8261ffff168151811061127757634e487b7160e01b600052603260045260246000fd5b60200260200101516020015161ffff166112919190612d8f565b838261ffff16815181106112b557634e487b7160e01b600052603260045260246000fd5b602002602001019060070b908160070b81525050888161ffff16815181106112ed57634e487b7160e01b600052603260045260246000fd5b602002602001015161ffff168b8261ffff168151811061131d57634e487b7160e01b600052603260045260246000fd5b60200260200101516020015161ffff166113379190612d8f565b828261ffff168151811061135b57634e487b7160e01b600052603260045260246000fd5b602002602001019060070b908160070b81525050808061137a90612f29565b915050611216565b5061138b61245f565b61139760046014612e2e565b60ff1667ffffffffffffffff8111156113c057634e487b7160e01b600052604160045260246000fd5b6040519080825280602002602001820160405280156113f957816020015b6113e66124a2565b8152602001906001900390816113de5790505b50606082015261140b60046014612e2e565b60ff1667ffffffffffffffff81111561143457634e487b7160e01b600052604160045260246000fd5b60405190808252806020026020018201604052801561146d57816020015b61145a6124a2565b8152602001906001900390816114525790505b5060a0820152600081525b8051601460ff909116108015611494575061149283611b29565b155b80156114a657506114a482611b29565b155b156118c357600060e08201525b600460ff168160e0015160ff1610156116b7576000838260e0015160ff16815181106114ef57634e487b7160e01b600052603260045260246000fd5b602002602001015160070b131561169c5760006115138c8360e00151888887611b8b565b905060008160000b126115e55760006115608d8460e0015184888760e0015160ff168151811061155357634e487b7160e01b600052603260045260246000fd5b6020026020010151611cf2565b90508063ffffffff16848360ff168151811061158c57634e487b7160e01b600052603260045260246000fd5b602002602001018181516115a09190612e9c565b600790810b900b9052506020830180516115df916115bd82612f80565b60ff1660ff1681525060ff16846000015185606001518660e001518686611ee3565b5061169a565b6115ff8c60018460e0015160ff166000198a8a8a8a611f5d565b868360e0015160ff168151811061162657634e487b7160e01b600052603260045260246000fd5b600092830b90920b6020928302919091018201528201805161169a9161164b82612f80565b60ff1660ff1681525060ff16836000015184606001518560e001518a8760e0015160ff168151811061168d57634e487b7160e01b600052603260045260246000fd5b60200260200101516120d3565b505b60e081018051906116ac82612f80565b60ff169052506114b3565b600060e08201525b600460ff168160e0015160ff1610156118ac576000828260e0015160ff16815181106116fb57634e487b7160e01b600052603260045260246000fd5b602002602001015160070b131561189157600061171f8c8360e00151878988611b8b565b905060008160000b126117e457600061175f8d8460e0015184878760e0015160ff168151811061155357634e487b7160e01b600052603260045260246000fd5b90508063ffffffff16858360ff168151811061178b57634e487b7160e01b600052603260045260246000fd5b6020026020010181815161179f9190612e9c565b600790810b900b9052506040830180516117de916117bc82612f80565b60ff1660ff1681525060ff1684600001518560a001518660e001518686611ee3565b5061188f565b6117fd8c60008460e0015160ff1660018a8a8a8a611f5d565b858360e0015160ff168151811061182457634e487b7160e01b600052603260045260246000fd5b602002602001019060000b908160000b8152505061188f82604001805180919061184d90612f80565b60ff1660ff1681525060ff1683600001518460a001518560e00151898760e0015160ff168151811061168d57634e487b7160e01b600052603260045260246000fd5b505b60e081018051906118a182612f80565b60ff169052506116bf565b8051816118b882612f80565b60ff16905250611478565b80516118d190600490612e2e565b60ff1667ffffffffffffffff8111156118fa57634e487b7160e01b600052604160045260246000fd5b60405190808252806020026020018201604052801561193357816020015b6119206124a2565b8152602001906001900390816119185790505b506080820152805161194790600490612e2e565b60ff1667ffffffffffffffff81111561197057634e487b7160e01b600052604160045260246000fd5b6040519080825280602002602001820160405280156119a957816020015b6119966124a2565b81526020019060019003908161198e5790505b5060c082015260005b81516119c090600490612e2e565b60ff168161ffff161015611aa75781606001518161ffff16815181106119f657634e487b7160e01b600052603260045260246000fd5b602002602001015182608001518261ffff1681518110611a2657634e487b7160e01b600052603260045260246000fd5b60200260200101819052508160a001518161ffff1681518110611a5957634e487b7160e01b600052603260045260246000fd5b60200260200101518260c001518261ffff1681518110611a8957634e487b7160e01b600052603260045260246000fd5b60200260200101819052508080611a9f90612f29565b9150506119b2565b5060609350606094506040518061012001604052808b81526020018a81526020018961ffff1681526020018861ffff168152602001826080015181526020018260c001518152602001611af985611b29565b15158152602001611b0984611b29565b15158152915160ff166020909201919091529a9950505050505050505050565b60006001815b6004811015611b82576000848281518110611b5a57634e487b7160e01b600052603260045260246000fd5b602002602001015160070b1315611b7057600091505b80611b7a81612f4b565b915050611b2f565b5090505b919050565b600080848660ff1681518110611bb157634e487b7160e01b600052603260045260246000fd5b602002602001015160000b90506000661fffffffffffff90506000805b600460ff82161015611cc8576000878260ff1681518110611bff57634e487b7160e01b600052603260045260246000fd5b602002602001015190506000611c228260000b87611c1d9190612e57565b612142565b90506000888460ff1681518110611c4957634e487b7160e01b600052603260045260246000fd5b602002602001015160070b138015611c9757508b8b60ff1681518110611c7f57634e487b7160e01b600052603260045260246000fd5b602002602001015160a0015161ffff168161ffff1611155b15611cb357848161ffff161015611cb3578061ffff1694508293505b50508080611cc090612f80565b915050611bce565b5060009250661fffffffffffff8214611ce15780611ce5565b6000195b9998505050505050505050565b600080611d30868660ff1681518110611d1b57634e487b7160e01b600052603260045260246000fd5b60200260200101516040015160200151612168565b868660ff1681518110611d5357634e487b7160e01b600052603260045260246000fd5b60200260200101516040015160000151611d6d9190612c83565b90506000868560ff1681518110611d9457634e487b7160e01b600052603260045260246000fd5b60200260200101516060015190506000878660ff1681518110611dc757634e487b7160e01b600052603260045260246000fd5b602002602001015160c001516064611ddf9190612ee3565b90506000600a82611df08587612ee3565b611dfa9190612de1565b611e049190612ccc565b61ffff1690506000898960ff1681518110611e2f57634e487b7160e01b600052603260045260246000fd5b60200260200101516020015161ffff1687611e4a9190612ced565b611e55906001612ca9565b905060008a8960ff1681518110611e7c57634e487b7160e01b600052603260045260246000fd5b60200260200101516020015161ffff168261ffff16611e9b9190612e0b565b90506000611ead61ffff841685612e0b565b905060009650600095506000945060009250611ed3611ecd6000836121ad565b836121cb565b9c9b505050505050505050505050565b6040518060c00160405280600160ff1681526020018660ff1681526020018460ff1681526020018360ff1681526020016000800b81526020018263ffffffff16815250848761ffff1681518110611f4a57634e487b7160e01b600052603260045260246000fd5b6020026020010181905250505050505050565b600080898861ffff1681518110611f8457634e487b7160e01b600052603260045260246000fd5b6020026020010151608001519050600089611fca57858961ffff1681518110611fbd57634e487b7160e01b600052603260045260246000fd5b6020026020010151611ff7565b868961ffff1681518110611fee57634e487b7160e01b600052603260045260246000fd5b60200260200101515b9050815b60008160010b13156120c45760008b61205357612018828b612d08565b888c61ffff168151811061203c57634e487b7160e01b600052603260045260246000fd5b602002602001015161204e9190612c43565b612093565b61205d828b612d08565b898c61ffff168151811061208157634e487b7160e01b600052603260045260246000fd5b60200260200101516120939190612c43565b90506120a58160000b8a8a8a8a6121e0565b156120b15791506120c4565b50806120bc81612f06565b915050611ffb565b509a9950505050505050505050565b6040805160c0810182526002815260ff868116602083015284169181019190915260006060820181905282810b608083015260a08201528351849061ffff881690811061213057634e487b7160e01b600052603260045260246000fd5b60200260200101819052505050505050565b6000808260010b12612155575080611b86565b61216182600019612d08565b9050611b86565b60008161ffff1644423360405160200161218493929190612824565b6040516020818303038152906040528051906020012060001c6121a79190612fa0565b92915050565b60008160030b8360030b136121c257816121c4565b825b9392505050565b60008160030b8360030b126121c257816121c4565b6000600f6121ed87612142565b61ffff1611156121ff57506000610f7b565b6000805b600460ff82161015612309578760010b878260ff168151811061223657634e487b7160e01b600052603260045260246000fd5b602002602001015160000b14801561227b57506000858260ff168151811061226e57634e487b7160e01b600052603260045260246000fd5b602002602001015160070b135b806122ed57508760010b868260ff16815181106122a857634e487b7160e01b600052603260045260246000fd5b602002602001015160000b1480156122ed57506000848260ff16815181106122e057634e487b7160e01b600052603260045260246000fd5b602002602001015160070b135b156122f757600191505b8061230181612f80565b915050612203565b50159695505050505050565b82805482825590600052602060002090600f016010900481019282156123ae5791602002820160005b8382111561237e57835183826101000a81548161ffff021916908361ffff160217905550926020019260020160208160010104928301926001030261233e565b80156123ac5782816101000a81549061ffff021916905560020160208160010104928301926001030261237e565b505b506123ba9291506124d7565b5090565b60408051608081018252600080825260208201819052918101829052606081019190915290565b6040805160a0810182526000808252602082018190526060928201839052918101829052608081019190915290565b604080516101208101825260608082526020820181905260009282018390528082018390526080820181905260a082015260c0810182905260e0810182905261010081019190915290565b604080516101008101825260008082526020820181905291810182905260608082018190526080820181905260a0820181905260c082015260e081019190915290565b6040805160c081018252600080825260208201819052918101829052606081018290526080810182905260a081019190915290565b5b808211156123ba57600081556001016124d8565b600082601f8301126124fc578081fd5b8135602067ffffffffffffffff8083111561251957612519612fe0565b8183026040518382820101818110848211171561253857612538612fe0565b60405284815283810192508684018288018501891015612556578687fd5b8692505b8583101561257f5761256b8161258b565b84529284019260019290920191840161255a565b50979650505050505050565b803561ffff81168114611b8657600080fd5b6000806000606084860312156125b1578283fd5b83356001600160a01b03811681146125c7578384fd5b9250602084013567ffffffffffffffff8111156125e2578283fd5b6125ee868287016124ec565b9250506125fd6040850161258b565b90509250925092565b60008060006060848603121561261a578283fd5b833567ffffffffffffffff811115612630578384fd5b61263c868287016124ec565b93505061264b6020850161258b565b9150604084013590509250925092565b60008060008060008060008060006101208a8c031215612679578485fd5b6126828a61258b565b985061269060208b0161258b565b975061269e60408b0161258b565b96506126ac60608b0161258b565b95506126ba60808b0161258b565b94506126c860a08b0161258b565b93506126d660c08b0161258b565b92506126e460e08b0161258b565b91506126f36101008b0161258b565b90509295985092959850929598565b6000815180845260208085019450808401835b83811015612779578151805160ff9081168952848201518116858a01526040808301518216908a015260608083015190911690890152608080820151870b9089015260a09081015163ffffffff169088015260c09096019590820190600101612715565b509495945050505050565b6000815180845260208085019450808401835b8381101561277957815161ffff1687529582019590820190600101612797565b15159052565b60006001600160a01b038251168352602082015115156020840152604082015160a060408501526127f160a0850182612784565b905061ffff6060840151166060850152608083015160808501528091505092915050565b61ffff169052565b60ff169052565b928352602083019190915260601b7fffffffffffffffffffffffffffffffffffffffff00000000000000000000000016604082015260540190565b6001600160a01b0391909116815260200190565b602080825282518282018190526000919060409081850190868401855b828110156128dc57815180516001600160a01b0316855286810151878601528581015163ffffffff90811687870152606091820151169085015260809093019290850190600101612890565b5091979650505050505050565b6000602080830181845280855180835260408601915060408482028701019250838701855b8281101561293c57603f1988860301845261292a8583516127bd565b9450928501929085019060010161290e565b5092979650505050505050565b602080825282518282018190526000919060409081850190868401855b828110156128dc578151805161ffff9081168652878201518116888701528682015180518216888801528801511660608087019190915281015160806129ae81880183612815565b820151905060a06129c187820183612815565b820151905060c06129d487820183612815565b919091015190506129e860e0860182612815565b50610100939093019290850190600101612966565b60208082526022908201527f53656c656374696f6e206e6565647320746f2068617665203420656c656d656e60408201527f7473000000000000000000000000000000000000000000000000000000000000606082015260800190565b60208082526024908201527f43616e206f6e6c792061747461636b206120726567697374657265642064656660408201527f656e636500000000000000000000000000000000000000000000000000000000606082015260800190565b60208082526016908201527f446566656e6365206e6f74207265676973746572656400000000000000000000604082015260600190565b60208082526033908201527f546869732066756e6374696f6e206973207265737472696374656420746f207460408201527f686520636f6e74726163742773206f776e657200000000000000000000000000606082015260800190565b6000602082528251610120806020850152612b6a610140850183612784565b91506020850151601f1980868503016040870152612b888483612784565b935060408701519150612b9e6060870183612815565b60608701519150612bb26080870183612815565b60808701519150808685030160a0870152612bcd8483612702565b935060a08701519150808685030160c087015250612beb8382612702565b92505060c0850151612c0060e08601826127b7565b5060e0850151610100612c15818701836127b7565b8601519050612c268583018261281d565b5090949350505050565b6000602082526121c460208301846127bd565b600081810b83820b82821282607f03821381151615612c6457612c64612fb4565b82607f19038212811615612c7a57612c7a612fb4565b50019392505050565b600061ffff808316818516808303821115612ca057612ca0612fb4565b01949350505050565b600067ffffffffffffffff808316818516808303821115612ca057612ca0612fb4565b600061ffff80841680612ce157612ce1612fca565b92169190910492915050565b600067ffffffffffffffff80841680612ce157612ce1612fca565b60008160010b8360010b617fff83821384841383830485118282161615612d3157612d31612fb4565b617fff1986851282811687830587121615612d4e57612d4e612fb4565b878712925085820587128484161615612d6957612d69612fb4565b85850587128184161615612d7f57612d7f612fb4565b5050509290910295945050505050565b60008160070b8360070b677fffffffffffffff83821384841383830485118282161615612dbe57612dbe612fb4565b677fffffffffffffff1986851282811687830587121615612d4e57612d4e612fb4565b600061ffff80831681851681830481118215151615612e0257612e02612fb4565b02949350505050565b600063ffffffff80831681851681830481118215151615612e0257612e02612fb4565b600060ff821660ff84168160ff0481118215151615612e4f57612e4f612fb4565b029392505050565b60008160010b8360010b82811281617fff1901831281151615612e7c57612e7c612fb4565b81617fff018313811615612e9257612e92612fb4565b5090039392505050565b60008160070b8360070b82811281677fffffffffffffff1901831281151615612ec757612ec7612fb4565b81677fffffffffffffff018313811615612e9257612e92612fb4565b600061ffff83811690831681811015612efe57612efe612fb4565b039392505050565b60008160010b617fff19811415612f1f57612f1f612fb4565b6000190192915050565b600061ffff80831681811415612f4157612f41612fb4565b6001019392505050565b6000600019821415612f5f57612f5f612fb4565b5060010190565b600063ffffffff80831681811415612f4157612f41612fb4565b600060ff821660ff811415612f9757612f97612fb4565b60010192915050565b600082612faf57612faf612fca565b500690565b634e487b7160e01b600052601160045260246000fd5b634e487b7160e01b600052601260045260246000fd5b634e487b7160e01b600052604160045260246000fdfea2646970667358221220bc3eff12f1fac066c9ba5ef2d2f9853d56bc73301870fbc232a81abe34e29f1d64736f6c63430008000033",
          "opcodes": "PUSH1 0x80 PUSH1 0x40 MSTORE PUSH1 0x0 DUP1 SLOAD PUSH1 0x1 PUSH1 0x1 PUSH1 0xA0 SHL SUB NOT AND CALLER OR SWAP1 SSTORE CALLVALUE DUP1 ISZERO PUSH2 0x22 JUMPI PUSH1 0x0 DUP1 REVERT JUMPDEST POP PUSH2 0x302C DUP1 PUSH2 0x32 PUSH1 0x0 CODECOPY PUSH1 0x0 RETURN INVALID PUSH1 0x80 PUSH1 0x40 MSTORE CALLVALUE DUP1 ISZERO PUSH2 0x10 JUMPI PUSH1 0x0 DUP1 REVERT JUMPDEST POP PUSH1 0x4 CALLDATASIZE LT PUSH2 0x88 JUMPI PUSH1 0x0 CALLDATALOAD PUSH1 0xE0 SHR DUP1 PUSH4 0x7AF584DE GT PUSH2 0x5B JUMPI DUP1 PUSH4 0x7AF584DE EQ PUSH2 0xE8 JUMPI DUP1 PUSH4 0x8DA5CB5B EQ PUSH2 0xFD JUMPI DUP1 PUSH4 0xC0D0504A EQ PUSH2 0x112 JUMPI DUP1 PUSH4 0xD43B838C EQ PUSH2 0x125 JUMPI PUSH2 0x88 JUMP JUMPDEST DUP1 PUSH4 0x9D27389 EQ PUSH2 0x8D JUMPI DUP1 PUSH4 0x3BED82BF EQ PUSH2 0xA2 JUMPI DUP1 PUSH4 0x6738F234 EQ PUSH2 0xB5 JUMPI DUP1 PUSH4 0x6D763A6E EQ PUSH2 0xD3 JUMPI JUMPDEST PUSH1 0x0 DUP1 REVERT JUMPDEST PUSH2 0xA0 PUSH2 0x9B CALLDATASIZE PUSH1 0x4 PUSH2 0x2606 JUMP JUMPDEST PUSH2 0x13A JUMP JUMPDEST STOP JUMPDEST PUSH2 0xA0 PUSH2 0xB0 CALLDATASIZE PUSH1 0x4 PUSH2 0x259D JUMP JUMPDEST PUSH2 0x36C JUMP JUMPDEST PUSH2 0xBD PUSH2 0x60A JUMP JUMPDEST PUSH1 0x40 MLOAD PUSH2 0xCA SWAP2 SWAP1 PUSH2 0x2949 JUMP JUMPDEST PUSH1 0x40 MLOAD DUP1 SWAP2 SUB SWAP1 RETURN JUMPDEST PUSH2 0xDB PUSH2 0x701 JUMP JUMPDEST PUSH1 0x40 MLOAD PUSH2 0xCA SWAP2 SWAP1 PUSH2 0x2873 JUMP JUMPDEST PUSH2 0xF0 PUSH2 0x856 JUMP JUMPDEST PUSH1 0x40 MLOAD PUSH2 0xCA SWAP2 SWAP1 PUSH2 0x28E9 JUMP JUMPDEST PUSH2 0x105 PUSH2 0xA10 JUMP JUMPDEST PUSH1 0x40 MLOAD PUSH2 0xCA SWAP2 SWAP1 PUSH2 0x285F JUMP JUMPDEST PUSH2 0xA0 PUSH2 0x120 CALLDATASIZE PUSH1 0x4 PUSH2 0x265B JUMP JUMPDEST PUSH2 0xA1F JUMP JUMPDEST PUSH2 0x12D PUSH2 0xD4F JUMP JUMPDEST PUSH1 0x40 MLOAD PUSH2 0xCA SWAP2 SWAP1 PUSH2 0x2C30 JUMP JUMPDEST PUSH1 0x40 DUP1 MLOAD PUSH1 0xA0 DUP2 ADD DUP3 MSTORE CALLER DUP1 DUP3 MSTORE PUSH1 0x1 PUSH1 0x20 DUP1 DUP5 ADD SWAP2 SWAP1 SWAP2 MSTORE DUP3 DUP5 ADD DUP8 SWAP1 MSTORE PUSH2 0xFFFF DUP7 AND PUSH1 0x60 DUP5 ADD MSTORE PUSH1 0x80 DUP4 ADD DUP6 SWAP1 MSTORE PUSH1 0x0 SWAP2 DUP3 MSTORE PUSH1 0x5 SWAP1 MSTORE SWAP2 SWAP1 SWAP2 KECCAK256 SLOAD PUSH1 0x1 PUSH1 0xA0 SHL SWAP1 DIV PUSH1 0xFF AND PUSH2 0x1D6 JUMPI PUSH1 0x6 DUP1 SLOAD PUSH1 0x1 DUP2 ADD DUP3 SSTORE PUSH1 0x0 SWAP2 SWAP1 SWAP2 MSTORE PUSH32 0xF652222313E28459528D920B65115C16C04F3EFC82AAEDC97BE59F3F377C0D3F ADD DUP1 SLOAD PUSH20 0xFFFFFFFFFFFFFFFFFFFFFFFFFFFFFFFFFFFFFFFF NOT AND CALLER OR SWAP1 SSTORE JUMPDEST CALLER PUSH1 0x0 SWAP1 DUP2 MSTORE PUSH1 0x5 PUSH1 0x20 SWAP1 DUP2 MSTORE PUSH1 0x40 SWAP2 DUP3 SWAP1 KECCAK256 DUP4 MLOAD DUP2 SLOAD DUP4 DUP7 ADD MLOAD ISZERO ISZERO PUSH1 0x1 PUSH1 0xA0 SHL MUL PUSH32 0xFFFFFFFFFFFFFFFFFFFFFF00FFFFFFFFFFFFFFFFFFFFFFFFFFFFFFFFFFFFFFFF PUSH1 0x1 PUSH1 0x1 PUSH1 0xA0 SHL SUB SWAP4 SWAP1 SWAP4 AND PUSH20 0xFFFFFFFFFFFFFFFFFFFFFFFFFFFFFFFFFFFFFFFF NOT SWAP1 SWAP3 AND SWAP2 SWAP1 SWAP2 OR SWAP2 SWAP1 SWAP2 AND OR DUP2 SSTORE SWAP2 DUP4 ADD MLOAD DUP1 MLOAD DUP5 SWAP4 SWAP3 PUSH2 0x264 SWAP3 PUSH1 0x1 DUP6 ADD SWAP3 SWAP2 ADD SWAP1 PUSH2 0x2315 JUMP JUMPDEST POP PUSH1 0x60 DUP3 ADD MLOAD PUSH1 0x2 DUP3 ADD DUP1 SLOAD PUSH2 0xFFFF NOT AND PUSH2 0xFFFF SWAP1 SWAP3 AND SWAP2 SWAP1 SWAP2 OR SWAP1 SSTORE PUSH1 0x80 SWAP1 SWAP2 ADD MLOAD PUSH1 0x3 SWAP2 DUP3 ADD SSTORE CALLER PUSH1 0x0 SWAP1 DUP2 MSTORE PUSH1 0x20 SWAP2 SWAP1 SWAP2 MSTORE PUSH1 0x40 SWAP1 KECCAK256 SLOAD PUSH1 0xFF AND PUSH2 0x366 JUMPI PUSH1 0x40 DUP1 MLOAD PUSH1 0x60 DUP2 ADD DUP3 MSTORE PUSH1 0x1 DUP1 DUP3 MSTORE PUSH1 0x0 PUSH1 0x20 DUP1 DUP5 ADD DUP3 DUP2 MSTORE DUP5 DUP7 ADD DUP4 DUP2 MSTORE CALLER DUP1 DUP6 MSTORE PUSH1 0x3 SWAP1 SWAP4 MSTORE SWAP6 DUP4 KECCAK256 SWAP5 MLOAD DUP6 SLOAD SWAP2 MLOAD SWAP7 MLOAD PUSH1 0xFF NOT SWAP1 SWAP3 AND SWAP1 ISZERO ISZERO OR PUSH5 0xFFFFFFFF00 NOT AND PUSH2 0x100 PUSH4 0xFFFFFFFF SWAP8 DUP9 AND MUL OR PUSH9 0xFFFFFFFF0000000000 NOT AND PUSH6 0x10000000000 SWAP7 SWAP1 SWAP2 AND SWAP6 SWAP1 SWAP6 MUL SWAP5 SWAP1 SWAP5 OR SWAP1 SWAP3 SSTORE PUSH1 0x4 DUP1 SLOAD SWAP2 DUP3 ADD DUP2 SSTORE SWAP1 SWAP2 MSTORE PUSH32 0x8A35ACFBC15FF81A39AE7D344FD709F28E8600B4AA8C65C6B64BFE7FE36BD19B ADD DUP1 SLOAD PUSH20 0xFFFFFFFFFFFFFFFFFFFFFFFFFFFFFFFFFFFFFFFF NOT AND SWAP1 SWAP2 OR SWAP1 SSTORE JUMPDEST POP POP POP POP JUMP JUMPDEST PUSH1 0x1 PUSH1 0x1 PUSH1 0xA0 SHL SUB DUP4 AND PUSH1 0x0 SWAP1 DUP2 MSTORE PUSH1 0x5 PUSH1 0x20 MSTORE PUSH1 0x40 SWAP1 KECCAK256 SLOAD PUSH1 0x1 PUSH1 0xA0 SHL SWAP1 DIV PUSH1 0xFF AND PUSH2 0x3B4 JUMPI PUSH1 0x40 MLOAD PUSH3 0x461BCD PUSH1 0xE5 SHL DUP2 MSTORE PUSH1 0x4 ADD PUSH2 0x3AB SWAP1 PUSH2 0x2A5A JUMP JUMPDEST PUSH1 0x40 MLOAD DUP1 SWAP2 SUB SWAP1 REVERT JUMPDEST PUSH1 0x1 PUSH1 0x1 PUSH1 0xA0 SHL SUB DUP4 AND PUSH1 0x0 SWAP1 DUP2 MSTORE PUSH1 0x5 PUSH1 0x20 SWAP1 DUP2 MSTORE PUSH1 0x40 DUP1 DUP4 KECCAK256 PUSH1 0x1 ADD DUP1 SLOAD DUP3 MLOAD DUP2 DUP6 MUL DUP2 ADD DUP6 ADD SWAP1 SWAP4 MSTORE DUP1 DUP4 MSTORE PUSH2 0x46F SWAP4 DUP8 SWAP4 SWAP3 SWAP2 SWAP1 DUP4 ADD DUP3 DUP3 DUP1 ISZERO PUSH2 0x443 JUMPI PUSH1 0x20 MUL DUP3 ADD SWAP2 SWAP1 PUSH1 0x0 MSTORE PUSH1 0x20 PUSH1 0x0 KECCAK256 SWAP1 PUSH1 0x0 SWAP1 JUMPDEST DUP3 DUP3 SWAP1 SLOAD SWAP1 PUSH2 0x100 EXP SWAP1 DIV PUSH2 0xFFFF AND PUSH2 0xFFFF AND DUP2 MSTORE PUSH1 0x20 ADD SWAP1 PUSH1 0x2 ADD SWAP1 PUSH1 0x20 DUP3 PUSH1 0x1 ADD DIV SWAP3 DUP4 ADD SWAP3 PUSH1 0x1 SUB DUP3 MUL SWAP2 POP DUP1 DUP5 GT PUSH2 0x40A JUMPI SWAP1 POP JUMPDEST POP POP POP POP PUSH1 0x1 PUSH1 0x1 PUSH1 0xA0 SHL SUB DUP9 AND PUSH1 0x0 SWAP1 DUP2 MSTORE PUSH1 0x5 PUSH1 0x20 MSTORE PUSH1 0x40 SWAP1 KECCAK256 PUSH1 0x2 ADD SLOAD DUP7 SWAP2 POP PUSH2 0xFFFF AND PUSH2 0xE60 JUMP JUMPDEST SWAP1 POP DUP1 PUSH1 0xC0 ADD MLOAD ISZERO PUSH2 0x517 JUMPI PUSH1 0x1 PUSH1 0x1 PUSH1 0xA0 SHL SUB DUP5 AND PUSH1 0x0 SWAP1 DUP2 MSTORE PUSH1 0x3 PUSH1 0x20 MSTORE PUSH1 0x40 SWAP1 KECCAK256 DUP1 SLOAD PUSH2 0x100 SWAP1 DIV PUSH4 0xFFFFFFFF AND SWAP1 PUSH1 0x1 PUSH2 0x4AC DUP4 PUSH2 0x2F66 JUMP JUMPDEST DUP3 SLOAD PUSH2 0x100 SWAP3 SWAP1 SWAP3 EXP PUSH4 0xFFFFFFFF DUP2 DUP2 MUL NOT SWAP1 SWAP4 AND SWAP2 DUP4 AND MUL OR SWAP1 SWAP2 SSTORE CALLER PUSH1 0x0 SWAP1 DUP2 MSTORE PUSH1 0x3 PUSH1 0x20 MSTORE PUSH1 0x40 SWAP1 KECCAK256 DUP1 SLOAD PUSH6 0x10000000000 SWAP1 DIV SWAP1 SWAP2 AND SWAP2 POP PUSH1 0x5 PUSH2 0x4F3 DUP4 PUSH2 0x2F66 JUMP JUMPDEST SWAP2 SWAP1 PUSH2 0x100 EXP DUP2 SLOAD DUP2 PUSH4 0xFFFFFFFF MUL NOT AND SWAP1 DUP4 PUSH4 0xFFFFFFFF AND MUL OR SWAP1 SSTORE POP POP PUSH2 0x5B9 JUMP JUMPDEST DUP1 PUSH1 0xE0 ADD MLOAD ISZERO PUSH2 0x5B9 JUMPI CALLER PUSH1 0x0 SWAP1 DUP2 MSTORE PUSH1 0x3 PUSH1 0x20 MSTORE PUSH1 0x40 SWAP1 KECCAK256 DUP1 SLOAD PUSH2 0x100 SWAP1 DIV PUSH4 0xFFFFFFFF AND SWAP1 PUSH1 0x1 PUSH2 0x549 DUP4 PUSH2 0x2F66 JUMP JUMPDEST DUP3 SLOAD PUSH2 0x100 SWAP3 SWAP1 SWAP3 EXP PUSH4 0xFFFFFFFF DUP2 DUP2 MUL NOT SWAP1 SWAP4 AND SWAP2 DUP4 AND MUL OR SWAP1 SWAP2 SSTORE PUSH1 0x1 PUSH1 0x1 PUSH1 0xA0 SHL SUB DUP7 AND PUSH1 0x0 SWAP1 DUP2 MSTORE PUSH1 0x3 PUSH1 0x20 MSTORE PUSH1 0x40 SWAP1 KECCAK256 DUP1 SLOAD PUSH6 0x10000000000 SWAP1 DIV SWAP1 SWAP2 AND SWAP2 POP PUSH1 0x5 PUSH2 0x599 DUP4 PUSH2 0x2F66 JUMP JUMPDEST SWAP2 SWAP1 PUSH2 0x100 EXP DUP2 SLOAD DUP2 PUSH4 0xFFFFFFFF MUL NOT AND SWAP1 DUP4 PUSH4 0xFFFFFFFF AND MUL OR SWAP1 SSTORE POP POP JUMPDEST DUP4 PUSH1 0x1 PUSH1 0x1 PUSH1 0xA0 SHL SUB AND CALLER PUSH1 0x1 PUSH1 0x1 PUSH1 0xA0 SHL SUB AND PUSH32 0x7BE9189D2924887871648DDF55A6B36F970EE83CDD41EBE6D02422A7381EC93D DUP4 PUSH1 0x40 MLOAD PUSH2 0x5FC SWAP2 SWAP1 PUSH2 0x2B4B JUMP JUMPDEST PUSH1 0x40 MLOAD DUP1 SWAP2 SUB SWAP1 LOG3 POP POP POP POP JUMP JUMPDEST PUSH1 0x0 SLOAD PUSH1 0x60 SWAP1 PUSH1 0x1 PUSH1 0x1 PUSH1 0xA0 SHL SUB AND CALLER EQ PUSH2 0x637 JUMPI PUSH1 0x40 MLOAD PUSH3 0x461BCD PUSH1 0xE5 SHL DUP2 MSTORE PUSH1 0x4 ADD PUSH2 0x3AB SWAP1 PUSH2 0x2AEE JUMP JUMPDEST PUSH1 0x2 DUP1 SLOAD DUP1 PUSH1 0x20 MUL PUSH1 0x20 ADD PUSH1 0x40 MLOAD SWAP1 DUP2 ADD PUSH1 0x40 MSTORE DUP1 SWAP3 SWAP2 SWAP1 DUP2 DUP2 MSTORE PUSH1 0x20 ADD PUSH1 0x0 SWAP1 JUMPDEST DUP3 DUP3 LT ISZERO PUSH2 0x6F8 JUMPI PUSH1 0x0 DUP5 DUP2 MSTORE PUSH1 0x20 SWAP1 DUP2 SWAP1 KECCAK256 PUSH1 0x40 DUP1 MLOAD PUSH1 0xE0 DUP2 ADD DUP3 MSTORE PUSH1 0x3 DUP7 MUL SWAP1 SWAP3 ADD DUP1 SLOAD PUSH2 0xFFFF DUP1 DUP3 AND DUP6 MSTORE PUSH3 0x10000 SWAP2 DUP3 SWAP1 DIV DUP2 AND DUP6 DUP8 ADD MSTORE DUP4 MLOAD DUP1 DUP6 ADD DUP6 MSTORE PUSH1 0x1 DUP1 DUP6 ADD SLOAD DUP1 DUP5 AND DUP4 MSTORE DUP5 SWAP1 DIV DUP4 AND DUP3 DUP10 ADD MSTORE SWAP5 DUP7 ADD MSTORE PUSH1 0x2 SWAP1 SWAP3 ADD SLOAD DUP1 DUP4 AND PUSH1 0x60 DUP7 ADD MSTORE SWAP1 DUP2 DIV DUP3 AND PUSH1 0x80 DUP6 ADD MSTORE PUSH5 0x100000000 DUP2 DIV DUP3 AND PUSH1 0xA0 DUP6 ADD MSTORE PUSH7 0x1000000000000 SWAP1 DIV AND PUSH1 0xC0 DUP4 ADD MSTORE SWAP1 DUP4 MSTORE SWAP1 SWAP3 ADD SWAP2 ADD PUSH2 0x659 JUMP JUMPDEST POP POP POP POP SWAP1 POP SWAP1 JUMP JUMPDEST PUSH1 0x4 SLOAD PUSH1 0x60 SWAP1 PUSH1 0x0 SWAP1 PUSH8 0xFFFFFFFFFFFFFFFF DUP2 GT ISZERO PUSH2 0x730 JUMPI PUSH4 0x4E487B71 PUSH1 0xE0 SHL PUSH1 0x0 MSTORE PUSH1 0x41 PUSH1 0x4 MSTORE PUSH1 0x24 PUSH1 0x0 REVERT JUMPDEST PUSH1 0x40 MLOAD SWAP1 DUP1 DUP3 MSTORE DUP1 PUSH1 0x20 MUL PUSH1 0x20 ADD DUP3 ADD PUSH1 0x40 MSTORE DUP1 ISZERO PUSH2 0x769 JUMPI DUP2 PUSH1 0x20 ADD JUMPDEST PUSH2 0x756 PUSH2 0x23BE JUMP JUMPDEST DUP2 MSTORE PUSH1 0x20 ADD SWAP1 PUSH1 0x1 SWAP1 SUB SWAP1 DUP2 PUSH2 0x74E JUMPI SWAP1 POP JUMPDEST POP SWAP1 POP PUSH1 0x0 JUMPDEST PUSH1 0x4 SLOAD DUP2 LT ISZERO PUSH2 0x850 JUMPI PUSH1 0x0 PUSH1 0x4 DUP3 DUP2 SLOAD DUP2 LT PUSH2 0x79C JUMPI PUSH4 0x4E487B71 PUSH1 0xE0 SHL PUSH1 0x0 MSTORE PUSH1 0x32 PUSH1 0x4 MSTORE PUSH1 0x24 PUSH1 0x0 REVERT JUMPDEST PUSH1 0x0 SWAP2 DUP3 MSTORE PUSH1 0x20 DUP1 DUP4 KECCAK256 SWAP1 SWAP2 ADD SLOAD PUSH1 0x40 DUP1 MLOAD PUSH1 0x80 DUP2 ADD DUP3 MSTORE PUSH1 0x1 PUSH1 0x1 PUSH1 0xA0 SHL SUB SWAP1 SWAP3 AND DUP1 DUP4 MSTORE DUP1 DUP6 MSTORE PUSH1 0x5 DUP5 MSTORE DUP2 DUP6 KECCAK256 PUSH1 0x3 SWAP1 DUP2 ADD SLOAD DUP5 DUP7 ADD MSTORE DUP2 DUP7 MSTORE DUP1 DUP6 MSTORE DUP3 DUP7 KECCAK256 SLOAD PUSH4 0xFFFFFFFF PUSH2 0x100 DUP3 DIV DUP2 AND SWAP5 DUP7 ADD SWAP5 SWAP1 SWAP5 MSTORE SWAP6 DUP3 SWAP1 MSTORE SWAP1 SWAP4 MSTORE PUSH6 0x10000000000 SWAP1 SWAP4 DIV SWAP1 SWAP3 AND PUSH1 0x60 DUP4 ADD MSTORE DUP5 MLOAD SWAP1 SWAP3 POP DUP5 SWAP1 DUP5 SWAP1 DUP2 LT PUSH2 0x831 JUMPI PUSH4 0x4E487B71 PUSH1 0xE0 SHL PUSH1 0x0 MSTORE PUSH1 0x32 PUSH1 0x4 MSTORE PUSH1 0x24 PUSH1 0x0 REVERT JUMPDEST PUSH1 0x20 MUL PUSH1 0x20 ADD ADD DUP2 SWAP1 MSTORE POP POP DUP1 DUP1 PUSH2 0x848 SWAP1 PUSH2 0x2F4B JUMP JUMPDEST SWAP2 POP POP PUSH2 0x76F JUMP JUMPDEST POP SWAP1 POP SWAP1 JUMP JUMPDEST PUSH1 0x6 SLOAD PUSH1 0x60 SWAP1 PUSH1 0x0 SWAP1 PUSH8 0xFFFFFFFFFFFFFFFF DUP2 GT ISZERO PUSH2 0x885 JUMPI PUSH4 0x4E487B71 PUSH1 0xE0 SHL PUSH1 0x0 MSTORE PUSH1 0x41 PUSH1 0x4 MSTORE PUSH1 0x24 PUSH1 0x0 REVERT JUMPDEST PUSH1 0x40 MLOAD SWAP1 DUP1 DUP3 MSTORE DUP1 PUSH1 0x20 MUL PUSH1 0x20 ADD DUP3 ADD PUSH1 0x40 MSTORE DUP1 ISZERO PUSH2 0x8BE JUMPI DUP2 PUSH1 0x20 ADD JUMPDEST PUSH2 0x8AB PUSH2 0x23E5 JUMP JUMPDEST DUP2 MSTORE PUSH1 0x20 ADD SWAP1 PUSH1 0x1 SWAP1 SUB SWAP1 DUP2 PUSH2 0x8A3 JUMPI SWAP1 POP JUMPDEST POP SWAP1 POP PUSH1 0x0 JUMPDEST PUSH1 0x6 SLOAD DUP2 LT ISZERO PUSH2 0x850 JUMPI PUSH1 0x5 PUSH1 0x0 PUSH1 0x6 DUP4 DUP2 SLOAD DUP2 LT PUSH2 0x8F3 JUMPI PUSH4 0x4E487B71 PUSH1 0xE0 SHL PUSH1 0x0 MSTORE PUSH1 0x32 PUSH1 0x4 MSTORE PUSH1 0x24 PUSH1 0x0 REVERT JUMPDEST PUSH1 0x0 SWAP2 DUP3 MSTORE PUSH1 0x20 DUP1 DUP4 KECCAK256 SWAP2 SWAP1 SWAP2 ADD SLOAD PUSH1 0x1 PUSH1 0x1 PUSH1 0xA0 SHL SUB SWAP1 DUP2 AND DUP5 MSTORE DUP4 DUP3 ADD SWAP5 SWAP1 SWAP5 MSTORE PUSH1 0x40 SWAP3 DUP4 ADD SWAP1 SWAP2 KECCAK256 DUP3 MLOAD PUSH1 0xA0 DUP2 ADD DUP5 MSTORE DUP2 SLOAD SWAP5 DUP6 AND DUP2 MSTORE PUSH1 0x1 PUSH1 0xA0 SHL SWAP1 SWAP5 DIV PUSH1 0xFF AND ISZERO ISZERO DUP5 DUP4 ADD MSTORE PUSH1 0x1 DUP2 ADD DUP1 SLOAD DUP5 MLOAD DUP2 DUP6 MUL DUP2 ADD DUP6 ADD DUP7 MSTORE DUP2 DUP2 MSTORE SWAP3 SWAP5 DUP7 ADD SWAP4 DUP4 ADD DUP3 DUP3 DUP1 ISZERO PUSH2 0x9AE JUMPI PUSH1 0x20 MUL DUP3 ADD SWAP2 SWAP1 PUSH1 0x0 MSTORE PUSH1 0x20 PUSH1 0x0 KECCAK256 SWAP1 PUSH1 0x0 SWAP1 JUMPDEST DUP3 DUP3 SWAP1 SLOAD SWAP1 PUSH2 0x100 EXP SWAP1 DIV PUSH2 0xFFFF AND PUSH2 0xFFFF AND DUP2 MSTORE PUSH1 0x20 ADD SWAP1 PUSH1 0x2 ADD SWAP1 PUSH1 0x20 DUP3 PUSH1 0x1 ADD DIV SWAP3 DUP4 ADD SWAP3 PUSH1 0x1 SUB DUP3 MUL SWAP2 POP DUP1 DUP5 GT PUSH2 0x975 JUMPI SWAP1 POP JUMPDEST POP POP POP SWAP2 DUP4 MSTORE POP POP PUSH1 0x2 DUP3 ADD SLOAD PUSH2 0xFFFF AND PUSH1 0x20 DUP3 ADD MSTORE PUSH1 0x3 SWAP1 SWAP2 ADD SLOAD PUSH1 0x40 SWAP1 SWAP2 ADD MSTORE DUP3 MLOAD DUP4 SWAP1 DUP4 SWAP1 DUP2 LT PUSH2 0x9F2 JUMPI PUSH4 0x4E487B71 PUSH1 0xE0 SHL PUSH1 0x0 MSTORE PUSH1 0x32 PUSH1 0x4 MSTORE PUSH1 0x24 PUSH1 0x0 REVERT JUMPDEST PUSH1 0x20 MUL PUSH1 0x20 ADD ADD DUP2 SWAP1 MSTORE POP DUP1 DUP1 PUSH2 0xA08 SWAP1 PUSH2 0x2F4B JUMP JUMPDEST SWAP2 POP POP PUSH2 0x8C4 JUMP JUMPDEST PUSH1 0x0 SLOAD PUSH1 0x1 PUSH1 0x1 PUSH1 0xA0 SHL SUB AND DUP2 JUMP JUMPDEST PUSH1 0x0 SLOAD PUSH1 0x1 PUSH1 0x1 PUSH1 0xA0 SHL SUB AND CALLER EQ PUSH2 0xA49 JUMPI PUSH1 0x40 MLOAD PUSH3 0x461BCD PUSH1 0xE5 SHL DUP2 MSTORE PUSH1 0x4 ADD PUSH2 0x3AB SWAP1 PUSH2 0x2AEE JUMP JUMPDEST PUSH1 0x0 PUSH1 0x40 MLOAD DUP1 PUSH1 0xE0 ADD PUSH1 0x40 MSTORE DUP1 DUP11 PUSH2 0xFFFF AND DUP2 MSTORE PUSH1 0x20 ADD DUP10 PUSH2 0xFFFF AND DUP2 MSTORE PUSH1 0x20 ADD PUSH1 0x40 MLOAD DUP1 PUSH1 0x40 ADD PUSH1 0x40 MSTORE DUP1 DUP11 PUSH2 0xFFFF AND DUP2 MSTORE PUSH1 0x20 ADD DUP10 PUSH2 0xFFFF AND DUP2 MSTORE POP DUP2 MSTORE PUSH1 0x20 ADD DUP7 PUSH2 0xFFFF AND DUP2 MSTORE PUSH1 0x20 ADD DUP6 PUSH2 0xFFFF AND DUP2 MSTORE PUSH1 0x20 ADD DUP5 PUSH2 0xFFFF AND DUP2 MSTORE PUSH1 0x20 ADD DUP4 PUSH2 0xFFFF AND DUP2 MSTORE POP SWAP1 POP DUP1 PUSH1 0x1 PUSH1 0x0 DUP13 PUSH2 0xFFFF AND DUP2 MSTORE PUSH1 0x20 ADD SWAP1 DUP2 MSTORE PUSH1 0x20 ADD PUSH1 0x0 KECCAK256 PUSH1 0x0 DUP3 ADD MLOAD DUP2 PUSH1 0x0 ADD PUSH1 0x0 PUSH2 0x100 EXP DUP2 SLOAD DUP2 PUSH2 0xFFFF MUL NOT AND SWAP1 DUP4 PUSH2 0xFFFF AND MUL OR SWAP1 SSTORE POP PUSH1 0x20 DUP3 ADD MLOAD DUP2 PUSH1 0x0 ADD PUSH1 0x2 PUSH2 0x100 EXP DUP2 SLOAD DUP2 PUSH2 0xFFFF MUL NOT AND SWAP1 DUP4 PUSH2 0xFFFF AND MUL OR SWAP1 SSTORE POP PUSH1 0x40 DUP3 ADD MLOAD DUP2 PUSH1 0x1 ADD PUSH1 0x0 DUP3 ADD MLOAD DUP2 PUSH1 0x0 ADD PUSH1 0x0 PUSH2 0x100 EXP DUP2 SLOAD DUP2 PUSH2 0xFFFF MUL NOT AND SWAP1 DUP4 PUSH2 0xFFFF AND MUL OR SWAP1 SSTORE POP PUSH1 0x20 DUP3 ADD MLOAD DUP2 PUSH1 0x0 ADD PUSH1 0x2 PUSH2 0x100 EXP DUP2 SLOAD DUP2 PUSH2 0xFFFF MUL NOT AND SWAP1 DUP4 PUSH2 0xFFFF AND MUL OR SWAP1 SSTORE POP POP POP PUSH1 0x60 DUP3 ADD MLOAD DUP2 PUSH1 0x2 ADD PUSH1 0x0 PUSH2 0x100 EXP DUP2 SLOAD DUP2 PUSH2 0xFFFF MUL NOT AND SWAP1 DUP4 PUSH2 0xFFFF AND MUL OR SWAP1 SSTORE POP PUSH1 0x80 DUP3 ADD MLOAD DUP2 PUSH1 0x2 ADD PUSH1 0x2 PUSH2 0x100 EXP DUP2 SLOAD DUP2 PUSH2 0xFFFF MUL NOT AND SWAP1 DUP4 PUSH2 0xFFFF AND MUL OR SWAP1 SSTORE POP PUSH1 0xA0 DUP3 ADD MLOAD DUP2 PUSH1 0x2 ADD PUSH1 0x4 PUSH2 0x100 EXP DUP2 SLOAD DUP2 PUSH2 0xFFFF MUL NOT AND SWAP1 DUP4 PUSH2 0xFFFF AND MUL OR SWAP1 SSTORE POP PUSH1 0xC0 DUP3 ADD MLOAD DUP2 PUSH1 0x2 ADD PUSH1 0x6 PUSH2 0x100 EXP DUP2 SLOAD DUP2 PUSH2 0xFFFF MUL NOT AND SWAP1 DUP4 PUSH2 0xFFFF AND MUL OR SWAP1 SSTORE POP SWAP1 POP POP PUSH1 0x2 DUP2 SWAP1 DUP1 PUSH1 0x1 DUP2 SLOAD ADD DUP1 DUP3 SSTORE DUP1 SWAP2 POP POP PUSH1 0x1 SWAP1 SUB SWAP1 PUSH1 0x0 MSTORE PUSH1 0x20 PUSH1 0x0 KECCAK256 SWAP1 PUSH1 0x3 MUL ADD PUSH1 0x0 SWAP1 SWAP2 SWAP1 SWAP2 SWAP1 SWAP2 POP PUSH1 0x0 DUP3 ADD MLOAD DUP2 PUSH1 0x0 ADD PUSH1 0x0 PUSH2 0x100 EXP DUP2 SLOAD DUP2 PUSH2 0xFFFF MUL NOT AND SWAP1 DUP4 PUSH2 0xFFFF AND MUL OR SWAP1 SSTORE POP PUSH1 0x20 DUP3 ADD MLOAD DUP2 PUSH1 0x0 ADD PUSH1 0x2 PUSH2 0x100 EXP DUP2 SLOAD DUP2 PUSH2 0xFFFF MUL NOT AND SWAP1 DUP4 PUSH2 0xFFFF AND MUL OR SWAP1 SSTORE POP PUSH1 0x40 DUP3 ADD MLOAD DUP2 PUSH1 0x1 ADD PUSH1 0x0 DUP3 ADD MLOAD DUP2 PUSH1 0x0 ADD PUSH1 0x0 PUSH2 0x100 EXP DUP2 SLOAD DUP2 PUSH2 0xFFFF MUL NOT AND SWAP1 DUP4 PUSH2 0xFFFF AND MUL OR SWAP1 SSTORE POP PUSH1 0x20 DUP3 ADD MLOAD DUP2 PUSH1 0x0 ADD PUSH1 0x2 PUSH2 0x100 EXP DUP2 SLOAD DUP2 PUSH2 0xFFFF MUL NOT AND SWAP1 DUP4 PUSH2 0xFFFF AND MUL OR SWAP1 SSTORE POP POP POP PUSH1 0x60 DUP3 ADD MLOAD DUP2 PUSH1 0x2 ADD PUSH1 0x0 PUSH2 0x100 EXP DUP2 SLOAD DUP2 PUSH2 0xFFFF MUL NOT AND SWAP1 DUP4 PUSH2 0xFFFF AND MUL OR SWAP1 SSTORE POP PUSH1 0x80 DUP3 ADD MLOAD DUP2 PUSH1 0x2 ADD PUSH1 0x2 PUSH2 0x100 EXP DUP2 SLOAD DUP2 PUSH2 0xFFFF MUL NOT AND SWAP1 DUP4 PUSH2 0xFFFF AND MUL OR SWAP1 SSTORE POP PUSH1 0xA0 DUP3 ADD MLOAD DUP2 PUSH1 0x2 ADD PUSH1 0x4 PUSH2 0x100 EXP DUP2 SLOAD DUP2 PUSH2 0xFFFF MUL NOT AND SWAP1 DUP4 PUSH2 0xFFFF AND MUL OR SWAP1 SSTORE POP PUSH1 0xC0 DUP3 ADD MLOAD DUP2 PUSH1 0x2 ADD PUSH1 0x6 PUSH2 0x100 EXP DUP2 SLOAD DUP2 PUSH2 0xFFFF MUL NOT AND SWAP1 DUP4 PUSH2 0xFFFF AND MUL OR SWAP1 SSTORE POP POP POP POP POP POP POP POP POP POP POP POP POP JUMP JUMPDEST PUSH2 0xD57 PUSH2 0x23E5 JUMP JUMPDEST CALLER PUSH1 0x0 SWAP1 DUP2 MSTORE PUSH1 0x5 PUSH1 0x20 MSTORE PUSH1 0x40 SWAP1 KECCAK256 SLOAD PUSH1 0x1 PUSH1 0xA0 SHL SWAP1 DIV PUSH1 0xFF AND PUSH2 0xD8D JUMPI PUSH1 0x40 MLOAD PUSH3 0x461BCD PUSH1 0xE5 SHL DUP2 MSTORE PUSH1 0x4 ADD PUSH2 0x3AB SWAP1 PUSH2 0x2AB7 JUMP JUMPDEST CALLER PUSH1 0x0 SWAP1 DUP2 MSTORE PUSH1 0x5 PUSH1 0x20 SWAP1 DUP2 MSTORE PUSH1 0x40 SWAP2 DUP3 SWAP1 KECCAK256 DUP3 MLOAD PUSH1 0xA0 DUP2 ADD DUP5 MSTORE DUP2 SLOAD PUSH1 0x1 PUSH1 0x1 PUSH1 0xA0 SHL SUB DUP2 AND DUP3 MSTORE PUSH1 0x1 PUSH1 0xA0 SHL SWAP1 DIV PUSH1 0xFF AND ISZERO ISZERO DUP2 DUP5 ADD MSTORE PUSH1 0x1 DUP3 ADD DUP1 SLOAD DUP6 MLOAD DUP2 DUP7 MUL DUP2 ADD DUP7 ADD DUP8 MSTORE DUP2 DUP2 MSTORE SWAP3 SWAP6 SWAP4 SWAP5 SWAP4 DUP7 ADD SWAP4 DUP4 ADD DUP3 DUP3 DUP1 ISZERO PUSH2 0xE39 JUMPI PUSH1 0x20 MUL DUP3 ADD SWAP2 SWAP1 PUSH1 0x0 MSTORE PUSH1 0x20 PUSH1 0x0 KECCAK256 SWAP1 PUSH1 0x0 SWAP1 JUMPDEST DUP3 DUP3 SWAP1 SLOAD SWAP1 PUSH2 0x100 EXP SWAP1 DIV PUSH2 0xFFFF AND PUSH2 0xFFFF AND DUP2 MSTORE PUSH1 0x20 ADD SWAP1 PUSH1 0x2 ADD SWAP1 PUSH1 0x20 DUP3 PUSH1 0x1 ADD DIV SWAP3 DUP4 ADD SWAP3 PUSH1 0x1 SUB DUP3 MUL SWAP2 POP DUP1 DUP5 GT PUSH2 0xE00 JUMPI SWAP1 POP JUMPDEST POP POP POP SWAP2 DUP4 MSTORE POP POP PUSH1 0x2 DUP3 ADD SLOAD PUSH2 0xFFFF AND PUSH1 0x20 DUP3 ADD MSTORE PUSH1 0x3 SWAP1 SWAP2 ADD SLOAD PUSH1 0x40 SWAP1 SWAP2 ADD MSTORE SWAP1 POP SWAP1 JUMP JUMPDEST PUSH2 0xE68 PUSH2 0x2414 JUMP JUMPDEST DUP5 MLOAD PUSH1 0x4 EQ PUSH2 0xE89 JUMPI PUSH1 0x40 MLOAD PUSH3 0x461BCD PUSH1 0xE5 SHL DUP2 MSTORE PUSH1 0x4 ADD PUSH2 0x3AB SWAP1 PUSH2 0x29FD JUMP JUMPDEST DUP4 MLOAD PUSH1 0x4 EQ PUSH2 0xEAA JUMPI PUSH1 0x40 MLOAD PUSH3 0x461BCD PUSH1 0xE5 SHL DUP2 MSTORE PUSH1 0x4 ADD PUSH2 0x3AB SWAP1 PUSH2 0x29FD JUMP JUMPDEST PUSH2 0xF7B PUSH1 0x2 DUP1 SLOAD DUP1 PUSH1 0x20 MUL PUSH1 0x20 ADD PUSH1 0x40 MLOAD SWAP1 DUP2 ADD PUSH1 0x40 MSTORE DUP1 SWAP3 SWAP2 SWAP1 DUP2 DUP2 MSTORE PUSH1 0x20 ADD PUSH1 0x0 SWAP1 JUMPDEST DUP3 DUP3 LT ISZERO PUSH2 0xF6E JUMPI PUSH1 0x0 DUP5 DUP2 MSTORE PUSH1 0x20 SWAP1 DUP2 SWAP1 KECCAK256 PUSH1 0x40 DUP1 MLOAD PUSH1 0xE0 DUP2 ADD DUP3 MSTORE PUSH1 0x3 DUP7 MUL SWAP1 SWAP3 ADD DUP1 SLOAD PUSH2 0xFFFF DUP1 DUP3 AND DUP6 MSTORE PUSH3 0x10000 SWAP2 DUP3 SWAP1 DIV DUP2 AND DUP6 DUP8 ADD MSTORE DUP4 MLOAD DUP1 DUP6 ADD DUP6 MSTORE PUSH1 0x1 DUP1 DUP6 ADD SLOAD DUP1 DUP5 AND DUP4 MSTORE DUP5 SWAP1 DIV DUP4 AND DUP3 DUP10 ADD MSTORE SWAP5 DUP7 ADD MSTORE PUSH1 0x2 SWAP1 SWAP3 ADD SLOAD DUP1 DUP4 AND PUSH1 0x60 DUP7 ADD MSTORE SWAP1 DUP2 DIV DUP3 AND PUSH1 0x80 DUP6 ADD MSTORE PUSH5 0x100000000 DUP2 DIV DUP3 AND PUSH1 0xA0 DUP6 ADD MSTORE PUSH7 0x1000000000000 SWAP1 DIV AND PUSH1 0xC0 DUP4 ADD MSTORE SWAP1 DUP4 MSTORE SWAP1 SWAP3 ADD SWAP2 ADD PUSH2 0xECF JUMP JUMPDEST POP POP POP POP DUP7 DUP7 DUP7 DUP7 PUSH2 0xF84 JUMP JUMPDEST SWAP6 SWAP5 POP POP POP POP POP JUMP JUMPDEST PUSH2 0xF8C PUSH2 0x2414 JUMP JUMPDEST DUP5 MLOAD PUSH1 0x4 EQ PUSH2 0xFAD JUMPI PUSH1 0x40 MLOAD PUSH3 0x461BCD PUSH1 0xE5 SHL DUP2 MSTORE PUSH1 0x4 ADD PUSH2 0x3AB SWAP1 PUSH2 0x29FD JUMP JUMPDEST DUP4 MLOAD PUSH1 0x4 EQ PUSH2 0xFCE JUMPI PUSH1 0x40 MLOAD PUSH3 0x461BCD PUSH1 0xE5 SHL DUP2 MSTORE PUSH1 0x4 ADD PUSH2 0x3AB SWAP1 PUSH2 0x29FD JUMP JUMPDEST PUSH1 0x40 DUP1 MLOAD PUSH1 0x4 DUP1 DUP3 MSTORE PUSH1 0xA0 DUP3 ADD SWAP1 SWAP3 MSTORE PUSH1 0x0 SWAP2 PUSH1 0x20 DUP3 ADD PUSH1 0x80 DUP1 CALLDATASIZE DUP4 CALLDATACOPY ADD SWAP1 POP POP SWAP1 POP PUSH1 0xA DUP2 PUSH1 0x0 DUP2 MLOAD DUP2 LT PUSH2 0x1014 JUMPI PUSH4 0x4E487B71 PUSH1 0xE0 SHL PUSH1 0x0 MSTORE PUSH1 0x32 PUSH1 0x4 MSTORE PUSH1 0x24 PUSH1 0x0 REVERT JUMPDEST PUSH1 0x20 MUL PUSH1 0x20 ADD ADD SWAP1 PUSH1 0x0 SIGNEXTEND SWAP1 DUP2 PUSH1 0x0 SIGNEXTEND DUP2 MSTORE POP POP PUSH1 0xB DUP2 PUSH1 0x1 DUP2 MLOAD DUP2 LT PUSH2 0x104B JUMPI PUSH4 0x4E487B71 PUSH1 0xE0 SHL PUSH1 0x0 MSTORE PUSH1 0x32 PUSH1 0x4 MSTORE PUSH1 0x24 PUSH1 0x0 REVERT JUMPDEST PUSH1 0x20 MUL PUSH1 0x20 ADD ADD SWAP1 PUSH1 0x0 SIGNEXTEND SWAP1 DUP2 PUSH1 0x0 SIGNEXTEND DUP2 MSTORE POP POP PUSH1 0xC DUP2 PUSH1 0x2 DUP2 MLOAD DUP2 LT PUSH2 0x1082 JUMPI PUSH4 0x4E487B71 PUSH1 0xE0 SHL PUSH1 0x0 MSTORE PUSH1 0x32 PUSH1 0x4 MSTORE PUSH1 0x24 PUSH1 0x0 REVERT JUMPDEST PUSH1 0x20 MUL PUSH1 0x20 ADD ADD SWAP1 PUSH1 0x0 SIGNEXTEND SWAP1 DUP2 PUSH1 0x0 SIGNEXTEND DUP2 MSTORE POP POP PUSH1 0xD DUP2 PUSH1 0x3 DUP2 MLOAD DUP2 LT PUSH2 0x10B9 JUMPI PUSH4 0x4E487B71 PUSH1 0xE0 SHL PUSH1 0x0 MSTORE PUSH1 0x32 PUSH1 0x4 MSTORE PUSH1 0x24 PUSH1 0x0 REVERT JUMPDEST PUSH1 0x0 SWAP3 DUP4 SIGNEXTEND DUP4 SIGNEXTEND PUSH1 0x20 SWAP2 DUP3 MUL SWAP3 SWAP1 SWAP3 ADD ADD MSTORE PUSH1 0x40 DUP1 MLOAD PUSH1 0x4 DUP1 DUP3 MSTORE PUSH1 0xA0 DUP3 ADD SWAP1 SWAP3 MSTORE SWAP1 DUP2 PUSH1 0x20 ADD PUSH1 0x20 DUP3 MUL DUP1 CALLDATASIZE DUP4 CALLDATACOPY ADD SWAP1 POP POP SWAP1 POP PUSH1 0x9 NOT DUP2 PUSH1 0x0 DUP2 MLOAD DUP2 LT PUSH2 0x1112 JUMPI PUSH4 0x4E487B71 PUSH1 0xE0 SHL PUSH1 0x0 MSTORE PUSH1 0x32 PUSH1 0x4 MSTORE PUSH1 0x24 PUSH1 0x0 REVERT JUMPDEST PUSH1 0x20 MUL PUSH1 0x20 ADD ADD SWAP1 PUSH1 0x0 SIGNEXTEND SWAP1 DUP2 PUSH1 0x0 SIGNEXTEND DUP2 MSTORE POP POP PUSH1 0xA NOT DUP2 PUSH1 0x1 DUP2 MLOAD DUP2 LT PUSH2 0x114A JUMPI PUSH4 0x4E487B71 PUSH1 0xE0 SHL PUSH1 0x0 MSTORE PUSH1 0x32 PUSH1 0x4 MSTORE PUSH1 0x24 PUSH1 0x0 REVERT JUMPDEST PUSH1 0x20 MUL PUSH1 0x20 ADD ADD SWAP1 PUSH1 0x0 SIGNEXTEND SWAP1 DUP2 PUSH1 0x0 SIGNEXTEND DUP2 MSTORE POP POP PUSH1 0xB NOT DUP2 PUSH1 0x2 DUP2 MLOAD DUP2 LT PUSH2 0x1182 JUMPI PUSH4 0x4E487B71 PUSH1 0xE0 SHL PUSH1 0x0 MSTORE PUSH1 0x32 PUSH1 0x4 MSTORE PUSH1 0x24 PUSH1 0x0 REVERT JUMPDEST PUSH1 0x20 MUL PUSH1 0x20 ADD ADD SWAP1 PUSH1 0x0 SIGNEXTEND SWAP1 DUP2 PUSH1 0x0 SIGNEXTEND DUP2 MSTORE POP POP PUSH1 0xC NOT DUP2 PUSH1 0x3 DUP2 MLOAD DUP2 LT PUSH2 0x11BA JUMPI PUSH4 0x4E487B71 PUSH1 0xE0 SHL PUSH1 0x0 MSTORE PUSH1 0x32 PUSH1 0x4 MSTORE PUSH1 0x24 PUSH1 0x0 REVERT JUMPDEST PUSH1 0x0 SWAP3 DUP4 SIGNEXTEND DUP4 SIGNEXTEND PUSH1 0x20 SWAP2 DUP3 MUL SWAP3 SWAP1 SWAP3 ADD ADD MSTORE PUSH1 0x40 DUP1 MLOAD PUSH1 0x4 DUP1 DUP3 MSTORE PUSH1 0xA0 DUP3 ADD SWAP1 SWAP3 MSTORE SWAP1 DUP2 PUSH1 0x20 ADD PUSH1 0x20 DUP3 MUL DUP1 CALLDATASIZE DUP4 CALLDATACOPY POP POP PUSH1 0x40 DUP1 MLOAD PUSH1 0x4 DUP1 DUP3 MSTORE PUSH1 0xA0 DUP3 ADD SWAP1 SWAP3 MSTORE SWAP3 SWAP4 POP PUSH1 0x0 SWAP3 SWAP2 POP PUSH1 0x20 DUP3 ADD PUSH1 0x80 DUP1 CALLDATASIZE DUP4 CALLDATACOPY ADD SWAP1 POP POP SWAP1 POP PUSH1 0x0 JUMPDEST PUSH1 0x4 PUSH2 0xFFFF DUP3 AND LT ISZERO PUSH2 0x1382 JUMPI DUP10 DUP2 PUSH2 0xFFFF AND DUP2 MLOAD DUP2 LT PUSH2 0x1247 JUMPI PUSH4 0x4E487B71 PUSH1 0xE0 SHL PUSH1 0x0 MSTORE PUSH1 0x32 PUSH1 0x4 MSTORE PUSH1 0x24 PUSH1 0x0 REVERT JUMPDEST PUSH1 0x20 MUL PUSH1 0x20 ADD ADD MLOAD PUSH2 0xFFFF AND DUP12 DUP3 PUSH2 0xFFFF AND DUP2 MLOAD DUP2 LT PUSH2 0x1277 JUMPI PUSH4 0x4E487B71 PUSH1 0xE0 SHL PUSH1 0x0 MSTORE PUSH1 0x32 PUSH1 0x4 MSTORE PUSH1 0x24 PUSH1 0x0 REVERT JUMPDEST PUSH1 0x20 MUL PUSH1 0x20 ADD ADD MLOAD PUSH1 0x20 ADD MLOAD PUSH2 0xFFFF AND PUSH2 0x1291 SWAP2 SWAP1 PUSH2 0x2D8F JUMP JUMPDEST DUP4 DUP3 PUSH2 0xFFFF AND DUP2 MLOAD DUP2 LT PUSH2 0x12B5 JUMPI PUSH4 0x4E487B71 PUSH1 0xE0 SHL PUSH1 0x0 MSTORE PUSH1 0x32 PUSH1 0x4 MSTORE PUSH1 0x24 PUSH1 0x0 REVERT JUMPDEST PUSH1 0x20 MUL PUSH1 0x20 ADD ADD SWAP1 PUSH1 0x7 SIGNEXTEND SWAP1 DUP2 PUSH1 0x7 SIGNEXTEND DUP2 MSTORE POP POP DUP9 DUP2 PUSH2 0xFFFF AND DUP2 MLOAD DUP2 LT PUSH2 0x12ED JUMPI PUSH4 0x4E487B71 PUSH1 0xE0 SHL PUSH1 0x0 MSTORE PUSH1 0x32 PUSH1 0x4 MSTORE PUSH1 0x24 PUSH1 0x0 REVERT JUMPDEST PUSH1 0x20 MUL PUSH1 0x20 ADD ADD MLOAD PUSH2 0xFFFF AND DUP12 DUP3 PUSH2 0xFFFF AND DUP2 MLOAD DUP2 LT PUSH2 0x131D JUMPI PUSH4 0x4E487B71 PUSH1 0xE0 SHL PUSH1 0x0 MSTORE PUSH1 0x32 PUSH1 0x4 MSTORE PUSH1 0x24 PUSH1 0x0 REVERT JUMPDEST PUSH1 0x20 MUL PUSH1 0x20 ADD ADD MLOAD PUSH1 0x20 ADD MLOAD PUSH2 0xFFFF AND PUSH2 0x1337 SWAP2 SWAP1 PUSH2 0x2D8F JUMP JUMPDEST DUP3 DUP3 PUSH2 0xFFFF AND DUP2 MLOAD DUP2 LT PUSH2 0x135B JUMPI PUSH4 0x4E487B71 PUSH1 0xE0 SHL PUSH1 0x0 MSTORE PUSH1 0x32 PUSH1 0x4 MSTORE PUSH1 0x24 PUSH1 0x0 REVERT JUMPDEST PUSH1 0x20 MUL PUSH1 0x20 ADD ADD SWAP1 PUSH1 0x7 SIGNEXTEND SWAP1 DUP2 PUSH1 0x7 SIGNEXTEND DUP2 MSTORE POP POP DUP1 DUP1 PUSH2 0x137A SWAP1 PUSH2 0x2F29 JUMP JUMPDEST SWAP2 POP POP PUSH2 0x1216 JUMP JUMPDEST POP PUSH2 0x138B PUSH2 0x245F JUMP JUMPDEST PUSH2 0x1397 PUSH1 0x4 PUSH1 0x14 PUSH2 0x2E2E JUMP JUMPDEST PUSH1 0xFF AND PUSH8 0xFFFFFFFFFFFFFFFF DUP2 GT ISZERO PUSH2 0x13C0 JUMPI PUSH4 0x4E487B71 PUSH1 0xE0 SHL PUSH1 0x0 MSTORE PUSH1 0x41 PUSH1 0x4 MSTORE PUSH1 0x24 PUSH1 0x0 REVERT JUMPDEST PUSH1 0x40 MLOAD SWAP1 DUP1 DUP3 MSTORE DUP1 PUSH1 0x20 MUL PUSH1 0x20 ADD DUP3 ADD PUSH1 0x40 MSTORE DUP1 ISZERO PUSH2 0x13F9 JUMPI DUP2 PUSH1 0x20 ADD JUMPDEST PUSH2 0x13E6 PUSH2 0x24A2 JUMP JUMPDEST DUP2 MSTORE PUSH1 0x20 ADD SWAP1 PUSH1 0x1 SWAP1 SUB SWAP1 DUP2 PUSH2 0x13DE JUMPI SWAP1 POP JUMPDEST POP PUSH1 0x60 DUP3 ADD MSTORE PUSH2 0x140B PUSH1 0x4 PUSH1 0x14 PUSH2 0x2E2E JUMP JUMPDEST PUSH1 0xFF AND PUSH8 0xFFFFFFFFFFFFFFFF DUP2 GT ISZERO PUSH2 0x1434 JUMPI PUSH4 0x4E487B71 PUSH1 0xE0 SHL PUSH1 0x0 MSTORE PUSH1 0x41 PUSH1 0x4 MSTORE PUSH1 0x24 PUSH1 0x0 REVERT JUMPDEST PUSH1 0x40 MLOAD SWAP1 DUP1 DUP3 MSTORE DUP1 PUSH1 0x20 MUL PUSH1 0x20 ADD DUP3 ADD PUSH1 0x40 MSTORE DUP1 ISZERO PUSH2 0x146D JUMPI DUP2 PUSH1 0x20 ADD JUMPDEST PUSH2 0x145A PUSH2 0x24A2 JUMP JUMPDEST DUP2 MSTORE PUSH1 0x20 ADD SWAP1 PUSH1 0x1 SWAP1 SUB SWAP1 DUP2 PUSH2 0x1452 JUMPI SWAP1 POP JUMPDEST POP PUSH1 0xA0 DUP3 ADD MSTORE PUSH1 0x0 DUP2 MSTORE JUMPDEST DUP1 MLOAD PUSH1 0x14 PUSH1 0xFF SWAP1 SWAP2 AND LT DUP1 ISZERO PUSH2 0x1494 JUMPI POP PUSH2 0x1492 DUP4 PUSH2 0x1B29 JUMP JUMPDEST ISZERO JUMPDEST DUP1 ISZERO PUSH2 0x14A6 JUMPI POP PUSH2 0x14A4 DUP3 PUSH2 0x1B29 JUMP JUMPDEST ISZERO JUMPDEST ISZERO PUSH2 0x18C3 JUMPI PUSH1 0x0 PUSH1 0xE0 DUP3 ADD MSTORE JUMPDEST PUSH1 0x4 PUSH1 0xFF AND DUP2 PUSH1 0xE0 ADD MLOAD PUSH1 0xFF AND LT ISZERO PUSH2 0x16B7 JUMPI PUSH1 0x0 DUP4 DUP3 PUSH1 0xE0 ADD MLOAD PUSH1 0xFF AND DUP2 MLOAD DUP2 LT PUSH2 0x14EF JUMPI PUSH4 0x4E487B71 PUSH1 0xE0 SHL PUSH1 0x0 MSTORE PUSH1 0x32 PUSH1 0x4 MSTORE PUSH1 0x24 PUSH1 0x0 REVERT JUMPDEST PUSH1 0x20 MUL PUSH1 0x20 ADD ADD MLOAD PUSH1 0x7 SIGNEXTEND SGT ISZERO PUSH2 0x169C JUMPI PUSH1 0x0 PUSH2 0x1513 DUP13 DUP4 PUSH1 0xE0 ADD MLOAD DUP9 DUP9 DUP8 PUSH2 0x1B8B JUMP JUMPDEST SWAP1 POP PUSH1 0x0 DUP2 PUSH1 0x0 SIGNEXTEND SLT PUSH2 0x15E5 JUMPI PUSH1 0x0 PUSH2 0x1560 DUP14 DUP5 PUSH1 0xE0 ADD MLOAD DUP5 DUP9 DUP8 PUSH1 0xE0 ADD MLOAD PUSH1 0xFF AND DUP2 MLOAD DUP2 LT PUSH2 0x1553 JUMPI PUSH4 0x4E487B71 PUSH1 0xE0 SHL PUSH1 0x0 MSTORE PUSH1 0x32 PUSH1 0x4 MSTORE PUSH1 0x24 PUSH1 0x0 REVERT JUMPDEST PUSH1 0x20 MUL PUSH1 0x20 ADD ADD MLOAD PUSH2 0x1CF2 JUMP JUMPDEST SWAP1 POP DUP1 PUSH4 0xFFFFFFFF AND DUP5 DUP4 PUSH1 0xFF AND DUP2 MLOAD DUP2 LT PUSH2 0x158C JUMPI PUSH4 0x4E487B71 PUSH1 0xE0 SHL PUSH1 0x0 MSTORE PUSH1 0x32 PUSH1 0x4 MSTORE PUSH1 0x24 PUSH1 0x0 REVERT JUMPDEST PUSH1 0x20 MUL PUSH1 0x20 ADD ADD DUP2 DUP2 MLOAD PUSH2 0x15A0 SWAP2 SWAP1 PUSH2 0x2E9C JUMP JUMPDEST PUSH1 0x7 SWAP1 DUP2 SIGNEXTEND SWAP1 SIGNEXTEND SWAP1 MSTORE POP PUSH1 0x20 DUP4 ADD DUP1 MLOAD PUSH2 0x15DF SWAP2 PUSH2 0x15BD DUP3 PUSH2 0x2F80 JUMP JUMPDEST PUSH1 0xFF AND PUSH1 0xFF AND DUP2 MSTORE POP PUSH1 0xFF AND DUP5 PUSH1 0x0 ADD MLOAD DUP6 PUSH1 0x60 ADD MLOAD DUP7 PUSH1 0xE0 ADD MLOAD DUP7 DUP7 PUSH2 0x1EE3 JUMP JUMPDEST POP PUSH2 0x169A JUMP JUMPDEST PUSH2 0x15FF DUP13 PUSH1 0x1 DUP5 PUSH1 0xE0 ADD MLOAD PUSH1 0xFF AND PUSH1 0x0 NOT DUP11 DUP11 DUP11 DUP11 PUSH2 0x1F5D JUMP JUMPDEST DUP7 DUP4 PUSH1 0xE0 ADD MLOAD PUSH1 0xFF AND DUP2 MLOAD DUP2 LT PUSH2 0x1626 JUMPI PUSH4 0x4E487B71 PUSH1 0xE0 SHL PUSH1 0x0 MSTORE PUSH1 0x32 PUSH1 0x4 MSTORE PUSH1 0x24 PUSH1 0x0 REVERT JUMPDEST PUSH1 0x0 SWAP3 DUP4 SIGNEXTEND SWAP1 SWAP3 SIGNEXTEND PUSH1 0x20 SWAP3 DUP4 MUL SWAP2 SWAP1 SWAP2 ADD DUP3 ADD MSTORE DUP3 ADD DUP1 MLOAD PUSH2 0x169A SWAP2 PUSH2 0x164B DUP3 PUSH2 0x2F80 JUMP JUMPDEST PUSH1 0xFF AND PUSH1 0xFF AND DUP2 MSTORE POP PUSH1 0xFF AND DUP4 PUSH1 0x0 ADD MLOAD DUP5 PUSH1 0x60 ADD MLOAD DUP6 PUSH1 0xE0 ADD MLOAD DUP11 DUP8 PUSH1 0xE0 ADD MLOAD PUSH1 0xFF AND DUP2 MLOAD DUP2 LT PUSH2 0x168D JUMPI PUSH4 0x4E487B71 PUSH1 0xE0 SHL PUSH1 0x0 MSTORE PUSH1 0x32 PUSH1 0x4 MSTORE PUSH1 0x24 PUSH1 0x0 REVERT JUMPDEST PUSH1 0x20 MUL PUSH1 0x20 ADD ADD MLOAD PUSH2 0x20D3 JUMP JUMPDEST POP JUMPDEST PUSH1 0xE0 DUP2 ADD DUP1 MLOAD SWAP1 PUSH2 0x16AC DUP3 PUSH2 0x2F80 JUMP JUMPDEST PUSH1 0xFF AND SWAP1 MSTORE POP PUSH2 0x14B3 JUMP JUMPDEST PUSH1 0x0 PUSH1 0xE0 DUP3 ADD MSTORE JUMPDEST PUSH1 0x4 PUSH1 0xFF AND DUP2 PUSH1 0xE0 ADD MLOAD PUSH1 0xFF AND LT ISZERO PUSH2 0x18AC JUMPI PUSH1 0x0 DUP3 DUP3 PUSH1 0xE0 ADD MLOAD PUSH1 0xFF AND DUP2 MLOAD DUP2 LT PUSH2 0x16FB JUMPI PUSH4 0x4E487B71 PUSH1 0xE0 SHL PUSH1 0x0 MSTORE PUSH1 0x32 PUSH1 0x4 MSTORE PUSH1 0x24 PUSH1 0x0 REVERT JUMPDEST PUSH1 0x20 MUL PUSH1 0x20 ADD ADD MLOAD PUSH1 0x7 SIGNEXTEND SGT ISZERO PUSH2 0x1891 JUMPI PUSH1 0x0 PUSH2 0x171F DUP13 DUP4 PUSH1 0xE0 ADD MLOAD DUP8 DUP10 DUP9 PUSH2 0x1B8B JUMP JUMPDEST SWAP1 POP PUSH1 0x0 DUP2 PUSH1 0x0 SIGNEXTEND SLT PUSH2 0x17E4 JUMPI PUSH1 0x0 PUSH2 0x175F DUP14 DUP5 PUSH1 0xE0 ADD MLOAD DUP5 DUP8 DUP8 PUSH1 0xE0 ADD MLOAD PUSH1 0xFF AND DUP2 MLOAD DUP2 LT PUSH2 0x1553 JUMPI PUSH4 0x4E487B71 PUSH1 0xE0 SHL PUSH1 0x0 MSTORE PUSH1 0x32 PUSH1 0x4 MSTORE PUSH1 0x24 PUSH1 0x0 REVERT JUMPDEST SWAP1 POP DUP1 PUSH4 0xFFFFFFFF AND DUP6 DUP4 PUSH1 0xFF AND DUP2 MLOAD DUP2 LT PUSH2 0x178B JUMPI PUSH4 0x4E487B71 PUSH1 0xE0 SHL PUSH1 0x0 MSTORE PUSH1 0x32 PUSH1 0x4 MSTORE PUSH1 0x24 PUSH1 0x0 REVERT JUMPDEST PUSH1 0x20 MUL PUSH1 0x20 ADD ADD DUP2 DUP2 MLOAD PUSH2 0x179F SWAP2 SWAP1 PUSH2 0x2E9C JUMP JUMPDEST PUSH1 0x7 SWAP1 DUP2 SIGNEXTEND SWAP1 SIGNEXTEND SWAP1 MSTORE POP PUSH1 0x40 DUP4 ADD DUP1 MLOAD PUSH2 0x17DE SWAP2 PUSH2 0x17BC DUP3 PUSH2 0x2F80 JUMP JUMPDEST PUSH1 0xFF AND PUSH1 0xFF AND DUP2 MSTORE POP PUSH1 0xFF AND DUP5 PUSH1 0x0 ADD MLOAD DUP6 PUSH1 0xA0 ADD MLOAD DUP7 PUSH1 0xE0 ADD MLOAD DUP7 DUP7 PUSH2 0x1EE3 JUMP JUMPDEST POP PUSH2 0x188F JUMP JUMPDEST PUSH2 0x17FD DUP13 PUSH1 0x0 DUP5 PUSH1 0xE0 ADD MLOAD PUSH1 0xFF AND PUSH1 0x1 DUP11 DUP11 DUP11 DUP11 PUSH2 0x1F5D JUMP JUMPDEST DUP6 DUP4 PUSH1 0xE0 ADD MLOAD PUSH1 0xFF AND DUP2 MLOAD DUP2 LT PUSH2 0x1824 JUMPI PUSH4 0x4E487B71 PUSH1 0xE0 SHL PUSH1 0x0 MSTORE PUSH1 0x32 PUSH1 0x4 MSTORE PUSH1 0x24 PUSH1 0x0 REVERT JUMPDEST PUSH1 0x20 MUL PUSH1 0x20 ADD ADD SWAP1 PUSH1 0x0 SIGNEXTEND SWAP1 DUP2 PUSH1 0x0 SIGNEXTEND DUP2 MSTORE POP POP PUSH2 0x188F DUP3 PUSH1 0x40 ADD DUP1 MLOAD DUP1 SWAP2 SWAP1 PUSH2 0x184D SWAP1 PUSH2 0x2F80 JUMP JUMPDEST PUSH1 0xFF AND PUSH1 0xFF AND DUP2 MSTORE POP PUSH1 0xFF AND DUP4 PUSH1 0x0 ADD MLOAD DUP5 PUSH1 0xA0 ADD MLOAD DUP6 PUSH1 0xE0 ADD MLOAD DUP10 DUP8 PUSH1 0xE0 ADD MLOAD PUSH1 0xFF AND DUP2 MLOAD DUP2 LT PUSH2 0x168D JUMPI PUSH4 0x4E487B71 PUSH1 0xE0 SHL PUSH1 0x0 MSTORE PUSH1 0x32 PUSH1 0x4 MSTORE PUSH1 0x24 PUSH1 0x0 REVERT JUMPDEST POP JUMPDEST PUSH1 0xE0 DUP2 ADD DUP1 MLOAD SWAP1 PUSH2 0x18A1 DUP3 PUSH2 0x2F80 JUMP JUMPDEST PUSH1 0xFF AND SWAP1 MSTORE POP PUSH2 0x16BF JUMP JUMPDEST DUP1 MLOAD DUP2 PUSH2 0x18B8 DUP3 PUSH2 0x2F80 JUMP JUMPDEST PUSH1 0xFF AND SWAP1 MSTORE POP PUSH2 0x1478 JUMP JUMPDEST DUP1 MLOAD PUSH2 0x18D1 SWAP1 PUSH1 0x4 SWAP1 PUSH2 0x2E2E JUMP JUMPDEST PUSH1 0xFF AND PUSH8 0xFFFFFFFFFFFFFFFF DUP2 GT ISZERO PUSH2 0x18FA JUMPI PUSH4 0x4E487B71 PUSH1 0xE0 SHL PUSH1 0x0 MSTORE PUSH1 0x41 PUSH1 0x4 MSTORE PUSH1 0x24 PUSH1 0x0 REVERT JUMPDEST PUSH1 0x40 MLOAD SWAP1 DUP1 DUP3 MSTORE DUP1 PUSH1 0x20 MUL PUSH1 0x20 ADD DUP3 ADD PUSH1 0x40 MSTORE DUP1 ISZERO PUSH2 0x1933 JUMPI DUP2 PUSH1 0x20 ADD JUMPDEST PUSH2 0x1920 PUSH2 0x24A2 JUMP JUMPDEST DUP2 MSTORE PUSH1 0x20 ADD SWAP1 PUSH1 0x1 SWAP1 SUB SWAP1 DUP2 PUSH2 0x1918 JUMPI SWAP1 POP JUMPDEST POP PUSH1 0x80 DUP3 ADD MSTORE DUP1 MLOAD PUSH2 0x1947 SWAP1 PUSH1 0x4 SWAP1 PUSH2 0x2E2E JUMP JUMPDEST PUSH1 0xFF AND PUSH8 0xFFFFFFFFFFFFFFFF DUP2 GT ISZERO PUSH2 0x1970 JUMPI PUSH4 0x4E487B71 PUSH1 0xE0 SHL PUSH1 0x0 MSTORE PUSH1 0x41 PUSH1 0x4 MSTORE PUSH1 0x24 PUSH1 0x0 REVERT JUMPDEST PUSH1 0x40 MLOAD SWAP1 DUP1 DUP3 MSTORE DUP1 PUSH1 0x20 MUL PUSH1 0x20 ADD DUP3 ADD PUSH1 0x40 MSTORE DUP1 ISZERO PUSH2 0x19A9 JUMPI DUP2 PUSH1 0x20 ADD JUMPDEST PUSH2 0x1996 PUSH2 0x24A2 JUMP JUMPDEST DUP2 MSTORE PUSH1 0x20 ADD SWAP1 PUSH1 0x1 SWAP1 SUB SWAP1 DUP2 PUSH2 0x198E JUMPI SWAP1 POP JUMPDEST POP PUSH1 0xC0 DUP3 ADD MSTORE PUSH1 0x0 JUMPDEST DUP2 MLOAD PUSH2 0x19C0 SWAP1 PUSH1 0x4 SWAP1 PUSH2 0x2E2E JUMP JUMPDEST PUSH1 0xFF AND DUP2 PUSH2 0xFFFF AND LT ISZERO PUSH2 0x1AA7 JUMPI DUP2 PUSH1 0x60 ADD MLOAD DUP2 PUSH2 0xFFFF AND DUP2 MLOAD DUP2 LT PUSH2 0x19F6 JUMPI PUSH4 0x4E487B71 PUSH1 0xE0 SHL PUSH1 0x0 MSTORE PUSH1 0x32 PUSH1 0x4 MSTORE PUSH1 0x24 PUSH1 0x0 REVERT JUMPDEST PUSH1 0x20 MUL PUSH1 0x20 ADD ADD MLOAD DUP3 PUSH1 0x80 ADD MLOAD DUP3 PUSH2 0xFFFF AND DUP2 MLOAD DUP2 LT PUSH2 0x1A26 JUMPI PUSH4 0x4E487B71 PUSH1 0xE0 SHL PUSH1 0x0 MSTORE PUSH1 0x32 PUSH1 0x4 MSTORE PUSH1 0x24 PUSH1 0x0 REVERT JUMPDEST PUSH1 0x20 MUL PUSH1 0x20 ADD ADD DUP2 SWAP1 MSTORE POP DUP2 PUSH1 0xA0 ADD MLOAD DUP2 PUSH2 0xFFFF AND DUP2 MLOAD DUP2 LT PUSH2 0x1A59 JUMPI PUSH4 0x4E487B71 PUSH1 0xE0 SHL PUSH1 0x0 MSTORE PUSH1 0x32 PUSH1 0x4 MSTORE PUSH1 0x24 PUSH1 0x0 REVERT JUMPDEST PUSH1 0x20 MUL PUSH1 0x20 ADD ADD MLOAD DUP3 PUSH1 0xC0 ADD MLOAD DUP3 PUSH2 0xFFFF AND DUP2 MLOAD DUP2 LT PUSH2 0x1A89 JUMPI PUSH4 0x4E487B71 PUSH1 0xE0 SHL PUSH1 0x0 MSTORE PUSH1 0x32 PUSH1 0x4 MSTORE PUSH1 0x24 PUSH1 0x0 REVERT JUMPDEST PUSH1 0x20 MUL PUSH1 0x20 ADD ADD DUP2 SWAP1 MSTORE POP DUP1 DUP1 PUSH2 0x1A9F SWAP1 PUSH2 0x2F29 JUMP JUMPDEST SWAP2 POP POP PUSH2 0x19B2 JUMP JUMPDEST POP PUSH1 0x60 SWAP4 POP PUSH1 0x60 SWAP5 POP PUSH1 0x40 MLOAD DUP1 PUSH2 0x120 ADD PUSH1 0x40 MSTORE DUP1 DUP12 DUP2 MSTORE PUSH1 0x20 ADD DUP11 DUP2 MSTORE PUSH1 0x20 ADD DUP10 PUSH2 0xFFFF AND DUP2 MSTORE PUSH1 0x20 ADD DUP9 PUSH2 0xFFFF AND DUP2 MSTORE PUSH1 0x20 ADD DUP3 PUSH1 0x80 ADD MLOAD DUP2 MSTORE PUSH1 0x20 ADD DUP3 PUSH1 0xC0 ADD MLOAD DUP2 MSTORE PUSH1 0x20 ADD PUSH2 0x1AF9 DUP6 PUSH2 0x1B29 JUMP JUMPDEST ISZERO ISZERO DUP2 MSTORE PUSH1 0x20 ADD PUSH2 0x1B09 DUP5 PUSH2 0x1B29 JUMP JUMPDEST ISZERO ISZERO DUP2 MSTORE SWAP2 MLOAD PUSH1 0xFF AND PUSH1 0x20 SWAP1 SWAP3 ADD SWAP2 SWAP1 SWAP2 MSTORE SWAP11 SWAP10 POP POP POP POP POP POP POP POP POP POP JUMP JUMPDEST PUSH1 0x0 PUSH1 0x1 DUP2 JUMPDEST PUSH1 0x4 DUP2 LT ISZERO PUSH2 0x1B82 JUMPI PUSH1 0x0 DUP5 DUP3 DUP2 MLOAD DUP2 LT PUSH2 0x1B5A JUMPI PUSH4 0x4E487B71 PUSH1 0xE0 SHL PUSH1 0x0 MSTORE PUSH1 0x32 PUSH1 0x4 MSTORE PUSH1 0x24 PUSH1 0x0 REVERT JUMPDEST PUSH1 0x20 MUL PUSH1 0x20 ADD ADD MLOAD PUSH1 0x7 SIGNEXTEND SGT ISZERO PUSH2 0x1B70 JUMPI PUSH1 0x0 SWAP2 POP JUMPDEST DUP1 PUSH2 0x1B7A DUP2 PUSH2 0x2F4B JUMP JUMPDEST SWAP2 POP POP PUSH2 0x1B2F JUMP JUMPDEST POP SWAP1 POP JUMPDEST SWAP2 SWAP1 POP JUMP JUMPDEST PUSH1 0x0 DUP1 DUP5 DUP7 PUSH1 0xFF AND DUP2 MLOAD DUP2 LT PUSH2 0x1BB1 JUMPI PUSH4 0x4E487B71 PUSH1 0xE0 SHL PUSH1 0x0 MSTORE PUSH1 0x32 PUSH1 0x4 MSTORE PUSH1 0x24 PUSH1 0x0 REVERT JUMPDEST PUSH1 0x20 MUL PUSH1 0x20 ADD ADD MLOAD PUSH1 0x0 SIGNEXTEND SWAP1 POP PUSH1 0x0 PUSH7 0x1FFFFFFFFFFFFF SWAP1 POP PUSH1 0x0 DUP1 JUMPDEST PUSH1 0x4 PUSH1 0xFF DUP3 AND LT ISZERO PUSH2 0x1CC8 JUMPI PUSH1 0x0 DUP8 DUP3 PUSH1 0xFF AND DUP2 MLOAD DUP2 LT PUSH2 0x1BFF JUMPI PUSH4 0x4E487B71 PUSH1 0xE0 SHL PUSH1 0x0 MSTORE PUSH1 0x32 PUSH1 0x4 MSTORE PUSH1 0x24 PUSH1 0x0 REVERT JUMPDEST PUSH1 0x20 MUL PUSH1 0x20 ADD ADD MLOAD SWAP1 POP PUSH1 0x0 PUSH2 0x1C22 DUP3 PUSH1 0x0 SIGNEXTEND DUP8 PUSH2 0x1C1D SWAP2 SWAP1 PUSH2 0x2E57 JUMP JUMPDEST PUSH2 0x2142 JUMP JUMPDEST SWAP1 POP PUSH1 0x0 DUP9 DUP5 PUSH1 0xFF AND DUP2 MLOAD DUP2 LT PUSH2 0x1C49 JUMPI PUSH4 0x4E487B71 PUSH1 0xE0 SHL PUSH1 0x0 MSTORE PUSH1 0x32 PUSH1 0x4 MSTORE PUSH1 0x24 PUSH1 0x0 REVERT JUMPDEST PUSH1 0x20 MUL PUSH1 0x20 ADD ADD MLOAD PUSH1 0x7 SIGNEXTEND SGT DUP1 ISZERO PUSH2 0x1C97 JUMPI POP DUP12 DUP12 PUSH1 0xFF AND DUP2 MLOAD DUP2 LT PUSH2 0x1C7F JUMPI PUSH4 0x4E487B71 PUSH1 0xE0 SHL PUSH1 0x0 MSTORE PUSH1 0x32 PUSH1 0x4 MSTORE PUSH1 0x24 PUSH1 0x0 REVERT JUMPDEST PUSH1 0x20 MUL PUSH1 0x20 ADD ADD MLOAD PUSH1 0xA0 ADD MLOAD PUSH2 0xFFFF AND DUP2 PUSH2 0xFFFF AND GT ISZERO JUMPDEST ISZERO PUSH2 0x1CB3 JUMPI DUP5 DUP2 PUSH2 0xFFFF AND LT ISZERO PUSH2 0x1CB3 JUMPI DUP1 PUSH2 0xFFFF AND SWAP5 POP DUP3 SWAP4 POP JUMPDEST POP POP DUP1 DUP1 PUSH2 0x1CC0 SWAP1 PUSH2 0x2F80 JUMP JUMPDEST SWAP2 POP POP PUSH2 0x1BCE JUMP JUMPDEST POP PUSH1 0x0 SWAP3 POP PUSH7 0x1FFFFFFFFFFFFF DUP3 EQ PUSH2 0x1CE1 JUMPI DUP1 PUSH2 0x1CE5 JUMP JUMPDEST PUSH1 0x0 NOT JUMPDEST SWAP10 SWAP9 POP POP POP POP POP POP POP POP POP JUMP JUMPDEST PUSH1 0x0 DUP1 PUSH2 0x1D30 DUP7 DUP7 PUSH1 0xFF AND DUP2 MLOAD DUP2 LT PUSH2 0x1D1B JUMPI PUSH4 0x4E487B71 PUSH1 0xE0 SHL PUSH1 0x0 MSTORE PUSH1 0x32 PUSH1 0x4 MSTORE PUSH1 0x24 PUSH1 0x0 REVERT JUMPDEST PUSH1 0x20 MUL PUSH1 0x20 ADD ADD MLOAD PUSH1 0x40 ADD MLOAD PUSH1 0x20 ADD MLOAD PUSH2 0x2168 JUMP JUMPDEST DUP7 DUP7 PUSH1 0xFF AND DUP2 MLOAD DUP2 LT PUSH2 0x1D53 JUMPI PUSH4 0x4E487B71 PUSH1 0xE0 SHL PUSH1 0x0 MSTORE PUSH1 0x32 PUSH1 0x4 MSTORE PUSH1 0x24 PUSH1 0x0 REVERT JUMPDEST PUSH1 0x20 MUL PUSH1 0x20 ADD ADD MLOAD PUSH1 0x40 ADD MLOAD PUSH1 0x0 ADD MLOAD PUSH2 0x1D6D SWAP2 SWAP1 PUSH2 0x2C83 JUMP JUMPDEST SWAP1 POP PUSH1 0x0 DUP7 DUP6 PUSH1 0xFF AND DUP2 MLOAD DUP2 LT PUSH2 0x1D94 JUMPI PUSH4 0x4E487B71 PUSH1 0xE0 SHL PUSH1 0x0 MSTORE PUSH1 0x32 PUSH1 0x4 MSTORE PUSH1 0x24 PUSH1 0x0 REVERT JUMPDEST PUSH1 0x20 MUL PUSH1 0x20 ADD ADD MLOAD PUSH1 0x60 ADD MLOAD SWAP1 POP PUSH1 0x0 DUP8 DUP7 PUSH1 0xFF AND DUP2 MLOAD DUP2 LT PUSH2 0x1DC7 JUMPI PUSH4 0x4E487B71 PUSH1 0xE0 SHL PUSH1 0x0 MSTORE PUSH1 0x32 PUSH1 0x4 MSTORE PUSH1 0x24 PUSH1 0x0 REVERT JUMPDEST PUSH1 0x20 MUL PUSH1 0x20 ADD ADD MLOAD PUSH1 0xC0 ADD MLOAD PUSH1 0x64 PUSH2 0x1DDF SWAP2 SWAP1 PUSH2 0x2EE3 JUMP JUMPDEST SWAP1 POP PUSH1 0x0 PUSH1 0xA DUP3 PUSH2 0x1DF0 DUP6 DUP8 PUSH2 0x2EE3 JUMP JUMPDEST PUSH2 0x1DFA SWAP2 SWAP1 PUSH2 0x2DE1 JUMP JUMPDEST PUSH2 0x1E04 SWAP2 SWAP1 PUSH2 0x2CCC JUMP JUMPDEST PUSH2 0xFFFF AND SWAP1 POP PUSH1 0x0 DUP10 DUP10 PUSH1 0xFF AND DUP2 MLOAD DUP2 LT PUSH2 0x1E2F JUMPI PUSH4 0x4E487B71 PUSH1 0xE0 SHL PUSH1 0x0 MSTORE PUSH1 0x32 PUSH1 0x4 MSTORE PUSH1 0x24 PUSH1 0x0 REVERT JUMPDEST PUSH1 0x20 MUL PUSH1 0x20 ADD ADD MLOAD PUSH1 0x20 ADD MLOAD PUSH2 0xFFFF AND DUP8 PUSH2 0x1E4A SWAP2 SWAP1 PUSH2 0x2CED JUMP JUMPDEST PUSH2 0x1E55 SWAP1 PUSH1 0x1 PUSH2 0x2CA9 JUMP JUMPDEST SWAP1 POP PUSH1 0x0 DUP11 DUP10 PUSH1 0xFF AND DUP2 MLOAD DUP2 LT PUSH2 0x1E7C JUMPI PUSH4 0x4E487B71 PUSH1 0xE0 SHL PUSH1 0x0 MSTORE PUSH1 0x32 PUSH1 0x4 MSTORE PUSH1 0x24 PUSH1 0x0 REVERT JUMPDEST PUSH1 0x20 MUL PUSH1 0x20 ADD ADD MLOAD PUSH1 0x20 ADD MLOAD PUSH2 0xFFFF AND DUP3 PUSH2 0xFFFF AND PUSH2 0x1E9B SWAP2 SWAP1 PUSH2 0x2E0B JUMP JUMPDEST SWAP1 POP PUSH1 0x0 PUSH2 0x1EAD PUSH2 0xFFFF DUP5 AND DUP6 PUSH2 0x2E0B JUMP JUMPDEST SWAP1 POP PUSH1 0x0 SWAP7 POP PUSH1 0x0 SWAP6 POP PUSH1 0x0 SWAP5 POP PUSH1 0x0 SWAP3 POP PUSH2 0x1ED3 PUSH2 0x1ECD PUSH1 0x0 DUP4 PUSH2 0x21AD JUMP JUMPDEST DUP4 PUSH2 0x21CB JUMP JUMPDEST SWAP13 SWAP12 POP POP POP POP POP POP POP POP POP POP POP POP JUMP JUMPDEST PUSH1 0x40 MLOAD DUP1 PUSH1 0xC0 ADD PUSH1 0x40 MSTORE DUP1 PUSH1 0x1 PUSH1 0xFF AND DUP2 MSTORE PUSH1 0x20 ADD DUP7 PUSH1 0xFF AND DUP2 MSTORE PUSH1 0x20 ADD DUP5 PUSH1 0xFF AND DUP2 MSTORE PUSH1 0x20 ADD DUP4 PUSH1 0xFF AND DUP2 MSTORE PUSH1 0x20 ADD PUSH1 0x0 DUP1 SIGNEXTEND DUP2 MSTORE PUSH1 0x20 ADD DUP3 PUSH4 0xFFFFFFFF AND DUP2 MSTORE POP DUP5 DUP8 PUSH2 0xFFFF AND DUP2 MLOAD DUP2 LT PUSH2 0x1F4A JUMPI PUSH4 0x4E487B71 PUSH1 0xE0 SHL PUSH1 0x0 MSTORE PUSH1 0x32 PUSH1 0x4 MSTORE PUSH1 0x24 PUSH1 0x0 REVERT JUMPDEST PUSH1 0x20 MUL PUSH1 0x20 ADD ADD DUP2 SWAP1 MSTORE POP POP POP POP POP POP POP JUMP JUMPDEST PUSH1 0x0 DUP1 DUP10 DUP9 PUSH2 0xFFFF AND DUP2 MLOAD DUP2 LT PUSH2 0x1F84 JUMPI PUSH4 0x4E487B71 PUSH1 0xE0 SHL PUSH1 0x0 MSTORE PUSH1 0x32 PUSH1 0x4 MSTORE PUSH1 0x24 PUSH1 0x0 REVERT JUMPDEST PUSH1 0x20 MUL PUSH1 0x20 ADD ADD MLOAD PUSH1 0x80 ADD MLOAD SWAP1 POP PUSH1 0x0 DUP10 PUSH2 0x1FCA JUMPI DUP6 DUP10 PUSH2 0xFFFF AND DUP2 MLOAD DUP2 LT PUSH2 0x1FBD JUMPI PUSH4 0x4E487B71 PUSH1 0xE0 SHL PUSH1 0x0 MSTORE PUSH1 0x32 PUSH1 0x4 MSTORE PUSH1 0x24 PUSH1 0x0 REVERT JUMPDEST PUSH1 0x20 MUL PUSH1 0x20 ADD ADD MLOAD PUSH2 0x1FF7 JUMP JUMPDEST DUP7 DUP10 PUSH2 0xFFFF AND DUP2 MLOAD DUP2 LT PUSH2 0x1FEE JUMPI PUSH4 0x4E487B71 PUSH1 0xE0 SHL PUSH1 0x0 MSTORE PUSH1 0x32 PUSH1 0x4 MSTORE PUSH1 0x24 PUSH1 0x0 REVERT JUMPDEST PUSH1 0x20 MUL PUSH1 0x20 ADD ADD MLOAD JUMPDEST SWAP1 POP DUP2 JUMPDEST PUSH1 0x0 DUP2 PUSH1 0x1 SIGNEXTEND SGT ISZERO PUSH2 0x20C4 JUMPI PUSH1 0x0 DUP12 PUSH2 0x2053 JUMPI PUSH2 0x2018 DUP3 DUP12 PUSH2 0x2D08 JUMP JUMPDEST DUP9 DUP13 PUSH2 0xFFFF AND DUP2 MLOAD DUP2 LT PUSH2 0x203C JUMPI PUSH4 0x4E487B71 PUSH1 0xE0 SHL PUSH1 0x0 MSTORE PUSH1 0x32 PUSH1 0x4 MSTORE PUSH1 0x24 PUSH1 0x0 REVERT JUMPDEST PUSH1 0x20 MUL PUSH1 0x20 ADD ADD MLOAD PUSH2 0x204E SWAP2 SWAP1 PUSH2 0x2C43 JUMP JUMPDEST PUSH2 0x2093 JUMP JUMPDEST PUSH2 0x205D DUP3 DUP12 PUSH2 0x2D08 JUMP JUMPDEST DUP10 DUP13 PUSH2 0xFFFF AND DUP2 MLOAD DUP2 LT PUSH2 0x2081 JUMPI PUSH4 0x4E487B71 PUSH1 0xE0 SHL PUSH1 0x0 MSTORE PUSH1 0x32 PUSH1 0x4 MSTORE PUSH1 0x24 PUSH1 0x0 REVERT JUMPDEST PUSH1 0x20 MUL PUSH1 0x20 ADD ADD MLOAD PUSH2 0x2093 SWAP2 SWAP1 PUSH2 0x2C43 JUMP JUMPDEST SWAP1 POP PUSH2 0x20A5 DUP2 PUSH1 0x0 SIGNEXTEND DUP11 DUP11 DUP11 DUP11 PUSH2 0x21E0 JUMP JUMPDEST ISZERO PUSH2 0x20B1 JUMPI SWAP2 POP PUSH2 0x20C4 JUMP JUMPDEST POP DUP1 PUSH2 0x20BC DUP2 PUSH2 0x2F06 JUMP JUMPDEST SWAP2 POP POP PUSH2 0x1FFB JUMP JUMPDEST POP SWAP11 SWAP10 POP POP POP POP POP POP POP POP POP POP JUMP JUMPDEST PUSH1 0x40 DUP1 MLOAD PUSH1 0xC0 DUP2 ADD DUP3 MSTORE PUSH1 0x2 DUP2 MSTORE PUSH1 0xFF DUP7 DUP2 AND PUSH1 0x20 DUP4 ADD MSTORE DUP5 AND SWAP2 DUP2 ADD SWAP2 SWAP1 SWAP2 MSTORE PUSH1 0x0 PUSH1 0x60 DUP3 ADD DUP2 SWAP1 MSTORE DUP3 DUP2 SIGNEXTEND PUSH1 0x80 DUP4 ADD MSTORE PUSH1 0xA0 DUP3 ADD MSTORE DUP4 MLOAD DUP5 SWAP1 PUSH2 0xFFFF DUP9 AND SWAP1 DUP2 LT PUSH2 0x2130 JUMPI PUSH4 0x4E487B71 PUSH1 0xE0 SHL PUSH1 0x0 MSTORE PUSH1 0x32 PUSH1 0x4 MSTORE PUSH1 0x24 PUSH1 0x0 REVERT JUMPDEST PUSH1 0x20 MUL PUSH1 0x20 ADD ADD DUP2 SWAP1 MSTORE POP POP POP POP POP POP JUMP JUMPDEST PUSH1 0x0 DUP1 DUP3 PUSH1 0x1 SIGNEXTEND SLT PUSH2 0x2155 JUMPI POP DUP1 PUSH2 0x1B86 JUMP JUMPDEST PUSH2 0x2161 DUP3 PUSH1 0x0 NOT PUSH2 0x2D08 JUMP JUMPDEST SWAP1 POP PUSH2 0x1B86 JUMP JUMPDEST PUSH1 0x0 DUP2 PUSH2 0xFFFF AND DIFFICULTY TIMESTAMP CALLER PUSH1 0x40 MLOAD PUSH1 0x20 ADD PUSH2 0x2184 SWAP4 SWAP3 SWAP2 SWAP1 PUSH2 0x2824 JUMP JUMPDEST PUSH1 0x40 MLOAD PUSH1 0x20 DUP2 DUP4 SUB SUB DUP2 MSTORE SWAP1 PUSH1 0x40 MSTORE DUP1 MLOAD SWAP1 PUSH1 0x20 ADD KECCAK256 PUSH1 0x0 SHR PUSH2 0x21A7 SWAP2 SWAP1 PUSH2 0x2FA0 JUMP JUMPDEST SWAP3 SWAP2 POP POP JUMP JUMPDEST PUSH1 0x0 DUP2 PUSH1 0x3 SIGNEXTEND DUP4 PUSH1 0x3 SIGNEXTEND SGT PUSH2 0x21C2 JUMPI DUP2 PUSH2 0x21C4 JUMP JUMPDEST DUP3 JUMPDEST SWAP4 SWAP3 POP POP POP JUMP JUMPDEST PUSH1 0x0 DUP2 PUSH1 0x3 SIGNEXTEND DUP4 PUSH1 0x3 SIGNEXTEND SLT PUSH2 0x21C2 JUMPI DUP2 PUSH2 0x21C4 JUMP JUMPDEST PUSH1 0x0 PUSH1 0xF PUSH2 0x21ED DUP8 PUSH2 0x2142 JUMP JUMPDEST PUSH2 0xFFFF AND GT ISZERO PUSH2 0x21FF JUMPI POP PUSH1 0x0 PUSH2 0xF7B JUMP JUMPDEST PUSH1 0x0 DUP1 JUMPDEST PUSH1 0x4 PUSH1 0xFF DUP3 AND LT ISZERO PUSH2 0x2309 JUMPI DUP8 PUSH1 0x1 SIGNEXTEND DUP8 DUP3 PUSH1 0xFF AND DUP2 MLOAD DUP2 LT PUSH2 0x2236 JUMPI PUSH4 0x4E487B71 PUSH1 0xE0 SHL PUSH1 0x0 MSTORE PUSH1 0x32 PUSH1 0x4 MSTORE PUSH1 0x24 PUSH1 0x0 REVERT JUMPDEST PUSH1 0x20 MUL PUSH1 0x20 ADD ADD MLOAD PUSH1 0x0 SIGNEXTEND EQ DUP1 ISZERO PUSH2 0x227B JUMPI POP PUSH1 0x0 DUP6 DUP3 PUSH1 0xFF AND DUP2 MLOAD DUP2 LT PUSH2 0x226E JUMPI PUSH4 0x4E487B71 PUSH1 0xE0 SHL PUSH1 0x0 MSTORE PUSH1 0x32 PUSH1 0x4 MSTORE PUSH1 0x24 PUSH1 0x0 REVERT JUMPDEST PUSH1 0x20 MUL PUSH1 0x20 ADD ADD MLOAD PUSH1 0x7 SIGNEXTEND SGT JUMPDEST DUP1 PUSH2 0x22ED JUMPI POP DUP8 PUSH1 0x1 SIGNEXTEND DUP7 DUP3 PUSH1 0xFF AND DUP2 MLOAD DUP2 LT PUSH2 0x22A8 JUMPI PUSH4 0x4E487B71 PUSH1 0xE0 SHL PUSH1 0x0 MSTORE PUSH1 0x32 PUSH1 0x4 MSTORE PUSH1 0x24 PUSH1 0x0 REVERT JUMPDEST PUSH1 0x20 MUL PUSH1 0x20 ADD ADD MLOAD PUSH1 0x0 SIGNEXTEND EQ DUP1 ISZERO PUSH2 0x22ED JUMPI POP PUSH1 0x0 DUP5 DUP3 PUSH1 0xFF AND DUP2 MLOAD DUP2 LT PUSH2 0x22E0 JUMPI PUSH4 0x4E487B71 PUSH1 0xE0 SHL PUSH1 0x0 MSTORE PUSH1 0x32 PUSH1 0x4 MSTORE PUSH1 0x24 PUSH1 0x0 REVERT JUMPDEST PUSH1 0x20 MUL PUSH1 0x20 ADD ADD MLOAD PUSH1 0x7 SIGNEXTEND SGT JUMPDEST ISZERO PUSH2 0x22F7 JUMPI PUSH1 0x1 SWAP2 POP JUMPDEST DUP1 PUSH2 0x2301 DUP2 PUSH2 0x2F80 JUMP JUMPDEST SWAP2 POP POP PUSH2 0x2203 JUMP JUMPDEST POP ISZERO SWAP7 SWAP6 POP POP POP POP POP POP JUMP JUMPDEST DUP3 DUP1 SLOAD DUP3 DUP3 SSTORE SWAP1 PUSH1 0x0 MSTORE PUSH1 0x20 PUSH1 0x0 KECCAK256 SWAP1 PUSH1 0xF ADD PUSH1 0x10 SWAP1 DIV DUP2 ADD SWAP3 DUP3 ISZERO PUSH2 0x23AE JUMPI SWAP2 PUSH1 0x20 MUL DUP3 ADD PUSH1 0x0 JUMPDEST DUP4 DUP3 GT ISZERO PUSH2 0x237E JUMPI DUP4 MLOAD DUP4 DUP3 PUSH2 0x100 EXP DUP2 SLOAD DUP2 PUSH2 0xFFFF MUL NOT AND SWAP1 DUP4 PUSH2 0xFFFF AND MUL OR SWAP1 SSTORE POP SWAP3 PUSH1 0x20 ADD SWAP3 PUSH1 0x2 ADD PUSH1 0x20 DUP2 PUSH1 0x1 ADD DIV SWAP3 DUP4 ADD SWAP3 PUSH1 0x1 SUB MUL PUSH2 0x233E JUMP JUMPDEST DUP1 ISZERO PUSH2 0x23AC JUMPI DUP3 DUP2 PUSH2 0x100 EXP DUP2 SLOAD SWAP1 PUSH2 0xFFFF MUL NOT AND SWAP1 SSTORE PUSH1 0x2 ADD PUSH1 0x20 DUP2 PUSH1 0x1 ADD DIV SWAP3 DUP4 ADD SWAP3 PUSH1 0x1 SUB MUL PUSH2 0x237E JUMP JUMPDEST POP JUMPDEST POP PUSH2 0x23BA SWAP3 SWAP2 POP PUSH2 0x24D7 JUMP JUMPDEST POP SWAP1 JUMP JUMPDEST PUSH1 0x40 DUP1 MLOAD PUSH1 0x80 DUP2 ADD DUP3 MSTORE PUSH1 0x0 DUP1 DUP3 MSTORE PUSH1 0x20 DUP3 ADD DUP2 SWAP1 MSTORE SWAP2 DUP2 ADD DUP3 SWAP1 MSTORE PUSH1 0x60 DUP2 ADD SWAP2 SWAP1 SWAP2 MSTORE SWAP1 JUMP JUMPDEST PUSH1 0x40 DUP1 MLOAD PUSH1 0xA0 DUP2 ADD DUP3 MSTORE PUSH1 0x0 DUP1 DUP3 MSTORE PUSH1 0x20 DUP3 ADD DUP2 SWAP1 MSTORE PUSH1 0x60 SWAP3 DUP3 ADD DUP4 SWAP1 MSTORE SWAP2 DUP2 ADD DUP3 SWAP1 MSTORE PUSH1 0x80 DUP2 ADD SWAP2 SWAP1 SWAP2 MSTORE SWAP1 JUMP JUMPDEST PUSH1 0x40 DUP1 MLOAD PUSH2 0x120 DUP2 ADD DUP3 MSTORE PUSH1 0x60 DUP1 DUP3 MSTORE PUSH1 0x20 DUP3 ADD DUP2 SWAP1 MSTORE PUSH1 0x0 SWAP3 DUP3 ADD DUP4 SWAP1 MSTORE DUP1 DUP3 ADD DUP4 SWAP1 MSTORE PUSH1 0x80 DUP3 ADD DUP2 SWAP1 MSTORE PUSH1 0xA0 DUP3 ADD MSTORE PUSH1 0xC0 DUP2 ADD DUP3 SWAP1 MSTORE PUSH1 0xE0 DUP2 ADD DUP3 SWAP1 MSTORE PUSH2 0x100 DUP2 ADD SWAP2 SWAP1 SWAP2 MSTORE SWAP1 JUMP JUMPDEST PUSH1 0x40 DUP1 MLOAD PUSH2 0x100 DUP2 ADD DUP3 MSTORE PUSH1 0x0 DUP1 DUP3 MSTORE PUSH1 0x20 DUP3 ADD DUP2 SWAP1 MSTORE SWAP2 DUP2 ADD DUP3 SWAP1 MSTORE PUSH1 0x60 DUP1 DUP3 ADD DUP2 SWAP1 MSTORE PUSH1 0x80 DUP3 ADD DUP2 SWAP1 MSTORE PUSH1 0xA0 DUP3 ADD DUP2 SWAP1 MSTORE PUSH1 0xC0 DUP3 ADD MSTORE PUSH1 0xE0 DUP2 ADD SWAP2 SWAP1 SWAP2 MSTORE SWAP1 JUMP JUMPDEST PUSH1 0x40 DUP1 MLOAD PUSH1 0xC0 DUP2 ADD DUP3 MSTORE PUSH1 0x0 DUP1 DUP3 MSTORE PUSH1 0x20 DUP3 ADD DUP2 SWAP1 MSTORE SWAP2 DUP2 ADD DUP3 SWAP1 MSTORE PUSH1 0x60 DUP2 ADD DUP3 SWAP1 MSTORE PUSH1 0x80 DUP2 ADD DUP3 SWAP1 MSTORE PUSH1 0xA0 DUP2 ADD SWAP2 SWAP1 SWAP2 MSTORE SWAP1 JUMP JUMPDEST JUMPDEST DUP1 DUP3 GT ISZERO PUSH2 0x23BA JUMPI PUSH1 0x0 DUP2 SSTORE PUSH1 0x1 ADD PUSH2 0x24D8 JUMP JUMPDEST PUSH1 0x0 DUP3 PUSH1 0x1F DUP4 ADD SLT PUSH2 0x24FC JUMPI DUP1 DUP2 REVERT JUMPDEST DUP2 CALLDATALOAD PUSH1 0x20 PUSH8 0xFFFFFFFFFFFFFFFF DUP1 DUP4 GT ISZERO PUSH2 0x2519 JUMPI PUSH2 0x2519 PUSH2 0x2FE0 JUMP JUMPDEST DUP2 DUP4 MUL PUSH1 0x40 MLOAD DUP4 DUP3 DUP3 ADD ADD DUP2 DUP2 LT DUP5 DUP3 GT OR ISZERO PUSH2 0x2538 JUMPI PUSH2 0x2538 PUSH2 0x2FE0 JUMP JUMPDEST PUSH1 0x40 MSTORE DUP5 DUP2 MSTORE DUP4 DUP2 ADD SWAP3 POP DUP7 DUP5 ADD DUP3 DUP9 ADD DUP6 ADD DUP10 LT ISZERO PUSH2 0x2556 JUMPI DUP7 DUP8 REVERT JUMPDEST DUP7 SWAP3 POP JUMPDEST DUP6 DUP4 LT ISZERO PUSH2 0x257F JUMPI PUSH2 0x256B DUP2 PUSH2 0x258B JUMP JUMPDEST DUP5 MSTORE SWAP3 DUP5 ADD SWAP3 PUSH1 0x1 SWAP3 SWAP1 SWAP3 ADD SWAP2 DUP5 ADD PUSH2 0x255A JUMP JUMPDEST POP SWAP8 SWAP7 POP POP POP POP POP POP POP JUMP JUMPDEST DUP1 CALLDATALOAD PUSH2 0xFFFF DUP2 AND DUP2 EQ PUSH2 0x1B86 JUMPI PUSH1 0x0 DUP1 REVERT JUMPDEST PUSH1 0x0 DUP1 PUSH1 0x0 PUSH1 0x60 DUP5 DUP7 SUB SLT ISZERO PUSH2 0x25B1 JUMPI DUP3 DUP4 REVERT JUMPDEST DUP4 CALLDATALOAD PUSH1 0x1 PUSH1 0x1 PUSH1 0xA0 SHL SUB DUP2 AND DUP2 EQ PUSH2 0x25C7 JUMPI DUP4 DUP5 REVERT JUMPDEST SWAP3 POP PUSH1 0x20 DUP5 ADD CALLDATALOAD PUSH8 0xFFFFFFFFFFFFFFFF DUP2 GT ISZERO PUSH2 0x25E2 JUMPI DUP3 DUP4 REVERT JUMPDEST PUSH2 0x25EE DUP7 DUP3 DUP8 ADD PUSH2 0x24EC JUMP JUMPDEST SWAP3 POP POP PUSH2 0x25FD PUSH1 0x40 DUP6 ADD PUSH2 0x258B JUMP JUMPDEST SWAP1 POP SWAP3 POP SWAP3 POP SWAP3 JUMP JUMPDEST PUSH1 0x0 DUP1 PUSH1 0x0 PUSH1 0x60 DUP5 DUP7 SUB SLT ISZERO PUSH2 0x261A JUMPI DUP3 DUP4 REVERT JUMPDEST DUP4 CALLDATALOAD PUSH8 0xFFFFFFFFFFFFFFFF DUP2 GT ISZERO PUSH2 0x2630 JUMPI DUP4 DUP5 REVERT JUMPDEST PUSH2 0x263C DUP7 DUP3 DUP8 ADD PUSH2 0x24EC JUMP JUMPDEST SWAP4 POP POP PUSH2 0x264B PUSH1 0x20 DUP6 ADD PUSH2 0x258B JUMP JUMPDEST SWAP2 POP PUSH1 0x40 DUP5 ADD CALLDATALOAD SWAP1 POP SWAP3 POP SWAP3 POP SWAP3 JUMP JUMPDEST PUSH1 0x0 DUP1 PUSH1 0x0 DUP1 PUSH1 0x0 DUP1 PUSH1 0x0 DUP1 PUSH1 0x0 PUSH2 0x120 DUP11 DUP13 SUB SLT ISZERO PUSH2 0x2679 JUMPI DUP5 DUP6 REVERT JUMPDEST PUSH2 0x2682 DUP11 PUSH2 0x258B JUMP JUMPDEST SWAP9 POP PUSH2 0x2690 PUSH1 0x20 DUP12 ADD PUSH2 0x258B JUMP JUMPDEST SWAP8 POP PUSH2 0x269E PUSH1 0x40 DUP12 ADD PUSH2 0x258B JUMP JUMPDEST SWAP7 POP PUSH2 0x26AC PUSH1 0x60 DUP12 ADD PUSH2 0x258B JUMP JUMPDEST SWAP6 POP PUSH2 0x26BA PUSH1 0x80 DUP12 ADD PUSH2 0x258B JUMP JUMPDEST SWAP5 POP PUSH2 0x26C8 PUSH1 0xA0 DUP12 ADD PUSH2 0x258B JUMP JUMPDEST SWAP4 POP PUSH2 0x26D6 PUSH1 0xC0 DUP12 ADD PUSH2 0x258B JUMP JUMPDEST SWAP3 POP PUSH2 0x26E4 PUSH1 0xE0 DUP12 ADD PUSH2 0x258B JUMP JUMPDEST SWAP2 POP PUSH2 0x26F3 PUSH2 0x100 DUP12 ADD PUSH2 0x258B JUMP JUMPDEST SWAP1 POP SWAP3 SWAP6 SWAP9 POP SWAP3 SWAP6 SWAP9 POP SWAP3 SWAP6 SWAP9 JUMP JUMPDEST PUSH1 0x0 DUP2 MLOAD DUP1 DUP5 MSTORE PUSH1 0x20 DUP1 DUP6 ADD SWAP5 POP DUP1 DUP5 ADD DUP4 JUMPDEST DUP4 DUP2 LT ISZERO PUSH2 0x2779 JUMPI DUP2 MLOAD DUP1 MLOAD PUSH1 0xFF SWAP1 DUP2 AND DUP10 MSTORE DUP5 DUP3 ADD MLOAD DUP2 AND DUP6 DUP11 ADD MSTORE PUSH1 0x40 DUP1 DUP4 ADD MLOAD DUP3 AND SWAP1 DUP11 ADD MSTORE PUSH1 0x60 DUP1 DUP4 ADD MLOAD SWAP1 SWAP2 AND SWAP1 DUP10 ADD MSTORE PUSH1 0x80 DUP1 DUP3 ADD MLOAD DUP8 SIGNEXTEND SWAP1 DUP10 ADD MSTORE PUSH1 0xA0 SWAP1 DUP2 ADD MLOAD PUSH4 0xFFFFFFFF AND SWAP1 DUP9 ADD MSTORE PUSH1 0xC0 SWAP1 SWAP7 ADD SWAP6 SWAP1 DUP3 ADD SWAP1 PUSH1 0x1 ADD PUSH2 0x2715 JUMP JUMPDEST POP SWAP5 SWAP6 SWAP5 POP POP POP POP POP JUMP JUMPDEST PUSH1 0x0 DUP2 MLOAD DUP1 DUP5 MSTORE PUSH1 0x20 DUP1 DUP6 ADD SWAP5 POP DUP1 DUP5 ADD DUP4 JUMPDEST DUP4 DUP2 LT ISZERO PUSH2 0x2779 JUMPI DUP2 MLOAD PUSH2 0xFFFF AND DUP8 MSTORE SWAP6 DUP3 ADD SWAP6 SWAP1 DUP3 ADD SWAP1 PUSH1 0x1 ADD PUSH2 0x2797 JUMP JUMPDEST ISZERO ISZERO SWAP1 MSTORE JUMP JUMPDEST PUSH1 0x0 PUSH1 0x1 PUSH1 0x1 PUSH1 0xA0 SHL SUB DUP3 MLOAD AND DUP4 MSTORE PUSH1 0x20 DUP3 ADD MLOAD ISZERO ISZERO PUSH1 0x20 DUP5 ADD MSTORE PUSH1 0x40 DUP3 ADD MLOAD PUSH1 0xA0 PUSH1 0x40 DUP6 ADD MSTORE PUSH2 0x27F1 PUSH1 0xA0 DUP6 ADD DUP3 PUSH2 0x2784 JUMP JUMPDEST SWAP1 POP PUSH2 0xFFFF PUSH1 0x60 DUP5 ADD MLOAD AND PUSH1 0x60 DUP6 ADD MSTORE PUSH1 0x80 DUP4 ADD MLOAD PUSH1 0x80 DUP6 ADD MSTORE DUP1 SWAP2 POP POP SWAP3 SWAP2 POP POP JUMP JUMPDEST PUSH2 0xFFFF AND SWAP1 MSTORE JUMP JUMPDEST PUSH1 0xFF AND SWAP1 MSTORE JUMP JUMPDEST SWAP3 DUP4 MSTORE PUSH1 0x20 DUP4 ADD SWAP2 SWAP1 SWAP2 MSTORE PUSH1 0x60 SHL PUSH32 0xFFFFFFFFFFFFFFFFFFFFFFFFFFFFFFFFFFFFFFFF000000000000000000000000 AND PUSH1 0x40 DUP3 ADD MSTORE PUSH1 0x54 ADD SWAP1 JUMP JUMPDEST PUSH1 0x1 PUSH1 0x1 PUSH1 0xA0 SHL SUB SWAP2 SWAP1 SWAP2 AND DUP2 MSTORE PUSH1 0x20 ADD SWAP1 JUMP JUMPDEST PUSH1 0x20 DUP1 DUP3 MSTORE DUP3 MLOAD DUP3 DUP3 ADD DUP2 SWAP1 MSTORE PUSH1 0x0 SWAP2 SWAP1 PUSH1 0x40 SWAP1 DUP2 DUP6 ADD SWAP1 DUP7 DUP5 ADD DUP6 JUMPDEST DUP3 DUP2 LT ISZERO PUSH2 0x28DC JUMPI DUP2 MLOAD DUP1 MLOAD PUSH1 0x1 PUSH1 0x1 PUSH1 0xA0 SHL SUB AND DUP6 MSTORE DUP7 DUP2 ADD MLOAD DUP8 DUP7 ADD MSTORE DUP6 DUP2 ADD MLOAD PUSH4 0xFFFFFFFF SWAP1 DUP2 AND DUP8 DUP8 ADD MSTORE PUSH1 0x60 SWAP2 DUP3 ADD MLOAD AND SWAP1 DUP6 ADD MSTORE PUSH1 0x80 SWAP1 SWAP4 ADD SWAP3 SWAP1 DUP6 ADD SWAP1 PUSH1 0x1 ADD PUSH2 0x2890 JUMP JUMPDEST POP SWAP2 SWAP8 SWAP7 POP POP POP POP POP POP POP JUMP JUMPDEST PUSH1 0x0 PUSH1 0x20 DUP1 DUP4 ADD DUP2 DUP5 MSTORE DUP1 DUP6 MLOAD DUP1 DUP4 MSTORE PUSH1 0x40 DUP7 ADD SWAP2 POP PUSH1 0x40 DUP5 DUP3 MUL DUP8 ADD ADD SWAP3 POP DUP4 DUP8 ADD DUP6 JUMPDEST DUP3 DUP2 LT ISZERO PUSH2 0x293C JUMPI PUSH1 0x3F NOT DUP9 DUP7 SUB ADD DUP5 MSTORE PUSH2 0x292A DUP6 DUP4 MLOAD PUSH2 0x27BD JUMP JUMPDEST SWAP5 POP SWAP3 DUP6 ADD SWAP3 SWAP1 DUP6 ADD SWAP1 PUSH1 0x1 ADD PUSH2 0x290E JUMP JUMPDEST POP SWAP3 SWAP8 SWAP7 POP POP POP POP POP POP POP JUMP JUMPDEST PUSH1 0x20 DUP1 DUP3 MSTORE DUP3 MLOAD DUP3 DUP3 ADD DUP2 SWAP1 MSTORE PUSH1 0x0 SWAP2 SWAP1 PUSH1 0x40 SWAP1 DUP2 DUP6 ADD SWAP1 DUP7 DUP5 ADD DUP6 JUMPDEST DUP3 DUP2 LT ISZERO PUSH2 0x28DC JUMPI DUP2 MLOAD DUP1 MLOAD PUSH2 0xFFFF SWAP1 DUP2 AND DUP7 MSTORE DUP8 DUP3 ADD MLOAD DUP2 AND DUP9 DUP8 ADD MSTORE DUP7 DUP3 ADD MLOAD DUP1 MLOAD DUP3 AND DUP9 DUP9 ADD MSTORE DUP9 ADD MLOAD AND PUSH1 0x60 DUP1 DUP8 ADD SWAP2 SWAP1 SWAP2 MSTORE DUP2 ADD MLOAD PUSH1 0x80 PUSH2 0x29AE DUP2 DUP9 ADD DUP4 PUSH2 0x2815 JUMP JUMPDEST DUP3 ADD MLOAD SWAP1 POP PUSH1 0xA0 PUSH2 0x29C1 DUP8 DUP3 ADD DUP4 PUSH2 0x2815 JUMP JUMPDEST DUP3 ADD MLOAD SWAP1 POP PUSH1 0xC0 PUSH2 0x29D4 DUP8 DUP3 ADD DUP4 PUSH2 0x2815 JUMP JUMPDEST SWAP2 SWAP1 SWAP2 ADD MLOAD SWAP1 POP PUSH2 0x29E8 PUSH1 0xE0 DUP7 ADD DUP3 PUSH2 0x2815 JUMP JUMPDEST POP PUSH2 0x100 SWAP4 SWAP1 SWAP4 ADD SWAP3 SWAP1 DUP6 ADD SWAP1 PUSH1 0x1 ADD PUSH2 0x2966 JUMP JUMPDEST PUSH1 0x20 DUP1 DUP3 MSTORE PUSH1 0x22 SWAP1 DUP3 ADD MSTORE PUSH32 0x53656C656374696F6E206E6565647320746F2068617665203420656C656D656E PUSH1 0x40 DUP3 ADD MSTORE PUSH32 0x7473000000000000000000000000000000000000000000000000000000000000 PUSH1 0x60 DUP3 ADD MSTORE PUSH1 0x80 ADD SWAP1 JUMP JUMPDEST PUSH1 0x20 DUP1 DUP3 MSTORE PUSH1 0x24 SWAP1 DUP3 ADD MSTORE PUSH32 0x43616E206F6E6C792061747461636B2061207265676973746572656420646566 PUSH1 0x40 DUP3 ADD MSTORE PUSH32 0x656E636500000000000000000000000000000000000000000000000000000000 PUSH1 0x60 DUP3 ADD MSTORE PUSH1 0x80 ADD SWAP1 JUMP JUMPDEST PUSH1 0x20 DUP1 DUP3 MSTORE PUSH1 0x16 SWAP1 DUP3 ADD MSTORE PUSH32 0x446566656E6365206E6F74207265676973746572656400000000000000000000 PUSH1 0x40 DUP3 ADD MSTORE PUSH1 0x60 ADD SWAP1 JUMP JUMPDEST PUSH1 0x20 DUP1 DUP3 MSTORE PUSH1 0x33 SWAP1 DUP3 ADD MSTORE PUSH32 0x546869732066756E6374696F6E206973207265737472696374656420746F2074 PUSH1 0x40 DUP3 ADD MSTORE PUSH32 0x686520636F6E74726163742773206F776E657200000000000000000000000000 PUSH1 0x60 DUP3 ADD MSTORE PUSH1 0x80 ADD SWAP1 JUMP JUMPDEST PUSH1 0x0 PUSH1 0x20 DUP3 MSTORE DUP3 MLOAD PUSH2 0x120 DUP1 PUSH1 0x20 DUP6 ADD MSTORE PUSH2 0x2B6A PUSH2 0x140 DUP6 ADD DUP4 PUSH2 0x2784 JUMP JUMPDEST SWAP2 POP PUSH1 0x20 DUP6 ADD MLOAD PUSH1 0x1F NOT DUP1 DUP7 DUP6 SUB ADD PUSH1 0x40 DUP8 ADD MSTORE PUSH2 0x2B88 DUP5 DUP4 PUSH2 0x2784 JUMP JUMPDEST SWAP4 POP PUSH1 0x40 DUP8 ADD MLOAD SWAP2 POP PUSH2 0x2B9E PUSH1 0x60 DUP8 ADD DUP4 PUSH2 0x2815 JUMP JUMPDEST PUSH1 0x60 DUP8 ADD MLOAD SWAP2 POP PUSH2 0x2BB2 PUSH1 0x80 DUP8 ADD DUP4 PUSH2 0x2815 JUMP JUMPDEST PUSH1 0x80 DUP8 ADD MLOAD SWAP2 POP DUP1 DUP7 DUP6 SUB ADD PUSH1 0xA0 DUP8 ADD MSTORE PUSH2 0x2BCD DUP5 DUP4 PUSH2 0x2702 JUMP JUMPDEST SWAP4 POP PUSH1 0xA0 DUP8 ADD MLOAD SWAP2 POP DUP1 DUP7 DUP6 SUB ADD PUSH1 0xC0 DUP8 ADD MSTORE POP PUSH2 0x2BEB DUP4 DUP3 PUSH2 0x2702 JUMP JUMPDEST SWAP3 POP POP PUSH1 0xC0 DUP6 ADD MLOAD PUSH2 0x2C00 PUSH1 0xE0 DUP7 ADD DUP3 PUSH2 0x27B7 JUMP JUMPDEST POP PUSH1 0xE0 DUP6 ADD MLOAD PUSH2 0x100 PUSH2 0x2C15 DUP2 DUP8 ADD DUP4 PUSH2 0x27B7 JUMP JUMPDEST DUP7 ADD MLOAD SWAP1 POP PUSH2 0x2C26 DUP6 DUP4 ADD DUP3 PUSH2 0x281D JUMP JUMPDEST POP SWAP1 SWAP5 SWAP4 POP POP POP POP JUMP JUMPDEST PUSH1 0x0 PUSH1 0x20 DUP3 MSTORE PUSH2 0x21C4 PUSH1 0x20 DUP4 ADD DUP5 PUSH2 0x27BD JUMP JUMPDEST PUSH1 0x0 DUP2 DUP2 SIGNEXTEND DUP4 DUP3 SIGNEXTEND DUP3 DUP3 SLT DUP3 PUSH1 0x7F SUB DUP3 SGT DUP2 ISZERO AND ISZERO PUSH2 0x2C64 JUMPI PUSH2 0x2C64 PUSH2 0x2FB4 JUMP JUMPDEST DUP3 PUSH1 0x7F NOT SUB DUP3 SLT DUP2 AND ISZERO PUSH2 0x2C7A JUMPI PUSH2 0x2C7A PUSH2 0x2FB4 JUMP JUMPDEST POP ADD SWAP4 SWAP3 POP POP POP JUMP JUMPDEST PUSH1 0x0 PUSH2 0xFFFF DUP1 DUP4 AND DUP2 DUP6 AND DUP1 DUP4 SUB DUP3 GT ISZERO PUSH2 0x2CA0 JUMPI PUSH2 0x2CA0 PUSH2 0x2FB4 JUMP JUMPDEST ADD SWAP5 SWAP4 POP POP POP POP JUMP JUMPDEST PUSH1 0x0 PUSH8 0xFFFFFFFFFFFFFFFF DUP1 DUP4 AND DUP2 DUP6 AND DUP1 DUP4 SUB DUP3 GT ISZERO PUSH2 0x2CA0 JUMPI PUSH2 0x2CA0 PUSH2 0x2FB4 JUMP JUMPDEST PUSH1 0x0 PUSH2 0xFFFF DUP1 DUP5 AND DUP1 PUSH2 0x2CE1 JUMPI PUSH2 0x2CE1 PUSH2 0x2FCA JUMP JUMPDEST SWAP3 AND SWAP2 SWAP1 SWAP2 DIV SWAP3 SWAP2 POP POP JUMP JUMPDEST PUSH1 0x0 PUSH8 0xFFFFFFFFFFFFFFFF DUP1 DUP5 AND DUP1 PUSH2 0x2CE1 JUMPI PUSH2 0x2CE1 PUSH2 0x2FCA JUMP JUMPDEST PUSH1 0x0 DUP2 PUSH1 0x1 SIGNEXTEND DUP4 PUSH1 0x1 SIGNEXTEND PUSH2 0x7FFF DUP4 DUP3 SGT DUP5 DUP5 SGT DUP4 DUP4 DIV DUP6 GT DUP3 DUP3 AND AND ISZERO PUSH2 0x2D31 JUMPI PUSH2 0x2D31 PUSH2 0x2FB4 JUMP JUMPDEST PUSH2 0x7FFF NOT DUP7 DUP6 SLT DUP3 DUP2 AND DUP8 DUP4 SDIV DUP8 SLT AND ISZERO PUSH2 0x2D4E JUMPI PUSH2 0x2D4E PUSH2 0x2FB4 JUMP JUMPDEST DUP8 DUP8 SLT SWAP3 POP DUP6 DUP3 SDIV DUP8 SLT DUP5 DUP5 AND AND ISZERO PUSH2 0x2D69 JUMPI PUSH2 0x2D69 PUSH2 0x2FB4 JUMP JUMPDEST DUP6 DUP6 SDIV DUP8 SLT DUP2 DUP5 AND AND ISZERO PUSH2 0x2D7F JUMPI PUSH2 0x2D7F PUSH2 0x2FB4 JUMP JUMPDEST POP POP POP SWAP3 SWAP1 SWAP2 MUL SWAP6 SWAP5 POP POP POP POP POP JUMP JUMPDEST PUSH1 0x0 DUP2 PUSH1 0x7 SIGNEXTEND DUP4 PUSH1 0x7 SIGNEXTEND PUSH8 0x7FFFFFFFFFFFFFFF DUP4 DUP3 SGT DUP5 DUP5 SGT DUP4 DUP4 DIV DUP6 GT DUP3 DUP3 AND AND ISZERO PUSH2 0x2DBE JUMPI PUSH2 0x2DBE PUSH2 0x2FB4 JUMP JUMPDEST PUSH8 0x7FFFFFFFFFFFFFFF NOT DUP7 DUP6 SLT DUP3 DUP2 AND DUP8 DUP4 SDIV DUP8 SLT AND ISZERO PUSH2 0x2D4E JUMPI PUSH2 0x2D4E PUSH2 0x2FB4 JUMP JUMPDEST PUSH1 0x0 PUSH2 0xFFFF DUP1 DUP4 AND DUP2 DUP6 AND DUP2 DUP4 DIV DUP2 GT DUP3 ISZERO ISZERO AND ISZERO PUSH2 0x2E02 JUMPI PUSH2 0x2E02 PUSH2 0x2FB4 JUMP JUMPDEST MUL SWAP5 SWAP4 POP POP POP POP JUMP JUMPDEST PUSH1 0x0 PUSH4 0xFFFFFFFF DUP1 DUP4 AND DUP2 DUP6 AND DUP2 DUP4 DIV DUP2 GT DUP3 ISZERO ISZERO AND ISZERO PUSH2 0x2E02 JUMPI PUSH2 0x2E02 PUSH2 0x2FB4 JUMP JUMPDEST PUSH1 0x0 PUSH1 0xFF DUP3 AND PUSH1 0xFF DUP5 AND DUP2 PUSH1 0xFF DIV DUP2 GT DUP3 ISZERO ISZERO AND ISZERO PUSH2 0x2E4F JUMPI PUSH2 0x2E4F PUSH2 0x2FB4 JUMP JUMPDEST MUL SWAP4 SWAP3 POP POP POP JUMP JUMPDEST PUSH1 0x0 DUP2 PUSH1 0x1 SIGNEXTEND DUP4 PUSH1 0x1 SIGNEXTEND DUP3 DUP2 SLT DUP2 PUSH2 0x7FFF NOT ADD DUP4 SLT DUP2 ISZERO AND ISZERO PUSH2 0x2E7C JUMPI PUSH2 0x2E7C PUSH2 0x2FB4 JUMP JUMPDEST DUP2 PUSH2 0x7FFF ADD DUP4 SGT DUP2 AND ISZERO PUSH2 0x2E92 JUMPI PUSH2 0x2E92 PUSH2 0x2FB4 JUMP JUMPDEST POP SWAP1 SUB SWAP4 SWAP3 POP POP POP JUMP JUMPDEST PUSH1 0x0 DUP2 PUSH1 0x7 SIGNEXTEND DUP4 PUSH1 0x7 SIGNEXTEND DUP3 DUP2 SLT DUP2 PUSH8 0x7FFFFFFFFFFFFFFF NOT ADD DUP4 SLT DUP2 ISZERO AND ISZERO PUSH2 0x2EC7 JUMPI PUSH2 0x2EC7 PUSH2 0x2FB4 JUMP JUMPDEST DUP2 PUSH8 0x7FFFFFFFFFFFFFFF ADD DUP4 SGT DUP2 AND ISZERO PUSH2 0x2E92 JUMPI PUSH2 0x2E92 PUSH2 0x2FB4 JUMP JUMPDEST PUSH1 0x0 PUSH2 0xFFFF DUP4 DUP2 AND SWAP1 DUP4 AND DUP2 DUP2 LT ISZERO PUSH2 0x2EFE JUMPI PUSH2 0x2EFE PUSH2 0x2FB4 JUMP JUMPDEST SUB SWAP4 SWAP3 POP POP POP JUMP JUMPDEST PUSH1 0x0 DUP2 PUSH1 0x1 SIGNEXTEND PUSH2 0x7FFF NOT DUP2 EQ ISZERO PUSH2 0x2F1F JUMPI PUSH2 0x2F1F PUSH2 0x2FB4 JUMP JUMPDEST PUSH1 0x0 NOT ADD SWAP3 SWAP2 POP POP JUMP JUMPDEST PUSH1 0x0 PUSH2 0xFFFF DUP1 DUP4 AND DUP2 DUP2 EQ ISZERO PUSH2 0x2F41 JUMPI PUSH2 0x2F41 PUSH2 0x2FB4 JUMP JUMPDEST PUSH1 0x1 ADD SWAP4 SWAP3 POP POP POP JUMP JUMPDEST PUSH1 0x0 PUSH1 0x0 NOT DUP3 EQ ISZERO PUSH2 0x2F5F JUMPI PUSH2 0x2F5F PUSH2 0x2FB4 JUMP JUMPDEST POP PUSH1 0x1 ADD SWAP1 JUMP JUMPDEST PUSH1 0x0 PUSH4 0xFFFFFFFF DUP1 DUP4 AND DUP2 DUP2 EQ ISZERO PUSH2 0x2F41 JUMPI PUSH2 0x2F41 PUSH2 0x2FB4 JUMP JUMPDEST PUSH1 0x0 PUSH1 0xFF DUP3 AND PUSH1 0xFF DUP2 EQ ISZERO PUSH2 0x2F97 JUMPI PUSH2 0x2F97 PUSH2 0x2FB4 JUMP JUMPDEST PUSH1 0x1 ADD SWAP3 SWAP2 POP POP JUMP JUMPDEST PUSH1 0x0 DUP3 PUSH2 0x2FAF JUMPI PUSH2 0x2FAF PUSH2 0x2FCA JUMP JUMPDEST POP MOD SWAP1 JUMP JUMPDEST PUSH4 0x4E487B71 PUSH1 0xE0 SHL PUSH1 0x0 MSTORE PUSH1 0x11 PUSH1 0x4 MSTORE PUSH1 0x24 PUSH1 0x0 REVERT JUMPDEST PUSH4 0x4E487B71 PUSH1 0xE0 SHL PUSH1 0x0 MSTORE PUSH1 0x12 PUSH1 0x4 MSTORE PUSH1 0x24 PUSH1 0x0 REVERT JUMPDEST PUSH4 0x4E487B71 PUSH1 0xE0 SHL PUSH1 0x0 MSTORE PUSH1 0x41 PUSH1 0x4 MSTORE PUSH1 0x24 PUSH1 0x0 REVERT INVALID LOG2 PUSH5 0x6970667358 0x22 SLT KECCAK256 0xBC RETURNDATACOPY SELFDESTRUCT SLT CALL STATICCALL 0xC0 PUSH7 0xC9BA5EF2D2F985 RETURNDATASIZE JUMP 0xBC PUSH20 0x301870FBC232A81ABE34E29F1D64736F6C634300 ADDMOD STOP STOP CALLER "
        },
        "methodIdentifiers": {
          "addShip(uint16,uint16,uint16,uint16,uint16,uint16,uint16,uint16,uint16)": "c0d0504a",
          "attack(address,uint16[],uint16)": "3bed82bf",
          "getAllDefenders()": "7af584de",
          "getLeaderboard()": "6d763a6e",
          "getOwnDefence()": "d43b838c",
          "getShips()": "6738f234",
          "owner()": "8da5cb5b",
          "registerDefence(uint16[],uint16,bytes32)": "09d27389"
        }
      }
    }
  }
}