{
  "contracts/NewOmega.sol": {
    "NewOmega": {
      "abi": [
        {
          "anonymous": false,
          "inputs": [
            {
              "indexed": true,
              "internalType": "address",
              "name": "attacker",
              "type": "address"
            },
            {
              "indexed": true,
              "internalType": "address",
              "name": "defender",
              "type": "address"
            },
            {
              "components": [
                {
                  "internalType": "uint8[]",
                  "name": "selectionLhs",
                  "type": "uint8[]"
                },
                {
                  "internalType": "uint8[]",
                  "name": "selectionRhs",
                  "type": "uint8[]"
                },
                {
                  "internalType": "uint8",
                  "name": "commanderLhs",
                  "type": "uint8"
                },
                {
                  "internalType": "uint8",
                  "name": "commanderRhs",
                  "type": "uint8"
                },
                {
                  "components": [
                    {
                      "internalType": "uint8",
                      "name": "moveType",
                      "type": "uint8"
                    },
                    {
                      "internalType": "uint8",
                      "name": "round",
                      "type": "uint8"
                    },
                    {
                      "internalType": "uint8",
                      "name": "source",
                      "type": "uint8"
                    },
                    {
                      "internalType": "uint8",
                      "name": "target",
                      "type": "uint8"
                    },
                    {
                      "internalType": "int8",
                      "name": "targetPosition",
                      "type": "int8"
                    },
                    {
                      "internalType": "uint32",
                      "name": "damage",
                      "type": "uint32"
                    }
                  ],
                  "internalType": "struct Move[]",
                  "name": "lhs",
                  "type": "tuple[]"
                },
                {
                  "components": [
                    {
                      "internalType": "uint8",
                      "name": "moveType",
                      "type": "uint8"
                    },
                    {
                      "internalType": "uint8",
                      "name": "round",
                      "type": "uint8"
                    },
                    {
                      "internalType": "uint8",
                      "name": "source",
                      "type": "uint8"
                    },
                    {
                      "internalType": "uint8",
                      "name": "target",
                      "type": "uint8"
                    },
                    {
                      "internalType": "int8",
                      "name": "targetPosition",
                      "type": "int8"
                    },
                    {
                      "internalType": "uint32",
                      "name": "damage",
                      "type": "uint32"
                    }
                  ],
                  "internalType": "struct Move[]",
                  "name": "rhs",
                  "type": "tuple[]"
                },
                {
                  "internalType": "bool",
                  "name": "lhsDead",
                  "type": "bool"
                },
                {
                  "internalType": "bool",
                  "name": "rhsDead",
                  "type": "bool"
                },
                {
                  "internalType": "uint8",
                  "name": "rounds",
                  "type": "uint8"
                },
                {
                  "internalType": "uint256",
                  "name": "seed",
                  "type": "uint256"
                }
              ],
              "indexed": false,
              "internalType": "struct FightResult",
              "name": "result",
              "type": "tuple"
            }
          ],
          "name": "FightComplete",
          "type": "event"
        },
        {
          "inputs": [
            {
              "internalType": "uint16",
              "name": "index",
              "type": "uint16"
            },
            {
              "internalType": "uint16",
              "name": "cp",
              "type": "uint16"
            },
            {
              "internalType": "uint16",
              "name": "hp",
              "type": "uint16"
            },
            {
              "internalType": "uint16",
              "name": "attackBase",
              "type": "uint16"
            },
            {
              "internalType": "uint16",
              "name": "attackVariable",
              "type": "uint16"
            },
            {
              "internalType": "uint16",
              "name": "defence",
              "type": "uint16"
            },
            {
              "internalType": "uint16",
              "name": "speed",
              "type": "uint16"
            },
            {
              "internalType": "uint16",
              "name": "range",
              "type": "uint16"
            }
          ],
          "name": "addShip",
          "outputs": [],
          "stateMutability": "nonpayable",
          "type": "function"
        },
        {
          "inputs": [
            {
              "internalType": "address",
              "name": "enemy",
              "type": "address"
            },
            {
              "internalType": "uint8[]",
              "name": "selection",
              "type": "uint8[]"
            },
            {
              "internalType": "uint8",
              "name": "commander",
              "type": "uint8"
            }
          ],
          "name": "attack",
          "outputs": [],
          "stateMutability": "nonpayable",
          "type": "function"
        },
        {
          "inputs": [],
          "name": "getAllDefenders",
          "outputs": [
            {
              "components": [
                {
                  "internalType": "address",
                  "name": "player",
                  "type": "address"
                },
                {
                  "internalType": "bool",
                  "name": "isInitialised",
                  "type": "bool"
                },
                {
                  "internalType": "uint8[]",
                  "name": "defenceSelection",
                  "type": "uint8[]"
                },
                {
                  "internalType": "uint8",
                  "name": "commander",
                  "type": "uint8"
                },
                {
                  "internalType": "bytes32",
                  "name": "name",
                  "type": "bytes32"
                }
              ],
              "internalType": "struct PlayerDefence[]",
              "name": "",
              "type": "tuple[]"
            }
          ],
          "stateMutability": "view",
          "type": "function"
        },
        {
          "inputs": [],
          "name": "getOwnDefence",
          "outputs": [
            {
              "components": [
                {
                  "internalType": "address",
                  "name": "player",
                  "type": "address"
                },
                {
                  "internalType": "bool",
                  "name": "isInitialised",
                  "type": "bool"
                },
                {
                  "internalType": "uint8[]",
                  "name": "defenceSelection",
                  "type": "uint8[]"
                },
                {
                  "internalType": "uint8",
                  "name": "commander",
                  "type": "uint8"
                },
                {
                  "internalType": "bytes32",
                  "name": "name",
                  "type": "bytes32"
                }
              ],
              "internalType": "struct PlayerDefence",
              "name": "",
              "type": "tuple"
            }
          ],
          "stateMutability": "view",
          "type": "function"
        },
        {
          "inputs": [],
          "name": "getShips",
          "outputs": [
            {
              "components": [
                {
                  "internalType": "uint16",
                  "name": "cp",
                  "type": "uint16"
                },
                {
                  "internalType": "uint16",
                  "name": "hp",
                  "type": "uint16"
                },
                {
                  "components": [
                    {
                      "internalType": "uint16",
                      "name": "base",
                      "type": "uint16"
                    },
                    {
                      "internalType": "uint16",
                      "name": "variable",
                      "type": "uint16"
                    }
                  ],
                  "internalType": "struct ShipVariableStat",
                  "name": "attack",
                  "type": "tuple"
                },
                {
                  "internalType": "uint16",
                  "name": "defence",
                  "type": "uint16"
                },
                {
                  "internalType": "uint16",
                  "name": "speed",
                  "type": "uint16"
                },
                {
                  "internalType": "uint16",
                  "name": "range",
                  "type": "uint16"
                }
              ],
              "internalType": "struct Ship[]",
              "name": "",
              "type": "tuple[]"
            }
          ],
          "stateMutability": "view",
          "type": "function"
        },
        {
          "inputs": [],
          "name": "owner",
          "outputs": [
            {
              "internalType": "address",
              "name": "",
              "type": "address"
            }
          ],
          "stateMutability": "view",
          "type": "function"
        },
        {
          "inputs": [
            {
              "internalType": "uint8[]",
              "name": "defence",
              "type": "uint8[]"
            },
            {
              "internalType": "uint8",
              "name": "commander",
              "type": "uint8"
            },
            {
              "internalType": "bytes32",
              "name": "name",
              "type": "bytes32"
            }
          ],
          "name": "registerDefence",
          "outputs": [],
          "stateMutability": "nonpayable",
          "type": "function"
        },
        {
          "inputs": [
            {
              "internalType": "uint256",
              "name": "seed",
              "type": "uint256"
            },
            {
              "internalType": "uint8[]",
              "name": "selectionLhs",
              "type": "uint8[]"
            },
            {
              "internalType": "uint8[]",
              "name": "selectionRhs",
              "type": "uint8[]"
            },
            {
              "internalType": "uint8",
              "name": "commanderLhs",
              "type": "uint8"
            },
            {
              "internalType": "uint8",
              "name": "commanderRhs",
              "type": "uint8"
            }
          ],
          "name": "replay",
          "outputs": [
            {
              "components": [
                {
                  "internalType": "uint8[]",
                  "name": "selectionLhs",
                  "type": "uint8[]"
                },
                {
                  "internalType": "uint8[]",
                  "name": "selectionRhs",
                  "type": "uint8[]"
                },
                {
                  "internalType": "uint8",
                  "name": "commanderLhs",
                  "type": "uint8"
                },
                {
                  "internalType": "uint8",
                  "name": "commanderRhs",
                  "type": "uint8"
                },
                {
                  "components": [
                    {
                      "internalType": "uint8",
                      "name": "moveType",
                      "type": "uint8"
                    },
                    {
                      "internalType": "uint8",
                      "name": "round",
                      "type": "uint8"
                    },
                    {
                      "internalType": "uint8",
                      "name": "source",
                      "type": "uint8"
                    },
                    {
                      "internalType": "uint8",
                      "name": "target",
                      "type": "uint8"
                    },
                    {
                      "internalType": "int8",
                      "name": "targetPosition",
                      "type": "int8"
                    },
                    {
                      "internalType": "uint32",
                      "name": "damage",
                      "type": "uint32"
                    }
                  ],
                  "internalType": "struct Move[]",
                  "name": "lhs",
                  "type": "tuple[]"
                },
                {
                  "components": [
                    {
                      "internalType": "uint8",
                      "name": "moveType",
                      "type": "uint8"
                    },
                    {
                      "internalType": "uint8",
                      "name": "round",
                      "type": "uint8"
                    },
                    {
                      "internalType": "uint8",
                      "name": "source",
                      "type": "uint8"
                    },
                    {
                      "internalType": "uint8",
                      "name": "target",
                      "type": "uint8"
                    },
                    {
                      "internalType": "int8",
                      "name": "targetPosition",
                      "type": "int8"
                    },
                    {
                      "internalType": "uint32",
                      "name": "damage",
                      "type": "uint32"
                    }
                  ],
                  "internalType": "struct Move[]",
                  "name": "rhs",
                  "type": "tuple[]"
                },
                {
                  "internalType": "bool",
                  "name": "lhsDead",
                  "type": "bool"
                },
                {
                  "internalType": "bool",
                  "name": "rhsDead",
                  "type": "bool"
                },
                {
                  "internalType": "uint8",
                  "name": "rounds",
                  "type": "uint8"
                },
                {
                  "internalType": "uint256",
                  "name": "seed",
                  "type": "uint256"
                }
              ],
              "internalType": "struct FightResult",
              "name": "",
              "type": "tuple"
            }
          ],
          "stateMutability": "view",
          "type": "function"
        }
      ],
      "evm": {
        "bytecode": {
          "linkReferences": {},
          "object": "6080604052600080546001600160a01b0319163317905534801561002257600080fd5b506129e9806100326000396000f3fe608060405234801561001057600080fd5b50600436106100885760003560e01c80637af584de1161005b5780637af584de146100f35780638da5cb5b14610108578063d2eaefdb1461011d578063d43b838c1461013057610088565b80630d055a471461008d5780635afa3bf5146100b657806362a74512146100cb5780636738f234146100de575b600080fd5b6100a061009b36600461210d565b610145565b6040516100ad9190612523565b60405180910390f35b6100c96100c4366004612077565b610265565b005b6100c96100d9366004611fb9565b610544565b6100e6610746565b6040516100ad919061232d565b6100fb61082c565b6040516100ad91906122cd565b6101106109e1565b6040516100ad91906122b9565b6100c961012b366004612022565b6109f0565b610138610b48565b6040516100ad9190612612565b61014d611cfa565b84516004146101775760405162461bcd60e51b815260040161016e906123d5565b60405180910390fd5b83516004146101985760405162461bcd60e51b815260040161016e906123d5565b61025b8660016002805480602002602001604051908101604052809291908181526020016000905b8282101561024e5760008481526020908190206040805160c08101825260038602909201805461ffff808216855262010000918290048116858701528351808501855260018085015480841683528490048316828901529486015260029092015480831660608601529081048216608085015264010000000090041660a083015290835290920191016101c0565b5050505088888888610c4e565b9695505050505050565b6000546001600160a01b0316331461028f5760405162461bcd60e51b815260040161016e906124c6565b60006040518060c001604052808961ffff1681526020018861ffff16815260200160405180604001604052808961ffff1681526020018861ffff1681525081526020018561ffff1681526020018461ffff1681526020018361ffff16815250905080600160008b61ffff16815260200190815260200160002060008201518160000160006101000a81548161ffff021916908361ffff16021790555060208201518160000160026101000a81548161ffff021916908361ffff16021790555060408201518160010160008201518160000160006101000a81548161ffff021916908361ffff16021790555060208201518160000160026101000a81548161ffff021916908361ffff160217905550505060608201518160020160006101000a81548161ffff021916908361ffff16021790555060808201518160020160026101000a81548161ffff021916908361ffff16021790555060a08201518160020160046101000a81548161ffff021916908361ffff160217905550905050600281908060018154018082558091505060019003906000526020600020906003020160009091909190915060008201518160000160006101000a81548161ffff021916908361ffff16021790555060208201518160000160026101000a81548161ffff021916908361ffff16021790555060408201518160010160008201518160000160006101000a81548161ffff021916908361ffff16021790555060208201518160000160026101000a81548161ffff021916908361ffff160217905550505060608201518160020160006101000a81548161ffff021916908361ffff16021790555060808201518160020160026101000a81548161ffff021916908361ffff16021790555060a08201518160020160046101000a81548161ffff021916908361ffff1602179055505050505050505050505050565b6001600160a01b038316600090815260036020526040902054600160a01b900460ff166105835760405162461bcd60e51b815260040161016e90612432565b600062bc614e905060006106f28260006002805480602002602001604051908101604052809291908181526020016000905b828210156106435760008481526020908190206040805160c08101825260038602909201805461ffff808216855262010000918290048116858701528351808501855260018085015480841683528490048316828901529486015260029092015480831660608601529081048216608085015264010000000090041660a083015290835290920191016105b5565b505050506001600160a01b03891660009081526003602090815260409182902060010180548351818402810184019094528084528b93928301828280156106c757602002820191906000526020600020906000905b825461010083900a900460ff168152602060019283018181049485019490930390920291018084116106985790505b505050506001600160a01b038c166000908152600360205260409020600201548a915060ff16610c4e565b9050846001600160a01b0316336001600160a01b03167f1275943aed9ea3363652d9ca6a1546f6ed7e494c27258293820c31d0a36a8925836040516107379190612523565b60405180910390a35050505050565b6000546060906001600160a01b031633146107735760405162461bcd60e51b815260040161016e906124c6565b6002805480602002602001604051908101604052809291908181526020016000905b828210156108235760008481526020908190206040805160c08101825260038602909201805461ffff808216855262010000918290048116858701528351808501855260018085015480841683528490048316828901529486015260029092015480831660608601529081048216608085015264010000000090041660a08301529083529092019101610795565b50505050905090565b60045460609060009067ffffffffffffffff81111561085b57634e487b7160e01b600052604160045260246000fd5b60405190808252806020026020018201604052801561089457816020015b610881611d4d565b8152602001906001900390816108795790505b50905060005b6004548110156109db5760036000600483815481106108c957634e487b7160e01b600052603260045260246000fd5b6000918252602080832091909101546001600160a01b039081168452838201949094526040928301909120825160a08101845281549485168152600160a01b90940460ff161515848301526001810180548451818502810185018652818152929486019383018282801561097a57602002820191906000526020600020906000905b825461010083900a900460ff1681526020600192830181810494850194909303909202910180841161094b5790505b5050509183525050600282015460ff16602082015260039091015460409091015282518390839081106109bd57634e487b7160e01b600052603260045260246000fd5b602002602001018190525080806109d390612922565b91505061089a565b50905090565b6000546001600160a01b031681565b6040805160a08101825233808252600160208084019190915282840187905260ff80871660608501526080840186905260009283526003909152929020549091600160a01b90910416610a8d57600480546001810182556000919091527f8a35acfbc15ff81a39ae7d344fd709f28e8600b4aa8c65c6b64bfe7fe36bd19b01805473ffffffffffffffffffffffffffffffffffffffff1916331790555b3360009081526003602090815260409182902083518154838601511515600160a01b027fffffffffffffffffffffff00ffffffffffffffffffffffffffffffffffffffff6001600160a01b039390931673ffffffffffffffffffffffffffffffffffffffff199092169190911791909116178155918301518051849392610b1b926001850192910190611d7c565b50606082015160028201805460ff191660ff90921691909117905560809091015160039091015550505050565b610b50611d4d565b33600090815260036020526040902054600160a01b900460ff16610b865760405162461bcd60e51b815260040161016e9061248f565b33600090815260036020908152604091829020825160a08101845281546001600160a01b0381168252600160a01b900460ff1615158184015260018201805485518186028101860187528181529295939493860193830182828015610c2857602002820191906000526020600020906000905b825461010083900a900460ff16815260206001928301818104948501949093039092029101808411610bf95790505b5050509183525050600282015460ff166020820152600390910154604090910152905090565b610c56611cfa565b8451600414610c775760405162461bcd60e51b815260040161016e906123d5565b8351600414610c985760405162461bcd60e51b815260040161016e906123d5565b60408051600480825260a0820190925260009160208201608080368337019050509050600a81600081518110610cde57634e487b7160e01b600052603260045260246000fd5b602002602001019060000b908160000b81525050600b81600181518110610d1557634e487b7160e01b600052603260045260246000fd5b602002602001019060000b908160000b81525050600c81600281518110610d4c57634e487b7160e01b600052603260045260246000fd5b602002602001019060000b908160000b81525050600d81600381518110610d8357634e487b7160e01b600052603260045260246000fd5b600092830b830b602091820292909201015260408051600480825260a082019092529081602001602082028036833701905050905060091981600081518110610ddc57634e487b7160e01b600052603260045260246000fd5b602002602001019060000b908160000b81525050600a1981600181518110610e1457634e487b7160e01b600052603260045260246000fd5b602002602001019060000b908160000b81525050600b1981600281518110610e4c57634e487b7160e01b600052603260045260246000fd5b602002602001019060000b908160000b81525050600c1981600381518110610e8457634e487b7160e01b600052603260045260246000fd5b602002602001019060000b908160000b81525050610ea0611e22565b60408051600480825260a0820190925290602082016080803683375050506101c082015260408051600480825260a0820190925290602082016080803683375050506101e082015260408051600480825260a0820190925260009160208201608080368337505060408051600480825260a0820190925292935060009291506020820160808036833701905050905060005b600461ffff821610156111a0578a8161ffff1681518110610f6357634e487b7160e01b600052603260045260246000fd5b602002602001015160ff168c8261ffff1681518110610f9257634e487b7160e01b600052603260045260246000fd5b602002602001015160200151610fa89190612768565b60010b846101c001518261ffff1681518110610fd457634e487b7160e01b600052603260045260246000fd5b602002602001019060030b908160030b81525050898161ffff168151811061100c57634e487b7160e01b600052603260045260246000fd5b602002602001015160ff168c8261ffff168151811061103b57634e487b7160e01b600052603260045260246000fd5b6020026020010151602001516110519190612768565b60010b846101e001518261ffff168151811061107d57634e487b7160e01b600052603260045260246000fd5b602002602001019060030b908160030b815250508b8161ffff16815181106110b557634e487b7160e01b600052603260045260246000fd5b6020026020010151604001516020015161ffff168e6110d4919061295d565b838261ffff16815181106110f857634e487b7160e01b600052603260045260246000fd5b61ffff92831660209182029290920101528c518d91831690811061112c57634e487b7160e01b600052603260045260246000fd5b6020026020010151604001516020015161ffff1660028f61114d91906126aa565b611157919061295d565b828261ffff168151811061117b57634e487b7160e01b600052603260045260246000fd5b61ffff909216602092830291909101909101528061119881612900565b915050610f32565b508b15611290576111b3600460146127b5565b60ff1667ffffffffffffffff8111156111dc57634e487b7160e01b600052604160045260246000fd5b60405190808252806020026020018201604052801561121557816020015b611202611ea8565b8152602001906001900390816111fa5790505b506060840152611227600460146127b5565b60ff1667ffffffffffffffff81111561125057634e487b7160e01b600052604160045260246000fd5b60405190808252806020026020018201604052801561128957816020015b611276611ea8565b81526020019060019003908161126e5790505b5060808401525b600083525b8251601460ff9091161080156112b657506112b4836101c00151611895565b155b80156112cd57506112cb836101e00151611895565b155b1561180e57600060a08401525b600460ff168360a0015160ff1610156117f757600060c0840181905260e084018190526101c084015160a0850151815160ff90911690811061132c57634e487b7160e01b600052603260045260246000fd5b602090810291909101015160030b13156101808401526101e083015160a084015181516000929160ff1690811061137357634e487b7160e01b600052603260045260246000fd5b602090810291909101015160030b13156101a0840152610180830151611502576113a98b8460a001518787876101e001516118f7565b60ff1661010085015215801560c085015261145d57611407828c8560a00151866101000151876101c001518860a0015160ff16815181106113fa57634e487b7160e01b600052603260045260246000fd5b6020026020010151611a3d565b63ffffffff166101408401528b15611458576020830180516114589161142c8261293d565b60ff1660ff1681525060ff16846000015185606001518660a00151876101000151886101400151611bac565b611502565b8b1561150257602083018051611502916114768261293d565b60ff1660ff1681525060ff16846000015185606001518660a001518f8860a0015160ff16815181106114b857634e487b7160e01b600052603260045260246000fd5b6020026020010151608001518a8960a0015160ff16815181106114eb57634e487b7160e01b600052603260045260246000fd5b60200260200101516114fd9190612862565b611c26565b826101a001516116f9576115228b8460a001518688876101c001516118f7565b60ff1661012085015215801560e085015261161957611573818c8560a00151866101200151876101e001518860a0015160ff16815181106113fa57634e487b7160e01b600052603260045260246000fd5b63ffffffff1661016084018190526101c0840151610120850151815160ff9091169081106115b157634e487b7160e01b600052603260045260246000fd5b602002602001018181516115c59190612823565b600390810b900b9052508b1561161457604083018051611614916115e88261293d565b60ff1660ff1681525060ff16846000015185608001518660a00151876101200151886101600151611bac565b6116f9565b8a8360a0015160ff168151811061164057634e487b7160e01b600052603260045260246000fd5b602002602001015160800151848460a0015160ff168151811061167357634e487b7160e01b600052603260045260246000fd5b602002602001018181516116879190612625565b600090810b900b9052508b156116f9576040830180516116f9916116aa8261293d565b60ff1660ff1681525060ff16846000015185608001518660a00151888860a0015160ff16815181106116ec57634e487b7160e01b600052603260045260246000fd5b6020026020010151611c26565b8261018001516117dc578260c001511561176357826101400151836101e0015184610100015160ff168151811061174057634e487b7160e01b600052603260045260246000fd5b602002602001018181516117549190612823565b600390810b900b9052506117dc565b8a8360a0015160ff168151811061178a57634e487b7160e01b600052603260045260246000fd5b602002602001015160800151858460a0015160ff16815181106117bd57634e487b7160e01b600052603260045260246000fd5b602002602001018181516117d19190612862565b600090810b900b9052505b60a083018051906117ec8261293d565b60ff169052506112da565b8251836118038261293d565b60ff16905250611295565b6040518061014001604052808b81526020018a81526020018960ff1681526020018860ff168152602001846060015181526020018460800151815260200161185a856101c00151611895565b1515815260200161186f856101e00151611895565b15158152935160ff16602085015260409093019c909c52509a9950505050505050505050565b60006001815b60048110156118ee5760008482815181106118c657634e487b7160e01b600052603260045260246000fd5b602002602001015160030b13156118dc57600091505b806118e681612922565b91505061189b565b5090505b919050565b6000806000858760ff168151811061191f57634e487b7160e01b600052603260045260246000fd5b602002602001015160000b905060006004905060006001600461194291906128bc565b90505b60008160000b12611a275760008190508a8a60ff168151811061197857634e487b7160e01b600052603260045260246000fd5b602002602001015160a0015161ffff166119c9898360ff16815181106119ae57634e487b7160e01b600052603260045260246000fd5b602002602001015160000b866119c491906127de565b611c95565b61ffff1611158015611a0857506000878260ff16815181106119fb57634e487b7160e01b600052603260045260246000fd5b602002602001015160030b135b15611a14579150611a27565b5080611a1f816128df565b915050611945565b50600460ff821610999098509650505050505050565b600080868560ff1681518110611a6357634e487b7160e01b600052603260045260246000fd5b6020026020010151868660ff1681518110611a8e57634e487b7160e01b600052603260045260246000fd5b60200260200101516040015160000151611aa89190612665565b90506000868660ff1681518110611acf57634e487b7160e01b600052603260045260246000fd5b60200260200101516020015161ffff1684611aea91906126be565b611af590600161268b565b90506000878660ff1681518110611b1c57634e487b7160e01b600052603260045260246000fd5b60200260200101516020015182611b339190612768565b61ffff16905060008261ffff16898860ff1681518110611b6357634e487b7160e01b600052603260045260246000fd5b60200260200101516060015185611b7a9190612899565b61ffff16611b889190612792565b9050611b9e611b98600083611cbb565b83611cdf565b9a9950505050505050505050565b6040518060c00160405280600160ff1681526020018660ff1681526020018460ff1681526020018360ff1681526020016000800b81526020018263ffffffff16815250848761ffff1681518110611c1357634e487b7160e01b600052603260045260246000fd5b6020026020010181905250505050505050565b6040805160c0810182526002815260ff868116602083015284169181019190915260006060820181905282810b608083015260a08201528351849061ffff8816908110611c8357634e487b7160e01b600052603260045260246000fd5b60200260200101819052505050505050565b6000808260010b12611ca85750806118f2565b611cb4826000196126e1565b90506118f2565b60008163ffffffff168363ffffffff1611611cd65781611cd8565b825b9392505050565b60008163ffffffff168363ffffffff1610611cd65781611cd8565b604080516101408101825260608082526020820181905260009282018390528082018390526080820181905260a082015260c0810182905260e08101829052610100810182905261012081019190915290565b6040805160a0810182526000808252602082018190526060928201839052918101829052608081019190915290565b82805482825590600052602060002090601f01602090048101928215611e125791602002820160005b83821115611de357835183826101000a81548160ff021916908360ff1602179055509260200192600101602081600001049283019260010302611da5565b8015611e105782816101000a81549060ff0219169055600101602081600001049283019260010302611de3565b505b50611e1e929150611edd565b5090565b604080516102008101825260008082526020820181905291810182905260608082018190526080820181905260a0820183905260c0820183905260e08201839052610100820183905261012082018390526101408201839052610160820183905261018082018390526101a08201929092526101c081018290526101e081019190915290565b6040805160c081018252600080825260208201819052918101829052606081018290526080810182905260a081019190915290565b5b80821115611e1e5760008155600101611ede565b600082601f830112611f02578081fd5b8135602067ffffffffffffffff80831115611f1f57611f1f61299d565b818302604051601f19603f83011681018181108482111715611f4357611f4361299d565b60405284815283810192508684018288018501891015611f61578687fd5b8692505b85831015611f8a57611f7681611fa8565b845292840192600192909201918401611f65565b50979650505050505050565b803561ffff811681146118f257600080fd5b803560ff811681146118f257600080fd5b600080600060608486031215611fcd578283fd5b83356001600160a01b0381168114611fe3578384fd5b9250602084013567ffffffffffffffff811115611ffe578283fd5b61200a86828701611ef2565b92505061201960408501611fa8565b90509250925092565b600080600060608486031215612036578283fd5b833567ffffffffffffffff81111561204c578384fd5b61205886828701611ef2565b93505061206760208501611fa8565b9150604084013590509250925092565b600080600080600080600080610100898b031215612093578384fd5b61209c89611f96565b97506120aa60208a01611f96565b96506120b860408a01611f96565b95506120c660608a01611f96565b94506120d460808a01611f96565b93506120e260a08a01611f96565b92506120f060c08a01611f96565b91506120fe60e08a01611f96565b90509295985092959890939650565b600080600080600060a08688031215612124578081fd5b85359450602086013567ffffffffffffffff80821115612142578283fd5b61214e89838a01611ef2565b95506040880135915080821115612163578283fd5b5061217088828901611ef2565b93505061217f60608701611fa8565b915061218d60808701611fa8565b90509295509295909350565b6000815180845260208085019450808401835b83811015612210578151805160ff9081168952848201518116858a01526040808301518216908a015260608083015190911690890152608080820151870b9089015260a09081015163ffffffff169088015260c090960195908201906001016121ac565b509495945050505050565b6000815180845260208085019450808401835b8381101561221057815160ff168752958201959082019060010161222e565b15159052565b60006001600160a01b038251168352602082015115156020840152604082015160a0604085015261228760a085018261221b565b905060ff6060840151166060850152608083015160808501528091505092915050565b61ffff169052565b60ff169052565b6001600160a01b0391909116815260200190565b6000602080830181845280855180835260408601915060408482028701019250838701855b8281101561232057603f1988860301845261230e858351612253565b945092850192908501906001016122f2565b5092979650505050505050565b602080825282518282018190526000919060409081850190868401855b828110156123c8578151805161ffff90811686528782015181168887015286820151805182168888015288015181166060808801919091528201511660808087019190915281015160a06123a0818801836122aa565b919091015190506123b460c08601826122aa565b5060e093909301929085019060010161234a565b5091979650505050505050565b60208082526022908201527f53656c656374696f6e206e6565647320746f2068617665203420656c656d656e60408201527f7473000000000000000000000000000000000000000000000000000000000000606082015260800190565b60208082526024908201527f43616e206f6e6c792061747461636b206120726567697374657265642064656660408201527f656e636500000000000000000000000000000000000000000000000000000000606082015260800190565b60208082526016908201527f446566656e6365206e6f74207265676973746572656400000000000000000000604082015260600190565b60208082526033908201527f546869732066756e6374696f6e206973207265737472696374656420746f207460408201527f686520636f6e74726163742773206f776e657200000000000000000000000000606082015260800190565b600060208252825161014080602085015261254261016085018361221b565b91506020850151601f1980868503016040870152612560848361221b565b93506040870151915061257660608701836122b2565b6060870151915061258a60808701836122b2565b60808701519150808685030160a08701526125a58483612199565b935060a08701519150808685030160c0870152506125c38382612199565b92505060c08501516125d860e086018261224d565b5060e08501516101006125ed8187018361224d565b8601519050610120612601868201836122b2565b959095015193019290925250919050565b600060208252611cd86020830184612253565b600081810b83820b82821282607f0382138115161561264657612646612971565b82607f1903821281161561265c5761265c612971565b50019392505050565b600061ffff80831681851680830382111561268257612682612971565b01949350505050565b600063ffffffff80831681851680830382111561268257612682612971565b6000826126b9576126b9612987565b500490565b600063ffffffff808416806126d5576126d5612987565b92169190910492915050565b60008160010b8360010b617fff8382138484138383048511828216161561270a5761270a612971565b617fff198685128281168783058712161561272757612727612971565b87871292508582058712848416161561274257612742612971565b8585058712818416161561275857612758612971565b5050509290910295945050505050565b600061ffff8083168185168183048111821515161561278957612789612971565b02949350505050565b600063ffffffff8083168185168183048111821515161561278957612789612971565b600060ff821660ff84168160ff04811182151516156127d6576127d6612971565b029392505050565b60008160010b8360010b82811281617fff190183128115161561280357612803612971565b81617fff01831381161561281957612819612971565b5090039392505050565b60008160030b8360030b82811281637fffffff190183128115161561284a5761284a612971565b81637fffffff01831381161561281957612819612971565b600081810b83820b8281128015607f1983018412161561288457612884612971565b81607f01831381161561281957612819612971565b600061ffff838116908316818110156128b4576128b4612971565b039392505050565b600060ff821660ff8416808210156128d6576128d6612971565b90039392505050565b600081810b607f198114156128f6576128f6612971565b6000190192915050565b600061ffff8083168181141561291857612918612971565b6001019392505050565b600060001982141561293657612936612971565b5060010190565b600060ff821660ff81141561295457612954612971565b60010192915050565b60008261296c5761296c612987565b500690565b634e487b7160e01b600052601160045260246000fd5b634e487b7160e01b600052601260045260246000fd5b634e487b7160e01b600052604160045260246000fdfea26469706673582212206b8e665a301a67e60b6724dff4bf93db484dd02903384606a2c906d33c4e12dd64736f6c63430008010033",
          "opcodes": "PUSH1 0x80 PUSH1 0x40 MSTORE PUSH1 0x0 DUP1 SLOAD PUSH1 0x1 PUSH1 0x1 PUSH1 0xA0 SHL SUB NOT AND CALLER OR SWAP1 SSTORE CALLVALUE DUP1 ISZERO PUSH2 0x22 JUMPI PUSH1 0x0 DUP1 REVERT JUMPDEST POP PUSH2 0x29E9 DUP1 PUSH2 0x32 PUSH1 0x0 CODECOPY PUSH1 0x0 RETURN INVALID PUSH1 0x80 PUSH1 0x40 MSTORE CALLVALUE DUP1 ISZERO PUSH2 0x10 JUMPI PUSH1 0x0 DUP1 REVERT JUMPDEST POP PUSH1 0x4 CALLDATASIZE LT PUSH2 0x88 JUMPI PUSH1 0x0 CALLDATALOAD PUSH1 0xE0 SHR DUP1 PUSH4 0x7AF584DE GT PUSH2 0x5B JUMPI DUP1 PUSH4 0x7AF584DE EQ PUSH2 0xF3 JUMPI DUP1 PUSH4 0x8DA5CB5B EQ PUSH2 0x108 JUMPI DUP1 PUSH4 0xD2EAEFDB EQ PUSH2 0x11D JUMPI DUP1 PUSH4 0xD43B838C EQ PUSH2 0x130 JUMPI PUSH2 0x88 JUMP JUMPDEST DUP1 PUSH4 0xD055A47 EQ PUSH2 0x8D JUMPI DUP1 PUSH4 0x5AFA3BF5 EQ PUSH2 0xB6 JUMPI DUP1 PUSH4 0x62A74512 EQ PUSH2 0xCB JUMPI DUP1 PUSH4 0x6738F234 EQ PUSH2 0xDE JUMPI JUMPDEST PUSH1 0x0 DUP1 REVERT JUMPDEST PUSH2 0xA0 PUSH2 0x9B CALLDATASIZE PUSH1 0x4 PUSH2 0x210D JUMP JUMPDEST PUSH2 0x145 JUMP JUMPDEST PUSH1 0x40 MLOAD PUSH2 0xAD SWAP2 SWAP1 PUSH2 0x2523 JUMP JUMPDEST PUSH1 0x40 MLOAD DUP1 SWAP2 SUB SWAP1 RETURN JUMPDEST PUSH2 0xC9 PUSH2 0xC4 CALLDATASIZE PUSH1 0x4 PUSH2 0x2077 JUMP JUMPDEST PUSH2 0x265 JUMP JUMPDEST STOP JUMPDEST PUSH2 0xC9 PUSH2 0xD9 CALLDATASIZE PUSH1 0x4 PUSH2 0x1FB9 JUMP JUMPDEST PUSH2 0x544 JUMP JUMPDEST PUSH2 0xE6 PUSH2 0x746 JUMP JUMPDEST PUSH1 0x40 MLOAD PUSH2 0xAD SWAP2 SWAP1 PUSH2 0x232D JUMP JUMPDEST PUSH2 0xFB PUSH2 0x82C JUMP JUMPDEST PUSH1 0x40 MLOAD PUSH2 0xAD SWAP2 SWAP1 PUSH2 0x22CD JUMP JUMPDEST PUSH2 0x110 PUSH2 0x9E1 JUMP JUMPDEST PUSH1 0x40 MLOAD PUSH2 0xAD SWAP2 SWAP1 PUSH2 0x22B9 JUMP JUMPDEST PUSH2 0xC9 PUSH2 0x12B CALLDATASIZE PUSH1 0x4 PUSH2 0x2022 JUMP JUMPDEST PUSH2 0x9F0 JUMP JUMPDEST PUSH2 0x138 PUSH2 0xB48 JUMP JUMPDEST PUSH1 0x40 MLOAD PUSH2 0xAD SWAP2 SWAP1 PUSH2 0x2612 JUMP JUMPDEST PUSH2 0x14D PUSH2 0x1CFA JUMP JUMPDEST DUP5 MLOAD PUSH1 0x4 EQ PUSH2 0x177 JUMPI PUSH1 0x40 MLOAD PUSH3 0x461BCD PUSH1 0xE5 SHL DUP2 MSTORE PUSH1 0x4 ADD PUSH2 0x16E SWAP1 PUSH2 0x23D5 JUMP JUMPDEST PUSH1 0x40 MLOAD DUP1 SWAP2 SUB SWAP1 REVERT JUMPDEST DUP4 MLOAD PUSH1 0x4 EQ PUSH2 0x198 JUMPI PUSH1 0x40 MLOAD PUSH3 0x461BCD PUSH1 0xE5 SHL DUP2 MSTORE PUSH1 0x4 ADD PUSH2 0x16E SWAP1 PUSH2 0x23D5 JUMP JUMPDEST PUSH2 0x25B DUP7 PUSH1 0x1 PUSH1 0x2 DUP1 SLOAD DUP1 PUSH1 0x20 MUL PUSH1 0x20 ADD PUSH1 0x40 MLOAD SWAP1 DUP2 ADD PUSH1 0x40 MSTORE DUP1 SWAP3 SWAP2 SWAP1 DUP2 DUP2 MSTORE PUSH1 0x20 ADD PUSH1 0x0 SWAP1 JUMPDEST DUP3 DUP3 LT ISZERO PUSH2 0x24E JUMPI PUSH1 0x0 DUP5 DUP2 MSTORE PUSH1 0x20 SWAP1 DUP2 SWAP1 KECCAK256 PUSH1 0x40 DUP1 MLOAD PUSH1 0xC0 DUP2 ADD DUP3 MSTORE PUSH1 0x3 DUP7 MUL SWAP1 SWAP3 ADD DUP1 SLOAD PUSH2 0xFFFF DUP1 DUP3 AND DUP6 MSTORE PUSH3 0x10000 SWAP2 DUP3 SWAP1 DIV DUP2 AND DUP6 DUP8 ADD MSTORE DUP4 MLOAD DUP1 DUP6 ADD DUP6 MSTORE PUSH1 0x1 DUP1 DUP6 ADD SLOAD DUP1 DUP5 AND DUP4 MSTORE DUP5 SWAP1 DIV DUP4 AND DUP3 DUP10 ADD MSTORE SWAP5 DUP7 ADD MSTORE PUSH1 0x2 SWAP1 SWAP3 ADD SLOAD DUP1 DUP4 AND PUSH1 0x60 DUP7 ADD MSTORE SWAP1 DUP2 DIV DUP3 AND PUSH1 0x80 DUP6 ADD MSTORE PUSH5 0x100000000 SWAP1 DIV AND PUSH1 0xA0 DUP4 ADD MSTORE SWAP1 DUP4 MSTORE SWAP1 SWAP3 ADD SWAP2 ADD PUSH2 0x1C0 JUMP JUMPDEST POP POP POP POP DUP9 DUP9 DUP9 DUP9 PUSH2 0xC4E JUMP JUMPDEST SWAP7 SWAP6 POP POP POP POP POP POP JUMP JUMPDEST PUSH1 0x0 SLOAD PUSH1 0x1 PUSH1 0x1 PUSH1 0xA0 SHL SUB AND CALLER EQ PUSH2 0x28F JUMPI PUSH1 0x40 MLOAD PUSH3 0x461BCD PUSH1 0xE5 SHL DUP2 MSTORE PUSH1 0x4 ADD PUSH2 0x16E SWAP1 PUSH2 0x24C6 JUMP JUMPDEST PUSH1 0x0 PUSH1 0x40 MLOAD DUP1 PUSH1 0xC0 ADD PUSH1 0x40 MSTORE DUP1 DUP10 PUSH2 0xFFFF AND DUP2 MSTORE PUSH1 0x20 ADD DUP9 PUSH2 0xFFFF AND DUP2 MSTORE PUSH1 0x20 ADD PUSH1 0x40 MLOAD DUP1 PUSH1 0x40 ADD PUSH1 0x40 MSTORE DUP1 DUP10 PUSH2 0xFFFF AND DUP2 MSTORE PUSH1 0x20 ADD DUP9 PUSH2 0xFFFF AND DUP2 MSTORE POP DUP2 MSTORE PUSH1 0x20 ADD DUP6 PUSH2 0xFFFF AND DUP2 MSTORE PUSH1 0x20 ADD DUP5 PUSH2 0xFFFF AND DUP2 MSTORE PUSH1 0x20 ADD DUP4 PUSH2 0xFFFF AND DUP2 MSTORE POP SWAP1 POP DUP1 PUSH1 0x1 PUSH1 0x0 DUP12 PUSH2 0xFFFF AND DUP2 MSTORE PUSH1 0x20 ADD SWAP1 DUP2 MSTORE PUSH1 0x20 ADD PUSH1 0x0 KECCAK256 PUSH1 0x0 DUP3 ADD MLOAD DUP2 PUSH1 0x0 ADD PUSH1 0x0 PUSH2 0x100 EXP DUP2 SLOAD DUP2 PUSH2 0xFFFF MUL NOT AND SWAP1 DUP4 PUSH2 0xFFFF AND MUL OR SWAP1 SSTORE POP PUSH1 0x20 DUP3 ADD MLOAD DUP2 PUSH1 0x0 ADD PUSH1 0x2 PUSH2 0x100 EXP DUP2 SLOAD DUP2 PUSH2 0xFFFF MUL NOT AND SWAP1 DUP4 PUSH2 0xFFFF AND MUL OR SWAP1 SSTORE POP PUSH1 0x40 DUP3 ADD MLOAD DUP2 PUSH1 0x1 ADD PUSH1 0x0 DUP3 ADD MLOAD DUP2 PUSH1 0x0 ADD PUSH1 0x0 PUSH2 0x100 EXP DUP2 SLOAD DUP2 PUSH2 0xFFFF MUL NOT AND SWAP1 DUP4 PUSH2 0xFFFF AND MUL OR SWAP1 SSTORE POP PUSH1 0x20 DUP3 ADD MLOAD DUP2 PUSH1 0x0 ADD PUSH1 0x2 PUSH2 0x100 EXP DUP2 SLOAD DUP2 PUSH2 0xFFFF MUL NOT AND SWAP1 DUP4 PUSH2 0xFFFF AND MUL OR SWAP1 SSTORE POP POP POP PUSH1 0x60 DUP3 ADD MLOAD DUP2 PUSH1 0x2 ADD PUSH1 0x0 PUSH2 0x100 EXP DUP2 SLOAD DUP2 PUSH2 0xFFFF MUL NOT AND SWAP1 DUP4 PUSH2 0xFFFF AND MUL OR SWAP1 SSTORE POP PUSH1 0x80 DUP3 ADD MLOAD DUP2 PUSH1 0x2 ADD PUSH1 0x2 PUSH2 0x100 EXP DUP2 SLOAD DUP2 PUSH2 0xFFFF MUL NOT AND SWAP1 DUP4 PUSH2 0xFFFF AND MUL OR SWAP1 SSTORE POP PUSH1 0xA0 DUP3 ADD MLOAD DUP2 PUSH1 0x2 ADD PUSH1 0x4 PUSH2 0x100 EXP DUP2 SLOAD DUP2 PUSH2 0xFFFF MUL NOT AND SWAP1 DUP4 PUSH2 0xFFFF AND MUL OR SWAP1 SSTORE POP SWAP1 POP POP PUSH1 0x2 DUP2 SWAP1 DUP1 PUSH1 0x1 DUP2 SLOAD ADD DUP1 DUP3 SSTORE DUP1 SWAP2 POP POP PUSH1 0x1 SWAP1 SUB SWAP1 PUSH1 0x0 MSTORE PUSH1 0x20 PUSH1 0x0 KECCAK256 SWAP1 PUSH1 0x3 MUL ADD PUSH1 0x0 SWAP1 SWAP2 SWAP1 SWAP2 SWAP1 SWAP2 POP PUSH1 0x0 DUP3 ADD MLOAD DUP2 PUSH1 0x0 ADD PUSH1 0x0 PUSH2 0x100 EXP DUP2 SLOAD DUP2 PUSH2 0xFFFF MUL NOT AND SWAP1 DUP4 PUSH2 0xFFFF AND MUL OR SWAP1 SSTORE POP PUSH1 0x20 DUP3 ADD MLOAD DUP2 PUSH1 0x0 ADD PUSH1 0x2 PUSH2 0x100 EXP DUP2 SLOAD DUP2 PUSH2 0xFFFF MUL NOT AND SWAP1 DUP4 PUSH2 0xFFFF AND MUL OR SWAP1 SSTORE POP PUSH1 0x40 DUP3 ADD MLOAD DUP2 PUSH1 0x1 ADD PUSH1 0x0 DUP3 ADD MLOAD DUP2 PUSH1 0x0 ADD PUSH1 0x0 PUSH2 0x100 EXP DUP2 SLOAD DUP2 PUSH2 0xFFFF MUL NOT AND SWAP1 DUP4 PUSH2 0xFFFF AND MUL OR SWAP1 SSTORE POP PUSH1 0x20 DUP3 ADD MLOAD DUP2 PUSH1 0x0 ADD PUSH1 0x2 PUSH2 0x100 EXP DUP2 SLOAD DUP2 PUSH2 0xFFFF MUL NOT AND SWAP1 DUP4 PUSH2 0xFFFF AND MUL OR SWAP1 SSTORE POP POP POP PUSH1 0x60 DUP3 ADD MLOAD DUP2 PUSH1 0x2 ADD PUSH1 0x0 PUSH2 0x100 EXP DUP2 SLOAD DUP2 PUSH2 0xFFFF MUL NOT AND SWAP1 DUP4 PUSH2 0xFFFF AND MUL OR SWAP1 SSTORE POP PUSH1 0x80 DUP3 ADD MLOAD DUP2 PUSH1 0x2 ADD PUSH1 0x2 PUSH2 0x100 EXP DUP2 SLOAD DUP2 PUSH2 0xFFFF MUL NOT AND SWAP1 DUP4 PUSH2 0xFFFF AND MUL OR SWAP1 SSTORE POP PUSH1 0xA0 DUP3 ADD MLOAD DUP2 PUSH1 0x2 ADD PUSH1 0x4 PUSH2 0x100 EXP DUP2 SLOAD DUP2 PUSH2 0xFFFF MUL NOT AND SWAP1 DUP4 PUSH2 0xFFFF AND MUL OR SWAP1 SSTORE POP POP POP POP POP POP POP POP POP POP POP POP JUMP JUMPDEST PUSH1 0x1 PUSH1 0x1 PUSH1 0xA0 SHL SUB DUP4 AND PUSH1 0x0 SWAP1 DUP2 MSTORE PUSH1 0x3 PUSH1 0x20 MSTORE PUSH1 0x40 SWAP1 KECCAK256 SLOAD PUSH1 0x1 PUSH1 0xA0 SHL SWAP1 DIV PUSH1 0xFF AND PUSH2 0x583 JUMPI PUSH1 0x40 MLOAD PUSH3 0x461BCD PUSH1 0xE5 SHL DUP2 MSTORE PUSH1 0x4 ADD PUSH2 0x16E SWAP1 PUSH2 0x2432 JUMP JUMPDEST PUSH1 0x0 PUSH3 0xBC614E SWAP1 POP PUSH1 0x0 PUSH2 0x6F2 DUP3 PUSH1 0x0 PUSH1 0x2 DUP1 SLOAD DUP1 PUSH1 0x20 MUL PUSH1 0x20 ADD PUSH1 0x40 MLOAD SWAP1 DUP2 ADD PUSH1 0x40 MSTORE DUP1 SWAP3 SWAP2 SWAP1 DUP2 DUP2 MSTORE PUSH1 0x20 ADD PUSH1 0x0 SWAP1 JUMPDEST DUP3 DUP3 LT ISZERO PUSH2 0x643 JUMPI PUSH1 0x0 DUP5 DUP2 MSTORE PUSH1 0x20 SWAP1 DUP2 SWAP1 KECCAK256 PUSH1 0x40 DUP1 MLOAD PUSH1 0xC0 DUP2 ADD DUP3 MSTORE PUSH1 0x3 DUP7 MUL SWAP1 SWAP3 ADD DUP1 SLOAD PUSH2 0xFFFF DUP1 DUP3 AND DUP6 MSTORE PUSH3 0x10000 SWAP2 DUP3 SWAP1 DIV DUP2 AND DUP6 DUP8 ADD MSTORE DUP4 MLOAD DUP1 DUP6 ADD DUP6 MSTORE PUSH1 0x1 DUP1 DUP6 ADD SLOAD DUP1 DUP5 AND DUP4 MSTORE DUP5 SWAP1 DIV DUP4 AND DUP3 DUP10 ADD MSTORE SWAP5 DUP7 ADD MSTORE PUSH1 0x2 SWAP1 SWAP3 ADD SLOAD DUP1 DUP4 AND PUSH1 0x60 DUP7 ADD MSTORE SWAP1 DUP2 DIV DUP3 AND PUSH1 0x80 DUP6 ADD MSTORE PUSH5 0x100000000 SWAP1 DIV AND PUSH1 0xA0 DUP4 ADD MSTORE SWAP1 DUP4 MSTORE SWAP1 SWAP3 ADD SWAP2 ADD PUSH2 0x5B5 JUMP JUMPDEST POP POP POP POP PUSH1 0x1 PUSH1 0x1 PUSH1 0xA0 SHL SUB DUP10 AND PUSH1 0x0 SWAP1 DUP2 MSTORE PUSH1 0x3 PUSH1 0x20 SWAP1 DUP2 MSTORE PUSH1 0x40 SWAP2 DUP3 SWAP1 KECCAK256 PUSH1 0x1 ADD DUP1 SLOAD DUP4 MLOAD DUP2 DUP5 MUL DUP2 ADD DUP5 ADD SWAP1 SWAP5 MSTORE DUP1 DUP5 MSTORE DUP12 SWAP4 SWAP3 DUP4 ADD DUP3 DUP3 DUP1 ISZERO PUSH2 0x6C7 JUMPI PUSH1 0x20 MUL DUP3 ADD SWAP2 SWAP1 PUSH1 0x0 MSTORE PUSH1 0x20 PUSH1 0x0 KECCAK256 SWAP1 PUSH1 0x0 SWAP1 JUMPDEST DUP3 SLOAD PUSH2 0x100 DUP4 SWAP1 EXP SWAP1 DIV PUSH1 0xFF AND DUP2 MSTORE PUSH1 0x20 PUSH1 0x1 SWAP3 DUP4 ADD DUP2 DUP2 DIV SWAP5 DUP6 ADD SWAP5 SWAP1 SWAP4 SUB SWAP1 SWAP3 MUL SWAP2 ADD DUP1 DUP5 GT PUSH2 0x698 JUMPI SWAP1 POP JUMPDEST POP POP POP POP PUSH1 0x1 PUSH1 0x1 PUSH1 0xA0 SHL SUB DUP13 AND PUSH1 0x0 SWAP1 DUP2 MSTORE PUSH1 0x3 PUSH1 0x20 MSTORE PUSH1 0x40 SWAP1 KECCAK256 PUSH1 0x2 ADD SLOAD DUP11 SWAP2 POP PUSH1 0xFF AND PUSH2 0xC4E JUMP JUMPDEST SWAP1 POP DUP5 PUSH1 0x1 PUSH1 0x1 PUSH1 0xA0 SHL SUB AND CALLER PUSH1 0x1 PUSH1 0x1 PUSH1 0xA0 SHL SUB AND PUSH32 0x1275943AED9EA3363652D9CA6A1546F6ED7E494C27258293820C31D0A36A8925 DUP4 PUSH1 0x40 MLOAD PUSH2 0x737 SWAP2 SWAP1 PUSH2 0x2523 JUMP JUMPDEST PUSH1 0x40 MLOAD DUP1 SWAP2 SUB SWAP1 LOG3 POP POP POP POP POP JUMP JUMPDEST PUSH1 0x0 SLOAD PUSH1 0x60 SWAP1 PUSH1 0x1 PUSH1 0x1 PUSH1 0xA0 SHL SUB AND CALLER EQ PUSH2 0x773 JUMPI PUSH1 0x40 MLOAD PUSH3 0x461BCD PUSH1 0xE5 SHL DUP2 MSTORE PUSH1 0x4 ADD PUSH2 0x16E SWAP1 PUSH2 0x24C6 JUMP JUMPDEST PUSH1 0x2 DUP1 SLOAD DUP1 PUSH1 0x20 MUL PUSH1 0x20 ADD PUSH1 0x40 MLOAD SWAP1 DUP2 ADD PUSH1 0x40 MSTORE DUP1 SWAP3 SWAP2 SWAP1 DUP2 DUP2 MSTORE PUSH1 0x20 ADD PUSH1 0x0 SWAP1 JUMPDEST DUP3 DUP3 LT ISZERO PUSH2 0x823 JUMPI PUSH1 0x0 DUP5 DUP2 MSTORE PUSH1 0x20 SWAP1 DUP2 SWAP1 KECCAK256 PUSH1 0x40 DUP1 MLOAD PUSH1 0xC0 DUP2 ADD DUP3 MSTORE PUSH1 0x3 DUP7 MUL SWAP1 SWAP3 ADD DUP1 SLOAD PUSH2 0xFFFF DUP1 DUP3 AND DUP6 MSTORE PUSH3 0x10000 SWAP2 DUP3 SWAP1 DIV DUP2 AND DUP6 DUP8 ADD MSTORE DUP4 MLOAD DUP1 DUP6 ADD DUP6 MSTORE PUSH1 0x1 DUP1 DUP6 ADD SLOAD DUP1 DUP5 AND DUP4 MSTORE DUP5 SWAP1 DIV DUP4 AND DUP3 DUP10 ADD MSTORE SWAP5 DUP7 ADD MSTORE PUSH1 0x2 SWAP1 SWAP3 ADD SLOAD DUP1 DUP4 AND PUSH1 0x60 DUP7 ADD MSTORE SWAP1 DUP2 DIV DUP3 AND PUSH1 0x80 DUP6 ADD MSTORE PUSH5 0x100000000 SWAP1 DIV AND PUSH1 0xA0 DUP4 ADD MSTORE SWAP1 DUP4 MSTORE SWAP1 SWAP3 ADD SWAP2 ADD PUSH2 0x795 JUMP JUMPDEST POP POP POP POP SWAP1 POP SWAP1 JUMP JUMPDEST PUSH1 0x4 SLOAD PUSH1 0x60 SWAP1 PUSH1 0x0 SWAP1 PUSH8 0xFFFFFFFFFFFFFFFF DUP2 GT ISZERO PUSH2 0x85B JUMPI PUSH4 0x4E487B71 PUSH1 0xE0 SHL PUSH1 0x0 MSTORE PUSH1 0x41 PUSH1 0x4 MSTORE PUSH1 0x24 PUSH1 0x0 REVERT JUMPDEST PUSH1 0x40 MLOAD SWAP1 DUP1 DUP3 MSTORE DUP1 PUSH1 0x20 MUL PUSH1 0x20 ADD DUP3 ADD PUSH1 0x40 MSTORE DUP1 ISZERO PUSH2 0x894 JUMPI DUP2 PUSH1 0x20 ADD JUMPDEST PUSH2 0x881 PUSH2 0x1D4D JUMP JUMPDEST DUP2 MSTORE PUSH1 0x20 ADD SWAP1 PUSH1 0x1 SWAP1 SUB SWAP1 DUP2 PUSH2 0x879 JUMPI SWAP1 POP JUMPDEST POP SWAP1 POP PUSH1 0x0 JUMPDEST PUSH1 0x4 SLOAD DUP2 LT ISZERO PUSH2 0x9DB JUMPI PUSH1 0x3 PUSH1 0x0 PUSH1 0x4 DUP4 DUP2 SLOAD DUP2 LT PUSH2 0x8C9 JUMPI PUSH4 0x4E487B71 PUSH1 0xE0 SHL PUSH1 0x0 MSTORE PUSH1 0x32 PUSH1 0x4 MSTORE PUSH1 0x24 PUSH1 0x0 REVERT JUMPDEST PUSH1 0x0 SWAP2 DUP3 MSTORE PUSH1 0x20 DUP1 DUP4 KECCAK256 SWAP2 SWAP1 SWAP2 ADD SLOAD PUSH1 0x1 PUSH1 0x1 PUSH1 0xA0 SHL SUB SWAP1 DUP2 AND DUP5 MSTORE DUP4 DUP3 ADD SWAP5 SWAP1 SWAP5 MSTORE PUSH1 0x40 SWAP3 DUP4 ADD SWAP1 SWAP2 KECCAK256 DUP3 MLOAD PUSH1 0xA0 DUP2 ADD DUP5 MSTORE DUP2 SLOAD SWAP5 DUP6 AND DUP2 MSTORE PUSH1 0x1 PUSH1 0xA0 SHL SWAP1 SWAP5 DIV PUSH1 0xFF AND ISZERO ISZERO DUP5 DUP4 ADD MSTORE PUSH1 0x1 DUP2 ADD DUP1 SLOAD DUP5 MLOAD DUP2 DUP6 MUL DUP2 ADD DUP6 ADD DUP7 MSTORE DUP2 DUP2 MSTORE SWAP3 SWAP5 DUP7 ADD SWAP4 DUP4 ADD DUP3 DUP3 DUP1 ISZERO PUSH2 0x97A JUMPI PUSH1 0x20 MUL DUP3 ADD SWAP2 SWAP1 PUSH1 0x0 MSTORE PUSH1 0x20 PUSH1 0x0 KECCAK256 SWAP1 PUSH1 0x0 SWAP1 JUMPDEST DUP3 SLOAD PUSH2 0x100 DUP4 SWAP1 EXP SWAP1 DIV PUSH1 0xFF AND DUP2 MSTORE PUSH1 0x20 PUSH1 0x1 SWAP3 DUP4 ADD DUP2 DUP2 DIV SWAP5 DUP6 ADD SWAP5 SWAP1 SWAP4 SUB SWAP1 SWAP3 MUL SWAP2 ADD DUP1 DUP5 GT PUSH2 0x94B JUMPI SWAP1 POP JUMPDEST POP POP POP SWAP2 DUP4 MSTORE POP POP PUSH1 0x2 DUP3 ADD SLOAD PUSH1 0xFF AND PUSH1 0x20 DUP3 ADD MSTORE PUSH1 0x3 SWAP1 SWAP2 ADD SLOAD PUSH1 0x40 SWAP1 SWAP2 ADD MSTORE DUP3 MLOAD DUP4 SWAP1 DUP4 SWAP1 DUP2 LT PUSH2 0x9BD JUMPI PUSH4 0x4E487B71 PUSH1 0xE0 SHL PUSH1 0x0 MSTORE PUSH1 0x32 PUSH1 0x4 MSTORE PUSH1 0x24 PUSH1 0x0 REVERT JUMPDEST PUSH1 0x20 MUL PUSH1 0x20 ADD ADD DUP2 SWAP1 MSTORE POP DUP1 DUP1 PUSH2 0x9D3 SWAP1 PUSH2 0x2922 JUMP JUMPDEST SWAP2 POP POP PUSH2 0x89A JUMP JUMPDEST POP SWAP1 POP SWAP1 JUMP JUMPDEST PUSH1 0x0 SLOAD PUSH1 0x1 PUSH1 0x1 PUSH1 0xA0 SHL SUB AND DUP2 JUMP JUMPDEST PUSH1 0x40 DUP1 MLOAD PUSH1 0xA0 DUP2 ADD DUP3 MSTORE CALLER DUP1 DUP3 MSTORE PUSH1 0x1 PUSH1 0x20 DUP1 DUP5 ADD SWAP2 SWAP1 SWAP2 MSTORE DUP3 DUP5 ADD DUP8 SWAP1 MSTORE PUSH1 0xFF DUP1 DUP8 AND PUSH1 0x60 DUP6 ADD MSTORE PUSH1 0x80 DUP5 ADD DUP7 SWAP1 MSTORE PUSH1 0x0 SWAP3 DUP4 MSTORE PUSH1 0x3 SWAP1 SWAP2 MSTORE SWAP3 SWAP1 KECCAK256 SLOAD SWAP1 SWAP2 PUSH1 0x1 PUSH1 0xA0 SHL SWAP1 SWAP2 DIV AND PUSH2 0xA8D JUMPI PUSH1 0x4 DUP1 SLOAD PUSH1 0x1 DUP2 ADD DUP3 SSTORE PUSH1 0x0 SWAP2 SWAP1 SWAP2 MSTORE PUSH32 0x8A35ACFBC15FF81A39AE7D344FD709F28E8600B4AA8C65C6B64BFE7FE36BD19B ADD DUP1 SLOAD PUSH20 0xFFFFFFFFFFFFFFFFFFFFFFFFFFFFFFFFFFFFFFFF NOT AND CALLER OR SWAP1 SSTORE JUMPDEST CALLER PUSH1 0x0 SWAP1 DUP2 MSTORE PUSH1 0x3 PUSH1 0x20 SWAP1 DUP2 MSTORE PUSH1 0x40 SWAP2 DUP3 SWAP1 KECCAK256 DUP4 MLOAD DUP2 SLOAD DUP4 DUP7 ADD MLOAD ISZERO ISZERO PUSH1 0x1 PUSH1 0xA0 SHL MUL PUSH32 0xFFFFFFFFFFFFFFFFFFFFFF00FFFFFFFFFFFFFFFFFFFFFFFFFFFFFFFFFFFFFFFF PUSH1 0x1 PUSH1 0x1 PUSH1 0xA0 SHL SUB SWAP4 SWAP1 SWAP4 AND PUSH20 0xFFFFFFFFFFFFFFFFFFFFFFFFFFFFFFFFFFFFFFFF NOT SWAP1 SWAP3 AND SWAP2 SWAP1 SWAP2 OR SWAP2 SWAP1 SWAP2 AND OR DUP2 SSTORE SWAP2 DUP4 ADD MLOAD DUP1 MLOAD DUP5 SWAP4 SWAP3 PUSH2 0xB1B SWAP3 PUSH1 0x1 DUP6 ADD SWAP3 SWAP2 ADD SWAP1 PUSH2 0x1D7C JUMP JUMPDEST POP PUSH1 0x60 DUP3 ADD MLOAD PUSH1 0x2 DUP3 ADD DUP1 SLOAD PUSH1 0xFF NOT AND PUSH1 0xFF SWAP1 SWAP3 AND SWAP2 SWAP1 SWAP2 OR SWAP1 SSTORE PUSH1 0x80 SWAP1 SWAP2 ADD MLOAD PUSH1 0x3 SWAP1 SWAP2 ADD SSTORE POP POP POP POP JUMP JUMPDEST PUSH2 0xB50 PUSH2 0x1D4D JUMP JUMPDEST CALLER PUSH1 0x0 SWAP1 DUP2 MSTORE PUSH1 0x3 PUSH1 0x20 MSTORE PUSH1 0x40 SWAP1 KECCAK256 SLOAD PUSH1 0x1 PUSH1 0xA0 SHL SWAP1 DIV PUSH1 0xFF AND PUSH2 0xB86 JUMPI PUSH1 0x40 MLOAD PUSH3 0x461BCD PUSH1 0xE5 SHL DUP2 MSTORE PUSH1 0x4 ADD PUSH2 0x16E SWAP1 PUSH2 0x248F JUMP JUMPDEST CALLER PUSH1 0x0 SWAP1 DUP2 MSTORE PUSH1 0x3 PUSH1 0x20 SWAP1 DUP2 MSTORE PUSH1 0x40 SWAP2 DUP3 SWAP1 KECCAK256 DUP3 MLOAD PUSH1 0xA0 DUP2 ADD DUP5 MSTORE DUP2 SLOAD PUSH1 0x1 PUSH1 0x1 PUSH1 0xA0 SHL SUB DUP2 AND DUP3 MSTORE PUSH1 0x1 PUSH1 0xA0 SHL SWAP1 DIV PUSH1 0xFF AND ISZERO ISZERO DUP2 DUP5 ADD MSTORE PUSH1 0x1 DUP3 ADD DUP1 SLOAD DUP6 MLOAD DUP2 DUP7 MUL DUP2 ADD DUP7 ADD DUP8 MSTORE DUP2 DUP2 MSTORE SWAP3 SWAP6 SWAP4 SWAP5 SWAP4 DUP7 ADD SWAP4 DUP4 ADD DUP3 DUP3 DUP1 ISZERO PUSH2 0xC28 JUMPI PUSH1 0x20 MUL DUP3 ADD SWAP2 SWAP1 PUSH1 0x0 MSTORE PUSH1 0x20 PUSH1 0x0 KECCAK256 SWAP1 PUSH1 0x0 SWAP1 JUMPDEST DUP3 SLOAD PUSH2 0x100 DUP4 SWAP1 EXP SWAP1 DIV PUSH1 0xFF AND DUP2 MSTORE PUSH1 0x20 PUSH1 0x1 SWAP3 DUP4 ADD DUP2 DUP2 DIV SWAP5 DUP6 ADD SWAP5 SWAP1 SWAP4 SUB SWAP1 SWAP3 MUL SWAP2 ADD DUP1 DUP5 GT PUSH2 0xBF9 JUMPI SWAP1 POP JUMPDEST POP POP POP SWAP2 DUP4 MSTORE POP POP PUSH1 0x2 DUP3 ADD SLOAD PUSH1 0xFF AND PUSH1 0x20 DUP3 ADD MSTORE PUSH1 0x3 SWAP1 SWAP2 ADD SLOAD PUSH1 0x40 SWAP1 SWAP2 ADD MSTORE SWAP1 POP SWAP1 JUMP JUMPDEST PUSH2 0xC56 PUSH2 0x1CFA JUMP JUMPDEST DUP5 MLOAD PUSH1 0x4 EQ PUSH2 0xC77 JUMPI PUSH1 0x40 MLOAD PUSH3 0x461BCD PUSH1 0xE5 SHL DUP2 MSTORE PUSH1 0x4 ADD PUSH2 0x16E SWAP1 PUSH2 0x23D5 JUMP JUMPDEST DUP4 MLOAD PUSH1 0x4 EQ PUSH2 0xC98 JUMPI PUSH1 0x40 MLOAD PUSH3 0x461BCD PUSH1 0xE5 SHL DUP2 MSTORE PUSH1 0x4 ADD PUSH2 0x16E SWAP1 PUSH2 0x23D5 JUMP JUMPDEST PUSH1 0x40 DUP1 MLOAD PUSH1 0x4 DUP1 DUP3 MSTORE PUSH1 0xA0 DUP3 ADD SWAP1 SWAP3 MSTORE PUSH1 0x0 SWAP2 PUSH1 0x20 DUP3 ADD PUSH1 0x80 DUP1 CALLDATASIZE DUP4 CALLDATACOPY ADD SWAP1 POP POP SWAP1 POP PUSH1 0xA DUP2 PUSH1 0x0 DUP2 MLOAD DUP2 LT PUSH2 0xCDE JUMPI PUSH4 0x4E487B71 PUSH1 0xE0 SHL PUSH1 0x0 MSTORE PUSH1 0x32 PUSH1 0x4 MSTORE PUSH1 0x24 PUSH1 0x0 REVERT JUMPDEST PUSH1 0x20 MUL PUSH1 0x20 ADD ADD SWAP1 PUSH1 0x0 SIGNEXTEND SWAP1 DUP2 PUSH1 0x0 SIGNEXTEND DUP2 MSTORE POP POP PUSH1 0xB DUP2 PUSH1 0x1 DUP2 MLOAD DUP2 LT PUSH2 0xD15 JUMPI PUSH4 0x4E487B71 PUSH1 0xE0 SHL PUSH1 0x0 MSTORE PUSH1 0x32 PUSH1 0x4 MSTORE PUSH1 0x24 PUSH1 0x0 REVERT JUMPDEST PUSH1 0x20 MUL PUSH1 0x20 ADD ADD SWAP1 PUSH1 0x0 SIGNEXTEND SWAP1 DUP2 PUSH1 0x0 SIGNEXTEND DUP2 MSTORE POP POP PUSH1 0xC DUP2 PUSH1 0x2 DUP2 MLOAD DUP2 LT PUSH2 0xD4C JUMPI PUSH4 0x4E487B71 PUSH1 0xE0 SHL PUSH1 0x0 MSTORE PUSH1 0x32 PUSH1 0x4 MSTORE PUSH1 0x24 PUSH1 0x0 REVERT JUMPDEST PUSH1 0x20 MUL PUSH1 0x20 ADD ADD SWAP1 PUSH1 0x0 SIGNEXTEND SWAP1 DUP2 PUSH1 0x0 SIGNEXTEND DUP2 MSTORE POP POP PUSH1 0xD DUP2 PUSH1 0x3 DUP2 MLOAD DUP2 LT PUSH2 0xD83 JUMPI PUSH4 0x4E487B71 PUSH1 0xE0 SHL PUSH1 0x0 MSTORE PUSH1 0x32 PUSH1 0x4 MSTORE PUSH1 0x24 PUSH1 0x0 REVERT JUMPDEST PUSH1 0x0 SWAP3 DUP4 SIGNEXTEND DUP4 SIGNEXTEND PUSH1 0x20 SWAP2 DUP3 MUL SWAP3 SWAP1 SWAP3 ADD ADD MSTORE PUSH1 0x40 DUP1 MLOAD PUSH1 0x4 DUP1 DUP3 MSTORE PUSH1 0xA0 DUP3 ADD SWAP1 SWAP3 MSTORE SWAP1 DUP2 PUSH1 0x20 ADD PUSH1 0x20 DUP3 MUL DUP1 CALLDATASIZE DUP4 CALLDATACOPY ADD SWAP1 POP POP SWAP1 POP PUSH1 0x9 NOT DUP2 PUSH1 0x0 DUP2 MLOAD DUP2 LT PUSH2 0xDDC JUMPI PUSH4 0x4E487B71 PUSH1 0xE0 SHL PUSH1 0x0 MSTORE PUSH1 0x32 PUSH1 0x4 MSTORE PUSH1 0x24 PUSH1 0x0 REVERT JUMPDEST PUSH1 0x20 MUL PUSH1 0x20 ADD ADD SWAP1 PUSH1 0x0 SIGNEXTEND SWAP1 DUP2 PUSH1 0x0 SIGNEXTEND DUP2 MSTORE POP POP PUSH1 0xA NOT DUP2 PUSH1 0x1 DUP2 MLOAD DUP2 LT PUSH2 0xE14 JUMPI PUSH4 0x4E487B71 PUSH1 0xE0 SHL PUSH1 0x0 MSTORE PUSH1 0x32 PUSH1 0x4 MSTORE PUSH1 0x24 PUSH1 0x0 REVERT JUMPDEST PUSH1 0x20 MUL PUSH1 0x20 ADD ADD SWAP1 PUSH1 0x0 SIGNEXTEND SWAP1 DUP2 PUSH1 0x0 SIGNEXTEND DUP2 MSTORE POP POP PUSH1 0xB NOT DUP2 PUSH1 0x2 DUP2 MLOAD DUP2 LT PUSH2 0xE4C JUMPI PUSH4 0x4E487B71 PUSH1 0xE0 SHL PUSH1 0x0 MSTORE PUSH1 0x32 PUSH1 0x4 MSTORE PUSH1 0x24 PUSH1 0x0 REVERT JUMPDEST PUSH1 0x20 MUL PUSH1 0x20 ADD ADD SWAP1 PUSH1 0x0 SIGNEXTEND SWAP1 DUP2 PUSH1 0x0 SIGNEXTEND DUP2 MSTORE POP POP PUSH1 0xC NOT DUP2 PUSH1 0x3 DUP2 MLOAD DUP2 LT PUSH2 0xE84 JUMPI PUSH4 0x4E487B71 PUSH1 0xE0 SHL PUSH1 0x0 MSTORE PUSH1 0x32 PUSH1 0x4 MSTORE PUSH1 0x24 PUSH1 0x0 REVERT JUMPDEST PUSH1 0x20 MUL PUSH1 0x20 ADD ADD SWAP1 PUSH1 0x0 SIGNEXTEND SWAP1 DUP2 PUSH1 0x0 SIGNEXTEND DUP2 MSTORE POP POP PUSH2 0xEA0 PUSH2 0x1E22 JUMP JUMPDEST PUSH1 0x40 DUP1 MLOAD PUSH1 0x4 DUP1 DUP3 MSTORE PUSH1 0xA0 DUP3 ADD SWAP1 SWAP3 MSTORE SWAP1 PUSH1 0x20 DUP3 ADD PUSH1 0x80 DUP1 CALLDATASIZE DUP4 CALLDATACOPY POP POP POP PUSH2 0x1C0 DUP3 ADD MSTORE PUSH1 0x40 DUP1 MLOAD PUSH1 0x4 DUP1 DUP3 MSTORE PUSH1 0xA0 DUP3 ADD SWAP1 SWAP3 MSTORE SWAP1 PUSH1 0x20 DUP3 ADD PUSH1 0x80 DUP1 CALLDATASIZE DUP4 CALLDATACOPY POP POP POP PUSH2 0x1E0 DUP3 ADD MSTORE PUSH1 0x40 DUP1 MLOAD PUSH1 0x4 DUP1 DUP3 MSTORE PUSH1 0xA0 DUP3 ADD SWAP1 SWAP3 MSTORE PUSH1 0x0 SWAP2 PUSH1 0x20 DUP3 ADD PUSH1 0x80 DUP1 CALLDATASIZE DUP4 CALLDATACOPY POP POP PUSH1 0x40 DUP1 MLOAD PUSH1 0x4 DUP1 DUP3 MSTORE PUSH1 0xA0 DUP3 ADD SWAP1 SWAP3 MSTORE SWAP3 SWAP4 POP PUSH1 0x0 SWAP3 SWAP2 POP PUSH1 0x20 DUP3 ADD PUSH1 0x80 DUP1 CALLDATASIZE DUP4 CALLDATACOPY ADD SWAP1 POP POP SWAP1 POP PUSH1 0x0 JUMPDEST PUSH1 0x4 PUSH2 0xFFFF DUP3 AND LT ISZERO PUSH2 0x11A0 JUMPI DUP11 DUP2 PUSH2 0xFFFF AND DUP2 MLOAD DUP2 LT PUSH2 0xF63 JUMPI PUSH4 0x4E487B71 PUSH1 0xE0 SHL PUSH1 0x0 MSTORE PUSH1 0x32 PUSH1 0x4 MSTORE PUSH1 0x24 PUSH1 0x0 REVERT JUMPDEST PUSH1 0x20 MUL PUSH1 0x20 ADD ADD MLOAD PUSH1 0xFF AND DUP13 DUP3 PUSH2 0xFFFF AND DUP2 MLOAD DUP2 LT PUSH2 0xF92 JUMPI PUSH4 0x4E487B71 PUSH1 0xE0 SHL PUSH1 0x0 MSTORE PUSH1 0x32 PUSH1 0x4 MSTORE PUSH1 0x24 PUSH1 0x0 REVERT JUMPDEST PUSH1 0x20 MUL PUSH1 0x20 ADD ADD MLOAD PUSH1 0x20 ADD MLOAD PUSH2 0xFA8 SWAP2 SWAP1 PUSH2 0x2768 JUMP JUMPDEST PUSH1 0x1 SIGNEXTEND DUP5 PUSH2 0x1C0 ADD MLOAD DUP3 PUSH2 0xFFFF AND DUP2 MLOAD DUP2 LT PUSH2 0xFD4 JUMPI PUSH4 0x4E487B71 PUSH1 0xE0 SHL PUSH1 0x0 MSTORE PUSH1 0x32 PUSH1 0x4 MSTORE PUSH1 0x24 PUSH1 0x0 REVERT JUMPDEST PUSH1 0x20 MUL PUSH1 0x20 ADD ADD SWAP1 PUSH1 0x3 SIGNEXTEND SWAP1 DUP2 PUSH1 0x3 SIGNEXTEND DUP2 MSTORE POP POP DUP10 DUP2 PUSH2 0xFFFF AND DUP2 MLOAD DUP2 LT PUSH2 0x100C JUMPI PUSH4 0x4E487B71 PUSH1 0xE0 SHL PUSH1 0x0 MSTORE PUSH1 0x32 PUSH1 0x4 MSTORE PUSH1 0x24 PUSH1 0x0 REVERT JUMPDEST PUSH1 0x20 MUL PUSH1 0x20 ADD ADD MLOAD PUSH1 0xFF AND DUP13 DUP3 PUSH2 0xFFFF AND DUP2 MLOAD DUP2 LT PUSH2 0x103B JUMPI PUSH4 0x4E487B71 PUSH1 0xE0 SHL PUSH1 0x0 MSTORE PUSH1 0x32 PUSH1 0x4 MSTORE PUSH1 0x24 PUSH1 0x0 REVERT JUMPDEST PUSH1 0x20 MUL PUSH1 0x20 ADD ADD MLOAD PUSH1 0x20 ADD MLOAD PUSH2 0x1051 SWAP2 SWAP1 PUSH2 0x2768 JUMP JUMPDEST PUSH1 0x1 SIGNEXTEND DUP5 PUSH2 0x1E0 ADD MLOAD DUP3 PUSH2 0xFFFF AND DUP2 MLOAD DUP2 LT PUSH2 0x107D JUMPI PUSH4 0x4E487B71 PUSH1 0xE0 SHL PUSH1 0x0 MSTORE PUSH1 0x32 PUSH1 0x4 MSTORE PUSH1 0x24 PUSH1 0x0 REVERT JUMPDEST PUSH1 0x20 MUL PUSH1 0x20 ADD ADD SWAP1 PUSH1 0x3 SIGNEXTEND SWAP1 DUP2 PUSH1 0x3 SIGNEXTEND DUP2 MSTORE POP POP DUP12 DUP2 PUSH2 0xFFFF AND DUP2 MLOAD DUP2 LT PUSH2 0x10B5 JUMPI PUSH4 0x4E487B71 PUSH1 0xE0 SHL PUSH1 0x0 MSTORE PUSH1 0x32 PUSH1 0x4 MSTORE PUSH1 0x24 PUSH1 0x0 REVERT JUMPDEST PUSH1 0x20 MUL PUSH1 0x20 ADD ADD MLOAD PUSH1 0x40 ADD MLOAD PUSH1 0x20 ADD MLOAD PUSH2 0xFFFF AND DUP15 PUSH2 0x10D4 SWAP2 SWAP1 PUSH2 0x295D JUMP JUMPDEST DUP4 DUP3 PUSH2 0xFFFF AND DUP2 MLOAD DUP2 LT PUSH2 0x10F8 JUMPI PUSH4 0x4E487B71 PUSH1 0xE0 SHL PUSH1 0x0 MSTORE PUSH1 0x32 PUSH1 0x4 MSTORE PUSH1 0x24 PUSH1 0x0 REVERT JUMPDEST PUSH2 0xFFFF SWAP3 DUP4 AND PUSH1 0x20 SWAP2 DUP3 MUL SWAP3 SWAP1 SWAP3 ADD ADD MSTORE DUP13 MLOAD DUP14 SWAP2 DUP4 AND SWAP1 DUP2 LT PUSH2 0x112C JUMPI PUSH4 0x4E487B71 PUSH1 0xE0 SHL PUSH1 0x0 MSTORE PUSH1 0x32 PUSH1 0x4 MSTORE PUSH1 0x24 PUSH1 0x0 REVERT JUMPDEST PUSH1 0x20 MUL PUSH1 0x20 ADD ADD MLOAD PUSH1 0x40 ADD MLOAD PUSH1 0x20 ADD MLOAD PUSH2 0xFFFF AND PUSH1 0x2 DUP16 PUSH2 0x114D SWAP2 SWAP1 PUSH2 0x26AA JUMP JUMPDEST PUSH2 0x1157 SWAP2 SWAP1 PUSH2 0x295D JUMP JUMPDEST DUP3 DUP3 PUSH2 0xFFFF AND DUP2 MLOAD DUP2 LT PUSH2 0x117B JUMPI PUSH4 0x4E487B71 PUSH1 0xE0 SHL PUSH1 0x0 MSTORE PUSH1 0x32 PUSH1 0x4 MSTORE PUSH1 0x24 PUSH1 0x0 REVERT JUMPDEST PUSH2 0xFFFF SWAP1 SWAP3 AND PUSH1 0x20 SWAP3 DUP4 MUL SWAP2 SWAP1 SWAP2 ADD SWAP1 SWAP2 ADD MSTORE DUP1 PUSH2 0x1198 DUP2 PUSH2 0x2900 JUMP JUMPDEST SWAP2 POP POP PUSH2 0xF32 JUMP JUMPDEST POP DUP12 ISZERO PUSH2 0x1290 JUMPI PUSH2 0x11B3 PUSH1 0x4 PUSH1 0x14 PUSH2 0x27B5 JUMP JUMPDEST PUSH1 0xFF AND PUSH8 0xFFFFFFFFFFFFFFFF DUP2 GT ISZERO PUSH2 0x11DC JUMPI PUSH4 0x4E487B71 PUSH1 0xE0 SHL PUSH1 0x0 MSTORE PUSH1 0x41 PUSH1 0x4 MSTORE PUSH1 0x24 PUSH1 0x0 REVERT JUMPDEST PUSH1 0x40 MLOAD SWAP1 DUP1 DUP3 MSTORE DUP1 PUSH1 0x20 MUL PUSH1 0x20 ADD DUP3 ADD PUSH1 0x40 MSTORE DUP1 ISZERO PUSH2 0x1215 JUMPI DUP2 PUSH1 0x20 ADD JUMPDEST PUSH2 0x1202 PUSH2 0x1EA8 JUMP JUMPDEST DUP2 MSTORE PUSH1 0x20 ADD SWAP1 PUSH1 0x1 SWAP1 SUB SWAP1 DUP2 PUSH2 0x11FA JUMPI SWAP1 POP JUMPDEST POP PUSH1 0x60 DUP5 ADD MSTORE PUSH2 0x1227 PUSH1 0x4 PUSH1 0x14 PUSH2 0x27B5 JUMP JUMPDEST PUSH1 0xFF AND PUSH8 0xFFFFFFFFFFFFFFFF DUP2 GT ISZERO PUSH2 0x1250 JUMPI PUSH4 0x4E487B71 PUSH1 0xE0 SHL PUSH1 0x0 MSTORE PUSH1 0x41 PUSH1 0x4 MSTORE PUSH1 0x24 PUSH1 0x0 REVERT JUMPDEST PUSH1 0x40 MLOAD SWAP1 DUP1 DUP3 MSTORE DUP1 PUSH1 0x20 MUL PUSH1 0x20 ADD DUP3 ADD PUSH1 0x40 MSTORE DUP1 ISZERO PUSH2 0x1289 JUMPI DUP2 PUSH1 0x20 ADD JUMPDEST PUSH2 0x1276 PUSH2 0x1EA8 JUMP JUMPDEST DUP2 MSTORE PUSH1 0x20 ADD SWAP1 PUSH1 0x1 SWAP1 SUB SWAP1 DUP2 PUSH2 0x126E JUMPI SWAP1 POP JUMPDEST POP PUSH1 0x80 DUP5 ADD MSTORE JUMPDEST PUSH1 0x0 DUP4 MSTORE JUMPDEST DUP3 MLOAD PUSH1 0x14 PUSH1 0xFF SWAP1 SWAP2 AND LT DUP1 ISZERO PUSH2 0x12B6 JUMPI POP PUSH2 0x12B4 DUP4 PUSH2 0x1C0 ADD MLOAD PUSH2 0x1895 JUMP JUMPDEST ISZERO JUMPDEST DUP1 ISZERO PUSH2 0x12CD JUMPI POP PUSH2 0x12CB DUP4 PUSH2 0x1E0 ADD MLOAD PUSH2 0x1895 JUMP JUMPDEST ISZERO JUMPDEST ISZERO PUSH2 0x180E JUMPI PUSH1 0x0 PUSH1 0xA0 DUP5 ADD MSTORE JUMPDEST PUSH1 0x4 PUSH1 0xFF AND DUP4 PUSH1 0xA0 ADD MLOAD PUSH1 0xFF AND LT ISZERO PUSH2 0x17F7 JUMPI PUSH1 0x0 PUSH1 0xC0 DUP5 ADD DUP2 SWAP1 MSTORE PUSH1 0xE0 DUP5 ADD DUP2 SWAP1 MSTORE PUSH2 0x1C0 DUP5 ADD MLOAD PUSH1 0xA0 DUP6 ADD MLOAD DUP2 MLOAD PUSH1 0xFF SWAP1 SWAP2 AND SWAP1 DUP2 LT PUSH2 0x132C JUMPI PUSH4 0x4E487B71 PUSH1 0xE0 SHL PUSH1 0x0 MSTORE PUSH1 0x32 PUSH1 0x4 MSTORE PUSH1 0x24 PUSH1 0x0 REVERT JUMPDEST PUSH1 0x20 SWAP1 DUP2 MUL SWAP2 SWAP1 SWAP2 ADD ADD MLOAD PUSH1 0x3 SIGNEXTEND SGT ISZERO PUSH2 0x180 DUP5 ADD MSTORE PUSH2 0x1E0 DUP4 ADD MLOAD PUSH1 0xA0 DUP5 ADD MLOAD DUP2 MLOAD PUSH1 0x0 SWAP3 SWAP2 PUSH1 0xFF AND SWAP1 DUP2 LT PUSH2 0x1373 JUMPI PUSH4 0x4E487B71 PUSH1 0xE0 SHL PUSH1 0x0 MSTORE PUSH1 0x32 PUSH1 0x4 MSTORE PUSH1 0x24 PUSH1 0x0 REVERT JUMPDEST PUSH1 0x20 SWAP1 DUP2 MUL SWAP2 SWAP1 SWAP2 ADD ADD MLOAD PUSH1 0x3 SIGNEXTEND SGT ISZERO PUSH2 0x1A0 DUP5 ADD MSTORE PUSH2 0x180 DUP4 ADD MLOAD PUSH2 0x1502 JUMPI PUSH2 0x13A9 DUP12 DUP5 PUSH1 0xA0 ADD MLOAD DUP8 DUP8 DUP8 PUSH2 0x1E0 ADD MLOAD PUSH2 0x18F7 JUMP JUMPDEST PUSH1 0xFF AND PUSH2 0x100 DUP6 ADD MSTORE ISZERO DUP1 ISZERO PUSH1 0xC0 DUP6 ADD MSTORE PUSH2 0x145D JUMPI PUSH2 0x1407 DUP3 DUP13 DUP6 PUSH1 0xA0 ADD MLOAD DUP7 PUSH2 0x100 ADD MLOAD DUP8 PUSH2 0x1C0 ADD MLOAD DUP9 PUSH1 0xA0 ADD MLOAD PUSH1 0xFF AND DUP2 MLOAD DUP2 LT PUSH2 0x13FA JUMPI PUSH4 0x4E487B71 PUSH1 0xE0 SHL PUSH1 0x0 MSTORE PUSH1 0x32 PUSH1 0x4 MSTORE PUSH1 0x24 PUSH1 0x0 REVERT JUMPDEST PUSH1 0x20 MUL PUSH1 0x20 ADD ADD MLOAD PUSH2 0x1A3D JUMP JUMPDEST PUSH4 0xFFFFFFFF AND PUSH2 0x140 DUP5 ADD MSTORE DUP12 ISZERO PUSH2 0x1458 JUMPI PUSH1 0x20 DUP4 ADD DUP1 MLOAD PUSH2 0x1458 SWAP2 PUSH2 0x142C DUP3 PUSH2 0x293D JUMP JUMPDEST PUSH1 0xFF AND PUSH1 0xFF AND DUP2 MSTORE POP PUSH1 0xFF AND DUP5 PUSH1 0x0 ADD MLOAD DUP6 PUSH1 0x60 ADD MLOAD DUP7 PUSH1 0xA0 ADD MLOAD DUP8 PUSH2 0x100 ADD MLOAD DUP9 PUSH2 0x140 ADD MLOAD PUSH2 0x1BAC JUMP JUMPDEST PUSH2 0x1502 JUMP JUMPDEST DUP12 ISZERO PUSH2 0x1502 JUMPI PUSH1 0x20 DUP4 ADD DUP1 MLOAD PUSH2 0x1502 SWAP2 PUSH2 0x1476 DUP3 PUSH2 0x293D JUMP JUMPDEST PUSH1 0xFF AND PUSH1 0xFF AND DUP2 MSTORE POP PUSH1 0xFF AND DUP5 PUSH1 0x0 ADD MLOAD DUP6 PUSH1 0x60 ADD MLOAD DUP7 PUSH1 0xA0 ADD MLOAD DUP16 DUP9 PUSH1 0xA0 ADD MLOAD PUSH1 0xFF AND DUP2 MLOAD DUP2 LT PUSH2 0x14B8 JUMPI PUSH4 0x4E487B71 PUSH1 0xE0 SHL PUSH1 0x0 MSTORE PUSH1 0x32 PUSH1 0x4 MSTORE PUSH1 0x24 PUSH1 0x0 REVERT JUMPDEST PUSH1 0x20 MUL PUSH1 0x20 ADD ADD MLOAD PUSH1 0x80 ADD MLOAD DUP11 DUP10 PUSH1 0xA0 ADD MLOAD PUSH1 0xFF AND DUP2 MLOAD DUP2 LT PUSH2 0x14EB JUMPI PUSH4 0x4E487B71 PUSH1 0xE0 SHL PUSH1 0x0 MSTORE PUSH1 0x32 PUSH1 0x4 MSTORE PUSH1 0x24 PUSH1 0x0 REVERT JUMPDEST PUSH1 0x20 MUL PUSH1 0x20 ADD ADD MLOAD PUSH2 0x14FD SWAP2 SWAP1 PUSH2 0x2862 JUMP JUMPDEST PUSH2 0x1C26 JUMP JUMPDEST DUP3 PUSH2 0x1A0 ADD MLOAD PUSH2 0x16F9 JUMPI PUSH2 0x1522 DUP12 DUP5 PUSH1 0xA0 ADD MLOAD DUP7 DUP9 DUP8 PUSH2 0x1C0 ADD MLOAD PUSH2 0x18F7 JUMP JUMPDEST PUSH1 0xFF AND PUSH2 0x120 DUP6 ADD MSTORE ISZERO DUP1 ISZERO PUSH1 0xE0 DUP6 ADD MSTORE PUSH2 0x1619 JUMPI PUSH2 0x1573 DUP2 DUP13 DUP6 PUSH1 0xA0 ADD MLOAD DUP7 PUSH2 0x120 ADD MLOAD DUP8 PUSH2 0x1E0 ADD MLOAD DUP9 PUSH1 0xA0 ADD MLOAD PUSH1 0xFF AND DUP2 MLOAD DUP2 LT PUSH2 0x13FA JUMPI PUSH4 0x4E487B71 PUSH1 0xE0 SHL PUSH1 0x0 MSTORE PUSH1 0x32 PUSH1 0x4 MSTORE PUSH1 0x24 PUSH1 0x0 REVERT JUMPDEST PUSH4 0xFFFFFFFF AND PUSH2 0x160 DUP5 ADD DUP2 SWAP1 MSTORE PUSH2 0x1C0 DUP5 ADD MLOAD PUSH2 0x120 DUP6 ADD MLOAD DUP2 MLOAD PUSH1 0xFF SWAP1 SWAP2 AND SWAP1 DUP2 LT PUSH2 0x15B1 JUMPI PUSH4 0x4E487B71 PUSH1 0xE0 SHL PUSH1 0x0 MSTORE PUSH1 0x32 PUSH1 0x4 MSTORE PUSH1 0x24 PUSH1 0x0 REVERT JUMPDEST PUSH1 0x20 MUL PUSH1 0x20 ADD ADD DUP2 DUP2 MLOAD PUSH2 0x15C5 SWAP2 SWAP1 PUSH2 0x2823 JUMP JUMPDEST PUSH1 0x3 SWAP1 DUP2 SIGNEXTEND SWAP1 SIGNEXTEND SWAP1 MSTORE POP DUP12 ISZERO PUSH2 0x1614 JUMPI PUSH1 0x40 DUP4 ADD DUP1 MLOAD PUSH2 0x1614 SWAP2 PUSH2 0x15E8 DUP3 PUSH2 0x293D JUMP JUMPDEST PUSH1 0xFF AND PUSH1 0xFF AND DUP2 MSTORE POP PUSH1 0xFF AND DUP5 PUSH1 0x0 ADD MLOAD DUP6 PUSH1 0x80 ADD MLOAD DUP7 PUSH1 0xA0 ADD MLOAD DUP8 PUSH2 0x120 ADD MLOAD DUP9 PUSH2 0x160 ADD MLOAD PUSH2 0x1BAC JUMP JUMPDEST PUSH2 0x16F9 JUMP JUMPDEST DUP11 DUP4 PUSH1 0xA0 ADD MLOAD PUSH1 0xFF AND DUP2 MLOAD DUP2 LT PUSH2 0x1640 JUMPI PUSH4 0x4E487B71 PUSH1 0xE0 SHL PUSH1 0x0 MSTORE PUSH1 0x32 PUSH1 0x4 MSTORE PUSH1 0x24 PUSH1 0x0 REVERT JUMPDEST PUSH1 0x20 MUL PUSH1 0x20 ADD ADD MLOAD PUSH1 0x80 ADD MLOAD DUP5 DUP5 PUSH1 0xA0 ADD MLOAD PUSH1 0xFF AND DUP2 MLOAD DUP2 LT PUSH2 0x1673 JUMPI PUSH4 0x4E487B71 PUSH1 0xE0 SHL PUSH1 0x0 MSTORE PUSH1 0x32 PUSH1 0x4 MSTORE PUSH1 0x24 PUSH1 0x0 REVERT JUMPDEST PUSH1 0x20 MUL PUSH1 0x20 ADD ADD DUP2 DUP2 MLOAD PUSH2 0x1687 SWAP2 SWAP1 PUSH2 0x2625 JUMP JUMPDEST PUSH1 0x0 SWAP1 DUP2 SIGNEXTEND SWAP1 SIGNEXTEND SWAP1 MSTORE POP DUP12 ISZERO PUSH2 0x16F9 JUMPI PUSH1 0x40 DUP4 ADD DUP1 MLOAD PUSH2 0x16F9 SWAP2 PUSH2 0x16AA DUP3 PUSH2 0x293D JUMP JUMPDEST PUSH1 0xFF AND PUSH1 0xFF AND DUP2 MSTORE POP PUSH1 0xFF AND DUP5 PUSH1 0x0 ADD MLOAD DUP6 PUSH1 0x80 ADD MLOAD DUP7 PUSH1 0xA0 ADD MLOAD DUP9 DUP9 PUSH1 0xA0 ADD MLOAD PUSH1 0xFF AND DUP2 MLOAD DUP2 LT PUSH2 0x16EC JUMPI PUSH4 0x4E487B71 PUSH1 0xE0 SHL PUSH1 0x0 MSTORE PUSH1 0x32 PUSH1 0x4 MSTORE PUSH1 0x24 PUSH1 0x0 REVERT JUMPDEST PUSH1 0x20 MUL PUSH1 0x20 ADD ADD MLOAD PUSH2 0x1C26 JUMP JUMPDEST DUP3 PUSH2 0x180 ADD MLOAD PUSH2 0x17DC JUMPI DUP3 PUSH1 0xC0 ADD MLOAD ISZERO PUSH2 0x1763 JUMPI DUP3 PUSH2 0x140 ADD MLOAD DUP4 PUSH2 0x1E0 ADD MLOAD DUP5 PUSH2 0x100 ADD MLOAD PUSH1 0xFF AND DUP2 MLOAD DUP2 LT PUSH2 0x1740 JUMPI PUSH4 0x4E487B71 PUSH1 0xE0 SHL PUSH1 0x0 MSTORE PUSH1 0x32 PUSH1 0x4 MSTORE PUSH1 0x24 PUSH1 0x0 REVERT JUMPDEST PUSH1 0x20 MUL PUSH1 0x20 ADD ADD DUP2 DUP2 MLOAD PUSH2 0x1754 SWAP2 SWAP1 PUSH2 0x2823 JUMP JUMPDEST PUSH1 0x3 SWAP1 DUP2 SIGNEXTEND SWAP1 SIGNEXTEND SWAP1 MSTORE POP PUSH2 0x17DC JUMP JUMPDEST DUP11 DUP4 PUSH1 0xA0 ADD MLOAD PUSH1 0xFF AND DUP2 MLOAD DUP2 LT PUSH2 0x178A JUMPI PUSH4 0x4E487B71 PUSH1 0xE0 SHL PUSH1 0x0 MSTORE PUSH1 0x32 PUSH1 0x4 MSTORE PUSH1 0x24 PUSH1 0x0 REVERT JUMPDEST PUSH1 0x20 MUL PUSH1 0x20 ADD ADD MLOAD PUSH1 0x80 ADD MLOAD DUP6 DUP5 PUSH1 0xA0 ADD MLOAD PUSH1 0xFF AND DUP2 MLOAD DUP2 LT PUSH2 0x17BD JUMPI PUSH4 0x4E487B71 PUSH1 0xE0 SHL PUSH1 0x0 MSTORE PUSH1 0x32 PUSH1 0x4 MSTORE PUSH1 0x24 PUSH1 0x0 REVERT JUMPDEST PUSH1 0x20 MUL PUSH1 0x20 ADD ADD DUP2 DUP2 MLOAD PUSH2 0x17D1 SWAP2 SWAP1 PUSH2 0x2862 JUMP JUMPDEST PUSH1 0x0 SWAP1 DUP2 SIGNEXTEND SWAP1 SIGNEXTEND SWAP1 MSTORE POP JUMPDEST PUSH1 0xA0 DUP4 ADD DUP1 MLOAD SWAP1 PUSH2 0x17EC DUP3 PUSH2 0x293D JUMP JUMPDEST PUSH1 0xFF AND SWAP1 MSTORE POP PUSH2 0x12DA JUMP JUMPDEST DUP3 MLOAD DUP4 PUSH2 0x1803 DUP3 PUSH2 0x293D JUMP JUMPDEST PUSH1 0xFF AND SWAP1 MSTORE POP PUSH2 0x1295 JUMP JUMPDEST PUSH1 0x40 MLOAD DUP1 PUSH2 0x140 ADD PUSH1 0x40 MSTORE DUP1 DUP12 DUP2 MSTORE PUSH1 0x20 ADD DUP11 DUP2 MSTORE PUSH1 0x20 ADD DUP10 PUSH1 0xFF AND DUP2 MSTORE PUSH1 0x20 ADD DUP9 PUSH1 0xFF AND DUP2 MSTORE PUSH1 0x20 ADD DUP5 PUSH1 0x60 ADD MLOAD DUP2 MSTORE PUSH1 0x20 ADD DUP5 PUSH1 0x80 ADD MLOAD DUP2 MSTORE PUSH1 0x20 ADD PUSH2 0x185A DUP6 PUSH2 0x1C0 ADD MLOAD PUSH2 0x1895 JUMP JUMPDEST ISZERO ISZERO DUP2 MSTORE PUSH1 0x20 ADD PUSH2 0x186F DUP6 PUSH2 0x1E0 ADD MLOAD PUSH2 0x1895 JUMP JUMPDEST ISZERO ISZERO DUP2 MSTORE SWAP4 MLOAD PUSH1 0xFF AND PUSH1 0x20 DUP6 ADD MSTORE PUSH1 0x40 SWAP1 SWAP4 ADD SWAP13 SWAP1 SWAP13 MSTORE POP SWAP11 SWAP10 POP POP POP POP POP POP POP POP POP POP JUMP JUMPDEST PUSH1 0x0 PUSH1 0x1 DUP2 JUMPDEST PUSH1 0x4 DUP2 LT ISZERO PUSH2 0x18EE JUMPI PUSH1 0x0 DUP5 DUP3 DUP2 MLOAD DUP2 LT PUSH2 0x18C6 JUMPI PUSH4 0x4E487B71 PUSH1 0xE0 SHL PUSH1 0x0 MSTORE PUSH1 0x32 PUSH1 0x4 MSTORE PUSH1 0x24 PUSH1 0x0 REVERT JUMPDEST PUSH1 0x20 MUL PUSH1 0x20 ADD ADD MLOAD PUSH1 0x3 SIGNEXTEND SGT ISZERO PUSH2 0x18DC JUMPI PUSH1 0x0 SWAP2 POP JUMPDEST DUP1 PUSH2 0x18E6 DUP2 PUSH2 0x2922 JUMP JUMPDEST SWAP2 POP POP PUSH2 0x189B JUMP JUMPDEST POP SWAP1 POP JUMPDEST SWAP2 SWAP1 POP JUMP JUMPDEST PUSH1 0x0 DUP1 PUSH1 0x0 DUP6 DUP8 PUSH1 0xFF AND DUP2 MLOAD DUP2 LT PUSH2 0x191F JUMPI PUSH4 0x4E487B71 PUSH1 0xE0 SHL PUSH1 0x0 MSTORE PUSH1 0x32 PUSH1 0x4 MSTORE PUSH1 0x24 PUSH1 0x0 REVERT JUMPDEST PUSH1 0x20 MUL PUSH1 0x20 ADD ADD MLOAD PUSH1 0x0 SIGNEXTEND SWAP1 POP PUSH1 0x0 PUSH1 0x4 SWAP1 POP PUSH1 0x0 PUSH1 0x1 PUSH1 0x4 PUSH2 0x1942 SWAP2 SWAP1 PUSH2 0x28BC JUMP JUMPDEST SWAP1 POP JUMPDEST PUSH1 0x0 DUP2 PUSH1 0x0 SIGNEXTEND SLT PUSH2 0x1A27 JUMPI PUSH1 0x0 DUP2 SWAP1 POP DUP11 DUP11 PUSH1 0xFF AND DUP2 MLOAD DUP2 LT PUSH2 0x1978 JUMPI PUSH4 0x4E487B71 PUSH1 0xE0 SHL PUSH1 0x0 MSTORE PUSH1 0x32 PUSH1 0x4 MSTORE PUSH1 0x24 PUSH1 0x0 REVERT JUMPDEST PUSH1 0x20 MUL PUSH1 0x20 ADD ADD MLOAD PUSH1 0xA0 ADD MLOAD PUSH2 0xFFFF AND PUSH2 0x19C9 DUP10 DUP4 PUSH1 0xFF AND DUP2 MLOAD DUP2 LT PUSH2 0x19AE JUMPI PUSH4 0x4E487B71 PUSH1 0xE0 SHL PUSH1 0x0 MSTORE PUSH1 0x32 PUSH1 0x4 MSTORE PUSH1 0x24 PUSH1 0x0 REVERT JUMPDEST PUSH1 0x20 MUL PUSH1 0x20 ADD ADD MLOAD PUSH1 0x0 SIGNEXTEND DUP7 PUSH2 0x19C4 SWAP2 SWAP1 PUSH2 0x27DE JUMP JUMPDEST PUSH2 0x1C95 JUMP JUMPDEST PUSH2 0xFFFF AND GT ISZERO DUP1 ISZERO PUSH2 0x1A08 JUMPI POP PUSH1 0x0 DUP8 DUP3 PUSH1 0xFF AND DUP2 MLOAD DUP2 LT PUSH2 0x19FB JUMPI PUSH4 0x4E487B71 PUSH1 0xE0 SHL PUSH1 0x0 MSTORE PUSH1 0x32 PUSH1 0x4 MSTORE PUSH1 0x24 PUSH1 0x0 REVERT JUMPDEST PUSH1 0x20 MUL PUSH1 0x20 ADD ADD MLOAD PUSH1 0x3 SIGNEXTEND SGT JUMPDEST ISZERO PUSH2 0x1A14 JUMPI SWAP2 POP PUSH2 0x1A27 JUMP JUMPDEST POP DUP1 PUSH2 0x1A1F DUP2 PUSH2 0x28DF JUMP JUMPDEST SWAP2 POP POP PUSH2 0x1945 JUMP JUMPDEST POP PUSH1 0x4 PUSH1 0xFF DUP3 AND LT SWAP10 SWAP1 SWAP9 POP SWAP7 POP POP POP POP POP POP POP JUMP JUMPDEST PUSH1 0x0 DUP1 DUP7 DUP6 PUSH1 0xFF AND DUP2 MLOAD DUP2 LT PUSH2 0x1A63 JUMPI PUSH4 0x4E487B71 PUSH1 0xE0 SHL PUSH1 0x0 MSTORE PUSH1 0x32 PUSH1 0x4 MSTORE PUSH1 0x24 PUSH1 0x0 REVERT JUMPDEST PUSH1 0x20 MUL PUSH1 0x20 ADD ADD MLOAD DUP7 DUP7 PUSH1 0xFF AND DUP2 MLOAD DUP2 LT PUSH2 0x1A8E JUMPI PUSH4 0x4E487B71 PUSH1 0xE0 SHL PUSH1 0x0 MSTORE PUSH1 0x32 PUSH1 0x4 MSTORE PUSH1 0x24 PUSH1 0x0 REVERT JUMPDEST PUSH1 0x20 MUL PUSH1 0x20 ADD ADD MLOAD PUSH1 0x40 ADD MLOAD PUSH1 0x0 ADD MLOAD PUSH2 0x1AA8 SWAP2 SWAP1 PUSH2 0x2665 JUMP JUMPDEST SWAP1 POP PUSH1 0x0 DUP7 DUP7 PUSH1 0xFF AND DUP2 MLOAD DUP2 LT PUSH2 0x1ACF JUMPI PUSH4 0x4E487B71 PUSH1 0xE0 SHL PUSH1 0x0 MSTORE PUSH1 0x32 PUSH1 0x4 MSTORE PUSH1 0x24 PUSH1 0x0 REVERT JUMPDEST PUSH1 0x20 MUL PUSH1 0x20 ADD ADD MLOAD PUSH1 0x20 ADD MLOAD PUSH2 0xFFFF AND DUP5 PUSH2 0x1AEA SWAP2 SWAP1 PUSH2 0x26BE JUMP JUMPDEST PUSH2 0x1AF5 SWAP1 PUSH1 0x1 PUSH2 0x268B JUMP JUMPDEST SWAP1 POP PUSH1 0x0 DUP8 DUP7 PUSH1 0xFF AND DUP2 MLOAD DUP2 LT PUSH2 0x1B1C JUMPI PUSH4 0x4E487B71 PUSH1 0xE0 SHL PUSH1 0x0 MSTORE PUSH1 0x32 PUSH1 0x4 MSTORE PUSH1 0x24 PUSH1 0x0 REVERT JUMPDEST PUSH1 0x20 MUL PUSH1 0x20 ADD ADD MLOAD PUSH1 0x20 ADD MLOAD DUP3 PUSH2 0x1B33 SWAP2 SWAP1 PUSH2 0x2768 JUMP JUMPDEST PUSH2 0xFFFF AND SWAP1 POP PUSH1 0x0 DUP3 PUSH2 0xFFFF AND DUP10 DUP9 PUSH1 0xFF AND DUP2 MLOAD DUP2 LT PUSH2 0x1B63 JUMPI PUSH4 0x4E487B71 PUSH1 0xE0 SHL PUSH1 0x0 MSTORE PUSH1 0x32 PUSH1 0x4 MSTORE PUSH1 0x24 PUSH1 0x0 REVERT JUMPDEST PUSH1 0x20 MUL PUSH1 0x20 ADD ADD MLOAD PUSH1 0x60 ADD MLOAD DUP6 PUSH2 0x1B7A SWAP2 SWAP1 PUSH2 0x2899 JUMP JUMPDEST PUSH2 0xFFFF AND PUSH2 0x1B88 SWAP2 SWAP1 PUSH2 0x2792 JUMP JUMPDEST SWAP1 POP PUSH2 0x1B9E PUSH2 0x1B98 PUSH1 0x0 DUP4 PUSH2 0x1CBB JUMP JUMPDEST DUP4 PUSH2 0x1CDF JUMP JUMPDEST SWAP11 SWAP10 POP POP POP POP POP POP POP POP POP POP JUMP JUMPDEST PUSH1 0x40 MLOAD DUP1 PUSH1 0xC0 ADD PUSH1 0x40 MSTORE DUP1 PUSH1 0x1 PUSH1 0xFF AND DUP2 MSTORE PUSH1 0x20 ADD DUP7 PUSH1 0xFF AND DUP2 MSTORE PUSH1 0x20 ADD DUP5 PUSH1 0xFF AND DUP2 MSTORE PUSH1 0x20 ADD DUP4 PUSH1 0xFF AND DUP2 MSTORE PUSH1 0x20 ADD PUSH1 0x0 DUP1 SIGNEXTEND DUP2 MSTORE PUSH1 0x20 ADD DUP3 PUSH4 0xFFFFFFFF AND DUP2 MSTORE POP DUP5 DUP8 PUSH2 0xFFFF AND DUP2 MLOAD DUP2 LT PUSH2 0x1C13 JUMPI PUSH4 0x4E487B71 PUSH1 0xE0 SHL PUSH1 0x0 MSTORE PUSH1 0x32 PUSH1 0x4 MSTORE PUSH1 0x24 PUSH1 0x0 REVERT JUMPDEST PUSH1 0x20 MUL PUSH1 0x20 ADD ADD DUP2 SWAP1 MSTORE POP POP POP POP POP POP POP JUMP JUMPDEST PUSH1 0x40 DUP1 MLOAD PUSH1 0xC0 DUP2 ADD DUP3 MSTORE PUSH1 0x2 DUP2 MSTORE PUSH1 0xFF DUP7 DUP2 AND PUSH1 0x20 DUP4 ADD MSTORE DUP5 AND SWAP2 DUP2 ADD SWAP2 SWAP1 SWAP2 MSTORE PUSH1 0x0 PUSH1 0x60 DUP3 ADD DUP2 SWAP1 MSTORE DUP3 DUP2 SIGNEXTEND PUSH1 0x80 DUP4 ADD MSTORE PUSH1 0xA0 DUP3 ADD MSTORE DUP4 MLOAD DUP5 SWAP1 PUSH2 0xFFFF DUP9 AND SWAP1 DUP2 LT PUSH2 0x1C83 JUMPI PUSH4 0x4E487B71 PUSH1 0xE0 SHL PUSH1 0x0 MSTORE PUSH1 0x32 PUSH1 0x4 MSTORE PUSH1 0x24 PUSH1 0x0 REVERT JUMPDEST PUSH1 0x20 MUL PUSH1 0x20 ADD ADD DUP2 SWAP1 MSTORE POP POP POP POP POP POP JUMP JUMPDEST PUSH1 0x0 DUP1 DUP3 PUSH1 0x1 SIGNEXTEND SLT PUSH2 0x1CA8 JUMPI POP DUP1 PUSH2 0x18F2 JUMP JUMPDEST PUSH2 0x1CB4 DUP3 PUSH1 0x0 NOT PUSH2 0x26E1 JUMP JUMPDEST SWAP1 POP PUSH2 0x18F2 JUMP JUMPDEST PUSH1 0x0 DUP2 PUSH4 0xFFFFFFFF AND DUP4 PUSH4 0xFFFFFFFF AND GT PUSH2 0x1CD6 JUMPI DUP2 PUSH2 0x1CD8 JUMP JUMPDEST DUP3 JUMPDEST SWAP4 SWAP3 POP POP POP JUMP JUMPDEST PUSH1 0x0 DUP2 PUSH4 0xFFFFFFFF AND DUP4 PUSH4 0xFFFFFFFF AND LT PUSH2 0x1CD6 JUMPI DUP2 PUSH2 0x1CD8 JUMP JUMPDEST PUSH1 0x40 DUP1 MLOAD PUSH2 0x140 DUP2 ADD DUP3 MSTORE PUSH1 0x60 DUP1 DUP3 MSTORE PUSH1 0x20 DUP3 ADD DUP2 SWAP1 MSTORE PUSH1 0x0 SWAP3 DUP3 ADD DUP4 SWAP1 MSTORE DUP1 DUP3 ADD DUP4 SWAP1 MSTORE PUSH1 0x80 DUP3 ADD DUP2 SWAP1 MSTORE PUSH1 0xA0 DUP3 ADD MSTORE PUSH1 0xC0 DUP2 ADD DUP3 SWAP1 MSTORE PUSH1 0xE0 DUP2 ADD DUP3 SWAP1 MSTORE PUSH2 0x100 DUP2 ADD DUP3 SWAP1 MSTORE PUSH2 0x120 DUP2 ADD SWAP2 SWAP1 SWAP2 MSTORE SWAP1 JUMP JUMPDEST PUSH1 0x40 DUP1 MLOAD PUSH1 0xA0 DUP2 ADD DUP3 MSTORE PUSH1 0x0 DUP1 DUP3 MSTORE PUSH1 0x20 DUP3 ADD DUP2 SWAP1 MSTORE PUSH1 0x60 SWAP3 DUP3 ADD DUP4 SWAP1 MSTORE SWAP2 DUP2 ADD DUP3 SWAP1 MSTORE PUSH1 0x80 DUP2 ADD SWAP2 SWAP1 SWAP2 MSTORE SWAP1 JUMP JUMPDEST DUP3 DUP1 SLOAD DUP3 DUP3 SSTORE SWAP1 PUSH1 0x0 MSTORE PUSH1 0x20 PUSH1 0x0 KECCAK256 SWAP1 PUSH1 0x1F ADD PUSH1 0x20 SWAP1 DIV DUP2 ADD SWAP3 DUP3 ISZERO PUSH2 0x1E12 JUMPI SWAP2 PUSH1 0x20 MUL DUP3 ADD PUSH1 0x0 JUMPDEST DUP4 DUP3 GT ISZERO PUSH2 0x1DE3 JUMPI DUP4 MLOAD DUP4 DUP3 PUSH2 0x100 EXP DUP2 SLOAD DUP2 PUSH1 0xFF MUL NOT AND SWAP1 DUP4 PUSH1 0xFF AND MUL OR SWAP1 SSTORE POP SWAP3 PUSH1 0x20 ADD SWAP3 PUSH1 0x1 ADD PUSH1 0x20 DUP2 PUSH1 0x0 ADD DIV SWAP3 DUP4 ADD SWAP3 PUSH1 0x1 SUB MUL PUSH2 0x1DA5 JUMP JUMPDEST DUP1 ISZERO PUSH2 0x1E10 JUMPI DUP3 DUP2 PUSH2 0x100 EXP DUP2 SLOAD SWAP1 PUSH1 0xFF MUL NOT AND SWAP1 SSTORE PUSH1 0x1 ADD PUSH1 0x20 DUP2 PUSH1 0x0 ADD DIV SWAP3 DUP4 ADD SWAP3 PUSH1 0x1 SUB MUL PUSH2 0x1DE3 JUMP JUMPDEST POP JUMPDEST POP PUSH2 0x1E1E SWAP3 SWAP2 POP PUSH2 0x1EDD JUMP JUMPDEST POP SWAP1 JUMP JUMPDEST PUSH1 0x40 DUP1 MLOAD PUSH2 0x200 DUP2 ADD DUP3 MSTORE PUSH1 0x0 DUP1 DUP3 MSTORE PUSH1 0x20 DUP3 ADD DUP2 SWAP1 MSTORE SWAP2 DUP2 ADD DUP3 SWAP1 MSTORE PUSH1 0x60 DUP1 DUP3 ADD DUP2 SWAP1 MSTORE PUSH1 0x80 DUP3 ADD DUP2 SWAP1 MSTORE PUSH1 0xA0 DUP3 ADD DUP4 SWAP1 MSTORE PUSH1 0xC0 DUP3 ADD DUP4 SWAP1 MSTORE PUSH1 0xE0 DUP3 ADD DUP4 SWAP1 MSTORE PUSH2 0x100 DUP3 ADD DUP4 SWAP1 MSTORE PUSH2 0x120 DUP3 ADD DUP4 SWAP1 MSTORE PUSH2 0x140 DUP3 ADD DUP4 SWAP1 MSTORE PUSH2 0x160 DUP3 ADD DUP4 SWAP1 MSTORE PUSH2 0x180 DUP3 ADD DUP4 SWAP1 MSTORE PUSH2 0x1A0 DUP3 ADD SWAP3 SWAP1 SWAP3 MSTORE PUSH2 0x1C0 DUP2 ADD DUP3 SWAP1 MSTORE PUSH2 0x1E0 DUP2 ADD SWAP2 SWAP1 SWAP2 MSTORE SWAP1 JUMP JUMPDEST PUSH1 0x40 DUP1 MLOAD PUSH1 0xC0 DUP2 ADD DUP3 MSTORE PUSH1 0x0 DUP1 DUP3 MSTORE PUSH1 0x20 DUP3 ADD DUP2 SWAP1 MSTORE SWAP2 DUP2 ADD DUP3 SWAP1 MSTORE PUSH1 0x60 DUP2 ADD DUP3 SWAP1 MSTORE PUSH1 0x80 DUP2 ADD DUP3 SWAP1 MSTORE PUSH1 0xA0 DUP2 ADD SWAP2 SWAP1 SWAP2 MSTORE SWAP1 JUMP JUMPDEST JUMPDEST DUP1 DUP3 GT ISZERO PUSH2 0x1E1E JUMPI PUSH1 0x0 DUP2 SSTORE PUSH1 0x1 ADD PUSH2 0x1EDE JUMP JUMPDEST PUSH1 0x0 DUP3 PUSH1 0x1F DUP4 ADD SLT PUSH2 0x1F02 JUMPI DUP1 DUP2 REVERT JUMPDEST DUP2 CALLDATALOAD PUSH1 0x20 PUSH8 0xFFFFFFFFFFFFFFFF DUP1 DUP4 GT ISZERO PUSH2 0x1F1F JUMPI PUSH2 0x1F1F PUSH2 0x299D JUMP JUMPDEST DUP2 DUP4 MUL PUSH1 0x40 MLOAD PUSH1 0x1F NOT PUSH1 0x3F DUP4 ADD AND DUP2 ADD DUP2 DUP2 LT DUP5 DUP3 GT OR ISZERO PUSH2 0x1F43 JUMPI PUSH2 0x1F43 PUSH2 0x299D JUMP JUMPDEST PUSH1 0x40 MSTORE DUP5 DUP2 MSTORE DUP4 DUP2 ADD SWAP3 POP DUP7 DUP5 ADD DUP3 DUP9 ADD DUP6 ADD DUP10 LT ISZERO PUSH2 0x1F61 JUMPI DUP7 DUP8 REVERT JUMPDEST DUP7 SWAP3 POP JUMPDEST DUP6 DUP4 LT ISZERO PUSH2 0x1F8A JUMPI PUSH2 0x1F76 DUP2 PUSH2 0x1FA8 JUMP JUMPDEST DUP5 MSTORE SWAP3 DUP5 ADD SWAP3 PUSH1 0x1 SWAP3 SWAP1 SWAP3 ADD SWAP2 DUP5 ADD PUSH2 0x1F65 JUMP JUMPDEST POP SWAP8 SWAP7 POP POP POP POP POP POP POP JUMP JUMPDEST DUP1 CALLDATALOAD PUSH2 0xFFFF DUP2 AND DUP2 EQ PUSH2 0x18F2 JUMPI PUSH1 0x0 DUP1 REVERT JUMPDEST DUP1 CALLDATALOAD PUSH1 0xFF DUP2 AND DUP2 EQ PUSH2 0x18F2 JUMPI PUSH1 0x0 DUP1 REVERT JUMPDEST PUSH1 0x0 DUP1 PUSH1 0x0 PUSH1 0x60 DUP5 DUP7 SUB SLT ISZERO PUSH2 0x1FCD JUMPI DUP3 DUP4 REVERT JUMPDEST DUP4 CALLDATALOAD PUSH1 0x1 PUSH1 0x1 PUSH1 0xA0 SHL SUB DUP2 AND DUP2 EQ PUSH2 0x1FE3 JUMPI DUP4 DUP5 REVERT JUMPDEST SWAP3 POP PUSH1 0x20 DUP5 ADD CALLDATALOAD PUSH8 0xFFFFFFFFFFFFFFFF DUP2 GT ISZERO PUSH2 0x1FFE JUMPI DUP3 DUP4 REVERT JUMPDEST PUSH2 0x200A DUP7 DUP3 DUP8 ADD PUSH2 0x1EF2 JUMP JUMPDEST SWAP3 POP POP PUSH2 0x2019 PUSH1 0x40 DUP6 ADD PUSH2 0x1FA8 JUMP JUMPDEST SWAP1 POP SWAP3 POP SWAP3 POP SWAP3 JUMP JUMPDEST PUSH1 0x0 DUP1 PUSH1 0x0 PUSH1 0x60 DUP5 DUP7 SUB SLT ISZERO PUSH2 0x2036 JUMPI DUP3 DUP4 REVERT JUMPDEST DUP4 CALLDATALOAD PUSH8 0xFFFFFFFFFFFFFFFF DUP2 GT ISZERO PUSH2 0x204C JUMPI DUP4 DUP5 REVERT JUMPDEST PUSH2 0x2058 DUP7 DUP3 DUP8 ADD PUSH2 0x1EF2 JUMP JUMPDEST SWAP4 POP POP PUSH2 0x2067 PUSH1 0x20 DUP6 ADD PUSH2 0x1FA8 JUMP JUMPDEST SWAP2 POP PUSH1 0x40 DUP5 ADD CALLDATALOAD SWAP1 POP SWAP3 POP SWAP3 POP SWAP3 JUMP JUMPDEST PUSH1 0x0 DUP1 PUSH1 0x0 DUP1 PUSH1 0x0 DUP1 PUSH1 0x0 DUP1 PUSH2 0x100 DUP10 DUP12 SUB SLT ISZERO PUSH2 0x2093 JUMPI DUP4 DUP5 REVERT JUMPDEST PUSH2 0x209C DUP10 PUSH2 0x1F96 JUMP JUMPDEST SWAP8 POP PUSH2 0x20AA PUSH1 0x20 DUP11 ADD PUSH2 0x1F96 JUMP JUMPDEST SWAP7 POP PUSH2 0x20B8 PUSH1 0x40 DUP11 ADD PUSH2 0x1F96 JUMP JUMPDEST SWAP6 POP PUSH2 0x20C6 PUSH1 0x60 DUP11 ADD PUSH2 0x1F96 JUMP JUMPDEST SWAP5 POP PUSH2 0x20D4 PUSH1 0x80 DUP11 ADD PUSH2 0x1F96 JUMP JUMPDEST SWAP4 POP PUSH2 0x20E2 PUSH1 0xA0 DUP11 ADD PUSH2 0x1F96 JUMP JUMPDEST SWAP3 POP PUSH2 0x20F0 PUSH1 0xC0 DUP11 ADD PUSH2 0x1F96 JUMP JUMPDEST SWAP2 POP PUSH2 0x20FE PUSH1 0xE0 DUP11 ADD PUSH2 0x1F96 JUMP JUMPDEST SWAP1 POP SWAP3 SWAP6 SWAP9 POP SWAP3 SWAP6 SWAP9 SWAP1 SWAP4 SWAP7 POP JUMP JUMPDEST PUSH1 0x0 DUP1 PUSH1 0x0 DUP1 PUSH1 0x0 PUSH1 0xA0 DUP7 DUP9 SUB SLT ISZERO PUSH2 0x2124 JUMPI DUP1 DUP2 REVERT JUMPDEST DUP6 CALLDATALOAD SWAP5 POP PUSH1 0x20 DUP7 ADD CALLDATALOAD PUSH8 0xFFFFFFFFFFFFFFFF DUP1 DUP3 GT ISZERO PUSH2 0x2142 JUMPI DUP3 DUP4 REVERT JUMPDEST PUSH2 0x214E DUP10 DUP4 DUP11 ADD PUSH2 0x1EF2 JUMP JUMPDEST SWAP6 POP PUSH1 0x40 DUP9 ADD CALLDATALOAD SWAP2 POP DUP1 DUP3 GT ISZERO PUSH2 0x2163 JUMPI DUP3 DUP4 REVERT JUMPDEST POP PUSH2 0x2170 DUP9 DUP3 DUP10 ADD PUSH2 0x1EF2 JUMP JUMPDEST SWAP4 POP POP PUSH2 0x217F PUSH1 0x60 DUP8 ADD PUSH2 0x1FA8 JUMP JUMPDEST SWAP2 POP PUSH2 0x218D PUSH1 0x80 DUP8 ADD PUSH2 0x1FA8 JUMP JUMPDEST SWAP1 POP SWAP3 SWAP6 POP SWAP3 SWAP6 SWAP1 SWAP4 POP JUMP JUMPDEST PUSH1 0x0 DUP2 MLOAD DUP1 DUP5 MSTORE PUSH1 0x20 DUP1 DUP6 ADD SWAP5 POP DUP1 DUP5 ADD DUP4 JUMPDEST DUP4 DUP2 LT ISZERO PUSH2 0x2210 JUMPI DUP2 MLOAD DUP1 MLOAD PUSH1 0xFF SWAP1 DUP2 AND DUP10 MSTORE DUP5 DUP3 ADD MLOAD DUP2 AND DUP6 DUP11 ADD MSTORE PUSH1 0x40 DUP1 DUP4 ADD MLOAD DUP3 AND SWAP1 DUP11 ADD MSTORE PUSH1 0x60 DUP1 DUP4 ADD MLOAD SWAP1 SWAP2 AND SWAP1 DUP10 ADD MSTORE PUSH1 0x80 DUP1 DUP3 ADD MLOAD DUP8 SIGNEXTEND SWAP1 DUP10 ADD MSTORE PUSH1 0xA0 SWAP1 DUP2 ADD MLOAD PUSH4 0xFFFFFFFF AND SWAP1 DUP9 ADD MSTORE PUSH1 0xC0 SWAP1 SWAP7 ADD SWAP6 SWAP1 DUP3 ADD SWAP1 PUSH1 0x1 ADD PUSH2 0x21AC JUMP JUMPDEST POP SWAP5 SWAP6 SWAP5 POP POP POP POP POP JUMP JUMPDEST PUSH1 0x0 DUP2 MLOAD DUP1 DUP5 MSTORE PUSH1 0x20 DUP1 DUP6 ADD SWAP5 POP DUP1 DUP5 ADD DUP4 JUMPDEST DUP4 DUP2 LT ISZERO PUSH2 0x2210 JUMPI DUP2 MLOAD PUSH1 0xFF AND DUP8 MSTORE SWAP6 DUP3 ADD SWAP6 SWAP1 DUP3 ADD SWAP1 PUSH1 0x1 ADD PUSH2 0x222E JUMP JUMPDEST ISZERO ISZERO SWAP1 MSTORE JUMP JUMPDEST PUSH1 0x0 PUSH1 0x1 PUSH1 0x1 PUSH1 0xA0 SHL SUB DUP3 MLOAD AND DUP4 MSTORE PUSH1 0x20 DUP3 ADD MLOAD ISZERO ISZERO PUSH1 0x20 DUP5 ADD MSTORE PUSH1 0x40 DUP3 ADD MLOAD PUSH1 0xA0 PUSH1 0x40 DUP6 ADD MSTORE PUSH2 0x2287 PUSH1 0xA0 DUP6 ADD DUP3 PUSH2 0x221B JUMP JUMPDEST SWAP1 POP PUSH1 0xFF PUSH1 0x60 DUP5 ADD MLOAD AND PUSH1 0x60 DUP6 ADD MSTORE PUSH1 0x80 DUP4 ADD MLOAD PUSH1 0x80 DUP6 ADD MSTORE DUP1 SWAP2 POP POP SWAP3 SWAP2 POP POP JUMP JUMPDEST PUSH2 0xFFFF AND SWAP1 MSTORE JUMP JUMPDEST PUSH1 0xFF AND SWAP1 MSTORE JUMP JUMPDEST PUSH1 0x1 PUSH1 0x1 PUSH1 0xA0 SHL SUB SWAP2 SWAP1 SWAP2 AND DUP2 MSTORE PUSH1 0x20 ADD SWAP1 JUMP JUMPDEST PUSH1 0x0 PUSH1 0x20 DUP1 DUP4 ADD DUP2 DUP5 MSTORE DUP1 DUP6 MLOAD DUP1 DUP4 MSTORE PUSH1 0x40 DUP7 ADD SWAP2 POP PUSH1 0x40 DUP5 DUP3 MUL DUP8 ADD ADD SWAP3 POP DUP4 DUP8 ADD DUP6 JUMPDEST DUP3 DUP2 LT ISZERO PUSH2 0x2320 JUMPI PUSH1 0x3F NOT DUP9 DUP7 SUB ADD DUP5 MSTORE PUSH2 0x230E DUP6 DUP4 MLOAD PUSH2 0x2253 JUMP JUMPDEST SWAP5 POP SWAP3 DUP6 ADD SWAP3 SWAP1 DUP6 ADD SWAP1 PUSH1 0x1 ADD PUSH2 0x22F2 JUMP JUMPDEST POP SWAP3 SWAP8 SWAP7 POP POP POP POP POP POP POP JUMP JUMPDEST PUSH1 0x20 DUP1 DUP3 MSTORE DUP3 MLOAD DUP3 DUP3 ADD DUP2 SWAP1 MSTORE PUSH1 0x0 SWAP2 SWAP1 PUSH1 0x40 SWAP1 DUP2 DUP6 ADD SWAP1 DUP7 DUP5 ADD DUP6 JUMPDEST DUP3 DUP2 LT ISZERO PUSH2 0x23C8 JUMPI DUP2 MLOAD DUP1 MLOAD PUSH2 0xFFFF SWAP1 DUP2 AND DUP7 MSTORE DUP8 DUP3 ADD MLOAD DUP2 AND DUP9 DUP8 ADD MSTORE DUP7 DUP3 ADD MLOAD DUP1 MLOAD DUP3 AND DUP9 DUP9 ADD MSTORE DUP9 ADD MLOAD DUP2 AND PUSH1 0x60 DUP1 DUP9 ADD SWAP2 SWAP1 SWAP2 MSTORE DUP3 ADD MLOAD AND PUSH1 0x80 DUP1 DUP8 ADD SWAP2 SWAP1 SWAP2 MSTORE DUP2 ADD MLOAD PUSH1 0xA0 PUSH2 0x23A0 DUP2 DUP9 ADD DUP4 PUSH2 0x22AA JUMP JUMPDEST SWAP2 SWAP1 SWAP2 ADD MLOAD SWAP1 POP PUSH2 0x23B4 PUSH1 0xC0 DUP7 ADD DUP3 PUSH2 0x22AA JUMP JUMPDEST POP PUSH1 0xE0 SWAP4 SWAP1 SWAP4 ADD SWAP3 SWAP1 DUP6 ADD SWAP1 PUSH1 0x1 ADD PUSH2 0x234A JUMP JUMPDEST POP SWAP2 SWAP8 SWAP7 POP POP POP POP POP POP POP JUMP JUMPDEST PUSH1 0x20 DUP1 DUP3 MSTORE PUSH1 0x22 SWAP1 DUP3 ADD MSTORE PUSH32 0x53656C656374696F6E206E6565647320746F2068617665203420656C656D656E PUSH1 0x40 DUP3 ADD MSTORE PUSH32 0x7473000000000000000000000000000000000000000000000000000000000000 PUSH1 0x60 DUP3 ADD MSTORE PUSH1 0x80 ADD SWAP1 JUMP JUMPDEST PUSH1 0x20 DUP1 DUP3 MSTORE PUSH1 0x24 SWAP1 DUP3 ADD MSTORE PUSH32 0x43616E206F6E6C792061747461636B2061207265676973746572656420646566 PUSH1 0x40 DUP3 ADD MSTORE PUSH32 0x656E636500000000000000000000000000000000000000000000000000000000 PUSH1 0x60 DUP3 ADD MSTORE PUSH1 0x80 ADD SWAP1 JUMP JUMPDEST PUSH1 0x20 DUP1 DUP3 MSTORE PUSH1 0x16 SWAP1 DUP3 ADD MSTORE PUSH32 0x446566656E6365206E6F74207265676973746572656400000000000000000000 PUSH1 0x40 DUP3 ADD MSTORE PUSH1 0x60 ADD SWAP1 JUMP JUMPDEST PUSH1 0x20 DUP1 DUP3 MSTORE PUSH1 0x33 SWAP1 DUP3 ADD MSTORE PUSH32 0x546869732066756E6374696F6E206973207265737472696374656420746F2074 PUSH1 0x40 DUP3 ADD MSTORE PUSH32 0x686520636F6E74726163742773206F776E657200000000000000000000000000 PUSH1 0x60 DUP3 ADD MSTORE PUSH1 0x80 ADD SWAP1 JUMP JUMPDEST PUSH1 0x0 PUSH1 0x20 DUP3 MSTORE DUP3 MLOAD PUSH2 0x140 DUP1 PUSH1 0x20 DUP6 ADD MSTORE PUSH2 0x2542 PUSH2 0x160 DUP6 ADD DUP4 PUSH2 0x221B JUMP JUMPDEST SWAP2 POP PUSH1 0x20 DUP6 ADD MLOAD PUSH1 0x1F NOT DUP1 DUP7 DUP6 SUB ADD PUSH1 0x40 DUP8 ADD MSTORE PUSH2 0x2560 DUP5 DUP4 PUSH2 0x221B JUMP JUMPDEST SWAP4 POP PUSH1 0x40 DUP8 ADD MLOAD SWAP2 POP PUSH2 0x2576 PUSH1 0x60 DUP8 ADD DUP4 PUSH2 0x22B2 JUMP JUMPDEST PUSH1 0x60 DUP8 ADD MLOAD SWAP2 POP PUSH2 0x258A PUSH1 0x80 DUP8 ADD DUP4 PUSH2 0x22B2 JUMP JUMPDEST PUSH1 0x80 DUP8 ADD MLOAD SWAP2 POP DUP1 DUP7 DUP6 SUB ADD PUSH1 0xA0 DUP8 ADD MSTORE PUSH2 0x25A5 DUP5 DUP4 PUSH2 0x2199 JUMP JUMPDEST SWAP4 POP PUSH1 0xA0 DUP8 ADD MLOAD SWAP2 POP DUP1 DUP7 DUP6 SUB ADD PUSH1 0xC0 DUP8 ADD MSTORE POP PUSH2 0x25C3 DUP4 DUP3 PUSH2 0x2199 JUMP JUMPDEST SWAP3 POP POP PUSH1 0xC0 DUP6 ADD MLOAD PUSH2 0x25D8 PUSH1 0xE0 DUP7 ADD DUP3 PUSH2 0x224D JUMP JUMPDEST POP PUSH1 0xE0 DUP6 ADD MLOAD PUSH2 0x100 PUSH2 0x25ED DUP2 DUP8 ADD DUP4 PUSH2 0x224D JUMP JUMPDEST DUP7 ADD MLOAD SWAP1 POP PUSH2 0x120 PUSH2 0x2601 DUP7 DUP3 ADD DUP4 PUSH2 0x22B2 JUMP JUMPDEST SWAP6 SWAP1 SWAP6 ADD MLOAD SWAP4 ADD SWAP3 SWAP1 SWAP3 MSTORE POP SWAP2 SWAP1 POP JUMP JUMPDEST PUSH1 0x0 PUSH1 0x20 DUP3 MSTORE PUSH2 0x1CD8 PUSH1 0x20 DUP4 ADD DUP5 PUSH2 0x2253 JUMP JUMPDEST PUSH1 0x0 DUP2 DUP2 SIGNEXTEND DUP4 DUP3 SIGNEXTEND DUP3 DUP3 SLT DUP3 PUSH1 0x7F SUB DUP3 SGT DUP2 ISZERO AND ISZERO PUSH2 0x2646 JUMPI PUSH2 0x2646 PUSH2 0x2971 JUMP JUMPDEST DUP3 PUSH1 0x7F NOT SUB DUP3 SLT DUP2 AND ISZERO PUSH2 0x265C JUMPI PUSH2 0x265C PUSH2 0x2971 JUMP JUMPDEST POP ADD SWAP4 SWAP3 POP POP POP JUMP JUMPDEST PUSH1 0x0 PUSH2 0xFFFF DUP1 DUP4 AND DUP2 DUP6 AND DUP1 DUP4 SUB DUP3 GT ISZERO PUSH2 0x2682 JUMPI PUSH2 0x2682 PUSH2 0x2971 JUMP JUMPDEST ADD SWAP5 SWAP4 POP POP POP POP JUMP JUMPDEST PUSH1 0x0 PUSH4 0xFFFFFFFF DUP1 DUP4 AND DUP2 DUP6 AND DUP1 DUP4 SUB DUP3 GT ISZERO PUSH2 0x2682 JUMPI PUSH2 0x2682 PUSH2 0x2971 JUMP JUMPDEST PUSH1 0x0 DUP3 PUSH2 0x26B9 JUMPI PUSH2 0x26B9 PUSH2 0x2987 JUMP JUMPDEST POP DIV SWAP1 JUMP JUMPDEST PUSH1 0x0 PUSH4 0xFFFFFFFF DUP1 DUP5 AND DUP1 PUSH2 0x26D5 JUMPI PUSH2 0x26D5 PUSH2 0x2987 JUMP JUMPDEST SWAP3 AND SWAP2 SWAP1 SWAP2 DIV SWAP3 SWAP2 POP POP JUMP JUMPDEST PUSH1 0x0 DUP2 PUSH1 0x1 SIGNEXTEND DUP4 PUSH1 0x1 SIGNEXTEND PUSH2 0x7FFF DUP4 DUP3 SGT DUP5 DUP5 SGT DUP4 DUP4 DIV DUP6 GT DUP3 DUP3 AND AND ISZERO PUSH2 0x270A JUMPI PUSH2 0x270A PUSH2 0x2971 JUMP JUMPDEST PUSH2 0x7FFF NOT DUP7 DUP6 SLT DUP3 DUP2 AND DUP8 DUP4 SDIV DUP8 SLT AND ISZERO PUSH2 0x2727 JUMPI PUSH2 0x2727 PUSH2 0x2971 JUMP JUMPDEST DUP8 DUP8 SLT SWAP3 POP DUP6 DUP3 SDIV DUP8 SLT DUP5 DUP5 AND AND ISZERO PUSH2 0x2742 JUMPI PUSH2 0x2742 PUSH2 0x2971 JUMP JUMPDEST DUP6 DUP6 SDIV DUP8 SLT DUP2 DUP5 AND AND ISZERO PUSH2 0x2758 JUMPI PUSH2 0x2758 PUSH2 0x2971 JUMP JUMPDEST POP POP POP SWAP3 SWAP1 SWAP2 MUL SWAP6 SWAP5 POP POP POP POP POP JUMP JUMPDEST PUSH1 0x0 PUSH2 0xFFFF DUP1 DUP4 AND DUP2 DUP6 AND DUP2 DUP4 DIV DUP2 GT DUP3 ISZERO ISZERO AND ISZERO PUSH2 0x2789 JUMPI PUSH2 0x2789 PUSH2 0x2971 JUMP JUMPDEST MUL SWAP5 SWAP4 POP POP POP POP JUMP JUMPDEST PUSH1 0x0 PUSH4 0xFFFFFFFF DUP1 DUP4 AND DUP2 DUP6 AND DUP2 DUP4 DIV DUP2 GT DUP3 ISZERO ISZERO AND ISZERO PUSH2 0x2789 JUMPI PUSH2 0x2789 PUSH2 0x2971 JUMP JUMPDEST PUSH1 0x0 PUSH1 0xFF DUP3 AND PUSH1 0xFF DUP5 AND DUP2 PUSH1 0xFF DIV DUP2 GT DUP3 ISZERO ISZERO AND ISZERO PUSH2 0x27D6 JUMPI PUSH2 0x27D6 PUSH2 0x2971 JUMP JUMPDEST MUL SWAP4 SWAP3 POP POP POP JUMP JUMPDEST PUSH1 0x0 DUP2 PUSH1 0x1 SIGNEXTEND DUP4 PUSH1 0x1 SIGNEXTEND DUP3 DUP2 SLT DUP2 PUSH2 0x7FFF NOT ADD DUP4 SLT DUP2 ISZERO AND ISZERO PUSH2 0x2803 JUMPI PUSH2 0x2803 PUSH2 0x2971 JUMP JUMPDEST DUP2 PUSH2 0x7FFF ADD DUP4 SGT DUP2 AND ISZERO PUSH2 0x2819 JUMPI PUSH2 0x2819 PUSH2 0x2971 JUMP JUMPDEST POP SWAP1 SUB SWAP4 SWAP3 POP POP POP JUMP JUMPDEST PUSH1 0x0 DUP2 PUSH1 0x3 SIGNEXTEND DUP4 PUSH1 0x3 SIGNEXTEND DUP3 DUP2 SLT DUP2 PUSH4 0x7FFFFFFF NOT ADD DUP4 SLT DUP2 ISZERO AND ISZERO PUSH2 0x284A JUMPI PUSH2 0x284A PUSH2 0x2971 JUMP JUMPDEST DUP2 PUSH4 0x7FFFFFFF ADD DUP4 SGT DUP2 AND ISZERO PUSH2 0x2819 JUMPI PUSH2 0x2819 PUSH2 0x2971 JUMP JUMPDEST PUSH1 0x0 DUP2 DUP2 SIGNEXTEND DUP4 DUP3 SIGNEXTEND DUP3 DUP2 SLT DUP1 ISZERO PUSH1 0x7F NOT DUP4 ADD DUP5 SLT AND ISZERO PUSH2 0x2884 JUMPI PUSH2 0x2884 PUSH2 0x2971 JUMP JUMPDEST DUP2 PUSH1 0x7F ADD DUP4 SGT DUP2 AND ISZERO PUSH2 0x2819 JUMPI PUSH2 0x2819 PUSH2 0x2971 JUMP JUMPDEST PUSH1 0x0 PUSH2 0xFFFF DUP4 DUP2 AND SWAP1 DUP4 AND DUP2 DUP2 LT ISZERO PUSH2 0x28B4 JUMPI PUSH2 0x28B4 PUSH2 0x2971 JUMP JUMPDEST SUB SWAP4 SWAP3 POP POP POP JUMP JUMPDEST PUSH1 0x0 PUSH1 0xFF DUP3 AND PUSH1 0xFF DUP5 AND DUP1 DUP3 LT ISZERO PUSH2 0x28D6 JUMPI PUSH2 0x28D6 PUSH2 0x2971 JUMP JUMPDEST SWAP1 SUB SWAP4 SWAP3 POP POP POP JUMP JUMPDEST PUSH1 0x0 DUP2 DUP2 SIGNEXTEND PUSH1 0x7F NOT DUP2 EQ ISZERO PUSH2 0x28F6 JUMPI PUSH2 0x28F6 PUSH2 0x2971 JUMP JUMPDEST PUSH1 0x0 NOT ADD SWAP3 SWAP2 POP POP JUMP JUMPDEST PUSH1 0x0 PUSH2 0xFFFF DUP1 DUP4 AND DUP2 DUP2 EQ ISZERO PUSH2 0x2918 JUMPI PUSH2 0x2918 PUSH2 0x2971 JUMP JUMPDEST PUSH1 0x1 ADD SWAP4 SWAP3 POP POP POP JUMP JUMPDEST PUSH1 0x0 PUSH1 0x0 NOT DUP3 EQ ISZERO PUSH2 0x2936 JUMPI PUSH2 0x2936 PUSH2 0x2971 JUMP JUMPDEST POP PUSH1 0x1 ADD SWAP1 JUMP JUMPDEST PUSH1 0x0 PUSH1 0xFF DUP3 AND PUSH1 0xFF DUP2 EQ ISZERO PUSH2 0x2954 JUMPI PUSH2 0x2954 PUSH2 0x2971 JUMP JUMPDEST PUSH1 0x1 ADD SWAP3 SWAP2 POP POP JUMP JUMPDEST PUSH1 0x0 DUP3 PUSH2 0x296C JUMPI PUSH2 0x296C PUSH2 0x2987 JUMP JUMPDEST POP MOD SWAP1 JUMP JUMPDEST PUSH4 0x4E487B71 PUSH1 0xE0 SHL PUSH1 0x0 MSTORE PUSH1 0x11 PUSH1 0x4 MSTORE PUSH1 0x24 PUSH1 0x0 REVERT JUMPDEST PUSH4 0x4E487B71 PUSH1 0xE0 SHL PUSH1 0x0 MSTORE PUSH1 0x12 PUSH1 0x4 MSTORE PUSH1 0x24 PUSH1 0x0 REVERT JUMPDEST PUSH4 0x4E487B71 PUSH1 0xE0 SHL PUSH1 0x0 MSTORE PUSH1 0x41 PUSH1 0x4 MSTORE PUSH1 0x24 PUSH1 0x0 REVERT INVALID LOG2 PUSH5 0x6970667358 0x22 SLT KECCAK256 PUSH12 0x8E665A301A67E60B6724DFF4 0xBF SWAP4 0xDB 0x48 0x4D 0xD0 0x29 SUB CODESIZE CHAINID MOD LOG2 0xC9 MOD 0xD3 EXTCODECOPY 0x4E SLT 0xDD PUSH5 0x736F6C6343 STOP ADDMOD ADD STOP CALLER "
        },
        "methodIdentifiers": {
          "addShip(uint16,uint16,uint16,uint16,uint16,uint16,uint16,uint16)": "5afa3bf5",
          "attack(address,uint8[],uint8)": "62a74512",
          "getAllDefenders()": "7af584de",
          "getOwnDefence()": "d43b838c",
          "getShips()": "6738f234",
          "owner()": "8da5cb5b",
          "registerDefence(uint8[],uint8,bytes32)": "d2eaefdb",
          "replay(uint256,uint8[],uint8[],uint8,uint8)": "0d055a47"
        }
      }
    }
  }
}