{
  "contracts/NewOmega.sol": {
    "NewOmega": {
      "abi": [
        {
          "anonymous": false,
          "inputs": [
            {
              "indexed": true,
              "internalType": "address",
              "name": "attacker",
              "type": "address"
            },
            {
              "indexed": true,
              "internalType": "address",
              "name": "defender",
              "type": "address"
            },
            {
              "components": [
                {
                  "internalType": "uint8[]",
                  "name": "selectionLhs",
                  "type": "uint8[]"
                },
                {
                  "internalType": "uint8[]",
                  "name": "selectionRhs",
                  "type": "uint8[]"
                },
                {
                  "internalType": "uint8",
                  "name": "commanderLhs",
                  "type": "uint8"
                },
                {
                  "internalType": "uint8",
                  "name": "commanderRhs",
                  "type": "uint8"
                },
                {
                  "components": [
                    {
                      "internalType": "uint8",
                      "name": "moveType",
                      "type": "uint8"
                    },
                    {
                      "internalType": "uint8",
                      "name": "round",
                      "type": "uint8"
                    },
                    {
                      "internalType": "uint8",
                      "name": "source",
                      "type": "uint8"
                    },
                    {
                      "internalType": "uint8",
                      "name": "target",
                      "type": "uint8"
                    },
                    {
                      "internalType": "int8",
                      "name": "targetPosition",
                      "type": "int8"
                    },
                    {
                      "internalType": "uint32",
                      "name": "damage",
                      "type": "uint32"
                    }
                  ],
                  "internalType": "struct Move[]",
                  "name": "lhs",
                  "type": "tuple[]"
                },
                {
                  "components": [
                    {
                      "internalType": "uint8",
                      "name": "moveType",
                      "type": "uint8"
                    },
                    {
                      "internalType": "uint8",
                      "name": "round",
                      "type": "uint8"
                    },
                    {
                      "internalType": "uint8",
                      "name": "source",
                      "type": "uint8"
                    },
                    {
                      "internalType": "uint8",
                      "name": "target",
                      "type": "uint8"
                    },
                    {
                      "internalType": "int8",
                      "name": "targetPosition",
                      "type": "int8"
                    },
                    {
                      "internalType": "uint32",
                      "name": "damage",
                      "type": "uint32"
                    }
                  ],
                  "internalType": "struct Move[]",
                  "name": "rhs",
                  "type": "tuple[]"
                },
                {
                  "internalType": "bool",
                  "name": "lhsDead",
                  "type": "bool"
                },
                {
                  "internalType": "bool",
                  "name": "rhsDead",
                  "type": "bool"
                },
                {
                  "internalType": "uint8",
                  "name": "rounds",
                  "type": "uint8"
                },
                {
                  "internalType": "uint256",
                  "name": "seed",
                  "type": "uint256"
                }
              ],
              "indexed": false,
              "internalType": "struct FightResult",
              "name": "result",
              "type": "tuple"
            }
          ],
          "name": "FightComplete",
          "type": "event"
        },
        {
          "inputs": [
            {
              "internalType": "uint16",
              "name": "index",
              "type": "uint16"
            },
            {
              "internalType": "uint16",
              "name": "cp",
              "type": "uint16"
            },
            {
              "internalType": "uint16",
              "name": "hp",
              "type": "uint16"
            },
            {
              "internalType": "uint16",
              "name": "attackBase",
              "type": "uint16"
            },
            {
              "internalType": "uint16",
              "name": "attackVariable",
              "type": "uint16"
            },
            {
              "internalType": "uint16",
              "name": "defence",
              "type": "uint16"
            },
            {
              "internalType": "uint16",
              "name": "speed",
              "type": "uint16"
            },
            {
              "internalType": "uint16",
              "name": "range",
              "type": "uint16"
            },
            {
              "internalType": "uint16",
              "name": "agility",
              "type": "uint16"
            }
          ],
          "name": "addShip",
          "outputs": [],
          "stateMutability": "nonpayable",
          "type": "function"
        },
        {
          "inputs": [
            {
              "internalType": "address",
              "name": "enemy",
              "type": "address"
            },
            {
              "internalType": "uint8[]",
              "name": "selection",
              "type": "uint8[]"
            },
            {
              "internalType": "uint8",
              "name": "commander",
              "type": "uint8"
            }
          ],
          "name": "attack",
          "outputs": [],
          "stateMutability": "nonpayable",
          "type": "function"
        },
        {
          "inputs": [],
          "name": "getAllDefenders",
          "outputs": [
            {
              "components": [
                {
                  "internalType": "address",
                  "name": "player",
                  "type": "address"
                },
                {
                  "internalType": "bool",
                  "name": "isInitialised",
                  "type": "bool"
                },
                {
                  "internalType": "uint8[]",
                  "name": "defenceSelection",
                  "type": "uint8[]"
                },
                {
                  "internalType": "uint8",
                  "name": "commander",
                  "type": "uint8"
                },
                {
                  "internalType": "bytes32",
                  "name": "name",
                  "type": "bytes32"
                }
              ],
              "internalType": "struct PlayerDefence[]",
              "name": "",
              "type": "tuple[]"
            }
          ],
          "stateMutability": "view",
          "type": "function"
        },
        {
          "inputs": [],
          "name": "getLeaderboard",
          "outputs": [
            {
              "components": [
                {
                  "internalType": "address",
                  "name": "player",
                  "type": "address"
                },
                {
                  "internalType": "bytes32",
                  "name": "name",
                  "type": "bytes32"
                },
                {
                  "internalType": "uint32",
                  "name": "wins",
                  "type": "uint32"
                },
                {
                  "internalType": "uint32",
                  "name": "losses",
                  "type": "uint32"
                }
              ],
              "internalType": "struct LeaderboardEntry[]",
              "name": "",
              "type": "tuple[]"
            }
          ],
          "stateMutability": "view",
          "type": "function"
        },
        {
          "inputs": [],
          "name": "getOwnDefence",
          "outputs": [
            {
              "components": [
                {
                  "internalType": "address",
                  "name": "player",
                  "type": "address"
                },
                {
                  "internalType": "bool",
                  "name": "isInitialised",
                  "type": "bool"
                },
                {
                  "internalType": "uint8[]",
                  "name": "defenceSelection",
                  "type": "uint8[]"
                },
                {
                  "internalType": "uint8",
                  "name": "commander",
                  "type": "uint8"
                },
                {
                  "internalType": "bytes32",
                  "name": "name",
                  "type": "bytes32"
                }
              ],
              "internalType": "struct PlayerDefence",
              "name": "",
              "type": "tuple"
            }
          ],
          "stateMutability": "view",
          "type": "function"
        },
        {
          "inputs": [],
          "name": "getShips",
          "outputs": [
            {
              "components": [
                {
                  "internalType": "uint16",
                  "name": "cp",
                  "type": "uint16"
                },
                {
                  "internalType": "uint16",
                  "name": "hp",
                  "type": "uint16"
                },
                {
                  "components": [
                    {
                      "internalType": "uint16",
                      "name": "base",
                      "type": "uint16"
                    },
                    {
                      "internalType": "uint16",
                      "name": "variable",
                      "type": "uint16"
                    }
                  ],
                  "internalType": "struct ShipVariableStat",
                  "name": "attack",
                  "type": "tuple"
                },
                {
                  "internalType": "uint16",
                  "name": "defence",
                  "type": "uint16"
                },
                {
                  "internalType": "uint16",
                  "name": "speed",
                  "type": "uint16"
                },
                {
                  "internalType": "uint16",
                  "name": "range",
                  "type": "uint16"
                },
                {
                  "internalType": "uint16",
                  "name": "agility",
                  "type": "uint16"
                }
              ],
              "internalType": "struct Ship[]",
              "name": "",
              "type": "tuple[]"
            }
          ],
          "stateMutability": "view",
          "type": "function"
        },
        {
          "inputs": [],
          "name": "owner",
          "outputs": [
            {
              "internalType": "address",
              "name": "",
              "type": "address"
            }
          ],
          "stateMutability": "view",
          "type": "function"
        },
        {
          "inputs": [
            {
              "internalType": "uint8[]",
              "name": "defence",
              "type": "uint8[]"
            },
            {
              "internalType": "uint8",
              "name": "commander",
              "type": "uint8"
            },
            {
              "internalType": "bytes32",
              "name": "name",
              "type": "bytes32"
            }
          ],
          "name": "registerDefence",
          "outputs": [],
          "stateMutability": "nonpayable",
          "type": "function"
        },
        {
          "inputs": [
            {
              "internalType": "uint256",
              "name": "seed",
              "type": "uint256"
            },
            {
              "internalType": "uint8[]",
              "name": "selectionLhs",
              "type": "uint8[]"
            },
            {
              "internalType": "uint8[]",
              "name": "selectionRhs",
              "type": "uint8[]"
            },
            {
              "internalType": "uint8",
              "name": "commanderLhs",
              "type": "uint8"
            },
            {
              "internalType": "uint8",
              "name": "commanderRhs",
              "type": "uint8"
            }
          ],
          "name": "replay",
          "outputs": [
            {
              "components": [
                {
                  "internalType": "uint8[]",
                  "name": "selectionLhs",
                  "type": "uint8[]"
                },
                {
                  "internalType": "uint8[]",
                  "name": "selectionRhs",
                  "type": "uint8[]"
                },
                {
                  "internalType": "uint8",
                  "name": "commanderLhs",
                  "type": "uint8"
                },
                {
                  "internalType": "uint8",
                  "name": "commanderRhs",
                  "type": "uint8"
                },
                {
                  "components": [
                    {
                      "internalType": "uint8",
                      "name": "moveType",
                      "type": "uint8"
                    },
                    {
                      "internalType": "uint8",
                      "name": "round",
                      "type": "uint8"
                    },
                    {
                      "internalType": "uint8",
                      "name": "source",
                      "type": "uint8"
                    },
                    {
                      "internalType": "uint8",
                      "name": "target",
                      "type": "uint8"
                    },
                    {
                      "internalType": "int8",
                      "name": "targetPosition",
                      "type": "int8"
                    },
                    {
                      "internalType": "uint32",
                      "name": "damage",
                      "type": "uint32"
                    }
                  ],
                  "internalType": "struct Move[]",
                  "name": "lhs",
                  "type": "tuple[]"
                },
                {
                  "components": [
                    {
                      "internalType": "uint8",
                      "name": "moveType",
                      "type": "uint8"
                    },
                    {
                      "internalType": "uint8",
                      "name": "round",
                      "type": "uint8"
                    },
                    {
                      "internalType": "uint8",
                      "name": "source",
                      "type": "uint8"
                    },
                    {
                      "internalType": "uint8",
                      "name": "target",
                      "type": "uint8"
                    },
                    {
                      "internalType": "int8",
                      "name": "targetPosition",
                      "type": "int8"
                    },
                    {
                      "internalType": "uint32",
                      "name": "damage",
                      "type": "uint32"
                    }
                  ],
                  "internalType": "struct Move[]",
                  "name": "rhs",
                  "type": "tuple[]"
                },
                {
                  "internalType": "bool",
                  "name": "lhsDead",
                  "type": "bool"
                },
                {
                  "internalType": "bool",
                  "name": "rhsDead",
                  "type": "bool"
                },
                {
                  "internalType": "uint8",
                  "name": "rounds",
                  "type": "uint8"
                },
                {
                  "internalType": "uint256",
                  "name": "seed",
                  "type": "uint256"
                }
              ],
              "internalType": "struct FightResult",
              "name": "",
              "type": "tuple"
            }
          ],
          "stateMutability": "view",
          "type": "function"
        }
      ],
      "evm": {
        "bytecode": {
          "linkReferences": {},
          "object": "6080604052600080546001600160a01b0319163317905534801561002257600080fd5b5061301c806100326000396000f3fe608060405234801561001057600080fd5b50600436106100a35760003560e01c80637af584de11610076578063c0d0504a1161005b578063c0d0504a1461013a578063d2eaefdb1461014d578063d43b838c14610160576100a3565b80637af584de146101105780638da5cb5b14610125576100a3565b80630d055a47146100a857806362a74512146100d15780636738f234146100e65780636d763a6e146100fb575b600080fd5b6100bb6100b636600461265e565b610175565b6040516100c89190612b31565b60405180910390f35b6100e46100df3660046124f9565b6102a8565b005b6100ee610560565b6040516100c8919061292f565b610103610657565b6040516100c89190612859565b6101186107ac565b6040516100c891906128cf565b61012d61095b565b6040516100c89190612845565b6100e46101483660046125b7565b61096a565b6100e461015b366004612562565b610c9a565b610168610ec6565b6040516100c89190612c20565b61017d61226a565b84516004146101a75760405162461bcd60e51b815260040161019e906129e3565b60405180910390fd5b83516004146101c85760405162461bcd60e51b815260040161019e906129e3565b61029c8660016002805480602002602001604051908101604052809291908181526020016000905b8282101561028f5760008481526020908190206040805160e08101825260038602909201805461ffff80821685526201000091829004811685870152835180850185526001808501548084168352849004831682890152948601526002909201548083166060860152908104821660808501526401000000008104821660a0850152660100000000000090041660c083015290835290920191016101f0565b5050505088888888610fcc565b90505b95945050505050565b6001600160a01b038316600090815260056020526040902054600160a01b900460ff166102e75760405162461bcd60e51b815260040161019e90612a40565b60004442336040516020016102fe9392919061280a565b60408051601f1981840301815282825280516020918201206001600160a01b038816600090815260058352838120600101805480850287018501909552848652919550936103c49386938993919083018282801561039957602002820191906000526020600020906000905b825461010083900a900460ff1681526020600192830181810494850194909303909202910180841161036a5790505b505050506001600160a01b038a1660009081526005602052604090206002015488915060ff166119b0565b90508060c001511561046c576001600160a01b03851660009081526003602052604090208054610100900463ffffffff1690600161040183612f56565b82546101009290920a63ffffffff81810219909316918316021790915533600090815260036020526040902080546501000000000090049091169150600561044883612f56565b91906101000a81548163ffffffff021916908363ffffffff1602179055505061050e565b8060e001511561050e573360009081526003602052604090208054610100900463ffffffff1690600161049e83612f56565b82546101009290920a63ffffffff8181021990931691831602179091556001600160a01b03871660009081526003602052604090208054650100000000009004909116915060056104ee83612f56565b91906101000a81548163ffffffff021916908363ffffffff160217905550505b846001600160a01b0316336001600160a01b03167f1275943aed9ea3363652d9ca6a1546f6ed7e494c27258293820c31d0a36a8925836040516105519190612b31565b60405180910390a35050505050565b6000546060906001600160a01b0316331461058d5760405162461bcd60e51b815260040161019e90612ad4565b6002805480602002602001604051908101604052809291908181526020016000905b8282101561064e5760008481526020908190206040805160e08101825260038602909201805461ffff80821685526201000091829004811685870152835180850185526001808501548084168352849004831682890152948601526002909201548083166060860152908104821660808501526401000000008104821660a0850152660100000000000090041660c083015290835290920191016105af565b50505050905090565b60045460609060009067ffffffffffffffff81111561068657634e487b7160e01b600052604160045260246000fd5b6040519080825280602002602001820160405280156106bf57816020015b6106ac6122bd565b8152602001906001900390816106a45790505b50905060005b6004548110156107a6576000600482815481106106f257634e487b7160e01b600052603260045260246000fd5b6000918252602080832090910154604080516080810182526001600160a01b0390921680835280855260058452818520600390810154848601528186528085528286205463ffffffff610100820481169486019490945295829052909352650100000000009093049092166060830152845190925084908490811061078757634e487b7160e01b600052603260045260246000fd5b602002602001018190525050808061079e90612f3b565b9150506106c5565b50905090565b60065460609060009067ffffffffffffffff8111156107db57634e487b7160e01b600052604160045260246000fd5b60405190808252806020026020018201604052801561081457816020015b6108016122e4565b8152602001906001900390816107f95790505b50905060005b6006548110156107a657600560006006838154811061084957634e487b7160e01b600052603260045260246000fd5b6000918252602080832091909101546001600160a01b039081168452838201949094526040928301909120825160a08101845281549485168152600160a01b90940460ff16151584830152600181018054845181850281018501865281815292948601938301828280156108fa57602002820191906000526020600020906000905b825461010083900a900460ff168152602060019283018181049485019490930390920291018084116108cb5790505b5050509183525050600282015460ff166020820152600390910154604090910152825183908390811061093d57634e487b7160e01b600052603260045260246000fd5b6020026020010181905250808061095390612f3b565b91505061081a565b6000546001600160a01b031681565b6000546001600160a01b031633146109945760405162461bcd60e51b815260040161019e90612ad4565b60006040518060e001604052808a61ffff1681526020018961ffff16815260200160405180604001604052808a61ffff1681526020018961ffff1681525081526020018661ffff1681526020018561ffff1681526020018461ffff1681526020018361ffff16815250905080600160008c61ffff16815260200190815260200160002060008201518160000160006101000a81548161ffff021916908361ffff16021790555060208201518160000160026101000a81548161ffff021916908361ffff16021790555060408201518160010160008201518160000160006101000a81548161ffff021916908361ffff16021790555060208201518160000160026101000a81548161ffff021916908361ffff160217905550505060608201518160020160006101000a81548161ffff021916908361ffff16021790555060808201518160020160026101000a81548161ffff021916908361ffff16021790555060a08201518160020160046101000a81548161ffff021916908361ffff16021790555060c08201518160020160066101000a81548161ffff021916908361ffff160217905550905050600281908060018154018082558091505060019003906000526020600020906003020160009091909190915060008201518160000160006101000a81548161ffff021916908361ffff16021790555060208201518160000160026101000a81548161ffff021916908361ffff16021790555060408201518160010160008201518160000160006101000a81548161ffff021916908361ffff16021790555060208201518160000160026101000a81548161ffff021916908361ffff160217905550505060608201518160020160006101000a81548161ffff021916908361ffff16021790555060808201518160020160026101000a81548161ffff021916908361ffff16021790555060a08201518160020160046101000a81548161ffff021916908361ffff16021790555060c08201518160020160066101000a81548161ffff021916908361ffff160217905550505050505050505050505050565b6040805160a08101825233808252600160208084019190915282840187905260ff80871660608501526080840186905260009283526005909152929020549091600160a01b90910416610d3757600680546001810182556000919091527ff652222313e28459528d920b65115c16c04f3efc82aaedc97be59f3f377c0d3f01805473ffffffffffffffffffffffffffffffffffffffff1916331790555b3360009081526005602090815260409182902083518154838601511515600160a01b027fffffffffffffffffffffff00ffffffffffffffffffffffffffffffffffffffff6001600160a01b039390931673ffffffffffffffffffffffffffffffffffffffff199092169190911791909116178155918301518051849392610dc5926001850192910190612313565b50606082015160028201805460ff191660ff928316179055608090920151600391820155336000908152602091909152604090205416610ec05760408051606081018252600180825260006020808401828152848601838152338085526003909352958320945185549151965160ff199092169015151764ffffffff00191661010063ffffffff978816021768ffffffff00000000001916650100000000009690911695909502949094179092556004805491820181559091527f8a35acfbc15ff81a39ae7d344fd709f28e8600b4aa8c65c6b64bfe7fe36bd19b01805473ffffffffffffffffffffffffffffffffffffffff191690911790555b50505050565b610ece6122e4565b33600090815260056020526040902054600160a01b900460ff16610f045760405162461bcd60e51b815260040161019e90612a9d565b33600090815260056020908152604091829020825160a08101845281546001600160a01b0381168252600160a01b900460ff1615158184015260018201805485518186028101860187528181529295939493860193830182828015610fa657602002820191906000526020600020906000905b825461010083900a900460ff16815260206001928301818104948501949093039092029101808411610f775790505b5050509183525050600282015460ff166020820152600390910154604090910152905090565b610fd461226a565b8451600414610ff55760405162461bcd60e51b815260040161019e906129e3565b83516004146110165760405162461bcd60e51b815260040161019e906129e3565b60408051600480825260a0820190925260009160208201608080368337019050509050600a8160008151811061105c57634e487b7160e01b600052603260045260246000fd5b602002602001019060000b908160000b81525050600b8160018151811061109357634e487b7160e01b600052603260045260246000fd5b602002602001019060000b908160000b81525050600c816002815181106110ca57634e487b7160e01b600052603260045260246000fd5b602002602001019060000b908160000b81525050600d8160038151811061110157634e487b7160e01b600052603260045260246000fd5b600092830b830b602091820292909201015260408051600480825260a08201909252908160200160208202803683370190505090506009198160008151811061115a57634e487b7160e01b600052603260045260246000fd5b602002602001019060000b908160000b81525050600a198160018151811061119257634e487b7160e01b600052603260045260246000fd5b602002602001019060000b908160000b81525050600b19816002815181106111ca57634e487b7160e01b600052603260045260246000fd5b602002602001019060000b908160000b81525050600c198160038151811061120257634e487b7160e01b600052603260045260246000fd5b600092830b830b602091820292909201015260408051600480825260a0820190925290816020016020820280368337505060408051600480825260a0820190925292935060009291506020820160808036833701905050905060005b600461ffff821610156113c857898161ffff168151811061128f57634e487b7160e01b600052603260045260246000fd5b602002602001015160ff168b8261ffff16815181106112be57634e487b7160e01b600052603260045260246000fd5b60200260200101516020015161ffff166112d89190612d7f565b838261ffff16815181106112fc57634e487b7160e01b600052603260045260246000fd5b602002602001019060070b908160070b81525050888161ffff168151811061133457634e487b7160e01b600052603260045260246000fd5b602002602001015160ff168b8261ffff168151811061136357634e487b7160e01b600052603260045260246000fd5b60200260200101516020015161ffff1661137d9190612d7f565b828261ffff16815181106113a157634e487b7160e01b600052603260045260246000fd5b602002602001019060070b908160070b8152505080806113c090612f19565b91505061125e565b506113d16123b9565b8b156114c0576113e360046014612e1e565b60ff1667ffffffffffffffff81111561140c57634e487b7160e01b600052604160045260246000fd5b60405190808252806020026020018201604052801561144557816020015b6114326123ed565b81526020019060019003908161142a5790505b50606082015261145760046014612e1e565b60ff1667ffffffffffffffff81111561148057634e487b7160e01b600052604160045260246000fd5b6040519080825280602002602001820160405280156114b957816020015b6114a66123ed565b81526020019060019003908161149e5790505b5060808201525b600081525b8051601460ff9091161080156114e157506114df83611abb565b155b80156114f357506114f182611abb565b155b1561192a57600060a08201525b600460ff168160a0015160ff161015611713576000838260a0015160ff168151811061153c57634e487b7160e01b600052603260045260246000fd5b602002602001015160070b13156116f85760006115608c8360a00151888887611b1d565b905060008160000b126116395760006115ae8f8e8560a0015185898860a0015160ff16815181106115a157634e487b7160e01b600052603260045260246000fd5b6020026020010151611c84565b90508063ffffffff16848360ff16815181106115da57634e487b7160e01b600052603260045260246000fd5b602002602001018181516115ee9190612e8c565b600790810b900b9052508d15611633576020830180516116339161161182612f70565b60ff1660ff1681525060ff16846000015185606001518660a001518686611e7d565b506116f6565b6116538c60018460a0015160ff166000198a8a8a8a611ef7565b868360a0015160ff168151811061167a57634e487b7160e01b600052603260045260246000fd5b602002602001019060000b908160000b815250508c156116f6576020820180516116f6916116a782612f70565b60ff1660ff1681525060ff16836000015184606001518560a001518a8760a0015160ff16815181106116e957634e487b7160e01b600052603260045260246000fd5b602002602001015161206d565b505b60a0810180519061170882612f70565b60ff16905250611500565b600060a08201525b600460ff168160a0015160ff161015611913576000828260a0015160ff168151811061175757634e487b7160e01b600052603260045260246000fd5b602002602001015160070b13156118f857600061177b8c8360a00151878988611b1d565b905060008160000b126118475760006117bc8f8e8560a0015185888860a0015160ff16815181106115a157634e487b7160e01b600052603260045260246000fd5b90508063ffffffff16858360ff16815181106117e857634e487b7160e01b600052603260045260246000fd5b602002602001018181516117fc9190612e8c565b600790810b900b9052508d15611841576040830180516118419161181f82612f70565b60ff1660ff1681525060ff16846000015185608001518660a001518686611e7d565b506118f6565b6118608c60008460a0015160ff1660018a8a8a8a611ef7565b858360a0015160ff168151811061188757634e487b7160e01b600052603260045260246000fd5b602002602001019060000b908160000b815250508c156118f6576040820180516118f6916118b482612f70565b60ff1660ff1681525060ff16836000015184608001518560a00151898760a0015160ff16815181106116e957634e487b7160e01b600052603260045260246000fd5b505b60a0810180519061190882612f70565b60ff1690525061171b565b80518161191f82612f70565b60ff169052506114c5565b60609350606094506040518061014001604052808b81526020018a81526020018960ff1681526020018860ff168152602001826060015181526020018260800151815260200161197985611abb565b1515815260200161198984611abb565b15158152915160ff16602083015260409091018d9052945050505050979650505050505050565b6119b861226a565b84516004146119d95760405162461bcd60e51b815260040161019e906129e3565b83516004146119fa5760405162461bcd60e51b815260040161019e906129e3565b600280546040805160208084028201810190925282815261029c938a9360009384908401821561028f5760008481526020908190206040805160e08101825260038602909201805461ffff80821685526201000091829004811685870152835180850185526001808501548084168352849004831682890152948601526002909201548083166060860152908104821660808501526401000000008104821660a0850152660100000000000090041660c083015290835290920191016101f0565b60006001815b6004811015611b14576000848281518110611aec57634e487b7160e01b600052603260045260246000fd5b602002602001015160070b1315611b0257600091505b80611b0c81612f3b565b915050611ac1565b5090505b919050565b600080848660ff1681518110611b4357634e487b7160e01b600052603260045260246000fd5b602002602001015160000b90506000661fffffffffffff90506000805b600460ff82161015611c5a576000878260ff1681518110611b9157634e487b7160e01b600052603260045260246000fd5b602002602001015190506000611bb48260000b87611baf9190612e47565b6120dc565b90506000888460ff1681518110611bdb57634e487b7160e01b600052603260045260246000fd5b602002602001015160070b138015611c2957508b8b60ff1681518110611c1157634e487b7160e01b600052603260045260246000fd5b602002602001015160a0015161ffff168161ffff1611155b15611c4557848161ffff161015611c45578061ffff1694508293505b50508080611c5290612f70565b915050611b60565b5060009250661fffffffffffff8214611c735780611c77565b6000195b9998505050505050505050565b600080858560ff1681518110611caa57634e487b7160e01b600052603260045260246000fd5b6020026020010151604001516020015161ffff1687611cc99190612f90565b868660ff1681518110611cec57634e487b7160e01b600052603260045260246000fd5b60200260200101516040015160000151611d069190612c73565b90506000868560ff1681518110611d2d57634e487b7160e01b600052603260045260246000fd5b60200260200101516060015190506000878660ff1681518110611d6057634e487b7160e01b600052603260045260246000fd5b602002602001015160c001516064611d789190612ed3565b90506000600a82611d898587612ed3565b611d939190612dd1565b611d9d9190612cbc565b61ffff1690506000898960ff1681518110611dc857634e487b7160e01b600052603260045260246000fd5b60200260200101516020015161ffff1687611de39190612cdd565b611dee906001612c99565b905060008a8960ff1681518110611e1557634e487b7160e01b600052603260045260246000fd5b60200260200101516020015161ffff168261ffff16611e349190612dfb565b90506000611e4661ffff841685612dfb565b905060009650600095506000945060009250611e6c611e66600083612102565b83612120565b9d9c50505050505050505050505050565b6040518060c00160405280600160ff1681526020018660ff1681526020018460ff1681526020018360ff1681526020016000800b81526020018263ffffffff16815250848761ffff1681518110611ee457634e487b7160e01b600052603260045260246000fd5b6020026020010181905250505050505050565b600080898861ffff1681518110611f1e57634e487b7160e01b600052603260045260246000fd5b6020026020010151608001519050600089611f6457858961ffff1681518110611f5757634e487b7160e01b600052603260045260246000fd5b6020026020010151611f91565b868961ffff1681518110611f8857634e487b7160e01b600052603260045260246000fd5b60200260200101515b9050815b60008160010b131561205e5760008b611fed57611fb2828b612cf8565b888c61ffff1681518110611fd657634e487b7160e01b600052603260045260246000fd5b6020026020010151611fe89190612c33565b61202d565b611ff7828b612cf8565b898c61ffff168151811061201b57634e487b7160e01b600052603260045260246000fd5b602002602001015161202d9190612c33565b905061203f8160000b8a8a8a8a612135565b1561204b57915061205e565b508061205681612ef6565b915050611f95565b509a9950505050505050505050565b6040805160c0810182526002815260ff868116602083015284169181019190915260006060820181905282810b608083015260a08201528351849061ffff88169081106120ca57634e487b7160e01b600052603260045260246000fd5b60200260200101819052505050505050565b6000808260010b126120ef575080611b18565b6120fb82600019612cf8565b9050611b18565b60008160030b8360030b136121175781612119565b825b9392505050565b60008160030b8360030b126121175781612119565b6000600f612142876120dc565b61ffff1611156121545750600061029f565b6000805b600460ff8216101561225e578760010b878260ff168151811061218b57634e487b7160e01b600052603260045260246000fd5b602002602001015160000b1480156121d057506000858260ff16815181106121c357634e487b7160e01b600052603260045260246000fd5b602002602001015160070b135b8061224257508760010b868260ff16815181106121fd57634e487b7160e01b600052603260045260246000fd5b602002602001015160000b14801561224257506000848260ff168151811061223557634e487b7160e01b600052603260045260246000fd5b602002602001015160070b135b1561224c57600191505b8061225681612f70565b915050612158565b50159695505050505050565b604080516101408101825260608082526020820181905260009282018390528082018390526080820181905260a082015260c0810182905260e08101829052610100810182905261012081019190915290565b60408051608081018252600080825260208201819052918101829052606081019190915290565b6040805160a0810182526000808252602082018190526060928201839052918101829052608081019190915290565b82805482825590600052602060002090601f016020900481019282156123a95791602002820160005b8382111561237a57835183826101000a81548160ff021916908360ff160217905550926020019260010160208160000104928301926001030261233c565b80156123a75782816101000a81549060ff021916905560010160208160000104928301926001030261237a565b505b506123b5929150612422565b5090565b6040805160c0810182526000808252602082018190529181018290526060808201819052608082015260a081019190915290565b6040805160c081018252600080825260208201819052918101829052606081018290526080810182905260a081019190915290565b5b808211156123b55760008155600101612423565b600082601f830112612447578081fd5b8135602067ffffffffffffffff8083111561246457612464612fd0565b8183026040518382820101818110848211171561248357612483612fd0565b604052848152838101925086840182880185018910156124a1578687fd5b8692505b858310156124ca576124b6816124e8565b8452928401926001929092019184016124a5565b50979650505050505050565b803561ffff81168114611b1857600080fd5b803560ff81168114611b1857600080fd5b60008060006060848603121561250d578283fd5b83356001600160a01b0381168114612523578384fd5b9250602084013567ffffffffffffffff81111561253e578283fd5b61254a86828701612437565b925050612559604085016124e8565b90509250925092565b600080600060608486031215612576578283fd5b833567ffffffffffffffff81111561258c578384fd5b61259886828701612437565b9350506125a7602085016124e8565b9150604084013590509250925092565b60008060008060008060008060006101208a8c0312156125d5578485fd5b6125de8a6124d6565b98506125ec60208b016124d6565b97506125fa60408b016124d6565b965061260860608b016124d6565b955061261660808b016124d6565b945061262460a08b016124d6565b935061263260c08b016124d6565b925061264060e08b016124d6565b915061264f6101008b016124d6565b90509295985092959850929598565b600080600080600060a08688031215612675578081fd5b85359450602086013567ffffffffffffffff80821115612693578283fd5b61269f89838a01612437565b955060408801359150808211156126b4578283fd5b506126c188828901612437565b9350506126d0606087016124e8565b91506126de608087016124e8565b90509295509295909350565b6000815180845260208085019450808401835b83811015612761578151805160ff9081168952848201518116858a01526040808301518216908a015260608083015190911690890152608080820151870b9089015260a09081015163ffffffff169088015260c090960195908201906001016126fd565b509495945050505050565b6000815180845260208085019450808401835b8381101561276157815160ff168752958201959082019060010161277f565b15159052565b60006001600160a01b038251168352602082015115156020840152604082015160a060408501526127d860a085018261276c565b905060ff6060840151166060850152608083015160808501528091505092915050565b61ffff169052565b60ff169052565b928352602083019190915260601b7fffffffffffffffffffffffffffffffffffffffff00000000000000000000000016604082015260540190565b6001600160a01b0391909116815260200190565b602080825282518282018190526000919060409081850190868401855b828110156128c257815180516001600160a01b0316855286810151878601528581015163ffffffff90811687870152606091820151169085015260809093019290850190600101612876565b5091979650505050505050565b6000602080830181845280855180835260408601915060408482028701019250838701855b8281101561292257603f198886030184526129108583516127a4565b945092850192908501906001016128f4565b5092979650505050505050565b602080825282518282018190526000919060409081850190868401855b828110156128c2578151805161ffff908116865287820151811688870152868201518051821688880152880151166060808701919091528101516080612994818801836127fb565b820151905060a06129a7878201836127fb565b820151905060c06129ba878201836127fb565b919091015190506129ce60e08601826127fb565b5061010093909301929085019060010161294c565b60208082526022908201527f53656c656374696f6e206e6565647320746f2068617665203420656c656d656e60408201527f7473000000000000000000000000000000000000000000000000000000000000606082015260800190565b60208082526024908201527f43616e206f6e6c792061747461636b206120726567697374657265642064656660408201527f656e636500000000000000000000000000000000000000000000000000000000606082015260800190565b60208082526016908201527f446566656e6365206e6f74207265676973746572656400000000000000000000604082015260600190565b60208082526033908201527f546869732066756e6374696f6e206973207265737472696374656420746f207460408201527f686520636f6e74726163742773206f776e657200000000000000000000000000606082015260800190565b6000602082528251610140806020850152612b5061016085018361276c565b91506020850151601f1980868503016040870152612b6e848361276c565b935060408701519150612b846060870183612803565b60608701519150612b986080870183612803565b60808701519150808685030160a0870152612bb384836126ea565b935060a08701519150808685030160c087015250612bd183826126ea565b92505060c0850151612be660e086018261279e565b5060e0850151610100612bfb8187018361279e565b8601519050610120612c0f86820183612803565b959095015193019290925250919050565b60006020825261211960208301846127a4565b600081810b83820b82821282607f03821381151615612c5457612c54612fa4565b82607f19038212811615612c6a57612c6a612fa4565b50019392505050565b600061ffff808316818516808303821115612c9057612c90612fa4565b01949350505050565b600067ffffffffffffffff808316818516808303821115612c9057612c90612fa4565b600061ffff80841680612cd157612cd1612fba565b92169190910492915050565b600067ffffffffffffffff80841680612cd157612cd1612fba565b60008160010b8360010b617fff83821384841383830485118282161615612d2157612d21612fa4565b617fff1986851282811687830587121615612d3e57612d3e612fa4565b878712925085820587128484161615612d5957612d59612fa4565b85850587128184161615612d6f57612d6f612fa4565b5050509290910295945050505050565b60008160070b8360070b677fffffffffffffff83821384841383830485118282161615612dae57612dae612fa4565b677fffffffffffffff1986851282811687830587121615612d3e57612d3e612fa4565b600061ffff80831681851681830481118215151615612df257612df2612fa4565b02949350505050565b600063ffffffff80831681851681830481118215151615612df257612df2612fa4565b600060ff821660ff84168160ff0481118215151615612e3f57612e3f612fa4565b029392505050565b60008160010b8360010b82811281617fff1901831281151615612e6c57612e6c612fa4565b81617fff018313811615612e8257612e82612fa4565b5090039392505050565b60008160070b8360070b82811281677fffffffffffffff1901831281151615612eb757612eb7612fa4565b81677fffffffffffffff018313811615612e8257612e82612fa4565b600061ffff83811690831681811015612eee57612eee612fa4565b039392505050565b60008160010b617fff19811415612f0f57612f0f612fa4565b6000190192915050565b600061ffff80831681811415612f3157612f31612fa4565b6001019392505050565b6000600019821415612f4f57612f4f612fa4565b5060010190565b600063ffffffff80831681811415612f3157612f31612fa4565b600060ff821660ff811415612f8757612f87612fa4565b60010192915050565b600082612f9f57612f9f612fba565b500690565b634e487b7160e01b600052601160045260246000fd5b634e487b7160e01b600052601260045260246000fd5b634e487b7160e01b600052604160045260246000fdfea2646970667358221220bfeb87e123566ed4163935fd07b5eb7b05e2acdcb487550df97c8dbb87b503fc64736f6c63430008000033",
          "opcodes": "PUSH1 0x80 PUSH1 0x40 MSTORE PUSH1 0x0 DUP1 SLOAD PUSH1 0x1 PUSH1 0x1 PUSH1 0xA0 SHL SUB NOT AND CALLER OR SWAP1 SSTORE CALLVALUE DUP1 ISZERO PUSH2 0x22 JUMPI PUSH1 0x0 DUP1 REVERT JUMPDEST POP PUSH2 0x301C DUP1 PUSH2 0x32 PUSH1 0x0 CODECOPY PUSH1 0x0 RETURN INVALID PUSH1 0x80 PUSH1 0x40 MSTORE CALLVALUE DUP1 ISZERO PUSH2 0x10 JUMPI PUSH1 0x0 DUP1 REVERT JUMPDEST POP PUSH1 0x4 CALLDATASIZE LT PUSH2 0xA3 JUMPI PUSH1 0x0 CALLDATALOAD PUSH1 0xE0 SHR DUP1 PUSH4 0x7AF584DE GT PUSH2 0x76 JUMPI DUP1 PUSH4 0xC0D0504A GT PUSH2 0x5B JUMPI DUP1 PUSH4 0xC0D0504A EQ PUSH2 0x13A JUMPI DUP1 PUSH4 0xD2EAEFDB EQ PUSH2 0x14D JUMPI DUP1 PUSH4 0xD43B838C EQ PUSH2 0x160 JUMPI PUSH2 0xA3 JUMP JUMPDEST DUP1 PUSH4 0x7AF584DE EQ PUSH2 0x110 JUMPI DUP1 PUSH4 0x8DA5CB5B EQ PUSH2 0x125 JUMPI PUSH2 0xA3 JUMP JUMPDEST DUP1 PUSH4 0xD055A47 EQ PUSH2 0xA8 JUMPI DUP1 PUSH4 0x62A74512 EQ PUSH2 0xD1 JUMPI DUP1 PUSH4 0x6738F234 EQ PUSH2 0xE6 JUMPI DUP1 PUSH4 0x6D763A6E EQ PUSH2 0xFB JUMPI JUMPDEST PUSH1 0x0 DUP1 REVERT JUMPDEST PUSH2 0xBB PUSH2 0xB6 CALLDATASIZE PUSH1 0x4 PUSH2 0x265E JUMP JUMPDEST PUSH2 0x175 JUMP JUMPDEST PUSH1 0x40 MLOAD PUSH2 0xC8 SWAP2 SWAP1 PUSH2 0x2B31 JUMP JUMPDEST PUSH1 0x40 MLOAD DUP1 SWAP2 SUB SWAP1 RETURN JUMPDEST PUSH2 0xE4 PUSH2 0xDF CALLDATASIZE PUSH1 0x4 PUSH2 0x24F9 JUMP JUMPDEST PUSH2 0x2A8 JUMP JUMPDEST STOP JUMPDEST PUSH2 0xEE PUSH2 0x560 JUMP JUMPDEST PUSH1 0x40 MLOAD PUSH2 0xC8 SWAP2 SWAP1 PUSH2 0x292F JUMP JUMPDEST PUSH2 0x103 PUSH2 0x657 JUMP JUMPDEST PUSH1 0x40 MLOAD PUSH2 0xC8 SWAP2 SWAP1 PUSH2 0x2859 JUMP JUMPDEST PUSH2 0x118 PUSH2 0x7AC JUMP JUMPDEST PUSH1 0x40 MLOAD PUSH2 0xC8 SWAP2 SWAP1 PUSH2 0x28CF JUMP JUMPDEST PUSH2 0x12D PUSH2 0x95B JUMP JUMPDEST PUSH1 0x40 MLOAD PUSH2 0xC8 SWAP2 SWAP1 PUSH2 0x2845 JUMP JUMPDEST PUSH2 0xE4 PUSH2 0x148 CALLDATASIZE PUSH1 0x4 PUSH2 0x25B7 JUMP JUMPDEST PUSH2 0x96A JUMP JUMPDEST PUSH2 0xE4 PUSH2 0x15B CALLDATASIZE PUSH1 0x4 PUSH2 0x2562 JUMP JUMPDEST PUSH2 0xC9A JUMP JUMPDEST PUSH2 0x168 PUSH2 0xEC6 JUMP JUMPDEST PUSH1 0x40 MLOAD PUSH2 0xC8 SWAP2 SWAP1 PUSH2 0x2C20 JUMP JUMPDEST PUSH2 0x17D PUSH2 0x226A JUMP JUMPDEST DUP5 MLOAD PUSH1 0x4 EQ PUSH2 0x1A7 JUMPI PUSH1 0x40 MLOAD PUSH3 0x461BCD PUSH1 0xE5 SHL DUP2 MSTORE PUSH1 0x4 ADD PUSH2 0x19E SWAP1 PUSH2 0x29E3 JUMP JUMPDEST PUSH1 0x40 MLOAD DUP1 SWAP2 SUB SWAP1 REVERT JUMPDEST DUP4 MLOAD PUSH1 0x4 EQ PUSH2 0x1C8 JUMPI PUSH1 0x40 MLOAD PUSH3 0x461BCD PUSH1 0xE5 SHL DUP2 MSTORE PUSH1 0x4 ADD PUSH2 0x19E SWAP1 PUSH2 0x29E3 JUMP JUMPDEST PUSH2 0x29C DUP7 PUSH1 0x1 PUSH1 0x2 DUP1 SLOAD DUP1 PUSH1 0x20 MUL PUSH1 0x20 ADD PUSH1 0x40 MLOAD SWAP1 DUP2 ADD PUSH1 0x40 MSTORE DUP1 SWAP3 SWAP2 SWAP1 DUP2 DUP2 MSTORE PUSH1 0x20 ADD PUSH1 0x0 SWAP1 JUMPDEST DUP3 DUP3 LT ISZERO PUSH2 0x28F JUMPI PUSH1 0x0 DUP5 DUP2 MSTORE PUSH1 0x20 SWAP1 DUP2 SWAP1 KECCAK256 PUSH1 0x40 DUP1 MLOAD PUSH1 0xE0 DUP2 ADD DUP3 MSTORE PUSH1 0x3 DUP7 MUL SWAP1 SWAP3 ADD DUP1 SLOAD PUSH2 0xFFFF DUP1 DUP3 AND DUP6 MSTORE PUSH3 0x10000 SWAP2 DUP3 SWAP1 DIV DUP2 AND DUP6 DUP8 ADD MSTORE DUP4 MLOAD DUP1 DUP6 ADD DUP6 MSTORE PUSH1 0x1 DUP1 DUP6 ADD SLOAD DUP1 DUP5 AND DUP4 MSTORE DUP5 SWAP1 DIV DUP4 AND DUP3 DUP10 ADD MSTORE SWAP5 DUP7 ADD MSTORE PUSH1 0x2 SWAP1 SWAP3 ADD SLOAD DUP1 DUP4 AND PUSH1 0x60 DUP7 ADD MSTORE SWAP1 DUP2 DIV DUP3 AND PUSH1 0x80 DUP6 ADD MSTORE PUSH5 0x100000000 DUP2 DIV DUP3 AND PUSH1 0xA0 DUP6 ADD MSTORE PUSH7 0x1000000000000 SWAP1 DIV AND PUSH1 0xC0 DUP4 ADD MSTORE SWAP1 DUP4 MSTORE SWAP1 SWAP3 ADD SWAP2 ADD PUSH2 0x1F0 JUMP JUMPDEST POP POP POP POP DUP9 DUP9 DUP9 DUP9 PUSH2 0xFCC JUMP JUMPDEST SWAP1 POP JUMPDEST SWAP6 SWAP5 POP POP POP POP POP JUMP JUMPDEST PUSH1 0x1 PUSH1 0x1 PUSH1 0xA0 SHL SUB DUP4 AND PUSH1 0x0 SWAP1 DUP2 MSTORE PUSH1 0x5 PUSH1 0x20 MSTORE PUSH1 0x40 SWAP1 KECCAK256 SLOAD PUSH1 0x1 PUSH1 0xA0 SHL SWAP1 DIV PUSH1 0xFF AND PUSH2 0x2E7 JUMPI PUSH1 0x40 MLOAD PUSH3 0x461BCD PUSH1 0xE5 SHL DUP2 MSTORE PUSH1 0x4 ADD PUSH2 0x19E SWAP1 PUSH2 0x2A40 JUMP JUMPDEST PUSH1 0x0 DIFFICULTY TIMESTAMP CALLER PUSH1 0x40 MLOAD PUSH1 0x20 ADD PUSH2 0x2FE SWAP4 SWAP3 SWAP2 SWAP1 PUSH2 0x280A JUMP JUMPDEST PUSH1 0x40 DUP1 MLOAD PUSH1 0x1F NOT DUP2 DUP5 SUB ADD DUP2 MSTORE DUP3 DUP3 MSTORE DUP1 MLOAD PUSH1 0x20 SWAP2 DUP3 ADD KECCAK256 PUSH1 0x1 PUSH1 0x1 PUSH1 0xA0 SHL SUB DUP9 AND PUSH1 0x0 SWAP1 DUP2 MSTORE PUSH1 0x5 DUP4 MSTORE DUP4 DUP2 KECCAK256 PUSH1 0x1 ADD DUP1 SLOAD DUP1 DUP6 MUL DUP8 ADD DUP6 ADD SWAP1 SWAP6 MSTORE DUP5 DUP7 MSTORE SWAP2 SWAP6 POP SWAP4 PUSH2 0x3C4 SWAP4 DUP7 SWAP4 DUP10 SWAP4 SWAP2 SWAP1 DUP4 ADD DUP3 DUP3 DUP1 ISZERO PUSH2 0x399 JUMPI PUSH1 0x20 MUL DUP3 ADD SWAP2 SWAP1 PUSH1 0x0 MSTORE PUSH1 0x20 PUSH1 0x0 KECCAK256 SWAP1 PUSH1 0x0 SWAP1 JUMPDEST DUP3 SLOAD PUSH2 0x100 DUP4 SWAP1 EXP SWAP1 DIV PUSH1 0xFF AND DUP2 MSTORE PUSH1 0x20 PUSH1 0x1 SWAP3 DUP4 ADD DUP2 DUP2 DIV SWAP5 DUP6 ADD SWAP5 SWAP1 SWAP4 SUB SWAP1 SWAP3 MUL SWAP2 ADD DUP1 DUP5 GT PUSH2 0x36A JUMPI SWAP1 POP JUMPDEST POP POP POP POP PUSH1 0x1 PUSH1 0x1 PUSH1 0xA0 SHL SUB DUP11 AND PUSH1 0x0 SWAP1 DUP2 MSTORE PUSH1 0x5 PUSH1 0x20 MSTORE PUSH1 0x40 SWAP1 KECCAK256 PUSH1 0x2 ADD SLOAD DUP9 SWAP2 POP PUSH1 0xFF AND PUSH2 0x19B0 JUMP JUMPDEST SWAP1 POP DUP1 PUSH1 0xC0 ADD MLOAD ISZERO PUSH2 0x46C JUMPI PUSH1 0x1 PUSH1 0x1 PUSH1 0xA0 SHL SUB DUP6 AND PUSH1 0x0 SWAP1 DUP2 MSTORE PUSH1 0x3 PUSH1 0x20 MSTORE PUSH1 0x40 SWAP1 KECCAK256 DUP1 SLOAD PUSH2 0x100 SWAP1 DIV PUSH4 0xFFFFFFFF AND SWAP1 PUSH1 0x1 PUSH2 0x401 DUP4 PUSH2 0x2F56 JUMP JUMPDEST DUP3 SLOAD PUSH2 0x100 SWAP3 SWAP1 SWAP3 EXP PUSH4 0xFFFFFFFF DUP2 DUP2 MUL NOT SWAP1 SWAP4 AND SWAP2 DUP4 AND MUL OR SWAP1 SWAP2 SSTORE CALLER PUSH1 0x0 SWAP1 DUP2 MSTORE PUSH1 0x3 PUSH1 0x20 MSTORE PUSH1 0x40 SWAP1 KECCAK256 DUP1 SLOAD PUSH6 0x10000000000 SWAP1 DIV SWAP1 SWAP2 AND SWAP2 POP PUSH1 0x5 PUSH2 0x448 DUP4 PUSH2 0x2F56 JUMP JUMPDEST SWAP2 SWAP1 PUSH2 0x100 EXP DUP2 SLOAD DUP2 PUSH4 0xFFFFFFFF MUL NOT AND SWAP1 DUP4 PUSH4 0xFFFFFFFF AND MUL OR SWAP1 SSTORE POP POP PUSH2 0x50E JUMP JUMPDEST DUP1 PUSH1 0xE0 ADD MLOAD ISZERO PUSH2 0x50E JUMPI CALLER PUSH1 0x0 SWAP1 DUP2 MSTORE PUSH1 0x3 PUSH1 0x20 MSTORE PUSH1 0x40 SWAP1 KECCAK256 DUP1 SLOAD PUSH2 0x100 SWAP1 DIV PUSH4 0xFFFFFFFF AND SWAP1 PUSH1 0x1 PUSH2 0x49E DUP4 PUSH2 0x2F56 JUMP JUMPDEST DUP3 SLOAD PUSH2 0x100 SWAP3 SWAP1 SWAP3 EXP PUSH4 0xFFFFFFFF DUP2 DUP2 MUL NOT SWAP1 SWAP4 AND SWAP2 DUP4 AND MUL OR SWAP1 SWAP2 SSTORE PUSH1 0x1 PUSH1 0x1 PUSH1 0xA0 SHL SUB DUP8 AND PUSH1 0x0 SWAP1 DUP2 MSTORE PUSH1 0x3 PUSH1 0x20 MSTORE PUSH1 0x40 SWAP1 KECCAK256 DUP1 SLOAD PUSH6 0x10000000000 SWAP1 DIV SWAP1 SWAP2 AND SWAP2 POP PUSH1 0x5 PUSH2 0x4EE DUP4 PUSH2 0x2F56 JUMP JUMPDEST SWAP2 SWAP1 PUSH2 0x100 EXP DUP2 SLOAD DUP2 PUSH4 0xFFFFFFFF MUL NOT AND SWAP1 DUP4 PUSH4 0xFFFFFFFF AND MUL OR SWAP1 SSTORE POP POP JUMPDEST DUP5 PUSH1 0x1 PUSH1 0x1 PUSH1 0xA0 SHL SUB AND CALLER PUSH1 0x1 PUSH1 0x1 PUSH1 0xA0 SHL SUB AND PUSH32 0x1275943AED9EA3363652D9CA6A1546F6ED7E494C27258293820C31D0A36A8925 DUP4 PUSH1 0x40 MLOAD PUSH2 0x551 SWAP2 SWAP1 PUSH2 0x2B31 JUMP JUMPDEST PUSH1 0x40 MLOAD DUP1 SWAP2 SUB SWAP1 LOG3 POP POP POP POP POP JUMP JUMPDEST PUSH1 0x0 SLOAD PUSH1 0x60 SWAP1 PUSH1 0x1 PUSH1 0x1 PUSH1 0xA0 SHL SUB AND CALLER EQ PUSH2 0x58D JUMPI PUSH1 0x40 MLOAD PUSH3 0x461BCD PUSH1 0xE5 SHL DUP2 MSTORE PUSH1 0x4 ADD PUSH2 0x19E SWAP1 PUSH2 0x2AD4 JUMP JUMPDEST PUSH1 0x2 DUP1 SLOAD DUP1 PUSH1 0x20 MUL PUSH1 0x20 ADD PUSH1 0x40 MLOAD SWAP1 DUP2 ADD PUSH1 0x40 MSTORE DUP1 SWAP3 SWAP2 SWAP1 DUP2 DUP2 MSTORE PUSH1 0x20 ADD PUSH1 0x0 SWAP1 JUMPDEST DUP3 DUP3 LT ISZERO PUSH2 0x64E JUMPI PUSH1 0x0 DUP5 DUP2 MSTORE PUSH1 0x20 SWAP1 DUP2 SWAP1 KECCAK256 PUSH1 0x40 DUP1 MLOAD PUSH1 0xE0 DUP2 ADD DUP3 MSTORE PUSH1 0x3 DUP7 MUL SWAP1 SWAP3 ADD DUP1 SLOAD PUSH2 0xFFFF DUP1 DUP3 AND DUP6 MSTORE PUSH3 0x10000 SWAP2 DUP3 SWAP1 DIV DUP2 AND DUP6 DUP8 ADD MSTORE DUP4 MLOAD DUP1 DUP6 ADD DUP6 MSTORE PUSH1 0x1 DUP1 DUP6 ADD SLOAD DUP1 DUP5 AND DUP4 MSTORE DUP5 SWAP1 DIV DUP4 AND DUP3 DUP10 ADD MSTORE SWAP5 DUP7 ADD MSTORE PUSH1 0x2 SWAP1 SWAP3 ADD SLOAD DUP1 DUP4 AND PUSH1 0x60 DUP7 ADD MSTORE SWAP1 DUP2 DIV DUP3 AND PUSH1 0x80 DUP6 ADD MSTORE PUSH5 0x100000000 DUP2 DIV DUP3 AND PUSH1 0xA0 DUP6 ADD MSTORE PUSH7 0x1000000000000 SWAP1 DIV AND PUSH1 0xC0 DUP4 ADD MSTORE SWAP1 DUP4 MSTORE SWAP1 SWAP3 ADD SWAP2 ADD PUSH2 0x5AF JUMP JUMPDEST POP POP POP POP SWAP1 POP SWAP1 JUMP JUMPDEST PUSH1 0x4 SLOAD PUSH1 0x60 SWAP1 PUSH1 0x0 SWAP1 PUSH8 0xFFFFFFFFFFFFFFFF DUP2 GT ISZERO PUSH2 0x686 JUMPI PUSH4 0x4E487B71 PUSH1 0xE0 SHL PUSH1 0x0 MSTORE PUSH1 0x41 PUSH1 0x4 MSTORE PUSH1 0x24 PUSH1 0x0 REVERT JUMPDEST PUSH1 0x40 MLOAD SWAP1 DUP1 DUP3 MSTORE DUP1 PUSH1 0x20 MUL PUSH1 0x20 ADD DUP3 ADD PUSH1 0x40 MSTORE DUP1 ISZERO PUSH2 0x6BF JUMPI DUP2 PUSH1 0x20 ADD JUMPDEST PUSH2 0x6AC PUSH2 0x22BD JUMP JUMPDEST DUP2 MSTORE PUSH1 0x20 ADD SWAP1 PUSH1 0x1 SWAP1 SUB SWAP1 DUP2 PUSH2 0x6A4 JUMPI SWAP1 POP JUMPDEST POP SWAP1 POP PUSH1 0x0 JUMPDEST PUSH1 0x4 SLOAD DUP2 LT ISZERO PUSH2 0x7A6 JUMPI PUSH1 0x0 PUSH1 0x4 DUP3 DUP2 SLOAD DUP2 LT PUSH2 0x6F2 JUMPI PUSH4 0x4E487B71 PUSH1 0xE0 SHL PUSH1 0x0 MSTORE PUSH1 0x32 PUSH1 0x4 MSTORE PUSH1 0x24 PUSH1 0x0 REVERT JUMPDEST PUSH1 0x0 SWAP2 DUP3 MSTORE PUSH1 0x20 DUP1 DUP4 KECCAK256 SWAP1 SWAP2 ADD SLOAD PUSH1 0x40 DUP1 MLOAD PUSH1 0x80 DUP2 ADD DUP3 MSTORE PUSH1 0x1 PUSH1 0x1 PUSH1 0xA0 SHL SUB SWAP1 SWAP3 AND DUP1 DUP4 MSTORE DUP1 DUP6 MSTORE PUSH1 0x5 DUP5 MSTORE DUP2 DUP6 KECCAK256 PUSH1 0x3 SWAP1 DUP2 ADD SLOAD DUP5 DUP7 ADD MSTORE DUP2 DUP7 MSTORE DUP1 DUP6 MSTORE DUP3 DUP7 KECCAK256 SLOAD PUSH4 0xFFFFFFFF PUSH2 0x100 DUP3 DIV DUP2 AND SWAP5 DUP7 ADD SWAP5 SWAP1 SWAP5 MSTORE SWAP6 DUP3 SWAP1 MSTORE SWAP1 SWAP4 MSTORE PUSH6 0x10000000000 SWAP1 SWAP4 DIV SWAP1 SWAP3 AND PUSH1 0x60 DUP4 ADD MSTORE DUP5 MLOAD SWAP1 SWAP3 POP DUP5 SWAP1 DUP5 SWAP1 DUP2 LT PUSH2 0x787 JUMPI PUSH4 0x4E487B71 PUSH1 0xE0 SHL PUSH1 0x0 MSTORE PUSH1 0x32 PUSH1 0x4 MSTORE PUSH1 0x24 PUSH1 0x0 REVERT JUMPDEST PUSH1 0x20 MUL PUSH1 0x20 ADD ADD DUP2 SWAP1 MSTORE POP POP DUP1 DUP1 PUSH2 0x79E SWAP1 PUSH2 0x2F3B JUMP JUMPDEST SWAP2 POP POP PUSH2 0x6C5 JUMP JUMPDEST POP SWAP1 POP SWAP1 JUMP JUMPDEST PUSH1 0x6 SLOAD PUSH1 0x60 SWAP1 PUSH1 0x0 SWAP1 PUSH8 0xFFFFFFFFFFFFFFFF DUP2 GT ISZERO PUSH2 0x7DB JUMPI PUSH4 0x4E487B71 PUSH1 0xE0 SHL PUSH1 0x0 MSTORE PUSH1 0x41 PUSH1 0x4 MSTORE PUSH1 0x24 PUSH1 0x0 REVERT JUMPDEST PUSH1 0x40 MLOAD SWAP1 DUP1 DUP3 MSTORE DUP1 PUSH1 0x20 MUL PUSH1 0x20 ADD DUP3 ADD PUSH1 0x40 MSTORE DUP1 ISZERO PUSH2 0x814 JUMPI DUP2 PUSH1 0x20 ADD JUMPDEST PUSH2 0x801 PUSH2 0x22E4 JUMP JUMPDEST DUP2 MSTORE PUSH1 0x20 ADD SWAP1 PUSH1 0x1 SWAP1 SUB SWAP1 DUP2 PUSH2 0x7F9 JUMPI SWAP1 POP JUMPDEST POP SWAP1 POP PUSH1 0x0 JUMPDEST PUSH1 0x6 SLOAD DUP2 LT ISZERO PUSH2 0x7A6 JUMPI PUSH1 0x5 PUSH1 0x0 PUSH1 0x6 DUP4 DUP2 SLOAD DUP2 LT PUSH2 0x849 JUMPI PUSH4 0x4E487B71 PUSH1 0xE0 SHL PUSH1 0x0 MSTORE PUSH1 0x32 PUSH1 0x4 MSTORE PUSH1 0x24 PUSH1 0x0 REVERT JUMPDEST PUSH1 0x0 SWAP2 DUP3 MSTORE PUSH1 0x20 DUP1 DUP4 KECCAK256 SWAP2 SWAP1 SWAP2 ADD SLOAD PUSH1 0x1 PUSH1 0x1 PUSH1 0xA0 SHL SUB SWAP1 DUP2 AND DUP5 MSTORE DUP4 DUP3 ADD SWAP5 SWAP1 SWAP5 MSTORE PUSH1 0x40 SWAP3 DUP4 ADD SWAP1 SWAP2 KECCAK256 DUP3 MLOAD PUSH1 0xA0 DUP2 ADD DUP5 MSTORE DUP2 SLOAD SWAP5 DUP6 AND DUP2 MSTORE PUSH1 0x1 PUSH1 0xA0 SHL SWAP1 SWAP5 DIV PUSH1 0xFF AND ISZERO ISZERO DUP5 DUP4 ADD MSTORE PUSH1 0x1 DUP2 ADD DUP1 SLOAD DUP5 MLOAD DUP2 DUP6 MUL DUP2 ADD DUP6 ADD DUP7 MSTORE DUP2 DUP2 MSTORE SWAP3 SWAP5 DUP7 ADD SWAP4 DUP4 ADD DUP3 DUP3 DUP1 ISZERO PUSH2 0x8FA JUMPI PUSH1 0x20 MUL DUP3 ADD SWAP2 SWAP1 PUSH1 0x0 MSTORE PUSH1 0x20 PUSH1 0x0 KECCAK256 SWAP1 PUSH1 0x0 SWAP1 JUMPDEST DUP3 SLOAD PUSH2 0x100 DUP4 SWAP1 EXP SWAP1 DIV PUSH1 0xFF AND DUP2 MSTORE PUSH1 0x20 PUSH1 0x1 SWAP3 DUP4 ADD DUP2 DUP2 DIV SWAP5 DUP6 ADD SWAP5 SWAP1 SWAP4 SUB SWAP1 SWAP3 MUL SWAP2 ADD DUP1 DUP5 GT PUSH2 0x8CB JUMPI SWAP1 POP JUMPDEST POP POP POP SWAP2 DUP4 MSTORE POP POP PUSH1 0x2 DUP3 ADD SLOAD PUSH1 0xFF AND PUSH1 0x20 DUP3 ADD MSTORE PUSH1 0x3 SWAP1 SWAP2 ADD SLOAD PUSH1 0x40 SWAP1 SWAP2 ADD MSTORE DUP3 MLOAD DUP4 SWAP1 DUP4 SWAP1 DUP2 LT PUSH2 0x93D JUMPI PUSH4 0x4E487B71 PUSH1 0xE0 SHL PUSH1 0x0 MSTORE PUSH1 0x32 PUSH1 0x4 MSTORE PUSH1 0x24 PUSH1 0x0 REVERT JUMPDEST PUSH1 0x20 MUL PUSH1 0x20 ADD ADD DUP2 SWAP1 MSTORE POP DUP1 DUP1 PUSH2 0x953 SWAP1 PUSH2 0x2F3B JUMP JUMPDEST SWAP2 POP POP PUSH2 0x81A JUMP JUMPDEST PUSH1 0x0 SLOAD PUSH1 0x1 PUSH1 0x1 PUSH1 0xA0 SHL SUB AND DUP2 JUMP JUMPDEST PUSH1 0x0 SLOAD PUSH1 0x1 PUSH1 0x1 PUSH1 0xA0 SHL SUB AND CALLER EQ PUSH2 0x994 JUMPI PUSH1 0x40 MLOAD PUSH3 0x461BCD PUSH1 0xE5 SHL DUP2 MSTORE PUSH1 0x4 ADD PUSH2 0x19E SWAP1 PUSH2 0x2AD4 JUMP JUMPDEST PUSH1 0x0 PUSH1 0x40 MLOAD DUP1 PUSH1 0xE0 ADD PUSH1 0x40 MSTORE DUP1 DUP11 PUSH2 0xFFFF AND DUP2 MSTORE PUSH1 0x20 ADD DUP10 PUSH2 0xFFFF AND DUP2 MSTORE PUSH1 0x20 ADD PUSH1 0x40 MLOAD DUP1 PUSH1 0x40 ADD PUSH1 0x40 MSTORE DUP1 DUP11 PUSH2 0xFFFF AND DUP2 MSTORE PUSH1 0x20 ADD DUP10 PUSH2 0xFFFF AND DUP2 MSTORE POP DUP2 MSTORE PUSH1 0x20 ADD DUP7 PUSH2 0xFFFF AND DUP2 MSTORE PUSH1 0x20 ADD DUP6 PUSH2 0xFFFF AND DUP2 MSTORE PUSH1 0x20 ADD DUP5 PUSH2 0xFFFF AND DUP2 MSTORE PUSH1 0x20 ADD DUP4 PUSH2 0xFFFF AND DUP2 MSTORE POP SWAP1 POP DUP1 PUSH1 0x1 PUSH1 0x0 DUP13 PUSH2 0xFFFF AND DUP2 MSTORE PUSH1 0x20 ADD SWAP1 DUP2 MSTORE PUSH1 0x20 ADD PUSH1 0x0 KECCAK256 PUSH1 0x0 DUP3 ADD MLOAD DUP2 PUSH1 0x0 ADD PUSH1 0x0 PUSH2 0x100 EXP DUP2 SLOAD DUP2 PUSH2 0xFFFF MUL NOT AND SWAP1 DUP4 PUSH2 0xFFFF AND MUL OR SWAP1 SSTORE POP PUSH1 0x20 DUP3 ADD MLOAD DUP2 PUSH1 0x0 ADD PUSH1 0x2 PUSH2 0x100 EXP DUP2 SLOAD DUP2 PUSH2 0xFFFF MUL NOT AND SWAP1 DUP4 PUSH2 0xFFFF AND MUL OR SWAP1 SSTORE POP PUSH1 0x40 DUP3 ADD MLOAD DUP2 PUSH1 0x1 ADD PUSH1 0x0 DUP3 ADD MLOAD DUP2 PUSH1 0x0 ADD PUSH1 0x0 PUSH2 0x100 EXP DUP2 SLOAD DUP2 PUSH2 0xFFFF MUL NOT AND SWAP1 DUP4 PUSH2 0xFFFF AND MUL OR SWAP1 SSTORE POP PUSH1 0x20 DUP3 ADD MLOAD DUP2 PUSH1 0x0 ADD PUSH1 0x2 PUSH2 0x100 EXP DUP2 SLOAD DUP2 PUSH2 0xFFFF MUL NOT AND SWAP1 DUP4 PUSH2 0xFFFF AND MUL OR SWAP1 SSTORE POP POP POP PUSH1 0x60 DUP3 ADD MLOAD DUP2 PUSH1 0x2 ADD PUSH1 0x0 PUSH2 0x100 EXP DUP2 SLOAD DUP2 PUSH2 0xFFFF MUL NOT AND SWAP1 DUP4 PUSH2 0xFFFF AND MUL OR SWAP1 SSTORE POP PUSH1 0x80 DUP3 ADD MLOAD DUP2 PUSH1 0x2 ADD PUSH1 0x2 PUSH2 0x100 EXP DUP2 SLOAD DUP2 PUSH2 0xFFFF MUL NOT AND SWAP1 DUP4 PUSH2 0xFFFF AND MUL OR SWAP1 SSTORE POP PUSH1 0xA0 DUP3 ADD MLOAD DUP2 PUSH1 0x2 ADD PUSH1 0x4 PUSH2 0x100 EXP DUP2 SLOAD DUP2 PUSH2 0xFFFF MUL NOT AND SWAP1 DUP4 PUSH2 0xFFFF AND MUL OR SWAP1 SSTORE POP PUSH1 0xC0 DUP3 ADD MLOAD DUP2 PUSH1 0x2 ADD PUSH1 0x6 PUSH2 0x100 EXP DUP2 SLOAD DUP2 PUSH2 0xFFFF MUL NOT AND SWAP1 DUP4 PUSH2 0xFFFF AND MUL OR SWAP1 SSTORE POP SWAP1 POP POP PUSH1 0x2 DUP2 SWAP1 DUP1 PUSH1 0x1 DUP2 SLOAD ADD DUP1 DUP3 SSTORE DUP1 SWAP2 POP POP PUSH1 0x1 SWAP1 SUB SWAP1 PUSH1 0x0 MSTORE PUSH1 0x20 PUSH1 0x0 KECCAK256 SWAP1 PUSH1 0x3 MUL ADD PUSH1 0x0 SWAP1 SWAP2 SWAP1 SWAP2 SWAP1 SWAP2 POP PUSH1 0x0 DUP3 ADD MLOAD DUP2 PUSH1 0x0 ADD PUSH1 0x0 PUSH2 0x100 EXP DUP2 SLOAD DUP2 PUSH2 0xFFFF MUL NOT AND SWAP1 DUP4 PUSH2 0xFFFF AND MUL OR SWAP1 SSTORE POP PUSH1 0x20 DUP3 ADD MLOAD DUP2 PUSH1 0x0 ADD PUSH1 0x2 PUSH2 0x100 EXP DUP2 SLOAD DUP2 PUSH2 0xFFFF MUL NOT AND SWAP1 DUP4 PUSH2 0xFFFF AND MUL OR SWAP1 SSTORE POP PUSH1 0x40 DUP3 ADD MLOAD DUP2 PUSH1 0x1 ADD PUSH1 0x0 DUP3 ADD MLOAD DUP2 PUSH1 0x0 ADD PUSH1 0x0 PUSH2 0x100 EXP DUP2 SLOAD DUP2 PUSH2 0xFFFF MUL NOT AND SWAP1 DUP4 PUSH2 0xFFFF AND MUL OR SWAP1 SSTORE POP PUSH1 0x20 DUP3 ADD MLOAD DUP2 PUSH1 0x0 ADD PUSH1 0x2 PUSH2 0x100 EXP DUP2 SLOAD DUP2 PUSH2 0xFFFF MUL NOT AND SWAP1 DUP4 PUSH2 0xFFFF AND MUL OR SWAP1 SSTORE POP POP POP PUSH1 0x60 DUP3 ADD MLOAD DUP2 PUSH1 0x2 ADD PUSH1 0x0 PUSH2 0x100 EXP DUP2 SLOAD DUP2 PUSH2 0xFFFF MUL NOT AND SWAP1 DUP4 PUSH2 0xFFFF AND MUL OR SWAP1 SSTORE POP PUSH1 0x80 DUP3 ADD MLOAD DUP2 PUSH1 0x2 ADD PUSH1 0x2 PUSH2 0x100 EXP DUP2 SLOAD DUP2 PUSH2 0xFFFF MUL NOT AND SWAP1 DUP4 PUSH2 0xFFFF AND MUL OR SWAP1 SSTORE POP PUSH1 0xA0 DUP3 ADD MLOAD DUP2 PUSH1 0x2 ADD PUSH1 0x4 PUSH2 0x100 EXP DUP2 SLOAD DUP2 PUSH2 0xFFFF MUL NOT AND SWAP1 DUP4 PUSH2 0xFFFF AND MUL OR SWAP1 SSTORE POP PUSH1 0xC0 DUP3 ADD MLOAD DUP2 PUSH1 0x2 ADD PUSH1 0x6 PUSH2 0x100 EXP DUP2 SLOAD DUP2 PUSH2 0xFFFF MUL NOT AND SWAP1 DUP4 PUSH2 0xFFFF AND MUL OR SWAP1 SSTORE POP POP POP POP POP POP POP POP POP POP POP POP POP JUMP JUMPDEST PUSH1 0x40 DUP1 MLOAD PUSH1 0xA0 DUP2 ADD DUP3 MSTORE CALLER DUP1 DUP3 MSTORE PUSH1 0x1 PUSH1 0x20 DUP1 DUP5 ADD SWAP2 SWAP1 SWAP2 MSTORE DUP3 DUP5 ADD DUP8 SWAP1 MSTORE PUSH1 0xFF DUP1 DUP8 AND PUSH1 0x60 DUP6 ADD MSTORE PUSH1 0x80 DUP5 ADD DUP7 SWAP1 MSTORE PUSH1 0x0 SWAP3 DUP4 MSTORE PUSH1 0x5 SWAP1 SWAP2 MSTORE SWAP3 SWAP1 KECCAK256 SLOAD SWAP1 SWAP2 PUSH1 0x1 PUSH1 0xA0 SHL SWAP1 SWAP2 DIV AND PUSH2 0xD37 JUMPI PUSH1 0x6 DUP1 SLOAD PUSH1 0x1 DUP2 ADD DUP3 SSTORE PUSH1 0x0 SWAP2 SWAP1 SWAP2 MSTORE PUSH32 0xF652222313E28459528D920B65115C16C04F3EFC82AAEDC97BE59F3F377C0D3F ADD DUP1 SLOAD PUSH20 0xFFFFFFFFFFFFFFFFFFFFFFFFFFFFFFFFFFFFFFFF NOT AND CALLER OR SWAP1 SSTORE JUMPDEST CALLER PUSH1 0x0 SWAP1 DUP2 MSTORE PUSH1 0x5 PUSH1 0x20 SWAP1 DUP2 MSTORE PUSH1 0x40 SWAP2 DUP3 SWAP1 KECCAK256 DUP4 MLOAD DUP2 SLOAD DUP4 DUP7 ADD MLOAD ISZERO ISZERO PUSH1 0x1 PUSH1 0xA0 SHL MUL PUSH32 0xFFFFFFFFFFFFFFFFFFFFFF00FFFFFFFFFFFFFFFFFFFFFFFFFFFFFFFFFFFFFFFF PUSH1 0x1 PUSH1 0x1 PUSH1 0xA0 SHL SUB SWAP4 SWAP1 SWAP4 AND PUSH20 0xFFFFFFFFFFFFFFFFFFFFFFFFFFFFFFFFFFFFFFFF NOT SWAP1 SWAP3 AND SWAP2 SWAP1 SWAP2 OR SWAP2 SWAP1 SWAP2 AND OR DUP2 SSTORE SWAP2 DUP4 ADD MLOAD DUP1 MLOAD DUP5 SWAP4 SWAP3 PUSH2 0xDC5 SWAP3 PUSH1 0x1 DUP6 ADD SWAP3 SWAP2 ADD SWAP1 PUSH2 0x2313 JUMP JUMPDEST POP PUSH1 0x60 DUP3 ADD MLOAD PUSH1 0x2 DUP3 ADD DUP1 SLOAD PUSH1 0xFF NOT AND PUSH1 0xFF SWAP3 DUP4 AND OR SWAP1 SSTORE PUSH1 0x80 SWAP1 SWAP3 ADD MLOAD PUSH1 0x3 SWAP2 DUP3 ADD SSTORE CALLER PUSH1 0x0 SWAP1 DUP2 MSTORE PUSH1 0x20 SWAP2 SWAP1 SWAP2 MSTORE PUSH1 0x40 SWAP1 KECCAK256 SLOAD AND PUSH2 0xEC0 JUMPI PUSH1 0x40 DUP1 MLOAD PUSH1 0x60 DUP2 ADD DUP3 MSTORE PUSH1 0x1 DUP1 DUP3 MSTORE PUSH1 0x0 PUSH1 0x20 DUP1 DUP5 ADD DUP3 DUP2 MSTORE DUP5 DUP7 ADD DUP4 DUP2 MSTORE CALLER DUP1 DUP6 MSTORE PUSH1 0x3 SWAP1 SWAP4 MSTORE SWAP6 DUP4 KECCAK256 SWAP5 MLOAD DUP6 SLOAD SWAP2 MLOAD SWAP7 MLOAD PUSH1 0xFF NOT SWAP1 SWAP3 AND SWAP1 ISZERO ISZERO OR PUSH5 0xFFFFFFFF00 NOT AND PUSH2 0x100 PUSH4 0xFFFFFFFF SWAP8 DUP9 AND MUL OR PUSH9 0xFFFFFFFF0000000000 NOT AND PUSH6 0x10000000000 SWAP7 SWAP1 SWAP2 AND SWAP6 SWAP1 SWAP6 MUL SWAP5 SWAP1 SWAP5 OR SWAP1 SWAP3 SSTORE PUSH1 0x4 DUP1 SLOAD SWAP2 DUP3 ADD DUP2 SSTORE SWAP1 SWAP2 MSTORE PUSH32 0x8A35ACFBC15FF81A39AE7D344FD709F28E8600B4AA8C65C6B64BFE7FE36BD19B ADD DUP1 SLOAD PUSH20 0xFFFFFFFFFFFFFFFFFFFFFFFFFFFFFFFFFFFFFFFF NOT AND SWAP1 SWAP2 OR SWAP1 SSTORE JUMPDEST POP POP POP POP JUMP JUMPDEST PUSH2 0xECE PUSH2 0x22E4 JUMP JUMPDEST CALLER PUSH1 0x0 SWAP1 DUP2 MSTORE PUSH1 0x5 PUSH1 0x20 MSTORE PUSH1 0x40 SWAP1 KECCAK256 SLOAD PUSH1 0x1 PUSH1 0xA0 SHL SWAP1 DIV PUSH1 0xFF AND PUSH2 0xF04 JUMPI PUSH1 0x40 MLOAD PUSH3 0x461BCD PUSH1 0xE5 SHL DUP2 MSTORE PUSH1 0x4 ADD PUSH2 0x19E SWAP1 PUSH2 0x2A9D JUMP JUMPDEST CALLER PUSH1 0x0 SWAP1 DUP2 MSTORE PUSH1 0x5 PUSH1 0x20 SWAP1 DUP2 MSTORE PUSH1 0x40 SWAP2 DUP3 SWAP1 KECCAK256 DUP3 MLOAD PUSH1 0xA0 DUP2 ADD DUP5 MSTORE DUP2 SLOAD PUSH1 0x1 PUSH1 0x1 PUSH1 0xA0 SHL SUB DUP2 AND DUP3 MSTORE PUSH1 0x1 PUSH1 0xA0 SHL SWAP1 DIV PUSH1 0xFF AND ISZERO ISZERO DUP2 DUP5 ADD MSTORE PUSH1 0x1 DUP3 ADD DUP1 SLOAD DUP6 MLOAD DUP2 DUP7 MUL DUP2 ADD DUP7 ADD DUP8 MSTORE DUP2 DUP2 MSTORE SWAP3 SWAP6 SWAP4 SWAP5 SWAP4 DUP7 ADD SWAP4 DUP4 ADD DUP3 DUP3 DUP1 ISZERO PUSH2 0xFA6 JUMPI PUSH1 0x20 MUL DUP3 ADD SWAP2 SWAP1 PUSH1 0x0 MSTORE PUSH1 0x20 PUSH1 0x0 KECCAK256 SWAP1 PUSH1 0x0 SWAP1 JUMPDEST DUP3 SLOAD PUSH2 0x100 DUP4 SWAP1 EXP SWAP1 DIV PUSH1 0xFF AND DUP2 MSTORE PUSH1 0x20 PUSH1 0x1 SWAP3 DUP4 ADD DUP2 DUP2 DIV SWAP5 DUP6 ADD SWAP5 SWAP1 SWAP4 SUB SWAP1 SWAP3 MUL SWAP2 ADD DUP1 DUP5 GT PUSH2 0xF77 JUMPI SWAP1 POP JUMPDEST POP POP POP SWAP2 DUP4 MSTORE POP POP PUSH1 0x2 DUP3 ADD SLOAD PUSH1 0xFF AND PUSH1 0x20 DUP3 ADD MSTORE PUSH1 0x3 SWAP1 SWAP2 ADD SLOAD PUSH1 0x40 SWAP1 SWAP2 ADD MSTORE SWAP1 POP SWAP1 JUMP JUMPDEST PUSH2 0xFD4 PUSH2 0x226A JUMP JUMPDEST DUP5 MLOAD PUSH1 0x4 EQ PUSH2 0xFF5 JUMPI PUSH1 0x40 MLOAD PUSH3 0x461BCD PUSH1 0xE5 SHL DUP2 MSTORE PUSH1 0x4 ADD PUSH2 0x19E SWAP1 PUSH2 0x29E3 JUMP JUMPDEST DUP4 MLOAD PUSH1 0x4 EQ PUSH2 0x1016 JUMPI PUSH1 0x40 MLOAD PUSH3 0x461BCD PUSH1 0xE5 SHL DUP2 MSTORE PUSH1 0x4 ADD PUSH2 0x19E SWAP1 PUSH2 0x29E3 JUMP JUMPDEST PUSH1 0x40 DUP1 MLOAD PUSH1 0x4 DUP1 DUP3 MSTORE PUSH1 0xA0 DUP3 ADD SWAP1 SWAP3 MSTORE PUSH1 0x0 SWAP2 PUSH1 0x20 DUP3 ADD PUSH1 0x80 DUP1 CALLDATASIZE DUP4 CALLDATACOPY ADD SWAP1 POP POP SWAP1 POP PUSH1 0xA DUP2 PUSH1 0x0 DUP2 MLOAD DUP2 LT PUSH2 0x105C JUMPI PUSH4 0x4E487B71 PUSH1 0xE0 SHL PUSH1 0x0 MSTORE PUSH1 0x32 PUSH1 0x4 MSTORE PUSH1 0x24 PUSH1 0x0 REVERT JUMPDEST PUSH1 0x20 MUL PUSH1 0x20 ADD ADD SWAP1 PUSH1 0x0 SIGNEXTEND SWAP1 DUP2 PUSH1 0x0 SIGNEXTEND DUP2 MSTORE POP POP PUSH1 0xB DUP2 PUSH1 0x1 DUP2 MLOAD DUP2 LT PUSH2 0x1093 JUMPI PUSH4 0x4E487B71 PUSH1 0xE0 SHL PUSH1 0x0 MSTORE PUSH1 0x32 PUSH1 0x4 MSTORE PUSH1 0x24 PUSH1 0x0 REVERT JUMPDEST PUSH1 0x20 MUL PUSH1 0x20 ADD ADD SWAP1 PUSH1 0x0 SIGNEXTEND SWAP1 DUP2 PUSH1 0x0 SIGNEXTEND DUP2 MSTORE POP POP PUSH1 0xC DUP2 PUSH1 0x2 DUP2 MLOAD DUP2 LT PUSH2 0x10CA JUMPI PUSH4 0x4E487B71 PUSH1 0xE0 SHL PUSH1 0x0 MSTORE PUSH1 0x32 PUSH1 0x4 MSTORE PUSH1 0x24 PUSH1 0x0 REVERT JUMPDEST PUSH1 0x20 MUL PUSH1 0x20 ADD ADD SWAP1 PUSH1 0x0 SIGNEXTEND SWAP1 DUP2 PUSH1 0x0 SIGNEXTEND DUP2 MSTORE POP POP PUSH1 0xD DUP2 PUSH1 0x3 DUP2 MLOAD DUP2 LT PUSH2 0x1101 JUMPI PUSH4 0x4E487B71 PUSH1 0xE0 SHL PUSH1 0x0 MSTORE PUSH1 0x32 PUSH1 0x4 MSTORE PUSH1 0x24 PUSH1 0x0 REVERT JUMPDEST PUSH1 0x0 SWAP3 DUP4 SIGNEXTEND DUP4 SIGNEXTEND PUSH1 0x20 SWAP2 DUP3 MUL SWAP3 SWAP1 SWAP3 ADD ADD MSTORE PUSH1 0x40 DUP1 MLOAD PUSH1 0x4 DUP1 DUP3 MSTORE PUSH1 0xA0 DUP3 ADD SWAP1 SWAP3 MSTORE SWAP1 DUP2 PUSH1 0x20 ADD PUSH1 0x20 DUP3 MUL DUP1 CALLDATASIZE DUP4 CALLDATACOPY ADD SWAP1 POP POP SWAP1 POP PUSH1 0x9 NOT DUP2 PUSH1 0x0 DUP2 MLOAD DUP2 LT PUSH2 0x115A JUMPI PUSH4 0x4E487B71 PUSH1 0xE0 SHL PUSH1 0x0 MSTORE PUSH1 0x32 PUSH1 0x4 MSTORE PUSH1 0x24 PUSH1 0x0 REVERT JUMPDEST PUSH1 0x20 MUL PUSH1 0x20 ADD ADD SWAP1 PUSH1 0x0 SIGNEXTEND SWAP1 DUP2 PUSH1 0x0 SIGNEXTEND DUP2 MSTORE POP POP PUSH1 0xA NOT DUP2 PUSH1 0x1 DUP2 MLOAD DUP2 LT PUSH2 0x1192 JUMPI PUSH4 0x4E487B71 PUSH1 0xE0 SHL PUSH1 0x0 MSTORE PUSH1 0x32 PUSH1 0x4 MSTORE PUSH1 0x24 PUSH1 0x0 REVERT JUMPDEST PUSH1 0x20 MUL PUSH1 0x20 ADD ADD SWAP1 PUSH1 0x0 SIGNEXTEND SWAP1 DUP2 PUSH1 0x0 SIGNEXTEND DUP2 MSTORE POP POP PUSH1 0xB NOT DUP2 PUSH1 0x2 DUP2 MLOAD DUP2 LT PUSH2 0x11CA JUMPI PUSH4 0x4E487B71 PUSH1 0xE0 SHL PUSH1 0x0 MSTORE PUSH1 0x32 PUSH1 0x4 MSTORE PUSH1 0x24 PUSH1 0x0 REVERT JUMPDEST PUSH1 0x20 MUL PUSH1 0x20 ADD ADD SWAP1 PUSH1 0x0 SIGNEXTEND SWAP1 DUP2 PUSH1 0x0 SIGNEXTEND DUP2 MSTORE POP POP PUSH1 0xC NOT DUP2 PUSH1 0x3 DUP2 MLOAD DUP2 LT PUSH2 0x1202 JUMPI PUSH4 0x4E487B71 PUSH1 0xE0 SHL PUSH1 0x0 MSTORE PUSH1 0x32 PUSH1 0x4 MSTORE PUSH1 0x24 PUSH1 0x0 REVERT JUMPDEST PUSH1 0x0 SWAP3 DUP4 SIGNEXTEND DUP4 SIGNEXTEND PUSH1 0x20 SWAP2 DUP3 MUL SWAP3 SWAP1 SWAP3 ADD ADD MSTORE PUSH1 0x40 DUP1 MLOAD PUSH1 0x4 DUP1 DUP3 MSTORE PUSH1 0xA0 DUP3 ADD SWAP1 SWAP3 MSTORE SWAP1 DUP2 PUSH1 0x20 ADD PUSH1 0x20 DUP3 MUL DUP1 CALLDATASIZE DUP4 CALLDATACOPY POP POP PUSH1 0x40 DUP1 MLOAD PUSH1 0x4 DUP1 DUP3 MSTORE PUSH1 0xA0 DUP3 ADD SWAP1 SWAP3 MSTORE SWAP3 SWAP4 POP PUSH1 0x0 SWAP3 SWAP2 POP PUSH1 0x20 DUP3 ADD PUSH1 0x80 DUP1 CALLDATASIZE DUP4 CALLDATACOPY ADD SWAP1 POP POP SWAP1 POP PUSH1 0x0 JUMPDEST PUSH1 0x4 PUSH2 0xFFFF DUP3 AND LT ISZERO PUSH2 0x13C8 JUMPI DUP10 DUP2 PUSH2 0xFFFF AND DUP2 MLOAD DUP2 LT PUSH2 0x128F JUMPI PUSH4 0x4E487B71 PUSH1 0xE0 SHL PUSH1 0x0 MSTORE PUSH1 0x32 PUSH1 0x4 MSTORE PUSH1 0x24 PUSH1 0x0 REVERT JUMPDEST PUSH1 0x20 MUL PUSH1 0x20 ADD ADD MLOAD PUSH1 0xFF AND DUP12 DUP3 PUSH2 0xFFFF AND DUP2 MLOAD DUP2 LT PUSH2 0x12BE JUMPI PUSH4 0x4E487B71 PUSH1 0xE0 SHL PUSH1 0x0 MSTORE PUSH1 0x32 PUSH1 0x4 MSTORE PUSH1 0x24 PUSH1 0x0 REVERT JUMPDEST PUSH1 0x20 MUL PUSH1 0x20 ADD ADD MLOAD PUSH1 0x20 ADD MLOAD PUSH2 0xFFFF AND PUSH2 0x12D8 SWAP2 SWAP1 PUSH2 0x2D7F JUMP JUMPDEST DUP4 DUP3 PUSH2 0xFFFF AND DUP2 MLOAD DUP2 LT PUSH2 0x12FC JUMPI PUSH4 0x4E487B71 PUSH1 0xE0 SHL PUSH1 0x0 MSTORE PUSH1 0x32 PUSH1 0x4 MSTORE PUSH1 0x24 PUSH1 0x0 REVERT JUMPDEST PUSH1 0x20 MUL PUSH1 0x20 ADD ADD SWAP1 PUSH1 0x7 SIGNEXTEND SWAP1 DUP2 PUSH1 0x7 SIGNEXTEND DUP2 MSTORE POP POP DUP9 DUP2 PUSH2 0xFFFF AND DUP2 MLOAD DUP2 LT PUSH2 0x1334 JUMPI PUSH4 0x4E487B71 PUSH1 0xE0 SHL PUSH1 0x0 MSTORE PUSH1 0x32 PUSH1 0x4 MSTORE PUSH1 0x24 PUSH1 0x0 REVERT JUMPDEST PUSH1 0x20 MUL PUSH1 0x20 ADD ADD MLOAD PUSH1 0xFF AND DUP12 DUP3 PUSH2 0xFFFF AND DUP2 MLOAD DUP2 LT PUSH2 0x1363 JUMPI PUSH4 0x4E487B71 PUSH1 0xE0 SHL PUSH1 0x0 MSTORE PUSH1 0x32 PUSH1 0x4 MSTORE PUSH1 0x24 PUSH1 0x0 REVERT JUMPDEST PUSH1 0x20 MUL PUSH1 0x20 ADD ADD MLOAD PUSH1 0x20 ADD MLOAD PUSH2 0xFFFF AND PUSH2 0x137D SWAP2 SWAP1 PUSH2 0x2D7F JUMP JUMPDEST DUP3 DUP3 PUSH2 0xFFFF AND DUP2 MLOAD DUP2 LT PUSH2 0x13A1 JUMPI PUSH4 0x4E487B71 PUSH1 0xE0 SHL PUSH1 0x0 MSTORE PUSH1 0x32 PUSH1 0x4 MSTORE PUSH1 0x24 PUSH1 0x0 REVERT JUMPDEST PUSH1 0x20 MUL PUSH1 0x20 ADD ADD SWAP1 PUSH1 0x7 SIGNEXTEND SWAP1 DUP2 PUSH1 0x7 SIGNEXTEND DUP2 MSTORE POP POP DUP1 DUP1 PUSH2 0x13C0 SWAP1 PUSH2 0x2F19 JUMP JUMPDEST SWAP2 POP POP PUSH2 0x125E JUMP JUMPDEST POP PUSH2 0x13D1 PUSH2 0x23B9 JUMP JUMPDEST DUP12 ISZERO PUSH2 0x14C0 JUMPI PUSH2 0x13E3 PUSH1 0x4 PUSH1 0x14 PUSH2 0x2E1E JUMP JUMPDEST PUSH1 0xFF AND PUSH8 0xFFFFFFFFFFFFFFFF DUP2 GT ISZERO PUSH2 0x140C JUMPI PUSH4 0x4E487B71 PUSH1 0xE0 SHL PUSH1 0x0 MSTORE PUSH1 0x41 PUSH1 0x4 MSTORE PUSH1 0x24 PUSH1 0x0 REVERT JUMPDEST PUSH1 0x40 MLOAD SWAP1 DUP1 DUP3 MSTORE DUP1 PUSH1 0x20 MUL PUSH1 0x20 ADD DUP3 ADD PUSH1 0x40 MSTORE DUP1 ISZERO PUSH2 0x1445 JUMPI DUP2 PUSH1 0x20 ADD JUMPDEST PUSH2 0x1432 PUSH2 0x23ED JUMP JUMPDEST DUP2 MSTORE PUSH1 0x20 ADD SWAP1 PUSH1 0x1 SWAP1 SUB SWAP1 DUP2 PUSH2 0x142A JUMPI SWAP1 POP JUMPDEST POP PUSH1 0x60 DUP3 ADD MSTORE PUSH2 0x1457 PUSH1 0x4 PUSH1 0x14 PUSH2 0x2E1E JUMP JUMPDEST PUSH1 0xFF AND PUSH8 0xFFFFFFFFFFFFFFFF DUP2 GT ISZERO PUSH2 0x1480 JUMPI PUSH4 0x4E487B71 PUSH1 0xE0 SHL PUSH1 0x0 MSTORE PUSH1 0x41 PUSH1 0x4 MSTORE PUSH1 0x24 PUSH1 0x0 REVERT JUMPDEST PUSH1 0x40 MLOAD SWAP1 DUP1 DUP3 MSTORE DUP1 PUSH1 0x20 MUL PUSH1 0x20 ADD DUP3 ADD PUSH1 0x40 MSTORE DUP1 ISZERO PUSH2 0x14B9 JUMPI DUP2 PUSH1 0x20 ADD JUMPDEST PUSH2 0x14A6 PUSH2 0x23ED JUMP JUMPDEST DUP2 MSTORE PUSH1 0x20 ADD SWAP1 PUSH1 0x1 SWAP1 SUB SWAP1 DUP2 PUSH2 0x149E JUMPI SWAP1 POP JUMPDEST POP PUSH1 0x80 DUP3 ADD MSTORE JUMPDEST PUSH1 0x0 DUP2 MSTORE JUMPDEST DUP1 MLOAD PUSH1 0x14 PUSH1 0xFF SWAP1 SWAP2 AND LT DUP1 ISZERO PUSH2 0x14E1 JUMPI POP PUSH2 0x14DF DUP4 PUSH2 0x1ABB JUMP JUMPDEST ISZERO JUMPDEST DUP1 ISZERO PUSH2 0x14F3 JUMPI POP PUSH2 0x14F1 DUP3 PUSH2 0x1ABB JUMP JUMPDEST ISZERO JUMPDEST ISZERO PUSH2 0x192A JUMPI PUSH1 0x0 PUSH1 0xA0 DUP3 ADD MSTORE JUMPDEST PUSH1 0x4 PUSH1 0xFF AND DUP2 PUSH1 0xA0 ADD MLOAD PUSH1 0xFF AND LT ISZERO PUSH2 0x1713 JUMPI PUSH1 0x0 DUP4 DUP3 PUSH1 0xA0 ADD MLOAD PUSH1 0xFF AND DUP2 MLOAD DUP2 LT PUSH2 0x153C JUMPI PUSH4 0x4E487B71 PUSH1 0xE0 SHL PUSH1 0x0 MSTORE PUSH1 0x32 PUSH1 0x4 MSTORE PUSH1 0x24 PUSH1 0x0 REVERT JUMPDEST PUSH1 0x20 MUL PUSH1 0x20 ADD ADD MLOAD PUSH1 0x7 SIGNEXTEND SGT ISZERO PUSH2 0x16F8 JUMPI PUSH1 0x0 PUSH2 0x1560 DUP13 DUP4 PUSH1 0xA0 ADD MLOAD DUP9 DUP9 DUP8 PUSH2 0x1B1D JUMP JUMPDEST SWAP1 POP PUSH1 0x0 DUP2 PUSH1 0x0 SIGNEXTEND SLT PUSH2 0x1639 JUMPI PUSH1 0x0 PUSH2 0x15AE DUP16 DUP15 DUP6 PUSH1 0xA0 ADD MLOAD DUP6 DUP10 DUP9 PUSH1 0xA0 ADD MLOAD PUSH1 0xFF AND DUP2 MLOAD DUP2 LT PUSH2 0x15A1 JUMPI PUSH4 0x4E487B71 PUSH1 0xE0 SHL PUSH1 0x0 MSTORE PUSH1 0x32 PUSH1 0x4 MSTORE PUSH1 0x24 PUSH1 0x0 REVERT JUMPDEST PUSH1 0x20 MUL PUSH1 0x20 ADD ADD MLOAD PUSH2 0x1C84 JUMP JUMPDEST SWAP1 POP DUP1 PUSH4 0xFFFFFFFF AND DUP5 DUP4 PUSH1 0xFF AND DUP2 MLOAD DUP2 LT PUSH2 0x15DA JUMPI PUSH4 0x4E487B71 PUSH1 0xE0 SHL PUSH1 0x0 MSTORE PUSH1 0x32 PUSH1 0x4 MSTORE PUSH1 0x24 PUSH1 0x0 REVERT JUMPDEST PUSH1 0x20 MUL PUSH1 0x20 ADD ADD DUP2 DUP2 MLOAD PUSH2 0x15EE SWAP2 SWAP1 PUSH2 0x2E8C JUMP JUMPDEST PUSH1 0x7 SWAP1 DUP2 SIGNEXTEND SWAP1 SIGNEXTEND SWAP1 MSTORE POP DUP14 ISZERO PUSH2 0x1633 JUMPI PUSH1 0x20 DUP4 ADD DUP1 MLOAD PUSH2 0x1633 SWAP2 PUSH2 0x1611 DUP3 PUSH2 0x2F70 JUMP JUMPDEST PUSH1 0xFF AND PUSH1 0xFF AND DUP2 MSTORE POP PUSH1 0xFF AND DUP5 PUSH1 0x0 ADD MLOAD DUP6 PUSH1 0x60 ADD MLOAD DUP7 PUSH1 0xA0 ADD MLOAD DUP7 DUP7 PUSH2 0x1E7D JUMP JUMPDEST POP PUSH2 0x16F6 JUMP JUMPDEST PUSH2 0x1653 DUP13 PUSH1 0x1 DUP5 PUSH1 0xA0 ADD MLOAD PUSH1 0xFF AND PUSH1 0x0 NOT DUP11 DUP11 DUP11 DUP11 PUSH2 0x1EF7 JUMP JUMPDEST DUP7 DUP4 PUSH1 0xA0 ADD MLOAD PUSH1 0xFF AND DUP2 MLOAD DUP2 LT PUSH2 0x167A JUMPI PUSH4 0x4E487B71 PUSH1 0xE0 SHL PUSH1 0x0 MSTORE PUSH1 0x32 PUSH1 0x4 MSTORE PUSH1 0x24 PUSH1 0x0 REVERT JUMPDEST PUSH1 0x20 MUL PUSH1 0x20 ADD ADD SWAP1 PUSH1 0x0 SIGNEXTEND SWAP1 DUP2 PUSH1 0x0 SIGNEXTEND DUP2 MSTORE POP POP DUP13 ISZERO PUSH2 0x16F6 JUMPI PUSH1 0x20 DUP3 ADD DUP1 MLOAD PUSH2 0x16F6 SWAP2 PUSH2 0x16A7 DUP3 PUSH2 0x2F70 JUMP JUMPDEST PUSH1 0xFF AND PUSH1 0xFF AND DUP2 MSTORE POP PUSH1 0xFF AND DUP4 PUSH1 0x0 ADD MLOAD DUP5 PUSH1 0x60 ADD MLOAD DUP6 PUSH1 0xA0 ADD MLOAD DUP11 DUP8 PUSH1 0xA0 ADD MLOAD PUSH1 0xFF AND DUP2 MLOAD DUP2 LT PUSH2 0x16E9 JUMPI PUSH4 0x4E487B71 PUSH1 0xE0 SHL PUSH1 0x0 MSTORE PUSH1 0x32 PUSH1 0x4 MSTORE PUSH1 0x24 PUSH1 0x0 REVERT JUMPDEST PUSH1 0x20 MUL PUSH1 0x20 ADD ADD MLOAD PUSH2 0x206D JUMP JUMPDEST POP JUMPDEST PUSH1 0xA0 DUP2 ADD DUP1 MLOAD SWAP1 PUSH2 0x1708 DUP3 PUSH2 0x2F70 JUMP JUMPDEST PUSH1 0xFF AND SWAP1 MSTORE POP PUSH2 0x1500 JUMP JUMPDEST PUSH1 0x0 PUSH1 0xA0 DUP3 ADD MSTORE JUMPDEST PUSH1 0x4 PUSH1 0xFF AND DUP2 PUSH1 0xA0 ADD MLOAD PUSH1 0xFF AND LT ISZERO PUSH2 0x1913 JUMPI PUSH1 0x0 DUP3 DUP3 PUSH1 0xA0 ADD MLOAD PUSH1 0xFF AND DUP2 MLOAD DUP2 LT PUSH2 0x1757 JUMPI PUSH4 0x4E487B71 PUSH1 0xE0 SHL PUSH1 0x0 MSTORE PUSH1 0x32 PUSH1 0x4 MSTORE PUSH1 0x24 PUSH1 0x0 REVERT JUMPDEST PUSH1 0x20 MUL PUSH1 0x20 ADD ADD MLOAD PUSH1 0x7 SIGNEXTEND SGT ISZERO PUSH2 0x18F8 JUMPI PUSH1 0x0 PUSH2 0x177B DUP13 DUP4 PUSH1 0xA0 ADD MLOAD DUP8 DUP10 DUP9 PUSH2 0x1B1D JUMP JUMPDEST SWAP1 POP PUSH1 0x0 DUP2 PUSH1 0x0 SIGNEXTEND SLT PUSH2 0x1847 JUMPI PUSH1 0x0 PUSH2 0x17BC DUP16 DUP15 DUP6 PUSH1 0xA0 ADD MLOAD DUP6 DUP9 DUP9 PUSH1 0xA0 ADD MLOAD PUSH1 0xFF AND DUP2 MLOAD DUP2 LT PUSH2 0x15A1 JUMPI PUSH4 0x4E487B71 PUSH1 0xE0 SHL PUSH1 0x0 MSTORE PUSH1 0x32 PUSH1 0x4 MSTORE PUSH1 0x24 PUSH1 0x0 REVERT JUMPDEST SWAP1 POP DUP1 PUSH4 0xFFFFFFFF AND DUP6 DUP4 PUSH1 0xFF AND DUP2 MLOAD DUP2 LT PUSH2 0x17E8 JUMPI PUSH4 0x4E487B71 PUSH1 0xE0 SHL PUSH1 0x0 MSTORE PUSH1 0x32 PUSH1 0x4 MSTORE PUSH1 0x24 PUSH1 0x0 REVERT JUMPDEST PUSH1 0x20 MUL PUSH1 0x20 ADD ADD DUP2 DUP2 MLOAD PUSH2 0x17FC SWAP2 SWAP1 PUSH2 0x2E8C JUMP JUMPDEST PUSH1 0x7 SWAP1 DUP2 SIGNEXTEND SWAP1 SIGNEXTEND SWAP1 MSTORE POP DUP14 ISZERO PUSH2 0x1841 JUMPI PUSH1 0x40 DUP4 ADD DUP1 MLOAD PUSH2 0x1841 SWAP2 PUSH2 0x181F DUP3 PUSH2 0x2F70 JUMP JUMPDEST PUSH1 0xFF AND PUSH1 0xFF AND DUP2 MSTORE POP PUSH1 0xFF AND DUP5 PUSH1 0x0 ADD MLOAD DUP6 PUSH1 0x80 ADD MLOAD DUP7 PUSH1 0xA0 ADD MLOAD DUP7 DUP7 PUSH2 0x1E7D JUMP JUMPDEST POP PUSH2 0x18F6 JUMP JUMPDEST PUSH2 0x1860 DUP13 PUSH1 0x0 DUP5 PUSH1 0xA0 ADD MLOAD PUSH1 0xFF AND PUSH1 0x1 DUP11 DUP11 DUP11 DUP11 PUSH2 0x1EF7 JUMP JUMPDEST DUP6 DUP4 PUSH1 0xA0 ADD MLOAD PUSH1 0xFF AND DUP2 MLOAD DUP2 LT PUSH2 0x1887 JUMPI PUSH4 0x4E487B71 PUSH1 0xE0 SHL PUSH1 0x0 MSTORE PUSH1 0x32 PUSH1 0x4 MSTORE PUSH1 0x24 PUSH1 0x0 REVERT JUMPDEST PUSH1 0x20 MUL PUSH1 0x20 ADD ADD SWAP1 PUSH1 0x0 SIGNEXTEND SWAP1 DUP2 PUSH1 0x0 SIGNEXTEND DUP2 MSTORE POP POP DUP13 ISZERO PUSH2 0x18F6 JUMPI PUSH1 0x40 DUP3 ADD DUP1 MLOAD PUSH2 0x18F6 SWAP2 PUSH2 0x18B4 DUP3 PUSH2 0x2F70 JUMP JUMPDEST PUSH1 0xFF AND PUSH1 0xFF AND DUP2 MSTORE POP PUSH1 0xFF AND DUP4 PUSH1 0x0 ADD MLOAD DUP5 PUSH1 0x80 ADD MLOAD DUP6 PUSH1 0xA0 ADD MLOAD DUP10 DUP8 PUSH1 0xA0 ADD MLOAD PUSH1 0xFF AND DUP2 MLOAD DUP2 LT PUSH2 0x16E9 JUMPI PUSH4 0x4E487B71 PUSH1 0xE0 SHL PUSH1 0x0 MSTORE PUSH1 0x32 PUSH1 0x4 MSTORE PUSH1 0x24 PUSH1 0x0 REVERT JUMPDEST POP JUMPDEST PUSH1 0xA0 DUP2 ADD DUP1 MLOAD SWAP1 PUSH2 0x1908 DUP3 PUSH2 0x2F70 JUMP JUMPDEST PUSH1 0xFF AND SWAP1 MSTORE POP PUSH2 0x171B JUMP JUMPDEST DUP1 MLOAD DUP2 PUSH2 0x191F DUP3 PUSH2 0x2F70 JUMP JUMPDEST PUSH1 0xFF AND SWAP1 MSTORE POP PUSH2 0x14C5 JUMP JUMPDEST PUSH1 0x60 SWAP4 POP PUSH1 0x60 SWAP5 POP PUSH1 0x40 MLOAD DUP1 PUSH2 0x140 ADD PUSH1 0x40 MSTORE DUP1 DUP12 DUP2 MSTORE PUSH1 0x20 ADD DUP11 DUP2 MSTORE PUSH1 0x20 ADD DUP10 PUSH1 0xFF AND DUP2 MSTORE PUSH1 0x20 ADD DUP9 PUSH1 0xFF AND DUP2 MSTORE PUSH1 0x20 ADD DUP3 PUSH1 0x60 ADD MLOAD DUP2 MSTORE PUSH1 0x20 ADD DUP3 PUSH1 0x80 ADD MLOAD DUP2 MSTORE PUSH1 0x20 ADD PUSH2 0x1979 DUP6 PUSH2 0x1ABB JUMP JUMPDEST ISZERO ISZERO DUP2 MSTORE PUSH1 0x20 ADD PUSH2 0x1989 DUP5 PUSH2 0x1ABB JUMP JUMPDEST ISZERO ISZERO DUP2 MSTORE SWAP2 MLOAD PUSH1 0xFF AND PUSH1 0x20 DUP4 ADD MSTORE PUSH1 0x40 SWAP1 SWAP2 ADD DUP14 SWAP1 MSTORE SWAP5 POP POP POP POP POP SWAP8 SWAP7 POP POP POP POP POP POP POP JUMP JUMPDEST PUSH2 0x19B8 PUSH2 0x226A JUMP JUMPDEST DUP5 MLOAD PUSH1 0x4 EQ PUSH2 0x19D9 JUMPI PUSH1 0x40 MLOAD PUSH3 0x461BCD PUSH1 0xE5 SHL DUP2 MSTORE PUSH1 0x4 ADD PUSH2 0x19E SWAP1 PUSH2 0x29E3 JUMP JUMPDEST DUP4 MLOAD PUSH1 0x4 EQ PUSH2 0x19FA JUMPI PUSH1 0x40 MLOAD PUSH3 0x461BCD PUSH1 0xE5 SHL DUP2 MSTORE PUSH1 0x4 ADD PUSH2 0x19E SWAP1 PUSH2 0x29E3 JUMP JUMPDEST PUSH1 0x2 DUP1 SLOAD PUSH1 0x40 DUP1 MLOAD PUSH1 0x20 DUP1 DUP5 MUL DUP3 ADD DUP2 ADD SWAP1 SWAP3 MSTORE DUP3 DUP2 MSTORE PUSH2 0x29C SWAP4 DUP11 SWAP4 PUSH1 0x0 SWAP4 DUP5 SWAP1 DUP5 ADD DUP3 ISZERO PUSH2 0x28F JUMPI PUSH1 0x0 DUP5 DUP2 MSTORE PUSH1 0x20 SWAP1 DUP2 SWAP1 KECCAK256 PUSH1 0x40 DUP1 MLOAD PUSH1 0xE0 DUP2 ADD DUP3 MSTORE PUSH1 0x3 DUP7 MUL SWAP1 SWAP3 ADD DUP1 SLOAD PUSH2 0xFFFF DUP1 DUP3 AND DUP6 MSTORE PUSH3 0x10000 SWAP2 DUP3 SWAP1 DIV DUP2 AND DUP6 DUP8 ADD MSTORE DUP4 MLOAD DUP1 DUP6 ADD DUP6 MSTORE PUSH1 0x1 DUP1 DUP6 ADD SLOAD DUP1 DUP5 AND DUP4 MSTORE DUP5 SWAP1 DIV DUP4 AND DUP3 DUP10 ADD MSTORE SWAP5 DUP7 ADD MSTORE PUSH1 0x2 SWAP1 SWAP3 ADD SLOAD DUP1 DUP4 AND PUSH1 0x60 DUP7 ADD MSTORE SWAP1 DUP2 DIV DUP3 AND PUSH1 0x80 DUP6 ADD MSTORE PUSH5 0x100000000 DUP2 DIV DUP3 AND PUSH1 0xA0 DUP6 ADD MSTORE PUSH7 0x1000000000000 SWAP1 DIV AND PUSH1 0xC0 DUP4 ADD MSTORE SWAP1 DUP4 MSTORE SWAP1 SWAP3 ADD SWAP2 ADD PUSH2 0x1F0 JUMP JUMPDEST PUSH1 0x0 PUSH1 0x1 DUP2 JUMPDEST PUSH1 0x4 DUP2 LT ISZERO PUSH2 0x1B14 JUMPI PUSH1 0x0 DUP5 DUP3 DUP2 MLOAD DUP2 LT PUSH2 0x1AEC JUMPI PUSH4 0x4E487B71 PUSH1 0xE0 SHL PUSH1 0x0 MSTORE PUSH1 0x32 PUSH1 0x4 MSTORE PUSH1 0x24 PUSH1 0x0 REVERT JUMPDEST PUSH1 0x20 MUL PUSH1 0x20 ADD ADD MLOAD PUSH1 0x7 SIGNEXTEND SGT ISZERO PUSH2 0x1B02 JUMPI PUSH1 0x0 SWAP2 POP JUMPDEST DUP1 PUSH2 0x1B0C DUP2 PUSH2 0x2F3B JUMP JUMPDEST SWAP2 POP POP PUSH2 0x1AC1 JUMP JUMPDEST POP SWAP1 POP JUMPDEST SWAP2 SWAP1 POP JUMP JUMPDEST PUSH1 0x0 DUP1 DUP5 DUP7 PUSH1 0xFF AND DUP2 MLOAD DUP2 LT PUSH2 0x1B43 JUMPI PUSH4 0x4E487B71 PUSH1 0xE0 SHL PUSH1 0x0 MSTORE PUSH1 0x32 PUSH1 0x4 MSTORE PUSH1 0x24 PUSH1 0x0 REVERT JUMPDEST PUSH1 0x20 MUL PUSH1 0x20 ADD ADD MLOAD PUSH1 0x0 SIGNEXTEND SWAP1 POP PUSH1 0x0 PUSH7 0x1FFFFFFFFFFFFF SWAP1 POP PUSH1 0x0 DUP1 JUMPDEST PUSH1 0x4 PUSH1 0xFF DUP3 AND LT ISZERO PUSH2 0x1C5A JUMPI PUSH1 0x0 DUP8 DUP3 PUSH1 0xFF AND DUP2 MLOAD DUP2 LT PUSH2 0x1B91 JUMPI PUSH4 0x4E487B71 PUSH1 0xE0 SHL PUSH1 0x0 MSTORE PUSH1 0x32 PUSH1 0x4 MSTORE PUSH1 0x24 PUSH1 0x0 REVERT JUMPDEST PUSH1 0x20 MUL PUSH1 0x20 ADD ADD MLOAD SWAP1 POP PUSH1 0x0 PUSH2 0x1BB4 DUP3 PUSH1 0x0 SIGNEXTEND DUP8 PUSH2 0x1BAF SWAP2 SWAP1 PUSH2 0x2E47 JUMP JUMPDEST PUSH2 0x20DC JUMP JUMPDEST SWAP1 POP PUSH1 0x0 DUP9 DUP5 PUSH1 0xFF AND DUP2 MLOAD DUP2 LT PUSH2 0x1BDB JUMPI PUSH4 0x4E487B71 PUSH1 0xE0 SHL PUSH1 0x0 MSTORE PUSH1 0x32 PUSH1 0x4 MSTORE PUSH1 0x24 PUSH1 0x0 REVERT JUMPDEST PUSH1 0x20 MUL PUSH1 0x20 ADD ADD MLOAD PUSH1 0x7 SIGNEXTEND SGT DUP1 ISZERO PUSH2 0x1C29 JUMPI POP DUP12 DUP12 PUSH1 0xFF AND DUP2 MLOAD DUP2 LT PUSH2 0x1C11 JUMPI PUSH4 0x4E487B71 PUSH1 0xE0 SHL PUSH1 0x0 MSTORE PUSH1 0x32 PUSH1 0x4 MSTORE PUSH1 0x24 PUSH1 0x0 REVERT JUMPDEST PUSH1 0x20 MUL PUSH1 0x20 ADD ADD MLOAD PUSH1 0xA0 ADD MLOAD PUSH2 0xFFFF AND DUP2 PUSH2 0xFFFF AND GT ISZERO JUMPDEST ISZERO PUSH2 0x1C45 JUMPI DUP5 DUP2 PUSH2 0xFFFF AND LT ISZERO PUSH2 0x1C45 JUMPI DUP1 PUSH2 0xFFFF AND SWAP5 POP DUP3 SWAP4 POP JUMPDEST POP POP DUP1 DUP1 PUSH2 0x1C52 SWAP1 PUSH2 0x2F70 JUMP JUMPDEST SWAP2 POP POP PUSH2 0x1B60 JUMP JUMPDEST POP PUSH1 0x0 SWAP3 POP PUSH7 0x1FFFFFFFFFFFFF DUP3 EQ PUSH2 0x1C73 JUMPI DUP1 PUSH2 0x1C77 JUMP JUMPDEST PUSH1 0x0 NOT JUMPDEST SWAP10 SWAP9 POP POP POP POP POP POP POP POP POP JUMP JUMPDEST PUSH1 0x0 DUP1 DUP6 DUP6 PUSH1 0xFF AND DUP2 MLOAD DUP2 LT PUSH2 0x1CAA JUMPI PUSH4 0x4E487B71 PUSH1 0xE0 SHL PUSH1 0x0 MSTORE PUSH1 0x32 PUSH1 0x4 MSTORE PUSH1 0x24 PUSH1 0x0 REVERT JUMPDEST PUSH1 0x20 MUL PUSH1 0x20 ADD ADD MLOAD PUSH1 0x40 ADD MLOAD PUSH1 0x20 ADD MLOAD PUSH2 0xFFFF AND DUP8 PUSH2 0x1CC9 SWAP2 SWAP1 PUSH2 0x2F90 JUMP JUMPDEST DUP7 DUP7 PUSH1 0xFF AND DUP2 MLOAD DUP2 LT PUSH2 0x1CEC JUMPI PUSH4 0x4E487B71 PUSH1 0xE0 SHL PUSH1 0x0 MSTORE PUSH1 0x32 PUSH1 0x4 MSTORE PUSH1 0x24 PUSH1 0x0 REVERT JUMPDEST PUSH1 0x20 MUL PUSH1 0x20 ADD ADD MLOAD PUSH1 0x40 ADD MLOAD PUSH1 0x0 ADD MLOAD PUSH2 0x1D06 SWAP2 SWAP1 PUSH2 0x2C73 JUMP JUMPDEST SWAP1 POP PUSH1 0x0 DUP7 DUP6 PUSH1 0xFF AND DUP2 MLOAD DUP2 LT PUSH2 0x1D2D JUMPI PUSH4 0x4E487B71 PUSH1 0xE0 SHL PUSH1 0x0 MSTORE PUSH1 0x32 PUSH1 0x4 MSTORE PUSH1 0x24 PUSH1 0x0 REVERT JUMPDEST PUSH1 0x20 MUL PUSH1 0x20 ADD ADD MLOAD PUSH1 0x60 ADD MLOAD SWAP1 POP PUSH1 0x0 DUP8 DUP7 PUSH1 0xFF AND DUP2 MLOAD DUP2 LT PUSH2 0x1D60 JUMPI PUSH4 0x4E487B71 PUSH1 0xE0 SHL PUSH1 0x0 MSTORE PUSH1 0x32 PUSH1 0x4 MSTORE PUSH1 0x24 PUSH1 0x0 REVERT JUMPDEST PUSH1 0x20 MUL PUSH1 0x20 ADD ADD MLOAD PUSH1 0xC0 ADD MLOAD PUSH1 0x64 PUSH2 0x1D78 SWAP2 SWAP1 PUSH2 0x2ED3 JUMP JUMPDEST SWAP1 POP PUSH1 0x0 PUSH1 0xA DUP3 PUSH2 0x1D89 DUP6 DUP8 PUSH2 0x2ED3 JUMP JUMPDEST PUSH2 0x1D93 SWAP2 SWAP1 PUSH2 0x2DD1 JUMP JUMPDEST PUSH2 0x1D9D SWAP2 SWAP1 PUSH2 0x2CBC JUMP JUMPDEST PUSH2 0xFFFF AND SWAP1 POP PUSH1 0x0 DUP10 DUP10 PUSH1 0xFF AND DUP2 MLOAD DUP2 LT PUSH2 0x1DC8 JUMPI PUSH4 0x4E487B71 PUSH1 0xE0 SHL PUSH1 0x0 MSTORE PUSH1 0x32 PUSH1 0x4 MSTORE PUSH1 0x24 PUSH1 0x0 REVERT JUMPDEST PUSH1 0x20 MUL PUSH1 0x20 ADD ADD MLOAD PUSH1 0x20 ADD MLOAD PUSH2 0xFFFF AND DUP8 PUSH2 0x1DE3 SWAP2 SWAP1 PUSH2 0x2CDD JUMP JUMPDEST PUSH2 0x1DEE SWAP1 PUSH1 0x1 PUSH2 0x2C99 JUMP JUMPDEST SWAP1 POP PUSH1 0x0 DUP11 DUP10 PUSH1 0xFF AND DUP2 MLOAD DUP2 LT PUSH2 0x1E15 JUMPI PUSH4 0x4E487B71 PUSH1 0xE0 SHL PUSH1 0x0 MSTORE PUSH1 0x32 PUSH1 0x4 MSTORE PUSH1 0x24 PUSH1 0x0 REVERT JUMPDEST PUSH1 0x20 MUL PUSH1 0x20 ADD ADD MLOAD PUSH1 0x20 ADD MLOAD PUSH2 0xFFFF AND DUP3 PUSH2 0xFFFF AND PUSH2 0x1E34 SWAP2 SWAP1 PUSH2 0x2DFB JUMP JUMPDEST SWAP1 POP PUSH1 0x0 PUSH2 0x1E46 PUSH2 0xFFFF DUP5 AND DUP6 PUSH2 0x2DFB JUMP JUMPDEST SWAP1 POP PUSH1 0x0 SWAP7 POP PUSH1 0x0 SWAP6 POP PUSH1 0x0 SWAP5 POP PUSH1 0x0 SWAP3 POP PUSH2 0x1E6C PUSH2 0x1E66 PUSH1 0x0 DUP4 PUSH2 0x2102 JUMP JUMPDEST DUP4 PUSH2 0x2120 JUMP JUMPDEST SWAP14 SWAP13 POP POP POP POP POP POP POP POP POP POP POP POP POP JUMP JUMPDEST PUSH1 0x40 MLOAD DUP1 PUSH1 0xC0 ADD PUSH1 0x40 MSTORE DUP1 PUSH1 0x1 PUSH1 0xFF AND DUP2 MSTORE PUSH1 0x20 ADD DUP7 PUSH1 0xFF AND DUP2 MSTORE PUSH1 0x20 ADD DUP5 PUSH1 0xFF AND DUP2 MSTORE PUSH1 0x20 ADD DUP4 PUSH1 0xFF AND DUP2 MSTORE PUSH1 0x20 ADD PUSH1 0x0 DUP1 SIGNEXTEND DUP2 MSTORE PUSH1 0x20 ADD DUP3 PUSH4 0xFFFFFFFF AND DUP2 MSTORE POP DUP5 DUP8 PUSH2 0xFFFF AND DUP2 MLOAD DUP2 LT PUSH2 0x1EE4 JUMPI PUSH4 0x4E487B71 PUSH1 0xE0 SHL PUSH1 0x0 MSTORE PUSH1 0x32 PUSH1 0x4 MSTORE PUSH1 0x24 PUSH1 0x0 REVERT JUMPDEST PUSH1 0x20 MUL PUSH1 0x20 ADD ADD DUP2 SWAP1 MSTORE POP POP POP POP POP POP POP JUMP JUMPDEST PUSH1 0x0 DUP1 DUP10 DUP9 PUSH2 0xFFFF AND DUP2 MLOAD DUP2 LT PUSH2 0x1F1E JUMPI PUSH4 0x4E487B71 PUSH1 0xE0 SHL PUSH1 0x0 MSTORE PUSH1 0x32 PUSH1 0x4 MSTORE PUSH1 0x24 PUSH1 0x0 REVERT JUMPDEST PUSH1 0x20 MUL PUSH1 0x20 ADD ADD MLOAD PUSH1 0x80 ADD MLOAD SWAP1 POP PUSH1 0x0 DUP10 PUSH2 0x1F64 JUMPI DUP6 DUP10 PUSH2 0xFFFF AND DUP2 MLOAD DUP2 LT PUSH2 0x1F57 JUMPI PUSH4 0x4E487B71 PUSH1 0xE0 SHL PUSH1 0x0 MSTORE PUSH1 0x32 PUSH1 0x4 MSTORE PUSH1 0x24 PUSH1 0x0 REVERT JUMPDEST PUSH1 0x20 MUL PUSH1 0x20 ADD ADD MLOAD PUSH2 0x1F91 JUMP JUMPDEST DUP7 DUP10 PUSH2 0xFFFF AND DUP2 MLOAD DUP2 LT PUSH2 0x1F88 JUMPI PUSH4 0x4E487B71 PUSH1 0xE0 SHL PUSH1 0x0 MSTORE PUSH1 0x32 PUSH1 0x4 MSTORE PUSH1 0x24 PUSH1 0x0 REVERT JUMPDEST PUSH1 0x20 MUL PUSH1 0x20 ADD ADD MLOAD JUMPDEST SWAP1 POP DUP2 JUMPDEST PUSH1 0x0 DUP2 PUSH1 0x1 SIGNEXTEND SGT ISZERO PUSH2 0x205E JUMPI PUSH1 0x0 DUP12 PUSH2 0x1FED JUMPI PUSH2 0x1FB2 DUP3 DUP12 PUSH2 0x2CF8 JUMP JUMPDEST DUP9 DUP13 PUSH2 0xFFFF AND DUP2 MLOAD DUP2 LT PUSH2 0x1FD6 JUMPI PUSH4 0x4E487B71 PUSH1 0xE0 SHL PUSH1 0x0 MSTORE PUSH1 0x32 PUSH1 0x4 MSTORE PUSH1 0x24 PUSH1 0x0 REVERT JUMPDEST PUSH1 0x20 MUL PUSH1 0x20 ADD ADD MLOAD PUSH2 0x1FE8 SWAP2 SWAP1 PUSH2 0x2C33 JUMP JUMPDEST PUSH2 0x202D JUMP JUMPDEST PUSH2 0x1FF7 DUP3 DUP12 PUSH2 0x2CF8 JUMP JUMPDEST DUP10 DUP13 PUSH2 0xFFFF AND DUP2 MLOAD DUP2 LT PUSH2 0x201B JUMPI PUSH4 0x4E487B71 PUSH1 0xE0 SHL PUSH1 0x0 MSTORE PUSH1 0x32 PUSH1 0x4 MSTORE PUSH1 0x24 PUSH1 0x0 REVERT JUMPDEST PUSH1 0x20 MUL PUSH1 0x20 ADD ADD MLOAD PUSH2 0x202D SWAP2 SWAP1 PUSH2 0x2C33 JUMP JUMPDEST SWAP1 POP PUSH2 0x203F DUP2 PUSH1 0x0 SIGNEXTEND DUP11 DUP11 DUP11 DUP11 PUSH2 0x2135 JUMP JUMPDEST ISZERO PUSH2 0x204B JUMPI SWAP2 POP PUSH2 0x205E JUMP JUMPDEST POP DUP1 PUSH2 0x2056 DUP2 PUSH2 0x2EF6 JUMP JUMPDEST SWAP2 POP POP PUSH2 0x1F95 JUMP JUMPDEST POP SWAP11 SWAP10 POP POP POP POP POP POP POP POP POP POP JUMP JUMPDEST PUSH1 0x40 DUP1 MLOAD PUSH1 0xC0 DUP2 ADD DUP3 MSTORE PUSH1 0x2 DUP2 MSTORE PUSH1 0xFF DUP7 DUP2 AND PUSH1 0x20 DUP4 ADD MSTORE DUP5 AND SWAP2 DUP2 ADD SWAP2 SWAP1 SWAP2 MSTORE PUSH1 0x0 PUSH1 0x60 DUP3 ADD DUP2 SWAP1 MSTORE DUP3 DUP2 SIGNEXTEND PUSH1 0x80 DUP4 ADD MSTORE PUSH1 0xA0 DUP3 ADD MSTORE DUP4 MLOAD DUP5 SWAP1 PUSH2 0xFFFF DUP9 AND SWAP1 DUP2 LT PUSH2 0x20CA JUMPI PUSH4 0x4E487B71 PUSH1 0xE0 SHL PUSH1 0x0 MSTORE PUSH1 0x32 PUSH1 0x4 MSTORE PUSH1 0x24 PUSH1 0x0 REVERT JUMPDEST PUSH1 0x20 MUL PUSH1 0x20 ADD ADD DUP2 SWAP1 MSTORE POP POP POP POP POP POP JUMP JUMPDEST PUSH1 0x0 DUP1 DUP3 PUSH1 0x1 SIGNEXTEND SLT PUSH2 0x20EF JUMPI POP DUP1 PUSH2 0x1B18 JUMP JUMPDEST PUSH2 0x20FB DUP3 PUSH1 0x0 NOT PUSH2 0x2CF8 JUMP JUMPDEST SWAP1 POP PUSH2 0x1B18 JUMP JUMPDEST PUSH1 0x0 DUP2 PUSH1 0x3 SIGNEXTEND DUP4 PUSH1 0x3 SIGNEXTEND SGT PUSH2 0x2117 JUMPI DUP2 PUSH2 0x2119 JUMP JUMPDEST DUP3 JUMPDEST SWAP4 SWAP3 POP POP POP JUMP JUMPDEST PUSH1 0x0 DUP2 PUSH1 0x3 SIGNEXTEND DUP4 PUSH1 0x3 SIGNEXTEND SLT PUSH2 0x2117 JUMPI DUP2 PUSH2 0x2119 JUMP JUMPDEST PUSH1 0x0 PUSH1 0xF PUSH2 0x2142 DUP8 PUSH2 0x20DC JUMP JUMPDEST PUSH2 0xFFFF AND GT ISZERO PUSH2 0x2154 JUMPI POP PUSH1 0x0 PUSH2 0x29F JUMP JUMPDEST PUSH1 0x0 DUP1 JUMPDEST PUSH1 0x4 PUSH1 0xFF DUP3 AND LT ISZERO PUSH2 0x225E JUMPI DUP8 PUSH1 0x1 SIGNEXTEND DUP8 DUP3 PUSH1 0xFF AND DUP2 MLOAD DUP2 LT PUSH2 0x218B JUMPI PUSH4 0x4E487B71 PUSH1 0xE0 SHL PUSH1 0x0 MSTORE PUSH1 0x32 PUSH1 0x4 MSTORE PUSH1 0x24 PUSH1 0x0 REVERT JUMPDEST PUSH1 0x20 MUL PUSH1 0x20 ADD ADD MLOAD PUSH1 0x0 SIGNEXTEND EQ DUP1 ISZERO PUSH2 0x21D0 JUMPI POP PUSH1 0x0 DUP6 DUP3 PUSH1 0xFF AND DUP2 MLOAD DUP2 LT PUSH2 0x21C3 JUMPI PUSH4 0x4E487B71 PUSH1 0xE0 SHL PUSH1 0x0 MSTORE PUSH1 0x32 PUSH1 0x4 MSTORE PUSH1 0x24 PUSH1 0x0 REVERT JUMPDEST PUSH1 0x20 MUL PUSH1 0x20 ADD ADD MLOAD PUSH1 0x7 SIGNEXTEND SGT JUMPDEST DUP1 PUSH2 0x2242 JUMPI POP DUP8 PUSH1 0x1 SIGNEXTEND DUP7 DUP3 PUSH1 0xFF AND DUP2 MLOAD DUP2 LT PUSH2 0x21FD JUMPI PUSH4 0x4E487B71 PUSH1 0xE0 SHL PUSH1 0x0 MSTORE PUSH1 0x32 PUSH1 0x4 MSTORE PUSH1 0x24 PUSH1 0x0 REVERT JUMPDEST PUSH1 0x20 MUL PUSH1 0x20 ADD ADD MLOAD PUSH1 0x0 SIGNEXTEND EQ DUP1 ISZERO PUSH2 0x2242 JUMPI POP PUSH1 0x0 DUP5 DUP3 PUSH1 0xFF AND DUP2 MLOAD DUP2 LT PUSH2 0x2235 JUMPI PUSH4 0x4E487B71 PUSH1 0xE0 SHL PUSH1 0x0 MSTORE PUSH1 0x32 PUSH1 0x4 MSTORE PUSH1 0x24 PUSH1 0x0 REVERT JUMPDEST PUSH1 0x20 MUL PUSH1 0x20 ADD ADD MLOAD PUSH1 0x7 SIGNEXTEND SGT JUMPDEST ISZERO PUSH2 0x224C JUMPI PUSH1 0x1 SWAP2 POP JUMPDEST DUP1 PUSH2 0x2256 DUP2 PUSH2 0x2F70 JUMP JUMPDEST SWAP2 POP POP PUSH2 0x2158 JUMP JUMPDEST POP ISZERO SWAP7 SWAP6 POP POP POP POP POP POP JUMP JUMPDEST PUSH1 0x40 DUP1 MLOAD PUSH2 0x140 DUP2 ADD DUP3 MSTORE PUSH1 0x60 DUP1 DUP3 MSTORE PUSH1 0x20 DUP3 ADD DUP2 SWAP1 MSTORE PUSH1 0x0 SWAP3 DUP3 ADD DUP4 SWAP1 MSTORE DUP1 DUP3 ADD DUP4 SWAP1 MSTORE PUSH1 0x80 DUP3 ADD DUP2 SWAP1 MSTORE PUSH1 0xA0 DUP3 ADD MSTORE PUSH1 0xC0 DUP2 ADD DUP3 SWAP1 MSTORE PUSH1 0xE0 DUP2 ADD DUP3 SWAP1 MSTORE PUSH2 0x100 DUP2 ADD DUP3 SWAP1 MSTORE PUSH2 0x120 DUP2 ADD SWAP2 SWAP1 SWAP2 MSTORE SWAP1 JUMP JUMPDEST PUSH1 0x40 DUP1 MLOAD PUSH1 0x80 DUP2 ADD DUP3 MSTORE PUSH1 0x0 DUP1 DUP3 MSTORE PUSH1 0x20 DUP3 ADD DUP2 SWAP1 MSTORE SWAP2 DUP2 ADD DUP3 SWAP1 MSTORE PUSH1 0x60 DUP2 ADD SWAP2 SWAP1 SWAP2 MSTORE SWAP1 JUMP JUMPDEST PUSH1 0x40 DUP1 MLOAD PUSH1 0xA0 DUP2 ADD DUP3 MSTORE PUSH1 0x0 DUP1 DUP3 MSTORE PUSH1 0x20 DUP3 ADD DUP2 SWAP1 MSTORE PUSH1 0x60 SWAP3 DUP3 ADD DUP4 SWAP1 MSTORE SWAP2 DUP2 ADD DUP3 SWAP1 MSTORE PUSH1 0x80 DUP2 ADD SWAP2 SWAP1 SWAP2 MSTORE SWAP1 JUMP JUMPDEST DUP3 DUP1 SLOAD DUP3 DUP3 SSTORE SWAP1 PUSH1 0x0 MSTORE PUSH1 0x20 PUSH1 0x0 KECCAK256 SWAP1 PUSH1 0x1F ADD PUSH1 0x20 SWAP1 DIV DUP2 ADD SWAP3 DUP3 ISZERO PUSH2 0x23A9 JUMPI SWAP2 PUSH1 0x20 MUL DUP3 ADD PUSH1 0x0 JUMPDEST DUP4 DUP3 GT ISZERO PUSH2 0x237A JUMPI DUP4 MLOAD DUP4 DUP3 PUSH2 0x100 EXP DUP2 SLOAD DUP2 PUSH1 0xFF MUL NOT AND SWAP1 DUP4 PUSH1 0xFF AND MUL OR SWAP1 SSTORE POP SWAP3 PUSH1 0x20 ADD SWAP3 PUSH1 0x1 ADD PUSH1 0x20 DUP2 PUSH1 0x0 ADD DIV SWAP3 DUP4 ADD SWAP3 PUSH1 0x1 SUB MUL PUSH2 0x233C JUMP JUMPDEST DUP1 ISZERO PUSH2 0x23A7 JUMPI DUP3 DUP2 PUSH2 0x100 EXP DUP2 SLOAD SWAP1 PUSH1 0xFF MUL NOT AND SWAP1 SSTORE PUSH1 0x1 ADD PUSH1 0x20 DUP2 PUSH1 0x0 ADD DIV SWAP3 DUP4 ADD SWAP3 PUSH1 0x1 SUB MUL PUSH2 0x237A JUMP JUMPDEST POP JUMPDEST POP PUSH2 0x23B5 SWAP3 SWAP2 POP PUSH2 0x2422 JUMP JUMPDEST POP SWAP1 JUMP JUMPDEST PUSH1 0x40 DUP1 MLOAD PUSH1 0xC0 DUP2 ADD DUP3 MSTORE PUSH1 0x0 DUP1 DUP3 MSTORE PUSH1 0x20 DUP3 ADD DUP2 SWAP1 MSTORE SWAP2 DUP2 ADD DUP3 SWAP1 MSTORE PUSH1 0x60 DUP1 DUP3 ADD DUP2 SWAP1 MSTORE PUSH1 0x80 DUP3 ADD MSTORE PUSH1 0xA0 DUP2 ADD SWAP2 SWAP1 SWAP2 MSTORE SWAP1 JUMP JUMPDEST PUSH1 0x40 DUP1 MLOAD PUSH1 0xC0 DUP2 ADD DUP3 MSTORE PUSH1 0x0 DUP1 DUP3 MSTORE PUSH1 0x20 DUP3 ADD DUP2 SWAP1 MSTORE SWAP2 DUP2 ADD DUP3 SWAP1 MSTORE PUSH1 0x60 DUP2 ADD DUP3 SWAP1 MSTORE PUSH1 0x80 DUP2 ADD DUP3 SWAP1 MSTORE PUSH1 0xA0 DUP2 ADD SWAP2 SWAP1 SWAP2 MSTORE SWAP1 JUMP JUMPDEST JUMPDEST DUP1 DUP3 GT ISZERO PUSH2 0x23B5 JUMPI PUSH1 0x0 DUP2 SSTORE PUSH1 0x1 ADD PUSH2 0x2423 JUMP JUMPDEST PUSH1 0x0 DUP3 PUSH1 0x1F DUP4 ADD SLT PUSH2 0x2447 JUMPI DUP1 DUP2 REVERT JUMPDEST DUP2 CALLDATALOAD PUSH1 0x20 PUSH8 0xFFFFFFFFFFFFFFFF DUP1 DUP4 GT ISZERO PUSH2 0x2464 JUMPI PUSH2 0x2464 PUSH2 0x2FD0 JUMP JUMPDEST DUP2 DUP4 MUL PUSH1 0x40 MLOAD DUP4 DUP3 DUP3 ADD ADD DUP2 DUP2 LT DUP5 DUP3 GT OR ISZERO PUSH2 0x2483 JUMPI PUSH2 0x2483 PUSH2 0x2FD0 JUMP JUMPDEST PUSH1 0x40 MSTORE DUP5 DUP2 MSTORE DUP4 DUP2 ADD SWAP3 POP DUP7 DUP5 ADD DUP3 DUP9 ADD DUP6 ADD DUP10 LT ISZERO PUSH2 0x24A1 JUMPI DUP7 DUP8 REVERT JUMPDEST DUP7 SWAP3 POP JUMPDEST DUP6 DUP4 LT ISZERO PUSH2 0x24CA JUMPI PUSH2 0x24B6 DUP2 PUSH2 0x24E8 JUMP JUMPDEST DUP5 MSTORE SWAP3 DUP5 ADD SWAP3 PUSH1 0x1 SWAP3 SWAP1 SWAP3 ADD SWAP2 DUP5 ADD PUSH2 0x24A5 JUMP JUMPDEST POP SWAP8 SWAP7 POP POP POP POP POP POP POP JUMP JUMPDEST DUP1 CALLDATALOAD PUSH2 0xFFFF DUP2 AND DUP2 EQ PUSH2 0x1B18 JUMPI PUSH1 0x0 DUP1 REVERT JUMPDEST DUP1 CALLDATALOAD PUSH1 0xFF DUP2 AND DUP2 EQ PUSH2 0x1B18 JUMPI PUSH1 0x0 DUP1 REVERT JUMPDEST PUSH1 0x0 DUP1 PUSH1 0x0 PUSH1 0x60 DUP5 DUP7 SUB SLT ISZERO PUSH2 0x250D JUMPI DUP3 DUP4 REVERT JUMPDEST DUP4 CALLDATALOAD PUSH1 0x1 PUSH1 0x1 PUSH1 0xA0 SHL SUB DUP2 AND DUP2 EQ PUSH2 0x2523 JUMPI DUP4 DUP5 REVERT JUMPDEST SWAP3 POP PUSH1 0x20 DUP5 ADD CALLDATALOAD PUSH8 0xFFFFFFFFFFFFFFFF DUP2 GT ISZERO PUSH2 0x253E JUMPI DUP3 DUP4 REVERT JUMPDEST PUSH2 0x254A DUP7 DUP3 DUP8 ADD PUSH2 0x2437 JUMP JUMPDEST SWAP3 POP POP PUSH2 0x2559 PUSH1 0x40 DUP6 ADD PUSH2 0x24E8 JUMP JUMPDEST SWAP1 POP SWAP3 POP SWAP3 POP SWAP3 JUMP JUMPDEST PUSH1 0x0 DUP1 PUSH1 0x0 PUSH1 0x60 DUP5 DUP7 SUB SLT ISZERO PUSH2 0x2576 JUMPI DUP3 DUP4 REVERT JUMPDEST DUP4 CALLDATALOAD PUSH8 0xFFFFFFFFFFFFFFFF DUP2 GT ISZERO PUSH2 0x258C JUMPI DUP4 DUP5 REVERT JUMPDEST PUSH2 0x2598 DUP7 DUP3 DUP8 ADD PUSH2 0x2437 JUMP JUMPDEST SWAP4 POP POP PUSH2 0x25A7 PUSH1 0x20 DUP6 ADD PUSH2 0x24E8 JUMP JUMPDEST SWAP2 POP PUSH1 0x40 DUP5 ADD CALLDATALOAD SWAP1 POP SWAP3 POP SWAP3 POP SWAP3 JUMP JUMPDEST PUSH1 0x0 DUP1 PUSH1 0x0 DUP1 PUSH1 0x0 DUP1 PUSH1 0x0 DUP1 PUSH1 0x0 PUSH2 0x120 DUP11 DUP13 SUB SLT ISZERO PUSH2 0x25D5 JUMPI DUP5 DUP6 REVERT JUMPDEST PUSH2 0x25DE DUP11 PUSH2 0x24D6 JUMP JUMPDEST SWAP9 POP PUSH2 0x25EC PUSH1 0x20 DUP12 ADD PUSH2 0x24D6 JUMP JUMPDEST SWAP8 POP PUSH2 0x25FA PUSH1 0x40 DUP12 ADD PUSH2 0x24D6 JUMP JUMPDEST SWAP7 POP PUSH2 0x2608 PUSH1 0x60 DUP12 ADD PUSH2 0x24D6 JUMP JUMPDEST SWAP6 POP PUSH2 0x2616 PUSH1 0x80 DUP12 ADD PUSH2 0x24D6 JUMP JUMPDEST SWAP5 POP PUSH2 0x2624 PUSH1 0xA0 DUP12 ADD PUSH2 0x24D6 JUMP JUMPDEST SWAP4 POP PUSH2 0x2632 PUSH1 0xC0 DUP12 ADD PUSH2 0x24D6 JUMP JUMPDEST SWAP3 POP PUSH2 0x2640 PUSH1 0xE0 DUP12 ADD PUSH2 0x24D6 JUMP JUMPDEST SWAP2 POP PUSH2 0x264F PUSH2 0x100 DUP12 ADD PUSH2 0x24D6 JUMP JUMPDEST SWAP1 POP SWAP3 SWAP6 SWAP9 POP SWAP3 SWAP6 SWAP9 POP SWAP3 SWAP6 SWAP9 JUMP JUMPDEST PUSH1 0x0 DUP1 PUSH1 0x0 DUP1 PUSH1 0x0 PUSH1 0xA0 DUP7 DUP9 SUB SLT ISZERO PUSH2 0x2675 JUMPI DUP1 DUP2 REVERT JUMPDEST DUP6 CALLDATALOAD SWAP5 POP PUSH1 0x20 DUP7 ADD CALLDATALOAD PUSH8 0xFFFFFFFFFFFFFFFF DUP1 DUP3 GT ISZERO PUSH2 0x2693 JUMPI DUP3 DUP4 REVERT JUMPDEST PUSH2 0x269F DUP10 DUP4 DUP11 ADD PUSH2 0x2437 JUMP JUMPDEST SWAP6 POP PUSH1 0x40 DUP9 ADD CALLDATALOAD SWAP2 POP DUP1 DUP3 GT ISZERO PUSH2 0x26B4 JUMPI DUP3 DUP4 REVERT JUMPDEST POP PUSH2 0x26C1 DUP9 DUP3 DUP10 ADD PUSH2 0x2437 JUMP JUMPDEST SWAP4 POP POP PUSH2 0x26D0 PUSH1 0x60 DUP8 ADD PUSH2 0x24E8 JUMP JUMPDEST SWAP2 POP PUSH2 0x26DE PUSH1 0x80 DUP8 ADD PUSH2 0x24E8 JUMP JUMPDEST SWAP1 POP SWAP3 SWAP6 POP SWAP3 SWAP6 SWAP1 SWAP4 POP JUMP JUMPDEST PUSH1 0x0 DUP2 MLOAD DUP1 DUP5 MSTORE PUSH1 0x20 DUP1 DUP6 ADD SWAP5 POP DUP1 DUP5 ADD DUP4 JUMPDEST DUP4 DUP2 LT ISZERO PUSH2 0x2761 JUMPI DUP2 MLOAD DUP1 MLOAD PUSH1 0xFF SWAP1 DUP2 AND DUP10 MSTORE DUP5 DUP3 ADD MLOAD DUP2 AND DUP6 DUP11 ADD MSTORE PUSH1 0x40 DUP1 DUP4 ADD MLOAD DUP3 AND SWAP1 DUP11 ADD MSTORE PUSH1 0x60 DUP1 DUP4 ADD MLOAD SWAP1 SWAP2 AND SWAP1 DUP10 ADD MSTORE PUSH1 0x80 DUP1 DUP3 ADD MLOAD DUP8 SIGNEXTEND SWAP1 DUP10 ADD MSTORE PUSH1 0xA0 SWAP1 DUP2 ADD MLOAD PUSH4 0xFFFFFFFF AND SWAP1 DUP9 ADD MSTORE PUSH1 0xC0 SWAP1 SWAP7 ADD SWAP6 SWAP1 DUP3 ADD SWAP1 PUSH1 0x1 ADD PUSH2 0x26FD JUMP JUMPDEST POP SWAP5 SWAP6 SWAP5 POP POP POP POP POP JUMP JUMPDEST PUSH1 0x0 DUP2 MLOAD DUP1 DUP5 MSTORE PUSH1 0x20 DUP1 DUP6 ADD SWAP5 POP DUP1 DUP5 ADD DUP4 JUMPDEST DUP4 DUP2 LT ISZERO PUSH2 0x2761 JUMPI DUP2 MLOAD PUSH1 0xFF AND DUP8 MSTORE SWAP6 DUP3 ADD SWAP6 SWAP1 DUP3 ADD SWAP1 PUSH1 0x1 ADD PUSH2 0x277F JUMP JUMPDEST ISZERO ISZERO SWAP1 MSTORE JUMP JUMPDEST PUSH1 0x0 PUSH1 0x1 PUSH1 0x1 PUSH1 0xA0 SHL SUB DUP3 MLOAD AND DUP4 MSTORE PUSH1 0x20 DUP3 ADD MLOAD ISZERO ISZERO PUSH1 0x20 DUP5 ADD MSTORE PUSH1 0x40 DUP3 ADD MLOAD PUSH1 0xA0 PUSH1 0x40 DUP6 ADD MSTORE PUSH2 0x27D8 PUSH1 0xA0 DUP6 ADD DUP3 PUSH2 0x276C JUMP JUMPDEST SWAP1 POP PUSH1 0xFF PUSH1 0x60 DUP5 ADD MLOAD AND PUSH1 0x60 DUP6 ADD MSTORE PUSH1 0x80 DUP4 ADD MLOAD PUSH1 0x80 DUP6 ADD MSTORE DUP1 SWAP2 POP POP SWAP3 SWAP2 POP POP JUMP JUMPDEST PUSH2 0xFFFF AND SWAP1 MSTORE JUMP JUMPDEST PUSH1 0xFF AND SWAP1 MSTORE JUMP JUMPDEST SWAP3 DUP4 MSTORE PUSH1 0x20 DUP4 ADD SWAP2 SWAP1 SWAP2 MSTORE PUSH1 0x60 SHL PUSH32 0xFFFFFFFFFFFFFFFFFFFFFFFFFFFFFFFFFFFFFFFF000000000000000000000000 AND PUSH1 0x40 DUP3 ADD MSTORE PUSH1 0x54 ADD SWAP1 JUMP JUMPDEST PUSH1 0x1 PUSH1 0x1 PUSH1 0xA0 SHL SUB SWAP2 SWAP1 SWAP2 AND DUP2 MSTORE PUSH1 0x20 ADD SWAP1 JUMP JUMPDEST PUSH1 0x20 DUP1 DUP3 MSTORE DUP3 MLOAD DUP3 DUP3 ADD DUP2 SWAP1 MSTORE PUSH1 0x0 SWAP2 SWAP1 PUSH1 0x40 SWAP1 DUP2 DUP6 ADD SWAP1 DUP7 DUP5 ADD DUP6 JUMPDEST DUP3 DUP2 LT ISZERO PUSH2 0x28C2 JUMPI DUP2 MLOAD DUP1 MLOAD PUSH1 0x1 PUSH1 0x1 PUSH1 0xA0 SHL SUB AND DUP6 MSTORE DUP7 DUP2 ADD MLOAD DUP8 DUP7 ADD MSTORE DUP6 DUP2 ADD MLOAD PUSH4 0xFFFFFFFF SWAP1 DUP2 AND DUP8 DUP8 ADD MSTORE PUSH1 0x60 SWAP2 DUP3 ADD MLOAD AND SWAP1 DUP6 ADD MSTORE PUSH1 0x80 SWAP1 SWAP4 ADD SWAP3 SWAP1 DUP6 ADD SWAP1 PUSH1 0x1 ADD PUSH2 0x2876 JUMP JUMPDEST POP SWAP2 SWAP8 SWAP7 POP POP POP POP POP POP POP JUMP JUMPDEST PUSH1 0x0 PUSH1 0x20 DUP1 DUP4 ADD DUP2 DUP5 MSTORE DUP1 DUP6 MLOAD DUP1 DUP4 MSTORE PUSH1 0x40 DUP7 ADD SWAP2 POP PUSH1 0x40 DUP5 DUP3 MUL DUP8 ADD ADD SWAP3 POP DUP4 DUP8 ADD DUP6 JUMPDEST DUP3 DUP2 LT ISZERO PUSH2 0x2922 JUMPI PUSH1 0x3F NOT DUP9 DUP7 SUB ADD DUP5 MSTORE PUSH2 0x2910 DUP6 DUP4 MLOAD PUSH2 0x27A4 JUMP JUMPDEST SWAP5 POP SWAP3 DUP6 ADD SWAP3 SWAP1 DUP6 ADD SWAP1 PUSH1 0x1 ADD PUSH2 0x28F4 JUMP JUMPDEST POP SWAP3 SWAP8 SWAP7 POP POP POP POP POP POP POP JUMP JUMPDEST PUSH1 0x20 DUP1 DUP3 MSTORE DUP3 MLOAD DUP3 DUP3 ADD DUP2 SWAP1 MSTORE PUSH1 0x0 SWAP2 SWAP1 PUSH1 0x40 SWAP1 DUP2 DUP6 ADD SWAP1 DUP7 DUP5 ADD DUP6 JUMPDEST DUP3 DUP2 LT ISZERO PUSH2 0x28C2 JUMPI DUP2 MLOAD DUP1 MLOAD PUSH2 0xFFFF SWAP1 DUP2 AND DUP7 MSTORE DUP8 DUP3 ADD MLOAD DUP2 AND DUP9 DUP8 ADD MSTORE DUP7 DUP3 ADD MLOAD DUP1 MLOAD DUP3 AND DUP9 DUP9 ADD MSTORE DUP9 ADD MLOAD AND PUSH1 0x60 DUP1 DUP8 ADD SWAP2 SWAP1 SWAP2 MSTORE DUP2 ADD MLOAD PUSH1 0x80 PUSH2 0x2994 DUP2 DUP9 ADD DUP4 PUSH2 0x27FB JUMP JUMPDEST DUP3 ADD MLOAD SWAP1 POP PUSH1 0xA0 PUSH2 0x29A7 DUP8 DUP3 ADD DUP4 PUSH2 0x27FB JUMP JUMPDEST DUP3 ADD MLOAD SWAP1 POP PUSH1 0xC0 PUSH2 0x29BA DUP8 DUP3 ADD DUP4 PUSH2 0x27FB JUMP JUMPDEST SWAP2 SWAP1 SWAP2 ADD MLOAD SWAP1 POP PUSH2 0x29CE PUSH1 0xE0 DUP7 ADD DUP3 PUSH2 0x27FB JUMP JUMPDEST POP PUSH2 0x100 SWAP4 SWAP1 SWAP4 ADD SWAP3 SWAP1 DUP6 ADD SWAP1 PUSH1 0x1 ADD PUSH2 0x294C JUMP JUMPDEST PUSH1 0x20 DUP1 DUP3 MSTORE PUSH1 0x22 SWAP1 DUP3 ADD MSTORE PUSH32 0x53656C656374696F6E206E6565647320746F2068617665203420656C656D656E PUSH1 0x40 DUP3 ADD MSTORE PUSH32 0x7473000000000000000000000000000000000000000000000000000000000000 PUSH1 0x60 DUP3 ADD MSTORE PUSH1 0x80 ADD SWAP1 JUMP JUMPDEST PUSH1 0x20 DUP1 DUP3 MSTORE PUSH1 0x24 SWAP1 DUP3 ADD MSTORE PUSH32 0x43616E206F6E6C792061747461636B2061207265676973746572656420646566 PUSH1 0x40 DUP3 ADD MSTORE PUSH32 0x656E636500000000000000000000000000000000000000000000000000000000 PUSH1 0x60 DUP3 ADD MSTORE PUSH1 0x80 ADD SWAP1 JUMP JUMPDEST PUSH1 0x20 DUP1 DUP3 MSTORE PUSH1 0x16 SWAP1 DUP3 ADD MSTORE PUSH32 0x446566656E6365206E6F74207265676973746572656400000000000000000000 PUSH1 0x40 DUP3 ADD MSTORE PUSH1 0x60 ADD SWAP1 JUMP JUMPDEST PUSH1 0x20 DUP1 DUP3 MSTORE PUSH1 0x33 SWAP1 DUP3 ADD MSTORE PUSH32 0x546869732066756E6374696F6E206973207265737472696374656420746F2074 PUSH1 0x40 DUP3 ADD MSTORE PUSH32 0x686520636F6E74726163742773206F776E657200000000000000000000000000 PUSH1 0x60 DUP3 ADD MSTORE PUSH1 0x80 ADD SWAP1 JUMP JUMPDEST PUSH1 0x0 PUSH1 0x20 DUP3 MSTORE DUP3 MLOAD PUSH2 0x140 DUP1 PUSH1 0x20 DUP6 ADD MSTORE PUSH2 0x2B50 PUSH2 0x160 DUP6 ADD DUP4 PUSH2 0x276C JUMP JUMPDEST SWAP2 POP PUSH1 0x20 DUP6 ADD MLOAD PUSH1 0x1F NOT DUP1 DUP7 DUP6 SUB ADD PUSH1 0x40 DUP8 ADD MSTORE PUSH2 0x2B6E DUP5 DUP4 PUSH2 0x276C JUMP JUMPDEST SWAP4 POP PUSH1 0x40 DUP8 ADD MLOAD SWAP2 POP PUSH2 0x2B84 PUSH1 0x60 DUP8 ADD DUP4 PUSH2 0x2803 JUMP JUMPDEST PUSH1 0x60 DUP8 ADD MLOAD SWAP2 POP PUSH2 0x2B98 PUSH1 0x80 DUP8 ADD DUP4 PUSH2 0x2803 JUMP JUMPDEST PUSH1 0x80 DUP8 ADD MLOAD SWAP2 POP DUP1 DUP7 DUP6 SUB ADD PUSH1 0xA0 DUP8 ADD MSTORE PUSH2 0x2BB3 DUP5 DUP4 PUSH2 0x26EA JUMP JUMPDEST SWAP4 POP PUSH1 0xA0 DUP8 ADD MLOAD SWAP2 POP DUP1 DUP7 DUP6 SUB ADD PUSH1 0xC0 DUP8 ADD MSTORE POP PUSH2 0x2BD1 DUP4 DUP3 PUSH2 0x26EA JUMP JUMPDEST SWAP3 POP POP PUSH1 0xC0 DUP6 ADD MLOAD PUSH2 0x2BE6 PUSH1 0xE0 DUP7 ADD DUP3 PUSH2 0x279E JUMP JUMPDEST POP PUSH1 0xE0 DUP6 ADD MLOAD PUSH2 0x100 PUSH2 0x2BFB DUP2 DUP8 ADD DUP4 PUSH2 0x279E JUMP JUMPDEST DUP7 ADD MLOAD SWAP1 POP PUSH2 0x120 PUSH2 0x2C0F DUP7 DUP3 ADD DUP4 PUSH2 0x2803 JUMP JUMPDEST SWAP6 SWAP1 SWAP6 ADD MLOAD SWAP4 ADD SWAP3 SWAP1 SWAP3 MSTORE POP SWAP2 SWAP1 POP JUMP JUMPDEST PUSH1 0x0 PUSH1 0x20 DUP3 MSTORE PUSH2 0x2119 PUSH1 0x20 DUP4 ADD DUP5 PUSH2 0x27A4 JUMP JUMPDEST PUSH1 0x0 DUP2 DUP2 SIGNEXTEND DUP4 DUP3 SIGNEXTEND DUP3 DUP3 SLT DUP3 PUSH1 0x7F SUB DUP3 SGT DUP2 ISZERO AND ISZERO PUSH2 0x2C54 JUMPI PUSH2 0x2C54 PUSH2 0x2FA4 JUMP JUMPDEST DUP3 PUSH1 0x7F NOT SUB DUP3 SLT DUP2 AND ISZERO PUSH2 0x2C6A JUMPI PUSH2 0x2C6A PUSH2 0x2FA4 JUMP JUMPDEST POP ADD SWAP4 SWAP3 POP POP POP JUMP JUMPDEST PUSH1 0x0 PUSH2 0xFFFF DUP1 DUP4 AND DUP2 DUP6 AND DUP1 DUP4 SUB DUP3 GT ISZERO PUSH2 0x2C90 JUMPI PUSH2 0x2C90 PUSH2 0x2FA4 JUMP JUMPDEST ADD SWAP5 SWAP4 POP POP POP POP JUMP JUMPDEST PUSH1 0x0 PUSH8 0xFFFFFFFFFFFFFFFF DUP1 DUP4 AND DUP2 DUP6 AND DUP1 DUP4 SUB DUP3 GT ISZERO PUSH2 0x2C90 JUMPI PUSH2 0x2C90 PUSH2 0x2FA4 JUMP JUMPDEST PUSH1 0x0 PUSH2 0xFFFF DUP1 DUP5 AND DUP1 PUSH2 0x2CD1 JUMPI PUSH2 0x2CD1 PUSH2 0x2FBA JUMP JUMPDEST SWAP3 AND SWAP2 SWAP1 SWAP2 DIV SWAP3 SWAP2 POP POP JUMP JUMPDEST PUSH1 0x0 PUSH8 0xFFFFFFFFFFFFFFFF DUP1 DUP5 AND DUP1 PUSH2 0x2CD1 JUMPI PUSH2 0x2CD1 PUSH2 0x2FBA JUMP JUMPDEST PUSH1 0x0 DUP2 PUSH1 0x1 SIGNEXTEND DUP4 PUSH1 0x1 SIGNEXTEND PUSH2 0x7FFF DUP4 DUP3 SGT DUP5 DUP5 SGT DUP4 DUP4 DIV DUP6 GT DUP3 DUP3 AND AND ISZERO PUSH2 0x2D21 JUMPI PUSH2 0x2D21 PUSH2 0x2FA4 JUMP JUMPDEST PUSH2 0x7FFF NOT DUP7 DUP6 SLT DUP3 DUP2 AND DUP8 DUP4 SDIV DUP8 SLT AND ISZERO PUSH2 0x2D3E JUMPI PUSH2 0x2D3E PUSH2 0x2FA4 JUMP JUMPDEST DUP8 DUP8 SLT SWAP3 POP DUP6 DUP3 SDIV DUP8 SLT DUP5 DUP5 AND AND ISZERO PUSH2 0x2D59 JUMPI PUSH2 0x2D59 PUSH2 0x2FA4 JUMP JUMPDEST DUP6 DUP6 SDIV DUP8 SLT DUP2 DUP5 AND AND ISZERO PUSH2 0x2D6F JUMPI PUSH2 0x2D6F PUSH2 0x2FA4 JUMP JUMPDEST POP POP POP SWAP3 SWAP1 SWAP2 MUL SWAP6 SWAP5 POP POP POP POP POP JUMP JUMPDEST PUSH1 0x0 DUP2 PUSH1 0x7 SIGNEXTEND DUP4 PUSH1 0x7 SIGNEXTEND PUSH8 0x7FFFFFFFFFFFFFFF DUP4 DUP3 SGT DUP5 DUP5 SGT DUP4 DUP4 DIV DUP6 GT DUP3 DUP3 AND AND ISZERO PUSH2 0x2DAE JUMPI PUSH2 0x2DAE PUSH2 0x2FA4 JUMP JUMPDEST PUSH8 0x7FFFFFFFFFFFFFFF NOT DUP7 DUP6 SLT DUP3 DUP2 AND DUP8 DUP4 SDIV DUP8 SLT AND ISZERO PUSH2 0x2D3E JUMPI PUSH2 0x2D3E PUSH2 0x2FA4 JUMP JUMPDEST PUSH1 0x0 PUSH2 0xFFFF DUP1 DUP4 AND DUP2 DUP6 AND DUP2 DUP4 DIV DUP2 GT DUP3 ISZERO ISZERO AND ISZERO PUSH2 0x2DF2 JUMPI PUSH2 0x2DF2 PUSH2 0x2FA4 JUMP JUMPDEST MUL SWAP5 SWAP4 POP POP POP POP JUMP JUMPDEST PUSH1 0x0 PUSH4 0xFFFFFFFF DUP1 DUP4 AND DUP2 DUP6 AND DUP2 DUP4 DIV DUP2 GT DUP3 ISZERO ISZERO AND ISZERO PUSH2 0x2DF2 JUMPI PUSH2 0x2DF2 PUSH2 0x2FA4 JUMP JUMPDEST PUSH1 0x0 PUSH1 0xFF DUP3 AND PUSH1 0xFF DUP5 AND DUP2 PUSH1 0xFF DIV DUP2 GT DUP3 ISZERO ISZERO AND ISZERO PUSH2 0x2E3F JUMPI PUSH2 0x2E3F PUSH2 0x2FA4 JUMP JUMPDEST MUL SWAP4 SWAP3 POP POP POP JUMP JUMPDEST PUSH1 0x0 DUP2 PUSH1 0x1 SIGNEXTEND DUP4 PUSH1 0x1 SIGNEXTEND DUP3 DUP2 SLT DUP2 PUSH2 0x7FFF NOT ADD DUP4 SLT DUP2 ISZERO AND ISZERO PUSH2 0x2E6C JUMPI PUSH2 0x2E6C PUSH2 0x2FA4 JUMP JUMPDEST DUP2 PUSH2 0x7FFF ADD DUP4 SGT DUP2 AND ISZERO PUSH2 0x2E82 JUMPI PUSH2 0x2E82 PUSH2 0x2FA4 JUMP JUMPDEST POP SWAP1 SUB SWAP4 SWAP3 POP POP POP JUMP JUMPDEST PUSH1 0x0 DUP2 PUSH1 0x7 SIGNEXTEND DUP4 PUSH1 0x7 SIGNEXTEND DUP3 DUP2 SLT DUP2 PUSH8 0x7FFFFFFFFFFFFFFF NOT ADD DUP4 SLT DUP2 ISZERO AND ISZERO PUSH2 0x2EB7 JUMPI PUSH2 0x2EB7 PUSH2 0x2FA4 JUMP JUMPDEST DUP2 PUSH8 0x7FFFFFFFFFFFFFFF ADD DUP4 SGT DUP2 AND ISZERO PUSH2 0x2E82 JUMPI PUSH2 0x2E82 PUSH2 0x2FA4 JUMP JUMPDEST PUSH1 0x0 PUSH2 0xFFFF DUP4 DUP2 AND SWAP1 DUP4 AND DUP2 DUP2 LT ISZERO PUSH2 0x2EEE JUMPI PUSH2 0x2EEE PUSH2 0x2FA4 JUMP JUMPDEST SUB SWAP4 SWAP3 POP POP POP JUMP JUMPDEST PUSH1 0x0 DUP2 PUSH1 0x1 SIGNEXTEND PUSH2 0x7FFF NOT DUP2 EQ ISZERO PUSH2 0x2F0F JUMPI PUSH2 0x2F0F PUSH2 0x2FA4 JUMP JUMPDEST PUSH1 0x0 NOT ADD SWAP3 SWAP2 POP POP JUMP JUMPDEST PUSH1 0x0 PUSH2 0xFFFF DUP1 DUP4 AND DUP2 DUP2 EQ ISZERO PUSH2 0x2F31 JUMPI PUSH2 0x2F31 PUSH2 0x2FA4 JUMP JUMPDEST PUSH1 0x1 ADD SWAP4 SWAP3 POP POP POP JUMP JUMPDEST PUSH1 0x0 PUSH1 0x0 NOT DUP3 EQ ISZERO PUSH2 0x2F4F JUMPI PUSH2 0x2F4F PUSH2 0x2FA4 JUMP JUMPDEST POP PUSH1 0x1 ADD SWAP1 JUMP JUMPDEST PUSH1 0x0 PUSH4 0xFFFFFFFF DUP1 DUP4 AND DUP2 DUP2 EQ ISZERO PUSH2 0x2F31 JUMPI PUSH2 0x2F31 PUSH2 0x2FA4 JUMP JUMPDEST PUSH1 0x0 PUSH1 0xFF DUP3 AND PUSH1 0xFF DUP2 EQ ISZERO PUSH2 0x2F87 JUMPI PUSH2 0x2F87 PUSH2 0x2FA4 JUMP JUMPDEST PUSH1 0x1 ADD SWAP3 SWAP2 POP POP JUMP JUMPDEST PUSH1 0x0 DUP3 PUSH2 0x2F9F JUMPI PUSH2 0x2F9F PUSH2 0x2FBA JUMP JUMPDEST POP MOD SWAP1 JUMP JUMPDEST PUSH4 0x4E487B71 PUSH1 0xE0 SHL PUSH1 0x0 MSTORE PUSH1 0x11 PUSH1 0x4 MSTORE PUSH1 0x24 PUSH1 0x0 REVERT JUMPDEST PUSH4 0x4E487B71 PUSH1 0xE0 SHL PUSH1 0x0 MSTORE PUSH1 0x12 PUSH1 0x4 MSTORE PUSH1 0x24 PUSH1 0x0 REVERT JUMPDEST PUSH4 0x4E487B71 PUSH1 0xE0 SHL PUSH1 0x0 MSTORE PUSH1 0x41 PUSH1 0x4 MSTORE PUSH1 0x24 PUSH1 0x0 REVERT INVALID LOG2 PUSH5 0x6970667358 0x22 SLT KECCAK256 0xBF 0xEB DUP8 0xE1 0x23 JUMP PUSH15 0xD4163935FD07B5EB7B05E2ACDCB487 SSTORE 0xD 0xF9 PUSH29 0x8DBB87B503FC64736F6C63430008000033000000000000000000000000 "
        },
        "methodIdentifiers": {
          "addShip(uint16,uint16,uint16,uint16,uint16,uint16,uint16,uint16,uint16)": "c0d0504a",
          "attack(address,uint8[],uint8)": "62a74512",
          "getAllDefenders()": "7af584de",
          "getLeaderboard()": "6d763a6e",
          "getOwnDefence()": "d43b838c",
          "getShips()": "6738f234",
          "owner()": "8da5cb5b",
          "registerDefence(uint8[],uint8,bytes32)": "d2eaefdb",
          "replay(uint256,uint8[],uint8[],uint8,uint8)": "0d055a47"
        }
      }
    }
  }
}