{
  "contracts/NewOmega.sol": {
    "NewOmega": {
      "abi": [
        {
          "anonymous": false,
          "inputs": [
            {
              "indexed": true,
              "internalType": "address",
              "name": "attacker",
              "type": "address"
            },
            {
              "indexed": true,
              "internalType": "address",
              "name": "defender",
              "type": "address"
            },
            {
              "components": [
                {
                  "internalType": "uint8[]",
                  "name": "selectionLhs",
                  "type": "uint8[]"
                },
                {
                  "internalType": "uint8[]",
                  "name": "selectionRhs",
                  "type": "uint8[]"
                },
                {
                  "internalType": "uint8",
                  "name": "commanderLhs",
                  "type": "uint8"
                },
                {
                  "internalType": "uint8",
                  "name": "commanderRhs",
                  "type": "uint8"
                },
                {
                  "components": [
                    {
                      "internalType": "uint8",
                      "name": "moveType",
                      "type": "uint8"
                    },
                    {
                      "internalType": "uint8",
                      "name": "round",
                      "type": "uint8"
                    },
                    {
                      "internalType": "uint8",
                      "name": "source",
                      "type": "uint8"
                    },
                    {
                      "internalType": "uint8",
                      "name": "target",
                      "type": "uint8"
                    },
                    {
                      "internalType": "int8",
                      "name": "targetPosition",
                      "type": "int8"
                    },
                    {
                      "internalType": "uint32",
                      "name": "damage",
                      "type": "uint32"
                    }
                  ],
                  "internalType": "struct Move[]",
                  "name": "lhs",
                  "type": "tuple[]"
                },
                {
                  "components": [
                    {
                      "internalType": "uint8",
                      "name": "moveType",
                      "type": "uint8"
                    },
                    {
                      "internalType": "uint8",
                      "name": "round",
                      "type": "uint8"
                    },
                    {
                      "internalType": "uint8",
                      "name": "source",
                      "type": "uint8"
                    },
                    {
                      "internalType": "uint8",
                      "name": "target",
                      "type": "uint8"
                    },
                    {
                      "internalType": "int8",
                      "name": "targetPosition",
                      "type": "int8"
                    },
                    {
                      "internalType": "uint32",
                      "name": "damage",
                      "type": "uint32"
                    }
                  ],
                  "internalType": "struct Move[]",
                  "name": "rhs",
                  "type": "tuple[]"
                },
                {
                  "internalType": "bool",
                  "name": "lhsDead",
                  "type": "bool"
                },
                {
                  "internalType": "bool",
                  "name": "rhsDead",
                  "type": "bool"
                },
                {
                  "internalType": "uint8",
                  "name": "rounds",
                  "type": "uint8"
                },
                {
                  "internalType": "uint256",
                  "name": "seed",
                  "type": "uint256"
                }
              ],
              "indexed": false,
              "internalType": "struct FightResult",
              "name": "result",
              "type": "tuple"
            }
          ],
          "name": "FightComplete",
          "type": "event"
        },
        {
          "inputs": [
            {
              "internalType": "uint16",
              "name": "index",
              "type": "uint16"
            },
            {
              "internalType": "uint16",
              "name": "cp",
              "type": "uint16"
            },
            {
              "internalType": "uint16",
              "name": "hp",
              "type": "uint16"
            },
            {
              "internalType": "uint16",
              "name": "attackBase",
              "type": "uint16"
            },
            {
              "internalType": "uint16",
              "name": "attackVariable",
              "type": "uint16"
            },
            {
              "internalType": "uint16",
              "name": "defence",
              "type": "uint16"
            },
            {
              "internalType": "uint16",
              "name": "speed",
              "type": "uint16"
            },
            {
              "internalType": "uint16",
              "name": "range",
              "type": "uint16"
            }
          ],
          "name": "addShip",
          "outputs": [],
          "stateMutability": "nonpayable",
          "type": "function"
        },
        {
          "inputs": [
            {
              "internalType": "address",
              "name": "enemy",
              "type": "address"
            },
            {
              "internalType": "uint8[]",
              "name": "selection",
              "type": "uint8[]"
            },
            {
              "internalType": "uint8",
              "name": "commander",
              "type": "uint8"
            }
          ],
          "name": "attack",
          "outputs": [],
          "stateMutability": "nonpayable",
          "type": "function"
        },
        {
          "inputs": [],
          "name": "getAllDefenders",
          "outputs": [
            {
              "components": [
                {
                  "internalType": "address",
                  "name": "player",
                  "type": "address"
                },
                {
                  "internalType": "bool",
                  "name": "isInitialised",
                  "type": "bool"
                },
                {
                  "internalType": "uint8[]",
                  "name": "defenceSelection",
                  "type": "uint8[]"
                },
                {
                  "internalType": "uint8",
                  "name": "commander",
                  "type": "uint8"
                },
                {
                  "internalType": "bytes32",
                  "name": "name",
                  "type": "bytes32"
                }
              ],
              "internalType": "struct PlayerDefence[]",
              "name": "",
              "type": "tuple[]"
            }
          ],
          "stateMutability": "view",
          "type": "function"
        },
        {
          "inputs": [],
          "name": "getLeaderboard",
          "outputs": [
            {
              "components": [
                {
                  "internalType": "address",
                  "name": "player",
                  "type": "address"
                },
                {
                  "internalType": "bytes32",
                  "name": "name",
                  "type": "bytes32"
                },
                {
                  "internalType": "uint32",
                  "name": "wins",
                  "type": "uint32"
                },
                {
                  "internalType": "uint32",
                  "name": "losses",
                  "type": "uint32"
                }
              ],
              "internalType": "struct LeaderboardEntry[]",
              "name": "",
              "type": "tuple[]"
            }
          ],
          "stateMutability": "view",
          "type": "function"
        },
        {
          "inputs": [],
          "name": "getOwnDefence",
          "outputs": [
            {
              "components": [
                {
                  "internalType": "address",
                  "name": "player",
                  "type": "address"
                },
                {
                  "internalType": "bool",
                  "name": "isInitialised",
                  "type": "bool"
                },
                {
                  "internalType": "uint8[]",
                  "name": "defenceSelection",
                  "type": "uint8[]"
                },
                {
                  "internalType": "uint8",
                  "name": "commander",
                  "type": "uint8"
                },
                {
                  "internalType": "bytes32",
                  "name": "name",
                  "type": "bytes32"
                }
              ],
              "internalType": "struct PlayerDefence",
              "name": "",
              "type": "tuple"
            }
          ],
          "stateMutability": "view",
          "type": "function"
        },
        {
          "inputs": [],
          "name": "getShips",
          "outputs": [
            {
              "components": [
                {
                  "internalType": "uint16",
                  "name": "cp",
                  "type": "uint16"
                },
                {
                  "internalType": "uint16",
                  "name": "hp",
                  "type": "uint16"
                },
                {
                  "components": [
                    {
                      "internalType": "uint16",
                      "name": "base",
                      "type": "uint16"
                    },
                    {
                      "internalType": "uint16",
                      "name": "variable",
                      "type": "uint16"
                    }
                  ],
                  "internalType": "struct ShipVariableStat",
                  "name": "attack",
                  "type": "tuple"
                },
                {
                  "internalType": "uint16",
                  "name": "defence",
                  "type": "uint16"
                },
                {
                  "internalType": "uint16",
                  "name": "speed",
                  "type": "uint16"
                },
                {
                  "internalType": "uint16",
                  "name": "range",
                  "type": "uint16"
                }
              ],
              "internalType": "struct Ship[]",
              "name": "",
              "type": "tuple[]"
            }
          ],
          "stateMutability": "view",
          "type": "function"
        },
        {
          "inputs": [],
          "name": "owner",
          "outputs": [
            {
              "internalType": "address",
              "name": "",
              "type": "address"
            }
          ],
          "stateMutability": "view",
          "type": "function"
        },
        {
          "inputs": [
            {
              "internalType": "uint8[]",
              "name": "defence",
              "type": "uint8[]"
            },
            {
              "internalType": "uint8",
              "name": "commander",
              "type": "uint8"
            },
            {
              "internalType": "bytes32",
              "name": "name",
              "type": "bytes32"
            }
          ],
          "name": "registerDefence",
          "outputs": [],
          "stateMutability": "nonpayable",
          "type": "function"
        },
        {
          "inputs": [
            {
              "internalType": "uint256",
              "name": "seed",
              "type": "uint256"
            },
            {
              "internalType": "uint8[]",
              "name": "selectionLhs",
              "type": "uint8[]"
            },
            {
              "internalType": "uint8[]",
              "name": "selectionRhs",
              "type": "uint8[]"
            },
            {
              "internalType": "uint8",
              "name": "commanderLhs",
              "type": "uint8"
            },
            {
              "internalType": "uint8",
              "name": "commanderRhs",
              "type": "uint8"
            }
          ],
          "name": "replay",
          "outputs": [
            {
              "components": [
                {
                  "internalType": "uint8[]",
                  "name": "selectionLhs",
                  "type": "uint8[]"
                },
                {
                  "internalType": "uint8[]",
                  "name": "selectionRhs",
                  "type": "uint8[]"
                },
                {
                  "internalType": "uint8",
                  "name": "commanderLhs",
                  "type": "uint8"
                },
                {
                  "internalType": "uint8",
                  "name": "commanderRhs",
                  "type": "uint8"
                },
                {
                  "components": [
                    {
                      "internalType": "uint8",
                      "name": "moveType",
                      "type": "uint8"
                    },
                    {
                      "internalType": "uint8",
                      "name": "round",
                      "type": "uint8"
                    },
                    {
                      "internalType": "uint8",
                      "name": "source",
                      "type": "uint8"
                    },
                    {
                      "internalType": "uint8",
                      "name": "target",
                      "type": "uint8"
                    },
                    {
                      "internalType": "int8",
                      "name": "targetPosition",
                      "type": "int8"
                    },
                    {
                      "internalType": "uint32",
                      "name": "damage",
                      "type": "uint32"
                    }
                  ],
                  "internalType": "struct Move[]",
                  "name": "lhs",
                  "type": "tuple[]"
                },
                {
                  "components": [
                    {
                      "internalType": "uint8",
                      "name": "moveType",
                      "type": "uint8"
                    },
                    {
                      "internalType": "uint8",
                      "name": "round",
                      "type": "uint8"
                    },
                    {
                      "internalType": "uint8",
                      "name": "source",
                      "type": "uint8"
                    },
                    {
                      "internalType": "uint8",
                      "name": "target",
                      "type": "uint8"
                    },
                    {
                      "internalType": "int8",
                      "name": "targetPosition",
                      "type": "int8"
                    },
                    {
                      "internalType": "uint32",
                      "name": "damage",
                      "type": "uint32"
                    }
                  ],
                  "internalType": "struct Move[]",
                  "name": "rhs",
                  "type": "tuple[]"
                },
                {
                  "internalType": "bool",
                  "name": "lhsDead",
                  "type": "bool"
                },
                {
                  "internalType": "bool",
                  "name": "rhsDead",
                  "type": "bool"
                },
                {
                  "internalType": "uint8",
                  "name": "rounds",
                  "type": "uint8"
                },
                {
                  "internalType": "uint256",
                  "name": "seed",
                  "type": "uint256"
                }
              ],
              "internalType": "struct FightResult",
              "name": "",
              "type": "tuple"
            }
          ],
          "stateMutability": "view",
          "type": "function"
        }
      ],
      "evm": {
        "bytecode": {
          "linkReferences": {},
          "object": "6080604052600080546001600160a01b0319163317905534801561002257600080fd5b50612d06806100326000396000f3fe608060405234801561001057600080fd5b50600436106100a35760003560e01c80636d763a6e116100765780638da5cb5b1161005b5780638da5cb5b14610138578063d2eaefdb1461014d578063d43b838c14610160576100a3565b80636d763a6e1461010e5780637af584de14610123576100a3565b80630d055a47146100a85780635afa3bf5146100d157806362a74512146100e65780636738f234146100f9575b600080fd5b6100bb6100b63660046123bb565b610175565b6040516100c8919061283a565b60405180910390f35b6100e46100df366004612325565b610295565b005b6100e46100f4366004612267565b610574565b6101016108be565b6040516100c89190612651565b6101166109a4565b6040516100c8919061257b565b61012b610af9565b6040516100c891906125f1565b610140610ca8565b6040516100c89190612567565b6100e461015b3660046122d0565b610cb7565b610168610ee3565b6040516100c89190612929565b61017d611fc4565b84516004146101a75760405162461bcd60e51b815260040161019e906126ec565b60405180910390fd5b83516004146101c85760405162461bcd60e51b815260040161019e906126ec565b61028b8660016002805480602002602001604051908101604052809291908181526020016000905b8282101561027e5760008481526020908190206040805160c08101825260038602909201805461ffff808216855262010000918290048116858701528351808501855260018085015480841683528490048316828901529486015260029092015480831660608601529081048216608085015264010000000090041660a083015290835290920191016101f0565b5050505088888888610fe9565b9695505050505050565b6000546001600160a01b031633146102bf5760405162461bcd60e51b815260040161019e906127dd565b60006040518060c001604052808961ffff1681526020018861ffff16815260200160405180604001604052808961ffff1681526020018861ffff1681525081526020018561ffff1681526020018461ffff1681526020018361ffff16815250905080600160008b61ffff16815260200190815260200160002060008201518160000160006101000a81548161ffff021916908361ffff16021790555060208201518160000160026101000a81548161ffff021916908361ffff16021790555060408201518160010160008201518160000160006101000a81548161ffff021916908361ffff16021790555060208201518160000160026101000a81548161ffff021916908361ffff160217905550505060608201518160020160006101000a81548161ffff021916908361ffff16021790555060808201518160020160026101000a81548161ffff021916908361ffff16021790555060a08201518160020160046101000a81548161ffff021916908361ffff160217905550905050600281908060018154018082558091505060019003906000526020600020906003020160009091909190915060008201518160000160006101000a81548161ffff021916908361ffff16021790555060208201518160000160026101000a81548161ffff021916908361ffff16021790555060408201518160010160008201518160000160006101000a81548161ffff021916908361ffff16021790555060208201518160000160026101000a81548161ffff021916908361ffff160217905550505060608201518160020160006101000a81548161ffff021916908361ffff16021790555060808201518160020160026101000a81548161ffff021916908361ffff16021790555060a08201518160020160046101000a81548161ffff021916908361ffff1602179055505050505050505050505050565b6001600160a01b038316600090815260056020526040902054600160a01b900460ff166105b35760405162461bcd60e51b815260040161019e90612749565b600062bc614e905060006107228260006002805480602002602001604051908101604052809291908181526020016000905b828210156106735760008481526020908190206040805160c08101825260038602909201805461ffff808216855262010000918290048116858701528351808501855260018085015480841683528490048316828901529486015260029092015480831660608601529081048216608085015264010000000090041660a083015290835290920191016105e5565b505050506001600160a01b03891660009081526005602090815260409182902060010180548351818402810184019094528084528b93928301828280156106f757602002820191906000526020600020906000905b825461010083900a900460ff168152602060019283018181049485019490930390920291018084116106c85790505b505050506001600160a01b038c166000908152600560205260409020600201548a915060ff16610fe9565b90508060c00151156107ca576001600160a01b03851660009081526003602052604090208054610100900463ffffffff1690600161075f83612c40565b82546101009290920a63ffffffff8181021990931691831602179091553360009081526003602052604090208054650100000000009004909116915060056107a683612c40565b91906101000a81548163ffffffff021916908363ffffffff1602179055505061086c565b8060e001511561086c573360009081526003602052604090208054610100900463ffffffff169060016107fc83612c40565b82546101009290920a63ffffffff8181021990931691831602179091556001600160a01b038716600090815260036020526040902080546501000000000090049091169150600561084c83612c40565b91906101000a81548163ffffffff021916908363ffffffff160217905550505b846001600160a01b0316336001600160a01b03167f1275943aed9ea3363652d9ca6a1546f6ed7e494c27258293820c31d0a36a8925836040516108af919061283a565b60405180910390a35050505050565b6000546060906001600160a01b031633146108eb5760405162461bcd60e51b815260040161019e906127dd565b6002805480602002602001604051908101604052809291908181526020016000905b8282101561099b5760008481526020908190206040805160c08101825260038602909201805461ffff808216855262010000918290048116858701528351808501855260018085015480841683528490048316828901529486015260029092015480831660608601529081048216608085015264010000000090041660a0830152908352909201910161090d565b50505050905090565b60045460609060009067ffffffffffffffff8111156109d357634e487b7160e01b600052604160045260246000fd5b604051908082528060200260200182016040528015610a0c57816020015b6109f9612017565b8152602001906001900390816109f15790505b50905060005b600454811015610af357600060048281548110610a3f57634e487b7160e01b600052603260045260246000fd5b6000918252602080832090910154604080516080810182526001600160a01b0390921680835280855260058452818520600390810154848601528186528085528286205463ffffffff6101008204811694860194909452958290529093526501000000000090930490921660608301528451909250849084908110610ad457634e487b7160e01b600052603260045260246000fd5b6020026020010181905250508080610aeb90612c25565b915050610a12565b50905090565b60065460609060009067ffffffffffffffff811115610b2857634e487b7160e01b600052604160045260246000fd5b604051908082528060200260200182016040528015610b6157816020015b610b4e61203e565b815260200190600190039081610b465790505b50905060005b600654811015610af3576005600060068381548110610b9657634e487b7160e01b600052603260045260246000fd5b6000918252602080832091909101546001600160a01b039081168452838201949094526040928301909120825160a08101845281549485168152600160a01b90940460ff1615158483015260018101805484518185028101850186528181529294860193830182828015610c4757602002820191906000526020600020906000905b825461010083900a900460ff16815260206001928301818104948501949093039092029101808411610c185790505b5050509183525050600282015460ff1660208201526003909101546040909101528251839083908110610c8a57634e487b7160e01b600052603260045260246000fd5b60200260200101819052508080610ca090612c25565b915050610b67565b6000546001600160a01b031681565b6040805160a08101825233808252600160208084019190915282840187905260ff80871660608501526080840186905260009283526005909152929020549091600160a01b90910416610d5457600680546001810182556000919091527ff652222313e28459528d920b65115c16c04f3efc82aaedc97be59f3f377c0d3f01805473ffffffffffffffffffffffffffffffffffffffff1916331790555b3360009081526005602090815260409182902083518154838601511515600160a01b027fffffffffffffffffffffff00ffffffffffffffffffffffffffffffffffffffff6001600160a01b039390931673ffffffffffffffffffffffffffffffffffffffff199092169190911791909116178155918301518051849392610de292600185019291019061206d565b50606082015160028201805460ff191660ff928316179055608090920151600391820155336000908152602091909152604090205416610edd5760408051606081018252600180825260006020808401828152848601838152338085526003909352958320945185549151965160ff199092169015151764ffffffff00191661010063ffffffff978816021768ffffffff00000000001916650100000000009690911695909502949094179092556004805491820181559091527f8a35acfbc15ff81a39ae7d344fd709f28e8600b4aa8c65c6b64bfe7fe36bd19b01805473ffffffffffffffffffffffffffffffffffffffff191690911790555b50505050565b610eeb61203e565b33600090815260056020526040902054600160a01b900460ff16610f215760405162461bcd60e51b815260040161019e906127a6565b33600090815260056020908152604091829020825160a08101845281546001600160a01b0381168252600160a01b900460ff1615158184015260018201805485518186028101860187528181529295939493860193830182828015610fc357602002820191906000526020600020906000905b825461010083900a900460ff16815260206001928301818104948501949093039092029101808411610f945790505b5050509183525050600282015460ff166020820152600390910154604090910152905090565b610ff1611fc4565b84516004146110125760405162461bcd60e51b815260040161019e906126ec565b83516004146110335760405162461bcd60e51b815260040161019e906126ec565b60408051600480825260a0820190925260009160208201608080368337019050509050600a8160008151811061107957634e487b7160e01b600052603260045260246000fd5b602002602001019060000b908160000b81525050600b816001815181106110b057634e487b7160e01b600052603260045260246000fd5b602002602001019060000b908160000b81525050600c816002815181106110e757634e487b7160e01b600052603260045260246000fd5b602002602001019060000b908160000b81525050600d8160038151811061111e57634e487b7160e01b600052603260045260246000fd5b600092830b830b602091820292909201015260408051600480825260a08201909252908160200160208202803683370190505090506009198160008151811061117757634e487b7160e01b600052603260045260246000fd5b602002602001019060000b908160000b81525050600a19816001815181106111af57634e487b7160e01b600052603260045260246000fd5b602002602001019060000b908160000b81525050600b19816002815181106111e757634e487b7160e01b600052603260045260246000fd5b602002602001019060000b908160000b81525050600c198160038151811061121f57634e487b7160e01b600052603260045260246000fd5b600092830b830b602091820292909201015260408051600480825260a0820190925290816020016020820280368337505060408051600480825260a08201909252929350600092915060208201608080368337505060408051600480825260a0820190925292935060009291506020820160808036833701905050905060005b600461ffff82161015611480578a8161ffff16815181106112d057634e487b7160e01b600052603260045260246000fd5b602002602001015160ff168c8261ffff16815181106112ff57634e487b7160e01b600052603260045260246000fd5b6020026020010151602001516113159190612a6b565b60010b848261ffff168151811061133c57634e487b7160e01b600052603260045260246000fd5b602002602001019060030b908160030b81525050898161ffff168151811061137457634e487b7160e01b600052603260045260246000fd5b602002602001015160ff168c8261ffff16815181106113a357634e487b7160e01b600052603260045260246000fd5b6020026020010151602001516113b99190612a6b565b60010b838261ffff16815181106113e057634e487b7160e01b600052603260045260246000fd5b602002602001019060030b908160030b815250508b8161ffff168151811061141857634e487b7160e01b600052603260045260246000fd5b6020026020010151604001516020015161ffff168e6114379190612c7a565b828261ffff168151811061145b57634e487b7160e01b600052603260045260246000fd5b61ffff909216602092830291909101909101528061147881612c03565b91505061129f565b50611489612113565b8c156115785761149b60046014612ab8565b60ff1667ffffffffffffffff8111156114c457634e487b7160e01b600052604160045260246000fd5b6040519080825280602002602001820160405280156114fd57816020015b6114ea612156565b8152602001906001900390816114e25790505b50606082015261150f60046014612ab8565b60ff1667ffffffffffffffff81111561153857634e487b7160e01b600052604160045260246000fd5b60405190808252806020026020018201604052801561157157816020015b61155e612156565b8152602001906001900390816115565790505b5060808201525b600081525b8051601460ff909116108015611599575061159784611b2d565b155b80156115ab57506115a983611b2d565b155b15611aae57600060a08201525b600460ff168160a0015160ff161015611831576000848260a0015160ff16815181106115f457634e487b7160e01b600052603260045260246000fd5b602002602001015160030b1315611816576116168c8260a00151888887611b8f565b60ff1660e083015215801560c08301526116fc57600061166f838e8460a001518560e00151898760a0015160ff168151811061166257634e487b7160e01b600052603260045260246000fd5b6020026020010151611cdd565b905080848360e0015160ff168151811061169957634e487b7160e01b600052603260045260246000fd5b602002602001018181516116ad9190612b26565b600390810b900b9052508d156116f6576020820180516116f6916116d082612c5a565b60ff1660ff1681525060ff16836000015184606001518560a001518660e0015186611e4c565b50611816565b6117738c8260a0015160ff168151811061172657634e487b7160e01b600052603260045260246000fd5b602002602001015160800151878360a0015160ff168151811061175957634e487b7160e01b600052603260045260246000fd5b602002602001015161176b9190612b65565b600c19611ec6565b868260a0015160ff168151811061179a57634e487b7160e01b600052603260045260246000fd5b602002602001019060000b908160000b815250508c1561181657602081018051611816916117c782612c5a565b60ff1660ff1681525060ff16826000015183606001518460a001518a8660a0015160ff168151811061180957634e487b7160e01b600052603260045260246000fd5b6020026020010151611ee4565b60a0810180519061182682612c5a565b60ff169052506115b8565b600060a08201525b600460ff168160a0015160ff161015611a97576000838260a0015160ff168151811061187557634e487b7160e01b600052603260045260246000fd5b602002602001015160030b1315611a7c576118978c8260a00151878988611b8f565b60ff1660e083015215801560c08301526119705760006118e3838e8460a001518560e00151888760a0015160ff168151811061166257634e487b7160e01b600052603260045260246000fd5b905080858360e0015160ff168151811061190d57634e487b7160e01b600052603260045260246000fd5b602002602001018181516119219190612b26565b600390810b900b9052508d1561196a5760408201805161196a9161194482612c5a565b60ff1660ff1681525060ff16836000015184608001518560a001518660e0015186611e4c565b50611a7c565b6119e68c8260a0015160ff168151811061199a57634e487b7160e01b600052603260045260246000fd5b602002602001015160800151868360a0015160ff16815181106119cd57634e487b7160e01b600052603260045260246000fd5b60200260200101516119df919061293c565b600d611f53565b858260a0015160ff1681518110611a0d57634e487b7160e01b600052603260045260246000fd5b602002602001019060000b908160000b815250508c15611a7c57604081018051611a7c91611a3a82612c5a565b60ff1660ff1681525060ff16826000015183608001518460a00151898660a0015160ff168151811061180957634e487b7160e01b600052603260045260246000fd5b60a08101805190611a8c82612c5a565b60ff16905250611839565b805181611aa382612c5a565b60ff1690525061157d565b6040518061014001604052808c81526020018b81526020018a60ff1681526020018960ff1681526020018260600151815260200182608001518152602001611af586611b2d565b15158152602001611b0585611b2d565b15158152915160ff16602083015260409091018e905295505050505050979650505050505050565b60006001815b6004811015611b86576000848281518110611b5e57634e487b7160e01b600052603260045260246000fd5b602002602001015160030b1315611b7457600091505b80611b7e81612c25565b915050611b33565b5090505b919050565b6000806000858760ff1681518110611bb757634e487b7160e01b600052603260045260246000fd5b602002602001015160000b9050600060049050600060016004611bda9190612bbf565b90505b60008160000b12611cc75760008190506000611c30898360ff1681518110611c1557634e487b7160e01b600052603260045260246000fd5b602002602001015160000b86611c2b9190612ae1565b611f68565b90508b8b60ff1681518110611c5557634e487b7160e01b600052603260045260246000fd5b602002602001015160a0015161ffff168161ffff1611158015611ca557506000888360ff1681518110611c9857634e487b7160e01b600052603260045260246000fd5b602002602001015160030b135b15611cb257509150611cc7565b50508080611cbf90612be2565b915050611bdd565b50600460ff821610999098509650505050505050565b600080868560ff1681518110611d0357634e487b7160e01b600052603260045260246000fd5b6020026020010151868660ff1681518110611d2e57634e487b7160e01b600052603260045260246000fd5b60200260200101516040015160000151611d48919061297c565b90506000868660ff1681518110611d6f57634e487b7160e01b600052603260045260246000fd5b60200260200101516020015161ffff1684611d8a91906129c1565b611d959060016129a2565b90506000878660ff1681518110611dbc57634e487b7160e01b600052603260045260246000fd5b60200260200101516020015182611dd39190612a6b565b61ffff16905060008261ffff16898860ff1681518110611e0357634e487b7160e01b600052603260045260246000fd5b60200260200101516060015185611e1a9190612b9c565b61ffff16611e289190612a95565b9050611e3e611e38600083611f8e565b83611fa9565b9a9950505050505050505050565b6040518060c00160405280600160ff1681526020018660ff1681526020018460ff1681526020018360ff1681526020016000800b81526020018263ffffffff16815250848761ffff1681518110611eb357634e487b7160e01b600052603260045260246000fd5b6020026020010181905250505050505050565b60008160000b8360000b13611edb5781611edd565b825b9392505050565b6040805160c0810182526002815260ff868116602083015284169181019190915260006060820181905282810b608083015260a08201528351849061ffff8816908110611f4157634e487b7160e01b600052603260045260246000fd5b60200260200101819052505050505050565b60008160000b8360000b12611edb5781611edd565b6000808260010b12611f7b575080611b8a565b611f87826000196129e4565b9050611b8a565b60008163ffffffff168363ffffffff1611611edb5781611edd565b60008163ffffffff168363ffffffff1610611edb5781611edd565b604080516101408101825260608082526020820181905260009282018390528082018390526080820181905260a082015260c0810182905260e08101829052610100810182905261012081019190915290565b60408051608081018252600080825260208201819052918101829052606081019190915290565b6040805160a0810182526000808252602082018190526060928201839052918101829052608081019190915290565b82805482825590600052602060002090601f016020900481019282156121035791602002820160005b838211156120d457835183826101000a81548160ff021916908360ff1602179055509260200192600101602081600001049283019260010302612096565b80156121015782816101000a81549060ff02191690556001016020816000010492830192600103026120d4565b505b5061210f92915061218b565b5090565b60408051610100810182526000808252602082018190529181018290526060808201819052608082015260a0810182905260c0810182905260e081019190915290565b6040805160c081018252600080825260208201819052918101829052606081018290526080810182905260a081019190915290565b5b8082111561210f576000815560010161218c565b600082601f8301126121b0578081fd5b8135602067ffffffffffffffff808311156121cd576121cd612cba565b818302604051601f19603f830116810181811084821117156121f1576121f1612cba565b6040528481528381019250868401828801850189101561220f578687fd5b8692505b858310156122385761222481612256565b845292840192600192909201918401612213565b50979650505050505050565b803561ffff81168114611b8a57600080fd5b803560ff81168114611b8a57600080fd5b60008060006060848603121561227b578283fd5b83356001600160a01b0381168114612291578384fd5b9250602084013567ffffffffffffffff8111156122ac578283fd5b6122b8868287016121a0565b9250506122c760408501612256565b90509250925092565b6000806000606084860312156122e4578283fd5b833567ffffffffffffffff8111156122fa578384fd5b612306868287016121a0565b93505061231560208501612256565b9150604084013590509250925092565b600080600080600080600080610100898b031215612341578384fd5b61234a89612244565b975061235860208a01612244565b965061236660408a01612244565b955061237460608a01612244565b945061238260808a01612244565b935061239060a08a01612244565b925061239e60c08a01612244565b91506123ac60e08a01612244565b90509295985092959890939650565b600080600080600060a086880312156123d2578081fd5b85359450602086013567ffffffffffffffff808211156123f0578283fd5b6123fc89838a016121a0565b95506040880135915080821115612411578283fd5b5061241e888289016121a0565b93505061242d60608701612256565b915061243b60808701612256565b90509295509295909350565b6000815180845260208085019450808401835b838110156124be578151805160ff9081168952848201518116858a01526040808301518216908a015260608083015190911690890152608080820151870b9089015260a09081015163ffffffff169088015260c0909601959082019060010161245a565b509495945050505050565b6000815180845260208085019450808401835b838110156124be57815160ff16875295820195908201906001016124dc565b15159052565b60006001600160a01b038251168352602082015115156020840152604082015160a0604085015261253560a08501826124c9565b905060ff6060840151166060850152608083015160808501528091505092915050565b61ffff169052565b60ff169052565b6001600160a01b0391909116815260200190565b602080825282518282018190526000919060409081850190868401855b828110156125e457815180516001600160a01b0316855286810151878601528581015163ffffffff90811687870152606091820151169085015260809093019290850190600101612598565b5091979650505050505050565b6000602080830181845280855180835260408601915060408482028701019250838701855b8281101561264457603f19888603018452612632858351612501565b94509285019290850190600101612616565b5092979650505050505050565b602080825282518282018190526000919060409081850190868401855b828110156125e4578151805161ffff90811686528782015181168887015286820151805182168888015288015181166060808801919091528201511660808087019190915281015160a06126c481880183612558565b919091015190506126d860c0860182612558565b5060e093909301929085019060010161266e565b60208082526022908201527f53656c656374696f6e206e6565647320746f2068617665203420656c656d656e60408201527f7473000000000000000000000000000000000000000000000000000000000000606082015260800190565b60208082526024908201527f43616e206f6e6c792061747461636b206120726567697374657265642064656660408201527f656e636500000000000000000000000000000000000000000000000000000000606082015260800190565b60208082526016908201527f446566656e6365206e6f74207265676973746572656400000000000000000000604082015260600190565b60208082526033908201527f546869732066756e6374696f6e206973207265737472696374656420746f207460408201527f686520636f6e74726163742773206f776e657200000000000000000000000000606082015260800190565b60006020825282516101408060208501526128596101608501836124c9565b91506020850151601f198086850301604087015261287784836124c9565b93506040870151915061288d6060870183612560565b606087015191506128a16080870183612560565b60808701519150808685030160a08701526128bc8483612447565b935060a08701519150808685030160c0870152506128da8382612447565b92505060c08501516128ef60e08601826124fb565b5060e0850151610100612904818701836124fb565b860151905061012061291886820183612560565b959095015193019290925250919050565b600060208252611edd6020830184612501565b600081810b83820b82821282607f0382138115161561295d5761295d612c8e565b82607f1903821281161561297357612973612c8e565b50019392505050565b600061ffff80831681851680830382111561299957612999612c8e565b01949350505050565b600063ffffffff80831681851680830382111561299957612999612c8e565b600063ffffffff808416806129d8576129d8612ca4565b92169190910492915050565b60008160010b8360010b617fff83821384841383830485118282161615612a0d57612a0d612c8e565b617fff1986851282811687830587121615612a2a57612a2a612c8e565b878712925085820587128484161615612a4557612a45612c8e565b85850587128184161615612a5b57612a5b612c8e565b5050509290910295945050505050565b600061ffff80831681851681830481118215151615612a8c57612a8c612c8e565b02949350505050565b600063ffffffff80831681851681830481118215151615612a8c57612a8c612c8e565b600060ff821660ff84168160ff0481118215151615612ad957612ad9612c8e565b029392505050565b60008160010b8360010b82811281617fff1901831281151615612b0657612b06612c8e565b81617fff018313811615612b1c57612b1c612c8e565b5090039392505050565b60008160030b8360030b82811281637fffffff1901831281151615612b4d57612b4d612c8e565b81637fffffff018313811615612b1c57612b1c612c8e565b600081810b83820b8281128015607f19830184121615612b8757612b87612c8e565b81607f018313811615612b1c57612b1c612c8e565b600061ffff83811690831681811015612bb757612bb7612c8e565b039392505050565b600060ff821660ff841680821015612bd957612bd9612c8e565b90039392505050565b600081810b607f19811415612bf957612bf9612c8e565b6000190192915050565b600061ffff80831681811415612c1b57612c1b612c8e565b6001019392505050565b6000600019821415612c3957612c39612c8e565b5060010190565b600063ffffffff80831681811415612c1b57612c1b612c8e565b600060ff821660ff811415612c7157612c71612c8e565b60010192915050565b600082612c8957612c89612ca4565b500690565b634e487b7160e01b600052601160045260246000fd5b634e487b7160e01b600052601260045260246000fd5b634e487b7160e01b600052604160045260246000fdfea264697066735822122038c7a332ba21719d50c8258e88a363d158d76523cbb429e9c3a4f539df292dc564736f6c63430008010033",
          "opcodes": "PUSH1 0x80 PUSH1 0x40 MSTORE PUSH1 0x0 DUP1 SLOAD PUSH1 0x1 PUSH1 0x1 PUSH1 0xA0 SHL SUB NOT AND CALLER OR SWAP1 SSTORE CALLVALUE DUP1 ISZERO PUSH2 0x22 JUMPI PUSH1 0x0 DUP1 REVERT JUMPDEST POP PUSH2 0x2D06 DUP1 PUSH2 0x32 PUSH1 0x0 CODECOPY PUSH1 0x0 RETURN INVALID PUSH1 0x80 PUSH1 0x40 MSTORE CALLVALUE DUP1 ISZERO PUSH2 0x10 JUMPI PUSH1 0x0 DUP1 REVERT JUMPDEST POP PUSH1 0x4 CALLDATASIZE LT PUSH2 0xA3 JUMPI PUSH1 0x0 CALLDATALOAD PUSH1 0xE0 SHR DUP1 PUSH4 0x6D763A6E GT PUSH2 0x76 JUMPI DUP1 PUSH4 0x8DA5CB5B GT PUSH2 0x5B JUMPI DUP1 PUSH4 0x8DA5CB5B EQ PUSH2 0x138 JUMPI DUP1 PUSH4 0xD2EAEFDB EQ PUSH2 0x14D JUMPI DUP1 PUSH4 0xD43B838C EQ PUSH2 0x160 JUMPI PUSH2 0xA3 JUMP JUMPDEST DUP1 PUSH4 0x6D763A6E EQ PUSH2 0x10E JUMPI DUP1 PUSH4 0x7AF584DE EQ PUSH2 0x123 JUMPI PUSH2 0xA3 JUMP JUMPDEST DUP1 PUSH4 0xD055A47 EQ PUSH2 0xA8 JUMPI DUP1 PUSH4 0x5AFA3BF5 EQ PUSH2 0xD1 JUMPI DUP1 PUSH4 0x62A74512 EQ PUSH2 0xE6 JUMPI DUP1 PUSH4 0x6738F234 EQ PUSH2 0xF9 JUMPI JUMPDEST PUSH1 0x0 DUP1 REVERT JUMPDEST PUSH2 0xBB PUSH2 0xB6 CALLDATASIZE PUSH1 0x4 PUSH2 0x23BB JUMP JUMPDEST PUSH2 0x175 JUMP JUMPDEST PUSH1 0x40 MLOAD PUSH2 0xC8 SWAP2 SWAP1 PUSH2 0x283A JUMP JUMPDEST PUSH1 0x40 MLOAD DUP1 SWAP2 SUB SWAP1 RETURN JUMPDEST PUSH2 0xE4 PUSH2 0xDF CALLDATASIZE PUSH1 0x4 PUSH2 0x2325 JUMP JUMPDEST PUSH2 0x295 JUMP JUMPDEST STOP JUMPDEST PUSH2 0xE4 PUSH2 0xF4 CALLDATASIZE PUSH1 0x4 PUSH2 0x2267 JUMP JUMPDEST PUSH2 0x574 JUMP JUMPDEST PUSH2 0x101 PUSH2 0x8BE JUMP JUMPDEST PUSH1 0x40 MLOAD PUSH2 0xC8 SWAP2 SWAP1 PUSH2 0x2651 JUMP JUMPDEST PUSH2 0x116 PUSH2 0x9A4 JUMP JUMPDEST PUSH1 0x40 MLOAD PUSH2 0xC8 SWAP2 SWAP1 PUSH2 0x257B JUMP JUMPDEST PUSH2 0x12B PUSH2 0xAF9 JUMP JUMPDEST PUSH1 0x40 MLOAD PUSH2 0xC8 SWAP2 SWAP1 PUSH2 0x25F1 JUMP JUMPDEST PUSH2 0x140 PUSH2 0xCA8 JUMP JUMPDEST PUSH1 0x40 MLOAD PUSH2 0xC8 SWAP2 SWAP1 PUSH2 0x2567 JUMP JUMPDEST PUSH2 0xE4 PUSH2 0x15B CALLDATASIZE PUSH1 0x4 PUSH2 0x22D0 JUMP JUMPDEST PUSH2 0xCB7 JUMP JUMPDEST PUSH2 0x168 PUSH2 0xEE3 JUMP JUMPDEST PUSH1 0x40 MLOAD PUSH2 0xC8 SWAP2 SWAP1 PUSH2 0x2929 JUMP JUMPDEST PUSH2 0x17D PUSH2 0x1FC4 JUMP JUMPDEST DUP5 MLOAD PUSH1 0x4 EQ PUSH2 0x1A7 JUMPI PUSH1 0x40 MLOAD PUSH3 0x461BCD PUSH1 0xE5 SHL DUP2 MSTORE PUSH1 0x4 ADD PUSH2 0x19E SWAP1 PUSH2 0x26EC JUMP JUMPDEST PUSH1 0x40 MLOAD DUP1 SWAP2 SUB SWAP1 REVERT JUMPDEST DUP4 MLOAD PUSH1 0x4 EQ PUSH2 0x1C8 JUMPI PUSH1 0x40 MLOAD PUSH3 0x461BCD PUSH1 0xE5 SHL DUP2 MSTORE PUSH1 0x4 ADD PUSH2 0x19E SWAP1 PUSH2 0x26EC JUMP JUMPDEST PUSH2 0x28B DUP7 PUSH1 0x1 PUSH1 0x2 DUP1 SLOAD DUP1 PUSH1 0x20 MUL PUSH1 0x20 ADD PUSH1 0x40 MLOAD SWAP1 DUP2 ADD PUSH1 0x40 MSTORE DUP1 SWAP3 SWAP2 SWAP1 DUP2 DUP2 MSTORE PUSH1 0x20 ADD PUSH1 0x0 SWAP1 JUMPDEST DUP3 DUP3 LT ISZERO PUSH2 0x27E JUMPI PUSH1 0x0 DUP5 DUP2 MSTORE PUSH1 0x20 SWAP1 DUP2 SWAP1 KECCAK256 PUSH1 0x40 DUP1 MLOAD PUSH1 0xC0 DUP2 ADD DUP3 MSTORE PUSH1 0x3 DUP7 MUL SWAP1 SWAP3 ADD DUP1 SLOAD PUSH2 0xFFFF DUP1 DUP3 AND DUP6 MSTORE PUSH3 0x10000 SWAP2 DUP3 SWAP1 DIV DUP2 AND DUP6 DUP8 ADD MSTORE DUP4 MLOAD DUP1 DUP6 ADD DUP6 MSTORE PUSH1 0x1 DUP1 DUP6 ADD SLOAD DUP1 DUP5 AND DUP4 MSTORE DUP5 SWAP1 DIV DUP4 AND DUP3 DUP10 ADD MSTORE SWAP5 DUP7 ADD MSTORE PUSH1 0x2 SWAP1 SWAP3 ADD SLOAD DUP1 DUP4 AND PUSH1 0x60 DUP7 ADD MSTORE SWAP1 DUP2 DIV DUP3 AND PUSH1 0x80 DUP6 ADD MSTORE PUSH5 0x100000000 SWAP1 DIV AND PUSH1 0xA0 DUP4 ADD MSTORE SWAP1 DUP4 MSTORE SWAP1 SWAP3 ADD SWAP2 ADD PUSH2 0x1F0 JUMP JUMPDEST POP POP POP POP DUP9 DUP9 DUP9 DUP9 PUSH2 0xFE9 JUMP JUMPDEST SWAP7 SWAP6 POP POP POP POP POP POP JUMP JUMPDEST PUSH1 0x0 SLOAD PUSH1 0x1 PUSH1 0x1 PUSH1 0xA0 SHL SUB AND CALLER EQ PUSH2 0x2BF JUMPI PUSH1 0x40 MLOAD PUSH3 0x461BCD PUSH1 0xE5 SHL DUP2 MSTORE PUSH1 0x4 ADD PUSH2 0x19E SWAP1 PUSH2 0x27DD JUMP JUMPDEST PUSH1 0x0 PUSH1 0x40 MLOAD DUP1 PUSH1 0xC0 ADD PUSH1 0x40 MSTORE DUP1 DUP10 PUSH2 0xFFFF AND DUP2 MSTORE PUSH1 0x20 ADD DUP9 PUSH2 0xFFFF AND DUP2 MSTORE PUSH1 0x20 ADD PUSH1 0x40 MLOAD DUP1 PUSH1 0x40 ADD PUSH1 0x40 MSTORE DUP1 DUP10 PUSH2 0xFFFF AND DUP2 MSTORE PUSH1 0x20 ADD DUP9 PUSH2 0xFFFF AND DUP2 MSTORE POP DUP2 MSTORE PUSH1 0x20 ADD DUP6 PUSH2 0xFFFF AND DUP2 MSTORE PUSH1 0x20 ADD DUP5 PUSH2 0xFFFF AND DUP2 MSTORE PUSH1 0x20 ADD DUP4 PUSH2 0xFFFF AND DUP2 MSTORE POP SWAP1 POP DUP1 PUSH1 0x1 PUSH1 0x0 DUP12 PUSH2 0xFFFF AND DUP2 MSTORE PUSH1 0x20 ADD SWAP1 DUP2 MSTORE PUSH1 0x20 ADD PUSH1 0x0 KECCAK256 PUSH1 0x0 DUP3 ADD MLOAD DUP2 PUSH1 0x0 ADD PUSH1 0x0 PUSH2 0x100 EXP DUP2 SLOAD DUP2 PUSH2 0xFFFF MUL NOT AND SWAP1 DUP4 PUSH2 0xFFFF AND MUL OR SWAP1 SSTORE POP PUSH1 0x20 DUP3 ADD MLOAD DUP2 PUSH1 0x0 ADD PUSH1 0x2 PUSH2 0x100 EXP DUP2 SLOAD DUP2 PUSH2 0xFFFF MUL NOT AND SWAP1 DUP4 PUSH2 0xFFFF AND MUL OR SWAP1 SSTORE POP PUSH1 0x40 DUP3 ADD MLOAD DUP2 PUSH1 0x1 ADD PUSH1 0x0 DUP3 ADD MLOAD DUP2 PUSH1 0x0 ADD PUSH1 0x0 PUSH2 0x100 EXP DUP2 SLOAD DUP2 PUSH2 0xFFFF MUL NOT AND SWAP1 DUP4 PUSH2 0xFFFF AND MUL OR SWAP1 SSTORE POP PUSH1 0x20 DUP3 ADD MLOAD DUP2 PUSH1 0x0 ADD PUSH1 0x2 PUSH2 0x100 EXP DUP2 SLOAD DUP2 PUSH2 0xFFFF MUL NOT AND SWAP1 DUP4 PUSH2 0xFFFF AND MUL OR SWAP1 SSTORE POP POP POP PUSH1 0x60 DUP3 ADD MLOAD DUP2 PUSH1 0x2 ADD PUSH1 0x0 PUSH2 0x100 EXP DUP2 SLOAD DUP2 PUSH2 0xFFFF MUL NOT AND SWAP1 DUP4 PUSH2 0xFFFF AND MUL OR SWAP1 SSTORE POP PUSH1 0x80 DUP3 ADD MLOAD DUP2 PUSH1 0x2 ADD PUSH1 0x2 PUSH2 0x100 EXP DUP2 SLOAD DUP2 PUSH2 0xFFFF MUL NOT AND SWAP1 DUP4 PUSH2 0xFFFF AND MUL OR SWAP1 SSTORE POP PUSH1 0xA0 DUP3 ADD MLOAD DUP2 PUSH1 0x2 ADD PUSH1 0x4 PUSH2 0x100 EXP DUP2 SLOAD DUP2 PUSH2 0xFFFF MUL NOT AND SWAP1 DUP4 PUSH2 0xFFFF AND MUL OR SWAP1 SSTORE POP SWAP1 POP POP PUSH1 0x2 DUP2 SWAP1 DUP1 PUSH1 0x1 DUP2 SLOAD ADD DUP1 DUP3 SSTORE DUP1 SWAP2 POP POP PUSH1 0x1 SWAP1 SUB SWAP1 PUSH1 0x0 MSTORE PUSH1 0x20 PUSH1 0x0 KECCAK256 SWAP1 PUSH1 0x3 MUL ADD PUSH1 0x0 SWAP1 SWAP2 SWAP1 SWAP2 SWAP1 SWAP2 POP PUSH1 0x0 DUP3 ADD MLOAD DUP2 PUSH1 0x0 ADD PUSH1 0x0 PUSH2 0x100 EXP DUP2 SLOAD DUP2 PUSH2 0xFFFF MUL NOT AND SWAP1 DUP4 PUSH2 0xFFFF AND MUL OR SWAP1 SSTORE POP PUSH1 0x20 DUP3 ADD MLOAD DUP2 PUSH1 0x0 ADD PUSH1 0x2 PUSH2 0x100 EXP DUP2 SLOAD DUP2 PUSH2 0xFFFF MUL NOT AND SWAP1 DUP4 PUSH2 0xFFFF AND MUL OR SWAP1 SSTORE POP PUSH1 0x40 DUP3 ADD MLOAD DUP2 PUSH1 0x1 ADD PUSH1 0x0 DUP3 ADD MLOAD DUP2 PUSH1 0x0 ADD PUSH1 0x0 PUSH2 0x100 EXP DUP2 SLOAD DUP2 PUSH2 0xFFFF MUL NOT AND SWAP1 DUP4 PUSH2 0xFFFF AND MUL OR SWAP1 SSTORE POP PUSH1 0x20 DUP3 ADD MLOAD DUP2 PUSH1 0x0 ADD PUSH1 0x2 PUSH2 0x100 EXP DUP2 SLOAD DUP2 PUSH2 0xFFFF MUL NOT AND SWAP1 DUP4 PUSH2 0xFFFF AND MUL OR SWAP1 SSTORE POP POP POP PUSH1 0x60 DUP3 ADD MLOAD DUP2 PUSH1 0x2 ADD PUSH1 0x0 PUSH2 0x100 EXP DUP2 SLOAD DUP2 PUSH2 0xFFFF MUL NOT AND SWAP1 DUP4 PUSH2 0xFFFF AND MUL OR SWAP1 SSTORE POP PUSH1 0x80 DUP3 ADD MLOAD DUP2 PUSH1 0x2 ADD PUSH1 0x2 PUSH2 0x100 EXP DUP2 SLOAD DUP2 PUSH2 0xFFFF MUL NOT AND SWAP1 DUP4 PUSH2 0xFFFF AND MUL OR SWAP1 SSTORE POP PUSH1 0xA0 DUP3 ADD MLOAD DUP2 PUSH1 0x2 ADD PUSH1 0x4 PUSH2 0x100 EXP DUP2 SLOAD DUP2 PUSH2 0xFFFF MUL NOT AND SWAP1 DUP4 PUSH2 0xFFFF AND MUL OR SWAP1 SSTORE POP POP POP POP POP POP POP POP POP POP POP POP JUMP JUMPDEST PUSH1 0x1 PUSH1 0x1 PUSH1 0xA0 SHL SUB DUP4 AND PUSH1 0x0 SWAP1 DUP2 MSTORE PUSH1 0x5 PUSH1 0x20 MSTORE PUSH1 0x40 SWAP1 KECCAK256 SLOAD PUSH1 0x1 PUSH1 0xA0 SHL SWAP1 DIV PUSH1 0xFF AND PUSH2 0x5B3 JUMPI PUSH1 0x40 MLOAD PUSH3 0x461BCD PUSH1 0xE5 SHL DUP2 MSTORE PUSH1 0x4 ADD PUSH2 0x19E SWAP1 PUSH2 0x2749 JUMP JUMPDEST PUSH1 0x0 PUSH3 0xBC614E SWAP1 POP PUSH1 0x0 PUSH2 0x722 DUP3 PUSH1 0x0 PUSH1 0x2 DUP1 SLOAD DUP1 PUSH1 0x20 MUL PUSH1 0x20 ADD PUSH1 0x40 MLOAD SWAP1 DUP2 ADD PUSH1 0x40 MSTORE DUP1 SWAP3 SWAP2 SWAP1 DUP2 DUP2 MSTORE PUSH1 0x20 ADD PUSH1 0x0 SWAP1 JUMPDEST DUP3 DUP3 LT ISZERO PUSH2 0x673 JUMPI PUSH1 0x0 DUP5 DUP2 MSTORE PUSH1 0x20 SWAP1 DUP2 SWAP1 KECCAK256 PUSH1 0x40 DUP1 MLOAD PUSH1 0xC0 DUP2 ADD DUP3 MSTORE PUSH1 0x3 DUP7 MUL SWAP1 SWAP3 ADD DUP1 SLOAD PUSH2 0xFFFF DUP1 DUP3 AND DUP6 MSTORE PUSH3 0x10000 SWAP2 DUP3 SWAP1 DIV DUP2 AND DUP6 DUP8 ADD MSTORE DUP4 MLOAD DUP1 DUP6 ADD DUP6 MSTORE PUSH1 0x1 DUP1 DUP6 ADD SLOAD DUP1 DUP5 AND DUP4 MSTORE DUP5 SWAP1 DIV DUP4 AND DUP3 DUP10 ADD MSTORE SWAP5 DUP7 ADD MSTORE PUSH1 0x2 SWAP1 SWAP3 ADD SLOAD DUP1 DUP4 AND PUSH1 0x60 DUP7 ADD MSTORE SWAP1 DUP2 DIV DUP3 AND PUSH1 0x80 DUP6 ADD MSTORE PUSH5 0x100000000 SWAP1 DIV AND PUSH1 0xA0 DUP4 ADD MSTORE SWAP1 DUP4 MSTORE SWAP1 SWAP3 ADD SWAP2 ADD PUSH2 0x5E5 JUMP JUMPDEST POP POP POP POP PUSH1 0x1 PUSH1 0x1 PUSH1 0xA0 SHL SUB DUP10 AND PUSH1 0x0 SWAP1 DUP2 MSTORE PUSH1 0x5 PUSH1 0x20 SWAP1 DUP2 MSTORE PUSH1 0x40 SWAP2 DUP3 SWAP1 KECCAK256 PUSH1 0x1 ADD DUP1 SLOAD DUP4 MLOAD DUP2 DUP5 MUL DUP2 ADD DUP5 ADD SWAP1 SWAP5 MSTORE DUP1 DUP5 MSTORE DUP12 SWAP4 SWAP3 DUP4 ADD DUP3 DUP3 DUP1 ISZERO PUSH2 0x6F7 JUMPI PUSH1 0x20 MUL DUP3 ADD SWAP2 SWAP1 PUSH1 0x0 MSTORE PUSH1 0x20 PUSH1 0x0 KECCAK256 SWAP1 PUSH1 0x0 SWAP1 JUMPDEST DUP3 SLOAD PUSH2 0x100 DUP4 SWAP1 EXP SWAP1 DIV PUSH1 0xFF AND DUP2 MSTORE PUSH1 0x20 PUSH1 0x1 SWAP3 DUP4 ADD DUP2 DUP2 DIV SWAP5 DUP6 ADD SWAP5 SWAP1 SWAP4 SUB SWAP1 SWAP3 MUL SWAP2 ADD DUP1 DUP5 GT PUSH2 0x6C8 JUMPI SWAP1 POP JUMPDEST POP POP POP POP PUSH1 0x1 PUSH1 0x1 PUSH1 0xA0 SHL SUB DUP13 AND PUSH1 0x0 SWAP1 DUP2 MSTORE PUSH1 0x5 PUSH1 0x20 MSTORE PUSH1 0x40 SWAP1 KECCAK256 PUSH1 0x2 ADD SLOAD DUP11 SWAP2 POP PUSH1 0xFF AND PUSH2 0xFE9 JUMP JUMPDEST SWAP1 POP DUP1 PUSH1 0xC0 ADD MLOAD ISZERO PUSH2 0x7CA JUMPI PUSH1 0x1 PUSH1 0x1 PUSH1 0xA0 SHL SUB DUP6 AND PUSH1 0x0 SWAP1 DUP2 MSTORE PUSH1 0x3 PUSH1 0x20 MSTORE PUSH1 0x40 SWAP1 KECCAK256 DUP1 SLOAD PUSH2 0x100 SWAP1 DIV PUSH4 0xFFFFFFFF AND SWAP1 PUSH1 0x1 PUSH2 0x75F DUP4 PUSH2 0x2C40 JUMP JUMPDEST DUP3 SLOAD PUSH2 0x100 SWAP3 SWAP1 SWAP3 EXP PUSH4 0xFFFFFFFF DUP2 DUP2 MUL NOT SWAP1 SWAP4 AND SWAP2 DUP4 AND MUL OR SWAP1 SWAP2 SSTORE CALLER PUSH1 0x0 SWAP1 DUP2 MSTORE PUSH1 0x3 PUSH1 0x20 MSTORE PUSH1 0x40 SWAP1 KECCAK256 DUP1 SLOAD PUSH6 0x10000000000 SWAP1 DIV SWAP1 SWAP2 AND SWAP2 POP PUSH1 0x5 PUSH2 0x7A6 DUP4 PUSH2 0x2C40 JUMP JUMPDEST SWAP2 SWAP1 PUSH2 0x100 EXP DUP2 SLOAD DUP2 PUSH4 0xFFFFFFFF MUL NOT AND SWAP1 DUP4 PUSH4 0xFFFFFFFF AND MUL OR SWAP1 SSTORE POP POP PUSH2 0x86C JUMP JUMPDEST DUP1 PUSH1 0xE0 ADD MLOAD ISZERO PUSH2 0x86C JUMPI CALLER PUSH1 0x0 SWAP1 DUP2 MSTORE PUSH1 0x3 PUSH1 0x20 MSTORE PUSH1 0x40 SWAP1 KECCAK256 DUP1 SLOAD PUSH2 0x100 SWAP1 DIV PUSH4 0xFFFFFFFF AND SWAP1 PUSH1 0x1 PUSH2 0x7FC DUP4 PUSH2 0x2C40 JUMP JUMPDEST DUP3 SLOAD PUSH2 0x100 SWAP3 SWAP1 SWAP3 EXP PUSH4 0xFFFFFFFF DUP2 DUP2 MUL NOT SWAP1 SWAP4 AND SWAP2 DUP4 AND MUL OR SWAP1 SWAP2 SSTORE PUSH1 0x1 PUSH1 0x1 PUSH1 0xA0 SHL SUB DUP8 AND PUSH1 0x0 SWAP1 DUP2 MSTORE PUSH1 0x3 PUSH1 0x20 MSTORE PUSH1 0x40 SWAP1 KECCAK256 DUP1 SLOAD PUSH6 0x10000000000 SWAP1 DIV SWAP1 SWAP2 AND SWAP2 POP PUSH1 0x5 PUSH2 0x84C DUP4 PUSH2 0x2C40 JUMP JUMPDEST SWAP2 SWAP1 PUSH2 0x100 EXP DUP2 SLOAD DUP2 PUSH4 0xFFFFFFFF MUL NOT AND SWAP1 DUP4 PUSH4 0xFFFFFFFF AND MUL OR SWAP1 SSTORE POP POP JUMPDEST DUP5 PUSH1 0x1 PUSH1 0x1 PUSH1 0xA0 SHL SUB AND CALLER PUSH1 0x1 PUSH1 0x1 PUSH1 0xA0 SHL SUB AND PUSH32 0x1275943AED9EA3363652D9CA6A1546F6ED7E494C27258293820C31D0A36A8925 DUP4 PUSH1 0x40 MLOAD PUSH2 0x8AF SWAP2 SWAP1 PUSH2 0x283A JUMP JUMPDEST PUSH1 0x40 MLOAD DUP1 SWAP2 SUB SWAP1 LOG3 POP POP POP POP POP JUMP JUMPDEST PUSH1 0x0 SLOAD PUSH1 0x60 SWAP1 PUSH1 0x1 PUSH1 0x1 PUSH1 0xA0 SHL SUB AND CALLER EQ PUSH2 0x8EB JUMPI PUSH1 0x40 MLOAD PUSH3 0x461BCD PUSH1 0xE5 SHL DUP2 MSTORE PUSH1 0x4 ADD PUSH2 0x19E SWAP1 PUSH2 0x27DD JUMP JUMPDEST PUSH1 0x2 DUP1 SLOAD DUP1 PUSH1 0x20 MUL PUSH1 0x20 ADD PUSH1 0x40 MLOAD SWAP1 DUP2 ADD PUSH1 0x40 MSTORE DUP1 SWAP3 SWAP2 SWAP1 DUP2 DUP2 MSTORE PUSH1 0x20 ADD PUSH1 0x0 SWAP1 JUMPDEST DUP3 DUP3 LT ISZERO PUSH2 0x99B JUMPI PUSH1 0x0 DUP5 DUP2 MSTORE PUSH1 0x20 SWAP1 DUP2 SWAP1 KECCAK256 PUSH1 0x40 DUP1 MLOAD PUSH1 0xC0 DUP2 ADD DUP3 MSTORE PUSH1 0x3 DUP7 MUL SWAP1 SWAP3 ADD DUP1 SLOAD PUSH2 0xFFFF DUP1 DUP3 AND DUP6 MSTORE PUSH3 0x10000 SWAP2 DUP3 SWAP1 DIV DUP2 AND DUP6 DUP8 ADD MSTORE DUP4 MLOAD DUP1 DUP6 ADD DUP6 MSTORE PUSH1 0x1 DUP1 DUP6 ADD SLOAD DUP1 DUP5 AND DUP4 MSTORE DUP5 SWAP1 DIV DUP4 AND DUP3 DUP10 ADD MSTORE SWAP5 DUP7 ADD MSTORE PUSH1 0x2 SWAP1 SWAP3 ADD SLOAD DUP1 DUP4 AND PUSH1 0x60 DUP7 ADD MSTORE SWAP1 DUP2 DIV DUP3 AND PUSH1 0x80 DUP6 ADD MSTORE PUSH5 0x100000000 SWAP1 DIV AND PUSH1 0xA0 DUP4 ADD MSTORE SWAP1 DUP4 MSTORE SWAP1 SWAP3 ADD SWAP2 ADD PUSH2 0x90D JUMP JUMPDEST POP POP POP POP SWAP1 POP SWAP1 JUMP JUMPDEST PUSH1 0x4 SLOAD PUSH1 0x60 SWAP1 PUSH1 0x0 SWAP1 PUSH8 0xFFFFFFFFFFFFFFFF DUP2 GT ISZERO PUSH2 0x9D3 JUMPI PUSH4 0x4E487B71 PUSH1 0xE0 SHL PUSH1 0x0 MSTORE PUSH1 0x41 PUSH1 0x4 MSTORE PUSH1 0x24 PUSH1 0x0 REVERT JUMPDEST PUSH1 0x40 MLOAD SWAP1 DUP1 DUP3 MSTORE DUP1 PUSH1 0x20 MUL PUSH1 0x20 ADD DUP3 ADD PUSH1 0x40 MSTORE DUP1 ISZERO PUSH2 0xA0C JUMPI DUP2 PUSH1 0x20 ADD JUMPDEST PUSH2 0x9F9 PUSH2 0x2017 JUMP JUMPDEST DUP2 MSTORE PUSH1 0x20 ADD SWAP1 PUSH1 0x1 SWAP1 SUB SWAP1 DUP2 PUSH2 0x9F1 JUMPI SWAP1 POP JUMPDEST POP SWAP1 POP PUSH1 0x0 JUMPDEST PUSH1 0x4 SLOAD DUP2 LT ISZERO PUSH2 0xAF3 JUMPI PUSH1 0x0 PUSH1 0x4 DUP3 DUP2 SLOAD DUP2 LT PUSH2 0xA3F JUMPI PUSH4 0x4E487B71 PUSH1 0xE0 SHL PUSH1 0x0 MSTORE PUSH1 0x32 PUSH1 0x4 MSTORE PUSH1 0x24 PUSH1 0x0 REVERT JUMPDEST PUSH1 0x0 SWAP2 DUP3 MSTORE PUSH1 0x20 DUP1 DUP4 KECCAK256 SWAP1 SWAP2 ADD SLOAD PUSH1 0x40 DUP1 MLOAD PUSH1 0x80 DUP2 ADD DUP3 MSTORE PUSH1 0x1 PUSH1 0x1 PUSH1 0xA0 SHL SUB SWAP1 SWAP3 AND DUP1 DUP4 MSTORE DUP1 DUP6 MSTORE PUSH1 0x5 DUP5 MSTORE DUP2 DUP6 KECCAK256 PUSH1 0x3 SWAP1 DUP2 ADD SLOAD DUP5 DUP7 ADD MSTORE DUP2 DUP7 MSTORE DUP1 DUP6 MSTORE DUP3 DUP7 KECCAK256 SLOAD PUSH4 0xFFFFFFFF PUSH2 0x100 DUP3 DIV DUP2 AND SWAP5 DUP7 ADD SWAP5 SWAP1 SWAP5 MSTORE SWAP6 DUP3 SWAP1 MSTORE SWAP1 SWAP4 MSTORE PUSH6 0x10000000000 SWAP1 SWAP4 DIV SWAP1 SWAP3 AND PUSH1 0x60 DUP4 ADD MSTORE DUP5 MLOAD SWAP1 SWAP3 POP DUP5 SWAP1 DUP5 SWAP1 DUP2 LT PUSH2 0xAD4 JUMPI PUSH4 0x4E487B71 PUSH1 0xE0 SHL PUSH1 0x0 MSTORE PUSH1 0x32 PUSH1 0x4 MSTORE PUSH1 0x24 PUSH1 0x0 REVERT JUMPDEST PUSH1 0x20 MUL PUSH1 0x20 ADD ADD DUP2 SWAP1 MSTORE POP POP DUP1 DUP1 PUSH2 0xAEB SWAP1 PUSH2 0x2C25 JUMP JUMPDEST SWAP2 POP POP PUSH2 0xA12 JUMP JUMPDEST POP SWAP1 POP SWAP1 JUMP JUMPDEST PUSH1 0x6 SLOAD PUSH1 0x60 SWAP1 PUSH1 0x0 SWAP1 PUSH8 0xFFFFFFFFFFFFFFFF DUP2 GT ISZERO PUSH2 0xB28 JUMPI PUSH4 0x4E487B71 PUSH1 0xE0 SHL PUSH1 0x0 MSTORE PUSH1 0x41 PUSH1 0x4 MSTORE PUSH1 0x24 PUSH1 0x0 REVERT JUMPDEST PUSH1 0x40 MLOAD SWAP1 DUP1 DUP3 MSTORE DUP1 PUSH1 0x20 MUL PUSH1 0x20 ADD DUP3 ADD PUSH1 0x40 MSTORE DUP1 ISZERO PUSH2 0xB61 JUMPI DUP2 PUSH1 0x20 ADD JUMPDEST PUSH2 0xB4E PUSH2 0x203E JUMP JUMPDEST DUP2 MSTORE PUSH1 0x20 ADD SWAP1 PUSH1 0x1 SWAP1 SUB SWAP1 DUP2 PUSH2 0xB46 JUMPI SWAP1 POP JUMPDEST POP SWAP1 POP PUSH1 0x0 JUMPDEST PUSH1 0x6 SLOAD DUP2 LT ISZERO PUSH2 0xAF3 JUMPI PUSH1 0x5 PUSH1 0x0 PUSH1 0x6 DUP4 DUP2 SLOAD DUP2 LT PUSH2 0xB96 JUMPI PUSH4 0x4E487B71 PUSH1 0xE0 SHL PUSH1 0x0 MSTORE PUSH1 0x32 PUSH1 0x4 MSTORE PUSH1 0x24 PUSH1 0x0 REVERT JUMPDEST PUSH1 0x0 SWAP2 DUP3 MSTORE PUSH1 0x20 DUP1 DUP4 KECCAK256 SWAP2 SWAP1 SWAP2 ADD SLOAD PUSH1 0x1 PUSH1 0x1 PUSH1 0xA0 SHL SUB SWAP1 DUP2 AND DUP5 MSTORE DUP4 DUP3 ADD SWAP5 SWAP1 SWAP5 MSTORE PUSH1 0x40 SWAP3 DUP4 ADD SWAP1 SWAP2 KECCAK256 DUP3 MLOAD PUSH1 0xA0 DUP2 ADD DUP5 MSTORE DUP2 SLOAD SWAP5 DUP6 AND DUP2 MSTORE PUSH1 0x1 PUSH1 0xA0 SHL SWAP1 SWAP5 DIV PUSH1 0xFF AND ISZERO ISZERO DUP5 DUP4 ADD MSTORE PUSH1 0x1 DUP2 ADD DUP1 SLOAD DUP5 MLOAD DUP2 DUP6 MUL DUP2 ADD DUP6 ADD DUP7 MSTORE DUP2 DUP2 MSTORE SWAP3 SWAP5 DUP7 ADD SWAP4 DUP4 ADD DUP3 DUP3 DUP1 ISZERO PUSH2 0xC47 JUMPI PUSH1 0x20 MUL DUP3 ADD SWAP2 SWAP1 PUSH1 0x0 MSTORE PUSH1 0x20 PUSH1 0x0 KECCAK256 SWAP1 PUSH1 0x0 SWAP1 JUMPDEST DUP3 SLOAD PUSH2 0x100 DUP4 SWAP1 EXP SWAP1 DIV PUSH1 0xFF AND DUP2 MSTORE PUSH1 0x20 PUSH1 0x1 SWAP3 DUP4 ADD DUP2 DUP2 DIV SWAP5 DUP6 ADD SWAP5 SWAP1 SWAP4 SUB SWAP1 SWAP3 MUL SWAP2 ADD DUP1 DUP5 GT PUSH2 0xC18 JUMPI SWAP1 POP JUMPDEST POP POP POP SWAP2 DUP4 MSTORE POP POP PUSH1 0x2 DUP3 ADD SLOAD PUSH1 0xFF AND PUSH1 0x20 DUP3 ADD MSTORE PUSH1 0x3 SWAP1 SWAP2 ADD SLOAD PUSH1 0x40 SWAP1 SWAP2 ADD MSTORE DUP3 MLOAD DUP4 SWAP1 DUP4 SWAP1 DUP2 LT PUSH2 0xC8A JUMPI PUSH4 0x4E487B71 PUSH1 0xE0 SHL PUSH1 0x0 MSTORE PUSH1 0x32 PUSH1 0x4 MSTORE PUSH1 0x24 PUSH1 0x0 REVERT JUMPDEST PUSH1 0x20 MUL PUSH1 0x20 ADD ADD DUP2 SWAP1 MSTORE POP DUP1 DUP1 PUSH2 0xCA0 SWAP1 PUSH2 0x2C25 JUMP JUMPDEST SWAP2 POP POP PUSH2 0xB67 JUMP JUMPDEST PUSH1 0x0 SLOAD PUSH1 0x1 PUSH1 0x1 PUSH1 0xA0 SHL SUB AND DUP2 JUMP JUMPDEST PUSH1 0x40 DUP1 MLOAD PUSH1 0xA0 DUP2 ADD DUP3 MSTORE CALLER DUP1 DUP3 MSTORE PUSH1 0x1 PUSH1 0x20 DUP1 DUP5 ADD SWAP2 SWAP1 SWAP2 MSTORE DUP3 DUP5 ADD DUP8 SWAP1 MSTORE PUSH1 0xFF DUP1 DUP8 AND PUSH1 0x60 DUP6 ADD MSTORE PUSH1 0x80 DUP5 ADD DUP7 SWAP1 MSTORE PUSH1 0x0 SWAP3 DUP4 MSTORE PUSH1 0x5 SWAP1 SWAP2 MSTORE SWAP3 SWAP1 KECCAK256 SLOAD SWAP1 SWAP2 PUSH1 0x1 PUSH1 0xA0 SHL SWAP1 SWAP2 DIV AND PUSH2 0xD54 JUMPI PUSH1 0x6 DUP1 SLOAD PUSH1 0x1 DUP2 ADD DUP3 SSTORE PUSH1 0x0 SWAP2 SWAP1 SWAP2 MSTORE PUSH32 0xF652222313E28459528D920B65115C16C04F3EFC82AAEDC97BE59F3F377C0D3F ADD DUP1 SLOAD PUSH20 0xFFFFFFFFFFFFFFFFFFFFFFFFFFFFFFFFFFFFFFFF NOT AND CALLER OR SWAP1 SSTORE JUMPDEST CALLER PUSH1 0x0 SWAP1 DUP2 MSTORE PUSH1 0x5 PUSH1 0x20 SWAP1 DUP2 MSTORE PUSH1 0x40 SWAP2 DUP3 SWAP1 KECCAK256 DUP4 MLOAD DUP2 SLOAD DUP4 DUP7 ADD MLOAD ISZERO ISZERO PUSH1 0x1 PUSH1 0xA0 SHL MUL PUSH32 0xFFFFFFFFFFFFFFFFFFFFFF00FFFFFFFFFFFFFFFFFFFFFFFFFFFFFFFFFFFFFFFF PUSH1 0x1 PUSH1 0x1 PUSH1 0xA0 SHL SUB SWAP4 SWAP1 SWAP4 AND PUSH20 0xFFFFFFFFFFFFFFFFFFFFFFFFFFFFFFFFFFFFFFFF NOT SWAP1 SWAP3 AND SWAP2 SWAP1 SWAP2 OR SWAP2 SWAP1 SWAP2 AND OR DUP2 SSTORE SWAP2 DUP4 ADD MLOAD DUP1 MLOAD DUP5 SWAP4 SWAP3 PUSH2 0xDE2 SWAP3 PUSH1 0x1 DUP6 ADD SWAP3 SWAP2 ADD SWAP1 PUSH2 0x206D JUMP JUMPDEST POP PUSH1 0x60 DUP3 ADD MLOAD PUSH1 0x2 DUP3 ADD DUP1 SLOAD PUSH1 0xFF NOT AND PUSH1 0xFF SWAP3 DUP4 AND OR SWAP1 SSTORE PUSH1 0x80 SWAP1 SWAP3 ADD MLOAD PUSH1 0x3 SWAP2 DUP3 ADD SSTORE CALLER PUSH1 0x0 SWAP1 DUP2 MSTORE PUSH1 0x20 SWAP2 SWAP1 SWAP2 MSTORE PUSH1 0x40 SWAP1 KECCAK256 SLOAD AND PUSH2 0xEDD JUMPI PUSH1 0x40 DUP1 MLOAD PUSH1 0x60 DUP2 ADD DUP3 MSTORE PUSH1 0x1 DUP1 DUP3 MSTORE PUSH1 0x0 PUSH1 0x20 DUP1 DUP5 ADD DUP3 DUP2 MSTORE DUP5 DUP7 ADD DUP4 DUP2 MSTORE CALLER DUP1 DUP6 MSTORE PUSH1 0x3 SWAP1 SWAP4 MSTORE SWAP6 DUP4 KECCAK256 SWAP5 MLOAD DUP6 SLOAD SWAP2 MLOAD SWAP7 MLOAD PUSH1 0xFF NOT SWAP1 SWAP3 AND SWAP1 ISZERO ISZERO OR PUSH5 0xFFFFFFFF00 NOT AND PUSH2 0x100 PUSH4 0xFFFFFFFF SWAP8 DUP9 AND MUL OR PUSH9 0xFFFFFFFF0000000000 NOT AND PUSH6 0x10000000000 SWAP7 SWAP1 SWAP2 AND SWAP6 SWAP1 SWAP6 MUL SWAP5 SWAP1 SWAP5 OR SWAP1 SWAP3 SSTORE PUSH1 0x4 DUP1 SLOAD SWAP2 DUP3 ADD DUP2 SSTORE SWAP1 SWAP2 MSTORE PUSH32 0x8A35ACFBC15FF81A39AE7D344FD709F28E8600B4AA8C65C6B64BFE7FE36BD19B ADD DUP1 SLOAD PUSH20 0xFFFFFFFFFFFFFFFFFFFFFFFFFFFFFFFFFFFFFFFF NOT AND SWAP1 SWAP2 OR SWAP1 SSTORE JUMPDEST POP POP POP POP JUMP JUMPDEST PUSH2 0xEEB PUSH2 0x203E JUMP JUMPDEST CALLER PUSH1 0x0 SWAP1 DUP2 MSTORE PUSH1 0x5 PUSH1 0x20 MSTORE PUSH1 0x40 SWAP1 KECCAK256 SLOAD PUSH1 0x1 PUSH1 0xA0 SHL SWAP1 DIV PUSH1 0xFF AND PUSH2 0xF21 JUMPI PUSH1 0x40 MLOAD PUSH3 0x461BCD PUSH1 0xE5 SHL DUP2 MSTORE PUSH1 0x4 ADD PUSH2 0x19E SWAP1 PUSH2 0x27A6 JUMP JUMPDEST CALLER PUSH1 0x0 SWAP1 DUP2 MSTORE PUSH1 0x5 PUSH1 0x20 SWAP1 DUP2 MSTORE PUSH1 0x40 SWAP2 DUP3 SWAP1 KECCAK256 DUP3 MLOAD PUSH1 0xA0 DUP2 ADD DUP5 MSTORE DUP2 SLOAD PUSH1 0x1 PUSH1 0x1 PUSH1 0xA0 SHL SUB DUP2 AND DUP3 MSTORE PUSH1 0x1 PUSH1 0xA0 SHL SWAP1 DIV PUSH1 0xFF AND ISZERO ISZERO DUP2 DUP5 ADD MSTORE PUSH1 0x1 DUP3 ADD DUP1 SLOAD DUP6 MLOAD DUP2 DUP7 MUL DUP2 ADD DUP7 ADD DUP8 MSTORE DUP2 DUP2 MSTORE SWAP3 SWAP6 SWAP4 SWAP5 SWAP4 DUP7 ADD SWAP4 DUP4 ADD DUP3 DUP3 DUP1 ISZERO PUSH2 0xFC3 JUMPI PUSH1 0x20 MUL DUP3 ADD SWAP2 SWAP1 PUSH1 0x0 MSTORE PUSH1 0x20 PUSH1 0x0 KECCAK256 SWAP1 PUSH1 0x0 SWAP1 JUMPDEST DUP3 SLOAD PUSH2 0x100 DUP4 SWAP1 EXP SWAP1 DIV PUSH1 0xFF AND DUP2 MSTORE PUSH1 0x20 PUSH1 0x1 SWAP3 DUP4 ADD DUP2 DUP2 DIV SWAP5 DUP6 ADD SWAP5 SWAP1 SWAP4 SUB SWAP1 SWAP3 MUL SWAP2 ADD DUP1 DUP5 GT PUSH2 0xF94 JUMPI SWAP1 POP JUMPDEST POP POP POP SWAP2 DUP4 MSTORE POP POP PUSH1 0x2 DUP3 ADD SLOAD PUSH1 0xFF AND PUSH1 0x20 DUP3 ADD MSTORE PUSH1 0x3 SWAP1 SWAP2 ADD SLOAD PUSH1 0x40 SWAP1 SWAP2 ADD MSTORE SWAP1 POP SWAP1 JUMP JUMPDEST PUSH2 0xFF1 PUSH2 0x1FC4 JUMP JUMPDEST DUP5 MLOAD PUSH1 0x4 EQ PUSH2 0x1012 JUMPI PUSH1 0x40 MLOAD PUSH3 0x461BCD PUSH1 0xE5 SHL DUP2 MSTORE PUSH1 0x4 ADD PUSH2 0x19E SWAP1 PUSH2 0x26EC JUMP JUMPDEST DUP4 MLOAD PUSH1 0x4 EQ PUSH2 0x1033 JUMPI PUSH1 0x40 MLOAD PUSH3 0x461BCD PUSH1 0xE5 SHL DUP2 MSTORE PUSH1 0x4 ADD PUSH2 0x19E SWAP1 PUSH2 0x26EC JUMP JUMPDEST PUSH1 0x40 DUP1 MLOAD PUSH1 0x4 DUP1 DUP3 MSTORE PUSH1 0xA0 DUP3 ADD SWAP1 SWAP3 MSTORE PUSH1 0x0 SWAP2 PUSH1 0x20 DUP3 ADD PUSH1 0x80 DUP1 CALLDATASIZE DUP4 CALLDATACOPY ADD SWAP1 POP POP SWAP1 POP PUSH1 0xA DUP2 PUSH1 0x0 DUP2 MLOAD DUP2 LT PUSH2 0x1079 JUMPI PUSH4 0x4E487B71 PUSH1 0xE0 SHL PUSH1 0x0 MSTORE PUSH1 0x32 PUSH1 0x4 MSTORE PUSH1 0x24 PUSH1 0x0 REVERT JUMPDEST PUSH1 0x20 MUL PUSH1 0x20 ADD ADD SWAP1 PUSH1 0x0 SIGNEXTEND SWAP1 DUP2 PUSH1 0x0 SIGNEXTEND DUP2 MSTORE POP POP PUSH1 0xB DUP2 PUSH1 0x1 DUP2 MLOAD DUP2 LT PUSH2 0x10B0 JUMPI PUSH4 0x4E487B71 PUSH1 0xE0 SHL PUSH1 0x0 MSTORE PUSH1 0x32 PUSH1 0x4 MSTORE PUSH1 0x24 PUSH1 0x0 REVERT JUMPDEST PUSH1 0x20 MUL PUSH1 0x20 ADD ADD SWAP1 PUSH1 0x0 SIGNEXTEND SWAP1 DUP2 PUSH1 0x0 SIGNEXTEND DUP2 MSTORE POP POP PUSH1 0xC DUP2 PUSH1 0x2 DUP2 MLOAD DUP2 LT PUSH2 0x10E7 JUMPI PUSH4 0x4E487B71 PUSH1 0xE0 SHL PUSH1 0x0 MSTORE PUSH1 0x32 PUSH1 0x4 MSTORE PUSH1 0x24 PUSH1 0x0 REVERT JUMPDEST PUSH1 0x20 MUL PUSH1 0x20 ADD ADD SWAP1 PUSH1 0x0 SIGNEXTEND SWAP1 DUP2 PUSH1 0x0 SIGNEXTEND DUP2 MSTORE POP POP PUSH1 0xD DUP2 PUSH1 0x3 DUP2 MLOAD DUP2 LT PUSH2 0x111E JUMPI PUSH4 0x4E487B71 PUSH1 0xE0 SHL PUSH1 0x0 MSTORE PUSH1 0x32 PUSH1 0x4 MSTORE PUSH1 0x24 PUSH1 0x0 REVERT JUMPDEST PUSH1 0x0 SWAP3 DUP4 SIGNEXTEND DUP4 SIGNEXTEND PUSH1 0x20 SWAP2 DUP3 MUL SWAP3 SWAP1 SWAP3 ADD ADD MSTORE PUSH1 0x40 DUP1 MLOAD PUSH1 0x4 DUP1 DUP3 MSTORE PUSH1 0xA0 DUP3 ADD SWAP1 SWAP3 MSTORE SWAP1 DUP2 PUSH1 0x20 ADD PUSH1 0x20 DUP3 MUL DUP1 CALLDATASIZE DUP4 CALLDATACOPY ADD SWAP1 POP POP SWAP1 POP PUSH1 0x9 NOT DUP2 PUSH1 0x0 DUP2 MLOAD DUP2 LT PUSH2 0x1177 JUMPI PUSH4 0x4E487B71 PUSH1 0xE0 SHL PUSH1 0x0 MSTORE PUSH1 0x32 PUSH1 0x4 MSTORE PUSH1 0x24 PUSH1 0x0 REVERT JUMPDEST PUSH1 0x20 MUL PUSH1 0x20 ADD ADD SWAP1 PUSH1 0x0 SIGNEXTEND SWAP1 DUP2 PUSH1 0x0 SIGNEXTEND DUP2 MSTORE POP POP PUSH1 0xA NOT DUP2 PUSH1 0x1 DUP2 MLOAD DUP2 LT PUSH2 0x11AF JUMPI PUSH4 0x4E487B71 PUSH1 0xE0 SHL PUSH1 0x0 MSTORE PUSH1 0x32 PUSH1 0x4 MSTORE PUSH1 0x24 PUSH1 0x0 REVERT JUMPDEST PUSH1 0x20 MUL PUSH1 0x20 ADD ADD SWAP1 PUSH1 0x0 SIGNEXTEND SWAP1 DUP2 PUSH1 0x0 SIGNEXTEND DUP2 MSTORE POP POP PUSH1 0xB NOT DUP2 PUSH1 0x2 DUP2 MLOAD DUP2 LT PUSH2 0x11E7 JUMPI PUSH4 0x4E487B71 PUSH1 0xE0 SHL PUSH1 0x0 MSTORE PUSH1 0x32 PUSH1 0x4 MSTORE PUSH1 0x24 PUSH1 0x0 REVERT JUMPDEST PUSH1 0x20 MUL PUSH1 0x20 ADD ADD SWAP1 PUSH1 0x0 SIGNEXTEND SWAP1 DUP2 PUSH1 0x0 SIGNEXTEND DUP2 MSTORE POP POP PUSH1 0xC NOT DUP2 PUSH1 0x3 DUP2 MLOAD DUP2 LT PUSH2 0x121F JUMPI PUSH4 0x4E487B71 PUSH1 0xE0 SHL PUSH1 0x0 MSTORE PUSH1 0x32 PUSH1 0x4 MSTORE PUSH1 0x24 PUSH1 0x0 REVERT JUMPDEST PUSH1 0x0 SWAP3 DUP4 SIGNEXTEND DUP4 SIGNEXTEND PUSH1 0x20 SWAP2 DUP3 MUL SWAP3 SWAP1 SWAP3 ADD ADD MSTORE PUSH1 0x40 DUP1 MLOAD PUSH1 0x4 DUP1 DUP3 MSTORE PUSH1 0xA0 DUP3 ADD SWAP1 SWAP3 MSTORE SWAP1 DUP2 PUSH1 0x20 ADD PUSH1 0x20 DUP3 MUL DUP1 CALLDATASIZE DUP4 CALLDATACOPY POP POP PUSH1 0x40 DUP1 MLOAD PUSH1 0x4 DUP1 DUP3 MSTORE PUSH1 0xA0 DUP3 ADD SWAP1 SWAP3 MSTORE SWAP3 SWAP4 POP PUSH1 0x0 SWAP3 SWAP2 POP PUSH1 0x20 DUP3 ADD PUSH1 0x80 DUP1 CALLDATASIZE DUP4 CALLDATACOPY POP POP PUSH1 0x40 DUP1 MLOAD PUSH1 0x4 DUP1 DUP3 MSTORE PUSH1 0xA0 DUP3 ADD SWAP1 SWAP3 MSTORE SWAP3 SWAP4 POP PUSH1 0x0 SWAP3 SWAP2 POP PUSH1 0x20 DUP3 ADD PUSH1 0x80 DUP1 CALLDATASIZE DUP4 CALLDATACOPY ADD SWAP1 POP POP SWAP1 POP PUSH1 0x0 JUMPDEST PUSH1 0x4 PUSH2 0xFFFF DUP3 AND LT ISZERO PUSH2 0x1480 JUMPI DUP11 DUP2 PUSH2 0xFFFF AND DUP2 MLOAD DUP2 LT PUSH2 0x12D0 JUMPI PUSH4 0x4E487B71 PUSH1 0xE0 SHL PUSH1 0x0 MSTORE PUSH1 0x32 PUSH1 0x4 MSTORE PUSH1 0x24 PUSH1 0x0 REVERT JUMPDEST PUSH1 0x20 MUL PUSH1 0x20 ADD ADD MLOAD PUSH1 0xFF AND DUP13 DUP3 PUSH2 0xFFFF AND DUP2 MLOAD DUP2 LT PUSH2 0x12FF JUMPI PUSH4 0x4E487B71 PUSH1 0xE0 SHL PUSH1 0x0 MSTORE PUSH1 0x32 PUSH1 0x4 MSTORE PUSH1 0x24 PUSH1 0x0 REVERT JUMPDEST PUSH1 0x20 MUL PUSH1 0x20 ADD ADD MLOAD PUSH1 0x20 ADD MLOAD PUSH2 0x1315 SWAP2 SWAP1 PUSH2 0x2A6B JUMP JUMPDEST PUSH1 0x1 SIGNEXTEND DUP5 DUP3 PUSH2 0xFFFF AND DUP2 MLOAD DUP2 LT PUSH2 0x133C JUMPI PUSH4 0x4E487B71 PUSH1 0xE0 SHL PUSH1 0x0 MSTORE PUSH1 0x32 PUSH1 0x4 MSTORE PUSH1 0x24 PUSH1 0x0 REVERT JUMPDEST PUSH1 0x20 MUL PUSH1 0x20 ADD ADD SWAP1 PUSH1 0x3 SIGNEXTEND SWAP1 DUP2 PUSH1 0x3 SIGNEXTEND DUP2 MSTORE POP POP DUP10 DUP2 PUSH2 0xFFFF AND DUP2 MLOAD DUP2 LT PUSH2 0x1374 JUMPI PUSH4 0x4E487B71 PUSH1 0xE0 SHL PUSH1 0x0 MSTORE PUSH1 0x32 PUSH1 0x4 MSTORE PUSH1 0x24 PUSH1 0x0 REVERT JUMPDEST PUSH1 0x20 MUL PUSH1 0x20 ADD ADD MLOAD PUSH1 0xFF AND DUP13 DUP3 PUSH2 0xFFFF AND DUP2 MLOAD DUP2 LT PUSH2 0x13A3 JUMPI PUSH4 0x4E487B71 PUSH1 0xE0 SHL PUSH1 0x0 MSTORE PUSH1 0x32 PUSH1 0x4 MSTORE PUSH1 0x24 PUSH1 0x0 REVERT JUMPDEST PUSH1 0x20 MUL PUSH1 0x20 ADD ADD MLOAD PUSH1 0x20 ADD MLOAD PUSH2 0x13B9 SWAP2 SWAP1 PUSH2 0x2A6B JUMP JUMPDEST PUSH1 0x1 SIGNEXTEND DUP4 DUP3 PUSH2 0xFFFF AND DUP2 MLOAD DUP2 LT PUSH2 0x13E0 JUMPI PUSH4 0x4E487B71 PUSH1 0xE0 SHL PUSH1 0x0 MSTORE PUSH1 0x32 PUSH1 0x4 MSTORE PUSH1 0x24 PUSH1 0x0 REVERT JUMPDEST PUSH1 0x20 MUL PUSH1 0x20 ADD ADD SWAP1 PUSH1 0x3 SIGNEXTEND SWAP1 DUP2 PUSH1 0x3 SIGNEXTEND DUP2 MSTORE POP POP DUP12 DUP2 PUSH2 0xFFFF AND DUP2 MLOAD DUP2 LT PUSH2 0x1418 JUMPI PUSH4 0x4E487B71 PUSH1 0xE0 SHL PUSH1 0x0 MSTORE PUSH1 0x32 PUSH1 0x4 MSTORE PUSH1 0x24 PUSH1 0x0 REVERT JUMPDEST PUSH1 0x20 MUL PUSH1 0x20 ADD ADD MLOAD PUSH1 0x40 ADD MLOAD PUSH1 0x20 ADD MLOAD PUSH2 0xFFFF AND DUP15 PUSH2 0x1437 SWAP2 SWAP1 PUSH2 0x2C7A JUMP JUMPDEST DUP3 DUP3 PUSH2 0xFFFF AND DUP2 MLOAD DUP2 LT PUSH2 0x145B JUMPI PUSH4 0x4E487B71 PUSH1 0xE0 SHL PUSH1 0x0 MSTORE PUSH1 0x32 PUSH1 0x4 MSTORE PUSH1 0x24 PUSH1 0x0 REVERT JUMPDEST PUSH2 0xFFFF SWAP1 SWAP3 AND PUSH1 0x20 SWAP3 DUP4 MUL SWAP2 SWAP1 SWAP2 ADD SWAP1 SWAP2 ADD MSTORE DUP1 PUSH2 0x1478 DUP2 PUSH2 0x2C03 JUMP JUMPDEST SWAP2 POP POP PUSH2 0x129F JUMP JUMPDEST POP PUSH2 0x1489 PUSH2 0x2113 JUMP JUMPDEST DUP13 ISZERO PUSH2 0x1578 JUMPI PUSH2 0x149B PUSH1 0x4 PUSH1 0x14 PUSH2 0x2AB8 JUMP JUMPDEST PUSH1 0xFF AND PUSH8 0xFFFFFFFFFFFFFFFF DUP2 GT ISZERO PUSH2 0x14C4 JUMPI PUSH4 0x4E487B71 PUSH1 0xE0 SHL PUSH1 0x0 MSTORE PUSH1 0x41 PUSH1 0x4 MSTORE PUSH1 0x24 PUSH1 0x0 REVERT JUMPDEST PUSH1 0x40 MLOAD SWAP1 DUP1 DUP3 MSTORE DUP1 PUSH1 0x20 MUL PUSH1 0x20 ADD DUP3 ADD PUSH1 0x40 MSTORE DUP1 ISZERO PUSH2 0x14FD JUMPI DUP2 PUSH1 0x20 ADD JUMPDEST PUSH2 0x14EA PUSH2 0x2156 JUMP JUMPDEST DUP2 MSTORE PUSH1 0x20 ADD SWAP1 PUSH1 0x1 SWAP1 SUB SWAP1 DUP2 PUSH2 0x14E2 JUMPI SWAP1 POP JUMPDEST POP PUSH1 0x60 DUP3 ADD MSTORE PUSH2 0x150F PUSH1 0x4 PUSH1 0x14 PUSH2 0x2AB8 JUMP JUMPDEST PUSH1 0xFF AND PUSH8 0xFFFFFFFFFFFFFFFF DUP2 GT ISZERO PUSH2 0x1538 JUMPI PUSH4 0x4E487B71 PUSH1 0xE0 SHL PUSH1 0x0 MSTORE PUSH1 0x41 PUSH1 0x4 MSTORE PUSH1 0x24 PUSH1 0x0 REVERT JUMPDEST PUSH1 0x40 MLOAD SWAP1 DUP1 DUP3 MSTORE DUP1 PUSH1 0x20 MUL PUSH1 0x20 ADD DUP3 ADD PUSH1 0x40 MSTORE DUP1 ISZERO PUSH2 0x1571 JUMPI DUP2 PUSH1 0x20 ADD JUMPDEST PUSH2 0x155E PUSH2 0x2156 JUMP JUMPDEST DUP2 MSTORE PUSH1 0x20 ADD SWAP1 PUSH1 0x1 SWAP1 SUB SWAP1 DUP2 PUSH2 0x1556 JUMPI SWAP1 POP JUMPDEST POP PUSH1 0x80 DUP3 ADD MSTORE JUMPDEST PUSH1 0x0 DUP2 MSTORE JUMPDEST DUP1 MLOAD PUSH1 0x14 PUSH1 0xFF SWAP1 SWAP2 AND LT DUP1 ISZERO PUSH2 0x1599 JUMPI POP PUSH2 0x1597 DUP5 PUSH2 0x1B2D JUMP JUMPDEST ISZERO JUMPDEST DUP1 ISZERO PUSH2 0x15AB JUMPI POP PUSH2 0x15A9 DUP4 PUSH2 0x1B2D JUMP JUMPDEST ISZERO JUMPDEST ISZERO PUSH2 0x1AAE JUMPI PUSH1 0x0 PUSH1 0xA0 DUP3 ADD MSTORE JUMPDEST PUSH1 0x4 PUSH1 0xFF AND DUP2 PUSH1 0xA0 ADD MLOAD PUSH1 0xFF AND LT ISZERO PUSH2 0x1831 JUMPI PUSH1 0x0 DUP5 DUP3 PUSH1 0xA0 ADD MLOAD PUSH1 0xFF AND DUP2 MLOAD DUP2 LT PUSH2 0x15F4 JUMPI PUSH4 0x4E487B71 PUSH1 0xE0 SHL PUSH1 0x0 MSTORE PUSH1 0x32 PUSH1 0x4 MSTORE PUSH1 0x24 PUSH1 0x0 REVERT JUMPDEST PUSH1 0x20 MUL PUSH1 0x20 ADD ADD MLOAD PUSH1 0x3 SIGNEXTEND SGT ISZERO PUSH2 0x1816 JUMPI PUSH2 0x1616 DUP13 DUP3 PUSH1 0xA0 ADD MLOAD DUP9 DUP9 DUP8 PUSH2 0x1B8F JUMP JUMPDEST PUSH1 0xFF AND PUSH1 0xE0 DUP4 ADD MSTORE ISZERO DUP1 ISZERO PUSH1 0xC0 DUP4 ADD MSTORE PUSH2 0x16FC JUMPI PUSH1 0x0 PUSH2 0x166F DUP4 DUP15 DUP5 PUSH1 0xA0 ADD MLOAD DUP6 PUSH1 0xE0 ADD MLOAD DUP10 DUP8 PUSH1 0xA0 ADD MLOAD PUSH1 0xFF AND DUP2 MLOAD DUP2 LT PUSH2 0x1662 JUMPI PUSH4 0x4E487B71 PUSH1 0xE0 SHL PUSH1 0x0 MSTORE PUSH1 0x32 PUSH1 0x4 MSTORE PUSH1 0x24 PUSH1 0x0 REVERT JUMPDEST PUSH1 0x20 MUL PUSH1 0x20 ADD ADD MLOAD PUSH2 0x1CDD JUMP JUMPDEST SWAP1 POP DUP1 DUP5 DUP4 PUSH1 0xE0 ADD MLOAD PUSH1 0xFF AND DUP2 MLOAD DUP2 LT PUSH2 0x1699 JUMPI PUSH4 0x4E487B71 PUSH1 0xE0 SHL PUSH1 0x0 MSTORE PUSH1 0x32 PUSH1 0x4 MSTORE PUSH1 0x24 PUSH1 0x0 REVERT JUMPDEST PUSH1 0x20 MUL PUSH1 0x20 ADD ADD DUP2 DUP2 MLOAD PUSH2 0x16AD SWAP2 SWAP1 PUSH2 0x2B26 JUMP JUMPDEST PUSH1 0x3 SWAP1 DUP2 SIGNEXTEND SWAP1 SIGNEXTEND SWAP1 MSTORE POP DUP14 ISZERO PUSH2 0x16F6 JUMPI PUSH1 0x20 DUP3 ADD DUP1 MLOAD PUSH2 0x16F6 SWAP2 PUSH2 0x16D0 DUP3 PUSH2 0x2C5A JUMP JUMPDEST PUSH1 0xFF AND PUSH1 0xFF AND DUP2 MSTORE POP PUSH1 0xFF AND DUP4 PUSH1 0x0 ADD MLOAD DUP5 PUSH1 0x60 ADD MLOAD DUP6 PUSH1 0xA0 ADD MLOAD DUP7 PUSH1 0xE0 ADD MLOAD DUP7 PUSH2 0x1E4C JUMP JUMPDEST POP PUSH2 0x1816 JUMP JUMPDEST PUSH2 0x1773 DUP13 DUP3 PUSH1 0xA0 ADD MLOAD PUSH1 0xFF AND DUP2 MLOAD DUP2 LT PUSH2 0x1726 JUMPI PUSH4 0x4E487B71 PUSH1 0xE0 SHL PUSH1 0x0 MSTORE PUSH1 0x32 PUSH1 0x4 MSTORE PUSH1 0x24 PUSH1 0x0 REVERT JUMPDEST PUSH1 0x20 MUL PUSH1 0x20 ADD ADD MLOAD PUSH1 0x80 ADD MLOAD DUP8 DUP4 PUSH1 0xA0 ADD MLOAD PUSH1 0xFF AND DUP2 MLOAD DUP2 LT PUSH2 0x1759 JUMPI PUSH4 0x4E487B71 PUSH1 0xE0 SHL PUSH1 0x0 MSTORE PUSH1 0x32 PUSH1 0x4 MSTORE PUSH1 0x24 PUSH1 0x0 REVERT JUMPDEST PUSH1 0x20 MUL PUSH1 0x20 ADD ADD MLOAD PUSH2 0x176B SWAP2 SWAP1 PUSH2 0x2B65 JUMP JUMPDEST PUSH1 0xC NOT PUSH2 0x1EC6 JUMP JUMPDEST DUP7 DUP3 PUSH1 0xA0 ADD MLOAD PUSH1 0xFF AND DUP2 MLOAD DUP2 LT PUSH2 0x179A JUMPI PUSH4 0x4E487B71 PUSH1 0xE0 SHL PUSH1 0x0 MSTORE PUSH1 0x32 PUSH1 0x4 MSTORE PUSH1 0x24 PUSH1 0x0 REVERT JUMPDEST PUSH1 0x20 MUL PUSH1 0x20 ADD ADD SWAP1 PUSH1 0x0 SIGNEXTEND SWAP1 DUP2 PUSH1 0x0 SIGNEXTEND DUP2 MSTORE POP POP DUP13 ISZERO PUSH2 0x1816 JUMPI PUSH1 0x20 DUP2 ADD DUP1 MLOAD PUSH2 0x1816 SWAP2 PUSH2 0x17C7 DUP3 PUSH2 0x2C5A JUMP JUMPDEST PUSH1 0xFF AND PUSH1 0xFF AND DUP2 MSTORE POP PUSH1 0xFF AND DUP3 PUSH1 0x0 ADD MLOAD DUP4 PUSH1 0x60 ADD MLOAD DUP5 PUSH1 0xA0 ADD MLOAD DUP11 DUP7 PUSH1 0xA0 ADD MLOAD PUSH1 0xFF AND DUP2 MLOAD DUP2 LT PUSH2 0x1809 JUMPI PUSH4 0x4E487B71 PUSH1 0xE0 SHL PUSH1 0x0 MSTORE PUSH1 0x32 PUSH1 0x4 MSTORE PUSH1 0x24 PUSH1 0x0 REVERT JUMPDEST PUSH1 0x20 MUL PUSH1 0x20 ADD ADD MLOAD PUSH2 0x1EE4 JUMP JUMPDEST PUSH1 0xA0 DUP2 ADD DUP1 MLOAD SWAP1 PUSH2 0x1826 DUP3 PUSH2 0x2C5A JUMP JUMPDEST PUSH1 0xFF AND SWAP1 MSTORE POP PUSH2 0x15B8 JUMP JUMPDEST PUSH1 0x0 PUSH1 0xA0 DUP3 ADD MSTORE JUMPDEST PUSH1 0x4 PUSH1 0xFF AND DUP2 PUSH1 0xA0 ADD MLOAD PUSH1 0xFF AND LT ISZERO PUSH2 0x1A97 JUMPI PUSH1 0x0 DUP4 DUP3 PUSH1 0xA0 ADD MLOAD PUSH1 0xFF AND DUP2 MLOAD DUP2 LT PUSH2 0x1875 JUMPI PUSH4 0x4E487B71 PUSH1 0xE0 SHL PUSH1 0x0 MSTORE PUSH1 0x32 PUSH1 0x4 MSTORE PUSH1 0x24 PUSH1 0x0 REVERT JUMPDEST PUSH1 0x20 MUL PUSH1 0x20 ADD ADD MLOAD PUSH1 0x3 SIGNEXTEND SGT ISZERO PUSH2 0x1A7C JUMPI PUSH2 0x1897 DUP13 DUP3 PUSH1 0xA0 ADD MLOAD DUP8 DUP10 DUP9 PUSH2 0x1B8F JUMP JUMPDEST PUSH1 0xFF AND PUSH1 0xE0 DUP4 ADD MSTORE ISZERO DUP1 ISZERO PUSH1 0xC0 DUP4 ADD MSTORE PUSH2 0x1970 JUMPI PUSH1 0x0 PUSH2 0x18E3 DUP4 DUP15 DUP5 PUSH1 0xA0 ADD MLOAD DUP6 PUSH1 0xE0 ADD MLOAD DUP9 DUP8 PUSH1 0xA0 ADD MLOAD PUSH1 0xFF AND DUP2 MLOAD DUP2 LT PUSH2 0x1662 JUMPI PUSH4 0x4E487B71 PUSH1 0xE0 SHL PUSH1 0x0 MSTORE PUSH1 0x32 PUSH1 0x4 MSTORE PUSH1 0x24 PUSH1 0x0 REVERT JUMPDEST SWAP1 POP DUP1 DUP6 DUP4 PUSH1 0xE0 ADD MLOAD PUSH1 0xFF AND DUP2 MLOAD DUP2 LT PUSH2 0x190D JUMPI PUSH4 0x4E487B71 PUSH1 0xE0 SHL PUSH1 0x0 MSTORE PUSH1 0x32 PUSH1 0x4 MSTORE PUSH1 0x24 PUSH1 0x0 REVERT JUMPDEST PUSH1 0x20 MUL PUSH1 0x20 ADD ADD DUP2 DUP2 MLOAD PUSH2 0x1921 SWAP2 SWAP1 PUSH2 0x2B26 JUMP JUMPDEST PUSH1 0x3 SWAP1 DUP2 SIGNEXTEND SWAP1 SIGNEXTEND SWAP1 MSTORE POP DUP14 ISZERO PUSH2 0x196A JUMPI PUSH1 0x40 DUP3 ADD DUP1 MLOAD PUSH2 0x196A SWAP2 PUSH2 0x1944 DUP3 PUSH2 0x2C5A JUMP JUMPDEST PUSH1 0xFF AND PUSH1 0xFF AND DUP2 MSTORE POP PUSH1 0xFF AND DUP4 PUSH1 0x0 ADD MLOAD DUP5 PUSH1 0x80 ADD MLOAD DUP6 PUSH1 0xA0 ADD MLOAD DUP7 PUSH1 0xE0 ADD MLOAD DUP7 PUSH2 0x1E4C JUMP JUMPDEST POP PUSH2 0x1A7C JUMP JUMPDEST PUSH2 0x19E6 DUP13 DUP3 PUSH1 0xA0 ADD MLOAD PUSH1 0xFF AND DUP2 MLOAD DUP2 LT PUSH2 0x199A JUMPI PUSH4 0x4E487B71 PUSH1 0xE0 SHL PUSH1 0x0 MSTORE PUSH1 0x32 PUSH1 0x4 MSTORE PUSH1 0x24 PUSH1 0x0 REVERT JUMPDEST PUSH1 0x20 MUL PUSH1 0x20 ADD ADD MLOAD PUSH1 0x80 ADD MLOAD DUP7 DUP4 PUSH1 0xA0 ADD MLOAD PUSH1 0xFF AND DUP2 MLOAD DUP2 LT PUSH2 0x19CD JUMPI PUSH4 0x4E487B71 PUSH1 0xE0 SHL PUSH1 0x0 MSTORE PUSH1 0x32 PUSH1 0x4 MSTORE PUSH1 0x24 PUSH1 0x0 REVERT JUMPDEST PUSH1 0x20 MUL PUSH1 0x20 ADD ADD MLOAD PUSH2 0x19DF SWAP2 SWAP1 PUSH2 0x293C JUMP JUMPDEST PUSH1 0xD PUSH2 0x1F53 JUMP JUMPDEST DUP6 DUP3 PUSH1 0xA0 ADD MLOAD PUSH1 0xFF AND DUP2 MLOAD DUP2 LT PUSH2 0x1A0D JUMPI PUSH4 0x4E487B71 PUSH1 0xE0 SHL PUSH1 0x0 MSTORE PUSH1 0x32 PUSH1 0x4 MSTORE PUSH1 0x24 PUSH1 0x0 REVERT JUMPDEST PUSH1 0x20 MUL PUSH1 0x20 ADD ADD SWAP1 PUSH1 0x0 SIGNEXTEND SWAP1 DUP2 PUSH1 0x0 SIGNEXTEND DUP2 MSTORE POP POP DUP13 ISZERO PUSH2 0x1A7C JUMPI PUSH1 0x40 DUP2 ADD DUP1 MLOAD PUSH2 0x1A7C SWAP2 PUSH2 0x1A3A DUP3 PUSH2 0x2C5A JUMP JUMPDEST PUSH1 0xFF AND PUSH1 0xFF AND DUP2 MSTORE POP PUSH1 0xFF AND DUP3 PUSH1 0x0 ADD MLOAD DUP4 PUSH1 0x80 ADD MLOAD DUP5 PUSH1 0xA0 ADD MLOAD DUP10 DUP7 PUSH1 0xA0 ADD MLOAD PUSH1 0xFF AND DUP2 MLOAD DUP2 LT PUSH2 0x1809 JUMPI PUSH4 0x4E487B71 PUSH1 0xE0 SHL PUSH1 0x0 MSTORE PUSH1 0x32 PUSH1 0x4 MSTORE PUSH1 0x24 PUSH1 0x0 REVERT JUMPDEST PUSH1 0xA0 DUP2 ADD DUP1 MLOAD SWAP1 PUSH2 0x1A8C DUP3 PUSH2 0x2C5A JUMP JUMPDEST PUSH1 0xFF AND SWAP1 MSTORE POP PUSH2 0x1839 JUMP JUMPDEST DUP1 MLOAD DUP2 PUSH2 0x1AA3 DUP3 PUSH2 0x2C5A JUMP JUMPDEST PUSH1 0xFF AND SWAP1 MSTORE POP PUSH2 0x157D JUMP JUMPDEST PUSH1 0x40 MLOAD DUP1 PUSH2 0x140 ADD PUSH1 0x40 MSTORE DUP1 DUP13 DUP2 MSTORE PUSH1 0x20 ADD DUP12 DUP2 MSTORE PUSH1 0x20 ADD DUP11 PUSH1 0xFF AND DUP2 MSTORE PUSH1 0x20 ADD DUP10 PUSH1 0xFF AND DUP2 MSTORE PUSH1 0x20 ADD DUP3 PUSH1 0x60 ADD MLOAD DUP2 MSTORE PUSH1 0x20 ADD DUP3 PUSH1 0x80 ADD MLOAD DUP2 MSTORE PUSH1 0x20 ADD PUSH2 0x1AF5 DUP7 PUSH2 0x1B2D JUMP JUMPDEST ISZERO ISZERO DUP2 MSTORE PUSH1 0x20 ADD PUSH2 0x1B05 DUP6 PUSH2 0x1B2D JUMP JUMPDEST ISZERO ISZERO DUP2 MSTORE SWAP2 MLOAD PUSH1 0xFF AND PUSH1 0x20 DUP4 ADD MSTORE PUSH1 0x40 SWAP1 SWAP2 ADD DUP15 SWAP1 MSTORE SWAP6 POP POP POP POP POP POP SWAP8 SWAP7 POP POP POP POP POP POP POP JUMP JUMPDEST PUSH1 0x0 PUSH1 0x1 DUP2 JUMPDEST PUSH1 0x4 DUP2 LT ISZERO PUSH2 0x1B86 JUMPI PUSH1 0x0 DUP5 DUP3 DUP2 MLOAD DUP2 LT PUSH2 0x1B5E JUMPI PUSH4 0x4E487B71 PUSH1 0xE0 SHL PUSH1 0x0 MSTORE PUSH1 0x32 PUSH1 0x4 MSTORE PUSH1 0x24 PUSH1 0x0 REVERT JUMPDEST PUSH1 0x20 MUL PUSH1 0x20 ADD ADD MLOAD PUSH1 0x3 SIGNEXTEND SGT ISZERO PUSH2 0x1B74 JUMPI PUSH1 0x0 SWAP2 POP JUMPDEST DUP1 PUSH2 0x1B7E DUP2 PUSH2 0x2C25 JUMP JUMPDEST SWAP2 POP POP PUSH2 0x1B33 JUMP JUMPDEST POP SWAP1 POP JUMPDEST SWAP2 SWAP1 POP JUMP JUMPDEST PUSH1 0x0 DUP1 PUSH1 0x0 DUP6 DUP8 PUSH1 0xFF AND DUP2 MLOAD DUP2 LT PUSH2 0x1BB7 JUMPI PUSH4 0x4E487B71 PUSH1 0xE0 SHL PUSH1 0x0 MSTORE PUSH1 0x32 PUSH1 0x4 MSTORE PUSH1 0x24 PUSH1 0x0 REVERT JUMPDEST PUSH1 0x20 MUL PUSH1 0x20 ADD ADD MLOAD PUSH1 0x0 SIGNEXTEND SWAP1 POP PUSH1 0x0 PUSH1 0x4 SWAP1 POP PUSH1 0x0 PUSH1 0x1 PUSH1 0x4 PUSH2 0x1BDA SWAP2 SWAP1 PUSH2 0x2BBF JUMP JUMPDEST SWAP1 POP JUMPDEST PUSH1 0x0 DUP2 PUSH1 0x0 SIGNEXTEND SLT PUSH2 0x1CC7 JUMPI PUSH1 0x0 DUP2 SWAP1 POP PUSH1 0x0 PUSH2 0x1C30 DUP10 DUP4 PUSH1 0xFF AND DUP2 MLOAD DUP2 LT PUSH2 0x1C15 JUMPI PUSH4 0x4E487B71 PUSH1 0xE0 SHL PUSH1 0x0 MSTORE PUSH1 0x32 PUSH1 0x4 MSTORE PUSH1 0x24 PUSH1 0x0 REVERT JUMPDEST PUSH1 0x20 MUL PUSH1 0x20 ADD ADD MLOAD PUSH1 0x0 SIGNEXTEND DUP7 PUSH2 0x1C2B SWAP2 SWAP1 PUSH2 0x2AE1 JUMP JUMPDEST PUSH2 0x1F68 JUMP JUMPDEST SWAP1 POP DUP12 DUP12 PUSH1 0xFF AND DUP2 MLOAD DUP2 LT PUSH2 0x1C55 JUMPI PUSH4 0x4E487B71 PUSH1 0xE0 SHL PUSH1 0x0 MSTORE PUSH1 0x32 PUSH1 0x4 MSTORE PUSH1 0x24 PUSH1 0x0 REVERT JUMPDEST PUSH1 0x20 MUL PUSH1 0x20 ADD ADD MLOAD PUSH1 0xA0 ADD MLOAD PUSH2 0xFFFF AND DUP2 PUSH2 0xFFFF AND GT ISZERO DUP1 ISZERO PUSH2 0x1CA5 JUMPI POP PUSH1 0x0 DUP9 DUP4 PUSH1 0xFF AND DUP2 MLOAD DUP2 LT PUSH2 0x1C98 JUMPI PUSH4 0x4E487B71 PUSH1 0xE0 SHL PUSH1 0x0 MSTORE PUSH1 0x32 PUSH1 0x4 MSTORE PUSH1 0x24 PUSH1 0x0 REVERT JUMPDEST PUSH1 0x20 MUL PUSH1 0x20 ADD ADD MLOAD PUSH1 0x3 SIGNEXTEND SGT JUMPDEST ISZERO PUSH2 0x1CB2 JUMPI POP SWAP2 POP PUSH2 0x1CC7 JUMP JUMPDEST POP POP DUP1 DUP1 PUSH2 0x1CBF SWAP1 PUSH2 0x2BE2 JUMP JUMPDEST SWAP2 POP POP PUSH2 0x1BDD JUMP JUMPDEST POP PUSH1 0x4 PUSH1 0xFF DUP3 AND LT SWAP10 SWAP1 SWAP9 POP SWAP7 POP POP POP POP POP POP POP JUMP JUMPDEST PUSH1 0x0 DUP1 DUP7 DUP6 PUSH1 0xFF AND DUP2 MLOAD DUP2 LT PUSH2 0x1D03 JUMPI PUSH4 0x4E487B71 PUSH1 0xE0 SHL PUSH1 0x0 MSTORE PUSH1 0x32 PUSH1 0x4 MSTORE PUSH1 0x24 PUSH1 0x0 REVERT JUMPDEST PUSH1 0x20 MUL PUSH1 0x20 ADD ADD MLOAD DUP7 DUP7 PUSH1 0xFF AND DUP2 MLOAD DUP2 LT PUSH2 0x1D2E JUMPI PUSH4 0x4E487B71 PUSH1 0xE0 SHL PUSH1 0x0 MSTORE PUSH1 0x32 PUSH1 0x4 MSTORE PUSH1 0x24 PUSH1 0x0 REVERT JUMPDEST PUSH1 0x20 MUL PUSH1 0x20 ADD ADD MLOAD PUSH1 0x40 ADD MLOAD PUSH1 0x0 ADD MLOAD PUSH2 0x1D48 SWAP2 SWAP1 PUSH2 0x297C JUMP JUMPDEST SWAP1 POP PUSH1 0x0 DUP7 DUP7 PUSH1 0xFF AND DUP2 MLOAD DUP2 LT PUSH2 0x1D6F JUMPI PUSH4 0x4E487B71 PUSH1 0xE0 SHL PUSH1 0x0 MSTORE PUSH1 0x32 PUSH1 0x4 MSTORE PUSH1 0x24 PUSH1 0x0 REVERT JUMPDEST PUSH1 0x20 MUL PUSH1 0x20 ADD ADD MLOAD PUSH1 0x20 ADD MLOAD PUSH2 0xFFFF AND DUP5 PUSH2 0x1D8A SWAP2 SWAP1 PUSH2 0x29C1 JUMP JUMPDEST PUSH2 0x1D95 SWAP1 PUSH1 0x1 PUSH2 0x29A2 JUMP JUMPDEST SWAP1 POP PUSH1 0x0 DUP8 DUP7 PUSH1 0xFF AND DUP2 MLOAD DUP2 LT PUSH2 0x1DBC JUMPI PUSH4 0x4E487B71 PUSH1 0xE0 SHL PUSH1 0x0 MSTORE PUSH1 0x32 PUSH1 0x4 MSTORE PUSH1 0x24 PUSH1 0x0 REVERT JUMPDEST PUSH1 0x20 MUL PUSH1 0x20 ADD ADD MLOAD PUSH1 0x20 ADD MLOAD DUP3 PUSH2 0x1DD3 SWAP2 SWAP1 PUSH2 0x2A6B JUMP JUMPDEST PUSH2 0xFFFF AND SWAP1 POP PUSH1 0x0 DUP3 PUSH2 0xFFFF AND DUP10 DUP9 PUSH1 0xFF AND DUP2 MLOAD DUP2 LT PUSH2 0x1E03 JUMPI PUSH4 0x4E487B71 PUSH1 0xE0 SHL PUSH1 0x0 MSTORE PUSH1 0x32 PUSH1 0x4 MSTORE PUSH1 0x24 PUSH1 0x0 REVERT JUMPDEST PUSH1 0x20 MUL PUSH1 0x20 ADD ADD MLOAD PUSH1 0x60 ADD MLOAD DUP6 PUSH2 0x1E1A SWAP2 SWAP1 PUSH2 0x2B9C JUMP JUMPDEST PUSH2 0xFFFF AND PUSH2 0x1E28 SWAP2 SWAP1 PUSH2 0x2A95 JUMP JUMPDEST SWAP1 POP PUSH2 0x1E3E PUSH2 0x1E38 PUSH1 0x0 DUP4 PUSH2 0x1F8E JUMP JUMPDEST DUP4 PUSH2 0x1FA9 JUMP JUMPDEST SWAP11 SWAP10 POP POP POP POP POP POP POP POP POP POP JUMP JUMPDEST PUSH1 0x40 MLOAD DUP1 PUSH1 0xC0 ADD PUSH1 0x40 MSTORE DUP1 PUSH1 0x1 PUSH1 0xFF AND DUP2 MSTORE PUSH1 0x20 ADD DUP7 PUSH1 0xFF AND DUP2 MSTORE PUSH1 0x20 ADD DUP5 PUSH1 0xFF AND DUP2 MSTORE PUSH1 0x20 ADD DUP4 PUSH1 0xFF AND DUP2 MSTORE PUSH1 0x20 ADD PUSH1 0x0 DUP1 SIGNEXTEND DUP2 MSTORE PUSH1 0x20 ADD DUP3 PUSH4 0xFFFFFFFF AND DUP2 MSTORE POP DUP5 DUP8 PUSH2 0xFFFF AND DUP2 MLOAD DUP2 LT PUSH2 0x1EB3 JUMPI PUSH4 0x4E487B71 PUSH1 0xE0 SHL PUSH1 0x0 MSTORE PUSH1 0x32 PUSH1 0x4 MSTORE PUSH1 0x24 PUSH1 0x0 REVERT JUMPDEST PUSH1 0x20 MUL PUSH1 0x20 ADD ADD DUP2 SWAP1 MSTORE POP POP POP POP POP POP POP JUMP JUMPDEST PUSH1 0x0 DUP2 PUSH1 0x0 SIGNEXTEND DUP4 PUSH1 0x0 SIGNEXTEND SGT PUSH2 0x1EDB JUMPI DUP2 PUSH2 0x1EDD JUMP JUMPDEST DUP3 JUMPDEST SWAP4 SWAP3 POP POP POP JUMP JUMPDEST PUSH1 0x40 DUP1 MLOAD PUSH1 0xC0 DUP2 ADD DUP3 MSTORE PUSH1 0x2 DUP2 MSTORE PUSH1 0xFF DUP7 DUP2 AND PUSH1 0x20 DUP4 ADD MSTORE DUP5 AND SWAP2 DUP2 ADD SWAP2 SWAP1 SWAP2 MSTORE PUSH1 0x0 PUSH1 0x60 DUP3 ADD DUP2 SWAP1 MSTORE DUP3 DUP2 SIGNEXTEND PUSH1 0x80 DUP4 ADD MSTORE PUSH1 0xA0 DUP3 ADD MSTORE DUP4 MLOAD DUP5 SWAP1 PUSH2 0xFFFF DUP9 AND SWAP1 DUP2 LT PUSH2 0x1F41 JUMPI PUSH4 0x4E487B71 PUSH1 0xE0 SHL PUSH1 0x0 MSTORE PUSH1 0x32 PUSH1 0x4 MSTORE PUSH1 0x24 PUSH1 0x0 REVERT JUMPDEST PUSH1 0x20 MUL PUSH1 0x20 ADD ADD DUP2 SWAP1 MSTORE POP POP POP POP POP POP JUMP JUMPDEST PUSH1 0x0 DUP2 PUSH1 0x0 SIGNEXTEND DUP4 PUSH1 0x0 SIGNEXTEND SLT PUSH2 0x1EDB JUMPI DUP2 PUSH2 0x1EDD JUMP JUMPDEST PUSH1 0x0 DUP1 DUP3 PUSH1 0x1 SIGNEXTEND SLT PUSH2 0x1F7B JUMPI POP DUP1 PUSH2 0x1B8A JUMP JUMPDEST PUSH2 0x1F87 DUP3 PUSH1 0x0 NOT PUSH2 0x29E4 JUMP JUMPDEST SWAP1 POP PUSH2 0x1B8A JUMP JUMPDEST PUSH1 0x0 DUP2 PUSH4 0xFFFFFFFF AND DUP4 PUSH4 0xFFFFFFFF AND GT PUSH2 0x1EDB JUMPI DUP2 PUSH2 0x1EDD JUMP JUMPDEST PUSH1 0x0 DUP2 PUSH4 0xFFFFFFFF AND DUP4 PUSH4 0xFFFFFFFF AND LT PUSH2 0x1EDB JUMPI DUP2 PUSH2 0x1EDD JUMP JUMPDEST PUSH1 0x40 DUP1 MLOAD PUSH2 0x140 DUP2 ADD DUP3 MSTORE PUSH1 0x60 DUP1 DUP3 MSTORE PUSH1 0x20 DUP3 ADD DUP2 SWAP1 MSTORE PUSH1 0x0 SWAP3 DUP3 ADD DUP4 SWAP1 MSTORE DUP1 DUP3 ADD DUP4 SWAP1 MSTORE PUSH1 0x80 DUP3 ADD DUP2 SWAP1 MSTORE PUSH1 0xA0 DUP3 ADD MSTORE PUSH1 0xC0 DUP2 ADD DUP3 SWAP1 MSTORE PUSH1 0xE0 DUP2 ADD DUP3 SWAP1 MSTORE PUSH2 0x100 DUP2 ADD DUP3 SWAP1 MSTORE PUSH2 0x120 DUP2 ADD SWAP2 SWAP1 SWAP2 MSTORE SWAP1 JUMP JUMPDEST PUSH1 0x40 DUP1 MLOAD PUSH1 0x80 DUP2 ADD DUP3 MSTORE PUSH1 0x0 DUP1 DUP3 MSTORE PUSH1 0x20 DUP3 ADD DUP2 SWAP1 MSTORE SWAP2 DUP2 ADD DUP3 SWAP1 MSTORE PUSH1 0x60 DUP2 ADD SWAP2 SWAP1 SWAP2 MSTORE SWAP1 JUMP JUMPDEST PUSH1 0x40 DUP1 MLOAD PUSH1 0xA0 DUP2 ADD DUP3 MSTORE PUSH1 0x0 DUP1 DUP3 MSTORE PUSH1 0x20 DUP3 ADD DUP2 SWAP1 MSTORE PUSH1 0x60 SWAP3 DUP3 ADD DUP4 SWAP1 MSTORE SWAP2 DUP2 ADD DUP3 SWAP1 MSTORE PUSH1 0x80 DUP2 ADD SWAP2 SWAP1 SWAP2 MSTORE SWAP1 JUMP JUMPDEST DUP3 DUP1 SLOAD DUP3 DUP3 SSTORE SWAP1 PUSH1 0x0 MSTORE PUSH1 0x20 PUSH1 0x0 KECCAK256 SWAP1 PUSH1 0x1F ADD PUSH1 0x20 SWAP1 DIV DUP2 ADD SWAP3 DUP3 ISZERO PUSH2 0x2103 JUMPI SWAP2 PUSH1 0x20 MUL DUP3 ADD PUSH1 0x0 JUMPDEST DUP4 DUP3 GT ISZERO PUSH2 0x20D4 JUMPI DUP4 MLOAD DUP4 DUP3 PUSH2 0x100 EXP DUP2 SLOAD DUP2 PUSH1 0xFF MUL NOT AND SWAP1 DUP4 PUSH1 0xFF AND MUL OR SWAP1 SSTORE POP SWAP3 PUSH1 0x20 ADD SWAP3 PUSH1 0x1 ADD PUSH1 0x20 DUP2 PUSH1 0x0 ADD DIV SWAP3 DUP4 ADD SWAP3 PUSH1 0x1 SUB MUL PUSH2 0x2096 JUMP JUMPDEST DUP1 ISZERO PUSH2 0x2101 JUMPI DUP3 DUP2 PUSH2 0x100 EXP DUP2 SLOAD SWAP1 PUSH1 0xFF MUL NOT AND SWAP1 SSTORE PUSH1 0x1 ADD PUSH1 0x20 DUP2 PUSH1 0x0 ADD DIV SWAP3 DUP4 ADD SWAP3 PUSH1 0x1 SUB MUL PUSH2 0x20D4 JUMP JUMPDEST POP JUMPDEST POP PUSH2 0x210F SWAP3 SWAP2 POP PUSH2 0x218B JUMP JUMPDEST POP SWAP1 JUMP JUMPDEST PUSH1 0x40 DUP1 MLOAD PUSH2 0x100 DUP2 ADD DUP3 MSTORE PUSH1 0x0 DUP1 DUP3 MSTORE PUSH1 0x20 DUP3 ADD DUP2 SWAP1 MSTORE SWAP2 DUP2 ADD DUP3 SWAP1 MSTORE PUSH1 0x60 DUP1 DUP3 ADD DUP2 SWAP1 MSTORE PUSH1 0x80 DUP3 ADD MSTORE PUSH1 0xA0 DUP2 ADD DUP3 SWAP1 MSTORE PUSH1 0xC0 DUP2 ADD DUP3 SWAP1 MSTORE PUSH1 0xE0 DUP2 ADD SWAP2 SWAP1 SWAP2 MSTORE SWAP1 JUMP JUMPDEST PUSH1 0x40 DUP1 MLOAD PUSH1 0xC0 DUP2 ADD DUP3 MSTORE PUSH1 0x0 DUP1 DUP3 MSTORE PUSH1 0x20 DUP3 ADD DUP2 SWAP1 MSTORE SWAP2 DUP2 ADD DUP3 SWAP1 MSTORE PUSH1 0x60 DUP2 ADD DUP3 SWAP1 MSTORE PUSH1 0x80 DUP2 ADD DUP3 SWAP1 MSTORE PUSH1 0xA0 DUP2 ADD SWAP2 SWAP1 SWAP2 MSTORE SWAP1 JUMP JUMPDEST JUMPDEST DUP1 DUP3 GT ISZERO PUSH2 0x210F JUMPI PUSH1 0x0 DUP2 SSTORE PUSH1 0x1 ADD PUSH2 0x218C JUMP JUMPDEST PUSH1 0x0 DUP3 PUSH1 0x1F DUP4 ADD SLT PUSH2 0x21B0 JUMPI DUP1 DUP2 REVERT JUMPDEST DUP2 CALLDATALOAD PUSH1 0x20 PUSH8 0xFFFFFFFFFFFFFFFF DUP1 DUP4 GT ISZERO PUSH2 0x21CD JUMPI PUSH2 0x21CD PUSH2 0x2CBA JUMP JUMPDEST DUP2 DUP4 MUL PUSH1 0x40 MLOAD PUSH1 0x1F NOT PUSH1 0x3F DUP4 ADD AND DUP2 ADD DUP2 DUP2 LT DUP5 DUP3 GT OR ISZERO PUSH2 0x21F1 JUMPI PUSH2 0x21F1 PUSH2 0x2CBA JUMP JUMPDEST PUSH1 0x40 MSTORE DUP5 DUP2 MSTORE DUP4 DUP2 ADD SWAP3 POP DUP7 DUP5 ADD DUP3 DUP9 ADD DUP6 ADD DUP10 LT ISZERO PUSH2 0x220F JUMPI DUP7 DUP8 REVERT JUMPDEST DUP7 SWAP3 POP JUMPDEST DUP6 DUP4 LT ISZERO PUSH2 0x2238 JUMPI PUSH2 0x2224 DUP2 PUSH2 0x2256 JUMP JUMPDEST DUP5 MSTORE SWAP3 DUP5 ADD SWAP3 PUSH1 0x1 SWAP3 SWAP1 SWAP3 ADD SWAP2 DUP5 ADD PUSH2 0x2213 JUMP JUMPDEST POP SWAP8 SWAP7 POP POP POP POP POP POP POP JUMP JUMPDEST DUP1 CALLDATALOAD PUSH2 0xFFFF DUP2 AND DUP2 EQ PUSH2 0x1B8A JUMPI PUSH1 0x0 DUP1 REVERT JUMPDEST DUP1 CALLDATALOAD PUSH1 0xFF DUP2 AND DUP2 EQ PUSH2 0x1B8A JUMPI PUSH1 0x0 DUP1 REVERT JUMPDEST PUSH1 0x0 DUP1 PUSH1 0x0 PUSH1 0x60 DUP5 DUP7 SUB SLT ISZERO PUSH2 0x227B JUMPI DUP3 DUP4 REVERT JUMPDEST DUP4 CALLDATALOAD PUSH1 0x1 PUSH1 0x1 PUSH1 0xA0 SHL SUB DUP2 AND DUP2 EQ PUSH2 0x2291 JUMPI DUP4 DUP5 REVERT JUMPDEST SWAP3 POP PUSH1 0x20 DUP5 ADD CALLDATALOAD PUSH8 0xFFFFFFFFFFFFFFFF DUP2 GT ISZERO PUSH2 0x22AC JUMPI DUP3 DUP4 REVERT JUMPDEST PUSH2 0x22B8 DUP7 DUP3 DUP8 ADD PUSH2 0x21A0 JUMP JUMPDEST SWAP3 POP POP PUSH2 0x22C7 PUSH1 0x40 DUP6 ADD PUSH2 0x2256 JUMP JUMPDEST SWAP1 POP SWAP3 POP SWAP3 POP SWAP3 JUMP JUMPDEST PUSH1 0x0 DUP1 PUSH1 0x0 PUSH1 0x60 DUP5 DUP7 SUB SLT ISZERO PUSH2 0x22E4 JUMPI DUP3 DUP4 REVERT JUMPDEST DUP4 CALLDATALOAD PUSH8 0xFFFFFFFFFFFFFFFF DUP2 GT ISZERO PUSH2 0x22FA JUMPI DUP4 DUP5 REVERT JUMPDEST PUSH2 0x2306 DUP7 DUP3 DUP8 ADD PUSH2 0x21A0 JUMP JUMPDEST SWAP4 POP POP PUSH2 0x2315 PUSH1 0x20 DUP6 ADD PUSH2 0x2256 JUMP JUMPDEST SWAP2 POP PUSH1 0x40 DUP5 ADD CALLDATALOAD SWAP1 POP SWAP3 POP SWAP3 POP SWAP3 JUMP JUMPDEST PUSH1 0x0 DUP1 PUSH1 0x0 DUP1 PUSH1 0x0 DUP1 PUSH1 0x0 DUP1 PUSH2 0x100 DUP10 DUP12 SUB SLT ISZERO PUSH2 0x2341 JUMPI DUP4 DUP5 REVERT JUMPDEST PUSH2 0x234A DUP10 PUSH2 0x2244 JUMP JUMPDEST SWAP8 POP PUSH2 0x2358 PUSH1 0x20 DUP11 ADD PUSH2 0x2244 JUMP JUMPDEST SWAP7 POP PUSH2 0x2366 PUSH1 0x40 DUP11 ADD PUSH2 0x2244 JUMP JUMPDEST SWAP6 POP PUSH2 0x2374 PUSH1 0x60 DUP11 ADD PUSH2 0x2244 JUMP JUMPDEST SWAP5 POP PUSH2 0x2382 PUSH1 0x80 DUP11 ADD PUSH2 0x2244 JUMP JUMPDEST SWAP4 POP PUSH2 0x2390 PUSH1 0xA0 DUP11 ADD PUSH2 0x2244 JUMP JUMPDEST SWAP3 POP PUSH2 0x239E PUSH1 0xC0 DUP11 ADD PUSH2 0x2244 JUMP JUMPDEST SWAP2 POP PUSH2 0x23AC PUSH1 0xE0 DUP11 ADD PUSH2 0x2244 JUMP JUMPDEST SWAP1 POP SWAP3 SWAP6 SWAP9 POP SWAP3 SWAP6 SWAP9 SWAP1 SWAP4 SWAP7 POP JUMP JUMPDEST PUSH1 0x0 DUP1 PUSH1 0x0 DUP1 PUSH1 0x0 PUSH1 0xA0 DUP7 DUP9 SUB SLT ISZERO PUSH2 0x23D2 JUMPI DUP1 DUP2 REVERT JUMPDEST DUP6 CALLDATALOAD SWAP5 POP PUSH1 0x20 DUP7 ADD CALLDATALOAD PUSH8 0xFFFFFFFFFFFFFFFF DUP1 DUP3 GT ISZERO PUSH2 0x23F0 JUMPI DUP3 DUP4 REVERT JUMPDEST PUSH2 0x23FC DUP10 DUP4 DUP11 ADD PUSH2 0x21A0 JUMP JUMPDEST SWAP6 POP PUSH1 0x40 DUP9 ADD CALLDATALOAD SWAP2 POP DUP1 DUP3 GT ISZERO PUSH2 0x2411 JUMPI DUP3 DUP4 REVERT JUMPDEST POP PUSH2 0x241E DUP9 DUP3 DUP10 ADD PUSH2 0x21A0 JUMP JUMPDEST SWAP4 POP POP PUSH2 0x242D PUSH1 0x60 DUP8 ADD PUSH2 0x2256 JUMP JUMPDEST SWAP2 POP PUSH2 0x243B PUSH1 0x80 DUP8 ADD PUSH2 0x2256 JUMP JUMPDEST SWAP1 POP SWAP3 SWAP6 POP SWAP3 SWAP6 SWAP1 SWAP4 POP JUMP JUMPDEST PUSH1 0x0 DUP2 MLOAD DUP1 DUP5 MSTORE PUSH1 0x20 DUP1 DUP6 ADD SWAP5 POP DUP1 DUP5 ADD DUP4 JUMPDEST DUP4 DUP2 LT ISZERO PUSH2 0x24BE JUMPI DUP2 MLOAD DUP1 MLOAD PUSH1 0xFF SWAP1 DUP2 AND DUP10 MSTORE DUP5 DUP3 ADD MLOAD DUP2 AND DUP6 DUP11 ADD MSTORE PUSH1 0x40 DUP1 DUP4 ADD MLOAD DUP3 AND SWAP1 DUP11 ADD MSTORE PUSH1 0x60 DUP1 DUP4 ADD MLOAD SWAP1 SWAP2 AND SWAP1 DUP10 ADD MSTORE PUSH1 0x80 DUP1 DUP3 ADD MLOAD DUP8 SIGNEXTEND SWAP1 DUP10 ADD MSTORE PUSH1 0xA0 SWAP1 DUP2 ADD MLOAD PUSH4 0xFFFFFFFF AND SWAP1 DUP9 ADD MSTORE PUSH1 0xC0 SWAP1 SWAP7 ADD SWAP6 SWAP1 DUP3 ADD SWAP1 PUSH1 0x1 ADD PUSH2 0x245A JUMP JUMPDEST POP SWAP5 SWAP6 SWAP5 POP POP POP POP POP JUMP JUMPDEST PUSH1 0x0 DUP2 MLOAD DUP1 DUP5 MSTORE PUSH1 0x20 DUP1 DUP6 ADD SWAP5 POP DUP1 DUP5 ADD DUP4 JUMPDEST DUP4 DUP2 LT ISZERO PUSH2 0x24BE JUMPI DUP2 MLOAD PUSH1 0xFF AND DUP8 MSTORE SWAP6 DUP3 ADD SWAP6 SWAP1 DUP3 ADD SWAP1 PUSH1 0x1 ADD PUSH2 0x24DC JUMP JUMPDEST ISZERO ISZERO SWAP1 MSTORE JUMP JUMPDEST PUSH1 0x0 PUSH1 0x1 PUSH1 0x1 PUSH1 0xA0 SHL SUB DUP3 MLOAD AND DUP4 MSTORE PUSH1 0x20 DUP3 ADD MLOAD ISZERO ISZERO PUSH1 0x20 DUP5 ADD MSTORE PUSH1 0x40 DUP3 ADD MLOAD PUSH1 0xA0 PUSH1 0x40 DUP6 ADD MSTORE PUSH2 0x2535 PUSH1 0xA0 DUP6 ADD DUP3 PUSH2 0x24C9 JUMP JUMPDEST SWAP1 POP PUSH1 0xFF PUSH1 0x60 DUP5 ADD MLOAD AND PUSH1 0x60 DUP6 ADD MSTORE PUSH1 0x80 DUP4 ADD MLOAD PUSH1 0x80 DUP6 ADD MSTORE DUP1 SWAP2 POP POP SWAP3 SWAP2 POP POP JUMP JUMPDEST PUSH2 0xFFFF AND SWAP1 MSTORE JUMP JUMPDEST PUSH1 0xFF AND SWAP1 MSTORE JUMP JUMPDEST PUSH1 0x1 PUSH1 0x1 PUSH1 0xA0 SHL SUB SWAP2 SWAP1 SWAP2 AND DUP2 MSTORE PUSH1 0x20 ADD SWAP1 JUMP JUMPDEST PUSH1 0x20 DUP1 DUP3 MSTORE DUP3 MLOAD DUP3 DUP3 ADD DUP2 SWAP1 MSTORE PUSH1 0x0 SWAP2 SWAP1 PUSH1 0x40 SWAP1 DUP2 DUP6 ADD SWAP1 DUP7 DUP5 ADD DUP6 JUMPDEST DUP3 DUP2 LT ISZERO PUSH2 0x25E4 JUMPI DUP2 MLOAD DUP1 MLOAD PUSH1 0x1 PUSH1 0x1 PUSH1 0xA0 SHL SUB AND DUP6 MSTORE DUP7 DUP2 ADD MLOAD DUP8 DUP7 ADD MSTORE DUP6 DUP2 ADD MLOAD PUSH4 0xFFFFFFFF SWAP1 DUP2 AND DUP8 DUP8 ADD MSTORE PUSH1 0x60 SWAP2 DUP3 ADD MLOAD AND SWAP1 DUP6 ADD MSTORE PUSH1 0x80 SWAP1 SWAP4 ADD SWAP3 SWAP1 DUP6 ADD SWAP1 PUSH1 0x1 ADD PUSH2 0x2598 JUMP JUMPDEST POP SWAP2 SWAP8 SWAP7 POP POP POP POP POP POP POP JUMP JUMPDEST PUSH1 0x0 PUSH1 0x20 DUP1 DUP4 ADD DUP2 DUP5 MSTORE DUP1 DUP6 MLOAD DUP1 DUP4 MSTORE PUSH1 0x40 DUP7 ADD SWAP2 POP PUSH1 0x40 DUP5 DUP3 MUL DUP8 ADD ADD SWAP3 POP DUP4 DUP8 ADD DUP6 JUMPDEST DUP3 DUP2 LT ISZERO PUSH2 0x2644 JUMPI PUSH1 0x3F NOT DUP9 DUP7 SUB ADD DUP5 MSTORE PUSH2 0x2632 DUP6 DUP4 MLOAD PUSH2 0x2501 JUMP JUMPDEST SWAP5 POP SWAP3 DUP6 ADD SWAP3 SWAP1 DUP6 ADD SWAP1 PUSH1 0x1 ADD PUSH2 0x2616 JUMP JUMPDEST POP SWAP3 SWAP8 SWAP7 POP POP POP POP POP POP POP JUMP JUMPDEST PUSH1 0x20 DUP1 DUP3 MSTORE DUP3 MLOAD DUP3 DUP3 ADD DUP2 SWAP1 MSTORE PUSH1 0x0 SWAP2 SWAP1 PUSH1 0x40 SWAP1 DUP2 DUP6 ADD SWAP1 DUP7 DUP5 ADD DUP6 JUMPDEST DUP3 DUP2 LT ISZERO PUSH2 0x25E4 JUMPI DUP2 MLOAD DUP1 MLOAD PUSH2 0xFFFF SWAP1 DUP2 AND DUP7 MSTORE DUP8 DUP3 ADD MLOAD DUP2 AND DUP9 DUP8 ADD MSTORE DUP7 DUP3 ADD MLOAD DUP1 MLOAD DUP3 AND DUP9 DUP9 ADD MSTORE DUP9 ADD MLOAD DUP2 AND PUSH1 0x60 DUP1 DUP9 ADD SWAP2 SWAP1 SWAP2 MSTORE DUP3 ADD MLOAD AND PUSH1 0x80 DUP1 DUP8 ADD SWAP2 SWAP1 SWAP2 MSTORE DUP2 ADD MLOAD PUSH1 0xA0 PUSH2 0x26C4 DUP2 DUP9 ADD DUP4 PUSH2 0x2558 JUMP JUMPDEST SWAP2 SWAP1 SWAP2 ADD MLOAD SWAP1 POP PUSH2 0x26D8 PUSH1 0xC0 DUP7 ADD DUP3 PUSH2 0x2558 JUMP JUMPDEST POP PUSH1 0xE0 SWAP4 SWAP1 SWAP4 ADD SWAP3 SWAP1 DUP6 ADD SWAP1 PUSH1 0x1 ADD PUSH2 0x266E JUMP JUMPDEST PUSH1 0x20 DUP1 DUP3 MSTORE PUSH1 0x22 SWAP1 DUP3 ADD MSTORE PUSH32 0x53656C656374696F6E206E6565647320746F2068617665203420656C656D656E PUSH1 0x40 DUP3 ADD MSTORE PUSH32 0x7473000000000000000000000000000000000000000000000000000000000000 PUSH1 0x60 DUP3 ADD MSTORE PUSH1 0x80 ADD SWAP1 JUMP JUMPDEST PUSH1 0x20 DUP1 DUP3 MSTORE PUSH1 0x24 SWAP1 DUP3 ADD MSTORE PUSH32 0x43616E206F6E6C792061747461636B2061207265676973746572656420646566 PUSH1 0x40 DUP3 ADD MSTORE PUSH32 0x656E636500000000000000000000000000000000000000000000000000000000 PUSH1 0x60 DUP3 ADD MSTORE PUSH1 0x80 ADD SWAP1 JUMP JUMPDEST PUSH1 0x20 DUP1 DUP3 MSTORE PUSH1 0x16 SWAP1 DUP3 ADD MSTORE PUSH32 0x446566656E6365206E6F74207265676973746572656400000000000000000000 PUSH1 0x40 DUP3 ADD MSTORE PUSH1 0x60 ADD SWAP1 JUMP JUMPDEST PUSH1 0x20 DUP1 DUP3 MSTORE PUSH1 0x33 SWAP1 DUP3 ADD MSTORE PUSH32 0x546869732066756E6374696F6E206973207265737472696374656420746F2074 PUSH1 0x40 DUP3 ADD MSTORE PUSH32 0x686520636F6E74726163742773206F776E657200000000000000000000000000 PUSH1 0x60 DUP3 ADD MSTORE PUSH1 0x80 ADD SWAP1 JUMP JUMPDEST PUSH1 0x0 PUSH1 0x20 DUP3 MSTORE DUP3 MLOAD PUSH2 0x140 DUP1 PUSH1 0x20 DUP6 ADD MSTORE PUSH2 0x2859 PUSH2 0x160 DUP6 ADD DUP4 PUSH2 0x24C9 JUMP JUMPDEST SWAP2 POP PUSH1 0x20 DUP6 ADD MLOAD PUSH1 0x1F NOT DUP1 DUP7 DUP6 SUB ADD PUSH1 0x40 DUP8 ADD MSTORE PUSH2 0x2877 DUP5 DUP4 PUSH2 0x24C9 JUMP JUMPDEST SWAP4 POP PUSH1 0x40 DUP8 ADD MLOAD SWAP2 POP PUSH2 0x288D PUSH1 0x60 DUP8 ADD DUP4 PUSH2 0x2560 JUMP JUMPDEST PUSH1 0x60 DUP8 ADD MLOAD SWAP2 POP PUSH2 0x28A1 PUSH1 0x80 DUP8 ADD DUP4 PUSH2 0x2560 JUMP JUMPDEST PUSH1 0x80 DUP8 ADD MLOAD SWAP2 POP DUP1 DUP7 DUP6 SUB ADD PUSH1 0xA0 DUP8 ADD MSTORE PUSH2 0x28BC DUP5 DUP4 PUSH2 0x2447 JUMP JUMPDEST SWAP4 POP PUSH1 0xA0 DUP8 ADD MLOAD SWAP2 POP DUP1 DUP7 DUP6 SUB ADD PUSH1 0xC0 DUP8 ADD MSTORE POP PUSH2 0x28DA DUP4 DUP3 PUSH2 0x2447 JUMP JUMPDEST SWAP3 POP POP PUSH1 0xC0 DUP6 ADD MLOAD PUSH2 0x28EF PUSH1 0xE0 DUP7 ADD DUP3 PUSH2 0x24FB JUMP JUMPDEST POP PUSH1 0xE0 DUP6 ADD MLOAD PUSH2 0x100 PUSH2 0x2904 DUP2 DUP8 ADD DUP4 PUSH2 0x24FB JUMP JUMPDEST DUP7 ADD MLOAD SWAP1 POP PUSH2 0x120 PUSH2 0x2918 DUP7 DUP3 ADD DUP4 PUSH2 0x2560 JUMP JUMPDEST SWAP6 SWAP1 SWAP6 ADD MLOAD SWAP4 ADD SWAP3 SWAP1 SWAP3 MSTORE POP SWAP2 SWAP1 POP JUMP JUMPDEST PUSH1 0x0 PUSH1 0x20 DUP3 MSTORE PUSH2 0x1EDD PUSH1 0x20 DUP4 ADD DUP5 PUSH2 0x2501 JUMP JUMPDEST PUSH1 0x0 DUP2 DUP2 SIGNEXTEND DUP4 DUP3 SIGNEXTEND DUP3 DUP3 SLT DUP3 PUSH1 0x7F SUB DUP3 SGT DUP2 ISZERO AND ISZERO PUSH2 0x295D JUMPI PUSH2 0x295D PUSH2 0x2C8E JUMP JUMPDEST DUP3 PUSH1 0x7F NOT SUB DUP3 SLT DUP2 AND ISZERO PUSH2 0x2973 JUMPI PUSH2 0x2973 PUSH2 0x2C8E JUMP JUMPDEST POP ADD SWAP4 SWAP3 POP POP POP JUMP JUMPDEST PUSH1 0x0 PUSH2 0xFFFF DUP1 DUP4 AND DUP2 DUP6 AND DUP1 DUP4 SUB DUP3 GT ISZERO PUSH2 0x2999 JUMPI PUSH2 0x2999 PUSH2 0x2C8E JUMP JUMPDEST ADD SWAP5 SWAP4 POP POP POP POP JUMP JUMPDEST PUSH1 0x0 PUSH4 0xFFFFFFFF DUP1 DUP4 AND DUP2 DUP6 AND DUP1 DUP4 SUB DUP3 GT ISZERO PUSH2 0x2999 JUMPI PUSH2 0x2999 PUSH2 0x2C8E JUMP JUMPDEST PUSH1 0x0 PUSH4 0xFFFFFFFF DUP1 DUP5 AND DUP1 PUSH2 0x29D8 JUMPI PUSH2 0x29D8 PUSH2 0x2CA4 JUMP JUMPDEST SWAP3 AND SWAP2 SWAP1 SWAP2 DIV SWAP3 SWAP2 POP POP JUMP JUMPDEST PUSH1 0x0 DUP2 PUSH1 0x1 SIGNEXTEND DUP4 PUSH1 0x1 SIGNEXTEND PUSH2 0x7FFF DUP4 DUP3 SGT DUP5 DUP5 SGT DUP4 DUP4 DIV DUP6 GT DUP3 DUP3 AND AND ISZERO PUSH2 0x2A0D JUMPI PUSH2 0x2A0D PUSH2 0x2C8E JUMP JUMPDEST PUSH2 0x7FFF NOT DUP7 DUP6 SLT DUP3 DUP2 AND DUP8 DUP4 SDIV DUP8 SLT AND ISZERO PUSH2 0x2A2A JUMPI PUSH2 0x2A2A PUSH2 0x2C8E JUMP JUMPDEST DUP8 DUP8 SLT SWAP3 POP DUP6 DUP3 SDIV DUP8 SLT DUP5 DUP5 AND AND ISZERO PUSH2 0x2A45 JUMPI PUSH2 0x2A45 PUSH2 0x2C8E JUMP JUMPDEST DUP6 DUP6 SDIV DUP8 SLT DUP2 DUP5 AND AND ISZERO PUSH2 0x2A5B JUMPI PUSH2 0x2A5B PUSH2 0x2C8E JUMP JUMPDEST POP POP POP SWAP3 SWAP1 SWAP2 MUL SWAP6 SWAP5 POP POP POP POP POP JUMP JUMPDEST PUSH1 0x0 PUSH2 0xFFFF DUP1 DUP4 AND DUP2 DUP6 AND DUP2 DUP4 DIV DUP2 GT DUP3 ISZERO ISZERO AND ISZERO PUSH2 0x2A8C JUMPI PUSH2 0x2A8C PUSH2 0x2C8E JUMP JUMPDEST MUL SWAP5 SWAP4 POP POP POP POP JUMP JUMPDEST PUSH1 0x0 PUSH4 0xFFFFFFFF DUP1 DUP4 AND DUP2 DUP6 AND DUP2 DUP4 DIV DUP2 GT DUP3 ISZERO ISZERO AND ISZERO PUSH2 0x2A8C JUMPI PUSH2 0x2A8C PUSH2 0x2C8E JUMP JUMPDEST PUSH1 0x0 PUSH1 0xFF DUP3 AND PUSH1 0xFF DUP5 AND DUP2 PUSH1 0xFF DIV DUP2 GT DUP3 ISZERO ISZERO AND ISZERO PUSH2 0x2AD9 JUMPI PUSH2 0x2AD9 PUSH2 0x2C8E JUMP JUMPDEST MUL SWAP4 SWAP3 POP POP POP JUMP JUMPDEST PUSH1 0x0 DUP2 PUSH1 0x1 SIGNEXTEND DUP4 PUSH1 0x1 SIGNEXTEND DUP3 DUP2 SLT DUP2 PUSH2 0x7FFF NOT ADD DUP4 SLT DUP2 ISZERO AND ISZERO PUSH2 0x2B06 JUMPI PUSH2 0x2B06 PUSH2 0x2C8E JUMP JUMPDEST DUP2 PUSH2 0x7FFF ADD DUP4 SGT DUP2 AND ISZERO PUSH2 0x2B1C JUMPI PUSH2 0x2B1C PUSH2 0x2C8E JUMP JUMPDEST POP SWAP1 SUB SWAP4 SWAP3 POP POP POP JUMP JUMPDEST PUSH1 0x0 DUP2 PUSH1 0x3 SIGNEXTEND DUP4 PUSH1 0x3 SIGNEXTEND DUP3 DUP2 SLT DUP2 PUSH4 0x7FFFFFFF NOT ADD DUP4 SLT DUP2 ISZERO AND ISZERO PUSH2 0x2B4D JUMPI PUSH2 0x2B4D PUSH2 0x2C8E JUMP JUMPDEST DUP2 PUSH4 0x7FFFFFFF ADD DUP4 SGT DUP2 AND ISZERO PUSH2 0x2B1C JUMPI PUSH2 0x2B1C PUSH2 0x2C8E JUMP JUMPDEST PUSH1 0x0 DUP2 DUP2 SIGNEXTEND DUP4 DUP3 SIGNEXTEND DUP3 DUP2 SLT DUP1 ISZERO PUSH1 0x7F NOT DUP4 ADD DUP5 SLT AND ISZERO PUSH2 0x2B87 JUMPI PUSH2 0x2B87 PUSH2 0x2C8E JUMP JUMPDEST DUP2 PUSH1 0x7F ADD DUP4 SGT DUP2 AND ISZERO PUSH2 0x2B1C JUMPI PUSH2 0x2B1C PUSH2 0x2C8E JUMP JUMPDEST PUSH1 0x0 PUSH2 0xFFFF DUP4 DUP2 AND SWAP1 DUP4 AND DUP2 DUP2 LT ISZERO PUSH2 0x2BB7 JUMPI PUSH2 0x2BB7 PUSH2 0x2C8E JUMP JUMPDEST SUB SWAP4 SWAP3 POP POP POP JUMP JUMPDEST PUSH1 0x0 PUSH1 0xFF DUP3 AND PUSH1 0xFF DUP5 AND DUP1 DUP3 LT ISZERO PUSH2 0x2BD9 JUMPI PUSH2 0x2BD9 PUSH2 0x2C8E JUMP JUMPDEST SWAP1 SUB SWAP4 SWAP3 POP POP POP JUMP JUMPDEST PUSH1 0x0 DUP2 DUP2 SIGNEXTEND PUSH1 0x7F NOT DUP2 EQ ISZERO PUSH2 0x2BF9 JUMPI PUSH2 0x2BF9 PUSH2 0x2C8E JUMP JUMPDEST PUSH1 0x0 NOT ADD SWAP3 SWAP2 POP POP JUMP JUMPDEST PUSH1 0x0 PUSH2 0xFFFF DUP1 DUP4 AND DUP2 DUP2 EQ ISZERO PUSH2 0x2C1B JUMPI PUSH2 0x2C1B PUSH2 0x2C8E JUMP JUMPDEST PUSH1 0x1 ADD SWAP4 SWAP3 POP POP POP JUMP JUMPDEST PUSH1 0x0 PUSH1 0x0 NOT DUP3 EQ ISZERO PUSH2 0x2C39 JUMPI PUSH2 0x2C39 PUSH2 0x2C8E JUMP JUMPDEST POP PUSH1 0x1 ADD SWAP1 JUMP JUMPDEST PUSH1 0x0 PUSH4 0xFFFFFFFF DUP1 DUP4 AND DUP2 DUP2 EQ ISZERO PUSH2 0x2C1B JUMPI PUSH2 0x2C1B PUSH2 0x2C8E JUMP JUMPDEST PUSH1 0x0 PUSH1 0xFF DUP3 AND PUSH1 0xFF DUP2 EQ ISZERO PUSH2 0x2C71 JUMPI PUSH2 0x2C71 PUSH2 0x2C8E JUMP JUMPDEST PUSH1 0x1 ADD SWAP3 SWAP2 POP POP JUMP JUMPDEST PUSH1 0x0 DUP3 PUSH2 0x2C89 JUMPI PUSH2 0x2C89 PUSH2 0x2CA4 JUMP JUMPDEST POP MOD SWAP1 JUMP JUMPDEST PUSH4 0x4E487B71 PUSH1 0xE0 SHL PUSH1 0x0 MSTORE PUSH1 0x11 PUSH1 0x4 MSTORE PUSH1 0x24 PUSH1 0x0 REVERT JUMPDEST PUSH4 0x4E487B71 PUSH1 0xE0 SHL PUSH1 0x0 MSTORE PUSH1 0x12 PUSH1 0x4 MSTORE PUSH1 0x24 PUSH1 0x0 REVERT JUMPDEST PUSH4 0x4E487B71 PUSH1 0xE0 SHL PUSH1 0x0 MSTORE PUSH1 0x41 PUSH1 0x4 MSTORE PUSH1 0x24 PUSH1 0x0 REVERT INVALID LOG2 PUSH5 0x6970667358 0x22 SLT KECCAK256 CODESIZE 0xC7 LOG3 ORIGIN 0xBA 0x21 PUSH18 0x9D50C8258E88A363D158D76523CBB429E9C3 LOG4 CREATE2 CODECOPY 0xDF 0x29 0x2D 0xC5 PUSH5 0x736F6C6343 STOP ADDMOD ADD STOP CALLER "
        },
        "methodIdentifiers": {
          "addShip(uint16,uint16,uint16,uint16,uint16,uint16,uint16,uint16)": "5afa3bf5",
          "attack(address,uint8[],uint8)": "62a74512",
          "getAllDefenders()": "7af584de",
          "getLeaderboard()": "6d763a6e",
          "getOwnDefence()": "d43b838c",
          "getShips()": "6738f234",
          "owner()": "8da5cb5b",
          "registerDefence(uint8[],uint8,bytes32)": "d2eaefdb",
          "replay(uint256,uint8[],uint8[],uint8,uint8)": "0d055a47"
        }
      }
    }
  }
}