{
  "contracts/NewOmega.sol": {
    "NewOmega": {
      "abi": [
        {
          "anonymous": false,
          "inputs": [
            {
              "indexed": true,
              "internalType": "address",
              "name": "attacker",
              "type": "address"
            },
            {
              "indexed": true,
              "internalType": "address",
              "name": "defender",
              "type": "address"
            },
            {
              "components": [
                {
                  "internalType": "uint16[]",
                  "name": "selectionLhs",
                  "type": "uint16[]"
                },
                {
                  "internalType": "uint16[]",
                  "name": "selectionRhs",
                  "type": "uint16[]"
                },
                {
                  "internalType": "uint16",
                  "name": "commanderLhs",
                  "type": "uint16"
                },
                {
                  "internalType": "uint16",
                  "name": "commanderRhs",
                  "type": "uint16"
                },
                {
                  "components": [
                    {
                      "internalType": "uint8",
                      "name": "moveType",
                      "type": "uint8"
                    },
                    {
                      "internalType": "uint8",
                      "name": "round",
                      "type": "uint8"
                    },
                    {
                      "internalType": "uint8",
                      "name": "source",
                      "type": "uint8"
                    },
                    {
                      "internalType": "uint8",
                      "name": "target",
                      "type": "uint8"
                    },
                    {
                      "internalType": "int8",
                      "name": "targetPosition",
                      "type": "int8"
                    },
                    {
                      "internalType": "uint32",
                      "name": "damage",
                      "type": "uint32"
                    }
                  ],
                  "internalType": "struct Move[]",
                  "name": "lhs",
                  "type": "tuple[]"
                },
                {
                  "components": [
                    {
                      "internalType": "uint8",
                      "name": "moveType",
                      "type": "uint8"
                    },
                    {
                      "internalType": "uint8",
                      "name": "round",
                      "type": "uint8"
                    },
                    {
                      "internalType": "uint8",
                      "name": "source",
                      "type": "uint8"
                    },
                    {
                      "internalType": "uint8",
                      "name": "target",
                      "type": "uint8"
                    },
                    {
                      "internalType": "int8",
                      "name": "targetPosition",
                      "type": "int8"
                    },
                    {
                      "internalType": "uint32",
                      "name": "damage",
                      "type": "uint32"
                    }
                  ],
                  "internalType": "struct Move[]",
                  "name": "rhs",
                  "type": "tuple[]"
                },
                {
                  "internalType": "bool",
                  "name": "lhsDead",
                  "type": "bool"
                },
                {
                  "internalType": "bool",
                  "name": "rhsDead",
                  "type": "bool"
                },
                {
                  "internalType": "uint8",
                  "name": "rounds",
                  "type": "uint8"
                },
                {
                  "internalType": "uint256",
                  "name": "seed",
                  "type": "uint256"
                }
              ],
              "indexed": false,
              "internalType": "struct FightResult",
              "name": "result",
              "type": "tuple"
            }
          ],
          "name": "FightComplete",
          "type": "event"
        },
        {
          "inputs": [
            {
              "internalType": "uint16",
              "name": "index",
              "type": "uint16"
            },
            {
              "internalType": "uint16",
              "name": "cp",
              "type": "uint16"
            },
            {
              "internalType": "uint16",
              "name": "hp",
              "type": "uint16"
            },
            {
              "internalType": "uint16",
              "name": "attackBase",
              "type": "uint16"
            },
            {
              "internalType": "uint16",
              "name": "attackVariable",
              "type": "uint16"
            },
            {
              "internalType": "uint16",
              "name": "defence",
              "type": "uint16"
            },
            {
              "internalType": "uint16",
              "name": "speed",
              "type": "uint16"
            },
            {
              "internalType": "uint16",
              "name": "range",
              "type": "uint16"
            },
            {
              "internalType": "uint16",
              "name": "agility",
              "type": "uint16"
            }
          ],
          "name": "addShip",
          "outputs": [],
          "stateMutability": "nonpayable",
          "type": "function"
        },
        {
          "inputs": [
            {
              "internalType": "address",
              "name": "enemy",
              "type": "address"
            },
            {
              "internalType": "uint16[]",
              "name": "selection",
              "type": "uint16[]"
            },
            {
              "internalType": "uint16",
              "name": "commander",
              "type": "uint16"
            }
          ],
          "name": "attack",
          "outputs": [],
          "stateMutability": "nonpayable",
          "type": "function"
        },
        {
          "inputs": [],
          "name": "getAllDefenders",
          "outputs": [
            {
              "components": [
                {
                  "internalType": "address",
                  "name": "player",
                  "type": "address"
                },
                {
                  "internalType": "bool",
                  "name": "isInitialised",
                  "type": "bool"
                },
                {
                  "internalType": "uint16[]",
                  "name": "defenceSelection",
                  "type": "uint16[]"
                },
                {
                  "internalType": "uint16",
                  "name": "commander",
                  "type": "uint16"
                },
                {
                  "internalType": "bytes32",
                  "name": "name",
                  "type": "bytes32"
                }
              ],
              "internalType": "struct PlayerDefence[]",
              "name": "",
              "type": "tuple[]"
            }
          ],
          "stateMutability": "view",
          "type": "function"
        },
        {
          "inputs": [],
          "name": "getLeaderboard",
          "outputs": [
            {
              "components": [
                {
                  "internalType": "address",
                  "name": "player",
                  "type": "address"
                },
                {
                  "internalType": "bytes32",
                  "name": "name",
                  "type": "bytes32"
                },
                {
                  "internalType": "uint32",
                  "name": "wins",
                  "type": "uint32"
                },
                {
                  "internalType": "uint32",
                  "name": "losses",
                  "type": "uint32"
                }
              ],
              "internalType": "struct LeaderboardEntry[]",
              "name": "",
              "type": "tuple[]"
            }
          ],
          "stateMutability": "view",
          "type": "function"
        },
        {
          "inputs": [],
          "name": "getOwnDefence",
          "outputs": [
            {
              "components": [
                {
                  "internalType": "address",
                  "name": "player",
                  "type": "address"
                },
                {
                  "internalType": "bool",
                  "name": "isInitialised",
                  "type": "bool"
                },
                {
                  "internalType": "uint16[]",
                  "name": "defenceSelection",
                  "type": "uint16[]"
                },
                {
                  "internalType": "uint16",
                  "name": "commander",
                  "type": "uint16"
                },
                {
                  "internalType": "bytes32",
                  "name": "name",
                  "type": "bytes32"
                }
              ],
              "internalType": "struct PlayerDefence",
              "name": "",
              "type": "tuple"
            }
          ],
          "stateMutability": "view",
          "type": "function"
        },
        {
          "inputs": [],
          "name": "getShips",
          "outputs": [
            {
              "components": [
                {
                  "internalType": "uint16",
                  "name": "cp",
                  "type": "uint16"
                },
                {
                  "internalType": "uint16",
                  "name": "hp",
                  "type": "uint16"
                },
                {
                  "components": [
                    {
                      "internalType": "uint16",
                      "name": "base",
                      "type": "uint16"
                    },
                    {
                      "internalType": "uint16",
                      "name": "variable",
                      "type": "uint16"
                    }
                  ],
                  "internalType": "struct ShipVariableStat",
                  "name": "attack",
                  "type": "tuple"
                },
                {
                  "internalType": "uint16",
                  "name": "defence",
                  "type": "uint16"
                },
                {
                  "internalType": "uint16",
                  "name": "speed",
                  "type": "uint16"
                },
                {
                  "internalType": "uint16",
                  "name": "range",
                  "type": "uint16"
                },
                {
                  "internalType": "uint16",
                  "name": "agility",
                  "type": "uint16"
                }
              ],
              "internalType": "struct Ship[]",
              "name": "",
              "type": "tuple[]"
            }
          ],
          "stateMutability": "view",
          "type": "function"
        },
        {
          "inputs": [],
          "name": "owner",
          "outputs": [
            {
              "internalType": "address",
              "name": "",
              "type": "address"
            }
          ],
          "stateMutability": "view",
          "type": "function"
        },
        {
          "inputs": [
            {
              "internalType": "uint16[]",
              "name": "defence",
              "type": "uint16[]"
            },
            {
              "internalType": "uint16",
              "name": "commander",
              "type": "uint16"
            },
            {
              "internalType": "bytes32",
              "name": "name",
              "type": "bytes32"
            }
          ],
          "name": "registerDefence",
          "outputs": [],
          "stateMutability": "nonpayable",
          "type": "function"
        },
        {
          "inputs": [
            {
              "internalType": "uint256",
              "name": "seed",
              "type": "uint256"
            },
            {
              "internalType": "uint16[]",
              "name": "selectionLhs",
              "type": "uint16[]"
            },
            {
              "internalType": "uint16[]",
              "name": "selectionRhs",
              "type": "uint16[]"
            },
            {
              "internalType": "uint16",
              "name": "commanderLhs",
              "type": "uint16"
            },
            {
              "internalType": "uint16",
              "name": "commanderRhs",
              "type": "uint16"
            }
          ],
          "name": "replay",
          "outputs": [
            {
              "components": [
                {
                  "internalType": "uint16[]",
                  "name": "selectionLhs",
                  "type": "uint16[]"
                },
                {
                  "internalType": "uint16[]",
                  "name": "selectionRhs",
                  "type": "uint16[]"
                },
                {
                  "internalType": "uint16",
                  "name": "commanderLhs",
                  "type": "uint16"
                },
                {
                  "internalType": "uint16",
                  "name": "commanderRhs",
                  "type": "uint16"
                },
                {
                  "components": [
                    {
                      "internalType": "uint8",
                      "name": "moveType",
                      "type": "uint8"
                    },
                    {
                      "internalType": "uint8",
                      "name": "round",
                      "type": "uint8"
                    },
                    {
                      "internalType": "uint8",
                      "name": "source",
                      "type": "uint8"
                    },
                    {
                      "internalType": "uint8",
                      "name": "target",
                      "type": "uint8"
                    },
                    {
                      "internalType": "int8",
                      "name": "targetPosition",
                      "type": "int8"
                    },
                    {
                      "internalType": "uint32",
                      "name": "damage",
                      "type": "uint32"
                    }
                  ],
                  "internalType": "struct Move[]",
                  "name": "lhs",
                  "type": "tuple[]"
                },
                {
                  "components": [
                    {
                      "internalType": "uint8",
                      "name": "moveType",
                      "type": "uint8"
                    },
                    {
                      "internalType": "uint8",
                      "name": "round",
                      "type": "uint8"
                    },
                    {
                      "internalType": "uint8",
                      "name": "source",
                      "type": "uint8"
                    },
                    {
                      "internalType": "uint8",
                      "name": "target",
                      "type": "uint8"
                    },
                    {
                      "internalType": "int8",
                      "name": "targetPosition",
                      "type": "int8"
                    },
                    {
                      "internalType": "uint32",
                      "name": "damage",
                      "type": "uint32"
                    }
                  ],
                  "internalType": "struct Move[]",
                  "name": "rhs",
                  "type": "tuple[]"
                },
                {
                  "internalType": "bool",
                  "name": "lhsDead",
                  "type": "bool"
                },
                {
                  "internalType": "bool",
                  "name": "rhsDead",
                  "type": "bool"
                },
                {
                  "internalType": "uint8",
                  "name": "rounds",
                  "type": "uint8"
                },
                {
                  "internalType": "uint256",
                  "name": "seed",
                  "type": "uint256"
                }
              ],
              "internalType": "struct FightResult",
              "name": "",
              "type": "tuple"
            }
          ],
          "stateMutability": "view",
          "type": "function"
        }
      ],
      "evm": {
        "bytecode": {
          "linkReferences": {},
          "object": "6080604052600080546001600160a01b0319163317905534801561002257600080fd5b5061323a806100326000396000f3fe608060405234801561001057600080fd5b50600436106100a35760003560e01c80637af584de11610076578063c0d0504a1161005b578063c0d0504a1461012d578063d43b838c14610140578063ffa0c0c414610155576100a3565b80637af584de146101035780638da5cb5b14610118576100a3565b806309d27389146100a85780633bed82bf146100bd5780636738f234146100d05780636d763a6e146100ee575b600080fd5b6100bb6100b636600461277e565b610175565b005b6100bb6100cb366004612715565b6103a7565b6100d8610675565b6040516100e59190612b4d565b60405180910390f35b6100f661076c565b6040516100e59190612a77565b61010b6108c1565b6040516100e59190612aed565b610120610a7b565b6040516100e59190612a63565b6100bb61013b3660046127d3565b610a8a565b610148610dba565b6040516100e59190612e3e565b61016861016336600461287a565b610ecb565b6040516100e59190612d4f565b6040805160a08101825233808252600160208084019190915282840187905261ffff86166060840152608083018590526000918252600590529190912054600160a01b900460ff1661021157600680546001810182556000919091527ff652222313e28459528d920b65115c16c04f3efc82aaedc97be59f3f377c0d3f01805473ffffffffffffffffffffffffffffffffffffffff1916331790555b3360009081526005602090815260409182902083518154838601511515600160a01b027fffffffffffffffffffffff00ffffffffffffffffffffffffffffffffffffffff6001600160a01b039390931673ffffffffffffffffffffffffffffffffffffffff19909216919091179190911617815591830151805184939261029f926001850192910190612485565b50606082015160028201805461ffff191661ffff909216919091179055608090910151600391820155336000908152602091909152604090205460ff166103a15760408051606081018252600180825260006020808401828152848601838152338085526003909352958320945185549151965160ff199092169015151764ffffffff00191661010063ffffffff978816021768ffffffff00000000001916650100000000009690911695909502949094179092556004805491820181559091527f8a35acfbc15ff81a39ae7d344fd709f28e8600b4aa8c65c6b64bfe7fe36bd19b01805473ffffffffffffffffffffffffffffffffffffffff191690911790555b50505050565b6001600160a01b038316600090815260056020526040902054600160a01b900460ff166103ef5760405162461bcd60e51b81526004016103e690612c5e565b60405180910390fd5b600044423360405160200161040693929190612a28565b60408051601f1981840301815282825280516020918201206001600160a01b038816600090815260058352838120600101805480850287018501909552848652919550936104d7938693899391908301828280156104ab57602002820191906000526020600020906000905b82829054906101000a900461ffff1661ffff16815260200190600201906020826001010492830192600103820291508084116104725790505b505050506001600160a01b038a1660009081526005602052604090206002015488915061ffff16610ff5565b90508060c001511561057f576001600160a01b03851660009081526003602052604090208054610100900463ffffffff1690600161051483613174565b82546101009290920a63ffffffff81810219909316918316021790915533600090815260036020526040902080546501000000000090049091169150600561055b83613174565b91906101000a81548163ffffffff021916908363ffffffff16021790555050610621565b8060e0015115610621573360009081526003602052604090208054610100900463ffffffff169060016105b183613174565b82546101009290920a63ffffffff8181021990931691831602179091556001600160a01b038716600090815260036020526040902080546501000000000090049091169150600561060183613174565b91906101000a81548163ffffffff021916908363ffffffff160217905550505b61012081018290526040516001600160a01b0386169033907f6ad9617ab2b98a0608d4058409eb1ffad23a12e77d1d5f7f97107228343a775390610666908590612d4f565b60405180910390a35050505050565b6000546060906001600160a01b031633146106a25760405162461bcd60e51b81526004016103e690612cf2565b6002805480602002602001604051908101604052809291908181526020016000905b828210156107635760008481526020908190206040805160e08101825260038602909201805461ffff80821685526201000091829004811685870152835180850185526001808501548084168352849004831682890152948601526002909201548083166060860152908104821660808501526401000000008104821660a0850152660100000000000090041660c083015290835290920191016106c4565b50505050905090565b60045460609060009067ffffffffffffffff81111561079b57634e487b7160e01b600052604160045260246000fd5b6040519080825280602002602001820160405280156107d457816020015b6107c161252e565b8152602001906001900390816107b95790505b50905060005b6004548110156108bb5760006004828154811061080757634e487b7160e01b600052603260045260246000fd5b6000918252602080832090910154604080516080810182526001600160a01b0390921680835280855260058452818520600390810154848601528186528085528286205463ffffffff610100820481169486019490945295829052909352650100000000009093049092166060830152845190925084908490811061089c57634e487b7160e01b600052603260045260246000fd5b60200260200101819052505080806108b390613159565b9150506107da565b50905090565b60065460609060009067ffffffffffffffff8111156108f057634e487b7160e01b600052604160045260246000fd5b60405190808252806020026020018201604052801561092957816020015b610916612555565b81526020019060019003908161090e5790505b50905060005b6006548110156108bb57600560006006838154811061095e57634e487b7160e01b600052603260045260246000fd5b6000918252602080832091909101546001600160a01b039081168452838201949094526040928301909120825160a08101845281549485168152600160a01b90940460ff1615158483015260018101805484518185028101850186528181529294860193830182828015610a1957602002820191906000526020600020906000905b82829054906101000a900461ffff1661ffff16815260200190600201906020826001010492830192600103820291508084116109e05790505b5050509183525050600282015461ffff1660208201526003909101546040909101528251839083908110610a5d57634e487b7160e01b600052603260045260246000fd5b60200260200101819052508080610a7390613159565b91505061092f565b6000546001600160a01b031681565b6000546001600160a01b03163314610ab45760405162461bcd60e51b81526004016103e690612cf2565b60006040518060e001604052808a61ffff1681526020018961ffff16815260200160405180604001604052808a61ffff1681526020018961ffff1681525081526020018661ffff1681526020018561ffff1681526020018461ffff1681526020018361ffff16815250905080600160008c61ffff16815260200190815260200160002060008201518160000160006101000a81548161ffff021916908361ffff16021790555060208201518160000160026101000a81548161ffff021916908361ffff16021790555060408201518160010160008201518160000160006101000a81548161ffff021916908361ffff16021790555060208201518160000160026101000a81548161ffff021916908361ffff160217905550505060608201518160020160006101000a81548161ffff021916908361ffff16021790555060808201518160020160026101000a81548161ffff021916908361ffff16021790555060a08201518160020160046101000a81548161ffff021916908361ffff16021790555060c08201518160020160066101000a81548161ffff021916908361ffff160217905550905050600281908060018154018082558091505060019003906000526020600020906003020160009091909190915060008201518160000160006101000a81548161ffff021916908361ffff16021790555060208201518160000160026101000a81548161ffff021916908361ffff16021790555060408201518160010160008201518160000160006101000a81548161ffff021916908361ffff16021790555060208201518160000160026101000a81548161ffff021916908361ffff160217905550505060608201518160020160006101000a81548161ffff021916908361ffff16021790555060808201518160020160026101000a81548161ffff021916908361ffff16021790555060a08201518160020160046101000a81548161ffff021916908361ffff16021790555060c08201518160020160066101000a81548161ffff021916908361ffff160217905550505050505050505050505050565b610dc2612555565b33600090815260056020526040902054600160a01b900460ff16610df85760405162461bcd60e51b81526004016103e690612cbb565b33600090815260056020908152604091829020825160a08101845281546001600160a01b0381168252600160a01b900460ff1615158184015260018201805485518186028101860187528181529295939493860193830182828015610ea457602002820191906000526020600020906000905b82829054906101000a900461ffff1661ffff1681526020019060020190602082600101049283019260010382029150808411610e6b5790505b5050509183525050600282015461ffff166020820152600390910154604090910152905090565b610ed3612584565b8451600414610ef45760405162461bcd60e51b81526004016103e690612c01565b8351600414610f155760405162461bcd60e51b81526004016103e690612c01565b610fe98660016002805480602002602001604051908101604052809291908181526020016000905b82821015610fdc5760008481526020908190206040805160e08101825260038602909201805461ffff80821685526201000091829004811685870152835180850185526001808501548084168352849004831682890152948601526002909201548083166060860152908104821660808501526401000000008104821660a0850152660100000000000090041660c08301529083529092019101610f3d565b5050505088888888611100565b90505b95945050505050565b610ffd612584565b845160041461101e5760405162461bcd60e51b81526004016103e690612c01565b835160041461103f5760405162461bcd60e51b81526004016103e690612c01565b6002805460408051602080840282018101909252828152610fe9938a93600093849084018215610fdc5760008481526020908190206040805160e08101825260038602909201805461ffff80821685526201000091829004811685870152835180850185526001808501548084168352849004831682890152948601526002909201548083166060860152908104821660808501526401000000008104821660a0850152660100000000000090041660c08301529083529092019101610f3d565b611108612584565b84516004146111295760405162461bcd60e51b81526004016103e690612c01565b835160041461114a5760405162461bcd60e51b81526004016103e690612c01565b60408051600480825260a0820190925260009160208201608080368337019050509050600a8160008151811061119057634e487b7160e01b600052603260045260246000fd5b602002602001019060000b908160000b81525050600b816001815181106111c757634e487b7160e01b600052603260045260246000fd5b602002602001019060000b908160000b81525050600c816002815181106111fe57634e487b7160e01b600052603260045260246000fd5b602002602001019060000b908160000b81525050600d8160038151811061123557634e487b7160e01b600052603260045260246000fd5b600092830b830b602091820292909201015260408051600480825260a08201909252908160200160208202803683370190505090506009198160008151811061128e57634e487b7160e01b600052603260045260246000fd5b602002602001019060000b908160000b81525050600a19816001815181106112c657634e487b7160e01b600052603260045260246000fd5b602002602001019060000b908160000b81525050600b19816002815181106112fe57634e487b7160e01b600052603260045260246000fd5b602002602001019060000b908160000b81525050600c198160038151811061133657634e487b7160e01b600052603260045260246000fd5b600092830b830b602091820292909201015260408051600480825260a0820190925290816020016020820280368337505060408051600480825260a0820190925292935060009291506020820160808036833701905050905060005b600461ffff821610156114fe57898161ffff16815181106113c357634e487b7160e01b600052603260045260246000fd5b602002602001015161ffff168b8261ffff16815181106113f357634e487b7160e01b600052603260045260246000fd5b60200260200101516020015161ffff1661140d9190612f9d565b838261ffff168151811061143157634e487b7160e01b600052603260045260246000fd5b602002602001019060070b908160070b81525050888161ffff168151811061146957634e487b7160e01b600052603260045260246000fd5b602002602001015161ffff168b8261ffff168151811061149957634e487b7160e01b600052603260045260246000fd5b60200260200101516020015161ffff166114b39190612f9d565b828261ffff16815181106114d757634e487b7160e01b600052603260045260246000fd5b602002602001019060070b908160070b8152505080806114f690613137565b915050611392565b506115076125d7565b8b156115f6576115196004601461303c565b60ff1667ffffffffffffffff81111561154257634e487b7160e01b600052604160045260246000fd5b60405190808252806020026020018201604052801561157b57816020015b61156861261a565b8152602001906001900390816115605790505b50606082015261158d6004601461303c565b60ff1667ffffffffffffffff8111156115b657634e487b7160e01b600052604160045260246000fd5b6040519080825280602002602001820160405280156115ef57816020015b6115dc61261a565b8152602001906001900390816115d45790505b5060a08201525b600081525b8051601460ff909116108015611617575061161583611cd6565b155b8015611629575061162782611cd6565b155b15611a6057600060e08201525b600460ff168160e0015160ff161015611849576000838260e0015160ff168151811061167257634e487b7160e01b600052603260045260246000fd5b602002602001015160070b131561182e5760006116968c8360e00151888887611d38565b905060008160000b1261176f5760006116e48f8e8560e0015185898860e0015160ff16815181106116d757634e487b7160e01b600052603260045260246000fd5b6020026020010151611e9f565b90508063ffffffff16848360ff168151811061171057634e487b7160e01b600052603260045260246000fd5b6020026020010181815161172491906130aa565b600790810b900b9052508d1561176957602083018051611769916117478261318e565b60ff1660ff1681525060ff16846000015185606001518660e001518686612098565b5061182c565b6117898c60018460e0015160ff166000198a8a8a8a612112565b868360e0015160ff16815181106117b057634e487b7160e01b600052603260045260246000fd5b602002602001019060000b908160000b815250508c1561182c5760208201805161182c916117dd8261318e565b60ff1660ff1681525060ff16836000015184606001518560e001518a8760e0015160ff168151811061181f57634e487b7160e01b600052603260045260246000fd5b6020026020010151612288565b505b60e0810180519061183e8261318e565b60ff16905250611636565b600060e08201525b600460ff168160e0015160ff161015611a49576000828260e0015160ff168151811061188d57634e487b7160e01b600052603260045260246000fd5b602002602001015160070b1315611a2e5760006118b18c8360e00151878988611d38565b905060008160000b1261197d5760006118f28f8e8560e0015185888860e0015160ff16815181106116d757634e487b7160e01b600052603260045260246000fd5b90508063ffffffff16858360ff168151811061191e57634e487b7160e01b600052603260045260246000fd5b6020026020010181815161193291906130aa565b600790810b900b9052508d1561197757604083018051611977916119558261318e565b60ff1660ff1681525060ff1684600001518560a001518660e001518686612098565b50611a2c565b6119968c60008460e0015160ff1660018a8a8a8a612112565b858360e0015160ff16815181106119bd57634e487b7160e01b600052603260045260246000fd5b602002602001019060000b908160000b815250508c15611a2c57604082018051611a2c916119ea8261318e565b60ff1660ff1681525060ff1683600001518460a001518560e00151898760e0015160ff168151811061181f57634e487b7160e01b600052603260045260246000fd5b505b60e08101805190611a3e8261318e565b60ff16905250611851565b805181611a558261318e565b60ff169052506115fb565b8b15611c4c578051611a749060049061303c565b60ff1667ffffffffffffffff811115611a9d57634e487b7160e01b600052604160045260246000fd5b604051908082528060200260200182016040528015611ad657816020015b611ac361261a565b815260200190600190039081611abb5790505b5060808201528051611aea9060049061303c565b60ff1667ffffffffffffffff811115611b1357634e487b7160e01b600052604160045260246000fd5b604051908082528060200260200182016040528015611b4c57816020015b611b3961261a565b815260200190600190039081611b315790505b5060c082015260005b8151611b639060049061303c565b60ff168161ffff161015611c4a5781606001518161ffff1681518110611b9957634e487b7160e01b600052603260045260246000fd5b602002602001015182608001518261ffff1681518110611bc957634e487b7160e01b600052603260045260246000fd5b60200260200101819052508160a001518161ffff1681518110611bfc57634e487b7160e01b600052603260045260246000fd5b60200260200101518260c001518261ffff1681518110611c2c57634e487b7160e01b600052603260045260246000fd5b60200260200101819052508080611c4290613137565b915050611b55565b505b60609350606094506040518061014001604052808b81526020018a81526020018961ffff1681526020018861ffff168152602001826080015181526020018260c001518152602001611c9d85611cd6565b15158152602001611cad84611cd6565b15158152915160ff16602083015260006040909201919091529c9b505050505050505050505050565b60006001815b6004811015611d2f576000848281518110611d0757634e487b7160e01b600052603260045260246000fd5b602002602001015160070b1315611d1d57600091505b80611d2781613159565b915050611cdc565b5090505b919050565b600080848660ff1681518110611d5e57634e487b7160e01b600052603260045260246000fd5b602002602001015160000b90506000661fffffffffffff90506000805b600460ff82161015611e75576000878260ff1681518110611dac57634e487b7160e01b600052603260045260246000fd5b602002602001015190506000611dcf8260000b87611dca9190613065565b6122f7565b90506000888460ff1681518110611df657634e487b7160e01b600052603260045260246000fd5b602002602001015160070b138015611e4457508b8b60ff1681518110611e2c57634e487b7160e01b600052603260045260246000fd5b602002602001015160a0015161ffff168161ffff1611155b15611e6057848161ffff161015611e60578061ffff1694508293505b50508080611e6d9061318e565b915050611d7b565b5060009250661fffffffffffff8214611e8e5780611e92565b6000195b9998505050505050505050565b600080858560ff1681518110611ec557634e487b7160e01b600052603260045260246000fd5b6020026020010151604001516020015161ffff1687611ee491906131ae565b868660ff1681518110611f0757634e487b7160e01b600052603260045260246000fd5b60200260200101516040015160000151611f219190612e91565b90506000868560ff1681518110611f4857634e487b7160e01b600052603260045260246000fd5b60200260200101516060015190506000878660ff1681518110611f7b57634e487b7160e01b600052603260045260246000fd5b602002602001015160c001516064611f9391906130f1565b90506000600a82611fa485876130f1565b611fae9190612fef565b611fb89190612eda565b61ffff1690506000898960ff1681518110611fe357634e487b7160e01b600052603260045260246000fd5b60200260200101516020015161ffff1687611ffe9190612efb565b612009906001612eb7565b905060008a8960ff168151811061203057634e487b7160e01b600052603260045260246000fd5b60200260200101516020015161ffff168261ffff1661204f9190613019565b9050600061206161ffff841685613019565b90506000965060009550600094506000925061208761208160008361231d565b8361233b565b9d9c50505050505050505050505050565b6040518060c00160405280600160ff1681526020018660ff1681526020018460ff1681526020018360ff1681526020016000800b81526020018263ffffffff16815250848761ffff16815181106120ff57634e487b7160e01b600052603260045260246000fd5b6020026020010181905250505050505050565b600080898861ffff168151811061213957634e487b7160e01b600052603260045260246000fd5b602002602001015160800151905060008961217f57858961ffff168151811061217257634e487b7160e01b600052603260045260246000fd5b60200260200101516121ac565b868961ffff16815181106121a357634e487b7160e01b600052603260045260246000fd5b60200260200101515b9050815b60008160010b13156122795760008b612208576121cd828b612f16565b888c61ffff16815181106121f157634e487b7160e01b600052603260045260246000fd5b60200260200101516122039190612e51565b612248565b612212828b612f16565b898c61ffff168151811061223657634e487b7160e01b600052603260045260246000fd5b60200260200101516122489190612e51565b905061225a8160000b8a8a8a8a612350565b15612266579150612279565b508061227181613114565b9150506121b0565b509a9950505050505050505050565b6040805160c0810182526002815260ff868116602083015284169181019190915260006060820181905282810b608083015260a08201528351849061ffff88169081106122e557634e487b7160e01b600052603260045260246000fd5b60200260200101819052505050505050565b6000808260010b1261230a575080611d33565b61231682600019612f16565b9050611d33565b60008160030b8360030b136123325781612334565b825b9392505050565b60008160030b8360030b126123325781612334565b6000600f61235d876122f7565b61ffff16111561236f57506000610fec565b6000805b600460ff82161015612479578760010b878260ff16815181106123a657634e487b7160e01b600052603260045260246000fd5b602002602001015160000b1480156123eb57506000858260ff16815181106123de57634e487b7160e01b600052603260045260246000fd5b602002602001015160070b135b8061245d57508760010b868260ff168151811061241857634e487b7160e01b600052603260045260246000fd5b602002602001015160000b14801561245d57506000848260ff168151811061245057634e487b7160e01b600052603260045260246000fd5b602002602001015160070b135b1561246757600191505b806124718161318e565b915050612373565b50159695505050505050565b82805482825590600052602060002090600f0160109004810192821561251e5791602002820160005b838211156124ee57835183826101000a81548161ffff021916908361ffff16021790555092602001926002016020816001010492830192600103026124ae565b801561251c5782816101000a81549061ffff02191690556002016020816001010492830192600103026124ee565b505b5061252a92915061264f565b5090565b60408051608081018252600080825260208201819052918101829052606081019190915290565b6040805160a0810182526000808252602082018190526060928201839052918101829052608081019190915290565b604080516101408101825260608082526020820181905260009282018390528082018390526080820181905260a082015260c0810182905260e08101829052610100810182905261012081019190915290565b604080516101008101825260008082526020820181905291810182905260608082018190526080820181905260a0820181905260c082015260e081019190915290565b6040805160c081018252600080825260208201819052918101829052606081018290526080810182905260a081019190915290565b5b8082111561252a5760008155600101612650565b600082601f830112612674578081fd5b8135602067ffffffffffffffff80831115612691576126916131ee565b818302604051838282010181811084821117156126b0576126b06131ee565b604052848152838101925086840182880185018910156126ce578687fd5b8692505b858310156126f7576126e381612703565b8452928401926001929092019184016126d2565b50979650505050505050565b803561ffff81168114611d3357600080fd5b600080600060608486031215612729578283fd5b83356001600160a01b038116811461273f578384fd5b9250602084013567ffffffffffffffff81111561275a578283fd5b61276686828701612664565b92505061277560408501612703565b90509250925092565b600080600060608486031215612792578283fd5b833567ffffffffffffffff8111156127a8578384fd5b6127b486828701612664565b9350506127c360208501612703565b9150604084013590509250925092565b60008060008060008060008060006101208a8c0312156127f1578485fd5b6127fa8a612703565b985061280860208b01612703565b975061281660408b01612703565b965061282460608b01612703565b955061283260808b01612703565b945061284060a08b01612703565b935061284e60c08b01612703565b925061285c60e08b01612703565b915061286b6101008b01612703565b90509295985092959850929598565b600080600080600060a08688031215612891578081fd5b85359450602086013567ffffffffffffffff808211156128af578283fd5b6128bb89838a01612664565b955060408801359150808211156128d0578283fd5b506128dd88828901612664565b9350506128ec60608701612703565b91506128fa60808701612703565b90509295509295909350565b6000815180845260208085019450808401835b8381101561297d578151805160ff9081168952848201518116858a01526040808301518216908a015260608083015190911690890152608080820151870b9089015260a09081015163ffffffff169088015260c09096019590820190600101612919565b509495945050505050565b6000815180845260208085019450808401835b8381101561297d57815161ffff168752958201959082019060010161299b565b15159052565b60006001600160a01b038251168352602082015115156020840152604082015160a060408501526129f560a0850182612988565b905061ffff6060840151166060850152608083015160808501528091505092915050565b61ffff169052565b60ff169052565b928352602083019190915260601b7fffffffffffffffffffffffffffffffffffffffff00000000000000000000000016604082015260540190565b6001600160a01b0391909116815260200190565b602080825282518282018190526000919060409081850190868401855b82811015612ae057815180516001600160a01b0316855286810151878601528581015163ffffffff90811687870152606091820151169085015260809093019290850190600101612a94565b5091979650505050505050565b6000602080830181845280855180835260408601915060408482028701019250838701855b82811015612b4057603f19888603018452612b2e8583516129c1565b94509285019290850190600101612b12565b5092979650505050505050565b602080825282518282018190526000919060409081850190868401855b82811015612ae0578151805161ffff908116865287820151811688870152868201518051821688880152880151166060808701919091528101516080612bb281880183612a19565b820151905060a0612bc587820183612a19565b820151905060c0612bd887820183612a19565b91909101519050612bec60e0860182612a19565b50610100939093019290850190600101612b6a565b60208082526022908201527f53656c656374696f6e206e6565647320746f2068617665203420656c656d656e60408201527f7473000000000000000000000000000000000000000000000000000000000000606082015260800190565b60208082526024908201527f43616e206f6e6c792061747461636b206120726567697374657265642064656660408201527f656e636500000000000000000000000000000000000000000000000000000000606082015260800190565b60208082526016908201527f446566656e6365206e6f74207265676973746572656400000000000000000000604082015260600190565b60208082526033908201527f546869732066756e6374696f6e206973207265737472696374656420746f207460408201527f686520636f6e74726163742773206f776e657200000000000000000000000000606082015260800190565b6000602082528251610140806020850152612d6e610160850183612988565b91506020850151601f1980868503016040870152612d8c8483612988565b935060408701519150612da26060870183612a19565b60608701519150612db66080870183612a19565b60808701519150808685030160a0870152612dd18483612906565b935060a08701519150808685030160c087015250612def8382612906565b92505060c0850151612e0460e08601826129bb565b5060e0850151610100612e19818701836129bb565b8601519050610120612e2d86820183612a21565b959095015193019290925250919050565b60006020825261233460208301846129c1565b600081810b83820b82821282607f03821381151615612e7257612e726131c2565b82607f19038212811615612e8857612e886131c2565b50019392505050565b600061ffff808316818516808303821115612eae57612eae6131c2565b01949350505050565b600067ffffffffffffffff808316818516808303821115612eae57612eae6131c2565b600061ffff80841680612eef57612eef6131d8565b92169190910492915050565b600067ffffffffffffffff80841680612eef57612eef6131d8565b60008160010b8360010b617fff83821384841383830485118282161615612f3f57612f3f6131c2565b617fff1986851282811687830587121615612f5c57612f5c6131c2565b878712925085820587128484161615612f7757612f776131c2565b85850587128184161615612f8d57612f8d6131c2565b5050509290910295945050505050565b60008160070b8360070b677fffffffffffffff83821384841383830485118282161615612fcc57612fcc6131c2565b677fffffffffffffff1986851282811687830587121615612f5c57612f5c6131c2565b600061ffff80831681851681830481118215151615613010576130106131c2565b02949350505050565b600063ffffffff80831681851681830481118215151615613010576130106131c2565b600060ff821660ff84168160ff048111821515161561305d5761305d6131c2565b029392505050565b60008160010b8360010b82811281617fff190183128115161561308a5761308a6131c2565b81617fff0183138116156130a0576130a06131c2565b5090039392505050565b60008160070b8360070b82811281677fffffffffffffff19018312811516156130d5576130d56131c2565b81677fffffffffffffff0183138116156130a0576130a06131c2565b600061ffff8381169083168181101561310c5761310c6131c2565b039392505050565b60008160010b617fff1981141561312d5761312d6131c2565b6000190192915050565b600061ffff8083168181141561314f5761314f6131c2565b6001019392505050565b600060001982141561316d5761316d6131c2565b5060010190565b600063ffffffff8083168181141561314f5761314f6131c2565b600060ff821660ff8114156131a5576131a56131c2565b60010192915050565b6000826131bd576131bd6131d8565b500690565b634e487b7160e01b600052601160045260246000fd5b634e487b7160e01b600052601260045260246000fd5b634e487b7160e01b600052604160045260246000fdfea26469706673582212202daff8f764dd38ce5695a815064a1d17ce8aea93af6a7699f616b843e03a077f64736f6c63430008000033",
          "opcodes": "PUSH1 0x80 PUSH1 0x40 MSTORE PUSH1 0x0 DUP1 SLOAD PUSH1 0x1 PUSH1 0x1 PUSH1 0xA0 SHL SUB NOT AND CALLER OR SWAP1 SSTORE CALLVALUE DUP1 ISZERO PUSH2 0x22 JUMPI PUSH1 0x0 DUP1 REVERT JUMPDEST POP PUSH2 0x323A DUP1 PUSH2 0x32 PUSH1 0x0 CODECOPY PUSH1 0x0 RETURN INVALID PUSH1 0x80 PUSH1 0x40 MSTORE CALLVALUE DUP1 ISZERO PUSH2 0x10 JUMPI PUSH1 0x0 DUP1 REVERT JUMPDEST POP PUSH1 0x4 CALLDATASIZE LT PUSH2 0xA3 JUMPI PUSH1 0x0 CALLDATALOAD PUSH1 0xE0 SHR DUP1 PUSH4 0x7AF584DE GT PUSH2 0x76 JUMPI DUP1 PUSH4 0xC0D0504A GT PUSH2 0x5B JUMPI DUP1 PUSH4 0xC0D0504A EQ PUSH2 0x12D JUMPI DUP1 PUSH4 0xD43B838C EQ PUSH2 0x140 JUMPI DUP1 PUSH4 0xFFA0C0C4 EQ PUSH2 0x155 JUMPI PUSH2 0xA3 JUMP JUMPDEST DUP1 PUSH4 0x7AF584DE EQ PUSH2 0x103 JUMPI DUP1 PUSH4 0x8DA5CB5B EQ PUSH2 0x118 JUMPI PUSH2 0xA3 JUMP JUMPDEST DUP1 PUSH4 0x9D27389 EQ PUSH2 0xA8 JUMPI DUP1 PUSH4 0x3BED82BF EQ PUSH2 0xBD JUMPI DUP1 PUSH4 0x6738F234 EQ PUSH2 0xD0 JUMPI DUP1 PUSH4 0x6D763A6E EQ PUSH2 0xEE JUMPI JUMPDEST PUSH1 0x0 DUP1 REVERT JUMPDEST PUSH2 0xBB PUSH2 0xB6 CALLDATASIZE PUSH1 0x4 PUSH2 0x277E JUMP JUMPDEST PUSH2 0x175 JUMP JUMPDEST STOP JUMPDEST PUSH2 0xBB PUSH2 0xCB CALLDATASIZE PUSH1 0x4 PUSH2 0x2715 JUMP JUMPDEST PUSH2 0x3A7 JUMP JUMPDEST PUSH2 0xD8 PUSH2 0x675 JUMP JUMPDEST PUSH1 0x40 MLOAD PUSH2 0xE5 SWAP2 SWAP1 PUSH2 0x2B4D JUMP JUMPDEST PUSH1 0x40 MLOAD DUP1 SWAP2 SUB SWAP1 RETURN JUMPDEST PUSH2 0xF6 PUSH2 0x76C JUMP JUMPDEST PUSH1 0x40 MLOAD PUSH2 0xE5 SWAP2 SWAP1 PUSH2 0x2A77 JUMP JUMPDEST PUSH2 0x10B PUSH2 0x8C1 JUMP JUMPDEST PUSH1 0x40 MLOAD PUSH2 0xE5 SWAP2 SWAP1 PUSH2 0x2AED JUMP JUMPDEST PUSH2 0x120 PUSH2 0xA7B JUMP JUMPDEST PUSH1 0x40 MLOAD PUSH2 0xE5 SWAP2 SWAP1 PUSH2 0x2A63 JUMP JUMPDEST PUSH2 0xBB PUSH2 0x13B CALLDATASIZE PUSH1 0x4 PUSH2 0x27D3 JUMP JUMPDEST PUSH2 0xA8A JUMP JUMPDEST PUSH2 0x148 PUSH2 0xDBA JUMP JUMPDEST PUSH1 0x40 MLOAD PUSH2 0xE5 SWAP2 SWAP1 PUSH2 0x2E3E JUMP JUMPDEST PUSH2 0x168 PUSH2 0x163 CALLDATASIZE PUSH1 0x4 PUSH2 0x287A JUMP JUMPDEST PUSH2 0xECB JUMP JUMPDEST PUSH1 0x40 MLOAD PUSH2 0xE5 SWAP2 SWAP1 PUSH2 0x2D4F JUMP JUMPDEST PUSH1 0x40 DUP1 MLOAD PUSH1 0xA0 DUP2 ADD DUP3 MSTORE CALLER DUP1 DUP3 MSTORE PUSH1 0x1 PUSH1 0x20 DUP1 DUP5 ADD SWAP2 SWAP1 SWAP2 MSTORE DUP3 DUP5 ADD DUP8 SWAP1 MSTORE PUSH2 0xFFFF DUP7 AND PUSH1 0x60 DUP5 ADD MSTORE PUSH1 0x80 DUP4 ADD DUP6 SWAP1 MSTORE PUSH1 0x0 SWAP2 DUP3 MSTORE PUSH1 0x5 SWAP1 MSTORE SWAP2 SWAP1 SWAP2 KECCAK256 SLOAD PUSH1 0x1 PUSH1 0xA0 SHL SWAP1 DIV PUSH1 0xFF AND PUSH2 0x211 JUMPI PUSH1 0x6 DUP1 SLOAD PUSH1 0x1 DUP2 ADD DUP3 SSTORE PUSH1 0x0 SWAP2 SWAP1 SWAP2 MSTORE PUSH32 0xF652222313E28459528D920B65115C16C04F3EFC82AAEDC97BE59F3F377C0D3F ADD DUP1 SLOAD PUSH20 0xFFFFFFFFFFFFFFFFFFFFFFFFFFFFFFFFFFFFFFFF NOT AND CALLER OR SWAP1 SSTORE JUMPDEST CALLER PUSH1 0x0 SWAP1 DUP2 MSTORE PUSH1 0x5 PUSH1 0x20 SWAP1 DUP2 MSTORE PUSH1 0x40 SWAP2 DUP3 SWAP1 KECCAK256 DUP4 MLOAD DUP2 SLOAD DUP4 DUP7 ADD MLOAD ISZERO ISZERO PUSH1 0x1 PUSH1 0xA0 SHL MUL PUSH32 0xFFFFFFFFFFFFFFFFFFFFFF00FFFFFFFFFFFFFFFFFFFFFFFFFFFFFFFFFFFFFFFF PUSH1 0x1 PUSH1 0x1 PUSH1 0xA0 SHL SUB SWAP4 SWAP1 SWAP4 AND PUSH20 0xFFFFFFFFFFFFFFFFFFFFFFFFFFFFFFFFFFFFFFFF NOT SWAP1 SWAP3 AND SWAP2 SWAP1 SWAP2 OR SWAP2 SWAP1 SWAP2 AND OR DUP2 SSTORE SWAP2 DUP4 ADD MLOAD DUP1 MLOAD DUP5 SWAP4 SWAP3 PUSH2 0x29F SWAP3 PUSH1 0x1 DUP6 ADD SWAP3 SWAP2 ADD SWAP1 PUSH2 0x2485 JUMP JUMPDEST POP PUSH1 0x60 DUP3 ADD MLOAD PUSH1 0x2 DUP3 ADD DUP1 SLOAD PUSH2 0xFFFF NOT AND PUSH2 0xFFFF SWAP1 SWAP3 AND SWAP2 SWAP1 SWAP2 OR SWAP1 SSTORE PUSH1 0x80 SWAP1 SWAP2 ADD MLOAD PUSH1 0x3 SWAP2 DUP3 ADD SSTORE CALLER PUSH1 0x0 SWAP1 DUP2 MSTORE PUSH1 0x20 SWAP2 SWAP1 SWAP2 MSTORE PUSH1 0x40 SWAP1 KECCAK256 SLOAD PUSH1 0xFF AND PUSH2 0x3A1 JUMPI PUSH1 0x40 DUP1 MLOAD PUSH1 0x60 DUP2 ADD DUP3 MSTORE PUSH1 0x1 DUP1 DUP3 MSTORE PUSH1 0x0 PUSH1 0x20 DUP1 DUP5 ADD DUP3 DUP2 MSTORE DUP5 DUP7 ADD DUP4 DUP2 MSTORE CALLER DUP1 DUP6 MSTORE PUSH1 0x3 SWAP1 SWAP4 MSTORE SWAP6 DUP4 KECCAK256 SWAP5 MLOAD DUP6 SLOAD SWAP2 MLOAD SWAP7 MLOAD PUSH1 0xFF NOT SWAP1 SWAP3 AND SWAP1 ISZERO ISZERO OR PUSH5 0xFFFFFFFF00 NOT AND PUSH2 0x100 PUSH4 0xFFFFFFFF SWAP8 DUP9 AND MUL OR PUSH9 0xFFFFFFFF0000000000 NOT AND PUSH6 0x10000000000 SWAP7 SWAP1 SWAP2 AND SWAP6 SWAP1 SWAP6 MUL SWAP5 SWAP1 SWAP5 OR SWAP1 SWAP3 SSTORE PUSH1 0x4 DUP1 SLOAD SWAP2 DUP3 ADD DUP2 SSTORE SWAP1 SWAP2 MSTORE PUSH32 0x8A35ACFBC15FF81A39AE7D344FD709F28E8600B4AA8C65C6B64BFE7FE36BD19B ADD DUP1 SLOAD PUSH20 0xFFFFFFFFFFFFFFFFFFFFFFFFFFFFFFFFFFFFFFFF NOT AND SWAP1 SWAP2 OR SWAP1 SSTORE JUMPDEST POP POP POP POP JUMP JUMPDEST PUSH1 0x1 PUSH1 0x1 PUSH1 0xA0 SHL SUB DUP4 AND PUSH1 0x0 SWAP1 DUP2 MSTORE PUSH1 0x5 PUSH1 0x20 MSTORE PUSH1 0x40 SWAP1 KECCAK256 SLOAD PUSH1 0x1 PUSH1 0xA0 SHL SWAP1 DIV PUSH1 0xFF AND PUSH2 0x3EF JUMPI PUSH1 0x40 MLOAD PUSH3 0x461BCD PUSH1 0xE5 SHL DUP2 MSTORE PUSH1 0x4 ADD PUSH2 0x3E6 SWAP1 PUSH2 0x2C5E JUMP JUMPDEST PUSH1 0x40 MLOAD DUP1 SWAP2 SUB SWAP1 REVERT JUMPDEST PUSH1 0x0 DIFFICULTY TIMESTAMP CALLER PUSH1 0x40 MLOAD PUSH1 0x20 ADD PUSH2 0x406 SWAP4 SWAP3 SWAP2 SWAP1 PUSH2 0x2A28 JUMP JUMPDEST PUSH1 0x40 DUP1 MLOAD PUSH1 0x1F NOT DUP2 DUP5 SUB ADD DUP2 MSTORE DUP3 DUP3 MSTORE DUP1 MLOAD PUSH1 0x20 SWAP2 DUP3 ADD KECCAK256 PUSH1 0x1 PUSH1 0x1 PUSH1 0xA0 SHL SUB DUP9 AND PUSH1 0x0 SWAP1 DUP2 MSTORE PUSH1 0x5 DUP4 MSTORE DUP4 DUP2 KECCAK256 PUSH1 0x1 ADD DUP1 SLOAD DUP1 DUP6 MUL DUP8 ADD DUP6 ADD SWAP1 SWAP6 MSTORE DUP5 DUP7 MSTORE SWAP2 SWAP6 POP SWAP4 PUSH2 0x4D7 SWAP4 DUP7 SWAP4 DUP10 SWAP4 SWAP2 SWAP1 DUP4 ADD DUP3 DUP3 DUP1 ISZERO PUSH2 0x4AB JUMPI PUSH1 0x20 MUL DUP3 ADD SWAP2 SWAP1 PUSH1 0x0 MSTORE PUSH1 0x20 PUSH1 0x0 KECCAK256 SWAP1 PUSH1 0x0 SWAP1 JUMPDEST DUP3 DUP3 SWAP1 SLOAD SWAP1 PUSH2 0x100 EXP SWAP1 DIV PUSH2 0xFFFF AND PUSH2 0xFFFF AND DUP2 MSTORE PUSH1 0x20 ADD SWAP1 PUSH1 0x2 ADD SWAP1 PUSH1 0x20 DUP3 PUSH1 0x1 ADD DIV SWAP3 DUP4 ADD SWAP3 PUSH1 0x1 SUB DUP3 MUL SWAP2 POP DUP1 DUP5 GT PUSH2 0x472 JUMPI SWAP1 POP JUMPDEST POP POP POP POP PUSH1 0x1 PUSH1 0x1 PUSH1 0xA0 SHL SUB DUP11 AND PUSH1 0x0 SWAP1 DUP2 MSTORE PUSH1 0x5 PUSH1 0x20 MSTORE PUSH1 0x40 SWAP1 KECCAK256 PUSH1 0x2 ADD SLOAD DUP9 SWAP2 POP PUSH2 0xFFFF AND PUSH2 0xFF5 JUMP JUMPDEST SWAP1 POP DUP1 PUSH1 0xC0 ADD MLOAD ISZERO PUSH2 0x57F JUMPI PUSH1 0x1 PUSH1 0x1 PUSH1 0xA0 SHL SUB DUP6 AND PUSH1 0x0 SWAP1 DUP2 MSTORE PUSH1 0x3 PUSH1 0x20 MSTORE PUSH1 0x40 SWAP1 KECCAK256 DUP1 SLOAD PUSH2 0x100 SWAP1 DIV PUSH4 0xFFFFFFFF AND SWAP1 PUSH1 0x1 PUSH2 0x514 DUP4 PUSH2 0x3174 JUMP JUMPDEST DUP3 SLOAD PUSH2 0x100 SWAP3 SWAP1 SWAP3 EXP PUSH4 0xFFFFFFFF DUP2 DUP2 MUL NOT SWAP1 SWAP4 AND SWAP2 DUP4 AND MUL OR SWAP1 SWAP2 SSTORE CALLER PUSH1 0x0 SWAP1 DUP2 MSTORE PUSH1 0x3 PUSH1 0x20 MSTORE PUSH1 0x40 SWAP1 KECCAK256 DUP1 SLOAD PUSH6 0x10000000000 SWAP1 DIV SWAP1 SWAP2 AND SWAP2 POP PUSH1 0x5 PUSH2 0x55B DUP4 PUSH2 0x3174 JUMP JUMPDEST SWAP2 SWAP1 PUSH2 0x100 EXP DUP2 SLOAD DUP2 PUSH4 0xFFFFFFFF MUL NOT AND SWAP1 DUP4 PUSH4 0xFFFFFFFF AND MUL OR SWAP1 SSTORE POP POP PUSH2 0x621 JUMP JUMPDEST DUP1 PUSH1 0xE0 ADD MLOAD ISZERO PUSH2 0x621 JUMPI CALLER PUSH1 0x0 SWAP1 DUP2 MSTORE PUSH1 0x3 PUSH1 0x20 MSTORE PUSH1 0x40 SWAP1 KECCAK256 DUP1 SLOAD PUSH2 0x100 SWAP1 DIV PUSH4 0xFFFFFFFF AND SWAP1 PUSH1 0x1 PUSH2 0x5B1 DUP4 PUSH2 0x3174 JUMP JUMPDEST DUP3 SLOAD PUSH2 0x100 SWAP3 SWAP1 SWAP3 EXP PUSH4 0xFFFFFFFF DUP2 DUP2 MUL NOT SWAP1 SWAP4 AND SWAP2 DUP4 AND MUL OR SWAP1 SWAP2 SSTORE PUSH1 0x1 PUSH1 0x1 PUSH1 0xA0 SHL SUB DUP8 AND PUSH1 0x0 SWAP1 DUP2 MSTORE PUSH1 0x3 PUSH1 0x20 MSTORE PUSH1 0x40 SWAP1 KECCAK256 DUP1 SLOAD PUSH6 0x10000000000 SWAP1 DIV SWAP1 SWAP2 AND SWAP2 POP PUSH1 0x5 PUSH2 0x601 DUP4 PUSH2 0x3174 JUMP JUMPDEST SWAP2 SWAP1 PUSH2 0x100 EXP DUP2 SLOAD DUP2 PUSH4 0xFFFFFFFF MUL NOT AND SWAP1 DUP4 PUSH4 0xFFFFFFFF AND MUL OR SWAP1 SSTORE POP POP JUMPDEST PUSH2 0x120 DUP2 ADD DUP3 SWAP1 MSTORE PUSH1 0x40 MLOAD PUSH1 0x1 PUSH1 0x1 PUSH1 0xA0 SHL SUB DUP7 AND SWAP1 CALLER SWAP1 PUSH32 0x6AD9617AB2B98A0608D4058409EB1FFAD23A12E77D1D5F7F97107228343A7753 SWAP1 PUSH2 0x666 SWAP1 DUP6 SWAP1 PUSH2 0x2D4F JUMP JUMPDEST PUSH1 0x40 MLOAD DUP1 SWAP2 SUB SWAP1 LOG3 POP POP POP POP POP JUMP JUMPDEST PUSH1 0x0 SLOAD PUSH1 0x60 SWAP1 PUSH1 0x1 PUSH1 0x1 PUSH1 0xA0 SHL SUB AND CALLER EQ PUSH2 0x6A2 JUMPI PUSH1 0x40 MLOAD PUSH3 0x461BCD PUSH1 0xE5 SHL DUP2 MSTORE PUSH1 0x4 ADD PUSH2 0x3E6 SWAP1 PUSH2 0x2CF2 JUMP JUMPDEST PUSH1 0x2 DUP1 SLOAD DUP1 PUSH1 0x20 MUL PUSH1 0x20 ADD PUSH1 0x40 MLOAD SWAP1 DUP2 ADD PUSH1 0x40 MSTORE DUP1 SWAP3 SWAP2 SWAP1 DUP2 DUP2 MSTORE PUSH1 0x20 ADD PUSH1 0x0 SWAP1 JUMPDEST DUP3 DUP3 LT ISZERO PUSH2 0x763 JUMPI PUSH1 0x0 DUP5 DUP2 MSTORE PUSH1 0x20 SWAP1 DUP2 SWAP1 KECCAK256 PUSH1 0x40 DUP1 MLOAD PUSH1 0xE0 DUP2 ADD DUP3 MSTORE PUSH1 0x3 DUP7 MUL SWAP1 SWAP3 ADD DUP1 SLOAD PUSH2 0xFFFF DUP1 DUP3 AND DUP6 MSTORE PUSH3 0x10000 SWAP2 DUP3 SWAP1 DIV DUP2 AND DUP6 DUP8 ADD MSTORE DUP4 MLOAD DUP1 DUP6 ADD DUP6 MSTORE PUSH1 0x1 DUP1 DUP6 ADD SLOAD DUP1 DUP5 AND DUP4 MSTORE DUP5 SWAP1 DIV DUP4 AND DUP3 DUP10 ADD MSTORE SWAP5 DUP7 ADD MSTORE PUSH1 0x2 SWAP1 SWAP3 ADD SLOAD DUP1 DUP4 AND PUSH1 0x60 DUP7 ADD MSTORE SWAP1 DUP2 DIV DUP3 AND PUSH1 0x80 DUP6 ADD MSTORE PUSH5 0x100000000 DUP2 DIV DUP3 AND PUSH1 0xA0 DUP6 ADD MSTORE PUSH7 0x1000000000000 SWAP1 DIV AND PUSH1 0xC0 DUP4 ADD MSTORE SWAP1 DUP4 MSTORE SWAP1 SWAP3 ADD SWAP2 ADD PUSH2 0x6C4 JUMP JUMPDEST POP POP POP POP SWAP1 POP SWAP1 JUMP JUMPDEST PUSH1 0x4 SLOAD PUSH1 0x60 SWAP1 PUSH1 0x0 SWAP1 PUSH8 0xFFFFFFFFFFFFFFFF DUP2 GT ISZERO PUSH2 0x79B JUMPI PUSH4 0x4E487B71 PUSH1 0xE0 SHL PUSH1 0x0 MSTORE PUSH1 0x41 PUSH1 0x4 MSTORE PUSH1 0x24 PUSH1 0x0 REVERT JUMPDEST PUSH1 0x40 MLOAD SWAP1 DUP1 DUP3 MSTORE DUP1 PUSH1 0x20 MUL PUSH1 0x20 ADD DUP3 ADD PUSH1 0x40 MSTORE DUP1 ISZERO PUSH2 0x7D4 JUMPI DUP2 PUSH1 0x20 ADD JUMPDEST PUSH2 0x7C1 PUSH2 0x252E JUMP JUMPDEST DUP2 MSTORE PUSH1 0x20 ADD SWAP1 PUSH1 0x1 SWAP1 SUB SWAP1 DUP2 PUSH2 0x7B9 JUMPI SWAP1 POP JUMPDEST POP SWAP1 POP PUSH1 0x0 JUMPDEST PUSH1 0x4 SLOAD DUP2 LT ISZERO PUSH2 0x8BB JUMPI PUSH1 0x0 PUSH1 0x4 DUP3 DUP2 SLOAD DUP2 LT PUSH2 0x807 JUMPI PUSH4 0x4E487B71 PUSH1 0xE0 SHL PUSH1 0x0 MSTORE PUSH1 0x32 PUSH1 0x4 MSTORE PUSH1 0x24 PUSH1 0x0 REVERT JUMPDEST PUSH1 0x0 SWAP2 DUP3 MSTORE PUSH1 0x20 DUP1 DUP4 KECCAK256 SWAP1 SWAP2 ADD SLOAD PUSH1 0x40 DUP1 MLOAD PUSH1 0x80 DUP2 ADD DUP3 MSTORE PUSH1 0x1 PUSH1 0x1 PUSH1 0xA0 SHL SUB SWAP1 SWAP3 AND DUP1 DUP4 MSTORE DUP1 DUP6 MSTORE PUSH1 0x5 DUP5 MSTORE DUP2 DUP6 KECCAK256 PUSH1 0x3 SWAP1 DUP2 ADD SLOAD DUP5 DUP7 ADD MSTORE DUP2 DUP7 MSTORE DUP1 DUP6 MSTORE DUP3 DUP7 KECCAK256 SLOAD PUSH4 0xFFFFFFFF PUSH2 0x100 DUP3 DIV DUP2 AND SWAP5 DUP7 ADD SWAP5 SWAP1 SWAP5 MSTORE SWAP6 DUP3 SWAP1 MSTORE SWAP1 SWAP4 MSTORE PUSH6 0x10000000000 SWAP1 SWAP4 DIV SWAP1 SWAP3 AND PUSH1 0x60 DUP4 ADD MSTORE DUP5 MLOAD SWAP1 SWAP3 POP DUP5 SWAP1 DUP5 SWAP1 DUP2 LT PUSH2 0x89C JUMPI PUSH4 0x4E487B71 PUSH1 0xE0 SHL PUSH1 0x0 MSTORE PUSH1 0x32 PUSH1 0x4 MSTORE PUSH1 0x24 PUSH1 0x0 REVERT JUMPDEST PUSH1 0x20 MUL PUSH1 0x20 ADD ADD DUP2 SWAP1 MSTORE POP POP DUP1 DUP1 PUSH2 0x8B3 SWAP1 PUSH2 0x3159 JUMP JUMPDEST SWAP2 POP POP PUSH2 0x7DA JUMP JUMPDEST POP SWAP1 POP SWAP1 JUMP JUMPDEST PUSH1 0x6 SLOAD PUSH1 0x60 SWAP1 PUSH1 0x0 SWAP1 PUSH8 0xFFFFFFFFFFFFFFFF DUP2 GT ISZERO PUSH2 0x8F0 JUMPI PUSH4 0x4E487B71 PUSH1 0xE0 SHL PUSH1 0x0 MSTORE PUSH1 0x41 PUSH1 0x4 MSTORE PUSH1 0x24 PUSH1 0x0 REVERT JUMPDEST PUSH1 0x40 MLOAD SWAP1 DUP1 DUP3 MSTORE DUP1 PUSH1 0x20 MUL PUSH1 0x20 ADD DUP3 ADD PUSH1 0x40 MSTORE DUP1 ISZERO PUSH2 0x929 JUMPI DUP2 PUSH1 0x20 ADD JUMPDEST PUSH2 0x916 PUSH2 0x2555 JUMP JUMPDEST DUP2 MSTORE PUSH1 0x20 ADD SWAP1 PUSH1 0x1 SWAP1 SUB SWAP1 DUP2 PUSH2 0x90E JUMPI SWAP1 POP JUMPDEST POP SWAP1 POP PUSH1 0x0 JUMPDEST PUSH1 0x6 SLOAD DUP2 LT ISZERO PUSH2 0x8BB JUMPI PUSH1 0x5 PUSH1 0x0 PUSH1 0x6 DUP4 DUP2 SLOAD DUP2 LT PUSH2 0x95E JUMPI PUSH4 0x4E487B71 PUSH1 0xE0 SHL PUSH1 0x0 MSTORE PUSH1 0x32 PUSH1 0x4 MSTORE PUSH1 0x24 PUSH1 0x0 REVERT JUMPDEST PUSH1 0x0 SWAP2 DUP3 MSTORE PUSH1 0x20 DUP1 DUP4 KECCAK256 SWAP2 SWAP1 SWAP2 ADD SLOAD PUSH1 0x1 PUSH1 0x1 PUSH1 0xA0 SHL SUB SWAP1 DUP2 AND DUP5 MSTORE DUP4 DUP3 ADD SWAP5 SWAP1 SWAP5 MSTORE PUSH1 0x40 SWAP3 DUP4 ADD SWAP1 SWAP2 KECCAK256 DUP3 MLOAD PUSH1 0xA0 DUP2 ADD DUP5 MSTORE DUP2 SLOAD SWAP5 DUP6 AND DUP2 MSTORE PUSH1 0x1 PUSH1 0xA0 SHL SWAP1 SWAP5 DIV PUSH1 0xFF AND ISZERO ISZERO DUP5 DUP4 ADD MSTORE PUSH1 0x1 DUP2 ADD DUP1 SLOAD DUP5 MLOAD DUP2 DUP6 MUL DUP2 ADD DUP6 ADD DUP7 MSTORE DUP2 DUP2 MSTORE SWAP3 SWAP5 DUP7 ADD SWAP4 DUP4 ADD DUP3 DUP3 DUP1 ISZERO PUSH2 0xA19 JUMPI PUSH1 0x20 MUL DUP3 ADD SWAP2 SWAP1 PUSH1 0x0 MSTORE PUSH1 0x20 PUSH1 0x0 KECCAK256 SWAP1 PUSH1 0x0 SWAP1 JUMPDEST DUP3 DUP3 SWAP1 SLOAD SWAP1 PUSH2 0x100 EXP SWAP1 DIV PUSH2 0xFFFF AND PUSH2 0xFFFF AND DUP2 MSTORE PUSH1 0x20 ADD SWAP1 PUSH1 0x2 ADD SWAP1 PUSH1 0x20 DUP3 PUSH1 0x1 ADD DIV SWAP3 DUP4 ADD SWAP3 PUSH1 0x1 SUB DUP3 MUL SWAP2 POP DUP1 DUP5 GT PUSH2 0x9E0 JUMPI SWAP1 POP JUMPDEST POP POP POP SWAP2 DUP4 MSTORE POP POP PUSH1 0x2 DUP3 ADD SLOAD PUSH2 0xFFFF AND PUSH1 0x20 DUP3 ADD MSTORE PUSH1 0x3 SWAP1 SWAP2 ADD SLOAD PUSH1 0x40 SWAP1 SWAP2 ADD MSTORE DUP3 MLOAD DUP4 SWAP1 DUP4 SWAP1 DUP2 LT PUSH2 0xA5D JUMPI PUSH4 0x4E487B71 PUSH1 0xE0 SHL PUSH1 0x0 MSTORE PUSH1 0x32 PUSH1 0x4 MSTORE PUSH1 0x24 PUSH1 0x0 REVERT JUMPDEST PUSH1 0x20 MUL PUSH1 0x20 ADD ADD DUP2 SWAP1 MSTORE POP DUP1 DUP1 PUSH2 0xA73 SWAP1 PUSH2 0x3159 JUMP JUMPDEST SWAP2 POP POP PUSH2 0x92F JUMP JUMPDEST PUSH1 0x0 SLOAD PUSH1 0x1 PUSH1 0x1 PUSH1 0xA0 SHL SUB AND DUP2 JUMP JUMPDEST PUSH1 0x0 SLOAD PUSH1 0x1 PUSH1 0x1 PUSH1 0xA0 SHL SUB AND CALLER EQ PUSH2 0xAB4 JUMPI PUSH1 0x40 MLOAD PUSH3 0x461BCD PUSH1 0xE5 SHL DUP2 MSTORE PUSH1 0x4 ADD PUSH2 0x3E6 SWAP1 PUSH2 0x2CF2 JUMP JUMPDEST PUSH1 0x0 PUSH1 0x40 MLOAD DUP1 PUSH1 0xE0 ADD PUSH1 0x40 MSTORE DUP1 DUP11 PUSH2 0xFFFF AND DUP2 MSTORE PUSH1 0x20 ADD DUP10 PUSH2 0xFFFF AND DUP2 MSTORE PUSH1 0x20 ADD PUSH1 0x40 MLOAD DUP1 PUSH1 0x40 ADD PUSH1 0x40 MSTORE DUP1 DUP11 PUSH2 0xFFFF AND DUP2 MSTORE PUSH1 0x20 ADD DUP10 PUSH2 0xFFFF AND DUP2 MSTORE POP DUP2 MSTORE PUSH1 0x20 ADD DUP7 PUSH2 0xFFFF AND DUP2 MSTORE PUSH1 0x20 ADD DUP6 PUSH2 0xFFFF AND DUP2 MSTORE PUSH1 0x20 ADD DUP5 PUSH2 0xFFFF AND DUP2 MSTORE PUSH1 0x20 ADD DUP4 PUSH2 0xFFFF AND DUP2 MSTORE POP SWAP1 POP DUP1 PUSH1 0x1 PUSH1 0x0 DUP13 PUSH2 0xFFFF AND DUP2 MSTORE PUSH1 0x20 ADD SWAP1 DUP2 MSTORE PUSH1 0x20 ADD PUSH1 0x0 KECCAK256 PUSH1 0x0 DUP3 ADD MLOAD DUP2 PUSH1 0x0 ADD PUSH1 0x0 PUSH2 0x100 EXP DUP2 SLOAD DUP2 PUSH2 0xFFFF MUL NOT AND SWAP1 DUP4 PUSH2 0xFFFF AND MUL OR SWAP1 SSTORE POP PUSH1 0x20 DUP3 ADD MLOAD DUP2 PUSH1 0x0 ADD PUSH1 0x2 PUSH2 0x100 EXP DUP2 SLOAD DUP2 PUSH2 0xFFFF MUL NOT AND SWAP1 DUP4 PUSH2 0xFFFF AND MUL OR SWAP1 SSTORE POP PUSH1 0x40 DUP3 ADD MLOAD DUP2 PUSH1 0x1 ADD PUSH1 0x0 DUP3 ADD MLOAD DUP2 PUSH1 0x0 ADD PUSH1 0x0 PUSH2 0x100 EXP DUP2 SLOAD DUP2 PUSH2 0xFFFF MUL NOT AND SWAP1 DUP4 PUSH2 0xFFFF AND MUL OR SWAP1 SSTORE POP PUSH1 0x20 DUP3 ADD MLOAD DUP2 PUSH1 0x0 ADD PUSH1 0x2 PUSH2 0x100 EXP DUP2 SLOAD DUP2 PUSH2 0xFFFF MUL NOT AND SWAP1 DUP4 PUSH2 0xFFFF AND MUL OR SWAP1 SSTORE POP POP POP PUSH1 0x60 DUP3 ADD MLOAD DUP2 PUSH1 0x2 ADD PUSH1 0x0 PUSH2 0x100 EXP DUP2 SLOAD DUP2 PUSH2 0xFFFF MUL NOT AND SWAP1 DUP4 PUSH2 0xFFFF AND MUL OR SWAP1 SSTORE POP PUSH1 0x80 DUP3 ADD MLOAD DUP2 PUSH1 0x2 ADD PUSH1 0x2 PUSH2 0x100 EXP DUP2 SLOAD DUP2 PUSH2 0xFFFF MUL NOT AND SWAP1 DUP4 PUSH2 0xFFFF AND MUL OR SWAP1 SSTORE POP PUSH1 0xA0 DUP3 ADD MLOAD DUP2 PUSH1 0x2 ADD PUSH1 0x4 PUSH2 0x100 EXP DUP2 SLOAD DUP2 PUSH2 0xFFFF MUL NOT AND SWAP1 DUP4 PUSH2 0xFFFF AND MUL OR SWAP1 SSTORE POP PUSH1 0xC0 DUP3 ADD MLOAD DUP2 PUSH1 0x2 ADD PUSH1 0x6 PUSH2 0x100 EXP DUP2 SLOAD DUP2 PUSH2 0xFFFF MUL NOT AND SWAP1 DUP4 PUSH2 0xFFFF AND MUL OR SWAP1 SSTORE POP SWAP1 POP POP PUSH1 0x2 DUP2 SWAP1 DUP1 PUSH1 0x1 DUP2 SLOAD ADD DUP1 DUP3 SSTORE DUP1 SWAP2 POP POP PUSH1 0x1 SWAP1 SUB SWAP1 PUSH1 0x0 MSTORE PUSH1 0x20 PUSH1 0x0 KECCAK256 SWAP1 PUSH1 0x3 MUL ADD PUSH1 0x0 SWAP1 SWAP2 SWAP1 SWAP2 SWAP1 SWAP2 POP PUSH1 0x0 DUP3 ADD MLOAD DUP2 PUSH1 0x0 ADD PUSH1 0x0 PUSH2 0x100 EXP DUP2 SLOAD DUP2 PUSH2 0xFFFF MUL NOT AND SWAP1 DUP4 PUSH2 0xFFFF AND MUL OR SWAP1 SSTORE POP PUSH1 0x20 DUP3 ADD MLOAD DUP2 PUSH1 0x0 ADD PUSH1 0x2 PUSH2 0x100 EXP DUP2 SLOAD DUP2 PUSH2 0xFFFF MUL NOT AND SWAP1 DUP4 PUSH2 0xFFFF AND MUL OR SWAP1 SSTORE POP PUSH1 0x40 DUP3 ADD MLOAD DUP2 PUSH1 0x1 ADD PUSH1 0x0 DUP3 ADD MLOAD DUP2 PUSH1 0x0 ADD PUSH1 0x0 PUSH2 0x100 EXP DUP2 SLOAD DUP2 PUSH2 0xFFFF MUL NOT AND SWAP1 DUP4 PUSH2 0xFFFF AND MUL OR SWAP1 SSTORE POP PUSH1 0x20 DUP3 ADD MLOAD DUP2 PUSH1 0x0 ADD PUSH1 0x2 PUSH2 0x100 EXP DUP2 SLOAD DUP2 PUSH2 0xFFFF MUL NOT AND SWAP1 DUP4 PUSH2 0xFFFF AND MUL OR SWAP1 SSTORE POP POP POP PUSH1 0x60 DUP3 ADD MLOAD DUP2 PUSH1 0x2 ADD PUSH1 0x0 PUSH2 0x100 EXP DUP2 SLOAD DUP2 PUSH2 0xFFFF MUL NOT AND SWAP1 DUP4 PUSH2 0xFFFF AND MUL OR SWAP1 SSTORE POP PUSH1 0x80 DUP3 ADD MLOAD DUP2 PUSH1 0x2 ADD PUSH1 0x2 PUSH2 0x100 EXP DUP2 SLOAD DUP2 PUSH2 0xFFFF MUL NOT AND SWAP1 DUP4 PUSH2 0xFFFF AND MUL OR SWAP1 SSTORE POP PUSH1 0xA0 DUP3 ADD MLOAD DUP2 PUSH1 0x2 ADD PUSH1 0x4 PUSH2 0x100 EXP DUP2 SLOAD DUP2 PUSH2 0xFFFF MUL NOT AND SWAP1 DUP4 PUSH2 0xFFFF AND MUL OR SWAP1 SSTORE POP PUSH1 0xC0 DUP3 ADD MLOAD DUP2 PUSH1 0x2 ADD PUSH1 0x6 PUSH2 0x100 EXP DUP2 SLOAD DUP2 PUSH2 0xFFFF MUL NOT AND SWAP1 DUP4 PUSH2 0xFFFF AND MUL OR SWAP1 SSTORE POP POP POP POP POP POP POP POP POP POP POP POP POP JUMP JUMPDEST PUSH2 0xDC2 PUSH2 0x2555 JUMP JUMPDEST CALLER PUSH1 0x0 SWAP1 DUP2 MSTORE PUSH1 0x5 PUSH1 0x20 MSTORE PUSH1 0x40 SWAP1 KECCAK256 SLOAD PUSH1 0x1 PUSH1 0xA0 SHL SWAP1 DIV PUSH1 0xFF AND PUSH2 0xDF8 JUMPI PUSH1 0x40 MLOAD PUSH3 0x461BCD PUSH1 0xE5 SHL DUP2 MSTORE PUSH1 0x4 ADD PUSH2 0x3E6 SWAP1 PUSH2 0x2CBB JUMP JUMPDEST CALLER PUSH1 0x0 SWAP1 DUP2 MSTORE PUSH1 0x5 PUSH1 0x20 SWAP1 DUP2 MSTORE PUSH1 0x40 SWAP2 DUP3 SWAP1 KECCAK256 DUP3 MLOAD PUSH1 0xA0 DUP2 ADD DUP5 MSTORE DUP2 SLOAD PUSH1 0x1 PUSH1 0x1 PUSH1 0xA0 SHL SUB DUP2 AND DUP3 MSTORE PUSH1 0x1 PUSH1 0xA0 SHL SWAP1 DIV PUSH1 0xFF AND ISZERO ISZERO DUP2 DUP5 ADD MSTORE PUSH1 0x1 DUP3 ADD DUP1 SLOAD DUP6 MLOAD DUP2 DUP7 MUL DUP2 ADD DUP7 ADD DUP8 MSTORE DUP2 DUP2 MSTORE SWAP3 SWAP6 SWAP4 SWAP5 SWAP4 DUP7 ADD SWAP4 DUP4 ADD DUP3 DUP3 DUP1 ISZERO PUSH2 0xEA4 JUMPI PUSH1 0x20 MUL DUP3 ADD SWAP2 SWAP1 PUSH1 0x0 MSTORE PUSH1 0x20 PUSH1 0x0 KECCAK256 SWAP1 PUSH1 0x0 SWAP1 JUMPDEST DUP3 DUP3 SWAP1 SLOAD SWAP1 PUSH2 0x100 EXP SWAP1 DIV PUSH2 0xFFFF AND PUSH2 0xFFFF AND DUP2 MSTORE PUSH1 0x20 ADD SWAP1 PUSH1 0x2 ADD SWAP1 PUSH1 0x20 DUP3 PUSH1 0x1 ADD DIV SWAP3 DUP4 ADD SWAP3 PUSH1 0x1 SUB DUP3 MUL SWAP2 POP DUP1 DUP5 GT PUSH2 0xE6B JUMPI SWAP1 POP JUMPDEST POP POP POP SWAP2 DUP4 MSTORE POP POP PUSH1 0x2 DUP3 ADD SLOAD PUSH2 0xFFFF AND PUSH1 0x20 DUP3 ADD MSTORE PUSH1 0x3 SWAP1 SWAP2 ADD SLOAD PUSH1 0x40 SWAP1 SWAP2 ADD MSTORE SWAP1 POP SWAP1 JUMP JUMPDEST PUSH2 0xED3 PUSH2 0x2584 JUMP JUMPDEST DUP5 MLOAD PUSH1 0x4 EQ PUSH2 0xEF4 JUMPI PUSH1 0x40 MLOAD PUSH3 0x461BCD PUSH1 0xE5 SHL DUP2 MSTORE PUSH1 0x4 ADD PUSH2 0x3E6 SWAP1 PUSH2 0x2C01 JUMP JUMPDEST DUP4 MLOAD PUSH1 0x4 EQ PUSH2 0xF15 JUMPI PUSH1 0x40 MLOAD PUSH3 0x461BCD PUSH1 0xE5 SHL DUP2 MSTORE PUSH1 0x4 ADD PUSH2 0x3E6 SWAP1 PUSH2 0x2C01 JUMP JUMPDEST PUSH2 0xFE9 DUP7 PUSH1 0x1 PUSH1 0x2 DUP1 SLOAD DUP1 PUSH1 0x20 MUL PUSH1 0x20 ADD PUSH1 0x40 MLOAD SWAP1 DUP2 ADD PUSH1 0x40 MSTORE DUP1 SWAP3 SWAP2 SWAP1 DUP2 DUP2 MSTORE PUSH1 0x20 ADD PUSH1 0x0 SWAP1 JUMPDEST DUP3 DUP3 LT ISZERO PUSH2 0xFDC JUMPI PUSH1 0x0 DUP5 DUP2 MSTORE PUSH1 0x20 SWAP1 DUP2 SWAP1 KECCAK256 PUSH1 0x40 DUP1 MLOAD PUSH1 0xE0 DUP2 ADD DUP3 MSTORE PUSH1 0x3 DUP7 MUL SWAP1 SWAP3 ADD DUP1 SLOAD PUSH2 0xFFFF DUP1 DUP3 AND DUP6 MSTORE PUSH3 0x10000 SWAP2 DUP3 SWAP1 DIV DUP2 AND DUP6 DUP8 ADD MSTORE DUP4 MLOAD DUP1 DUP6 ADD DUP6 MSTORE PUSH1 0x1 DUP1 DUP6 ADD SLOAD DUP1 DUP5 AND DUP4 MSTORE DUP5 SWAP1 DIV DUP4 AND DUP3 DUP10 ADD MSTORE SWAP5 DUP7 ADD MSTORE PUSH1 0x2 SWAP1 SWAP3 ADD SLOAD DUP1 DUP4 AND PUSH1 0x60 DUP7 ADD MSTORE SWAP1 DUP2 DIV DUP3 AND PUSH1 0x80 DUP6 ADD MSTORE PUSH5 0x100000000 DUP2 DIV DUP3 AND PUSH1 0xA0 DUP6 ADD MSTORE PUSH7 0x1000000000000 SWAP1 DIV AND PUSH1 0xC0 DUP4 ADD MSTORE SWAP1 DUP4 MSTORE SWAP1 SWAP3 ADD SWAP2 ADD PUSH2 0xF3D JUMP JUMPDEST POP POP POP POP DUP9 DUP9 DUP9 DUP9 PUSH2 0x1100 JUMP JUMPDEST SWAP1 POP JUMPDEST SWAP6 SWAP5 POP POP POP POP POP JUMP JUMPDEST PUSH2 0xFFD PUSH2 0x2584 JUMP JUMPDEST DUP5 MLOAD PUSH1 0x4 EQ PUSH2 0x101E JUMPI PUSH1 0x40 MLOAD PUSH3 0x461BCD PUSH1 0xE5 SHL DUP2 MSTORE PUSH1 0x4 ADD PUSH2 0x3E6 SWAP1 PUSH2 0x2C01 JUMP JUMPDEST DUP4 MLOAD PUSH1 0x4 EQ PUSH2 0x103F JUMPI PUSH1 0x40 MLOAD PUSH3 0x461BCD PUSH1 0xE5 SHL DUP2 MSTORE PUSH1 0x4 ADD PUSH2 0x3E6 SWAP1 PUSH2 0x2C01 JUMP JUMPDEST PUSH1 0x2 DUP1 SLOAD PUSH1 0x40 DUP1 MLOAD PUSH1 0x20 DUP1 DUP5 MUL DUP3 ADD DUP2 ADD SWAP1 SWAP3 MSTORE DUP3 DUP2 MSTORE PUSH2 0xFE9 SWAP4 DUP11 SWAP4 PUSH1 0x0 SWAP4 DUP5 SWAP1 DUP5 ADD DUP3 ISZERO PUSH2 0xFDC JUMPI PUSH1 0x0 DUP5 DUP2 MSTORE PUSH1 0x20 SWAP1 DUP2 SWAP1 KECCAK256 PUSH1 0x40 DUP1 MLOAD PUSH1 0xE0 DUP2 ADD DUP3 MSTORE PUSH1 0x3 DUP7 MUL SWAP1 SWAP3 ADD DUP1 SLOAD PUSH2 0xFFFF DUP1 DUP3 AND DUP6 MSTORE PUSH3 0x10000 SWAP2 DUP3 SWAP1 DIV DUP2 AND DUP6 DUP8 ADD MSTORE DUP4 MLOAD DUP1 DUP6 ADD DUP6 MSTORE PUSH1 0x1 DUP1 DUP6 ADD SLOAD DUP1 DUP5 AND DUP4 MSTORE DUP5 SWAP1 DIV DUP4 AND DUP3 DUP10 ADD MSTORE SWAP5 DUP7 ADD MSTORE PUSH1 0x2 SWAP1 SWAP3 ADD SLOAD DUP1 DUP4 AND PUSH1 0x60 DUP7 ADD MSTORE SWAP1 DUP2 DIV DUP3 AND PUSH1 0x80 DUP6 ADD MSTORE PUSH5 0x100000000 DUP2 DIV DUP3 AND PUSH1 0xA0 DUP6 ADD MSTORE PUSH7 0x1000000000000 SWAP1 DIV AND PUSH1 0xC0 DUP4 ADD MSTORE SWAP1 DUP4 MSTORE SWAP1 SWAP3 ADD SWAP2 ADD PUSH2 0xF3D JUMP JUMPDEST PUSH2 0x1108 PUSH2 0x2584 JUMP JUMPDEST DUP5 MLOAD PUSH1 0x4 EQ PUSH2 0x1129 JUMPI PUSH1 0x40 MLOAD PUSH3 0x461BCD PUSH1 0xE5 SHL DUP2 MSTORE PUSH1 0x4 ADD PUSH2 0x3E6 SWAP1 PUSH2 0x2C01 JUMP JUMPDEST DUP4 MLOAD PUSH1 0x4 EQ PUSH2 0x114A JUMPI PUSH1 0x40 MLOAD PUSH3 0x461BCD PUSH1 0xE5 SHL DUP2 MSTORE PUSH1 0x4 ADD PUSH2 0x3E6 SWAP1 PUSH2 0x2C01 JUMP JUMPDEST PUSH1 0x40 DUP1 MLOAD PUSH1 0x4 DUP1 DUP3 MSTORE PUSH1 0xA0 DUP3 ADD SWAP1 SWAP3 MSTORE PUSH1 0x0 SWAP2 PUSH1 0x20 DUP3 ADD PUSH1 0x80 DUP1 CALLDATASIZE DUP4 CALLDATACOPY ADD SWAP1 POP POP SWAP1 POP PUSH1 0xA DUP2 PUSH1 0x0 DUP2 MLOAD DUP2 LT PUSH2 0x1190 JUMPI PUSH4 0x4E487B71 PUSH1 0xE0 SHL PUSH1 0x0 MSTORE PUSH1 0x32 PUSH1 0x4 MSTORE PUSH1 0x24 PUSH1 0x0 REVERT JUMPDEST PUSH1 0x20 MUL PUSH1 0x20 ADD ADD SWAP1 PUSH1 0x0 SIGNEXTEND SWAP1 DUP2 PUSH1 0x0 SIGNEXTEND DUP2 MSTORE POP POP PUSH1 0xB DUP2 PUSH1 0x1 DUP2 MLOAD DUP2 LT PUSH2 0x11C7 JUMPI PUSH4 0x4E487B71 PUSH1 0xE0 SHL PUSH1 0x0 MSTORE PUSH1 0x32 PUSH1 0x4 MSTORE PUSH1 0x24 PUSH1 0x0 REVERT JUMPDEST PUSH1 0x20 MUL PUSH1 0x20 ADD ADD SWAP1 PUSH1 0x0 SIGNEXTEND SWAP1 DUP2 PUSH1 0x0 SIGNEXTEND DUP2 MSTORE POP POP PUSH1 0xC DUP2 PUSH1 0x2 DUP2 MLOAD DUP2 LT PUSH2 0x11FE JUMPI PUSH4 0x4E487B71 PUSH1 0xE0 SHL PUSH1 0x0 MSTORE PUSH1 0x32 PUSH1 0x4 MSTORE PUSH1 0x24 PUSH1 0x0 REVERT JUMPDEST PUSH1 0x20 MUL PUSH1 0x20 ADD ADD SWAP1 PUSH1 0x0 SIGNEXTEND SWAP1 DUP2 PUSH1 0x0 SIGNEXTEND DUP2 MSTORE POP POP PUSH1 0xD DUP2 PUSH1 0x3 DUP2 MLOAD DUP2 LT PUSH2 0x1235 JUMPI PUSH4 0x4E487B71 PUSH1 0xE0 SHL PUSH1 0x0 MSTORE PUSH1 0x32 PUSH1 0x4 MSTORE PUSH1 0x24 PUSH1 0x0 REVERT JUMPDEST PUSH1 0x0 SWAP3 DUP4 SIGNEXTEND DUP4 SIGNEXTEND PUSH1 0x20 SWAP2 DUP3 MUL SWAP3 SWAP1 SWAP3 ADD ADD MSTORE PUSH1 0x40 DUP1 MLOAD PUSH1 0x4 DUP1 DUP3 MSTORE PUSH1 0xA0 DUP3 ADD SWAP1 SWAP3 MSTORE SWAP1 DUP2 PUSH1 0x20 ADD PUSH1 0x20 DUP3 MUL DUP1 CALLDATASIZE DUP4 CALLDATACOPY ADD SWAP1 POP POP SWAP1 POP PUSH1 0x9 NOT DUP2 PUSH1 0x0 DUP2 MLOAD DUP2 LT PUSH2 0x128E JUMPI PUSH4 0x4E487B71 PUSH1 0xE0 SHL PUSH1 0x0 MSTORE PUSH1 0x32 PUSH1 0x4 MSTORE PUSH1 0x24 PUSH1 0x0 REVERT JUMPDEST PUSH1 0x20 MUL PUSH1 0x20 ADD ADD SWAP1 PUSH1 0x0 SIGNEXTEND SWAP1 DUP2 PUSH1 0x0 SIGNEXTEND DUP2 MSTORE POP POP PUSH1 0xA NOT DUP2 PUSH1 0x1 DUP2 MLOAD DUP2 LT PUSH2 0x12C6 JUMPI PUSH4 0x4E487B71 PUSH1 0xE0 SHL PUSH1 0x0 MSTORE PUSH1 0x32 PUSH1 0x4 MSTORE PUSH1 0x24 PUSH1 0x0 REVERT JUMPDEST PUSH1 0x20 MUL PUSH1 0x20 ADD ADD SWAP1 PUSH1 0x0 SIGNEXTEND SWAP1 DUP2 PUSH1 0x0 SIGNEXTEND DUP2 MSTORE POP POP PUSH1 0xB NOT DUP2 PUSH1 0x2 DUP2 MLOAD DUP2 LT PUSH2 0x12FE JUMPI PUSH4 0x4E487B71 PUSH1 0xE0 SHL PUSH1 0x0 MSTORE PUSH1 0x32 PUSH1 0x4 MSTORE PUSH1 0x24 PUSH1 0x0 REVERT JUMPDEST PUSH1 0x20 MUL PUSH1 0x20 ADD ADD SWAP1 PUSH1 0x0 SIGNEXTEND SWAP1 DUP2 PUSH1 0x0 SIGNEXTEND DUP2 MSTORE POP POP PUSH1 0xC NOT DUP2 PUSH1 0x3 DUP2 MLOAD DUP2 LT PUSH2 0x1336 JUMPI PUSH4 0x4E487B71 PUSH1 0xE0 SHL PUSH1 0x0 MSTORE PUSH1 0x32 PUSH1 0x4 MSTORE PUSH1 0x24 PUSH1 0x0 REVERT JUMPDEST PUSH1 0x0 SWAP3 DUP4 SIGNEXTEND DUP4 SIGNEXTEND PUSH1 0x20 SWAP2 DUP3 MUL SWAP3 SWAP1 SWAP3 ADD ADD MSTORE PUSH1 0x40 DUP1 MLOAD PUSH1 0x4 DUP1 DUP3 MSTORE PUSH1 0xA0 DUP3 ADD SWAP1 SWAP3 MSTORE SWAP1 DUP2 PUSH1 0x20 ADD PUSH1 0x20 DUP3 MUL DUP1 CALLDATASIZE DUP4 CALLDATACOPY POP POP PUSH1 0x40 DUP1 MLOAD PUSH1 0x4 DUP1 DUP3 MSTORE PUSH1 0xA0 DUP3 ADD SWAP1 SWAP3 MSTORE SWAP3 SWAP4 POP PUSH1 0x0 SWAP3 SWAP2 POP PUSH1 0x20 DUP3 ADD PUSH1 0x80 DUP1 CALLDATASIZE DUP4 CALLDATACOPY ADD SWAP1 POP POP SWAP1 POP PUSH1 0x0 JUMPDEST PUSH1 0x4 PUSH2 0xFFFF DUP3 AND LT ISZERO PUSH2 0x14FE JUMPI DUP10 DUP2 PUSH2 0xFFFF AND DUP2 MLOAD DUP2 LT PUSH2 0x13C3 JUMPI PUSH4 0x4E487B71 PUSH1 0xE0 SHL PUSH1 0x0 MSTORE PUSH1 0x32 PUSH1 0x4 MSTORE PUSH1 0x24 PUSH1 0x0 REVERT JUMPDEST PUSH1 0x20 MUL PUSH1 0x20 ADD ADD MLOAD PUSH2 0xFFFF AND DUP12 DUP3 PUSH2 0xFFFF AND DUP2 MLOAD DUP2 LT PUSH2 0x13F3 JUMPI PUSH4 0x4E487B71 PUSH1 0xE0 SHL PUSH1 0x0 MSTORE PUSH1 0x32 PUSH1 0x4 MSTORE PUSH1 0x24 PUSH1 0x0 REVERT JUMPDEST PUSH1 0x20 MUL PUSH1 0x20 ADD ADD MLOAD PUSH1 0x20 ADD MLOAD PUSH2 0xFFFF AND PUSH2 0x140D SWAP2 SWAP1 PUSH2 0x2F9D JUMP JUMPDEST DUP4 DUP3 PUSH2 0xFFFF AND DUP2 MLOAD DUP2 LT PUSH2 0x1431 JUMPI PUSH4 0x4E487B71 PUSH1 0xE0 SHL PUSH1 0x0 MSTORE PUSH1 0x32 PUSH1 0x4 MSTORE PUSH1 0x24 PUSH1 0x0 REVERT JUMPDEST PUSH1 0x20 MUL PUSH1 0x20 ADD ADD SWAP1 PUSH1 0x7 SIGNEXTEND SWAP1 DUP2 PUSH1 0x7 SIGNEXTEND DUP2 MSTORE POP POP DUP9 DUP2 PUSH2 0xFFFF AND DUP2 MLOAD DUP2 LT PUSH2 0x1469 JUMPI PUSH4 0x4E487B71 PUSH1 0xE0 SHL PUSH1 0x0 MSTORE PUSH1 0x32 PUSH1 0x4 MSTORE PUSH1 0x24 PUSH1 0x0 REVERT JUMPDEST PUSH1 0x20 MUL PUSH1 0x20 ADD ADD MLOAD PUSH2 0xFFFF AND DUP12 DUP3 PUSH2 0xFFFF AND DUP2 MLOAD DUP2 LT PUSH2 0x1499 JUMPI PUSH4 0x4E487B71 PUSH1 0xE0 SHL PUSH1 0x0 MSTORE PUSH1 0x32 PUSH1 0x4 MSTORE PUSH1 0x24 PUSH1 0x0 REVERT JUMPDEST PUSH1 0x20 MUL PUSH1 0x20 ADD ADD MLOAD PUSH1 0x20 ADD MLOAD PUSH2 0xFFFF AND PUSH2 0x14B3 SWAP2 SWAP1 PUSH2 0x2F9D JUMP JUMPDEST DUP3 DUP3 PUSH2 0xFFFF AND DUP2 MLOAD DUP2 LT PUSH2 0x14D7 JUMPI PUSH4 0x4E487B71 PUSH1 0xE0 SHL PUSH1 0x0 MSTORE PUSH1 0x32 PUSH1 0x4 MSTORE PUSH1 0x24 PUSH1 0x0 REVERT JUMPDEST PUSH1 0x20 MUL PUSH1 0x20 ADD ADD SWAP1 PUSH1 0x7 SIGNEXTEND SWAP1 DUP2 PUSH1 0x7 SIGNEXTEND DUP2 MSTORE POP POP DUP1 DUP1 PUSH2 0x14F6 SWAP1 PUSH2 0x3137 JUMP JUMPDEST SWAP2 POP POP PUSH2 0x1392 JUMP JUMPDEST POP PUSH2 0x1507 PUSH2 0x25D7 JUMP JUMPDEST DUP12 ISZERO PUSH2 0x15F6 JUMPI PUSH2 0x1519 PUSH1 0x4 PUSH1 0x14 PUSH2 0x303C JUMP JUMPDEST PUSH1 0xFF AND PUSH8 0xFFFFFFFFFFFFFFFF DUP2 GT ISZERO PUSH2 0x1542 JUMPI PUSH4 0x4E487B71 PUSH1 0xE0 SHL PUSH1 0x0 MSTORE PUSH1 0x41 PUSH1 0x4 MSTORE PUSH1 0x24 PUSH1 0x0 REVERT JUMPDEST PUSH1 0x40 MLOAD SWAP1 DUP1 DUP3 MSTORE DUP1 PUSH1 0x20 MUL PUSH1 0x20 ADD DUP3 ADD PUSH1 0x40 MSTORE DUP1 ISZERO PUSH2 0x157B JUMPI DUP2 PUSH1 0x20 ADD JUMPDEST PUSH2 0x1568 PUSH2 0x261A JUMP JUMPDEST DUP2 MSTORE PUSH1 0x20 ADD SWAP1 PUSH1 0x1 SWAP1 SUB SWAP1 DUP2 PUSH2 0x1560 JUMPI SWAP1 POP JUMPDEST POP PUSH1 0x60 DUP3 ADD MSTORE PUSH2 0x158D PUSH1 0x4 PUSH1 0x14 PUSH2 0x303C JUMP JUMPDEST PUSH1 0xFF AND PUSH8 0xFFFFFFFFFFFFFFFF DUP2 GT ISZERO PUSH2 0x15B6 JUMPI PUSH4 0x4E487B71 PUSH1 0xE0 SHL PUSH1 0x0 MSTORE PUSH1 0x41 PUSH1 0x4 MSTORE PUSH1 0x24 PUSH1 0x0 REVERT JUMPDEST PUSH1 0x40 MLOAD SWAP1 DUP1 DUP3 MSTORE DUP1 PUSH1 0x20 MUL PUSH1 0x20 ADD DUP3 ADD PUSH1 0x40 MSTORE DUP1 ISZERO PUSH2 0x15EF JUMPI DUP2 PUSH1 0x20 ADD JUMPDEST PUSH2 0x15DC PUSH2 0x261A JUMP JUMPDEST DUP2 MSTORE PUSH1 0x20 ADD SWAP1 PUSH1 0x1 SWAP1 SUB SWAP1 DUP2 PUSH2 0x15D4 JUMPI SWAP1 POP JUMPDEST POP PUSH1 0xA0 DUP3 ADD MSTORE JUMPDEST PUSH1 0x0 DUP2 MSTORE JUMPDEST DUP1 MLOAD PUSH1 0x14 PUSH1 0xFF SWAP1 SWAP2 AND LT DUP1 ISZERO PUSH2 0x1617 JUMPI POP PUSH2 0x1615 DUP4 PUSH2 0x1CD6 JUMP JUMPDEST ISZERO JUMPDEST DUP1 ISZERO PUSH2 0x1629 JUMPI POP PUSH2 0x1627 DUP3 PUSH2 0x1CD6 JUMP JUMPDEST ISZERO JUMPDEST ISZERO PUSH2 0x1A60 JUMPI PUSH1 0x0 PUSH1 0xE0 DUP3 ADD MSTORE JUMPDEST PUSH1 0x4 PUSH1 0xFF AND DUP2 PUSH1 0xE0 ADD MLOAD PUSH1 0xFF AND LT ISZERO PUSH2 0x1849 JUMPI PUSH1 0x0 DUP4 DUP3 PUSH1 0xE0 ADD MLOAD PUSH1 0xFF AND DUP2 MLOAD DUP2 LT PUSH2 0x1672 JUMPI PUSH4 0x4E487B71 PUSH1 0xE0 SHL PUSH1 0x0 MSTORE PUSH1 0x32 PUSH1 0x4 MSTORE PUSH1 0x24 PUSH1 0x0 REVERT JUMPDEST PUSH1 0x20 MUL PUSH1 0x20 ADD ADD MLOAD PUSH1 0x7 SIGNEXTEND SGT ISZERO PUSH2 0x182E JUMPI PUSH1 0x0 PUSH2 0x1696 DUP13 DUP4 PUSH1 0xE0 ADD MLOAD DUP9 DUP9 DUP8 PUSH2 0x1D38 JUMP JUMPDEST SWAP1 POP PUSH1 0x0 DUP2 PUSH1 0x0 SIGNEXTEND SLT PUSH2 0x176F JUMPI PUSH1 0x0 PUSH2 0x16E4 DUP16 DUP15 DUP6 PUSH1 0xE0 ADD MLOAD DUP6 DUP10 DUP9 PUSH1 0xE0 ADD MLOAD PUSH1 0xFF AND DUP2 MLOAD DUP2 LT PUSH2 0x16D7 JUMPI PUSH4 0x4E487B71 PUSH1 0xE0 SHL PUSH1 0x0 MSTORE PUSH1 0x32 PUSH1 0x4 MSTORE PUSH1 0x24 PUSH1 0x0 REVERT JUMPDEST PUSH1 0x20 MUL PUSH1 0x20 ADD ADD MLOAD PUSH2 0x1E9F JUMP JUMPDEST SWAP1 POP DUP1 PUSH4 0xFFFFFFFF AND DUP5 DUP4 PUSH1 0xFF AND DUP2 MLOAD DUP2 LT PUSH2 0x1710 JUMPI PUSH4 0x4E487B71 PUSH1 0xE0 SHL PUSH1 0x0 MSTORE PUSH1 0x32 PUSH1 0x4 MSTORE PUSH1 0x24 PUSH1 0x0 REVERT JUMPDEST PUSH1 0x20 MUL PUSH1 0x20 ADD ADD DUP2 DUP2 MLOAD PUSH2 0x1724 SWAP2 SWAP1 PUSH2 0x30AA JUMP JUMPDEST PUSH1 0x7 SWAP1 DUP2 SIGNEXTEND SWAP1 SIGNEXTEND SWAP1 MSTORE POP DUP14 ISZERO PUSH2 0x1769 JUMPI PUSH1 0x20 DUP4 ADD DUP1 MLOAD PUSH2 0x1769 SWAP2 PUSH2 0x1747 DUP3 PUSH2 0x318E JUMP JUMPDEST PUSH1 0xFF AND PUSH1 0xFF AND DUP2 MSTORE POP PUSH1 0xFF AND DUP5 PUSH1 0x0 ADD MLOAD DUP6 PUSH1 0x60 ADD MLOAD DUP7 PUSH1 0xE0 ADD MLOAD DUP7 DUP7 PUSH2 0x2098 JUMP JUMPDEST POP PUSH2 0x182C JUMP JUMPDEST PUSH2 0x1789 DUP13 PUSH1 0x1 DUP5 PUSH1 0xE0 ADD MLOAD PUSH1 0xFF AND PUSH1 0x0 NOT DUP11 DUP11 DUP11 DUP11 PUSH2 0x2112 JUMP JUMPDEST DUP7 DUP4 PUSH1 0xE0 ADD MLOAD PUSH1 0xFF AND DUP2 MLOAD DUP2 LT PUSH2 0x17B0 JUMPI PUSH4 0x4E487B71 PUSH1 0xE0 SHL PUSH1 0x0 MSTORE PUSH1 0x32 PUSH1 0x4 MSTORE PUSH1 0x24 PUSH1 0x0 REVERT JUMPDEST PUSH1 0x20 MUL PUSH1 0x20 ADD ADD SWAP1 PUSH1 0x0 SIGNEXTEND SWAP1 DUP2 PUSH1 0x0 SIGNEXTEND DUP2 MSTORE POP POP DUP13 ISZERO PUSH2 0x182C JUMPI PUSH1 0x20 DUP3 ADD DUP1 MLOAD PUSH2 0x182C SWAP2 PUSH2 0x17DD DUP3 PUSH2 0x318E JUMP JUMPDEST PUSH1 0xFF AND PUSH1 0xFF AND DUP2 MSTORE POP PUSH1 0xFF AND DUP4 PUSH1 0x0 ADD MLOAD DUP5 PUSH1 0x60 ADD MLOAD DUP6 PUSH1 0xE0 ADD MLOAD DUP11 DUP8 PUSH1 0xE0 ADD MLOAD PUSH1 0xFF AND DUP2 MLOAD DUP2 LT PUSH2 0x181F JUMPI PUSH4 0x4E487B71 PUSH1 0xE0 SHL PUSH1 0x0 MSTORE PUSH1 0x32 PUSH1 0x4 MSTORE PUSH1 0x24 PUSH1 0x0 REVERT JUMPDEST PUSH1 0x20 MUL PUSH1 0x20 ADD ADD MLOAD PUSH2 0x2288 JUMP JUMPDEST POP JUMPDEST PUSH1 0xE0 DUP2 ADD DUP1 MLOAD SWAP1 PUSH2 0x183E DUP3 PUSH2 0x318E JUMP JUMPDEST PUSH1 0xFF AND SWAP1 MSTORE POP PUSH2 0x1636 JUMP JUMPDEST PUSH1 0x0 PUSH1 0xE0 DUP3 ADD MSTORE JUMPDEST PUSH1 0x4 PUSH1 0xFF AND DUP2 PUSH1 0xE0 ADD MLOAD PUSH1 0xFF AND LT ISZERO PUSH2 0x1A49 JUMPI PUSH1 0x0 DUP3 DUP3 PUSH1 0xE0 ADD MLOAD PUSH1 0xFF AND DUP2 MLOAD DUP2 LT PUSH2 0x188D JUMPI PUSH4 0x4E487B71 PUSH1 0xE0 SHL PUSH1 0x0 MSTORE PUSH1 0x32 PUSH1 0x4 MSTORE PUSH1 0x24 PUSH1 0x0 REVERT JUMPDEST PUSH1 0x20 MUL PUSH1 0x20 ADD ADD MLOAD PUSH1 0x7 SIGNEXTEND SGT ISZERO PUSH2 0x1A2E JUMPI PUSH1 0x0 PUSH2 0x18B1 DUP13 DUP4 PUSH1 0xE0 ADD MLOAD DUP8 DUP10 DUP9 PUSH2 0x1D38 JUMP JUMPDEST SWAP1 POP PUSH1 0x0 DUP2 PUSH1 0x0 SIGNEXTEND SLT PUSH2 0x197D JUMPI PUSH1 0x0 PUSH2 0x18F2 DUP16 DUP15 DUP6 PUSH1 0xE0 ADD MLOAD DUP6 DUP9 DUP9 PUSH1 0xE0 ADD MLOAD PUSH1 0xFF AND DUP2 MLOAD DUP2 LT PUSH2 0x16D7 JUMPI PUSH4 0x4E487B71 PUSH1 0xE0 SHL PUSH1 0x0 MSTORE PUSH1 0x32 PUSH1 0x4 MSTORE PUSH1 0x24 PUSH1 0x0 REVERT JUMPDEST SWAP1 POP DUP1 PUSH4 0xFFFFFFFF AND DUP6 DUP4 PUSH1 0xFF AND DUP2 MLOAD DUP2 LT PUSH2 0x191E JUMPI PUSH4 0x4E487B71 PUSH1 0xE0 SHL PUSH1 0x0 MSTORE PUSH1 0x32 PUSH1 0x4 MSTORE PUSH1 0x24 PUSH1 0x0 REVERT JUMPDEST PUSH1 0x20 MUL PUSH1 0x20 ADD ADD DUP2 DUP2 MLOAD PUSH2 0x1932 SWAP2 SWAP1 PUSH2 0x30AA JUMP JUMPDEST PUSH1 0x7 SWAP1 DUP2 SIGNEXTEND SWAP1 SIGNEXTEND SWAP1 MSTORE POP DUP14 ISZERO PUSH2 0x1977 JUMPI PUSH1 0x40 DUP4 ADD DUP1 MLOAD PUSH2 0x1977 SWAP2 PUSH2 0x1955 DUP3 PUSH2 0x318E JUMP JUMPDEST PUSH1 0xFF AND PUSH1 0xFF AND DUP2 MSTORE POP PUSH1 0xFF AND DUP5 PUSH1 0x0 ADD MLOAD DUP6 PUSH1 0xA0 ADD MLOAD DUP7 PUSH1 0xE0 ADD MLOAD DUP7 DUP7 PUSH2 0x2098 JUMP JUMPDEST POP PUSH2 0x1A2C JUMP JUMPDEST PUSH2 0x1996 DUP13 PUSH1 0x0 DUP5 PUSH1 0xE0 ADD MLOAD PUSH1 0xFF AND PUSH1 0x1 DUP11 DUP11 DUP11 DUP11 PUSH2 0x2112 JUMP JUMPDEST DUP6 DUP4 PUSH1 0xE0 ADD MLOAD PUSH1 0xFF AND DUP2 MLOAD DUP2 LT PUSH2 0x19BD JUMPI PUSH4 0x4E487B71 PUSH1 0xE0 SHL PUSH1 0x0 MSTORE PUSH1 0x32 PUSH1 0x4 MSTORE PUSH1 0x24 PUSH1 0x0 REVERT JUMPDEST PUSH1 0x20 MUL PUSH1 0x20 ADD ADD SWAP1 PUSH1 0x0 SIGNEXTEND SWAP1 DUP2 PUSH1 0x0 SIGNEXTEND DUP2 MSTORE POP POP DUP13 ISZERO PUSH2 0x1A2C JUMPI PUSH1 0x40 DUP3 ADD DUP1 MLOAD PUSH2 0x1A2C SWAP2 PUSH2 0x19EA DUP3 PUSH2 0x318E JUMP JUMPDEST PUSH1 0xFF AND PUSH1 0xFF AND DUP2 MSTORE POP PUSH1 0xFF AND DUP4 PUSH1 0x0 ADD MLOAD DUP5 PUSH1 0xA0 ADD MLOAD DUP6 PUSH1 0xE0 ADD MLOAD DUP10 DUP8 PUSH1 0xE0 ADD MLOAD PUSH1 0xFF AND DUP2 MLOAD DUP2 LT PUSH2 0x181F JUMPI PUSH4 0x4E487B71 PUSH1 0xE0 SHL PUSH1 0x0 MSTORE PUSH1 0x32 PUSH1 0x4 MSTORE PUSH1 0x24 PUSH1 0x0 REVERT JUMPDEST POP JUMPDEST PUSH1 0xE0 DUP2 ADD DUP1 MLOAD SWAP1 PUSH2 0x1A3E DUP3 PUSH2 0x318E JUMP JUMPDEST PUSH1 0xFF AND SWAP1 MSTORE POP PUSH2 0x1851 JUMP JUMPDEST DUP1 MLOAD DUP2 PUSH2 0x1A55 DUP3 PUSH2 0x318E JUMP JUMPDEST PUSH1 0xFF AND SWAP1 MSTORE POP PUSH2 0x15FB JUMP JUMPDEST DUP12 ISZERO PUSH2 0x1C4C JUMPI DUP1 MLOAD PUSH2 0x1A74 SWAP1 PUSH1 0x4 SWAP1 PUSH2 0x303C JUMP JUMPDEST PUSH1 0xFF AND PUSH8 0xFFFFFFFFFFFFFFFF DUP2 GT ISZERO PUSH2 0x1A9D JUMPI PUSH4 0x4E487B71 PUSH1 0xE0 SHL PUSH1 0x0 MSTORE PUSH1 0x41 PUSH1 0x4 MSTORE PUSH1 0x24 PUSH1 0x0 REVERT JUMPDEST PUSH1 0x40 MLOAD SWAP1 DUP1 DUP3 MSTORE DUP1 PUSH1 0x20 MUL PUSH1 0x20 ADD DUP3 ADD PUSH1 0x40 MSTORE DUP1 ISZERO PUSH2 0x1AD6 JUMPI DUP2 PUSH1 0x20 ADD JUMPDEST PUSH2 0x1AC3 PUSH2 0x261A JUMP JUMPDEST DUP2 MSTORE PUSH1 0x20 ADD SWAP1 PUSH1 0x1 SWAP1 SUB SWAP1 DUP2 PUSH2 0x1ABB JUMPI SWAP1 POP JUMPDEST POP PUSH1 0x80 DUP3 ADD MSTORE DUP1 MLOAD PUSH2 0x1AEA SWAP1 PUSH1 0x4 SWAP1 PUSH2 0x303C JUMP JUMPDEST PUSH1 0xFF AND PUSH8 0xFFFFFFFFFFFFFFFF DUP2 GT ISZERO PUSH2 0x1B13 JUMPI PUSH4 0x4E487B71 PUSH1 0xE0 SHL PUSH1 0x0 MSTORE PUSH1 0x41 PUSH1 0x4 MSTORE PUSH1 0x24 PUSH1 0x0 REVERT JUMPDEST PUSH1 0x40 MLOAD SWAP1 DUP1 DUP3 MSTORE DUP1 PUSH1 0x20 MUL PUSH1 0x20 ADD DUP3 ADD PUSH1 0x40 MSTORE DUP1 ISZERO PUSH2 0x1B4C JUMPI DUP2 PUSH1 0x20 ADD JUMPDEST PUSH2 0x1B39 PUSH2 0x261A JUMP JUMPDEST DUP2 MSTORE PUSH1 0x20 ADD SWAP1 PUSH1 0x1 SWAP1 SUB SWAP1 DUP2 PUSH2 0x1B31 JUMPI SWAP1 POP JUMPDEST POP PUSH1 0xC0 DUP3 ADD MSTORE PUSH1 0x0 JUMPDEST DUP2 MLOAD PUSH2 0x1B63 SWAP1 PUSH1 0x4 SWAP1 PUSH2 0x303C JUMP JUMPDEST PUSH1 0xFF AND DUP2 PUSH2 0xFFFF AND LT ISZERO PUSH2 0x1C4A JUMPI DUP2 PUSH1 0x60 ADD MLOAD DUP2 PUSH2 0xFFFF AND DUP2 MLOAD DUP2 LT PUSH2 0x1B99 JUMPI PUSH4 0x4E487B71 PUSH1 0xE0 SHL PUSH1 0x0 MSTORE PUSH1 0x32 PUSH1 0x4 MSTORE PUSH1 0x24 PUSH1 0x0 REVERT JUMPDEST PUSH1 0x20 MUL PUSH1 0x20 ADD ADD MLOAD DUP3 PUSH1 0x80 ADD MLOAD DUP3 PUSH2 0xFFFF AND DUP2 MLOAD DUP2 LT PUSH2 0x1BC9 JUMPI PUSH4 0x4E487B71 PUSH1 0xE0 SHL PUSH1 0x0 MSTORE PUSH1 0x32 PUSH1 0x4 MSTORE PUSH1 0x24 PUSH1 0x0 REVERT JUMPDEST PUSH1 0x20 MUL PUSH1 0x20 ADD ADD DUP2 SWAP1 MSTORE POP DUP2 PUSH1 0xA0 ADD MLOAD DUP2 PUSH2 0xFFFF AND DUP2 MLOAD DUP2 LT PUSH2 0x1BFC JUMPI PUSH4 0x4E487B71 PUSH1 0xE0 SHL PUSH1 0x0 MSTORE PUSH1 0x32 PUSH1 0x4 MSTORE PUSH1 0x24 PUSH1 0x0 REVERT JUMPDEST PUSH1 0x20 MUL PUSH1 0x20 ADD ADD MLOAD DUP3 PUSH1 0xC0 ADD MLOAD DUP3 PUSH2 0xFFFF AND DUP2 MLOAD DUP2 LT PUSH2 0x1C2C JUMPI PUSH4 0x4E487B71 PUSH1 0xE0 SHL PUSH1 0x0 MSTORE PUSH1 0x32 PUSH1 0x4 MSTORE PUSH1 0x24 PUSH1 0x0 REVERT JUMPDEST PUSH1 0x20 MUL PUSH1 0x20 ADD ADD DUP2 SWAP1 MSTORE POP DUP1 DUP1 PUSH2 0x1C42 SWAP1 PUSH2 0x3137 JUMP JUMPDEST SWAP2 POP POP PUSH2 0x1B55 JUMP JUMPDEST POP JUMPDEST PUSH1 0x60 SWAP4 POP PUSH1 0x60 SWAP5 POP PUSH1 0x40 MLOAD DUP1 PUSH2 0x140 ADD PUSH1 0x40 MSTORE DUP1 DUP12 DUP2 MSTORE PUSH1 0x20 ADD DUP11 DUP2 MSTORE PUSH1 0x20 ADD DUP10 PUSH2 0xFFFF AND DUP2 MSTORE PUSH1 0x20 ADD DUP9 PUSH2 0xFFFF AND DUP2 MSTORE PUSH1 0x20 ADD DUP3 PUSH1 0x80 ADD MLOAD DUP2 MSTORE PUSH1 0x20 ADD DUP3 PUSH1 0xC0 ADD MLOAD DUP2 MSTORE PUSH1 0x20 ADD PUSH2 0x1C9D DUP6 PUSH2 0x1CD6 JUMP JUMPDEST ISZERO ISZERO DUP2 MSTORE PUSH1 0x20 ADD PUSH2 0x1CAD DUP5 PUSH2 0x1CD6 JUMP JUMPDEST ISZERO ISZERO DUP2 MSTORE SWAP2 MLOAD PUSH1 0xFF AND PUSH1 0x20 DUP4 ADD MSTORE PUSH1 0x0 PUSH1 0x40 SWAP1 SWAP3 ADD SWAP2 SWAP1 SWAP2 MSTORE SWAP13 SWAP12 POP POP POP POP POP POP POP POP POP POP POP POP JUMP JUMPDEST PUSH1 0x0 PUSH1 0x1 DUP2 JUMPDEST PUSH1 0x4 DUP2 LT ISZERO PUSH2 0x1D2F JUMPI PUSH1 0x0 DUP5 DUP3 DUP2 MLOAD DUP2 LT PUSH2 0x1D07 JUMPI PUSH4 0x4E487B71 PUSH1 0xE0 SHL PUSH1 0x0 MSTORE PUSH1 0x32 PUSH1 0x4 MSTORE PUSH1 0x24 PUSH1 0x0 REVERT JUMPDEST PUSH1 0x20 MUL PUSH1 0x20 ADD ADD MLOAD PUSH1 0x7 SIGNEXTEND SGT ISZERO PUSH2 0x1D1D JUMPI PUSH1 0x0 SWAP2 POP JUMPDEST DUP1 PUSH2 0x1D27 DUP2 PUSH2 0x3159 JUMP JUMPDEST SWAP2 POP POP PUSH2 0x1CDC JUMP JUMPDEST POP SWAP1 POP JUMPDEST SWAP2 SWAP1 POP JUMP JUMPDEST PUSH1 0x0 DUP1 DUP5 DUP7 PUSH1 0xFF AND DUP2 MLOAD DUP2 LT PUSH2 0x1D5E JUMPI PUSH4 0x4E487B71 PUSH1 0xE0 SHL PUSH1 0x0 MSTORE PUSH1 0x32 PUSH1 0x4 MSTORE PUSH1 0x24 PUSH1 0x0 REVERT JUMPDEST PUSH1 0x20 MUL PUSH1 0x20 ADD ADD MLOAD PUSH1 0x0 SIGNEXTEND SWAP1 POP PUSH1 0x0 PUSH7 0x1FFFFFFFFFFFFF SWAP1 POP PUSH1 0x0 DUP1 JUMPDEST PUSH1 0x4 PUSH1 0xFF DUP3 AND LT ISZERO PUSH2 0x1E75 JUMPI PUSH1 0x0 DUP8 DUP3 PUSH1 0xFF AND DUP2 MLOAD DUP2 LT PUSH2 0x1DAC JUMPI PUSH4 0x4E487B71 PUSH1 0xE0 SHL PUSH1 0x0 MSTORE PUSH1 0x32 PUSH1 0x4 MSTORE PUSH1 0x24 PUSH1 0x0 REVERT JUMPDEST PUSH1 0x20 MUL PUSH1 0x20 ADD ADD MLOAD SWAP1 POP PUSH1 0x0 PUSH2 0x1DCF DUP3 PUSH1 0x0 SIGNEXTEND DUP8 PUSH2 0x1DCA SWAP2 SWAP1 PUSH2 0x3065 JUMP JUMPDEST PUSH2 0x22F7 JUMP JUMPDEST SWAP1 POP PUSH1 0x0 DUP9 DUP5 PUSH1 0xFF AND DUP2 MLOAD DUP2 LT PUSH2 0x1DF6 JUMPI PUSH4 0x4E487B71 PUSH1 0xE0 SHL PUSH1 0x0 MSTORE PUSH1 0x32 PUSH1 0x4 MSTORE PUSH1 0x24 PUSH1 0x0 REVERT JUMPDEST PUSH1 0x20 MUL PUSH1 0x20 ADD ADD MLOAD PUSH1 0x7 SIGNEXTEND SGT DUP1 ISZERO PUSH2 0x1E44 JUMPI POP DUP12 DUP12 PUSH1 0xFF AND DUP2 MLOAD DUP2 LT PUSH2 0x1E2C JUMPI PUSH4 0x4E487B71 PUSH1 0xE0 SHL PUSH1 0x0 MSTORE PUSH1 0x32 PUSH1 0x4 MSTORE PUSH1 0x24 PUSH1 0x0 REVERT JUMPDEST PUSH1 0x20 MUL PUSH1 0x20 ADD ADD MLOAD PUSH1 0xA0 ADD MLOAD PUSH2 0xFFFF AND DUP2 PUSH2 0xFFFF AND GT ISZERO JUMPDEST ISZERO PUSH2 0x1E60 JUMPI DUP5 DUP2 PUSH2 0xFFFF AND LT ISZERO PUSH2 0x1E60 JUMPI DUP1 PUSH2 0xFFFF AND SWAP5 POP DUP3 SWAP4 POP JUMPDEST POP POP DUP1 DUP1 PUSH2 0x1E6D SWAP1 PUSH2 0x318E JUMP JUMPDEST SWAP2 POP POP PUSH2 0x1D7B JUMP JUMPDEST POP PUSH1 0x0 SWAP3 POP PUSH7 0x1FFFFFFFFFFFFF DUP3 EQ PUSH2 0x1E8E JUMPI DUP1 PUSH2 0x1E92 JUMP JUMPDEST PUSH1 0x0 NOT JUMPDEST SWAP10 SWAP9 POP POP POP POP POP POP POP POP POP JUMP JUMPDEST PUSH1 0x0 DUP1 DUP6 DUP6 PUSH1 0xFF AND DUP2 MLOAD DUP2 LT PUSH2 0x1EC5 JUMPI PUSH4 0x4E487B71 PUSH1 0xE0 SHL PUSH1 0x0 MSTORE PUSH1 0x32 PUSH1 0x4 MSTORE PUSH1 0x24 PUSH1 0x0 REVERT JUMPDEST PUSH1 0x20 MUL PUSH1 0x20 ADD ADD MLOAD PUSH1 0x40 ADD MLOAD PUSH1 0x20 ADD MLOAD PUSH2 0xFFFF AND DUP8 PUSH2 0x1EE4 SWAP2 SWAP1 PUSH2 0x31AE JUMP JUMPDEST DUP7 DUP7 PUSH1 0xFF AND DUP2 MLOAD DUP2 LT PUSH2 0x1F07 JUMPI PUSH4 0x4E487B71 PUSH1 0xE0 SHL PUSH1 0x0 MSTORE PUSH1 0x32 PUSH1 0x4 MSTORE PUSH1 0x24 PUSH1 0x0 REVERT JUMPDEST PUSH1 0x20 MUL PUSH1 0x20 ADD ADD MLOAD PUSH1 0x40 ADD MLOAD PUSH1 0x0 ADD MLOAD PUSH2 0x1F21 SWAP2 SWAP1 PUSH2 0x2E91 JUMP JUMPDEST SWAP1 POP PUSH1 0x0 DUP7 DUP6 PUSH1 0xFF AND DUP2 MLOAD DUP2 LT PUSH2 0x1F48 JUMPI PUSH4 0x4E487B71 PUSH1 0xE0 SHL PUSH1 0x0 MSTORE PUSH1 0x32 PUSH1 0x4 MSTORE PUSH1 0x24 PUSH1 0x0 REVERT JUMPDEST PUSH1 0x20 MUL PUSH1 0x20 ADD ADD MLOAD PUSH1 0x60 ADD MLOAD SWAP1 POP PUSH1 0x0 DUP8 DUP7 PUSH1 0xFF AND DUP2 MLOAD DUP2 LT PUSH2 0x1F7B JUMPI PUSH4 0x4E487B71 PUSH1 0xE0 SHL PUSH1 0x0 MSTORE PUSH1 0x32 PUSH1 0x4 MSTORE PUSH1 0x24 PUSH1 0x0 REVERT JUMPDEST PUSH1 0x20 MUL PUSH1 0x20 ADD ADD MLOAD PUSH1 0xC0 ADD MLOAD PUSH1 0x64 PUSH2 0x1F93 SWAP2 SWAP1 PUSH2 0x30F1 JUMP JUMPDEST SWAP1 POP PUSH1 0x0 PUSH1 0xA DUP3 PUSH2 0x1FA4 DUP6 DUP8 PUSH2 0x30F1 JUMP JUMPDEST PUSH2 0x1FAE SWAP2 SWAP1 PUSH2 0x2FEF JUMP JUMPDEST PUSH2 0x1FB8 SWAP2 SWAP1 PUSH2 0x2EDA JUMP JUMPDEST PUSH2 0xFFFF AND SWAP1 POP PUSH1 0x0 DUP10 DUP10 PUSH1 0xFF AND DUP2 MLOAD DUP2 LT PUSH2 0x1FE3 JUMPI PUSH4 0x4E487B71 PUSH1 0xE0 SHL PUSH1 0x0 MSTORE PUSH1 0x32 PUSH1 0x4 MSTORE PUSH1 0x24 PUSH1 0x0 REVERT JUMPDEST PUSH1 0x20 MUL PUSH1 0x20 ADD ADD MLOAD PUSH1 0x20 ADD MLOAD PUSH2 0xFFFF AND DUP8 PUSH2 0x1FFE SWAP2 SWAP1 PUSH2 0x2EFB JUMP JUMPDEST PUSH2 0x2009 SWAP1 PUSH1 0x1 PUSH2 0x2EB7 JUMP JUMPDEST SWAP1 POP PUSH1 0x0 DUP11 DUP10 PUSH1 0xFF AND DUP2 MLOAD DUP2 LT PUSH2 0x2030 JUMPI PUSH4 0x4E487B71 PUSH1 0xE0 SHL PUSH1 0x0 MSTORE PUSH1 0x32 PUSH1 0x4 MSTORE PUSH1 0x24 PUSH1 0x0 REVERT JUMPDEST PUSH1 0x20 MUL PUSH1 0x20 ADD ADD MLOAD PUSH1 0x20 ADD MLOAD PUSH2 0xFFFF AND DUP3 PUSH2 0xFFFF AND PUSH2 0x204F SWAP2 SWAP1 PUSH2 0x3019 JUMP JUMPDEST SWAP1 POP PUSH1 0x0 PUSH2 0x2061 PUSH2 0xFFFF DUP5 AND DUP6 PUSH2 0x3019 JUMP JUMPDEST SWAP1 POP PUSH1 0x0 SWAP7 POP PUSH1 0x0 SWAP6 POP PUSH1 0x0 SWAP5 POP PUSH1 0x0 SWAP3 POP PUSH2 0x2087 PUSH2 0x2081 PUSH1 0x0 DUP4 PUSH2 0x231D JUMP JUMPDEST DUP4 PUSH2 0x233B JUMP JUMPDEST SWAP14 SWAP13 POP POP POP POP POP POP POP POP POP POP POP POP POP JUMP JUMPDEST PUSH1 0x40 MLOAD DUP1 PUSH1 0xC0 ADD PUSH1 0x40 MSTORE DUP1 PUSH1 0x1 PUSH1 0xFF AND DUP2 MSTORE PUSH1 0x20 ADD DUP7 PUSH1 0xFF AND DUP2 MSTORE PUSH1 0x20 ADD DUP5 PUSH1 0xFF AND DUP2 MSTORE PUSH1 0x20 ADD DUP4 PUSH1 0xFF AND DUP2 MSTORE PUSH1 0x20 ADD PUSH1 0x0 DUP1 SIGNEXTEND DUP2 MSTORE PUSH1 0x20 ADD DUP3 PUSH4 0xFFFFFFFF AND DUP2 MSTORE POP DUP5 DUP8 PUSH2 0xFFFF AND DUP2 MLOAD DUP2 LT PUSH2 0x20FF JUMPI PUSH4 0x4E487B71 PUSH1 0xE0 SHL PUSH1 0x0 MSTORE PUSH1 0x32 PUSH1 0x4 MSTORE PUSH1 0x24 PUSH1 0x0 REVERT JUMPDEST PUSH1 0x20 MUL PUSH1 0x20 ADD ADD DUP2 SWAP1 MSTORE POP POP POP POP POP POP POP JUMP JUMPDEST PUSH1 0x0 DUP1 DUP10 DUP9 PUSH2 0xFFFF AND DUP2 MLOAD DUP2 LT PUSH2 0x2139 JUMPI PUSH4 0x4E487B71 PUSH1 0xE0 SHL PUSH1 0x0 MSTORE PUSH1 0x32 PUSH1 0x4 MSTORE PUSH1 0x24 PUSH1 0x0 REVERT JUMPDEST PUSH1 0x20 MUL PUSH1 0x20 ADD ADD MLOAD PUSH1 0x80 ADD MLOAD SWAP1 POP PUSH1 0x0 DUP10 PUSH2 0x217F JUMPI DUP6 DUP10 PUSH2 0xFFFF AND DUP2 MLOAD DUP2 LT PUSH2 0x2172 JUMPI PUSH4 0x4E487B71 PUSH1 0xE0 SHL PUSH1 0x0 MSTORE PUSH1 0x32 PUSH1 0x4 MSTORE PUSH1 0x24 PUSH1 0x0 REVERT JUMPDEST PUSH1 0x20 MUL PUSH1 0x20 ADD ADD MLOAD PUSH2 0x21AC JUMP JUMPDEST DUP7 DUP10 PUSH2 0xFFFF AND DUP2 MLOAD DUP2 LT PUSH2 0x21A3 JUMPI PUSH4 0x4E487B71 PUSH1 0xE0 SHL PUSH1 0x0 MSTORE PUSH1 0x32 PUSH1 0x4 MSTORE PUSH1 0x24 PUSH1 0x0 REVERT JUMPDEST PUSH1 0x20 MUL PUSH1 0x20 ADD ADD MLOAD JUMPDEST SWAP1 POP DUP2 JUMPDEST PUSH1 0x0 DUP2 PUSH1 0x1 SIGNEXTEND SGT ISZERO PUSH2 0x2279 JUMPI PUSH1 0x0 DUP12 PUSH2 0x2208 JUMPI PUSH2 0x21CD DUP3 DUP12 PUSH2 0x2F16 JUMP JUMPDEST DUP9 DUP13 PUSH2 0xFFFF AND DUP2 MLOAD DUP2 LT PUSH2 0x21F1 JUMPI PUSH4 0x4E487B71 PUSH1 0xE0 SHL PUSH1 0x0 MSTORE PUSH1 0x32 PUSH1 0x4 MSTORE PUSH1 0x24 PUSH1 0x0 REVERT JUMPDEST PUSH1 0x20 MUL PUSH1 0x20 ADD ADD MLOAD PUSH2 0x2203 SWAP2 SWAP1 PUSH2 0x2E51 JUMP JUMPDEST PUSH2 0x2248 JUMP JUMPDEST PUSH2 0x2212 DUP3 DUP12 PUSH2 0x2F16 JUMP JUMPDEST DUP10 DUP13 PUSH2 0xFFFF AND DUP2 MLOAD DUP2 LT PUSH2 0x2236 JUMPI PUSH4 0x4E487B71 PUSH1 0xE0 SHL PUSH1 0x0 MSTORE PUSH1 0x32 PUSH1 0x4 MSTORE PUSH1 0x24 PUSH1 0x0 REVERT JUMPDEST PUSH1 0x20 MUL PUSH1 0x20 ADD ADD MLOAD PUSH2 0x2248 SWAP2 SWAP1 PUSH2 0x2E51 JUMP JUMPDEST SWAP1 POP PUSH2 0x225A DUP2 PUSH1 0x0 SIGNEXTEND DUP11 DUP11 DUP11 DUP11 PUSH2 0x2350 JUMP JUMPDEST ISZERO PUSH2 0x2266 JUMPI SWAP2 POP PUSH2 0x2279 JUMP JUMPDEST POP DUP1 PUSH2 0x2271 DUP2 PUSH2 0x3114 JUMP JUMPDEST SWAP2 POP POP PUSH2 0x21B0 JUMP JUMPDEST POP SWAP11 SWAP10 POP POP POP POP POP POP POP POP POP POP JUMP JUMPDEST PUSH1 0x40 DUP1 MLOAD PUSH1 0xC0 DUP2 ADD DUP3 MSTORE PUSH1 0x2 DUP2 MSTORE PUSH1 0xFF DUP7 DUP2 AND PUSH1 0x20 DUP4 ADD MSTORE DUP5 AND SWAP2 DUP2 ADD SWAP2 SWAP1 SWAP2 MSTORE PUSH1 0x0 PUSH1 0x60 DUP3 ADD DUP2 SWAP1 MSTORE DUP3 DUP2 SIGNEXTEND PUSH1 0x80 DUP4 ADD MSTORE PUSH1 0xA0 DUP3 ADD MSTORE DUP4 MLOAD DUP5 SWAP1 PUSH2 0xFFFF DUP9 AND SWAP1 DUP2 LT PUSH2 0x22E5 JUMPI PUSH4 0x4E487B71 PUSH1 0xE0 SHL PUSH1 0x0 MSTORE PUSH1 0x32 PUSH1 0x4 MSTORE PUSH1 0x24 PUSH1 0x0 REVERT JUMPDEST PUSH1 0x20 MUL PUSH1 0x20 ADD ADD DUP2 SWAP1 MSTORE POP POP POP POP POP POP JUMP JUMPDEST PUSH1 0x0 DUP1 DUP3 PUSH1 0x1 SIGNEXTEND SLT PUSH2 0x230A JUMPI POP DUP1 PUSH2 0x1D33 JUMP JUMPDEST PUSH2 0x2316 DUP3 PUSH1 0x0 NOT PUSH2 0x2F16 JUMP JUMPDEST SWAP1 POP PUSH2 0x1D33 JUMP JUMPDEST PUSH1 0x0 DUP2 PUSH1 0x3 SIGNEXTEND DUP4 PUSH1 0x3 SIGNEXTEND SGT PUSH2 0x2332 JUMPI DUP2 PUSH2 0x2334 JUMP JUMPDEST DUP3 JUMPDEST SWAP4 SWAP3 POP POP POP JUMP JUMPDEST PUSH1 0x0 DUP2 PUSH1 0x3 SIGNEXTEND DUP4 PUSH1 0x3 SIGNEXTEND SLT PUSH2 0x2332 JUMPI DUP2 PUSH2 0x2334 JUMP JUMPDEST PUSH1 0x0 PUSH1 0xF PUSH2 0x235D DUP8 PUSH2 0x22F7 JUMP JUMPDEST PUSH2 0xFFFF AND GT ISZERO PUSH2 0x236F JUMPI POP PUSH1 0x0 PUSH2 0xFEC JUMP JUMPDEST PUSH1 0x0 DUP1 JUMPDEST PUSH1 0x4 PUSH1 0xFF DUP3 AND LT ISZERO PUSH2 0x2479 JUMPI DUP8 PUSH1 0x1 SIGNEXTEND DUP8 DUP3 PUSH1 0xFF AND DUP2 MLOAD DUP2 LT PUSH2 0x23A6 JUMPI PUSH4 0x4E487B71 PUSH1 0xE0 SHL PUSH1 0x0 MSTORE PUSH1 0x32 PUSH1 0x4 MSTORE PUSH1 0x24 PUSH1 0x0 REVERT JUMPDEST PUSH1 0x20 MUL PUSH1 0x20 ADD ADD MLOAD PUSH1 0x0 SIGNEXTEND EQ DUP1 ISZERO PUSH2 0x23EB JUMPI POP PUSH1 0x0 DUP6 DUP3 PUSH1 0xFF AND DUP2 MLOAD DUP2 LT PUSH2 0x23DE JUMPI PUSH4 0x4E487B71 PUSH1 0xE0 SHL PUSH1 0x0 MSTORE PUSH1 0x32 PUSH1 0x4 MSTORE PUSH1 0x24 PUSH1 0x0 REVERT JUMPDEST PUSH1 0x20 MUL PUSH1 0x20 ADD ADD MLOAD PUSH1 0x7 SIGNEXTEND SGT JUMPDEST DUP1 PUSH2 0x245D JUMPI POP DUP8 PUSH1 0x1 SIGNEXTEND DUP7 DUP3 PUSH1 0xFF AND DUP2 MLOAD DUP2 LT PUSH2 0x2418 JUMPI PUSH4 0x4E487B71 PUSH1 0xE0 SHL PUSH1 0x0 MSTORE PUSH1 0x32 PUSH1 0x4 MSTORE PUSH1 0x24 PUSH1 0x0 REVERT JUMPDEST PUSH1 0x20 MUL PUSH1 0x20 ADD ADD MLOAD PUSH1 0x0 SIGNEXTEND EQ DUP1 ISZERO PUSH2 0x245D JUMPI POP PUSH1 0x0 DUP5 DUP3 PUSH1 0xFF AND DUP2 MLOAD DUP2 LT PUSH2 0x2450 JUMPI PUSH4 0x4E487B71 PUSH1 0xE0 SHL PUSH1 0x0 MSTORE PUSH1 0x32 PUSH1 0x4 MSTORE PUSH1 0x24 PUSH1 0x0 REVERT JUMPDEST PUSH1 0x20 MUL PUSH1 0x20 ADD ADD MLOAD PUSH1 0x7 SIGNEXTEND SGT JUMPDEST ISZERO PUSH2 0x2467 JUMPI PUSH1 0x1 SWAP2 POP JUMPDEST DUP1 PUSH2 0x2471 DUP2 PUSH2 0x318E JUMP JUMPDEST SWAP2 POP POP PUSH2 0x2373 JUMP JUMPDEST POP ISZERO SWAP7 SWAP6 POP POP POP POP POP POP JUMP JUMPDEST DUP3 DUP1 SLOAD DUP3 DUP3 SSTORE SWAP1 PUSH1 0x0 MSTORE PUSH1 0x20 PUSH1 0x0 KECCAK256 SWAP1 PUSH1 0xF ADD PUSH1 0x10 SWAP1 DIV DUP2 ADD SWAP3 DUP3 ISZERO PUSH2 0x251E JUMPI SWAP2 PUSH1 0x20 MUL DUP3 ADD PUSH1 0x0 JUMPDEST DUP4 DUP3 GT ISZERO PUSH2 0x24EE JUMPI DUP4 MLOAD DUP4 DUP3 PUSH2 0x100 EXP DUP2 SLOAD DUP2 PUSH2 0xFFFF MUL NOT AND SWAP1 DUP4 PUSH2 0xFFFF AND MUL OR SWAP1 SSTORE POP SWAP3 PUSH1 0x20 ADD SWAP3 PUSH1 0x2 ADD PUSH1 0x20 DUP2 PUSH1 0x1 ADD DIV SWAP3 DUP4 ADD SWAP3 PUSH1 0x1 SUB MUL PUSH2 0x24AE JUMP JUMPDEST DUP1 ISZERO PUSH2 0x251C JUMPI DUP3 DUP2 PUSH2 0x100 EXP DUP2 SLOAD SWAP1 PUSH2 0xFFFF MUL NOT AND SWAP1 SSTORE PUSH1 0x2 ADD PUSH1 0x20 DUP2 PUSH1 0x1 ADD DIV SWAP3 DUP4 ADD SWAP3 PUSH1 0x1 SUB MUL PUSH2 0x24EE JUMP JUMPDEST POP JUMPDEST POP PUSH2 0x252A SWAP3 SWAP2 POP PUSH2 0x264F JUMP JUMPDEST POP SWAP1 JUMP JUMPDEST PUSH1 0x40 DUP1 MLOAD PUSH1 0x80 DUP2 ADD DUP3 MSTORE PUSH1 0x0 DUP1 DUP3 MSTORE PUSH1 0x20 DUP3 ADD DUP2 SWAP1 MSTORE SWAP2 DUP2 ADD DUP3 SWAP1 MSTORE PUSH1 0x60 DUP2 ADD SWAP2 SWAP1 SWAP2 MSTORE SWAP1 JUMP JUMPDEST PUSH1 0x40 DUP1 MLOAD PUSH1 0xA0 DUP2 ADD DUP3 MSTORE PUSH1 0x0 DUP1 DUP3 MSTORE PUSH1 0x20 DUP3 ADD DUP2 SWAP1 MSTORE PUSH1 0x60 SWAP3 DUP3 ADD DUP4 SWAP1 MSTORE SWAP2 DUP2 ADD DUP3 SWAP1 MSTORE PUSH1 0x80 DUP2 ADD SWAP2 SWAP1 SWAP2 MSTORE SWAP1 JUMP JUMPDEST PUSH1 0x40 DUP1 MLOAD PUSH2 0x140 DUP2 ADD DUP3 MSTORE PUSH1 0x60 DUP1 DUP3 MSTORE PUSH1 0x20 DUP3 ADD DUP2 SWAP1 MSTORE PUSH1 0x0 SWAP3 DUP3 ADD DUP4 SWAP1 MSTORE DUP1 DUP3 ADD DUP4 SWAP1 MSTORE PUSH1 0x80 DUP3 ADD DUP2 SWAP1 MSTORE PUSH1 0xA0 DUP3 ADD MSTORE PUSH1 0xC0 DUP2 ADD DUP3 SWAP1 MSTORE PUSH1 0xE0 DUP2 ADD DUP3 SWAP1 MSTORE PUSH2 0x100 DUP2 ADD DUP3 SWAP1 MSTORE PUSH2 0x120 DUP2 ADD SWAP2 SWAP1 SWAP2 MSTORE SWAP1 JUMP JUMPDEST PUSH1 0x40 DUP1 MLOAD PUSH2 0x100 DUP2 ADD DUP3 MSTORE PUSH1 0x0 DUP1 DUP3 MSTORE PUSH1 0x20 DUP3 ADD DUP2 SWAP1 MSTORE SWAP2 DUP2 ADD DUP3 SWAP1 MSTORE PUSH1 0x60 DUP1 DUP3 ADD DUP2 SWAP1 MSTORE PUSH1 0x80 DUP3 ADD DUP2 SWAP1 MSTORE PUSH1 0xA0 DUP3 ADD DUP2 SWAP1 MSTORE PUSH1 0xC0 DUP3 ADD MSTORE PUSH1 0xE0 DUP2 ADD SWAP2 SWAP1 SWAP2 MSTORE SWAP1 JUMP JUMPDEST PUSH1 0x40 DUP1 MLOAD PUSH1 0xC0 DUP2 ADD DUP3 MSTORE PUSH1 0x0 DUP1 DUP3 MSTORE PUSH1 0x20 DUP3 ADD DUP2 SWAP1 MSTORE SWAP2 DUP2 ADD DUP3 SWAP1 MSTORE PUSH1 0x60 DUP2 ADD DUP3 SWAP1 MSTORE PUSH1 0x80 DUP2 ADD DUP3 SWAP1 MSTORE PUSH1 0xA0 DUP2 ADD SWAP2 SWAP1 SWAP2 MSTORE SWAP1 JUMP JUMPDEST JUMPDEST DUP1 DUP3 GT ISZERO PUSH2 0x252A JUMPI PUSH1 0x0 DUP2 SSTORE PUSH1 0x1 ADD PUSH2 0x2650 JUMP JUMPDEST PUSH1 0x0 DUP3 PUSH1 0x1F DUP4 ADD SLT PUSH2 0x2674 JUMPI DUP1 DUP2 REVERT JUMPDEST DUP2 CALLDATALOAD PUSH1 0x20 PUSH8 0xFFFFFFFFFFFFFFFF DUP1 DUP4 GT ISZERO PUSH2 0x2691 JUMPI PUSH2 0x2691 PUSH2 0x31EE JUMP JUMPDEST DUP2 DUP4 MUL PUSH1 0x40 MLOAD DUP4 DUP3 DUP3 ADD ADD DUP2 DUP2 LT DUP5 DUP3 GT OR ISZERO PUSH2 0x26B0 JUMPI PUSH2 0x26B0 PUSH2 0x31EE JUMP JUMPDEST PUSH1 0x40 MSTORE DUP5 DUP2 MSTORE DUP4 DUP2 ADD SWAP3 POP DUP7 DUP5 ADD DUP3 DUP9 ADD DUP6 ADD DUP10 LT ISZERO PUSH2 0x26CE JUMPI DUP7 DUP8 REVERT JUMPDEST DUP7 SWAP3 POP JUMPDEST DUP6 DUP4 LT ISZERO PUSH2 0x26F7 JUMPI PUSH2 0x26E3 DUP2 PUSH2 0x2703 JUMP JUMPDEST DUP5 MSTORE SWAP3 DUP5 ADD SWAP3 PUSH1 0x1 SWAP3 SWAP1 SWAP3 ADD SWAP2 DUP5 ADD PUSH2 0x26D2 JUMP JUMPDEST POP SWAP8 SWAP7 POP POP POP POP POP POP POP JUMP JUMPDEST DUP1 CALLDATALOAD PUSH2 0xFFFF DUP2 AND DUP2 EQ PUSH2 0x1D33 JUMPI PUSH1 0x0 DUP1 REVERT JUMPDEST PUSH1 0x0 DUP1 PUSH1 0x0 PUSH1 0x60 DUP5 DUP7 SUB SLT ISZERO PUSH2 0x2729 JUMPI DUP3 DUP4 REVERT JUMPDEST DUP4 CALLDATALOAD PUSH1 0x1 PUSH1 0x1 PUSH1 0xA0 SHL SUB DUP2 AND DUP2 EQ PUSH2 0x273F JUMPI DUP4 DUP5 REVERT JUMPDEST SWAP3 POP PUSH1 0x20 DUP5 ADD CALLDATALOAD PUSH8 0xFFFFFFFFFFFFFFFF DUP2 GT ISZERO PUSH2 0x275A JUMPI DUP3 DUP4 REVERT JUMPDEST PUSH2 0x2766 DUP7 DUP3 DUP8 ADD PUSH2 0x2664 JUMP JUMPDEST SWAP3 POP POP PUSH2 0x2775 PUSH1 0x40 DUP6 ADD PUSH2 0x2703 JUMP JUMPDEST SWAP1 POP SWAP3 POP SWAP3 POP SWAP3 JUMP JUMPDEST PUSH1 0x0 DUP1 PUSH1 0x0 PUSH1 0x60 DUP5 DUP7 SUB SLT ISZERO PUSH2 0x2792 JUMPI DUP3 DUP4 REVERT JUMPDEST DUP4 CALLDATALOAD PUSH8 0xFFFFFFFFFFFFFFFF DUP2 GT ISZERO PUSH2 0x27A8 JUMPI DUP4 DUP5 REVERT JUMPDEST PUSH2 0x27B4 DUP7 DUP3 DUP8 ADD PUSH2 0x2664 JUMP JUMPDEST SWAP4 POP POP PUSH2 0x27C3 PUSH1 0x20 DUP6 ADD PUSH2 0x2703 JUMP JUMPDEST SWAP2 POP PUSH1 0x40 DUP5 ADD CALLDATALOAD SWAP1 POP SWAP3 POP SWAP3 POP SWAP3 JUMP JUMPDEST PUSH1 0x0 DUP1 PUSH1 0x0 DUP1 PUSH1 0x0 DUP1 PUSH1 0x0 DUP1 PUSH1 0x0 PUSH2 0x120 DUP11 DUP13 SUB SLT ISZERO PUSH2 0x27F1 JUMPI DUP5 DUP6 REVERT JUMPDEST PUSH2 0x27FA DUP11 PUSH2 0x2703 JUMP JUMPDEST SWAP9 POP PUSH2 0x2808 PUSH1 0x20 DUP12 ADD PUSH2 0x2703 JUMP JUMPDEST SWAP8 POP PUSH2 0x2816 PUSH1 0x40 DUP12 ADD PUSH2 0x2703 JUMP JUMPDEST SWAP7 POP PUSH2 0x2824 PUSH1 0x60 DUP12 ADD PUSH2 0x2703 JUMP JUMPDEST SWAP6 POP PUSH2 0x2832 PUSH1 0x80 DUP12 ADD PUSH2 0x2703 JUMP JUMPDEST SWAP5 POP PUSH2 0x2840 PUSH1 0xA0 DUP12 ADD PUSH2 0x2703 JUMP JUMPDEST SWAP4 POP PUSH2 0x284E PUSH1 0xC0 DUP12 ADD PUSH2 0x2703 JUMP JUMPDEST SWAP3 POP PUSH2 0x285C PUSH1 0xE0 DUP12 ADD PUSH2 0x2703 JUMP JUMPDEST SWAP2 POP PUSH2 0x286B PUSH2 0x100 DUP12 ADD PUSH2 0x2703 JUMP JUMPDEST SWAP1 POP SWAP3 SWAP6 SWAP9 POP SWAP3 SWAP6 SWAP9 POP SWAP3 SWAP6 SWAP9 JUMP JUMPDEST PUSH1 0x0 DUP1 PUSH1 0x0 DUP1 PUSH1 0x0 PUSH1 0xA0 DUP7 DUP9 SUB SLT ISZERO PUSH2 0x2891 JUMPI DUP1 DUP2 REVERT JUMPDEST DUP6 CALLDATALOAD SWAP5 POP PUSH1 0x20 DUP7 ADD CALLDATALOAD PUSH8 0xFFFFFFFFFFFFFFFF DUP1 DUP3 GT ISZERO PUSH2 0x28AF JUMPI DUP3 DUP4 REVERT JUMPDEST PUSH2 0x28BB DUP10 DUP4 DUP11 ADD PUSH2 0x2664 JUMP JUMPDEST SWAP6 POP PUSH1 0x40 DUP9 ADD CALLDATALOAD SWAP2 POP DUP1 DUP3 GT ISZERO PUSH2 0x28D0 JUMPI DUP3 DUP4 REVERT JUMPDEST POP PUSH2 0x28DD DUP9 DUP3 DUP10 ADD PUSH2 0x2664 JUMP JUMPDEST SWAP4 POP POP PUSH2 0x28EC PUSH1 0x60 DUP8 ADD PUSH2 0x2703 JUMP JUMPDEST SWAP2 POP PUSH2 0x28FA PUSH1 0x80 DUP8 ADD PUSH2 0x2703 JUMP JUMPDEST SWAP1 POP SWAP3 SWAP6 POP SWAP3 SWAP6 SWAP1 SWAP4 POP JUMP JUMPDEST PUSH1 0x0 DUP2 MLOAD DUP1 DUP5 MSTORE PUSH1 0x20 DUP1 DUP6 ADD SWAP5 POP DUP1 DUP5 ADD DUP4 JUMPDEST DUP4 DUP2 LT ISZERO PUSH2 0x297D JUMPI DUP2 MLOAD DUP1 MLOAD PUSH1 0xFF SWAP1 DUP2 AND DUP10 MSTORE DUP5 DUP3 ADD MLOAD DUP2 AND DUP6 DUP11 ADD MSTORE PUSH1 0x40 DUP1 DUP4 ADD MLOAD DUP3 AND SWAP1 DUP11 ADD MSTORE PUSH1 0x60 DUP1 DUP4 ADD MLOAD SWAP1 SWAP2 AND SWAP1 DUP10 ADD MSTORE PUSH1 0x80 DUP1 DUP3 ADD MLOAD DUP8 SIGNEXTEND SWAP1 DUP10 ADD MSTORE PUSH1 0xA0 SWAP1 DUP2 ADD MLOAD PUSH4 0xFFFFFFFF AND SWAP1 DUP9 ADD MSTORE PUSH1 0xC0 SWAP1 SWAP7 ADD SWAP6 SWAP1 DUP3 ADD SWAP1 PUSH1 0x1 ADD PUSH2 0x2919 JUMP JUMPDEST POP SWAP5 SWAP6 SWAP5 POP POP POP POP POP JUMP JUMPDEST PUSH1 0x0 DUP2 MLOAD DUP1 DUP5 MSTORE PUSH1 0x20 DUP1 DUP6 ADD SWAP5 POP DUP1 DUP5 ADD DUP4 JUMPDEST DUP4 DUP2 LT ISZERO PUSH2 0x297D JUMPI DUP2 MLOAD PUSH2 0xFFFF AND DUP8 MSTORE SWAP6 DUP3 ADD SWAP6 SWAP1 DUP3 ADD SWAP1 PUSH1 0x1 ADD PUSH2 0x299B JUMP JUMPDEST ISZERO ISZERO SWAP1 MSTORE JUMP JUMPDEST PUSH1 0x0 PUSH1 0x1 PUSH1 0x1 PUSH1 0xA0 SHL SUB DUP3 MLOAD AND DUP4 MSTORE PUSH1 0x20 DUP3 ADD MLOAD ISZERO ISZERO PUSH1 0x20 DUP5 ADD MSTORE PUSH1 0x40 DUP3 ADD MLOAD PUSH1 0xA0 PUSH1 0x40 DUP6 ADD MSTORE PUSH2 0x29F5 PUSH1 0xA0 DUP6 ADD DUP3 PUSH2 0x2988 JUMP JUMPDEST SWAP1 POP PUSH2 0xFFFF PUSH1 0x60 DUP5 ADD MLOAD AND PUSH1 0x60 DUP6 ADD MSTORE PUSH1 0x80 DUP4 ADD MLOAD PUSH1 0x80 DUP6 ADD MSTORE DUP1 SWAP2 POP POP SWAP3 SWAP2 POP POP JUMP JUMPDEST PUSH2 0xFFFF AND SWAP1 MSTORE JUMP JUMPDEST PUSH1 0xFF AND SWAP1 MSTORE JUMP JUMPDEST SWAP3 DUP4 MSTORE PUSH1 0x20 DUP4 ADD SWAP2 SWAP1 SWAP2 MSTORE PUSH1 0x60 SHL PUSH32 0xFFFFFFFFFFFFFFFFFFFFFFFFFFFFFFFFFFFFFFFF000000000000000000000000 AND PUSH1 0x40 DUP3 ADD MSTORE PUSH1 0x54 ADD SWAP1 JUMP JUMPDEST PUSH1 0x1 PUSH1 0x1 PUSH1 0xA0 SHL SUB SWAP2 SWAP1 SWAP2 AND DUP2 MSTORE PUSH1 0x20 ADD SWAP1 JUMP JUMPDEST PUSH1 0x20 DUP1 DUP3 MSTORE DUP3 MLOAD DUP3 DUP3 ADD DUP2 SWAP1 MSTORE PUSH1 0x0 SWAP2 SWAP1 PUSH1 0x40 SWAP1 DUP2 DUP6 ADD SWAP1 DUP7 DUP5 ADD DUP6 JUMPDEST DUP3 DUP2 LT ISZERO PUSH2 0x2AE0 JUMPI DUP2 MLOAD DUP1 MLOAD PUSH1 0x1 PUSH1 0x1 PUSH1 0xA0 SHL SUB AND DUP6 MSTORE DUP7 DUP2 ADD MLOAD DUP8 DUP7 ADD MSTORE DUP6 DUP2 ADD MLOAD PUSH4 0xFFFFFFFF SWAP1 DUP2 AND DUP8 DUP8 ADD MSTORE PUSH1 0x60 SWAP2 DUP3 ADD MLOAD AND SWAP1 DUP6 ADD MSTORE PUSH1 0x80 SWAP1 SWAP4 ADD SWAP3 SWAP1 DUP6 ADD SWAP1 PUSH1 0x1 ADD PUSH2 0x2A94 JUMP JUMPDEST POP SWAP2 SWAP8 SWAP7 POP POP POP POP POP POP POP JUMP JUMPDEST PUSH1 0x0 PUSH1 0x20 DUP1 DUP4 ADD DUP2 DUP5 MSTORE DUP1 DUP6 MLOAD DUP1 DUP4 MSTORE PUSH1 0x40 DUP7 ADD SWAP2 POP PUSH1 0x40 DUP5 DUP3 MUL DUP8 ADD ADD SWAP3 POP DUP4 DUP8 ADD DUP6 JUMPDEST DUP3 DUP2 LT ISZERO PUSH2 0x2B40 JUMPI PUSH1 0x3F NOT DUP9 DUP7 SUB ADD DUP5 MSTORE PUSH2 0x2B2E DUP6 DUP4 MLOAD PUSH2 0x29C1 JUMP JUMPDEST SWAP5 POP SWAP3 DUP6 ADD SWAP3 SWAP1 DUP6 ADD SWAP1 PUSH1 0x1 ADD PUSH2 0x2B12 JUMP JUMPDEST POP SWAP3 SWAP8 SWAP7 POP POP POP POP POP POP POP JUMP JUMPDEST PUSH1 0x20 DUP1 DUP3 MSTORE DUP3 MLOAD DUP3 DUP3 ADD DUP2 SWAP1 MSTORE PUSH1 0x0 SWAP2 SWAP1 PUSH1 0x40 SWAP1 DUP2 DUP6 ADD SWAP1 DUP7 DUP5 ADD DUP6 JUMPDEST DUP3 DUP2 LT ISZERO PUSH2 0x2AE0 JUMPI DUP2 MLOAD DUP1 MLOAD PUSH2 0xFFFF SWAP1 DUP2 AND DUP7 MSTORE DUP8 DUP3 ADD MLOAD DUP2 AND DUP9 DUP8 ADD MSTORE DUP7 DUP3 ADD MLOAD DUP1 MLOAD DUP3 AND DUP9 DUP9 ADD MSTORE DUP9 ADD MLOAD AND PUSH1 0x60 DUP1 DUP8 ADD SWAP2 SWAP1 SWAP2 MSTORE DUP2 ADD MLOAD PUSH1 0x80 PUSH2 0x2BB2 DUP2 DUP9 ADD DUP4 PUSH2 0x2A19 JUMP JUMPDEST DUP3 ADD MLOAD SWAP1 POP PUSH1 0xA0 PUSH2 0x2BC5 DUP8 DUP3 ADD DUP4 PUSH2 0x2A19 JUMP JUMPDEST DUP3 ADD MLOAD SWAP1 POP PUSH1 0xC0 PUSH2 0x2BD8 DUP8 DUP3 ADD DUP4 PUSH2 0x2A19 JUMP JUMPDEST SWAP2 SWAP1 SWAP2 ADD MLOAD SWAP1 POP PUSH2 0x2BEC PUSH1 0xE0 DUP7 ADD DUP3 PUSH2 0x2A19 JUMP JUMPDEST POP PUSH2 0x100 SWAP4 SWAP1 SWAP4 ADD SWAP3 SWAP1 DUP6 ADD SWAP1 PUSH1 0x1 ADD PUSH2 0x2B6A JUMP JUMPDEST PUSH1 0x20 DUP1 DUP3 MSTORE PUSH1 0x22 SWAP1 DUP3 ADD MSTORE PUSH32 0x53656C656374696F6E206E6565647320746F2068617665203420656C656D656E PUSH1 0x40 DUP3 ADD MSTORE PUSH32 0x7473000000000000000000000000000000000000000000000000000000000000 PUSH1 0x60 DUP3 ADD MSTORE PUSH1 0x80 ADD SWAP1 JUMP JUMPDEST PUSH1 0x20 DUP1 DUP3 MSTORE PUSH1 0x24 SWAP1 DUP3 ADD MSTORE PUSH32 0x43616E206F6E6C792061747461636B2061207265676973746572656420646566 PUSH1 0x40 DUP3 ADD MSTORE PUSH32 0x656E636500000000000000000000000000000000000000000000000000000000 PUSH1 0x60 DUP3 ADD MSTORE PUSH1 0x80 ADD SWAP1 JUMP JUMPDEST PUSH1 0x20 DUP1 DUP3 MSTORE PUSH1 0x16 SWAP1 DUP3 ADD MSTORE PUSH32 0x446566656E6365206E6F74207265676973746572656400000000000000000000 PUSH1 0x40 DUP3 ADD MSTORE PUSH1 0x60 ADD SWAP1 JUMP JUMPDEST PUSH1 0x20 DUP1 DUP3 MSTORE PUSH1 0x33 SWAP1 DUP3 ADD MSTORE PUSH32 0x546869732066756E6374696F6E206973207265737472696374656420746F2074 PUSH1 0x40 DUP3 ADD MSTORE PUSH32 0x686520636F6E74726163742773206F776E657200000000000000000000000000 PUSH1 0x60 DUP3 ADD MSTORE PUSH1 0x80 ADD SWAP1 JUMP JUMPDEST PUSH1 0x0 PUSH1 0x20 DUP3 MSTORE DUP3 MLOAD PUSH2 0x140 DUP1 PUSH1 0x20 DUP6 ADD MSTORE PUSH2 0x2D6E PUSH2 0x160 DUP6 ADD DUP4 PUSH2 0x2988 JUMP JUMPDEST SWAP2 POP PUSH1 0x20 DUP6 ADD MLOAD PUSH1 0x1F NOT DUP1 DUP7 DUP6 SUB ADD PUSH1 0x40 DUP8 ADD MSTORE PUSH2 0x2D8C DUP5 DUP4 PUSH2 0x2988 JUMP JUMPDEST SWAP4 POP PUSH1 0x40 DUP8 ADD MLOAD SWAP2 POP PUSH2 0x2DA2 PUSH1 0x60 DUP8 ADD DUP4 PUSH2 0x2A19 JUMP JUMPDEST PUSH1 0x60 DUP8 ADD MLOAD SWAP2 POP PUSH2 0x2DB6 PUSH1 0x80 DUP8 ADD DUP4 PUSH2 0x2A19 JUMP JUMPDEST PUSH1 0x80 DUP8 ADD MLOAD SWAP2 POP DUP1 DUP7 DUP6 SUB ADD PUSH1 0xA0 DUP8 ADD MSTORE PUSH2 0x2DD1 DUP5 DUP4 PUSH2 0x2906 JUMP JUMPDEST SWAP4 POP PUSH1 0xA0 DUP8 ADD MLOAD SWAP2 POP DUP1 DUP7 DUP6 SUB ADD PUSH1 0xC0 DUP8 ADD MSTORE POP PUSH2 0x2DEF DUP4 DUP3 PUSH2 0x2906 JUMP JUMPDEST SWAP3 POP POP PUSH1 0xC0 DUP6 ADD MLOAD PUSH2 0x2E04 PUSH1 0xE0 DUP7 ADD DUP3 PUSH2 0x29BB JUMP JUMPDEST POP PUSH1 0xE0 DUP6 ADD MLOAD PUSH2 0x100 PUSH2 0x2E19 DUP2 DUP8 ADD DUP4 PUSH2 0x29BB JUMP JUMPDEST DUP7 ADD MLOAD SWAP1 POP PUSH2 0x120 PUSH2 0x2E2D DUP7 DUP3 ADD DUP4 PUSH2 0x2A21 JUMP JUMPDEST SWAP6 SWAP1 SWAP6 ADD MLOAD SWAP4 ADD SWAP3 SWAP1 SWAP3 MSTORE POP SWAP2 SWAP1 POP JUMP JUMPDEST PUSH1 0x0 PUSH1 0x20 DUP3 MSTORE PUSH2 0x2334 PUSH1 0x20 DUP4 ADD DUP5 PUSH2 0x29C1 JUMP JUMPDEST PUSH1 0x0 DUP2 DUP2 SIGNEXTEND DUP4 DUP3 SIGNEXTEND DUP3 DUP3 SLT DUP3 PUSH1 0x7F SUB DUP3 SGT DUP2 ISZERO AND ISZERO PUSH2 0x2E72 JUMPI PUSH2 0x2E72 PUSH2 0x31C2 JUMP JUMPDEST DUP3 PUSH1 0x7F NOT SUB DUP3 SLT DUP2 AND ISZERO PUSH2 0x2E88 JUMPI PUSH2 0x2E88 PUSH2 0x31C2 JUMP JUMPDEST POP ADD SWAP4 SWAP3 POP POP POP JUMP JUMPDEST PUSH1 0x0 PUSH2 0xFFFF DUP1 DUP4 AND DUP2 DUP6 AND DUP1 DUP4 SUB DUP3 GT ISZERO PUSH2 0x2EAE JUMPI PUSH2 0x2EAE PUSH2 0x31C2 JUMP JUMPDEST ADD SWAP5 SWAP4 POP POP POP POP JUMP JUMPDEST PUSH1 0x0 PUSH8 0xFFFFFFFFFFFFFFFF DUP1 DUP4 AND DUP2 DUP6 AND DUP1 DUP4 SUB DUP3 GT ISZERO PUSH2 0x2EAE JUMPI PUSH2 0x2EAE PUSH2 0x31C2 JUMP JUMPDEST PUSH1 0x0 PUSH2 0xFFFF DUP1 DUP5 AND DUP1 PUSH2 0x2EEF JUMPI PUSH2 0x2EEF PUSH2 0x31D8 JUMP JUMPDEST SWAP3 AND SWAP2 SWAP1 SWAP2 DIV SWAP3 SWAP2 POP POP JUMP JUMPDEST PUSH1 0x0 PUSH8 0xFFFFFFFFFFFFFFFF DUP1 DUP5 AND DUP1 PUSH2 0x2EEF JUMPI PUSH2 0x2EEF PUSH2 0x31D8 JUMP JUMPDEST PUSH1 0x0 DUP2 PUSH1 0x1 SIGNEXTEND DUP4 PUSH1 0x1 SIGNEXTEND PUSH2 0x7FFF DUP4 DUP3 SGT DUP5 DUP5 SGT DUP4 DUP4 DIV DUP6 GT DUP3 DUP3 AND AND ISZERO PUSH2 0x2F3F JUMPI PUSH2 0x2F3F PUSH2 0x31C2 JUMP JUMPDEST PUSH2 0x7FFF NOT DUP7 DUP6 SLT DUP3 DUP2 AND DUP8 DUP4 SDIV DUP8 SLT AND ISZERO PUSH2 0x2F5C JUMPI PUSH2 0x2F5C PUSH2 0x31C2 JUMP JUMPDEST DUP8 DUP8 SLT SWAP3 POP DUP6 DUP3 SDIV DUP8 SLT DUP5 DUP5 AND AND ISZERO PUSH2 0x2F77 JUMPI PUSH2 0x2F77 PUSH2 0x31C2 JUMP JUMPDEST DUP6 DUP6 SDIV DUP8 SLT DUP2 DUP5 AND AND ISZERO PUSH2 0x2F8D JUMPI PUSH2 0x2F8D PUSH2 0x31C2 JUMP JUMPDEST POP POP POP SWAP3 SWAP1 SWAP2 MUL SWAP6 SWAP5 POP POP POP POP POP JUMP JUMPDEST PUSH1 0x0 DUP2 PUSH1 0x7 SIGNEXTEND DUP4 PUSH1 0x7 SIGNEXTEND PUSH8 0x7FFFFFFFFFFFFFFF DUP4 DUP3 SGT DUP5 DUP5 SGT DUP4 DUP4 DIV DUP6 GT DUP3 DUP3 AND AND ISZERO PUSH2 0x2FCC JUMPI PUSH2 0x2FCC PUSH2 0x31C2 JUMP JUMPDEST PUSH8 0x7FFFFFFFFFFFFFFF NOT DUP7 DUP6 SLT DUP3 DUP2 AND DUP8 DUP4 SDIV DUP8 SLT AND ISZERO PUSH2 0x2F5C JUMPI PUSH2 0x2F5C PUSH2 0x31C2 JUMP JUMPDEST PUSH1 0x0 PUSH2 0xFFFF DUP1 DUP4 AND DUP2 DUP6 AND DUP2 DUP4 DIV DUP2 GT DUP3 ISZERO ISZERO AND ISZERO PUSH2 0x3010 JUMPI PUSH2 0x3010 PUSH2 0x31C2 JUMP JUMPDEST MUL SWAP5 SWAP4 POP POP POP POP JUMP JUMPDEST PUSH1 0x0 PUSH4 0xFFFFFFFF DUP1 DUP4 AND DUP2 DUP6 AND DUP2 DUP4 DIV DUP2 GT DUP3 ISZERO ISZERO AND ISZERO PUSH2 0x3010 JUMPI PUSH2 0x3010 PUSH2 0x31C2 JUMP JUMPDEST PUSH1 0x0 PUSH1 0xFF DUP3 AND PUSH1 0xFF DUP5 AND DUP2 PUSH1 0xFF DIV DUP2 GT DUP3 ISZERO ISZERO AND ISZERO PUSH2 0x305D JUMPI PUSH2 0x305D PUSH2 0x31C2 JUMP JUMPDEST MUL SWAP4 SWAP3 POP POP POP JUMP JUMPDEST PUSH1 0x0 DUP2 PUSH1 0x1 SIGNEXTEND DUP4 PUSH1 0x1 SIGNEXTEND DUP3 DUP2 SLT DUP2 PUSH2 0x7FFF NOT ADD DUP4 SLT DUP2 ISZERO AND ISZERO PUSH2 0x308A JUMPI PUSH2 0x308A PUSH2 0x31C2 JUMP JUMPDEST DUP2 PUSH2 0x7FFF ADD DUP4 SGT DUP2 AND ISZERO PUSH2 0x30A0 JUMPI PUSH2 0x30A0 PUSH2 0x31C2 JUMP JUMPDEST POP SWAP1 SUB SWAP4 SWAP3 POP POP POP JUMP JUMPDEST PUSH1 0x0 DUP2 PUSH1 0x7 SIGNEXTEND DUP4 PUSH1 0x7 SIGNEXTEND DUP3 DUP2 SLT DUP2 PUSH8 0x7FFFFFFFFFFFFFFF NOT ADD DUP4 SLT DUP2 ISZERO AND ISZERO PUSH2 0x30D5 JUMPI PUSH2 0x30D5 PUSH2 0x31C2 JUMP JUMPDEST DUP2 PUSH8 0x7FFFFFFFFFFFFFFF ADD DUP4 SGT DUP2 AND ISZERO PUSH2 0x30A0 JUMPI PUSH2 0x30A0 PUSH2 0x31C2 JUMP JUMPDEST PUSH1 0x0 PUSH2 0xFFFF DUP4 DUP2 AND SWAP1 DUP4 AND DUP2 DUP2 LT ISZERO PUSH2 0x310C JUMPI PUSH2 0x310C PUSH2 0x31C2 JUMP JUMPDEST SUB SWAP4 SWAP3 POP POP POP JUMP JUMPDEST PUSH1 0x0 DUP2 PUSH1 0x1 SIGNEXTEND PUSH2 0x7FFF NOT DUP2 EQ ISZERO PUSH2 0x312D JUMPI PUSH2 0x312D PUSH2 0x31C2 JUMP JUMPDEST PUSH1 0x0 NOT ADD SWAP3 SWAP2 POP POP JUMP JUMPDEST PUSH1 0x0 PUSH2 0xFFFF DUP1 DUP4 AND DUP2 DUP2 EQ ISZERO PUSH2 0x314F JUMPI PUSH2 0x314F PUSH2 0x31C2 JUMP JUMPDEST PUSH1 0x1 ADD SWAP4 SWAP3 POP POP POP JUMP JUMPDEST PUSH1 0x0 PUSH1 0x0 NOT DUP3 EQ ISZERO PUSH2 0x316D JUMPI PUSH2 0x316D PUSH2 0x31C2 JUMP JUMPDEST POP PUSH1 0x1 ADD SWAP1 JUMP JUMPDEST PUSH1 0x0 PUSH4 0xFFFFFFFF DUP1 DUP4 AND DUP2 DUP2 EQ ISZERO PUSH2 0x314F JUMPI PUSH2 0x314F PUSH2 0x31C2 JUMP JUMPDEST PUSH1 0x0 PUSH1 0xFF DUP3 AND PUSH1 0xFF DUP2 EQ ISZERO PUSH2 0x31A5 JUMPI PUSH2 0x31A5 PUSH2 0x31C2 JUMP JUMPDEST PUSH1 0x1 ADD SWAP3 SWAP2 POP POP JUMP JUMPDEST PUSH1 0x0 DUP3 PUSH2 0x31BD JUMPI PUSH2 0x31BD PUSH2 0x31D8 JUMP JUMPDEST POP MOD SWAP1 JUMP JUMPDEST PUSH4 0x4E487B71 PUSH1 0xE0 SHL PUSH1 0x0 MSTORE PUSH1 0x11 PUSH1 0x4 MSTORE PUSH1 0x24 PUSH1 0x0 REVERT JUMPDEST PUSH4 0x4E487B71 PUSH1 0xE0 SHL PUSH1 0x0 MSTORE PUSH1 0x12 PUSH1 0x4 MSTORE PUSH1 0x24 PUSH1 0x0 REVERT JUMPDEST PUSH4 0x4E487B71 PUSH1 0xE0 SHL PUSH1 0x0 MSTORE PUSH1 0x41 PUSH1 0x4 MSTORE PUSH1 0x24 PUSH1 0x0 REVERT INVALID LOG2 PUSH5 0x6970667358 0x22 SLT KECCAK256 0x2D 0xAF 0xF8 0xF7 PUSH5 0xDD38CE5695 0xA8 ISZERO MOD 0x4A SAR OR 0xCE DUP11 0xEA SWAP4 0xAF PUSH11 0x7699F616B843E03A077F64 PUSH20 0x6F6C634300080000330000000000000000000000 "
        },
        "methodIdentifiers": {
          "addShip(uint16,uint16,uint16,uint16,uint16,uint16,uint16,uint16,uint16)": "c0d0504a",
          "attack(address,uint16[],uint16)": "3bed82bf",
          "getAllDefenders()": "7af584de",
          "getLeaderboard()": "6d763a6e",
          "getOwnDefence()": "d43b838c",
          "getShips()": "6738f234",
          "owner()": "8da5cb5b",
          "registerDefence(uint16[],uint16,bytes32)": "09d27389",
          "replay(uint256,uint16[],uint16[],uint16,uint16)": "ffa0c0c4"
        }
      }
    }
  }
}